{
  "_format": "hh-sol-artifact-1",
  "contractName": "ComplexRewarderPerSecV4",
  "sourceName": "contracts/farm/v2/rewarders/ComplexRewarderPerSecV4.sol",
  "abi": [
    {
      "inputs": [
        {
          "internalType": "contract IBoringERC20",
          "name": "_rewardToken",
          "type": "address"
        },
        {
          "internalType": "contract IGammaDistributorV2",
          "name": "_distributorV2",
          "type": "address"
        },
        {
          "internalType": "bool",
          "name": "_isNative",
          "type": "bool"
        }
      ],
      "stateMutability": "nonpayable",
      "type": "constructor"
    },
    {
      "anonymous": false,
      "inputs": [
        {
          "indexed": true,
          "internalType": "uint256",
          "name": "pid",
          "type": "uint256"
        }
      ],
      "name": "AddPool",
      "type": "event"
    },
    {
      "anonymous": false,
      "inputs": [
        {
          "indexed": true,
          "internalType": "uint256",
          "name": "pid",
          "type": "uint256"
        },
        {
          "indexed": true,
          "internalType": "uint256",
          "name": "phase",
          "type": "uint256"
        },
        {
          "indexed": false,
          "internalType": "uint256",
          "name": "endTimestamp",
          "type": "uint256"
        },
        {
          "indexed": false,
          "internalType": "uint256",
          "name": "rewardPerSec",
          "type": "uint256"
        }
      ],
      "name": "AddRewardInfo",
      "type": "event"
    },
    {
      "anonymous": false,
      "inputs": [
        {
          "indexed": true,
          "internalType": "address",
          "name": "user",
          "type": "address"
        },
        {
          "indexed": false,
          "internalType": "uint256",
          "name": "amount",
          "type": "uint256"
        }
      ],
      "name": "OnReward",
      "type": "event"
    },
    {
      "anonymous": false,
      "inputs": [
        {
          "indexed": true,
          "internalType": "address",
          "name": "previousOwner",
          "type": "address"
        },
        {
          "indexed": true,
          "internalType": "address",
          "name": "newOwner",
          "type": "address"
        }
      ],
      "name": "OwnershipTransferred",
      "type": "event"
    },
    {
      "anonymous": false,
      "inputs": [
        {
          "indexed": false,
          "internalType": "uint256",
          "name": "oldRate",
          "type": "uint256"
        },
        {
          "indexed": false,
          "internalType": "uint256",
          "name": "newRate",
          "type": "uint256"
        }
      ],
      "name": "RewardRateUpdated",
      "type": "event"
    },
    {
      "anonymous": false,
      "inputs": [
        {
          "indexed": true,
          "internalType": "uint256",
          "name": "pid",
          "type": "uint256"
        },
        {
          "indexed": false,
          "internalType": "uint256",
          "name": "lastRewardTimestamp",
          "type": "uint256"
        },
        {
          "indexed": false,
          "internalType": "uint256",
          "name": "lpSupply",
          "type": "uint256"
        },
        {
          "indexed": false,
          "internalType": "uint256",
          "name": "accTokenPerShare",
          "type": "uint256"
        }
      ],
      "name": "UpdatePool",
      "type": "event"
    },
    {
      "inputs": [
        {
          "internalType": "uint256",
          "name": "_from",
          "type": "uint256"
        },
        {
          "internalType": "uint256",
          "name": "_to",
          "type": "uint256"
        },
        {
          "internalType": "uint256",
          "name": "_endTimestamp",
          "type": "uint256"
        }
      ],
      "name": "_getTimeElapsed",
      "outputs": [
        {
          "internalType": "uint256",
          "name": "",
          "type": "uint256"
        }
      ],
      "stateMutability": "pure",
      "type": "function"
    },
    {
      "inputs": [
        {
          "internalType": "uint256",
          "name": "pid",
          "type": "uint256"
        }
      ],
      "name": "_updatePool",
      "outputs": [
        {
          "components": [
            {
              "internalType": "uint256",
              "name": "accTokenPerShare",
              "type": "uint256"
            },
            {
              "internalType": "uint256",
              "name": "startTimestamp",
              "type": "uint256"
            },
            {
              "internalType": "uint256",
              "name": "lastRewardTimestamp",
              "type": "uint256"
            },
            {
              "internalType": "uint256",
              "name": "totalRewards",
              "type": "uint256"
            }
          ],
          "internalType": "struct ComplexRewarderPerSecV4.PoolInfo",
          "name": "pool",
          "type": "tuple"
        }
      ],
      "stateMutability": "nonpayable",
      "type": "function"
    },
    {
      "inputs": [
        {
          "internalType": "uint256",
          "name": "_pid",
          "type": "uint256"
        },
        {
          "internalType": "uint256",
          "name": "_startTimestamp",
          "type": "uint256"
        }
      ],
      "name": "add",
      "outputs": [],
      "stateMutability": "nonpayable",
      "type": "function"
    },
    {
      "inputs": [
        {
          "internalType": "uint256",
          "name": "_pid",
          "type": "uint256"
        },
        {
          "internalType": "uint256",
          "name": "_endTimestamp",
          "type": "uint256"
        },
        {
          "internalType": "uint256",
          "name": "_rewardPerSec",
          "type": "uint256"
        }
      ],
      "name": "addRewardInfo",
      "outputs": [],
      "stateMutability": "payable",
      "type": "function"
    },
    {
      "inputs": [
        {
          "internalType": "uint256",
          "name": "_pid",
          "type": "uint256"
        }
      ],
      "name": "currentEndTimestamp",
      "outputs": [
        {
          "internalType": "uint256",
          "name": "",
          "type": "uint256"
        }
      ],
      "stateMutability": "view",
      "type": "function"
    },
    {
      "inputs": [],
      "name": "distributorV2",
      "outputs": [
        {
          "internalType": "contract IGammaDistributorV2",
          "name": "",
          "type": "address"
        }
      ],
      "stateMutability": "view",
      "type": "function"
    },
    {
      "inputs": [
        {
          "internalType": "uint256",
          "name": "_pid",
          "type": "uint256"
        },
        {
          "internalType": "uint256",
          "name": "_amount",
          "type": "uint256"
        },
        {
          "internalType": "address",
          "name": "_beneficiary",
          "type": "address"
        }
      ],
      "name": "emergencyRewardWithdraw",
      "outputs": [],
      "stateMutability": "nonpayable",
      "type": "function"
    },
    {
      "inputs": [
        {
          "internalType": "uint256",
          "name": "_amount",
          "type": "uint256"
        },
        {
          "internalType": "address",
          "name": "_beneficiary",
          "type": "address"
        }
      ],
      "name": "emergencyWithdraw",
      "outputs": [],
      "stateMutability": "nonpayable",
      "type": "function"
    },
    {
      "inputs": [],
      "name": "isNative",
      "outputs": [
        {
          "internalType": "bool",
          "name": "",
          "type": "bool"
        }
      ],
      "stateMutability": "view",
      "type": "function"
    },
    {
      "inputs": [],
      "name": "massUpdatePools",
      "outputs": [],
      "stateMutability": "nonpayable",
      "type": "function"
    },
    {
      "inputs": [
        {
          "internalType": "uint256",
          "name": "_pid",
          "type": "uint256"
        },
        {
          "internalType": "address",
          "name": "_user",
          "type": "address"
        },
        {
          "internalType": "uint256",
          "name": "_amount",
          "type": "uint256"
        }
      ],
      "name": "onTauReward",
      "outputs": [],
      "stateMutability": "nonpayable",
      "type": "function"
    },
    {
      "inputs": [],
      "name": "owner",
      "outputs": [
        {
          "internalType": "address",
          "name": "",
          "type": "address"
        }
      ],
      "stateMutability": "view",
      "type": "function"
    },
    {
      "inputs": [
        {
          "internalType": "uint256",
          "name": "_pid",
          "type": "uint256"
        },
        {
          "internalType": "address",
          "name": "_user",
          "type": "address"
        }
      ],
      "name": "pendingTokens",
      "outputs": [
        {
          "internalType": "uint256",
          "name": "",
          "type": "uint256"
        }
      ],
      "stateMutability": "view",
      "type": "function"
    },
    {
      "inputs": [
        {
          "internalType": "uint256",
          "name": "",
          "type": "uint256"
        }
      ],
      "name": "poolIds",
      "outputs": [
        {
          "internalType": "uint256",
          "name": "",
          "type": "uint256"
        }
      ],
      "stateMutability": "view",
      "type": "function"
    },
    {
      "inputs": [
        {
          "internalType": "uint256",
          "name": "",
          "type": "uint256"
        }
      ],
      "name": "poolInfo",
      "outputs": [
        {
          "internalType": "uint256",
          "name": "accTokenPerShare",
          "type": "uint256"
        },
        {
          "internalType": "uint256",
          "name": "startTimestamp",
          "type": "uint256"
        },
        {
          "internalType": "uint256",
          "name": "lastRewardTimestamp",
          "type": "uint256"
        },
        {
          "internalType": "uint256",
          "name": "totalRewards",
          "type": "uint256"
        }
      ],
      "stateMutability": "view",
      "type": "function"
    },
    {
      "inputs": [
        {
          "internalType": "uint256",
          "name": "",
          "type": "uint256"
        },
        {
          "internalType": "uint256",
          "name": "",
          "type": "uint256"
        }
      ],
      "name": "poolRewardInfo",
      "outputs": [
        {
          "internalType": "uint256",
          "name": "startTimestamp",
          "type": "uint256"
        },
        {
          "internalType": "uint256",
          "name": "endTimestamp",
          "type": "uint256"
        },
        {
          "internalType": "uint256",
          "name": "rewardPerSec",
          "type": "uint256"
        }
      ],
      "stateMutability": "view",
      "type": "function"
    },
    {
      "inputs": [
        {
          "internalType": "uint256",
          "name": "_pid",
          "type": "uint256"
        }
      ],
      "name": "poolRewardsPerSec",
      "outputs": [
        {
          "internalType": "uint256",
          "name": "",
          "type": "uint256"
        }
      ],
      "stateMutability": "view",
      "type": "function"
    },
    {
      "inputs": [],
      "name": "renounceOwnership",
      "outputs": [],
      "stateMutability": "nonpayable",
      "type": "function"
    },
    {
      "inputs": [],
      "name": "rewardInfoLimit",
      "outputs": [
        {
          "internalType": "uint256",
          "name": "",
          "type": "uint256"
        }
      ],
      "stateMutability": "view",
      "type": "function"
    },
    {
      "inputs": [],
      "name": "rewardToken",
      "outputs": [
        {
          "internalType": "contract IBoringERC20",
          "name": "",
          "type": "address"
        }
      ],
      "stateMutability": "view",
      "type": "function"
    },
    {
      "inputs": [
        {
          "internalType": "address",
          "name": "newOwner",
          "type": "address"
        }
      ],
      "name": "transferOwnership",
      "outputs": [],
      "stateMutability": "nonpayable",
      "type": "function"
    },
    {
      "inputs": [
        {
          "internalType": "uint256",
          "name": "_pid",
          "type": "uint256"
        }
      ],
      "name": "updatePool",
      "outputs": [
        {
          "components": [
            {
              "internalType": "uint256",
              "name": "accTokenPerShare",
              "type": "uint256"
            },
            {
              "internalType": "uint256",
              "name": "startTimestamp",
              "type": "uint256"
            },
            {
              "internalType": "uint256",
              "name": "lastRewardTimestamp",
              "type": "uint256"
            },
            {
              "internalType": "uint256",
              "name": "totalRewards",
              "type": "uint256"
            }
          ],
          "internalType": "struct ComplexRewarderPerSecV4.PoolInfo",
          "name": "pool",
          "type": "tuple"
        }
      ],
      "stateMutability": "nonpayable",
      "type": "function"
    },
    {
      "inputs": [
        {
          "internalType": "uint256",
          "name": "",
          "type": "uint256"
        },
        {
          "internalType": "address",
          "name": "",
          "type": "address"
        }
      ],
      "name": "userInfo",
      "outputs": [
        {
          "internalType": "uint256",
          "name": "amount",
          "type": "uint256"
        },
        {
          "internalType": "uint256",
          "name": "rewardDebt",
          "type": "uint256"
        }
      ],
      "stateMutability": "view",
      "type": "function"
    }
  ],
  "bytecode": "0x610120604052603460e0523480156200001757600080fd5b5060405162002ed738038062002ed78339810160408190526200003a9162000389565b620000453362000248565b6001808190555062000062836200029860201b62001a761760201c565b620000cf5760405162461bcd60e51b815260206004820152603260248201527f636f6e7374727563746f723a2072657761726420746f6b656e206d7573742062604482015271194818481d985b1a590818dbdb9d1c9858dd60721b60648201526084015b60405180910390fd5b620000e5826200029860201b62001a761760201c565b620001595760405162461bcd60e51b815260206004820152603860248201527f636f6e7374727563746f723a2047616d6d614469737472696275746f7256322060448201527f6d75737420626520612076616c696420636f6e747261637400000000000000006064820152608401620000c6565b6001600160a01b03808416608052821660a05280151560c0526000816200019f5762000199846001600160a01b0316620002a760201b62001a921760201c565b620001a2565b60125b60ff169050601e81106200021f5760405162461bcd60e51b815260206004820152603960248201527f636f6e7374727563746f723a2072657761726420746f6b656e20646563696d6160448201527f6c73206d75737420626520696e666572696f7220746f203330000000000000006064820152608401620000c6565b6200022c81601e620003f7565b6200023990600a62000510565b61010052506200058892505050565b600080546001600160a01b038381166001600160a01b0319831681178455604051919092169283917f8be0079c531659141344cd1fd0a4f28419497f9722a3daafe3b4186f6b6457e09190a35050565b6001600160a01b03163b151590565b60408051600481526024810182526020810180516001600160e01b031663313ce56760e01b1790529051600091829182916001600160a01b03861691620002ef919062000525565b600060405180830381855afa9150503d80600081146200032c576040519150601f19603f3d011682016040523d82523d6000602084013e62000331565b606091505b509150915081801562000345575080516020145b6200035257601262000368565b8080602001905181019062000368919062000563565b949350505050565b6001600160a01b03811681146200038657600080fd5b50565b6000806000606084860312156200039f57600080fd5b8351620003ac8162000370565b6020850151909350620003bf8162000370565b60408501519092508015158114620003d657600080fd5b809150509250925092565b634e487b7160e01b600052601160045260246000fd5b6000828210156200040c576200040c620003e1565b500390565b600181815b8085111562000452578160001904821115620004365762000436620003e1565b808516156200044457918102915b93841c939080029062000416565b509250929050565b6000826200046b575060016200050a565b816200047a575060006200050a565b81600181146200049357600281146200049e57620004be565b60019150506200050a565b60ff841115620004b257620004b2620003e1565b50506001821b6200050a565b5060208310610133831016604e8410600b8410161715620004e3575081810a6200050a565b620004ef838362000411565b8060001904821115620005065762000506620003e1565b0290505b92915050565b60006200051e83836200045a565b9392505050565b6000825160005b818110156200054857602081860181015185830152016200052c565b8181111562000558576000828501525b509190910192915050565b6000602082840312156200057657600080fd5b815160ff811681146200051e57600080fd5b60805160a05160c05160e0516101005161287e620006596000396000818161141f015281816117a7015281816119a301528181611e990152611eed015260008181610196015261092f0152600081816103ae0152818161079c01528181610bd801528181610d95015281816116aa01526117ee0152600081816104120152818161063e01528181611253015281816115b50152611d6601526000818161056a015281816107db01528181610c1501528181610dd2015281816117030152818161192f0152611975015261287e6000f3fe60806040526004361061017f5760003560e01c806372333631116100d65780639e494bee1161007f578063f46ad5a211610059578063f46ad5a214610538578063f7c618c114610558578063ffcd42631461058c57600080fd5b80639e494bee146104d8578063d4aa89b5146104f8578063f2fde38b1461051857600080fd5b80637d0d9d5f116100b05780637d0d9d5f146104005780638da5cb5b1461045957806393f1a40b1461048457600080fd5b8063723336311461037c57806373cfc6b21461039c578063771602f7146103e057600080fd5b80632f940c7011610138578063630b5ba111610112578063630b5ba11461033257806369883b4e14610347578063715018a61461036757600080fd5b80632f940c701461029f578063465e81ec146102bf57806351eb05a6146102df57600080fd5b80631526fe27116101695780631526fe27146102065780631d1231311461026a5780632ea807c51461028c57600080fd5b8062d74850146101845780630832cfbf146101cb575b600080fd5b34801561019057600080fd5b506101b87f000000000000000000000000000000000000000000000000000000000000000081565b6040519081526020015b60405180910390f35b3480156101d757600080fd5b506101eb6101e6366004612535565b6105ac565b604080519384526020840192909252908201526060016101c2565b34801561021257600080fd5b5061024a610221366004612557565b600260208190526000918252604090912080546001820154928201546003909201549092919084565b6040805194855260208501939093529183015260608201526080016101c2565b34801561027657600080fd5b5061028a610285366004612594565b6105ee565b005b61028a61029a3660046125c9565b61090a565b3480156102ab57600080fd5b5061028a6102ba3660046125f5565b610d83565b3480156102cb57600080fd5b506101b86102da366004612557565b610efd565b3480156102eb57600080fd5b506102ff6102fa366004612557565b610f0f565b6040516101c291908151815260208083015190820152604080830151908201526060918201519181019190915260800190565b34801561033e57600080fd5b5061028a610f5b565b34801561035357600080fd5b506101b8610362366004612557565b610f76565b34801561037357600080fd5b5061028a610f97565b34801561038857600080fd5b506101b86103973660046125c9565b610fa9565b3480156103a857600080fd5b506103d07f000000000000000000000000000000000000000000000000000000000000000081565b60405190151581526020016101c2565b3480156103ec57600080fd5b5061028a6103fb366004612535565b610ff2565b34801561040c57600080fd5b506104347f000000000000000000000000000000000000000000000000000000000000000081565b60405173ffffffffffffffffffffffffffffffffffffffff90911681526020016101c2565b34801561046557600080fd5b5060005473ffffffffffffffffffffffffffffffffffffffff16610434565b34801561049057600080fd5b506104c361049f3660046125f5565b60056020908152600092835260408084209091529082529020805460019091015482565b604080519283526020830191909152016101c2565b3480156104e457600080fd5b506101b86104f3366004612557565b611123565b34801561050457600080fd5b506102ff610513366004612557565b61112f565b34801561052457600080fd5b5061028a610533366004612621565b6114e6565b34801561054457600080fd5b5061028a61055336600461263c565b61159d565b34801561056457600080fd5b506104347f000000000000000000000000000000000000000000000000000000000000000081565b34801561059857600080fd5b506101b86105a73660046125f5565b611a34565b600360205281600052604060002081815481106105c857600080fd5b600091825260209091206003909102018054600182015460029092015490935090915083565b6105f6611b8d565b6105fe611c0e565b60008381526002602052604080822090517f654c9ece000000000000000000000000000000000000000000000000000000008152600481018690529091907f000000000000000000000000000000000000000000000000000000000000000073ffffffffffffffffffffffffffffffffffffffff169063654c9ece9060240160206040518083038186803b15801561069557600080fd5b505afa1580156106a9573d6000803e3d6000fd5b505050506040513d601f19601f820116820180604052508101906106cd9190612671565b905060006106dd86836000611c82565b60038401549091506106ef86836126b9565b1115610782576040517f08c379a000000000000000000000000000000000000000000000000000000000815260206004820152603260248201527f656d657267656e6379207265776172642077697468647261773a206e6f74206560448201527f6e6f7567682072657761726420746f6b656e000000000000000000000000000060648201526084015b60405180910390fd5b8483600301600082825461079691906126d1565b909155507f000000000000000000000000000000000000000000000000000000000000000090506108075761080273ffffffffffffffffffffffffffffffffffffffff7f0000000000000000000000000000000000000000000000000000000000000000168587611f36565b6108f9565b60008473ffffffffffffffffffffffffffffffffffffffff168660405160006040518083038185875af1925050503d8060008114610861576040519150601f19603f3d011682016040523d82523d6000602084013e610866565b606091505b50509050806108f7576040517f08c379a000000000000000000000000000000000000000000000000000000000815260206004820152602960248201527f656d657267656e6379207265776172642077697468647261773a206661696c6560448201527f6420746f2073656e6400000000000000000000000000000000000000000000006064820152608401610779565b505b50505061090560018055565b505050565b610912611b8d565b6000838152600360209081526040808320600290925290912081547f0000000000000000000000000000000000000000000000000000000000000000116109db576040517f08c379a000000000000000000000000000000000000000000000000000000000815260206004820152603560248201527f6164642072657761726420696e666f3a2072657761726420696e666f206c656e60448201527f677468206578636565647320746865206c696d697400000000000000000000006064820152608401610779565b81541580610a1b57508154429083906109f6906001906126d1565b81548110610a0657610a066126e8565b90600052602060002090600302016001015410155b610aa6576040517f08c379a0000000000000000000000000000000000000000000000000000000008152602060048201526024808201527f6164642072657761726420696e666f3a2072657761726420706572696f64206560448201527f6e646564000000000000000000000000000000000000000000000000000000006064820152608401610779565b81541580610ae55750815484908390610ac1906001906126d1565b81548110610ad157610ad16126e8565b906000526020600020906003020160010154105b610b71576040517f08c379a000000000000000000000000000000000000000000000000000000000815260206004820152602560248201527f6164642072657761726420696e666f3a20626164206e657720656e6454696d6560448201527f7374616d700000000000000000000000000000000000000000000000000000006064820152608401610779565b815460009015610bb25782548390610b8b906001906126d1565b81548110610b9b57610b9b6126e8565b906000526020600020906003020160010154610bb8565b81600101545b90506000610bc682876126d1565b90506000610bd48683612717565b90507f0000000000000000000000000000000000000000000000000000000000000000610c4257610c3d73ffffffffffffffffffffffffffffffffffffffff7f0000000000000000000000000000000000000000000000000000000000000000163330846120a6565b610cd1565b803414610cd1576040517f08c379a000000000000000000000000000000000000000000000000000000000815260206004820152602d60248201527f6164642072657761726420696e666f3a206e6f7420656e6f7567682066756e6460448201527f7320746f207472616e73666572000000000000000000000000000000000000006064820152608401610779565b80846003016000828254610ce591906126b9565b90915550506040805160608101825284815260208082018a8152928201898152885460018181018b5560008b8152939093209351600390910290930192835592518282015591516002909101558554610d3e91906126d1565b60408051898152602081018990528a917fad90731bd0d97445f5af66088f3adebf343c520c20e033cc42f93b124258cdc2910160405180910390a35050505050505050565b610d8b611b8d565b610d93611c0e565b7f0000000000000000000000000000000000000000000000000000000000000000610dfe57610df973ffffffffffffffffffffffffffffffffffffffff7f0000000000000000000000000000000000000000000000000000000000000000168284611f36565b610ef0565b60008173ffffffffffffffffffffffffffffffffffffffff168360405160006040518083038185875af1925050503d8060008114610e58576040519150601f19603f3d011682016040523d82523d6000602084013e610e5d565b606091505b5050905080610eee576040517f08c379a000000000000000000000000000000000000000000000000000000000815260206004820152602260248201527f656d657267656e63792077697468647261773a206661696c656420746f20736560448201527f6e640000000000000000000000000000000000000000000000000000000000006064820152608401610779565b505b610ef960018055565b5050565b6000610f09824261221f565b92915050565b610f3a6040518060800160405280600081526020016000815260200160008152602001600081525090565b610f42611c0e565b610f4b8261112f565b9050610f5660018055565b919050565b610f63611c0e565b610f6b61234f565b610f7460018055565b565b60048181548110610f8657600080fd5b600091825260209091200154905081565b610f9f611b8d565b610f746000612394565b60008184101580610fb957508284115b15610fc657506000610feb565b818311610fde57610fd784846126d1565b9050610feb565b610fe884836126d1565b90505b9392505050565b610ffa611b8d565b6000828152600260208190526040909120015415611074576040517f08c379a000000000000000000000000000000000000000000000000000000000815260206004820152601360248201527f706f6f6c20616c726561647920657869737473000000000000000000000000006044820152606401610779565b6040805160808101825260008082526020808301858152838501868152606085018481528885526002938490528685209551865591516001808701919091559051928501929092555160039093019290925560048054928301815581527f8a35acfbc15ff81a39ae7d344fd709f28e8600b4aa8c65c6b64bfe7fe36bd19b909101849055905183917f6f92874181ba07c8e988c53b7d3c2fdcff7154a3500137bf6a350ebac65c087091a25050565b6000610f098242612409565b61115a6040518060800160405280600081526020016000815260200160008152602001600081525090565b50600081815260026020818152604080842081516080810183528154815260018201548185015293810154848301526003908101546060850152858552825280842080548251818502810185019093528083529394939192909190849084015b8282101561120a57838290600052602060002090600302016040518060600160405290816000820154815260200160018201548152602001600282015481525050815260200190600101906111ba565b505050509050816040015142116112215750919050565b6040517f654c9ece000000000000000000000000000000000000000000000000000000008152600481018490526000907f000000000000000000000000000000000000000000000000000000000000000073ffffffffffffffffffffffffffffffffffffffff169063654c9ece9060240160206040518083038186803b1580156112aa57600080fd5b505afa1580156112be573d6000803e3d6000fd5b505050506040513d601f19601f820116820180604052508101906112e29190612671565b90508061134d576112f38442612409565b4211156113465742604084810182905284518151928352602083018490529082015284907f3be3541fc42237d611b30329040bfa4569541d156560acdbbae57640d20b8f46906060015b60405180910390a25b5050919050565b60005b8251811015611473576000611387856040015142868581518110611376576113766126e8565b602002602001015160200151610fa9565b9050806113945750611463565b8382815181106113a6576113a66126e8565b6020026020010151602001514211156113e5578382815181106113cb576113cb6126e8565b6020026020010151602001518560400181815250506113ec565b4260408601525b6000848381518110611400576114006126e8565b602002602001015160400151826114179190612717565b9050836114447f000000000000000000000000000000000000000000000000000000000000000083612717565b61144e9190612754565b8651879061145d9083906126b9565b90525050505b61146c8161278f565b9050611350565b5060008481526002602081815260409283902086518082558783015160018301558785015193820184905560608089015160039093019290925584519384529183018590529282015285917f3be3541fc42237d611b30329040bfa4569541d156560acdbbae57640d20b8f46910161133d565b6114ee611b8d565b73ffffffffffffffffffffffffffffffffffffffff8116611591576040517f08c379a000000000000000000000000000000000000000000000000000000000815260206004820152602660248201527f4f776e61626c653a206e6577206f776e657220697320746865207a65726f206160448201527f64647265737300000000000000000000000000000000000000000000000000006064820152608401610779565b61159a81612394565b50565b3373ffffffffffffffffffffffffffffffffffffffff7f00000000000000000000000000000000000000000000000000000000000000001614611662576040517f08c379a000000000000000000000000000000000000000000000000000000000815260206004820152603c60248201527f6f6e6c794469737472696275746f7256323a206f6e6c7920446973747269627560448201527f746f7256322063616e2063616c6c20746869732066756e6374696f6e000000006064820152608401610779565b61166a611c0e565b60006116758461112f565b600085815260056020908152604080832073ffffffffffffffffffffffffffffffffffffffff881684529091528120919250807f0000000000000000000000000000000000000000000000000000000000000000156116d5575047611795565b6040517f70a082310000000000000000000000000000000000000000000000000000000081523060048201527f000000000000000000000000000000000000000000000000000000000000000073ffffffffffffffffffffffffffffffffffffffff16906370a082319060240160206040518083038186803b15801561175a57600080fd5b505afa15801561176e573d6000803e3d6000fd5b505050506040513d601f19601f820116820180604052508101906117929190612671565b90505b82541561199c576001830154845184547f0000000000000000000000000000000000000000000000000000000000000000916117d091612717565b6117da9190612754565b6117e491906126d1565b9150811561199c577f00000000000000000000000000000000000000000000000000000000000000001561190d57808211156118eb5760008673ffffffffffffffffffffffffffffffffffffffff16826040515b60006040518083038185875af1925050503d8060008114611875576040519150601f19603f3d011682016040523d82523d6000602084013e61187a565b606091505b50509050806118e5576040517f08c379a000000000000000000000000000000000000000000000000000000000815260206004820152600f60248201527f5472616e73666572206661696c656400000000000000000000000000000000006044820152606401610779565b5061199c565b60008673ffffffffffffffffffffffffffffffffffffffff1683604051611838565b8082111561195b5761195673ffffffffffffffffffffffffffffffffffffffff7f0000000000000000000000000000000000000000000000000000000000000000168783611f36565b61199c565b61199c73ffffffffffffffffffffffffffffffffffffffff7f0000000000000000000000000000000000000000000000000000000000000000168784611f36565b84835583517f0000000000000000000000000000000000000000000000000000000000000000906119cd9087612717565b6119d79190612754565b600184015560405182815273ffffffffffffffffffffffffffffffffffffffff8716907fd1072bb52c3131d0c96197b73fb8a45637e30f8b6664fc142310cc9b242859b49060200160405180910390a25050505061090560018055565b600082815260056020908152604080832073ffffffffffffffffffffffffffffffffffffffff8516845290915281208054600190910154610feb918591611c82565b73ffffffffffffffffffffffffffffffffffffffff163b151590565b60408051600481526024810182526020810180517bffffffffffffffffffffffffffffffffffffffffffffffffffffffff167f313ce5670000000000000000000000000000000000000000000000000000000017905290516000918291829173ffffffffffffffffffffffffffffffffffffffff861691611b1391906127c8565b600060405180830381855afa9150503d8060008114611b4e576040519150601f19603f3d011682016040523d82523d6000602084013e611b53565b606091505b5091509150818015611b66575080516020145b611b71576012611b85565b80806020019051810190611b859190612803565b949350505050565b60005473ffffffffffffffffffffffffffffffffffffffff163314610f74576040517f08c379a000000000000000000000000000000000000000000000000000000000815260206004820181905260248201527f4f776e61626c653a2063616c6c6572206973206e6f7420746865206f776e65726044820152606401610779565b60026001541415611c7b576040517f08c379a000000000000000000000000000000000000000000000000000000000815260206004820152601f60248201527f5265656e7472616e637947756172643a207265656e7472616e742063616c6c006044820152606401610779565b6002600155565b600083815260026020818152604080842081516080810183528154815260018201548185015293810154848301526003908101546060850152878552825280842080548251818502810185019093528083528593849084015b82821015611d2b5783829060005260206000209060030201604051806060016040529081600082015481526020016001820154815260200160028201548152505081526020019060010190611cdb565b505084516040517f654c9ece000000000000000000000000000000000000000000000000000000008152600481018b905293945092600092507f000000000000000000000000000000000000000000000000000000000000000073ffffffffffffffffffffffffffffffffffffffff16915063654c9ece9060240160206040518083038186803b158015611dbe57600080fd5b505afa158015611dd2573d6000803e3d6000fd5b505050506040513d601f19601f82011682018060405250810190611df69190612671565b9050836040015142118015611e0a57508015155b15611eea57604084015160005b8451811015611ee7576000611e398342888581518110611376576113766126e8565b905080611e465750611ed7565b858281518110611e5857611e586126e8565b60200260200101516020015192506000868381518110611e7a57611e7a6126e8565b60200260200101516040015182611e919190612717565b905084611ebe7f000000000000000000000000000000000000000000000000000000000000000083612717565b611ec89190612754565b611ed290876126b9565b955050505b611ee08161278f565b9050611e17565b50505b857f0000000000000000000000000000000000000000000000000000000000000000611f16848a612717565b611f209190612754565b611f2a91906126d1565b98975050505050505050565b6040805173ffffffffffffffffffffffffffffffffffffffff8481166024830152604480830185905283518084039091018152606490920183526020820180517bffffffffffffffffffffffffffffffffffffffffffffffffffffffff167fa9059cbb000000000000000000000000000000000000000000000000000000001790529151600092839290871691611fcd91906127c8565b6000604051808303816000865af19150503d806000811461200a576040519150601f19603f3d011682016040523d82523d6000602084013e61200f565b606091505b50915091508180156120395750805115806120395750808060200190518101906120399190612826565b61209f576040517f08c379a000000000000000000000000000000000000000000000000000000000815260206004820152601c60248201527f426f72696e6745524332303a205472616e73666572206661696c6564000000006044820152606401610779565b5050505050565b6040805173ffffffffffffffffffffffffffffffffffffffff85811660248301528481166044830152606480830185905283518084039091018152608490920183526020820180517bffffffffffffffffffffffffffffffffffffffffffffffffffffffff167f23b872dd00000000000000000000000000000000000000000000000000000000179052915160009283929088169161214591906127c8565b6000604051808303816000865af19150503d8060008114612182576040519150601f19603f3d011682016040523d82523d6000602084013e612187565b606091505b50915091508180156121b15750805115806121b15750808060200190518101906121b19190612826565b612217576040517f08c379a000000000000000000000000000000000000000000000000000000000815260206004820181905260248201527f426f72696e6745524332303a205472616e7366657246726f6d206661696c65646044820152606401610779565b505050505050565b600082815260036020908152604080832080548251818502810185019093528083528493849084015b828210156122985783829060005260206000209060030201604051806060016040529081600082015481526020016001820154815260200160028201548152505081526020019060010190612248565b50505060008681526002602052604090208251929350919050806122c25760009350505050610f09565b84826001015411156122da5760009350505050610f09565b60005b81811015612342578381815181106122f7576122f76126e8565b60200260200101516020015186116123325783818151811061231b5761231b6126e8565b602002602001015160400151945050505050610f09565b61233b8161278f565b90506122dd565b5060009695505050505050565b60045460005b81811015610ef95761238360048281548110612373576123736126e8565b906000526020600020015461112f565b5061238d8161278f565b9050612355565b6000805473ffffffffffffffffffffffffffffffffffffffff8381167fffffffffffffffffffffffff0000000000000000000000000000000000000000831681178455604051919092169283917f8be0079c531659141344cd1fd0a4f28419497f9722a3daafe3b4186f6b6457e09190a35050565b600082815260036020908152604080832080548251818502810185019093528083528493849084015b828210156124825783829060005260206000209060030201604051806060016040529081600082015481526020016001820154815260200160028201548152505081526020019060010190612432565b5050825192935050508061249b57600092505050610f09565b60005b81811015612502578281815181106124b8576124b86126e8565b60200260200101516020015185116124f2578281815181106124dc576124dc6126e8565b6020026020010151602001519350505050610f09565b6124fb8161278f565b905061249e565b508161250f6001836126d1565b8151811061251f5761251f6126e8565b6020026020010151602001519250505092915050565b6000806040838503121561254857600080fd5b50508035926020909101359150565b60006020828403121561256957600080fd5b5035919050565b803573ffffffffffffffffffffffffffffffffffffffff81168114610f5657600080fd5b6000806000606084860312156125a957600080fd5b83359250602084013591506125c060408501612570565b90509250925092565b6000806000606084860312156125de57600080fd5b505081359360208301359350604090920135919050565b6000806040838503121561260857600080fd5b8235915061261860208401612570565b90509250929050565b60006020828403121561263357600080fd5b610feb82612570565b60008060006060848603121561265157600080fd5b8335925061266160208501612570565b9150604084013590509250925092565b60006020828403121561268357600080fd5b5051919050565b7f4e487b7100000000000000000000000000000000000000000000000000000000600052601160045260246000fd5b600082198211156126cc576126cc61268a565b500190565b6000828210156126e3576126e361268a565b500390565b7f4e487b7100000000000000000000000000000000000000000000000000000000600052603260045260246000fd5b6000817fffffffffffffffffffffffffffffffffffffffffffffffffffffffffffffffff048311821515161561274f5761274f61268a565b500290565b60008261278a577f4e487b7100000000000000000000000000000000000000000000000000000000600052601260045260246000fd5b500490565b60007fffffffffffffffffffffffffffffffffffffffffffffffffffffffffffffffff8214156127c1576127c161268a565b5060010190565b6000825160005b818110156127e957602081860181015185830152016127cf565b818111156127f8576000828501525b509190910192915050565b60006020828403121561281557600080fd5b815160ff81168114610feb57600080fd5b60006020828403121561283857600080fd5b81518015158114610feb57600080fdfea264697066735822122079eaf0d2175695806eade91efd86a8cdf0fc7cf7cee5649d90f1db48a7d5ab6964736f6c63430008090033",
  "linkReferences": {},
  "deployedLinkReferences": {}
}