{
  "_format": "hh-sol-artifact-1",
  "contractName": "MockAggregatorV3",
  "sourceName": "contracts/vaults/mocks/MockAggregatorV3.sol",
  "abi": [
    {
      "inputs": [
        {
          "internalType": "uint8",
          "name": "decimals_",
          "type": "uint8"
        }
      ],
      "stateMutability": "nonpayable",
      "type": "constructor"
    },
    {
      "inputs": [],
      "name": "decimals",
      "outputs": [
        {
          "internalType": "uint8",
          "name": "",
          "type": "uint8"
        }
      ],
      "stateMutability": "view",
      "type": "function"
    },
    {
      "inputs": [],
      "name": "description",
      "outputs": [
        {
          "internalType": "string",
          "name": "",
          "type": "string"
        }
      ],
      "stateMutability": "pure",
      "type": "function"
    },
    {
      "inputs": [
        {
          "internalType": "uint80",
          "name": "_roundId",
          "type": "uint80"
        }
      ],
      "name": "getRoundData",
      "outputs": [
        {
          "internalType": "uint80",
          "name": "roundId",
          "type": "uint80"
        },
        {
          "internalType": "int256",
          "name": "answer",
          "type": "int256"
        },
        {
          "internalType": "uint256",
          "name": "startedAt",
          "type": "uint256"
        },
        {
          "internalType": "uint256",
          "name": "updatedAt",
          "type": "uint256"
        },
        {
          "internalType": "uint80",
          "name": "answeredInRound",
          "type": "uint80"
        }
      ],
      "stateMutability": "view",
      "type": "function"
    },
    {
      "inputs": [],
      "name": "latestRoundData",
      "outputs": [
        {
          "internalType": "uint80",
          "name": "roundId",
          "type": "uint80"
        },
        {
          "internalType": "int256",
          "name": "answer",
          "type": "int256"
        },
        {
          "internalType": "uint256",
          "name": "startedAt",
          "type": "uint256"
        },
        {
          "internalType": "uint256",
          "name": "updatedAt",
          "type": "uint256"
        },
        {
          "internalType": "uint80",
          "name": "answeredInRound",
          "type": "uint80"
        }
      ],
      "stateMutability": "view",
      "type": "function"
    },
    {
      "inputs": [],
      "name": "version",
      "outputs": [
        {
          "internalType": "uint256",
          "name": "",
          "type": "uint256"
        }
      ],
      "stateMutability": "pure",
      "type": "function"
    }
  ],
  "bytecode": "0x60a060405234801561001057600080fd5b5060405161048138038061048183398101604081905261002f9161003a565b60ff16608052610064565b60006020828403121561004c57600080fd5b815160ff8116811461005d57600080fd5b9392505050565b6080516103f561008c6000396000818160730152818161014d015261018a01526103f56000f3fe608060405234801561001057600080fd5b50600436106100675760003560e01c80637284e416116100505780637284e416146100b15780639a6fc8f5146100f0578063feaf968c1461013a57600080fd5b8063313ce5671461006c57806354fd4d50146100a2575b600080fd5b60405160ff7f00000000000000000000000000000000000000000000000000000000000000001681526020015b60405180910390f35b60405160038152602001610099565b604080518082018252600481527f6d6f636b000000000000000000000000000000000000000000000000000000006020820152905161009991906101b9565b6101036100fe36600461022c565b610142565b6040805169ffffffffffffffffffff968716815260208101959095528401929092526060830152909116608082015260a001610099565b61010361017e565b8060004280836101737f0000000000000000000000000000000000000000000000000000000000000000600a6103b0565b935091939590929450565b600160004280836101b07f0000000000000000000000000000000000000000000000000000000000000000600a6103b0565b93509091929394565b600060208083528351808285015260005b818110156101e6578581018301518582016040015282016101ca565b818111156101f8576000604083870101525b50601f017fffffffffffffffffffffffffffffffffffffffffffffffffffffffffffffffe016929092016040019392505050565b60006020828403121561023e57600080fd5b813569ffffffffffffffffffff8116811461025857600080fd5b9392505050565b7f4e487b7100000000000000000000000000000000000000000000000000000000600052601160045260246000fd5b600181815b808511156102e757817fffffffffffffffffffffffffffffffffffffffffffffffffffffffffffffffff048211156102cd576102cd61025f565b808516156102da57918102915b93841c9390800290610293565b509250929050565b6000826102fe575060016103aa565b8161030b575060006103aa565b8160018114610321576002811461032b57610347565b60019150506103aa565b60ff84111561033c5761033c61025f565b50506001821b6103aa565b5060208310610133831016604e8410600b841016171561036a575081810a6103aa565b610374838361028e565b807fffffffffffffffffffffffffffffffffffffffffffffffffffffffffffffffff048211156103a6576103a661025f565b0290505b92915050565b600061025860ff8416836102ef56fea2646970667358221220b83102400a9d80e7b74b6e8f10d91d3cb545c07da85ba92d9ecc482990d65c5e64736f6c63430008090033",
  "linkReferences": {},
  "deployedLinkReferences": {}
}