{
  "_format": "hh-sol-artifact-1",
  "contractName": "IbTokenPriceFeed",
  "sourceName": "contracts/stablecoin/price-feeders/IbTokenPriceFeed.sol",
  "abi": [
    {
      "anonymous": false,
      "inputs": [
        {
          "indexed": true,
          "internalType": "address",
          "name": "caller",
          "type": "address"
        },
        {
          "indexed": false,
          "internalType": "uint256",
          "name": "newTimeDelay",
          "type": "uint256"
        }
      ],
      "name": "LogSetTimeDelay",
      "type": "event"
    },
    {
      "anonymous": false,
      "inputs": [
        {
          "indexed": false,
          "internalType": "bytes32",
          "name": "val",
          "type": "bytes32"
        }
      ],
      "name": "LogValue",
      "type": "event"
    },
    {
      "anonymous": false,
      "inputs": [
        {
          "indexed": false,
          "internalType": "address",
          "name": "account",
          "type": "address"
        }
      ],
      "name": "Paused",
      "type": "event"
    },
    {
      "anonymous": false,
      "inputs": [
        {
          "indexed": true,
          "internalType": "bytes32",
          "name": "role",
          "type": "bytes32"
        },
        {
          "indexed": true,
          "internalType": "bytes32",
          "name": "previousAdminRole",
          "type": "bytes32"
        },
        {
          "indexed": true,
          "internalType": "bytes32",
          "name": "newAdminRole",
          "type": "bytes32"
        }
      ],
      "name": "RoleAdminChanged",
      "type": "event"
    },
    {
      "anonymous": false,
      "inputs": [
        {
          "indexed": true,
          "internalType": "bytes32",
          "name": "role",
          "type": "bytes32"
        },
        {
          "indexed": true,
          "internalType": "address",
          "name": "account",
          "type": "address"
        },
        {
          "indexed": true,
          "internalType": "address",
          "name": "sender",
          "type": "address"
        }
      ],
      "name": "RoleGranted",
      "type": "event"
    },
    {
      "anonymous": false,
      "inputs": [
        {
          "indexed": true,
          "internalType": "bytes32",
          "name": "role",
          "type": "bytes32"
        },
        {
          "indexed": true,
          "internalType": "address",
          "name": "account",
          "type": "address"
        },
        {
          "indexed": true,
          "internalType": "address",
          "name": "sender",
          "type": "address"
        }
      ],
      "name": "RoleRevoked",
      "type": "event"
    },
    {
      "anonymous": false,
      "inputs": [
        {
          "indexed": true,
          "internalType": "address",
          "name": "caller",
          "type": "address"
        },
        {
          "indexed": false,
          "internalType": "address",
          "name": "newBaseInUserPriceFeed",
          "type": "address"
        }
      ],
      "name": "SetBaseInUsdPriceFeed",
      "type": "event"
    },
    {
      "anonymous": false,
      "inputs": [
        {
          "indexed": true,
          "internalType": "address",
          "name": "caller",
          "type": "address"
        },
        {
          "indexed": false,
          "internalType": "address",
          "name": "newIbInBasePriceFeed",
          "type": "address"
        }
      ],
      "name": "SetIbInBasePriceFeed",
      "type": "event"
    },
    {
      "anonymous": false,
      "inputs": [
        {
          "indexed": false,
          "internalType": "address",
          "name": "account",
          "type": "address"
        }
      ],
      "name": "Unpaused",
      "type": "event"
    },
    {
      "inputs": [],
      "name": "DEFAULT_ADMIN_ROLE",
      "outputs": [
        {
          "internalType": "bytes32",
          "name": "",
          "type": "bytes32"
        }
      ],
      "stateMutability": "view",
      "type": "function"
    },
    {
      "inputs": [],
      "name": "accessControlConfig",
      "outputs": [
        {
          "internalType": "contract IAccessControlConfig",
          "name": "",
          "type": "address"
        }
      ],
      "stateMutability": "view",
      "type": "function"
    },
    {
      "inputs": [],
      "name": "baseInUsdPriceFeed",
      "outputs": [
        {
          "internalType": "contract IPriceFeed",
          "name": "",
          "type": "address"
        }
      ],
      "stateMutability": "view",
      "type": "function"
    },
    {
      "inputs": [
        {
          "internalType": "bytes32",
          "name": "role",
          "type": "bytes32"
        }
      ],
      "name": "getRoleAdmin",
      "outputs": [
        {
          "internalType": "bytes32",
          "name": "",
          "type": "bytes32"
        }
      ],
      "stateMutability": "view",
      "type": "function"
    },
    {
      "inputs": [
        {
          "internalType": "bytes32",
          "name": "role",
          "type": "bytes32"
        },
        {
          "internalType": "uint256",
          "name": "index",
          "type": "uint256"
        }
      ],
      "name": "getRoleMember",
      "outputs": [
        {
          "internalType": "address",
          "name": "",
          "type": "address"
        }
      ],
      "stateMutability": "view",
      "type": "function"
    },
    {
      "inputs": [
        {
          "internalType": "bytes32",
          "name": "role",
          "type": "bytes32"
        }
      ],
      "name": "getRoleMemberCount",
      "outputs": [
        {
          "internalType": "uint256",
          "name": "",
          "type": "uint256"
        }
      ],
      "stateMutability": "view",
      "type": "function"
    },
    {
      "inputs": [
        {
          "internalType": "bytes32",
          "name": "role",
          "type": "bytes32"
        },
        {
          "internalType": "address",
          "name": "account",
          "type": "address"
        }
      ],
      "name": "grantRole",
      "outputs": [],
      "stateMutability": "nonpayable",
      "type": "function"
    },
    {
      "inputs": [
        {
          "internalType": "bytes32",
          "name": "role",
          "type": "bytes32"
        },
        {
          "internalType": "address",
          "name": "account",
          "type": "address"
        }
      ],
      "name": "hasRole",
      "outputs": [
        {
          "internalType": "bool",
          "name": "",
          "type": "bool"
        }
      ],
      "stateMutability": "view",
      "type": "function"
    },
    {
      "inputs": [],
      "name": "ibInBasePriceFeed",
      "outputs": [
        {
          "internalType": "contract IPriceFeed",
          "name": "",
          "type": "address"
        }
      ],
      "stateMutability": "view",
      "type": "function"
    },
    {
      "inputs": [
        {
          "internalType": "address",
          "name": "_ibInBasePriceFeed",
          "type": "address"
        },
        {
          "internalType": "address",
          "name": "_baseInUsdPriceFeed",
          "type": "address"
        },
        {
          "internalType": "address",
          "name": "_accessControlConfig",
          "type": "address"
        },
        {
          "internalType": "uint256",
          "name": "_timeDelay",
          "type": "uint256"
        }
      ],
      "name": "initialize",
      "outputs": [],
      "stateMutability": "nonpayable",
      "type": "function"
    },
    {
      "inputs": [],
      "name": "lastUpdateTimestamp",
      "outputs": [
        {
          "internalType": "uint256",
          "name": "",
          "type": "uint256"
        }
      ],
      "stateMutability": "view",
      "type": "function"
    },
    {
      "inputs": [],
      "name": "pass",
      "outputs": [
        {
          "internalType": "bool",
          "name": "ok",
          "type": "bool"
        }
      ],
      "stateMutability": "view",
      "type": "function"
    },
    {
      "inputs": [],
      "name": "pause",
      "outputs": [],
      "stateMutability": "nonpayable",
      "type": "function"
    },
    {
      "inputs": [],
      "name": "paused",
      "outputs": [
        {
          "internalType": "bool",
          "name": "",
          "type": "bool"
        }
      ],
      "stateMutability": "view",
      "type": "function"
    },
    {
      "inputs": [],
      "name": "peekNextPrice",
      "outputs": [
        {
          "internalType": "bytes32",
          "name": "",
          "type": "bytes32"
        },
        {
          "internalType": "bool",
          "name": "",
          "type": "bool"
        }
      ],
      "stateMutability": "view",
      "type": "function"
    },
    {
      "inputs": [],
      "name": "peekPrice",
      "outputs": [
        {
          "internalType": "bytes32",
          "name": "",
          "type": "bytes32"
        },
        {
          "internalType": "bool",
          "name": "",
          "type": "bool"
        }
      ],
      "stateMutability": "view",
      "type": "function"
    },
    {
      "inputs": [],
      "name": "readPrice",
      "outputs": [
        {
          "internalType": "bytes32",
          "name": "",
          "type": "bytes32"
        }
      ],
      "stateMutability": "view",
      "type": "function"
    },
    {
      "inputs": [
        {
          "internalType": "bytes32",
          "name": "role",
          "type": "bytes32"
        },
        {
          "internalType": "address",
          "name": "account",
          "type": "address"
        }
      ],
      "name": "renounceRole",
      "outputs": [],
      "stateMutability": "nonpayable",
      "type": "function"
    },
    {
      "inputs": [
        {
          "internalType": "bytes32",
          "name": "role",
          "type": "bytes32"
        },
        {
          "internalType": "address",
          "name": "account",
          "type": "address"
        }
      ],
      "name": "revokeRole",
      "outputs": [],
      "stateMutability": "nonpayable",
      "type": "function"
    },
    {
      "inputs": [
        {
          "internalType": "contract IPriceFeed",
          "name": "_newBaseInUsdPriceFeed",
          "type": "address"
        }
      ],
      "name": "setBaseInUsdPriceFeed",
      "outputs": [],
      "stateMutability": "nonpayable",
      "type": "function"
    },
    {
      "inputs": [
        {
          "internalType": "contract IPriceFeed",
          "name": "_newIbInBasePriceFeed",
          "type": "address"
        }
      ],
      "name": "setIbInBasePriceFeed",
      "outputs": [],
      "stateMutability": "nonpayable",
      "type": "function"
    },
    {
      "inputs": [],
      "name": "setPrice",
      "outputs": [],
      "stateMutability": "nonpayable",
      "type": "function"
    },
    {
      "inputs": [
        {
          "internalType": "uint256",
          "name": "_newTimeDelay",
          "type": "uint256"
        }
      ],
      "name": "setTimeDelay",
      "outputs": [],
      "stateMutability": "nonpayable",
      "type": "function"
    },
    {
      "inputs": [],
      "name": "timeDelay",
      "outputs": [
        {
          "internalType": "uint256",
          "name": "",
          "type": "uint256"
        }
      ],
      "stateMutability": "view",
      "type": "function"
    },
    {
      "inputs": [],
      "name": "unpause",
      "outputs": [],
      "stateMutability": "nonpayable",
      "type": "function"
    }
  ],
  "bytecode": "0x608060405234801561001057600080fd5b50612d69806100206000396000f3fe608060405234801561001057600080fd5b50600436106101a35760003560e01c80638456cb59116100ee578063c8cc243f11610097578063cf756fdf11610071578063cf756fdf146103d2578063d547741f1461041b578063da93d0d114610454578063de3e96c01461045c576101a3565b8063c8cc243f146103a5578063c9dec361146103ad578063ca15c873146103b5576101a3565b8063a217fddf116100c8578063a217fddf1461038d578063a7a1ed7214610395578063bf43d6bf1461039d576101a3565b80638456cb59146103295780639010d07c1461033157806391d1485414610354576101a3565b806336568abe116101505780635bf851b71161012a5780635bf851b7146102fd5780635c975abb146103055780637e91400f14610321576101a3565b806336568abe1461029f57806339af6ba9146102d85780633f4ba83a146102f5576101a3565b8063248a9ca311610181578063248a9ca31461021457806325da73bf146102315780632f2ff15d14610266576101a3565b8063140d2720146101a857806314a0b644146101c957806314bcec9f146101fa575b600080fd5b6101b061048f565b6040805192835290151560208301528051918290030190f35b6101d16104c3565b6040805173ffffffffffffffffffffffffffffffffffffffff9092168252519081900360200190f35b6102026104df565b60408051918252519081900360200190f35b6102026004803603602081101561022a57600080fd5b50356104e5565b6102646004803603602081101561024757600080fd5b503573ffffffffffffffffffffffffffffffffffffffff166104fa565b005b6102646004803603604081101561027c57600080fd5b508035906020013573ffffffffffffffffffffffffffffffffffffffff166108e9565b610264600480360360408110156102b557600080fd5b508035906020013573ffffffffffffffffffffffffffffffffffffffff1661096f565b610264600480360360208110156102ee57600080fd5b5035610a04565b610264610d89565b6101b0611051565b61030d611085565b604080519115158252519081900360200190f35b61020261108e565b6102646110a6565b6101d16004803603604081101561034757600080fd5b508035906020013561136c565b61030d6004803603604081101561036a57600080fd5b508035906020013573ffffffffffffffffffffffffffffffffffffffff1661138d565b6102026113a5565b61030d6113aa565b6101d16113cb565b6101d16113e7565b610202611403565b610202600480360360208110156103cb57600080fd5b5035611409565b610264600480360360808110156103e857600080fd5b5073ffffffffffffffffffffffffffffffffffffffff813581169160208101358216916040820135169060600135611420565b6102646004803603604081101561043157600080fd5b508035906020013573ffffffffffffffffffffffffffffffffffffffff1661175c565b6102646117cf565b6102646004803603602081101561047257600080fd5b503573ffffffffffffffffffffffffffffffffffffffff16611b74565b609c546fffffffffffffffffffffffffffffffff808216917001000000000000000000000000000000009004166001149091565b60995473ffffffffffffffffffffffffffffffffffffffff1681565b609b5481565b60009081526065602052604090206002015490565b609754604080517fb536818a000000000000000000000000000000000000000000000000000000008152905173ffffffffffffffffffffffffffffffffffffffff909216916391d1485491839163b536818a91600480820192602092909190829003018186803b15801561056d57600080fd5b505afa158015610581573d6000803e3d6000fd5b505050506040513d602081101561059757600080fd5b5051604080517fffffffff0000000000000000000000000000000000000000000000000000000060e085901b1681526004810192909252336024830152516044808301926020929190829003018186803b1580156105f457600080fd5b505afa158015610608573d6000803e3d6000fd5b505050506040513d602081101561061e57600080fd5b50518061074d5750609754604080517fe58378bb000000000000000000000000000000000000000000000000000000008152905173ffffffffffffffffffffffffffffffffffffffff909216916391d1485491839163e58378bb91600480820192602092909190829003018186803b15801561069957600080fd5b505afa1580156106ad573d6000803e3d6000fd5b505050506040513d60208110156106c357600080fd5b5051604080517fffffffff0000000000000000000000000000000000000000000000000000000060e085901b1681526004810192909252336024830152516044808301926020929190829003018186803b15801561072057600080fd5b505afa158015610734573d6000803e3d6000fd5b505050506040513d602081101561074a57600080fd5b50515b6107b857604080517f08c379a000000000000000000000000000000000000000000000000000000000815260206004820152601760248201527f21286f776e6572526f6c65206f7220676f76526f6c6529000000000000000000604482015290519081900360640190fd5b609880547fffffffffffffffffffffffff00000000000000000000000000000000000000001673ffffffffffffffffffffffffffffffffffffffff8381169190911791829055604080517f140d27200000000000000000000000000000000000000000000000000000000081528151939092169263140d2720926004808201939291829003018186803b15801561084e57600080fd5b505afa158015610862573d6000803e3d6000fd5b505050506040513d604081101561087857600080fd5b506108839050611f63565b73ffffffffffffffffffffffffffffffffffffffff167fd07251be46c9e4fdfb5bd46ba022dd2efbc0d8338799eb409a406b78c78b020782604051808273ffffffffffffffffffffffffffffffffffffffff16815260200191505060405180910390a250565b60008281526065602052604090206002015461090c90610907611f63565b61138d565b610961576040517f08c379a000000000000000000000000000000000000000000000000000000000815260040180806020018281038252602f815260200180612be2602f913960400191505060405180910390fd5b61096b8282611f67565b5050565b610977611f63565b73ffffffffffffffffffffffffffffffffffffffff168173ffffffffffffffffffffffffffffffffffffffff16146109fa576040517f08c379a000000000000000000000000000000000000000000000000000000000815260040180806020018281038252602f815260200180612d05602f913960400191505060405180910390fd5b61096b8282611fea565b609754604080517fb536818a000000000000000000000000000000000000000000000000000000008152905173ffffffffffffffffffffffffffffffffffffffff909216916391d1485491839163b536818a91600480820192602092909190829003018186803b158015610a7757600080fd5b505afa158015610a8b573d6000803e3d6000fd5b505050506040513d6020811015610aa157600080fd5b5051604080517fffffffff0000000000000000000000000000000000000000000000000000000060e085901b1681526004810192909252336024830152516044808301926020929190829003018186803b158015610afe57600080fd5b505afa158015610b12573d6000803e3d6000fd5b505050506040513d6020811015610b2857600080fd5b505180610c575750609754604080517fe58378bb000000000000000000000000000000000000000000000000000000008152905173ffffffffffffffffffffffffffffffffffffffff909216916391d1485491839163e58378bb91600480820192602092909190829003018186803b158015610ba357600080fd5b505afa158015610bb7573d6000803e3d6000fd5b505050506040513d6020811015610bcd57600080fd5b5051604080517fffffffff0000000000000000000000000000000000000000000000000000000060e085901b1681526004810192909252336024830152516044808301926020929190829003018186803b158015610c2a57600080fd5b505afa158015610c3e573d6000803e3d6000fd5b505050506040513d6020811015610c5457600080fd5b50515b610cc257604080517f08c379a000000000000000000000000000000000000000000000000000000000815260206004820152601760248201527f21286f776e6572526f6c65206f7220676f76526f6c6529000000000000000000604482015290519081900360640190fd5b6103848110158015610cd757506202a3008111155b610d2c576040517f08c379a0000000000000000000000000000000000000000000000000000000008152600401808060200182810382526028815260200180612cdd6028913960400191505060405180910390fd5b609a819055610d39611f63565b73ffffffffffffffffffffffffffffffffffffffff167f8c7220e16b36c16980047cfd2faf359f5a489e40edbb55fc4818907c9dde734a826040518082815260200191505060405180910390a250565b609754604080517fb536818a000000000000000000000000000000000000000000000000000000008152905173ffffffffffffffffffffffffffffffffffffffff909216916391d1485491839163b536818a91600480820192602092909190829003018186803b158015610dfc57600080fd5b505afa158015610e10573d6000803e3d6000fd5b505050506040513d6020811015610e2657600080fd5b5051604080517fffffffff0000000000000000000000000000000000000000000000000000000060e085901b1681526004810192909252336024830152516044808301926020929190829003018186803b158015610e8357600080fd5b505afa158015610e97573d6000803e3d6000fd5b505050506040513d6020811015610ead57600080fd5b505180610fdc5750609754604080517fe58378bb000000000000000000000000000000000000000000000000000000008152905173ffffffffffffffffffffffffffffffffffffffff909216916391d1485491839163e58378bb91600480820192602092909190829003018186803b158015610f2857600080fd5b505afa158015610f3c573d6000803e3d6000fd5b505050506040513d6020811015610f5257600080fd5b5051604080517fffffffff0000000000000000000000000000000000000000000000000000000060e085901b1681526004810192909252336024830152516044808301926020929190829003018186803b158015610faf57600080fd5b505afa158015610fc3573d6000803e3d6000fd5b505050506040513d6020811015610fd957600080fd5b50515b61104757604080517f08c379a000000000000000000000000000000000000000000000000000000000815260206004820152601760248201527f21286f776e6572526f6c65206f7220676f76526f6c6529000000000000000000604482015290519081900360640190fd5b61104f61206d565b565b609d546fffffffffffffffffffffffffffffffff808216917001000000000000000000000000000000009004166001149091565b60335460ff1690565b609c546fffffffffffffffffffffffffffffffff1690565b609754604080517fb536818a000000000000000000000000000000000000000000000000000000008152905173ffffffffffffffffffffffffffffffffffffffff909216916391d1485491839163b536818a91600480820192602092909190829003018186803b15801561111957600080fd5b505afa15801561112d573d6000803e3d6000fd5b505050506040513d602081101561114357600080fd5b5051604080517fffffffff0000000000000000000000000000000000000000000000000000000060e085901b1681526004810192909252336024830152516044808301926020929190829003018186803b1580156111a057600080fd5b505afa1580156111b4573d6000803e3d6000fd5b505050506040513d60208110156111ca57600080fd5b5051806112f95750609754604080517fe58378bb000000000000000000000000000000000000000000000000000000008152905173ffffffffffffffffffffffffffffffffffffffff909216916391d1485491839163e58378bb91600480820192602092909190829003018186803b15801561124557600080fd5b505afa158015611259573d6000803e3d6000fd5b505050506040513d602081101561126f57600080fd5b5051604080517fffffffff0000000000000000000000000000000000000000000000000000000060e085901b1681526004810192909252336024830152516044808301926020929190829003018186803b1580156112cc57600080fd5b505afa1580156112e0573d6000803e3d6000fd5b505050506040513d60208110156112f657600080fd5b50515b61136457604080517f08c379a000000000000000000000000000000000000000000000000000000000815260206004820152601760248201527f21286f776e6572526f6c65206f7220676f76526f6c6529000000000000000000604482015290519081900360640190fd5b61104f61215b565b60008281526065602052604081206113849083612223565b90505b92915050565b6000828152606560205260408120611384908361222f565b600081565b60006113c3609a54609b5461225190919063ffffffff16565b421015905090565b60985473ffffffffffffffffffffffffffffffffffffffff1681565b60975473ffffffffffffffffffffffffffffffffffffffff1681565b609a5481565b6000818152606560205260408120611387906122c5565b600054610100900460ff168061143957506114396122d0565b80611447575060005460ff16155b61149c576040517f08c379a000000000000000000000000000000000000000000000000000000000815260040180806020018281038252602e815260200180612c41602e913960400191505060405180910390fd5b600054610100900460ff1615801561150257600080547fffffffffffffffffffffffffffffffffffffffffffffffffffffffffffffff007fffffffffffffffffffffffffffffffffffffffffffffffffffffffffffff00ff909116610100171660011790555b61150a6122e1565b611512612405565b6098805473ffffffffffffffffffffffffffffffffffffffff8088167fffffffffffffffffffffffff0000000000000000000000000000000000000000928316179283905560998054888316931692909217909155604080517f140d27200000000000000000000000000000000000000000000000000000000081528151939092169263140d2720926004808201939291829003018186803b1580156115b757600080fd5b505afa1580156115cb573d6000803e3d6000fd5b505050506040513d60408110156115e157600080fd5b5050609954604080517f140d2720000000000000000000000000000000000000000000000000000000008152815173ffffffffffffffffffffffffffffffffffffffff9093169263140d272092600480840193919291829003018186803b15801561164b57600080fd5b505afa15801561165f573d6000803e3d6000fd5b505050506040513d604081101561167557600080fd5b5050609780547fffffffffffffffffffffffff00000000000000000000000000000000000000001673ffffffffffffffffffffffffffffffffffffffff851617905561038482108015906116cc57506202a3008211155b611721576040517f08c379a0000000000000000000000000000000000000000000000000000000008152600401808060200182810382526028815260200180612cdd6028913960400191505060405180910390fd5b609a829055801561175557600080547fffffffffffffffffffffffffffffffffffffffffffffffffffffffffffff00ff1690555b5050505050565b60008281526065602052604090206002015461177a90610907611f63565b6109fa576040517f08c379a0000000000000000000000000000000000000000000000000000000008152600401808060200182810382526030815260200180612c116030913960400191505060405180910390fd5b6117d7611085565b1561184357604080517f08c379a000000000000000000000000000000000000000000000000000000000815260206004820152601060248201527f5061757361626c653a2070617573656400000000000000000000000000000000604482015290519081900360640190fd5b61184b6113aa565b6118a0576040517f08c379a000000000000000000000000000000000000000000000000000000000815260040180806020018281038252602a815260200180612cb3602a913960400191505060405180910390fd5b609854604080517f140d27200000000000000000000000000000000000000000000000000000000081528151600093849373ffffffffffffffffffffffffffffffffffffffff9091169263140d27209260048083019392829003018186803b15801561190b57600080fd5b505afa15801561191f573d6000803e3d6000fd5b505050506040513d604081101561193557600080fd5b508051602090910151609954604080517f140d27200000000000000000000000000000000000000000000000000000000081528151949650929450600093849373ffffffffffffffffffffffffffffffffffffffff9093169263140d2720926004808301939192829003018186803b1580156119b057600080fd5b505afa1580156119c4573d6000803e3d6000fd5b505050506040513d60408110156119da57600080fd5b50805160209091015190925090506000611a06670de0b6b3a7640000611a0087866124f7565b9061256a565b90506000848015611a145750825b8015611a255750611a23611085565b155b905080611a9357604080517f08c379a000000000000000000000000000000000000000000000000000000000815260206004820152601760248201527f4962546f6b656e5072696365466565642f6e6f742d6f6b000000000000000000604482015290519081900360640190fd5b609d8054609c80547001000000000000000000000000000000008084046fffffffffffffffffffffffffffffffff90811682027fffffffffffffffffffffffffffffffff0000000000000000000000000000000093841682871617821617909355604080518082019091528784168082526001602090920191909152919093161716179055611b21426125eb565b609b55609c54604080516fffffffffffffffffffffffffffffffff9092168252517f296ba4ca62c6c21c95e828080cb8aec7481b71390585605300a8a76f9e95b5279181900360200190a1505050505050565b609754604080517fb536818a000000000000000000000000000000000000000000000000000000008152905173ffffffffffffffffffffffffffffffffffffffff909216916391d1485491839163b536818a91600480820192602092909190829003018186803b158015611be757600080fd5b505afa158015611bfb573d6000803e3d6000fd5b505050506040513d6020811015611c1157600080fd5b5051604080517fffffffff0000000000000000000000000000000000000000000000000000000060e085901b1681526004810192909252336024830152516044808301926020929190829003018186803b158015611c6e57600080fd5b505afa158015611c82573d6000803e3d6000fd5b505050506040513d6020811015611c9857600080fd5b505180611dc75750609754604080517fe58378bb000000000000000000000000000000000000000000000000000000008152905173ffffffffffffffffffffffffffffffffffffffff909216916391d1485491839163e58378bb91600480820192602092909190829003018186803b158015611d1357600080fd5b505afa158015611d27573d6000803e3d6000fd5b505050506040513d6020811015611d3d57600080fd5b5051604080517fffffffff0000000000000000000000000000000000000000000000000000000060e085901b1681526004810192909252336024830152516044808301926020929190829003018186803b158015611d9a57600080fd5b505afa158015611dae573d6000803e3d6000fd5b505050506040513d6020811015611dc457600080fd5b50515b611e3257604080517f08c379a000000000000000000000000000000000000000000000000000000000815260206004820152601760248201527f21286f776e6572526f6c65206f7220676f76526f6c6529000000000000000000604482015290519081900360640190fd5b609980547fffffffffffffffffffffffff00000000000000000000000000000000000000001673ffffffffffffffffffffffffffffffffffffffff8381169190911791829055604080517f140d27200000000000000000000000000000000000000000000000000000000081528151939092169263140d2720926004808201939291829003018186803b158015611ec857600080fd5b505afa158015611edc573d6000803e3d6000fd5b505050506040513d6040811015611ef257600080fd5b50611efd9050611f63565b73ffffffffffffffffffffffffffffffffffffffff167fece191b909212c7268932ec871cc923d3136f67cdd560fec977a1dceec0b42eb82604051808273ffffffffffffffffffffffffffffffffffffffff16815260200191505060405180910390a250565b3390565b6000828152606560205260409020611f7f9082612668565b1561096b57611f8c611f63565b73ffffffffffffffffffffffffffffffffffffffff168173ffffffffffffffffffffffffffffffffffffffff16837f2f8788117e7eff1d82e926ec794901d17c78024a50270940304540a733656f0d60405160405180910390a45050565b6000828152606560205260409020612002908261268a565b1561096b5761200f611f63565b73ffffffffffffffffffffffffffffffffffffffff168173ffffffffffffffffffffffffffffffffffffffff16837ff6391f5c32d9c69d2a47ea670b442974b53935d1edc7fd64eb21e047a839171b60405160405180910390a45050565b612075611085565b6120e057604080517f08c379a000000000000000000000000000000000000000000000000000000000815260206004820152601460248201527f5061757361626c653a206e6f7420706175736564000000000000000000000000604482015290519081900360640190fd5b603380547fffffffffffffffffffffffffffffffffffffffffffffffffffffffffffffff001690557f5db9ee0a495bf2e6ff9c91a7834c1ba4fdd244a5e8aa4e537bd38aeae4b073aa612131611f63565b6040805173ffffffffffffffffffffffffffffffffffffffff9092168252519081900360200190a1565b612163611085565b156121cf57604080517f08c379a000000000000000000000000000000000000000000000000000000000815260206004820152601060248201527f5061757361626c653a2070617573656400000000000000000000000000000000604482015290519081900360640190fd5b603380547fffffffffffffffffffffffffffffffffffffffffffffffffffffffffffffff001660011790557f62e78cea01bee320cd4e420270b5ea74000d11b0c9f74754ebdbfc544b05a258612131611f63565b600061138483836126ac565b60006113848373ffffffffffffffffffffffffffffffffffffffff841661272a565b60008282018381101561138457604080517f08c379a000000000000000000000000000000000000000000000000000000000815260206004820152601b60248201527f536166654d6174683a206164646974696f6e206f766572666c6f770000000000604482015290519081900360640190fd5b600061138782612742565b60006122db30612746565b15905090565b600054610100900460ff16806122fa57506122fa6122d0565b80612308575060005460ff16155b61235d576040517f08c379a000000000000000000000000000000000000000000000000000000000815260040180806020018281038252602e815260200180612c41602e913960400191505060405180910390fd5b600054610100900460ff161580156123c357600080547fffffffffffffffffffffffffffffffffffffffffffffffffffffffffffffff007fffffffffffffffffffffffffffffffffffffffffffffffffffffffffffff00ff909116610100171660011790555b6123cb61274c565b6123d361285e565b801561240257600080547fffffffffffffffffffffffffffffffffffffffffffffffffffffffffffff00ff1690555b50565b600054610100900460ff168061241e575061241e6122d0565b8061242c575060005460ff16155b612481576040517f08c379a000000000000000000000000000000000000000000000000000000000815260040180806020018281038252602e815260200180612c41602e913960400191505060405180910390fd5b600054610100900460ff161580156124e757600080547fffffffffffffffffffffffffffffffffffffffffffffffffffffffffffffff007fffffffffffffffffffffffffffffffffffffffffffffffffffffffffffff00ff909116610100171660011790555b6124ef61274c565b6123d361274c565b60008261250657506000611387565b8282028284828161251357fe5b0414611384576040517f08c379a0000000000000000000000000000000000000000000000000000000008152600401808060200182810382526021815260200180612c6f6021913960400191505060405180910390fd5b60008082116125da57604080517f08c379a000000000000000000000000000000000000000000000000000000000815260206004820152601a60248201527f536166654d6174683a206469766973696f6e206279207a65726f000000000000604482015290519081900360640190fd5b8183816125e357fe5b049392505050565b6000609a5460001415612649576040517f08c379a0000000000000000000000000000000000000000000000000000000008152600401808060200182810382526023815260200180612c906023913960400191505060405180910390fd5b611387612661609a548461299990919063ffffffff16565b8390612a1a565b60006113848373ffffffffffffffffffffffffffffffffffffffff8416612a91565b60006113848373ffffffffffffffffffffffffffffffffffffffff8416612adb565b81546000908210612708576040517f08c379a0000000000000000000000000000000000000000000000000000000008152600401808060200182810382526022815260200180612bc06022913960400191505060405180910390fd5b82600001828154811061271757fe5b9060005260206000200154905092915050565b60009081526001919091016020526040902054151590565b5490565b3b151590565b600054610100900460ff168061276557506127656122d0565b80612773575060005460ff16155b6127c8576040517f08c379a000000000000000000000000000000000000000000000000000000000815260040180806020018281038252602e815260200180612c41602e913960400191505060405180910390fd5b600054610100900460ff161580156123d357600080547fffffffffffffffffffffffffffffffffffffffffffffffffffffffffffffff007fffffffffffffffffffffffffffffffffffffffffffffffffffffffffffff00ff90911661010017166001179055801561240257600080547fffffffffffffffffffffffffffffffffffffffffffffffffffffffffffff00ff16905550565b600054610100900460ff168061287757506128776122d0565b80612885575060005460ff16155b6128da576040517f08c379a000000000000000000000000000000000000000000000000000000000815260040180806020018281038252602e815260200180612c41602e913960400191505060405180910390fd5b600054610100900460ff1615801561294057600080547fffffffffffffffffffffffffffffffffffffffffffffffffffffffffffffff007fffffffffffffffffffffffffffffffffffffffffffffffffffffffffffff00ff909116610100171660011790555b603380547fffffffffffffffffffffffffffffffffffffffffffffffffffffffffffffff00169055801561240257600080547fffffffffffffffffffffffffffffffffffffffffffffffffffffffffffff00ff16905550565b6000808211612a0957604080517f08c379a000000000000000000000000000000000000000000000000000000000815260206004820152601860248201527f536166654d6174683a206d6f64756c6f206279207a65726f0000000000000000604482015290519081900360640190fd5b818381612a1257fe5b069392505050565b600082821115612a8b57604080517f08c379a000000000000000000000000000000000000000000000000000000000815260206004820152601e60248201527f536166654d6174683a207375627472616374696f6e206f766572666c6f770000604482015290519081900360640190fd5b50900390565b6000612a9d838361272a565b612ad357508154600181810184556000848152602080822090930184905584548482528286019093526040902091909155611387565b506000611387565b60008181526001830160205260408120548015612bb55783547fffffffffffffffffffffffffffffffffffffffffffffffffffffffffffffffff8083019190810190600090879083908110612b2c57fe5b9060005260206000200154905080876000018481548110612b4957fe5b600091825260208083209091019290925582815260018981019092526040902090840190558654879080612b7957fe5b60019003818190600052602060002001600090559055866001016000878152602001908152602001600020600090556001945050505050611387565b600091505061138756fe456e756d657261626c655365743a20696e646578206f7574206f6620626f756e6473416363657373436f6e74726f6c3a2073656e646572206d75737420626520616e2061646d696e20746f206772616e74416363657373436f6e74726f6c3a2073656e646572206d75737420626520616e2061646d696e20746f207265766f6b65496e697469616c697a61626c653a20636f6e747261637420697320616c726561647920696e697469616c697a6564536166654d6174683a206d756c7469706c69636174696f6e206f766572666c6f774962546f6b656e5072696365466565642f74696d652d64656c61792d69732d7a65726f4962546f6b656e5072696365466565642f74696d652d64656c61792d6861732d6e6f742d7061737365644962546f6b656e5072696365466565642f74696d652d64656c61792d6f75742d6f662d626f756e64416363657373436f6e74726f6c3a2063616e206f6e6c792072656e6f756e636520726f6c657320666f722073656c66a2646970667358221220f8a632391679b408f8140a387b25c79eaa64003e1f0a74b5c14c2c337d89c87e64736f6c634300060c0033",
  "linkReferences": {},
  "deployedLinkReferences": {}
}