{
  "_format": "hh-sol-artifact-1",
  "contractName": "AuthTokenAdapter",
  "sourceName": "contracts/stablecoin/core/adapters/AuthTokenAdapter.sol",
  "abi": [
    {
      "anonymous": false,
      "inputs": [],
      "name": "LogCage",
      "type": "event"
    },
    {
      "anonymous": false,
      "inputs": [
        {
          "indexed": true,
          "internalType": "address",
          "name": "urn",
          "type": "address"
        },
        {
          "indexed": false,
          "internalType": "uint256",
          "name": "wad",
          "type": "uint256"
        },
        {
          "indexed": true,
          "internalType": "address",
          "name": "msgSender",
          "type": "address"
        }
      ],
      "name": "LogDeposit",
      "type": "event"
    },
    {
      "anonymous": false,
      "inputs": [],
      "name": "LogUncage",
      "type": "event"
    },
    {
      "anonymous": false,
      "inputs": [
        {
          "indexed": true,
          "internalType": "address",
          "name": "guy",
          "type": "address"
        },
        {
          "indexed": false,
          "internalType": "uint256",
          "name": "wad",
          "type": "uint256"
        }
      ],
      "name": "LogWithdraw",
      "type": "event"
    },
    {
      "anonymous": false,
      "inputs": [
        {
          "indexed": false,
          "internalType": "address",
          "name": "account",
          "type": "address"
        }
      ],
      "name": "Paused",
      "type": "event"
    },
    {
      "anonymous": false,
      "inputs": [
        {
          "indexed": true,
          "internalType": "bytes32",
          "name": "role",
          "type": "bytes32"
        },
        {
          "indexed": true,
          "internalType": "bytes32",
          "name": "previousAdminRole",
          "type": "bytes32"
        },
        {
          "indexed": true,
          "internalType": "bytes32",
          "name": "newAdminRole",
          "type": "bytes32"
        }
      ],
      "name": "RoleAdminChanged",
      "type": "event"
    },
    {
      "anonymous": false,
      "inputs": [
        {
          "indexed": true,
          "internalType": "bytes32",
          "name": "role",
          "type": "bytes32"
        },
        {
          "indexed": true,
          "internalType": "address",
          "name": "account",
          "type": "address"
        },
        {
          "indexed": true,
          "internalType": "address",
          "name": "sender",
          "type": "address"
        }
      ],
      "name": "RoleGranted",
      "type": "event"
    },
    {
      "anonymous": false,
      "inputs": [
        {
          "indexed": true,
          "internalType": "bytes32",
          "name": "role",
          "type": "bytes32"
        },
        {
          "indexed": true,
          "internalType": "address",
          "name": "account",
          "type": "address"
        },
        {
          "indexed": true,
          "internalType": "address",
          "name": "sender",
          "type": "address"
        }
      ],
      "name": "RoleRevoked",
      "type": "event"
    },
    {
      "anonymous": false,
      "inputs": [
        {
          "indexed": false,
          "internalType": "address",
          "name": "account",
          "type": "address"
        }
      ],
      "name": "Unpaused",
      "type": "event"
    },
    {
      "inputs": [],
      "name": "DEFAULT_ADMIN_ROLE",
      "outputs": [
        {
          "internalType": "bytes32",
          "name": "",
          "type": "bytes32"
        }
      ],
      "stateMutability": "view",
      "type": "function"
    },
    {
      "inputs": [],
      "name": "WHITELISTED",
      "outputs": [
        {
          "internalType": "bytes32",
          "name": "",
          "type": "bytes32"
        }
      ],
      "stateMutability": "view",
      "type": "function"
    },
    {
      "inputs": [],
      "name": "bookKeeper",
      "outputs": [
        {
          "internalType": "contract IBookKeeper",
          "name": "",
          "type": "address"
        }
      ],
      "stateMutability": "view",
      "type": "function"
    },
    {
      "inputs": [],
      "name": "cage",
      "outputs": [],
      "stateMutability": "nonpayable",
      "type": "function"
    },
    {
      "inputs": [],
      "name": "collateralPoolId",
      "outputs": [
        {
          "internalType": "bytes32",
          "name": "",
          "type": "bytes32"
        }
      ],
      "stateMutability": "view",
      "type": "function"
    },
    {
      "inputs": [],
      "name": "decimals",
      "outputs": [
        {
          "internalType": "uint256",
          "name": "",
          "type": "uint256"
        }
      ],
      "stateMutability": "view",
      "type": "function"
    },
    {
      "inputs": [
        {
          "internalType": "address",
          "name": "_urn",
          "type": "address"
        },
        {
          "internalType": "uint256",
          "name": "_wad",
          "type": "uint256"
        },
        {
          "internalType": "address",
          "name": "_msgSender",
          "type": "address"
        }
      ],
      "name": "deposit",
      "outputs": [],
      "stateMutability": "nonpayable",
      "type": "function"
    },
    {
      "inputs": [
        {
          "internalType": "bytes32",
          "name": "role",
          "type": "bytes32"
        }
      ],
      "name": "getRoleAdmin",
      "outputs": [
        {
          "internalType": "bytes32",
          "name": "",
          "type": "bytes32"
        }
      ],
      "stateMutability": "view",
      "type": "function"
    },
    {
      "inputs": [
        {
          "internalType": "bytes32",
          "name": "role",
          "type": "bytes32"
        },
        {
          "internalType": "uint256",
          "name": "index",
          "type": "uint256"
        }
      ],
      "name": "getRoleMember",
      "outputs": [
        {
          "internalType": "address",
          "name": "",
          "type": "address"
        }
      ],
      "stateMutability": "view",
      "type": "function"
    },
    {
      "inputs": [
        {
          "internalType": "bytes32",
          "name": "role",
          "type": "bytes32"
        }
      ],
      "name": "getRoleMemberCount",
      "outputs": [
        {
          "internalType": "uint256",
          "name": "",
          "type": "uint256"
        }
      ],
      "stateMutability": "view",
      "type": "function"
    },
    {
      "inputs": [
        {
          "internalType": "bytes32",
          "name": "role",
          "type": "bytes32"
        },
        {
          "internalType": "address",
          "name": "account",
          "type": "address"
        }
      ],
      "name": "grantRole",
      "outputs": [],
      "stateMutability": "nonpayable",
      "type": "function"
    },
    {
      "inputs": [
        {
          "internalType": "bytes32",
          "name": "role",
          "type": "bytes32"
        },
        {
          "internalType": "address",
          "name": "account",
          "type": "address"
        }
      ],
      "name": "hasRole",
      "outputs": [
        {
          "internalType": "bool",
          "name": "",
          "type": "bool"
        }
      ],
      "stateMutability": "view",
      "type": "function"
    },
    {
      "inputs": [
        {
          "internalType": "address",
          "name": "_bookKeeper",
          "type": "address"
        },
        {
          "internalType": "bytes32",
          "name": "_collateralPoolId",
          "type": "bytes32"
        },
        {
          "internalType": "address",
          "name": "_token",
          "type": "address"
        }
      ],
      "name": "initialize",
      "outputs": [],
      "stateMutability": "nonpayable",
      "type": "function"
    },
    {
      "inputs": [],
      "name": "live",
      "outputs": [
        {
          "internalType": "uint256",
          "name": "",
          "type": "uint256"
        }
      ],
      "stateMutability": "view",
      "type": "function"
    },
    {
      "inputs": [],
      "name": "pause",
      "outputs": [],
      "stateMutability": "nonpayable",
      "type": "function"
    },
    {
      "inputs": [],
      "name": "paused",
      "outputs": [
        {
          "internalType": "bool",
          "name": "",
          "type": "bool"
        }
      ],
      "stateMutability": "view",
      "type": "function"
    },
    {
      "inputs": [
        {
          "internalType": "bytes32",
          "name": "role",
          "type": "bytes32"
        },
        {
          "internalType": "address",
          "name": "account",
          "type": "address"
        }
      ],
      "name": "renounceRole",
      "outputs": [],
      "stateMutability": "nonpayable",
      "type": "function"
    },
    {
      "inputs": [
        {
          "internalType": "bytes32",
          "name": "role",
          "type": "bytes32"
        },
        {
          "internalType": "address",
          "name": "account",
          "type": "address"
        }
      ],
      "name": "revokeRole",
      "outputs": [],
      "stateMutability": "nonpayable",
      "type": "function"
    },
    {
      "inputs": [],
      "name": "token",
      "outputs": [
        {
          "internalType": "contract IToken",
          "name": "",
          "type": "address"
        }
      ],
      "stateMutability": "view",
      "type": "function"
    },
    {
      "inputs": [],
      "name": "uncage",
      "outputs": [],
      "stateMutability": "nonpayable",
      "type": "function"
    },
    {
      "inputs": [],
      "name": "unpause",
      "outputs": [],
      "stateMutability": "nonpayable",
      "type": "function"
    },
    {
      "inputs": [
        {
          "internalType": "address",
          "name": "_guy",
          "type": "address"
        },
        {
          "internalType": "uint256",
          "name": "_wad",
          "type": "uint256"
        }
      ],
      "name": "withdraw",
      "outputs": [],
      "stateMutability": "nonpayable",
      "type": "function"
    }
  ],
  "bytecode": "0x608060405234801561001057600080fd5b50612f76806100206000396000f3fe608060405234801561001057600080fd5b50600436106101825760003560e01c8063957aa58c116100d8578063d63b23b21161008c578063f3fef3a311610066578063f3fef3a3146103b4578063f45346dc146103ed578063fc0c546a1461043057610182565b8063d63b23b21461039c578063dca07dc5146103a4578063e3b3932a146103ac57610182565b8063ca15c873116100bd578063ca15c87314610303578063d26b3e6e14610320578063d547741f1461036357610182565b8063957aa58c146102f3578063a217fddf146102fb57610182565b80633f4ba83a1161013a5780638456cb59116101145780638456cb59146102665780639010d07c1461026e57806391d14854146102ba57610182565b80633f4ba83a1461023a5780635c975abb14610242578063692450091461025e57610182565b80632f2ff15d1161016b5780632f2ff15d146101be578063313ce567146101f957806336568abe1461020157610182565b80630b71f11614610187578063248a9ca3146101a1575b600080fd5b61018f610438565b60408051918252519081900360200190f35b61018f600480360360208110156101b757600080fd5b503561045c565b6101f7600480360360408110156101d457600080fd5b508035906020013573ffffffffffffffffffffffffffffffffffffffff16610471565b005b61018f6104f7565b6101f76004803603604081101561021757600080fd5b508035906020013573ffffffffffffffffffffffffffffffffffffffff166104fd565b6101f7610592565b61024a6108e0565b604080519115158252519081900360200190f35b6101f76108e9565b6101f7610cce565b6102916004803603604081101561028457600080fd5b5080359060200135611019565b6040805173ffffffffffffffffffffffffffffffffffffffff9092168252519081900360200190f35b61024a600480360360408110156102d057600080fd5b508035906020013573ffffffffffffffffffffffffffffffffffffffff1661103a565b61018f611052565b61018f611058565b61018f6004803603602081101561031957600080fd5b503561105d565b6101f76004803603606081101561033657600080fd5b5073ffffffffffffffffffffffffffffffffffffffff813581169160208101359160409091013516611074565b6101f76004803603604081101561037957600080fd5b508035906020013573ffffffffffffffffffffffffffffffffffffffff166113d4565b6101f7611447565b61018f61182a565b610291611830565b6101f7600480360360408110156103ca57600080fd5b5073ffffffffffffffffffffffffffffffffffffffff813516906020013561184c565b6101f76004803603606081101561040357600080fd5b5073ffffffffffffffffffffffffffffffffffffffff813581169160208101359160409091013516611ad3565b610291611e7d565b7fe799c73ff785ac053943f5d98452f7fa0bcf54da67826fc217d6094dec75c5ee81565b60009081526065602052604090206002015490565b6000828152606560205260409020600201546104949061048f611e99565b61103a565b6104e9576040517f08c379a000000000000000000000000000000000000000000000000000000000815260040180806020018281038252602f815260200180612e85602f913960400191505060405180910390fd5b6104f38282611e9d565b5050565b60cc5481565b610505611e99565b73ffffffffffffffffffffffffffffffffffffffff168173ffffffffffffffffffffffffffffffffffffffff1614610588576040517f08c379a000000000000000000000000000000000000000000000000000000000815260040180806020018281038252602f815260200180612f12602f913960400191505060405180910390fd5b6104f38282611f20565b60c954604080517fc8cc243f000000000000000000000000000000000000000000000000000000008152905160009273ffffffffffffffffffffffffffffffffffffffff169163c8cc243f916004808301926020929190829003018186803b1580156105fd57600080fd5b505afa158015610611573d6000803e3d6000fd5b505050506040513d602081101561062757600080fd5b5051604080517fe58378bb000000000000000000000000000000000000000000000000000000008152905191925073ffffffffffffffffffffffffffffffffffffffff8316916391d1485491839163e58378bb91600480820192602092909190829003018186803b15801561069b57600080fd5b505afa1580156106af573d6000803e3d6000fd5b505050506040513d60208110156106c557600080fd5b5051604080517fffffffff0000000000000000000000000000000000000000000000000000000060e085901b1681526004810192909252336024830152516044808301926020929190829003018186803b15801561072257600080fd5b505afa158015610736573d6000803e3d6000fd5b505050506040513d602081101561074c57600080fd5b50518061086a57508073ffffffffffffffffffffffffffffffffffffffff166391d148548273ffffffffffffffffffffffffffffffffffffffff1663b536818a6040518163ffffffff1660e01b815260040160206040518083038186803b1580156107b657600080fd5b505afa1580156107ca573d6000803e3d6000fd5b505050506040513d60208110156107e057600080fd5b5051604080517fffffffff0000000000000000000000000000000000000000000000000000000060e085901b1681526004810192909252336024830152516044808301926020929190829003018186803b15801561083d57600080fd5b505afa158015610851573d6000803e3d6000fd5b505050506040513d602081101561086757600080fd5b50515b6108d557604080517f08c379a000000000000000000000000000000000000000000000000000000000815260206004820152601760248201527f21286f776e6572526f6c65206f7220676f76526f6c6529000000000000000000604482015290519081900360640190fd5b6108dd611fa3565b50565b60335460ff1690565b60c954604080517fc8cc243f000000000000000000000000000000000000000000000000000000008152905160009273ffffffffffffffffffffffffffffffffffffffff169163c8cc243f916004808301926020929190829003018186803b15801561095457600080fd5b505afa158015610968573d6000803e3d6000fd5b505050506040513d602081101561097e57600080fd5b5051604080517fe58378bb000000000000000000000000000000000000000000000000000000008152905191925073ffffffffffffffffffffffffffffffffffffffff8316916391d1485491839163e58378bb91600480820192602092909190829003018186803b1580156109f257600080fd5b505afa158015610a06573d6000803e3d6000fd5b505050506040513d6020811015610a1c57600080fd5b5051604080517fffffffff0000000000000000000000000000000000000000000000000000000060e085901b1681526004810192909252336024830152516044808301926020929190829003018186803b158015610a7957600080fd5b505afa158015610a8d573d6000803e3d6000fd5b505050506040513d6020811015610aa357600080fd5b505180610bc157508073ffffffffffffffffffffffffffffffffffffffff166391d148548273ffffffffffffffffffffffffffffffffffffffff1663d7a47a696040518163ffffffff1660e01b815260040160206040518083038186803b158015610b0d57600080fd5b505afa158015610b21573d6000803e3d6000fd5b505050506040513d6020811015610b3757600080fd5b5051604080517fffffffff0000000000000000000000000000000000000000000000000000000060e085901b1681526004810192909252336024830152516044808301926020929190829003018186803b158015610b9457600080fd5b505afa158015610ba8573d6000803e3d6000fd5b505050506040513d6020811015610bbe57600080fd5b50515b610c2c57604080517f08c379a000000000000000000000000000000000000000000000000000000000815260206004820152601f60248201527f21286f776e6572526f6c65206f722073686f7753746f70706572526f6c652900604482015290519081900360640190fd5b60cd54600114610c9d57604080517f08c379a000000000000000000000000000000000000000000000000000000000815260206004820152601960248201527f41757468546f6b656e416461707465722f6e6f742d6c69766500000000000000604482015290519081900360640190fd5b600060cd8190556040517fbf689b4aae670d200b1d2b971ace2e0c3bef88a9c5e93f36705c7b86eab630b99190a150565b60c954604080517fc8cc243f000000000000000000000000000000000000000000000000000000008152905160009273ffffffffffffffffffffffffffffffffffffffff169163c8cc243f916004808301926020929190829003018186803b158015610d3957600080fd5b505afa158015610d4d573d6000803e3d6000fd5b505050506040513d6020811015610d6357600080fd5b5051604080517fe58378bb000000000000000000000000000000000000000000000000000000008152905191925073ffffffffffffffffffffffffffffffffffffffff8316916391d1485491839163e58378bb91600480820192602092909190829003018186803b158015610dd757600080fd5b505afa158015610deb573d6000803e3d6000fd5b505050506040513d6020811015610e0157600080fd5b5051604080517fffffffff0000000000000000000000000000000000000000000000000000000060e085901b1681526004810192909252336024830152516044808301926020929190829003018186803b158015610e5e57600080fd5b505afa158015610e72573d6000803e3d6000fd5b505050506040513d6020811015610e8857600080fd5b505180610fa657508073ffffffffffffffffffffffffffffffffffffffff166391d148548273ffffffffffffffffffffffffffffffffffffffff1663b536818a6040518163ffffffff1660e01b815260040160206040518083038186803b158015610ef257600080fd5b505afa158015610f06573d6000803e3d6000fd5b505050506040513d6020811015610f1c57600080fd5b5051604080517fffffffff0000000000000000000000000000000000000000000000000000000060e085901b1681526004810192909252336024830152516044808301926020929190829003018186803b158015610f7957600080fd5b505afa158015610f8d573d6000803e3d6000fd5b505050506040513d6020811015610fa357600080fd5b50515b61101157604080517f08c379a000000000000000000000000000000000000000000000000000000000815260206004820152601760248201527f21286f776e6572526f6c65206f7220676f76526f6c6529000000000000000000604482015290519081900360640190fd5b6108dd612091565b60008281526065602052604081206110319083612159565b90505b92915050565b60008281526065602052604081206110319083612165565b60cd5481565b600081565b600081815260656020526040812061103490612187565b600054610100900460ff168061108d575061108d612192565b8061109b575060005460ff16155b6110f0576040517f08c379a000000000000000000000000000000000000000000000000000000000815260040180806020018281038252602e815260200180612ee4602e913960400191505060405180910390fd5b600054610100900460ff1615801561115657600080547fffffffffffffffffffffffffffffffffffffffffffffffffffffffffffffff007fffffffffffffffffffffffffffffffffffffffffffffffffffffffffffff00ff909116610100171660011790555b61115e6121a3565b6111666122c6565b61116e6123b8565b60cb80547fffffffffffffffffffffffff00000000000000000000000000000000000000001673ffffffffffffffffffffffffffffffffffffffff8416908117909155604080517f313ce567000000000000000000000000000000000000000000000000000000008152905163313ce56791600480820192602092909190829003018186803b15801561120057600080fd5b505afa158015611214573d6000803e3d6000fd5b505050506040513d602081101561122a57600080fd5b505160ff1660cc55600160cd5560c980547fffffffffffffffffffffffff00000000000000000000000000000000000000001673ffffffffffffffffffffffffffffffffffffffff868116919091179182905560ca859055604080517fc8cc243f000000000000000000000000000000000000000000000000000000008152905161139f939092169163c8cc243f91600481810192602092909190829003018186803b1580156112d957600080fd5b505afa1580156112ed573d6000803e3d6000fd5b505050506040513d602081101561130357600080fd5b5051604080517fe58378bb000000000000000000000000000000000000000000000000000000008152905173ffffffffffffffffffffffffffffffffffffffff9092169163e58378bb91600480820192602092909190829003018186803b15801561136d57600080fd5b505afa158015611381573d6000803e3d6000fd5b505050506040513d602081101561139757600080fd5b5051336104e9565b80156113ce57600080547fffffffffffffffffffffffffffffffffffffffffffffffffffffffffffff00ff1690555b50505050565b6000828152606560205260409020600201546113f29061048f611e99565b610588576040517f08c379a0000000000000000000000000000000000000000000000000000000008152600401808060200182810382526030815260200180612eb46030913960400191505060405180910390fd5b60c954604080517fc8cc243f000000000000000000000000000000000000000000000000000000008152905160009273ffffffffffffffffffffffffffffffffffffffff169163c8cc243f916004808301926020929190829003018186803b1580156114b257600080fd5b505afa1580156114c6573d6000803e3d6000fd5b505050506040513d60208110156114dc57600080fd5b5051604080517fe58378bb000000000000000000000000000000000000000000000000000000008152905191925073ffffffffffffffffffffffffffffffffffffffff8316916391d1485491839163e58378bb91600480820192602092909190829003018186803b15801561155057600080fd5b505afa158015611564573d6000803e3d6000fd5b505050506040513d602081101561157a57600080fd5b5051604080517fffffffff0000000000000000000000000000000000000000000000000000000060e085901b1681526004810192909252336024830152516044808301926020929190829003018186803b1580156115d757600080fd5b505afa1580156115eb573d6000803e3d6000fd5b505050506040513d602081101561160157600080fd5b50518061171f57508073ffffffffffffffffffffffffffffffffffffffff166391d148548273ffffffffffffffffffffffffffffffffffffffff1663d7a47a696040518163ffffffff1660e01b815260040160206040518083038186803b15801561166b57600080fd5b505afa15801561167f573d6000803e3d6000fd5b505050506040513d602081101561169557600080fd5b5051604080517fffffffff0000000000000000000000000000000000000000000000000000000060e085901b1681526004810192909252336024830152516044808301926020929190829003018186803b1580156116f257600080fd5b505afa158015611706573d6000803e3d6000fd5b505050506040513d602081101561171c57600080fd5b50515b61178a57604080517f08c379a000000000000000000000000000000000000000000000000000000000815260206004820152601f60248201527f21286f776e6572526f6c65206f722073686f7753746f70706572526f6c652900604482015290519081900360640190fd5b60cd54156117f957604080517f08c379a000000000000000000000000000000000000000000000000000000000815260206004820152601a60248201527f41757468546f6b656e416461707465722f6e6f742d6361676564000000000000604482015290519081900360640190fd5b600160cd556040517f1868a6ced217213f36be87ba9aee25cde5381b42e85c8f88e73b18772c0bd07390600090a150565b60ca5481565b60c95473ffffffffffffffffffffffffffffffffffffffff1681565b600260975414156118be57604080517f08c379a000000000000000000000000000000000000000000000000000000000815260206004820152601f60248201527f5265656e7472616e637947756172643a207265656e7472616e742063616c6c00604482015290519081900360640190fd5b60026097556118cb6108e0565b1561193757604080517f08c379a000000000000000000000000000000000000000000000000000000000815260206004820152601060248201527f5061757361626c653a2070617573656400000000000000000000000000000000604482015290519081900360640190fd5b600061194b8260cc54601203600a0a6124a2565b905060008112156119bd57604080517f08c379a000000000000000000000000000000000000000000000000000000000815260206004820152601960248201527f41757468546f6b656e416461707465722f6f766572666c6f7700000000000000604482015290519081900360640190fd5b60c95460ca54604080517fd295927a000000000000000000000000000000000000000000000000000000008152600481019290925233602483015260008481036044840152905173ffffffffffffffffffffffffffffffffffffffff9093169263d295927a92606480820193929182900301818387803b158015611a4057600080fd5b505af1158015611a54573d6000803e3d6000fd5b505060cb54611a7d925073ffffffffffffffffffffffffffffffffffffffff1690508484612528565b60408051838152905173ffffffffffffffffffffffffffffffffffffffff8516917f4ce7033d118120e254016dccf195288400b28fc8936425acd5f17ce2df3ab708919081900360200190a25050600160975550565b60026097541415611b4557604080517f08c379a000000000000000000000000000000000000000000000000000000000815260206004820152601f60248201527f5265656e7472616e637947756172643a207265656e7472616e742063616c6c00604482015290519081900360640190fd5b6002609755611b526108e0565b15611bbe57604080517f08c379a000000000000000000000000000000000000000000000000000000000815260206004820152601060248201527f5061757361626c653a2070617573656400000000000000000000000000000000604482015290519081900360640190fd5b611be87fe799c73ff785ac053943f5d98452f7fa0bcf54da67826fc217d6094dec75c5ee3361103a565b611c5357604080517f08c379a000000000000000000000000000000000000000000000000000000000815260206004820181905260248201527f41757468546f6b656e416461707465722f6e6f742d77686974656c6973746564604482015290519081900360640190fd5b60cd54600114611cc457604080517f08c379a000000000000000000000000000000000000000000000000000000000815260206004820152601960248201527f41757468546f6b656e416461707465722f6e6f742d6c69766500000000000000604482015290519081900360640190fd5b6000611cd88360cc54601203600a0a6124a2565b90506000811215611d4a57604080517f08c379a000000000000000000000000000000000000000000000000000000000815260206004820152601960248201527f41757468546f6b656e416461707465722f6f766572666c6f7700000000000000604482015290519081900360640190fd5b60c95460ca54604080517fd295927a000000000000000000000000000000000000000000000000000000008152600481019290925273ffffffffffffffffffffffffffffffffffffffff878116602484015260448301859052905192169163d295927a9160648082019260009290919082900301818387803b158015611dcf57600080fd5b505af1158015611de3573d6000803e3d6000fd5b505060cb54611e0d925073ffffffffffffffffffffffffffffffffffffffff169050833086612705565b8173ffffffffffffffffffffffffffffffffffffffff168473ffffffffffffffffffffffffffffffffffffffff167f7235702039c95755efa35aa4a8208920cc347a1a3685c13ef9ef6dedc2859be1856040518082815260200191505060405180910390a3505060016097555050565b60cb5473ffffffffffffffffffffffffffffffffffffffff1681565b3390565b6000828152606560205260409020611eb590826128eb565b156104f357611ec2611e99565b73ffffffffffffffffffffffffffffffffffffffff168173ffffffffffffffffffffffffffffffffffffffff16837f2f8788117e7eff1d82e926ec794901d17c78024a50270940304540a733656f0d60405160405180910390a45050565b6000828152606560205260409020611f38908261290d565b156104f357611f45611e99565b73ffffffffffffffffffffffffffffffffffffffff168173ffffffffffffffffffffffffffffffffffffffff16837ff6391f5c32d9c69d2a47ea670b442974b53935d1edc7fd64eb21e047a839171b60405160405180910390a45050565b611fab6108e0565b61201657604080517f08c379a000000000000000000000000000000000000000000000000000000000815260206004820152601460248201527f5061757361626c653a206e6f7420706175736564000000000000000000000000604482015290519081900360640190fd5b603380547fffffffffffffffffffffffffffffffffffffffffffffffffffffffffffffff001690557f5db9ee0a495bf2e6ff9c91a7834c1ba4fdd244a5e8aa4e537bd38aeae4b073aa612067611e99565b6040805173ffffffffffffffffffffffffffffffffffffffff9092168252519081900360200190a1565b6120996108e0565b1561210557604080517f08c379a000000000000000000000000000000000000000000000000000000000815260206004820152601060248201527f5061757361626c653a2070617573656400000000000000000000000000000000604482015290519081900360640190fd5b603380547fffffffffffffffffffffffffffffffffffffffffffffffffffffffffffffff001660011790557f62e78cea01bee320cd4e420270b5ea74000d11b0c9f74754ebdbfc544b05a258612067611e99565b6000611031838361292f565b60006110318373ffffffffffffffffffffffffffffffffffffffff84166129ad565b6000611034826129c5565b600061219d306129c9565b15905090565b600054610100900460ff16806121bc57506121bc612192565b806121ca575060005460ff16155b61221f576040517f08c379a000000000000000000000000000000000000000000000000000000000815260040180806020018281038252602e815260200180612ee4602e913960400191505060405180910390fd5b600054610100900460ff1615801561228557600080547fffffffffffffffffffffffffffffffffffffffffffffffffffffffffffffff007fffffffffffffffffffffffffffffffffffffffffffffffffffffffffffff00ff909116610100171660011790555b61228d6129cf565b612295612ae1565b80156108dd57600080547fffffffffffffffffffffffffffffffffffffffffffffffffffffffffffff00ff16905550565b600054610100900460ff16806122df57506122df612192565b806122ed575060005460ff16155b612342576040517f08c379a000000000000000000000000000000000000000000000000000000000815260040180806020018281038252602e815260200180612ee4602e913960400191505060405180910390fd5b600054610100900460ff161580156123a857600080547fffffffffffffffffffffffffffffffffffffffffffffffffffffffffffffff007fffffffffffffffffffffffffffffffffffffffffffffffffffffffffffff00ff909116610100171660011790555b6123b06129cf565b6122956129cf565b600054610100900460ff16806123d157506123d1612192565b806123df575060005460ff16155b612434576040517f08c379a000000000000000000000000000000000000000000000000000000000815260040180806020018281038252602e815260200180612ee4602e913960400191505060405180910390fd5b600054610100900460ff1615801561249a57600080547fffffffffffffffffffffffffffffffffffffffffffffffffffffffffffffff007fffffffffffffffffffffffffffffffffffffffffffffffffffffffffffff00ff909116610100171660011790555b612295612c1c565b60008115806124bd575050808202828282816124ba57fe5b04145b61103457604080517f08c379a000000000000000000000000000000000000000000000000000000000815260206004820152601960248201527f41757468546f6b656e416461707465722f6f766572666c6f7700000000000000604482015290519081900360640190fd5b6040805173ffffffffffffffffffffffffffffffffffffffff8481166024830152604480830185905283518084039091018152606490920183526020820180517bffffffffffffffffffffffffffffffffffffffffffffffffffffffff167fa9059cbb00000000000000000000000000000000000000000000000000000000178152925182516000946060949389169392918291908083835b602083106125fe57805182527fffffffffffffffffffffffffffffffffffffffffffffffffffffffffffffffe090920191602091820191016125c1565b6001836020036101000a0380198251168184511680821785525050505050509050019150506000604051808303816000865af19150503d8060008114612660576040519150601f19603f3d011682016040523d82523d6000602084013e612665565b606091505b5091509150818015612693575080511580612693575080806020019051602081101561269057600080fd5b50515b6126fe57604080517f08c379a000000000000000000000000000000000000000000000000000000000815260206004820152600d60248201527f21736166655472616e7366657200000000000000000000000000000000000000604482015290519081900360640190fd5b5050505050565b6040805173ffffffffffffffffffffffffffffffffffffffff85811660248301528481166044830152606480830185905283518084039091018152608490920183526020820180517bffffffffffffffffffffffffffffffffffffffffffffffffffffffff167f23b872dd0000000000000000000000000000000000000000000000000000000017815292518251600094606094938a169392918291908083835b602083106127e357805182527fffffffffffffffffffffffffffffffffffffffffffffffffffffffffffffffe090920191602091820191016127a6565b6001836020036101000a0380198251168184511680821785525050505050509050019150506000604051808303816000865af19150503d8060008114612845576040519150601f19603f3d011682016040523d82523d6000602084013e61284a565b606091505b5091509150818015612878575080511580612878575080806020019051602081101561287557600080fd5b50515b6128e357604080517f08c379a000000000000000000000000000000000000000000000000000000000815260206004820152601160248201527f21736166655472616e7366657246726f6d000000000000000000000000000000604482015290519081900360640190fd5b505050505050565b60006110318373ffffffffffffffffffffffffffffffffffffffff8416612d34565b60006110318373ffffffffffffffffffffffffffffffffffffffff8416612d7e565b8154600090821061298b576040517f08c379a0000000000000000000000000000000000000000000000000000000008152600401808060200182810382526022815260200180612e636022913960400191505060405180910390fd5b82600001828154811061299a57fe5b9060005260206000200154905092915050565b60009081526001919091016020526040902054151590565b5490565b3b151590565b600054610100900460ff16806129e857506129e8612192565b806129f6575060005460ff16155b612a4b576040517f08c379a000000000000000000000000000000000000000000000000000000000815260040180806020018281038252602e815260200180612ee4602e913960400191505060405180910390fd5b600054610100900460ff1615801561229557600080547fffffffffffffffffffffffffffffffffffffffffffffffffffffffffffffff007fffffffffffffffffffffffffffffffffffffffffffffffffffffffffffff00ff9091166101001716600117905580156108dd57600080547fffffffffffffffffffffffffffffffffffffffffffffffffffffffffffff00ff16905550565b600054610100900460ff1680612afa5750612afa612192565b80612b08575060005460ff16155b612b5d576040517f08c379a000000000000000000000000000000000000000000000000000000000815260040180806020018281038252602e815260200180612ee4602e913960400191505060405180910390fd5b600054610100900460ff16158015612bc357600080547fffffffffffffffffffffffffffffffffffffffffffffffffffffffffffffff007fffffffffffffffffffffffffffffffffffffffffffffffffffffffffffff00ff909116610100171660011790555b603380547fffffffffffffffffffffffffffffffffffffffffffffffffffffffffffffff0016905580156108dd57600080547fffffffffffffffffffffffffffffffffffffffffffffffffffffffffffff00ff16905550565b600054610100900460ff1680612c355750612c35612192565b80612c43575060005460ff16155b612c98576040517f08c379a000000000000000000000000000000000000000000000000000000000815260040180806020018281038252602e815260200180612ee4602e913960400191505060405180910390fd5b600054610100900460ff16158015612cfe57600080547fffffffffffffffffffffffffffffffffffffffffffffffffffffffffffffff007fffffffffffffffffffffffffffffffffffffffffffffffffffffffffffff00ff909116610100171660011790555b600160975580156108dd57600080547fffffffffffffffffffffffffffffffffffffffffffffffffffffffffffff00ff16905550565b6000612d4083836129ad565b612d7657508154600181810184556000848152602080822090930184905584548482528286019093526040902091909155611034565b506000611034565b60008181526001830160205260408120548015612e585783547fffffffffffffffffffffffffffffffffffffffffffffffffffffffffffffffff8083019190810190600090879083908110612dcf57fe5b9060005260206000200154905080876000018481548110612dec57fe5b600091825260208083209091019290925582815260018981019092526040902090840190558654879080612e1c57fe5b60019003818190600052602060002001600090559055866001016000878152602001908152602001600020600090556001945050505050611034565b600091505061103456fe456e756d657261626c655365743a20696e646578206f7574206f6620626f756e6473416363657373436f6e74726f6c3a2073656e646572206d75737420626520616e2061646d696e20746f206772616e74416363657373436f6e74726f6c3a2073656e646572206d75737420626520616e2061646d696e20746f207265766f6b65496e697469616c697a61626c653a20636f6e747261637420697320616c726561647920696e697469616c697a6564416363657373436f6e74726f6c3a2063616e206f6e6c792072656e6f756e636520726f6c657320666f722073656c66a26469706673582212206876e20e0a4201b4d2c71dc31ad7a9f4f4520dafe79e2e1865ca0d7481e8f6ca64736f6c634300060c0033",
  "linkReferences": {},
  "deployedLinkReferences": {}
}