{
  "_format": "hh-sol-artifact-1",
  "contractName": "GammaVault",
  "sourceName": "contracts/vaults/GammaVault.sol",
  "abi": [
    {
      "inputs": [
        {
          "internalType": "address",
          "name": "oracle_",
          "type": "address"
        },
        {
          "internalType": "uint256",
          "name": "newCloseFactorMantissa_",
          "type": "uint256"
        }
      ],
      "stateMutability": "nonpayable",
      "type": "constructor"
    },
    {
      "anonymous": false,
      "inputs": [
        {
          "indexed": false,
          "internalType": "address",
          "name": "targetAccount",
          "type": "address"
        },
        {
          "indexed": false,
          "internalType": "address",
          "name": "assetBorrow",
          "type": "address"
        },
        {
          "indexed": false,
          "internalType": "uint256",
          "name": "borrowBalanceAccumulated",
          "type": "uint256"
        },
        {
          "indexed": false,
          "internalType": "uint256",
          "name": "amountRepaid",
          "type": "uint256"
        },
        {
          "indexed": false,
          "internalType": "address",
          "name": "liquidator",
          "type": "address"
        },
        {
          "indexed": false,
          "internalType": "address",
          "name": "assetCollateral",
          "type": "address"
        },
        {
          "indexed": false,
          "internalType": "uint256",
          "name": "amountSeized",
          "type": "uint256"
        }
      ],
      "name": "BorrowLiquidated",
      "type": "event"
    },
    {
      "anonymous": false,
      "inputs": [
        {
          "indexed": false,
          "internalType": "address",
          "name": "account",
          "type": "address"
        },
        {
          "indexed": false,
          "internalType": "address",
          "name": "asset",
          "type": "address"
        },
        {
          "indexed": false,
          "internalType": "uint256",
          "name": "amount",
          "type": "uint256"
        },
        {
          "indexed": false,
          "internalType": "uint256",
          "name": "startingBalance",
          "type": "uint256"
        },
        {
          "indexed": false,
          "internalType": "uint256",
          "name": "newBalance",
          "type": "uint256"
        }
      ],
      "name": "BorrowRepaid",
      "type": "event"
    },
    {
      "anonymous": false,
      "inputs": [
        {
          "indexed": false,
          "internalType": "address",
          "name": "account",
          "type": "address"
        },
        {
          "indexed": false,
          "internalType": "address",
          "name": "asset",
          "type": "address"
        },
        {
          "indexed": false,
          "internalType": "uint256",
          "name": "amount",
          "type": "uint256"
        },
        {
          "indexed": false,
          "internalType": "uint256",
          "name": "startingBalance",
          "type": "uint256"
        },
        {
          "indexed": false,
          "internalType": "uint256",
          "name": "borrowAmountWithFee",
          "type": "uint256"
        },
        {
          "indexed": false,
          "internalType": "uint256",
          "name": "newBalance",
          "type": "uint256"
        }
      ],
      "name": "BorrowTaken",
      "type": "event"
    },
    {
      "anonymous": false,
      "inputs": [
        {
          "indexed": false,
          "internalType": "address",
          "name": "asset",
          "type": "address"
        },
        {
          "indexed": false,
          "internalType": "uint256",
          "name": "equityAvailableBefore",
          "type": "uint256"
        },
        {
          "indexed": false,
          "internalType": "uint256",
          "name": "amount",
          "type": "uint256"
        },
        {
          "indexed": false,
          "internalType": "address",
          "name": "owner",
          "type": "address"
        }
      ],
      "name": "EquityWithdrawn",
      "type": "event"
    },
    {
      "anonymous": false,
      "inputs": [
        {
          "indexed": false,
          "internalType": "address",
          "name": "account",
          "type": "address"
        },
        {
          "indexed": false,
          "internalType": "address",
          "name": "asset",
          "type": "address"
        },
        {
          "indexed": false,
          "internalType": "uint256",
          "name": "amount",
          "type": "uint256"
        },
        {
          "indexed": false,
          "internalType": "uint256",
          "name": "startingBalance",
          "type": "uint256"
        },
        {
          "indexed": false,
          "internalType": "uint256",
          "name": "newBalance",
          "type": "uint256"
        }
      ],
      "name": "SupplyOrgFeeAsAdmin",
      "type": "event"
    },
    {
      "anonymous": false,
      "inputs": [
        {
          "indexed": false,
          "internalType": "address",
          "name": "account",
          "type": "address"
        },
        {
          "indexed": false,
          "internalType": "address",
          "name": "asset",
          "type": "address"
        },
        {
          "indexed": false,
          "internalType": "uint256",
          "name": "amount",
          "type": "uint256"
        },
        {
          "indexed": false,
          "internalType": "uint256",
          "name": "startingBalance",
          "type": "uint256"
        },
        {
          "indexed": false,
          "internalType": "uint256",
          "name": "newBalance",
          "type": "uint256"
        }
      ],
      "name": "SupplyReceived",
      "type": "event"
    },
    {
      "anonymous": false,
      "inputs": [
        {
          "indexed": false,
          "internalType": "address",
          "name": "account",
          "type": "address"
        },
        {
          "indexed": false,
          "internalType": "address",
          "name": "asset",
          "type": "address"
        },
        {
          "indexed": false,
          "internalType": "uint256",
          "name": "amount",
          "type": "uint256"
        },
        {
          "indexed": false,
          "internalType": "uint256",
          "name": "startingBalance",
          "type": "uint256"
        },
        {
          "indexed": false,
          "internalType": "uint256",
          "name": "newBalance",
          "type": "uint256"
        }
      ],
      "name": "SupplyWithdrawn",
      "type": "event"
    },
    {
      "inputs": [],
      "name": "_guardCounter",
      "outputs": [
        {
          "internalType": "uint256",
          "name": "",
          "type": "uint256"
        }
      ],
      "stateMutability": "view",
      "type": "function"
    },
    {
      "inputs": [
        {
          "internalType": "address",
          "name": "asset",
          "type": "address"
        },
        {
          "internalType": "address",
          "name": "interestRateModel",
          "type": "address"
        }
      ],
      "name": "_setMarketIRateModel",
      "outputs": [
        {
          "internalType": "bool",
          "name": "",
          "type": "bool"
        }
      ],
      "stateMutability": "nonpayable",
      "type": "function"
    },
    {
      "inputs": [
        {
          "internalType": "uint256",
          "name": "collateralRatioMantissa",
          "type": "uint256"
        },
        {
          "internalType": "uint256",
          "name": "liquidationDiscountMantissa",
          "type": "uint256"
        }
      ],
      "name": "_setRiskParameters",
      "outputs": [
        {
          "internalType": "bool",
          "name": "",
          "type": "bool"
        }
      ],
      "stateMutability": "nonpayable",
      "type": "function"
    },
    {
      "inputs": [
        {
          "internalType": "address",
          "name": "asset",
          "type": "address"
        },
        {
          "internalType": "address",
          "name": "interestRateModel",
          "type": "address"
        },
        {
          "internalType": "address",
          "name": "interestBearingToken",
          "type": "address"
        }
      ],
      "name": "_supportMarket",
      "outputs": [
        {
          "internalType": "bool",
          "name": "",
          "type": "bool"
        }
      ],
      "stateMutability": "nonpayable",
      "type": "function"
    },
    {
      "inputs": [
        {
          "internalType": "address",
          "name": "asset",
          "type": "address"
        }
      ],
      "name": "_suspendMarket",
      "outputs": [
        {
          "internalType": "bool",
          "name": "",
          "type": "bool"
        }
      ],
      "stateMutability": "nonpayable",
      "type": "function"
    },
    {
      "inputs": [
        {
          "internalType": "address",
          "name": "asset",
          "type": "address"
        },
        {
          "internalType": "uint256",
          "name": "amount",
          "type": "uint256"
        }
      ],
      "name": "_withdrawEquity",
      "outputs": [
        {
          "internalType": "bool",
          "name": "",
          "type": "bool"
        }
      ],
      "stateMutability": "nonpayable",
      "type": "function"
    },
    {
      "inputs": [],
      "name": "admin",
      "outputs": [
        {
          "internalType": "address",
          "name": "",
          "type": "address"
        }
      ],
      "stateMutability": "view",
      "type": "function"
    },
    {
      "inputs": [
        {
          "internalType": "address",
          "name": "asset",
          "type": "address"
        }
      ],
      "name": "assetPrices",
      "outputs": [
        {
          "internalType": "uint256",
          "name": "",
          "type": "uint256"
        }
      ],
      "stateMutability": "view",
      "type": "function"
    },
    {
      "inputs": [
        {
          "internalType": "address",
          "name": "asset",
          "type": "address"
        },
        {
          "internalType": "uint256",
          "name": "amount",
          "type": "uint256"
        }
      ],
      "name": "borrow",
      "outputs": [
        {
          "internalType": "bool",
          "name": "",
          "type": "bool"
        }
      ],
      "stateMutability": "nonpayable",
      "type": "function"
    },
    {
      "inputs": [
        {
          "internalType": "address",
          "name": "",
          "type": "address"
        },
        {
          "internalType": "address",
          "name": "",
          "type": "address"
        }
      ],
      "name": "borrowBalances",
      "outputs": [
        {
          "internalType": "uint256",
          "name": "principal",
          "type": "uint256"
        },
        {
          "internalType": "uint256",
          "name": "interestIndex",
          "type": "uint256"
        }
      ],
      "stateMutability": "view",
      "type": "function"
    },
    {
      "inputs": [
        {
          "internalType": "address",
          "name": "userAddress",
          "type": "address"
        }
      ],
      "name": "calculateAccountValues",
      "outputs": [
        {
          "internalType": "uint256",
          "name": "",
          "type": "uint256"
        },
        {
          "internalType": "uint256",
          "name": "",
          "type": "uint256"
        }
      ],
      "stateMutability": "view",
      "type": "function"
    },
    {
      "inputs": [
        {
          "internalType": "uint256",
          "name": "startingBalance",
          "type": "uint256"
        },
        {
          "internalType": "uint256",
          "name": "interestIndexStart",
          "type": "uint256"
        },
        {
          "internalType": "uint256",
          "name": "interestIndexEnd",
          "type": "uint256"
        }
      ],
      "name": "calculateBalance",
      "outputs": [
        {
          "internalType": "uint256",
          "name": "",
          "type": "uint256"
        }
      ],
      "stateMutability": "pure",
      "type": "function"
    },
    {
      "inputs": [],
      "name": "closeFactorMantissa",
      "outputs": [
        {
          "internalType": "uint256",
          "name": "",
          "type": "uint256"
        }
      ],
      "stateMutability": "view",
      "type": "function"
    },
    {
      "inputs": [
        {
          "internalType": "uint256",
          "name": "",
          "type": "uint256"
        }
      ],
      "name": "collateralMarkets",
      "outputs": [
        {
          "internalType": "address",
          "name": "",
          "type": "address"
        }
      ],
      "stateMutability": "view",
      "type": "function"
    },
    {
      "inputs": [],
      "name": "collateralRatio",
      "outputs": [
        {
          "internalType": "uint256",
          "name": "mantissa",
          "type": "uint256"
        }
      ],
      "stateMutability": "view",
      "type": "function"
    },
    {
      "inputs": [
        {
          "internalType": "address",
          "name": "asset",
          "type": "address"
        }
      ],
      "name": "fetchAssetPrice",
      "outputs": [
        {
          "components": [
            {
              "internalType": "uint256",
              "name": "mantissa",
              "type": "uint256"
            }
          ],
          "internalType": "struct Exponential.Exp",
          "name": "",
          "type": "tuple"
        }
      ],
      "stateMutability": "view",
      "type": "function"
    },
    {
      "inputs": [
        {
          "internalType": "address",
          "name": "account",
          "type": "address"
        }
      ],
      "name": "getAccountLiquidity",
      "outputs": [
        {
          "internalType": "int256",
          "name": "",
          "type": "int256"
        }
      ],
      "stateMutability": "view",
      "type": "function"
    },
    {
      "inputs": [
        {
          "internalType": "address",
          "name": "account",
          "type": "address"
        },
        {
          "internalType": "address",
          "name": "asset",
          "type": "address"
        }
      ],
      "name": "getBorrowBalance",
      "outputs": [
        {
          "internalType": "uint256",
          "name": "",
          "type": "uint256"
        }
      ],
      "stateMutability": "view",
      "type": "function"
    },
    {
      "inputs": [
        {
          "internalType": "address",
          "name": "account",
          "type": "address"
        },
        {
          "internalType": "address",
          "name": "asset",
          "type": "address"
        }
      ],
      "name": "getBorrowBalanceWithInterest",
      "outputs": [
        {
          "internalType": "uint256",
          "name": "",
          "type": "uint256"
        }
      ],
      "stateMutability": "view",
      "type": "function"
    },
    {
      "inputs": [],
      "name": "getCollateralMarketsLength",
      "outputs": [
        {
          "internalType": "uint256",
          "name": "",
          "type": "uint256"
        }
      ],
      "stateMutability": "view",
      "type": "function"
    },
    {
      "inputs": [
        {
          "internalType": "address",
          "name": "asset",
          "type": "address"
        }
      ],
      "name": "getMarketBalances",
      "outputs": [
        {
          "internalType": "uint256",
          "name": "",
          "type": "uint256"
        },
        {
          "internalType": "uint256",
          "name": "",
          "type": "uint256"
        }
      ],
      "stateMutability": "view",
      "type": "function"
    },
    {
      "inputs": [
        {
          "internalType": "address",
          "name": "account",
          "type": "address"
        },
        {
          "internalType": "address",
          "name": "asset",
          "type": "address"
        }
      ],
      "name": "getSupplyBalance",
      "outputs": [
        {
          "internalType": "uint256",
          "name": "",
          "type": "uint256"
        }
      ],
      "stateMutability": "view",
      "type": "function"
    },
    {
      "inputs": [
        {
          "internalType": "address",
          "name": "account",
          "type": "address"
        },
        {
          "internalType": "address",
          "name": "asset",
          "type": "address"
        }
      ],
      "name": "getSupplyBalanceWithInterest",
      "outputs": [
        {
          "internalType": "uint256",
          "name": "",
          "type": "uint256"
        }
      ],
      "stateMutability": "view",
      "type": "function"
    },
    {
      "inputs": [
        {
          "internalType": "address",
          "name": "targetAccount",
          "type": "address"
        },
        {
          "internalType": "address",
          "name": "assetBorrow",
          "type": "address"
        },
        {
          "internalType": "address",
          "name": "assetCollateral",
          "type": "address"
        },
        {
          "internalType": "uint256",
          "name": "requestedAmountClose",
          "type": "uint256"
        }
      ],
      "name": "liquidateBorrow",
      "outputs": [
        {
          "internalType": "bool",
          "name": "",
          "type": "bool"
        }
      ],
      "stateMutability": "nonpayable",
      "type": "function"
    },
    {
      "inputs": [],
      "name": "liquidationDiscount",
      "outputs": [
        {
          "internalType": "uint256",
          "name": "mantissa",
          "type": "uint256"
        }
      ],
      "stateMutability": "view",
      "type": "function"
    },
    {
      "inputs": [
        {
          "internalType": "address",
          "name": "",
          "type": "address"
        }
      ],
      "name": "markets",
      "outputs": [
        {
          "internalType": "bool",
          "name": "isSupported",
          "type": "bool"
        },
        {
          "internalType": "uint256",
          "name": "blockNumber",
          "type": "uint256"
        },
        {
          "internalType": "address",
          "name": "interestRateModel",
          "type": "address"
        },
        {
          "internalType": "uint256",
          "name": "totalSupply",
          "type": "uint256"
        },
        {
          "internalType": "uint256",
          "name": "supplyRateMantissa",
          "type": "uint256"
        },
        {
          "internalType": "uint256",
          "name": "supplyIndex",
          "type": "uint256"
        },
        {
          "internalType": "uint256",
          "name": "totalBorrows",
          "type": "uint256"
        },
        {
          "internalType": "uint256",
          "name": "borrowRateMantissa",
          "type": "uint256"
        },
        {
          "internalType": "uint256",
          "name": "borrowIndex",
          "type": "uint256"
        },
        {
          "internalType": "address",
          "name": "ibToken",
          "type": "address"
        }
      ],
      "stateMutability": "view",
      "type": "function"
    },
    {
      "inputs": [],
      "name": "marketsLength",
      "outputs": [
        {
          "internalType": "uint256",
          "name": "",
          "type": "uint256"
        }
      ],
      "stateMutability": "view",
      "type": "function"
    },
    {
      "inputs": [],
      "name": "maxLiquidationDiscountMantissa",
      "outputs": [
        {
          "internalType": "uint256",
          "name": "",
          "type": "uint256"
        }
      ],
      "stateMutability": "view",
      "type": "function"
    },
    {
      "inputs": [],
      "name": "minCollateralRatioMantissa",
      "outputs": [
        {
          "internalType": "uint256",
          "name": "",
          "type": "uint256"
        }
      ],
      "stateMutability": "view",
      "type": "function"
    },
    {
      "inputs": [],
      "name": "originationFee",
      "outputs": [
        {
          "internalType": "uint256",
          "name": "mantissa",
          "type": "uint256"
        }
      ],
      "stateMutability": "view",
      "type": "function"
    },
    {
      "inputs": [
        {
          "internalType": "address",
          "name": "",
          "type": "address"
        },
        {
          "internalType": "address",
          "name": "",
          "type": "address"
        }
      ],
      "name": "originationFeeBalance",
      "outputs": [
        {
          "internalType": "uint256",
          "name": "",
          "type": "uint256"
        }
      ],
      "stateMutability": "view",
      "type": "function"
    },
    {
      "inputs": [],
      "name": "paused",
      "outputs": [
        {
          "internalType": "bool",
          "name": "",
          "type": "bool"
        }
      ],
      "stateMutability": "view",
      "type": "function"
    },
    {
      "inputs": [],
      "name": "priceOracle",
      "outputs": [
        {
          "internalType": "contract ChainLink",
          "name": "",
          "type": "address"
        }
      ],
      "stateMutability": "view",
      "type": "function"
    },
    {
      "inputs": [
        {
          "internalType": "address",
          "name": "asset",
          "type": "address"
        },
        {
          "internalType": "uint256",
          "name": "amount",
          "type": "uint256"
        }
      ],
      "name": "repayBorrow",
      "outputs": [
        {
          "internalType": "bool",
          "name": "",
          "type": "bool"
        }
      ],
      "stateMutability": "nonpayable",
      "type": "function"
    },
    {
      "inputs": [],
      "name": "rewardControl",
      "outputs": [
        {
          "internalType": "contract IRewardControl",
          "name": "",
          "type": "address"
        }
      ],
      "stateMutability": "view",
      "type": "function"
    },
    {
      "inputs": [
        {
          "internalType": "address",
          "name": "rewardControl_",
          "type": "address"
        }
      ],
      "name": "setRewardControl",
      "outputs": [
        {
          "internalType": "bool",
          "name": "",
          "type": "bool"
        }
      ],
      "stateMutability": "nonpayable",
      "type": "function"
    },
    {
      "inputs": [
        {
          "internalType": "address",
          "name": "asset",
          "type": "address"
        },
        {
          "internalType": "uint256",
          "name": "amount",
          "type": "uint256"
        }
      ],
      "name": "supply",
      "outputs": [
        {
          "internalType": "bool",
          "name": "",
          "type": "bool"
        }
      ],
      "stateMutability": "nonpayable",
      "type": "function"
    },
    {
      "inputs": [
        {
          "internalType": "address",
          "name": "",
          "type": "address"
        },
        {
          "internalType": "address",
          "name": "",
          "type": "address"
        }
      ],
      "name": "supplyBalances",
      "outputs": [
        {
          "internalType": "uint256",
          "name": "principal",
          "type": "uint256"
        },
        {
          "internalType": "uint256",
          "name": "interestIndex",
          "type": "uint256"
        }
      ],
      "stateMutability": "view",
      "type": "function"
    },
    {
      "inputs": [
        {
          "internalType": "address",
          "name": "asset",
          "type": "address"
        },
        {
          "internalType": "uint256",
          "name": "requestedAmount",
          "type": "uint256"
        }
      ],
      "name": "withdraw",
      "outputs": [
        {
          "internalType": "bool",
          "name": "",
          "type": "bool"
        }
      ],
      "stateMutability": "nonpayable",
      "type": "function"
    }
  ],
  "bytecode": "0x60806040526000196000553480156200001757600080fd5b50604051620055b2380380620055b28339810160408190526200003a91620001be565b6001600160a01b038216620000965760405162461bcd60e51b815260206004820152601c60248201527f4f7261636c652063616e2774206265205a45524f20616464726573730000000060448201526064015b60405180910390fd5b670de0b6b3a76400008110620001085760405162461bcd60e51b815260206004820152603060248201527f496e76616c6964204f726967696e6174696f6e20466565206f7220436c6f736560448201526f20466163746f72204d616e746973736160801b60648201526084016200008d565b60078054336001600160a01b031991821617909155670de0b6b3a7640000600190815566038d7ea4c680006002819055671158e460913d0000600381905567016345785d8a00006004819055670f43fc2c04ee00006005556006819055604080516020808201835290849052600f93909355805180840182528490526010939093558251918201909252819052601155601655600980549091166001600160a01b039390931692909217909155601555620001fa565b60008060408385031215620001d257600080fd5b82516001600160a01b0381168114620001ea57600080fd5b6020939093015192949293505050565b6153a8806200020a6000396000f3fe608060405234801561001057600080fd5b50600436106102ad5760003560e01c8063abdb5ea81161017b578063dbe2bc84116100d8578063f2b9fdb81161008c578063f5c61ce611610071578063f5c61ce6146106e6578063f851a44014610706578063fc7d42d71461072657600080fd5b8063f2b9fdb8146106c0578063f3fef3a3146106d357600080fd5b8063e61604cf116100bd578063e61604cf14610691578063e69e4640146106a4578063e8755446146106b757600080fd5b8063dbe2bc841461065c578063ddec280e1461066f57600080fd5b8063ba3777311161012f578063beb5461511610114578063beb546151461062d578063bf5bfdfb14610640578063c365a6461461064957600080fd5b8063ba377731146105de578063be2eafa11461062457600080fd5b8063b53bc80111610160578063b53bc8011461058f578063b7adddac146105a2578063b8bb5c42146105d457600080fd5b8063abdb5ea814610572578063b4eae1cb1461058557600080fd5b80635ec88c791161022957806382cd917b116101dd5780638e8f294b116101c25780638e8f294b146104735780639f180cf114610556578063a54025441461056957600080fd5b806382cd917b1461044d5780638a0022c61461046057600080fd5b806379b296481161020e57806379b29648146103f05780637bc33210146104185780638053fcbe1461044357600080fd5b80635ec88c79146103d55780636e2ede03146103e857600080fd5b8063343caa1d116102805780634b8a3529116102655780634b8a3529146103a25780635c975abb146103b55780635e9a523c146103c257600080fd5b8063343caa1d1461036c5780634706c3751461037f57600080fd5b80630dd8fe6c146102b2578063118e31b7146102d85780632630c12f1461031e5780632c52c7fd14610363575b600080fd5b6102c56102c0366004614e90565b610758565b6040519081526020015b60405180910390f35b6102c56102e6366004614e90565b73ffffffffffffffffffffffffffffffffffffffff9182166000908152600b6020908152604080832093909416825291909152205490565b60095461033e9073ffffffffffffffffffffffffffffffffffffffff1681565b60405173ffffffffffffffffffffffffffffffffffffffff90911681526020016102cf565b6102c560065481565b6102c561037a366004614e90565b6107dc565b61039261038d366004614ec3565b61083e565b60405190151581526020016102cf565b6103926103b0366004614ec3565b610cc4565b6012546103929060ff1681565b6102c56103d0366004614eed565b6112bc565b6102c56103e3366004614eed565b6112d0565b600e546102c5565b6104036103fe366004614eed565b611334565b604080519283526020830191909152016102cf565b6102c5610426366004614e90565b601360209081526000928352604080842090915290825290205481565b6011546102c59081565b61039261045b366004614f08565b6113eb565b61039261046e366004614e90565b611802565b6104ee610481366004614eed565b600c60205260009081526040902080546001820154600283015460038401546004850154600586015460068701546007880154600889015460099099015460ff90981698969773ffffffffffffffffffffffffffffffffffffffff9687169795969495939492939192168a565b604080519a15158b5260208b019990995273ffffffffffffffffffffffffffffffffffffffff978816988a01989098526060890195909552608088019390935260a087019190915260c086015260e085015261010084015216610120820152610140016102cf565b610403610564366004614eed565b611983565b6102c5600d5481565b610392610580366004614ec3565b6119a2565b600f546102c59081565b61039261059d366004614eed565b611e47565b6104036105b0366004614e90565b600a6020908152600092835260408084209091529082529020805460019091015482565b6010546102c59081565b6102c56105ec366004614e90565b73ffffffffffffffffffffffffffffffffffffffff9182166000908152600a6020908152604080832093909416825291909152205490565b6102c560055481565b61033e61063b366004614f4b565b611fb9565b6102c560165481565b610392610657366004614f64565b611ff0565b61039261066a366004614eed565b612307565b61068261067d366004614eed565b612410565b604051905181526020016102cf565b61039261069f366004614f86565b612587565b6102c56106b2366004614fd1565b612cf5565b6102c560155481565b6103926106ce366004614ec3565b612d25565b6103926106e1366004614ec3565b6132e7565b60145461033e9073ffffffffffffffffffffffffffffffffffffffff1681565b60075461033e9073ffffffffffffffffffffffffffffffffffffffff1681565b610403610734366004614e90565b600b6020908152600092835260408084209091529082529020805460019091015482565b73ffffffffffffffffffffffffffffffffffffffff8082166000818152600c602090815260408083209487168352600b8252808320938352929052908120600883015460078401546001850154939485948594919391926107ba92914361384f565b93506107cf8160000154826001015486612cf5565b9450505050505b92915050565b73ffffffffffffffffffffffffffffffffffffffff8082166000818152600c602090815260408083209487168352600a8252808320938352929052908120600583015460048401546001850154939485948594919391926107ba92914361384f565b60075460009073ffffffffffffffffffffffffffffffffffffffff1633146108ed576040517f08c379a000000000000000000000000000000000000000000000000000000000815260206004820152602360248201527f4551554954595f5749544844524157414c5f4d4f44454c5f4f574e45525f434860448201527f45434b000000000000000000000000000000000000000000000000000000000060648201526084015b60405180910390fd5b73ffffffffffffffffffffffffffffffffffffffff831661096a576040517f08c379a000000000000000000000000000000000000000000000000000000000815260206004820152601b60248201527f41737365742063616e2774206265207a65726f2061646472657373000000000060448201526064016108e4565b60008061097685611334565b9150915060008282610987886138c2565b610991919061502c565b61099b9190615044565b9050808510610a06576040517f08c379a000000000000000000000000000000000000000000000000000000000815260206004820152601b60248201527f4551554954595f494e53554646494349454e545f42414c414e4345000000000060448201526064016108e4565b600754610a2b90879073ffffffffffffffffffffffffffffffffffffffff1687613964565b73ffffffffffffffffffffffffffffffffffffffff8087166000908152600c60205260409020600201541663517cf73e8787610a66826138c2565b610a709190615044565b73ffffffffffffffffffffffffffffffffffffffff8a81166000908152600c60205260409081902060030154905160e086901b7fffffffff000000000000000000000000000000000000000000000000000000001681529390911660048401526024830191909152604482015260640160206040518083038186803b158015610af857600080fd5b505afa158015610b0c573d6000803e3d6000fd5b505050506040513d601f19601f82011682018060405250810190610b30919061505b565b73ffffffffffffffffffffffffffffffffffffffff8088166000908152600c6020526040902060048101929092556002909101541663ed2b5a3c8787610b75826138c2565b610b7f9190615044565b73ffffffffffffffffffffffffffffffffffffffff8a81166000908152600c60205260409081902060060154905160e086901b7fffffffff000000000000000000000000000000000000000000000000000000001681529390911660048401526024830191909152604482015260640160206040518083038186803b158015610c0757600080fd5b505afa158015610c1b573d6000803e3d6000fd5b505050506040513d601f19601f82011682018060405250810190610c3f919061505b565b73ffffffffffffffffffffffffffffffffffffffff8781166000818152600c6020908152604091829020600790810195909555935481519283529382018590528101889052911660608201527fcb9f0cda23d6b563fc8e14d8fdada71d2ab7dadccc2e26dc353bf20ea8c5b8529060800160405180910390a150600195945050505050565b6000600160166000828254610cd9919061502c565b909155505060165460125460ff1615610d4e576040517f08c379a000000000000000000000000000000000000000000000000000000000815260206004820152600f60248201527f436f6e747261637420706175736564000000000000000000000000000000000060448201526064016108e4565b610d588433613aaa565b610d60614b8c565b73ffffffffffffffffffffffffffffffffffffffff85166000818152600c60209081526040808320338452600b8352818420948452939091529020815460ff16610e06576040517f08c379a000000000000000000000000000000000000000000000000000000000815260206004820152601460248201527f4d41524b45545f4e4f545f535550504f5254454400000000000000000000000060448201526064016108e4565b610e1e8260080154836007015484600101544361384f565b80845281546001830154610e3192612cf5565b6020840152610e3f86613b5d565b60408401819052600090610e54908890615044565b905083604001518460200151610e6a919061502c565b60608501819052825460068501549091610e839161502c565b610e8d9190615044565b6080850152610e9b33613bc3565b61018086018190526101608601919091525115610f14576040517f08c379a000000000000000000000000000000000000000000000000000000000815260206004820181905260248201527f424f52524f575f4143434f554e545f53484f525446414c4c5f50524553454e5460448201526064016108e4565b610f22888560400151613ca6565b6101a08501819052610160850151905190511015610fc2576040517f08c379a000000000000000000000000000000000000000000000000000000000815260206004820152602160248201527f424f52524f575f414d4f554e545f4c49515549444954595f53484f525446414c60448201527f4c0000000000000000000000000000000000000000000000000000000000000060648201526084016108e4565b610fcb886138c2565b60a08501819052610fdd908890615044565b60c0850152600583015460048401546001850154610ffd9291904361384f565b60e0850152600283015460c085015160808601516040517f517cf73e00000000000000000000000000000000000000000000000000000000815273ffffffffffffffffffffffffffffffffffffffff8c811660048301526024820193909352604481019190915291169063517cf73e9060640160206040518083038186803b15801561108857600080fd5b505afa15801561109c573d6000803e3d6000fd5b505050506040513d601f19601f820116820180604052508101906110c0919061505b565b610100850152600283015460c085015160808601516040517fed2b5a3c00000000000000000000000000000000000000000000000000000000815273ffffffffffffffffffffffffffffffffffffffff8c811660048301526024820193909352604481019190915291169063ed2b5a3c9060640160206040518083038186803b15801561114c57600080fd5b505afa158015611160573d6000803e3d6000fd5b505050506040513d601f19601f82011682018060405250810190611184919061505b565b61012085018190524360018086019190915560808601516006860155610100860151600486015560e0860151600586015560078501919091558451600885018190558354610140870152606086015184559083015533600090815260136020908152604080832073ffffffffffffffffffffffffffffffffffffffff8c1684529091528120805483929061121990849061502c565b9091555061122a9050883389613964565b6101408401516040808601518454825133815273ffffffffffffffffffffffffffffffffffffffff8d1660208201528084018c90526060810194909452608084019190915260a0830152517f6b69190ebbb96f162b04dc222ef96416f9dca9a415b6dd183c79424501113e189181900360c00190a1600195505050505060165481146112b557600080fd5b5092915050565b6000806112c883612410565b519392505050565b60008060006112de84613bc3565b915091506112eb82511590565b1561132b576112f981613d74565b611323907fffffffffffffffffffffffffffffffffffffffffffffffffffffffffffffffff615074565b949350505050565b61132382613d74565b6000806000806000806000600c60008973ffffffffffffffffffffffffffffffffffffffff1673ffffffffffffffffffffffffffffffffffffffff16815260200190815260200160002090506113988160050154826004015483600101544361384f565b94506113ad8160030154826005015487612cf5565b93506113c78160080154826007015483600101544361384f565b92506113dc8160060154826008015485612cf5565b93989397509295505050505050565b60075460009073ffffffffffffffffffffffffffffffffffffffff16331461146f576040517f08c379a000000000000000000000000000000000000000000000000000000000815260206004820152600a60248201527f4f6e6c792061646d696e0000000000000000000000000000000000000000000060448201526064016108e4565b73ffffffffffffffffffffffffffffffffffffffff83166114ec576040517f08c379a000000000000000000000000000000000000000000000000000000000815260206004820152601860248201527f52617465204d6f64656c2063616e6e6f7420626520307830000000000000000060448201526064016108e4565b600e5460101161157e576040517f08c379a000000000000000000000000000000000000000000000000000000000815260206004820152602b60248201527f457863656564696e6720746865206d6178206e756d626572206f66206d61726b60448201527f65747320616c6c6f77656400000000000000000000000000000000000000000060648201526084016108e4565b600061158985612410565b905061159481511590565b156115fb576040517f08c379a000000000000000000000000000000000000000000000000000000000815260206004820152601560248201527f4e6f74206120737570706f72746564206173736574000000000000000000000060448201526064016108e4565b73ffffffffffffffffffffffffffffffffffffffff8581166000908152600c602052604081206002810180547fffffffffffffffffffffffff0000000000000000000000000000000000000000908116898616179091556009909101805490911692861692909217909155600d80546001929061167990849061502c565b90915550611688905085613d8c565b6014546040517fde1f443000000000000000000000000000000000000000000000000000000000815273ffffffffffffffffffffffffffffffffffffffff878116600483015285811660248301529091169063de1f443090604401600060405180830381600087803b1580156116fd57600080fd5b505af1158015611711573d6000803e3d6000fd5b50505073ffffffffffffffffffffffffffffffffffffffff86166000908152600c6020526040902080547fffffffffffffffffffffffffffffffffffffffffffffffffffffffffffffff00166001178155600501541515905061179b5760015473ffffffffffffffffffffffffffffffffffffffff86166000908152600c60205260409020600501555b73ffffffffffffffffffffffffffffffffffffffff85166000908152600c60205260409020600801546117f55760015473ffffffffffffffffffffffffffffffffffffffff86166000908152600c60205260409020600801555b60019150505b9392505050565b60075460009073ffffffffffffffffffffffffffffffffffffffff1633146118ac576040517f08c379a000000000000000000000000000000000000000000000000000000000815260206004820152602a60248201527f5345545f4d41524b45545f494e5445524553545f524154455f4d4f44454c5f4f60448201527f574e45525f434845434b0000000000000000000000000000000000000000000060648201526084016108e4565b73ffffffffffffffffffffffffffffffffffffffff8216611929576040517f08c379a000000000000000000000000000000000000000000000000000000000815260206004820152601860248201527f52617465204d6f64656c2063616e6e6f7420626520307830000000000000000060448201526064016108e4565b5073ffffffffffffffffffffffffffffffffffffffff9182166000908152600c6020526040902060020180547fffffffffffffffffffffffff00000000000000000000000000000000000000001691909216179055600190565b60008060008061199285613e79565b9051905190969095509350505050565b60006001601660008282546119b7919061502c565b909155505060165460125460ff1615611a2c576040517f08c379a000000000000000000000000000000000000000000000000000000000815260206004820152600f60248201527f436f6e747261637420706175736564000000000000000000000000000000000060448201526064016108e4565b611a368433613aaa565b611a9360405180610160016040528060008152602001600081526020016000815260200160008152602001600081526020016000815260200160008152602001600081526020016000815260200160008152602001600081525090565b73ffffffffffffffffffffffffffffffffffffffff85166000818152600c60209081526040808320338452600b8352818420948452939091529020600882015460078301546001840154611ae99291904361384f565b80845281546001830154611afc92612cf5565b6020840152600054861415611b2c57611b22611b188833614053565b84602001516140f7565b6040840152611b34565b604083018690525b82604001518360200151611b489190615044565b60608401526040830151611b5f908890339061410e565b805460608401516006840154611b75919061502c565b611b7f9190615044565b6080840152611b8d876138c2565b60a084018190526040840151611ba29161502c565b60c0840152600582015460048301546001840154611bc29291904361384f565b60e0840152600282015460c084015160808501516040517f517cf73e00000000000000000000000000000000000000000000000000000000815273ffffffffffffffffffffffffffffffffffffffff8b811660048301526024820193909352604481019190915291169063517cf73e9060640160206040518083038186803b158015611c4d57600080fd5b505afa158015611c61573d6000803e3d6000fd5b505050506040513d601f19601f82011682018060405250810190611c85919061505b565b610100840152600282015460c084015160808501516040517fed2b5a3c00000000000000000000000000000000000000000000000000000000815273ffffffffffffffffffffffffffffffffffffffff8b811660048301526024820193909352604481019190915291169063ed2b5a3c9060640160206040518083038186803b158015611d1157600080fd5b505afa158015611d25573d6000803e3d6000fd5b505050506040513d601f19601f82011682018060405250810190611d49919061505b565b61012084018190524360018085019190915560808501516006850155610100850151600485015560e085015160058501556007840191909155835160088401819055825461014086015260608501518355908201556040830151611db0908890339061432d565b611dc4873385604001518560050154614472565b6040808401516101408501518354835133815273ffffffffffffffffffffffffffffffffffffffff8c16602082015293840192909252606083015260808201527f550e7e464126359c6adc43831f011682856b177df6c49c0af6675dd2a063649d9060a0015b60405180910390a16001945050505060165481146112b557600080fd5b60075460009073ffffffffffffffffffffffffffffffffffffffff163314611ecb576040517f08c379a000000000000000000000000000000000000000000000000000000000815260206004820152600e60248201527f45787065637465642061646d696e00000000000000000000000000000000000060448201526064016108e4565b73ffffffffffffffffffffffffffffffffffffffff8216611f6e576040517f08c379a000000000000000000000000000000000000000000000000000000000815260206004820152602560248201527f526577617264436f6e74726f6c20616464726573732063616e6e6f742062652060448201527f656d70747900000000000000000000000000000000000000000000000000000060648201526084016108e4565b50601480547fffffffffffffffffffffffff00000000000000000000000000000000000000001673ffffffffffffffffffffffffffffffffffffffff92909216919091179055600190565b600e8181548110611fc957600080fd5b60009182526020909120015473ffffffffffffffffffffffffffffffffffffffff16905081565b60075460009073ffffffffffffffffffffffffffffffffffffffff163314612074576040517f08c379a000000000000000000000000000000000000000000000000000000000815260206004820152601f60248201527f5345545f5249534b5f504152414d45544552535f4f574e45525f434845434b0060448201526064016108e4565b600554831015801561208857506006548211155b61213a576040517f08c379a000000000000000000000000000000000000000000000000000000000815260206004820152605960248201527f4c69717569646174696f6e20646973636f756e74206973206d6f72652074686160448201527f6e206d617820646973636f756e74206f7220636f6c6c61746572616c2072617460648201527f696f206973206c657373207468616e206d696e20726174696f00000000000000608482015260a4016108e4565b6040805160208082018352858252825180820184528581528351808301855260055481528451928301909452600654825291929061217a84835190511090565b156121e1576040517f08c379a000000000000000000000000000000000000000000000000000000000815260206004820152601860248201527f494e56414c49445f434f4c4c41544552414c5f524154494f000000000000000060448201526064016108e4565b82518151101561224d576040517f08c379a000000000000000000000000000000000000000000000000000000000815260206004820152601c60248201527f494e56414c49445f4c49515549444154494f4e5f444953434f554e540000000060448201526064016108e4565b60408051602081019091526000815261227c846040518060200160405280670de0b6b3a7640000815250614703565b905061228b8582519051111590565b156122f2576040517f08c379a000000000000000000000000000000000000000000000000000000000815260206004820181905260248201527f494e56414c49445f434f4d42494e45445f5249534b5f504152414d455445525360448201526064016108e4565b50509151600f55516011555060019392505050565b60075460009073ffffffffffffffffffffffffffffffffffffffff16331461238b576040517f08c379a000000000000000000000000000000000000000000000000000000000815260206004820152601a60248201527f53555350454e445f4d41524b45545f4f574e45525f434845434b00000000000060448201526064016108e4565b73ffffffffffffffffffffffffffffffffffffffff82166000908152600c602052604090205460ff166123c057506001919050565b5073ffffffffffffffffffffffffffffffffffffffff166000908152600c6020526040902080547fffffffffffffffffffffffffffffffffffffffffffffffffffffffffffffff00169055600190565b60408051602081019091526000815260095473ffffffffffffffffffffffffffffffffffffffff1661249e576040517f08c379a000000000000000000000000000000000000000000000000000000000815260206004820152600e60248201527f4f7261636c65206973205a65726f00000000000000000000000000000000000060448201526064016108e4565b6009546040517fb3596f0700000000000000000000000000000000000000000000000000000000815273ffffffffffffffffffffffffffffffffffffffff8481166004830152600092839291169063b3596f0790602401604080518083038186803b15801561250c57600080fd5b505afa158015612520573d6000803e3d6000fd5b505050506040513d601f19601f820116820180604052508101906125449190615130565b9092509050600061255960ff83166012615044565b905061256681600a615286565b6125709084615292565b604080516020810190915290815295945050505050565b60125460009060ff16156125f7576040517f08c379a000000000000000000000000000000000000000000000000000000000815260206004820152600f60248201527f436f6e747261637420706175736564000000000000000000000000000000000060448201526064016108e4565b6126018386614738565b61260b8333614738565b6126158486613aaa565b61261d614c36565b73ffffffffffffffffffffffffffffffffffffffff8087168083528682166020808501829052336040808701918252898616606088018190526000858152600c8552828120828252838220888352600b8752848320978352968652838220978252600a80875284832084845287528483209551909916825297855282812091815293529091209192916126af89612410565b6103808701526126be8a612410565b866103a001819052506126df8560080154866007015487600101544361384f565b60808701819052835460018501546126f692612cf5565b6101008701526005840154600485015460018601546127179291904361384f565b60e087018190528254600184015461272e92612cf5565b6101c08701528054600182015460e088015161274b929190612cf5565b61020087015281546101c08701516003860154612768919061502c565b6127729190615044565b61024087018190528154610200880151909161278e919061502c565b6127989190615044565b6102408701526103a08601516103808701516101c08801516127bb9291906147b9565b610300870152845460ff161561281a576127db8b876103a001518c614865565b6102e08701526101008601516103008701516127f791906140f7565b61032087018190526102e087015161280f91906140f7565b610320870152612835565b61282e8661010001518761030001516140f7565b6103208701525b60005488141561285057610320860151610340870152612859565b61034086018890525b856103200151866103400151106128cc576040517f08c379a000000000000000000000000000000000000000000000000000000000815260206004820152601f60248201527f4c49515549444154455f434c4f53455f414d4f554e545f544f4f5f484947480060448201526064016108e4565b6128e6866103a00151876103800151886103400151614971565b6103608701526040860151610340870151612902918c9161410e565b8561034001518661010001516129189190615044565b61012087018190528354600687015490916129329161502c565b61293c9190615044565b61014087015261294b8a6138c2565b61026087018190526103408701516129629161502c565b6102808701526005850154600486015460018701546129839291904361384f565b60a087015260028501546102808701516101408801516040517f517cf73e00000000000000000000000000000000000000000000000000000000815273ffffffffffffffffffffffffffffffffffffffff8e811660048301526024820193909352604481019190915291169063517cf73e9060640160206040518083038186803b158015612a1057600080fd5b505afa158015612a24573d6000803e3d6000fd5b505050506040513d601f19601f82011682018060405250810190612a48919061505b565b6102a087015260028501546102808701516101408801516040517fed2b5a3c00000000000000000000000000000000000000000000000000000000815273ffffffffffffffffffffffffffffffffffffffff8e811660048301526024820193909352604481019190915291169063ed2b5a3c9060640160206040518083038186803b158015612ad657600080fd5b505afa158015612aea573d6000803e3d6000fd5b505050506040513d601f19601f82011682018060405250810190612b0e919061505b565b6102c0870152600884015460078501546001860154612b2f9291904361384f565b60c08701526103608601516101c0870151612b4a9190615044565b6101e0870152610360860151610200870151612b66919061502c565b610220870181905243600180880182905561014089015160068901556102a0890151600489015560a08901516005808a01919091556102c08a015160078a015560808a01516008808b01829055898401949094556102408b015160038a015560e08b015191890182905560c08b01519389019390935586546101608b01526101208a015187558682019290925584546101808a01526101e0890151855584810182905583546101a08a0152918355908201556040860151610340870151612c2e918c9161432d565b612c478a87604001518861034001518960a00151614472565b85516020808801516101008901516103408a01516040808c01516060808e01516103608f0151845173ffffffffffffffffffffffffffffffffffffffff9a8b168152978a1698880198909852928601949094529284019190915290841660808301529290921660a083015260c08201527fea875c193740bd26dcfcd2e8dc9ac63cc31ee98ac4c001575746d75c30bab5b39060e00160405180910390a15060019a9950505050505050505050565b600083612d04575060006117fb565b6000612d108386615292565b9050612d1c84826152cf565b95945050505050565b6000600160166000828254612d3a919061502c565b909155505060165460125460ff1615612daf576040517f08c379a000000000000000000000000000000000000000000000000000000000815260206004820152600f60248201527f436f6e747261637420706175736564000000000000000000000000000000000060448201526064016108e4565b73ffffffffffffffffffffffffffffffffffffffff8416612e2c576040517f08c379a000000000000000000000000000000000000000000000000000000000815260206004820152601b60248201527f41737365742063616e2774206265207a65726f2061646472657373000000000060448201526064016108e4565b612e368433614738565b73ffffffffffffffffffffffffffffffffffffffff84166000908152600c60205260409020805460ff16612ec6576040517f08c379a000000000000000000000000000000000000000000000000000000000815260206004820152601460248201527f4d41524b45545f4e4f545f535550504f5254454400000000000000000000000060448201526064016108e4565b336000908152600a6020908152604080832073ffffffffffffffffffffffffffffffffffffffff891684528252808320815161014081018352848152928301849052908201839052606082018390526080820183905260a0820183905260c0820183905260e082018390526101008201839052610120820192909252612f4d87338861410e565b612f658360050154846004015485600101544361384f565b6020820181905282546001840154612f7c92612cf5565b60408201819052612f8e90879061502c565b60608201819052825460038501549091612fa79161502c565b612fb19190615044565b6080820152612fbf876138c2565b60a08201819052612fd190879061502c565b60c08201819052600284015460068501546040517f517cf73e00000000000000000000000000000000000000000000000000000000815273ffffffffffffffffffffffffffffffffffffffff8b811660048301526024820194909452604481019190915291169063517cf73e9060640160206040518083038186803b15801561305957600080fd5b505afa15801561306d573d6000803e3d6000fd5b505050506040513d601f19601f82011682018060405250810190613091919061505b565b60e08201526008830154600784015460018501546130b19291904361384f565b610100820152600283015460c082015160068501546040517fed2b5a3c00000000000000000000000000000000000000000000000000000000815273ffffffffffffffffffffffffffffffffffffffff8b811660048301526024820193909352604481019190915291169063ed2b5a3c9060640160206040518083038186803b15801561313d57600080fd5b505afa158015613151573d6000803e3d6000fd5b505050506040513d601f19601f82011682018060405250810190613175919061505b565b6101208201819052436001808601919091556080830151600386015560e083015160048601556020830151600586018190556007860192909255610100830151600886015583548352606083015184558301556131d387338861432d565b600983015473ffffffffffffffffffffffffffffffffffffffff166340c10f19336131ff60028a6152cf565b6040517fffffffff0000000000000000000000000000000000000000000000000000000060e085901b16815273ffffffffffffffffffffffffffffffffffffffff90921660048301526024820152604401600060405180830381600087803b15801561326a57600080fd5b505af115801561327e573d6000803e3d6000fd5b5050825184546040805133815273ffffffffffffffffffffffffffffffffffffffff8d1660208201529081018b9052606081019290925260808201527f4ea5606ff36959d6c1a24f693661d800a98dd80c0fb8469a665d2ec7e8313c21925060a0019050611e2a565b60006001601660008282546132fc919061502c565b909155505060165460125460ff1615613371576040517f08c379a000000000000000000000000000000000000000000000000000000000815260206004820152600f60248201527f436f6e747261637420706175736564000000000000000000000000000000000060448201526064016108e4565b61337b8433614738565b73ffffffffffffffffffffffffffffffffffffffff84166000818152600c60209081526040808320338452600a83528184209484529390915290206133be614d74565b6133c733613bc3565b6101a08301526101808201526005830154600484015460018501546133ee9291904361384f565b604082018190528254600184015461340592612cf5565b606082015260005486141561343957610180810151516101608201819052606082015161343291906140f7565b815261343d565b8581525b613446876138c2565b60c08201819052815161345891615044565b60e08201528051606082015161346e9190615044565b60808201526101a08101515115613507576040517f08c379a000000000000000000000000000000000000000000000000000000000815260206004820152602260248201527f57495448445241575f4143434f554e545f53484f525446414c4c5f505245534560448201527f4e5400000000000000000000000000000000000000000000000000000000000060648201526084016108e4565b613515878260000151614a06565b6101c082018190526101808201519051905110156135b5576040517f08c379a000000000000000000000000000000000000000000000000000000000815260206004820152602360248201527f57495448445241575f414d4f554e545f4c49515549444954595f53484f52544660448201527f414c4c000000000000000000000000000000000000000000000000000000000060648201526084016108e4565b8154608082015160038501546135cb919061502c565b6135d59190615044565b60a0820152600283015460e082015160068501546040517f517cf73e00000000000000000000000000000000000000000000000000000000815273ffffffffffffffffffffffffffffffffffffffff8b811660048301526024820193909352604481019190915291169063517cf73e9060640160206040518083038186803b15801561366057600080fd5b505afa158015613674573d6000803e3d6000fd5b505050506040513d601f19601f82011682018060405250810190613698919061505b565b6101008201526008830154600784015460018501546136b99291904361384f565b610120820152600283015460e082015160068501546040517fed2b5a3c00000000000000000000000000000000000000000000000000000000815273ffffffffffffffffffffffffffffffffffffffff8b811660048301526024820193909352604481019190915291169063ed2b5a3c9060640160206040518083038186803b15801561374557600080fd5b505afa158015613759573d6000803e3d6000fd5b505050506040513d601f19601f8201168201806040525081019061377d919061505b565b61014082018190524360018086019190915560a08301516003860155610100830151600486015560408301516005860181905560078601929092556101208301516008860155835460208401526080830151845583015580516137e39088903390613964565b805160208083015184546040805133815273ffffffffffffffffffffffffffffffffffffffff8d1694810194909452830193909352606082015260808101919091527f56559a17e3aa8ea4b05036eaf31aeaf9fb71fc1b8865b6389647639940bed0309060a001611e2a565b60008061385c8484615044565b9050600061387860405180602001604052808881525083614a98565b9050600061389c826040518060200160405280670de0b6b3a7640000815250614703565b905060006138aa828a614a98565b90506138b581613d74565b9998505050505050505050565b6040517f70a08231000000000000000000000000000000000000000000000000000000008152306004820152600090829073ffffffffffffffffffffffffffffffffffffffff8216906370a082319060240160206040518083038186803b15801561392c57600080fd5b505afa158015613940573d6000803e3d6000fd5b505050506040513d601f19601f820116820180604052508101906117fb919061505b565b6040517fa9059cbb00000000000000000000000000000000000000000000000000000000815273ffffffffffffffffffffffffffffffffffffffff838116600483015260248201839052849160009183169063a9059cbb90604401600060405180830381600087803b1580156139d957600080fd5b505af11580156139ed573d6000803e3d6000fd5b505050503d60008114613a075760208114613a2f57600080fd5b7fffffffffffffffffffffffffffffffffffffffffffffffffffffffffffffffff9150613a3b565b60206000803e60005191505b5080613aa3576040517f08c379a000000000000000000000000000000000000000000000000000000000815260206004820152601960248201527f544f4b454e5f5452414e534645525f4f55545f4641494c45440000000000000060448201526064016108e4565b5050505050565b60145473ffffffffffffffffffffffffffffffffffffffff16613acb575050565b6014546040517f0ecfd9f400000000000000000000000000000000000000000000000000000000815273ffffffffffffffffffffffffffffffffffffffff8481166004830152838116602483015290911690630ecfd9f4906044015b600060405180830381600087803b158015613b4157600080fd5b505af1158015613b55573d6000803e3d6000fd5b505050505050565b604080516020810190915260105490819052600090613b7a575090565b604080516020808201835260105482528251908101909252670de0b6b3a76400008252600091613baa9190614703565b90506000613bb88285614a98565b905061132381613d74565b604080516020810190915260008152604080516020810190915260008152600080613bed85613e79565b91509150613c076040518060200160405280600081525090565b604080516020808201835285518252825180820184526000815283518083018552600f5481528451928301909452855182529192613c4491614ab5565b9050613c5282825190511090565b15613c7e57613c618183614b24565b604080516020810190915260008152999098509650505050505050565b613c888282614b24565b60408051602081019091526000815290999098509650505050505050565b604080516020810190915260008152604080516020810190915260008152604080516020810190915260008152613cdc85612410565b9150613ce782511590565b15613d4e576040517f08c379a000000000000000000000000000000000000000000000000000000000815260206004820152601360248201527f4d495353494e475f41535345545f50524943450000000000000000000000000060448201526064016108e4565b6040805160208101909152600f548152613d689083614ab5565b9050612d1c8185614a98565b80516000906107d690670de0b6b3a7640000906152cf565b60005b600e54811015613e01578173ffffffffffffffffffffffffffffffffffffffff16600e8281548110613dc357613dc361530a565b60009182526020909120015473ffffffffffffffffffffffffffffffffffffffff161415613def575050565b80613df981615339565b915050613d8f565b50600e80546001810182556000919091527fbb7b4a454dc3493923482f07822329ed19e8244eff582cc204f8554c3620c3fd0180547fffffffffffffffffffffffff00000000000000000000000000000000000000001673ffffffffffffffffffffffffffffffffffffffff92909216919091179055565b604080516020810190915260008152604080516020810190915260008152613e9f614dea565b6040805160208082018352600080835260e08501929092528251808201909352818352610120840192909252600e54918301919091525b816020015181101561403d57600e8181548110613ef557613ef561530a565b600091825260208083209091015473ffffffffffffffffffffffffffffffffffffffff9081168086528352600c82526040808420898316808652600a85528286208851851687528552828620908652600b85528286208851909416865292909352909220825491929115613fc057613f7b8360050154846004015485600101544361384f565b6040860181905282546001840154613f9292612cf5565b606086018190528551613fa491614a06565b60c0860181905260e0860151613fba9190614703565b60e08601525b80541561402757613fdf8360080154846007015485600101544361384f565b6080860181905281546001830154613ff692612cf5565b60a08601819052855161400891614a06565b61010086018190526101208601516140209190614703565b6101208601525b505050808061403590615339565b915050613ed6565b508060e001518161012001519250925050915091565b6040517f70a0823100000000000000000000000000000000000000000000000000000000815273ffffffffffffffffffffffffffffffffffffffff828116600483015260009184918216906370a082319060240160206040518083038186803b1580156140bf57600080fd5b505afa1580156140d3573d6000803e3d6000fd5b505050506040513d601f19601f82011682018060405250810190611323919061505b565b6000818310156141085750816107d6565b50919050565b6040517fdd62ed3e00000000000000000000000000000000000000000000000000000000815273ffffffffffffffffffffffffffffffffffffffff83811660048301523060248301528491839183169063dd62ed3e9060440160206040518083038186803b15801561417f57600080fd5b505afa158015614193573d6000803e3d6000fd5b505050506040513d601f19601f820116820180604052508101906141b7919061505b565b1161421e576040517f08c379a000000000000000000000000000000000000000000000000000000000815260206004820152601c60248201527f544f4b454e5f494e53554646494349454e545f414c4c4f57414e43450000000060448201526064016108e4565b6040517f70a0823100000000000000000000000000000000000000000000000000000000815273ffffffffffffffffffffffffffffffffffffffff84811660048301528391908316906370a082319060240160206040518083038186803b15801561428857600080fd5b505afa15801561429c573d6000803e3d6000fd5b505050506040513d601f19601f820116820180604052508101906142c0919061505b565b11614327576040517f08c379a000000000000000000000000000000000000000000000000000000000815260206004820152601a60248201527f544f4b454e5f494e53554646494349454e545f42414c414e434500000000000060448201526064016108e4565b50505050565b6040517f23b872dd00000000000000000000000000000000000000000000000000000000815273ffffffffffffffffffffffffffffffffffffffff83811660048301523060248301526044820183905284916000918316906323b872dd90606401600060405180830381600087803b1580156143a857600080fd5b505af11580156143bc573d6000803e3d6000fd5b505050503d600081146143d657602081146143fe57600080fd5b7fffffffffffffffffffffffffffffffffffffffffffffffffffffffffffffffff915061440a565b60206000803e60005191505b5080613aa3576040517f08c379a000000000000000000000000000000000000000000000000000000000815260206004820152601560248201527f544f4b454e5f5452414e534645525f4641494c4544000000000000000000000060448201526064016108e4565b60075461449690859073ffffffffffffffffffffffffffffffffffffffff16614738565b73ffffffffffffffffffffffffffffffffffffffff808416600090815260136020908152604080832093881683529290529081205415613aa35773ffffffffffffffffffffffffffffffffffffffff808516600090815260136020908152604080832093891683529290522054831015614511575081614546565b5073ffffffffffffffffffffffffffffffffffffffff8084166000908152601360209081526040808320938816835292905220545b60075473ffffffffffffffffffffffffffffffffffffffff9081166000908152600a60209081526040808320898516808552908352818420825161014081018452858152808501869052808401869052606081018690526080810186905260a0810186905260c0810186905260e0810186905261010081018690526101208101869052958a1685526013845282852091855292528220805491939285926145ee908490615044565b909155505081546001830154614605919086612cf5565b6040820181905261461790849061502c565b60608201819052825473ffffffffffffffffffffffffffffffffffffffff89166000908152600c602052604090206003015490916146549161502c565b61465e9190615044565b608082810182905273ffffffffffffffffffffffffffffffffffffffff8981166000818152600c6020908152604091829020600301959095558654808752606080880151808a5560018a018c90556007548451961686529685019390935290830188905290820152908101919091527fa4317c2dd8ca95b5d74e51fdd145f7beb968acdba1579f140fdf7113789f16819060a00160405180910390a150505050505050565b604080516020810190915260008152815183516000916147229161502c565b6040805160208101909152908152949350505050565b60145473ffffffffffffffffffffffffffffffffffffffff16614759575050565b6014546040517f3de6d50400000000000000000000000000000000000000000000000000000000815273ffffffffffffffffffffffffffffffffffffffff8481166004830152838116602483015290911690633de6d50490604401613b27565b60006147d16040518060200160405280600081525090565b6040805160208101909152600081526040805160208101909152600081526040805160208101909152600081526040805160208082018352670de0b6b3a764000082528251908101909252601154825261482a91614703565b93506148368787614a98565b92506148428489614ab5565b915061484e8383614b43565b905061485981613d74565b98975050505050505050565b600061487d6040518060200160405280600081525090565b604080516020808201835260008083528351808301855281815284518084018652828152855180850187528381528651948501909652918352929390916148c38a613bc3565b6040805160208082018352600f548252825190810190925260115482529298509096506148f09190614b24565b9350614912846040518060200160405280670de0b6b3a7640000815250614b24565b925061491e8984614ab5565b9150600061492c8b8a610758565b9050600061494a604051806020016040528060155481525083614a98565b90506149568185614b43565b925061496183613d74565b9c9b505050505050505050505050565b60006149896040518060200160405280600081525090565b6040805160208101909152600081526040805160208101909152600081526040805160208101909152600081526040805160208082018352670de0b6b3a76400008252825190810190925260115482526149e291614703565b93506149ee8885614ab5565b92506149fa8387614a98565b915061484e8288614b43565b6040805160208101909152600081526000614a2084612410565b9050614a2b81511590565b15614a92576040517f08c379a000000000000000000000000000000000000000000000000000000000815260206004820152601360248201527f4d495353494e475f41535345545f50524943450000000000000000000000000060448201526064016108e4565b61132381845b604080516020810190915260008082528351614722908490615292565b60408051602081019091526000815281518351600091614ad491615292565b9050600081614aec6002670de0b6b3a76400006152cf565b614af6919061502c565b90506000614b0c670de0b6b3a7640000836152cf565b60408051602081019091529081529695505050505050565b6040805160208101909152600081528151835160009161472291615044565b604080516020810190915260008152825182516117fb91906040805160208101909152600081526000614b7e670de0b6b3a764000085615292565b9050600061257084836152cf565b604051806101c001604052806000815260200160008152602001600081526020016000815260200160008152602001600081526020016000815260200160008152602001600081526020016000815260200160008152602001614bfb6040518060200160405280600081525090565b8152602001614c166040518060200160405280600081525090565b8152602001614c316040518060200160405280600081525090565b905290565b604051806103c00160405280600073ffffffffffffffffffffffffffffffffffffffff168152602001600073ffffffffffffffffffffffffffffffffffffffff168152602001600073ffffffffffffffffffffffffffffffffffffffff168152602001600073ffffffffffffffffffffffffffffffffffffffff168152602001600081526020016000815260200160008152602001600081526020016000815260200160008152602001600081526020016000815260200160008152602001600081526020016000815260200160008152602001600081526020016000815260200160008152602001600081526020016000815260200160008152602001600081526020016000815260200160008152602001600081526020016000815260200160008152602001614c166040518060200160405280600081525090565b604051806101e00160405280600081526020016000815260200160008152602001600081526020016000815260200160008152602001600081526020016000815260200160008152602001600081526020016000815260200160008152602001614bfb6040518060200160405280600081525090565b604051806101400160405280600073ffffffffffffffffffffffffffffffffffffffff1681526020016000815260200160008152602001600081526020016000815260200160008152602001614e4c6040518060200160405280600081525090565b8152602001614bfb6040518060200160405280600081525090565b803573ffffffffffffffffffffffffffffffffffffffff81168114614e8b57600080fd5b919050565b60008060408385031215614ea357600080fd5b614eac83614e67565b9150614eba60208401614e67565b90509250929050565b60008060408385031215614ed657600080fd5b614edf83614e67565b946020939093013593505050565b600060208284031215614eff57600080fd5b6117fb82614e67565b600080600060608486031215614f1d57600080fd5b614f2684614e67565b9250614f3460208501614e67565b9150614f4260408501614e67565b90509250925092565b600060208284031215614f5d57600080fd5b5035919050565b60008060408385031215614f7757600080fd5b50508035926020909101359150565b60008060008060808587031215614f9c57600080fd5b614fa585614e67565b9350614fb360208601614e67565b9250614fc160408601614e67565b9396929550929360600135925050565b600080600060608486031215614fe657600080fd5b505081359360208301359350604090920135919050565b7f4e487b7100000000000000000000000000000000000000000000000000000000600052601160045260246000fd5b6000821982111561503f5761503f614ffd565b500190565b60008282101561505657615056614ffd565b500390565b60006020828403121561506d57600080fd5b5051919050565b60007f7fffffffffffffffffffffffffffffffffffffffffffffffffffffffffffffff6000841360008413858304851182821616156150b5576150b5614ffd565b7f800000000000000000000000000000000000000000000000000000000000000060008712868205881281841616156150f0576150f0614ffd565b6000871292508782058712848416161561510c5761510c614ffd565b8785058712818416161561512257615122614ffd565b505050929093029392505050565b6000806040838503121561514357600080fd5b82519150602083015160ff8116811461515b57600080fd5b809150509250929050565b600181815b808511156151bf57817fffffffffffffffffffffffffffffffffffffffffffffffffffffffffffffffff048211156151a5576151a5614ffd565b808516156151b257918102915b93841c939080029061516b565b509250929050565b6000826151d6575060016107d6565b816151e3575060006107d6565b81600181146151f957600281146152035761521f565b60019150506107d6565b60ff84111561521457615214614ffd565b50506001821b6107d6565b5060208310610133831016604e8410600b8410161715615242575081810a6107d6565b61524c8383615166565b807fffffffffffffffffffffffffffffffffffffffffffffffffffffffffffffffff0482111561527e5761527e614ffd565b029392505050565b60006117fb83836151c7565b6000817fffffffffffffffffffffffffffffffffffffffffffffffffffffffffffffffff04831182151516156152ca576152ca614ffd565b500290565b600082615305577f4e487b7100000000000000000000000000000000000000000000000000000000600052601260045260246000fd5b500490565b7f4e487b7100000000000000000000000000000000000000000000000000000000600052603260045260246000fd5b60007fffffffffffffffffffffffffffffffffffffffffffffffffffffffffffffffff82141561536b5761536b614ffd565b506001019056fea2646970667358221220ef3ee2bcf04dfec6dfc1df6d9b2172c2ea5d1b30e30092e9cfbf5c81d4dbd91b64736f6c63430008090033",
  "linkReferences": {},
  "deployedLinkReferences": {}
}