{
  "_format": "hh-sol-artifact-1",
  "contractName": "RateModel",
  "sourceName": "contracts/vaults/RateModel.sol",
  "abi": [
    {
      "inputs": [
        {
          "internalType": "uint256",
          "name": "minRate_",
          "type": "uint256"
        },
        {
          "internalType": "uint256",
          "name": "healthyMinUR_",
          "type": "uint256"
        },
        {
          "internalType": "uint256",
          "name": "healthyMinRate_",
          "type": "uint256"
        },
        {
          "internalType": "uint256",
          "name": "maxRate_",
          "type": "uint256"
        },
        {
          "internalType": "uint256",
          "name": "healthyMaxUR_",
          "type": "uint256"
        },
        {
          "internalType": "uint256",
          "name": "healthyMaxRate_",
          "type": "uint256"
        }
      ],
      "stateMutability": "nonpayable",
      "type": "constructor"
    },
    {
      "anonymous": false,
      "inputs": [
        {
          "indexed": false,
          "internalType": "uint256",
          "name": "oldBlocksPerYear",
          "type": "uint256"
        },
        {
          "indexed": false,
          "internalType": "uint256",
          "name": "newBlocksPerYear",
          "type": "uint256"
        }
      ],
      "name": "BlocksPerYearUpdated",
      "type": "event"
    },
    {
      "anonymous": false,
      "inputs": [
        {
          "indexed": true,
          "internalType": "address",
          "name": "owner",
          "type": "address"
        },
        {
          "indexed": true,
          "internalType": "address",
          "name": "newOwner",
          "type": "address"
        }
      ],
      "name": "OwnerUpdate",
      "type": "event"
    },
    {
      "inputs": [],
      "name": "acceptOwnership",
      "outputs": [],
      "stateMutability": "nonpayable",
      "type": "function"
    },
    {
      "inputs": [],
      "name": "blocksPerYear",
      "outputs": [
        {
          "internalType": "uint256",
          "name": "",
          "type": "uint256"
        }
      ],
      "stateMutability": "view",
      "type": "function"
    },
    {
      "inputs": [
        {
          "internalType": "uint256",
          "name": "_blocksPerYear",
          "type": "uint256"
        }
      ],
      "name": "changeBlocksPerYear",
      "outputs": [],
      "stateMutability": "nonpayable",
      "type": "function"
    },
    {
      "inputs": [
        {
          "internalType": "uint256",
          "name": "minRate_",
          "type": "uint256"
        },
        {
          "internalType": "uint256",
          "name": "healthyMinUR_",
          "type": "uint256"
        },
        {
          "internalType": "uint256",
          "name": "healthyMinRate_",
          "type": "uint256"
        },
        {
          "internalType": "uint256",
          "name": "maxRate_",
          "type": "uint256"
        },
        {
          "internalType": "uint256",
          "name": "healthyMaxUR_",
          "type": "uint256"
        },
        {
          "internalType": "uint256",
          "name": "healthyMaxRate_",
          "type": "uint256"
        }
      ],
      "name": "changeRates",
      "outputs": [],
      "stateMutability": "nonpayable",
      "type": "function"
    },
    {
      "inputs": [
        {
          "internalType": "address",
          "name": "asset",
          "type": "address"
        },
        {
          "internalType": "uint256",
          "name": "cash",
          "type": "uint256"
        },
        {
          "internalType": "uint256",
          "name": "borrows",
          "type": "uint256"
        }
      ],
      "name": "getBorrowRate",
      "outputs": [
        {
          "internalType": "uint256",
          "name": "",
          "type": "uint256"
        }
      ],
      "stateMutability": "view",
      "type": "function"
    },
    {
      "inputs": [
        {
          "internalType": "address",
          "name": "_asset",
          "type": "address"
        },
        {
          "internalType": "uint256",
          "name": "cash",
          "type": "uint256"
        },
        {
          "internalType": "uint256",
          "name": "borrows",
          "type": "uint256"
        }
      ],
      "name": "getSupplyRate",
      "outputs": [
        {
          "internalType": "uint256",
          "name": "",
          "type": "uint256"
        }
      ],
      "stateMutability": "view",
      "type": "function"
    },
    {
      "inputs": [],
      "name": "newOwner",
      "outputs": [
        {
          "internalType": "address",
          "name": "",
          "type": "address"
        }
      ],
      "stateMutability": "view",
      "type": "function"
    },
    {
      "inputs": [],
      "name": "owner",
      "outputs": [
        {
          "internalType": "address",
          "name": "",
          "type": "address"
        }
      ],
      "stateMutability": "view",
      "type": "function"
    },
    {
      "inputs": [
        {
          "internalType": "address",
          "name": "newOwner_",
          "type": "address"
        }
      ],
      "name": "transferOwnership",
      "outputs": [],
      "stateMutability": "nonpayable",
      "type": "function"
    }
  ],
  "bytecode": "0x60806040526227ec006000556002805460ff60a01b1916601960a21b1790553480156200002b57600080fd5b50604051620018c4380380620018c48339810160408190526200004e9162000741565b828610620000b35760405162461bcd60e51b815260206004820152602760248201527f4d696e20526174652073686f756c64206265206c6573736572207468616e204d6044820152666178205261746560c81b60648201526084015b60405180910390fd5b8185106200011e5760405162461bcd60e51b815260206004820152603160248201527f6865616c7468794d696e55525f2073686f756c64206265206c6573736572207460448201527068616e206865616c7468794d617855525f60781b6064820152608401620000aa565b808410620001955760405162461bcd60e51b815260206004820152603560248201527f6865616c7468794d696e526174655f2073686f756c64206265206c657373657260448201527f207468616e206865616c7468794d6178526174655f00000000000000000000006064820152608401620000aa565b600180546001600160a01b03191633179055620001b7868686868686620001c3565b5050505050506200081c565b6001546001600160a01b031633146200020b5760405162461bcd60e51b81526020600482015260096024820152683737b716b7bbb732b960b91b6044820152606401620000aa565b828610620002825760405162461bcd60e51b815260206004820152603560248201527f5b6368616e676552617465735d204d696e20526174652073686f756c6420626560448201527f206c6573736572207468616e204d6178205261746500000000000000000000006064820152608401620000aa565b818510620002eb5760405162461bcd60e51b815260206004820152602f60248201527f4865616c7468794d696e55522073686f756c64206265206c657373657220746860448201526e30b7102432b0b63a343ca6b0bc2aa960891b6064820152608401620000aa565b808410620003625760405162461bcd60e51b815260206004820152603360248201527f4865616c7468794d696e526174652073686f756c64206265206c65737365722060448201527f7468616e204865616c7468794d617852617465000000000000000000000000006064820152608401620000aa565b604080516020810190915260008152604080516020810190915260008152604080516020810190915260008152600254620003a990600160a01b900460ff16600162000621565b600254909150620003c6908a90600160a01b900460ff1662000621565b51600b55600254620003e4908990600160a01b900460ff1662000621565b51600c5560025462000402908890600160a01b900460ff1662000621565b51600d5560025462000420908790600160a01b900460ff1662000621565b51600e556002546200043e908690600160a01b900460ff1662000621565b51600f556002546200045c908590600160a01b900460ff1662000621565b51601055600b546003819055600c54600455600f546008556040805160208082018352600d54825282519081019092529181526200049b91906200066d565b60408051602081019091526004548152909350620004bb908490620006a4565b51600555604080516020808201835260105482528251908101909252600d548252620004e7916200066d565b6040805160208082018352600f5482528251908101909252600c5482529194506200051391906200066d565b9150620005218383620006a4565b5160068190556040805160208082018352928152815192830190915260045482526200054d91620006ca565b6040805160208101909152600d5481529093506200056c90846200066d565b516007556040805160208082018352600e5482528251908101909252601054825262000598916200066d565b6040805160208101909152600f548152909350620005b89082906200066d565b9150620005c68383620006a4565b516009819055604080516020808201835292815281519283019091526008548252620005f291620006ca565b60408051602081019091526010548152909250620006129083906200066d565b51600a55505050505050505050565b604080516020810190915260008152600062000646670de0b6b3a764000085620007a2565b90506000620006568483620007c4565b604080516020810190915290815295945050505050565b604080516020810190915260008152815183516000916200068e91620007e7565b6040805160208101909152908152949350505050565b60408051602081019091526000815282518251620006c3919062000621565b9392505050565b60408051602081019091526000815281518351600091620006eb91620007a2565b9050600081620007056002670de0b6b3a7640000620007c4565b62000711919062000801565b9050600062000729670de0b6b3a764000083620007c4565b60408051602081019091529081529695505050505050565b60008060008060008060c087890312156200075b57600080fd5b865195506020870151945060408701519350606087015192506080870151915060a087015190509295509295509295565b634e487b7160e01b600052601160045260246000fd5b6000816000190483118215151615620007bf57620007bf6200078c565b500290565b600082620007e257634e487b7160e01b600052601260045260246000fd5b500490565b600082821015620007fc57620007fc6200078c565b500390565b600082198211156200081757620008176200078c565b500190565b611098806200082c6000396000f3fe608060405234801561001057600080fd5b50600436106100a35760003560e01c8063a385fb9611610076578063e9d1f07e1161005b578063e9d1f07e14610159578063ed2b5a3c1461016c578063f2fde38b1461017f57600080fd5b8063a385fb9614610130578063d4ee1d901461013957600080fd5b8063517cf73e146100a8578063582f9deb146100ce57806379ba5097146100e35780638da5cb5b146100eb575b600080fd5b6100bb6100b6366004610ee2565b610192565b6040519081526020015b60405180910390f35b6100e16100dc366004610f15565b610290565b005b6100e16107d3565b60015461010b9073ffffffffffffffffffffffffffffffffffffffff1681565b60405173ffffffffffffffffffffffffffffffffffffffff90911681526020016100c5565b6100bb60005481565b60025461010b9073ffffffffffffffffffffffffffffffffffffffff1681565b6100e1610167366004610f58565b610912565b6100bb61017a366004610ee2565b6109d8565b6100e161018d366004610f71565b610a24565b600080806101a08585610b97565b60025491935091506000906101d19074010000000000000000000000000000000000000000900460ff166001610cf3565b604080516020810190915260035481529091506000906101f2908390610d3d565b905061022c846040518060200160405280600260149054906101000a900460ff1660ff1687600001516102259190610fbb565b9052610d72565b915061025f826040518060200160405280600260149054906101000a900460ff1660ff1685600001516102259190610fbb565b91506000604051806020016040528060005485600001516102809190610fbb565b9052519998505050505050505050565b60015473ffffffffffffffffffffffffffffffffffffffff163314610316576040517f08c379a000000000000000000000000000000000000000000000000000000000815260206004820152600960248201527f6e6f6e2d6f776e6572000000000000000000000000000000000000000000000060448201526064015b60405180910390fd5b8286106103a5576040517f08c379a000000000000000000000000000000000000000000000000000000000815260206004820152603560248201527f5b6368616e676552617465735d204d696e20526174652073686f756c6420626560448201527f206c6573736572207468616e204d617820526174650000000000000000000000606482015260840161030d565b818510610434576040517f08c379a000000000000000000000000000000000000000000000000000000000815260206004820152602f60248201527f4865616c7468794d696e55522073686f756c64206265206c657373657220746860448201527f616e204865616c7468794d617855520000000000000000000000000000000000606482015260840161030d565b8084106104c3576040517f08c379a000000000000000000000000000000000000000000000000000000000815260206004820152603360248201527f4865616c7468794d696e526174652073686f756c64206265206c65737365722060448201527f7468616e204865616c7468794d61785261746500000000000000000000000000606482015260840161030d565b6040805160208101909152600081526040805160208101909152600081526040805160208101909152600081526002546105199074010000000000000000000000000000000000000000900460ff166001610cf3565b600254909150610545908a9074010000000000000000000000000000000000000000900460ff16610cf3565b51600b5560025461057290899074010000000000000000000000000000000000000000900460ff16610cf3565b51600c5560025461059f90889074010000000000000000000000000000000000000000900460ff16610cf3565b51600d556002546105cc90879074010000000000000000000000000000000000000000900460ff16610cf3565b51600e556002546105f990869074010000000000000000000000000000000000000000900460ff16610cf3565b51600f5560025461062690859074010000000000000000000000000000000000000000900460ff16610cf3565b51601055600b546003819055600c54600455600f546008556040805160208082018352600d54825282519081019092529181526106639190610d3d565b60408051602081019091526004548152909350610681908490610de1565b51600555604080516020808201835260105482528251908101909252600d5482526106ab91610d3d565b6040805160208082018352600f5482528251908101909252600c5482529194506106d59190610d3d565b91506106e18383610de1565b51600681905560408051602080820183529281528151928301909152600454825261070b91610d72565b6040805160208101909152600d5481529093506107289084610d3d565b516007556040805160208082018352600e5482528251908101909252601054825261075291610d3d565b6040805160208101909152600f548152909350610770908290610d3d565b915061077c8383610de1565b5160098190556040805160208082018352928152815192830190915260085482526107a691610d72565b604080516020810190915260105481529092506107c4908390610d3d565b51600a55505050505050505050565b60025473ffffffffffffffffffffffffffffffffffffffff16331461087a576040517f08c379a000000000000000000000000000000000000000000000000000000000815260206004820152602c60248201527f4163636570744f776e6572736869703a206f6e6c79206e6577206f776e65722060448201527f63616e20646f20746869732e0000000000000000000000000000000000000000606482015260840161030d565b60025460015460405173ffffffffffffffffffffffffffffffffffffffff92831692909116907f343765429aea5a34b3ff6a3785a98a5abb2597aca87bfbb58632c173d585373a90600090a360028054600180547fffffffffffffffffffffffff000000000000000000000000000000000000000090811673ffffffffffffffffffffffffffffffffffffffff841617909155169055565b60015473ffffffffffffffffffffffffffffffffffffffff163314610993576040517f08c379a000000000000000000000000000000000000000000000000000000000815260206004820152600960248201527f6e6f6e2d6f776e65720000000000000000000000000000000000000000000000604482015260640161030d565b600080549082905560408051828152602081018490527f8c7fd4f5a8da5129991356074d02e5cac68dced1f3f0e2964e233fcf272398c2910160405180910390a15050565b6000806109e58484610b97565b915050600060405180602001604052806000548460000151610a079190610fbb565b90528051909150610a1a90600590610fbb565b9695505050505050565b60015473ffffffffffffffffffffffffffffffffffffffff163314610aa5576040517f08c379a000000000000000000000000000000000000000000000000000000000815260206004820152600960248201527f6e6f6e2d6f776e65720000000000000000000000000000000000000000000000604482015260640161030d565b60015473ffffffffffffffffffffffffffffffffffffffff82811691161415610b50576040517f08c379a000000000000000000000000000000000000000000000000000000000815260206004820152602260248201527f5472616e736665724f776e6572736869703a207468652073616d65206f776e6560448201527f722e000000000000000000000000000000000000000000000000000000000000606482015260840161030d565b600280547fffffffffffffffffffffffff00000000000000000000000000000000000000001673ffffffffffffffffffffffffffffffffffffffff92909216919091179055565b6040805160208101909152600081526040805160208101909152600081526000610bc18585610e05565b90506000610bdb6040518060200160405280600081525090565b60408051602081019091526000815260045484511015610c395760408051602081019091526005548152610c10908590610d72565b60408051602081019091526003548152909250610c2e908390610e7d565b805193509050610cd8565b60085484511115610c7d5760408051602081019091526009548152610c5f908590610d72565b6040805160208101909152600a548152909250610c2e908390610d3d565b600454845110801590610c935750600854845111155b15610cd85760408051602081019091526006548152610cb3908590610d72565b60408051602081019091526007548152909250610cd1908390610e7d565b8051935090505b50506040805160208101909152908152909590945092505050565b6040805160208101909152600081526000610d16670de0b6b3a764000085610ff6565b90506000610d248483610fbb565b6040805160208101909152908152925050505b92915050565b60408051602081019091526000815281518351600091610d5c91611033565b6040805160208101909152908152949350505050565b60408051602081019091526000815281518351600091610d9191610ff6565b9050600081610da96002670de0b6b3a7640000610fbb565b610db3919061104a565b90506000610dc9670de0b6b3a764000083610fbb565b60408051602081019091529081529695505050505050565b60408051602081019091526000815282518251610dfe9190610cf3565b9392505050565b60408051602081019091526000815281610e2e5750604080516020810190915260008152610d37565b6000610e3a838561104a565b90506000610e488483610cf3565b600254909150610e7490829074010000000000000000000000000000000000000000900460ff16610e9c565b95945050505050565b60408051602081019091526000815281518351600091610d5c9161104a565b604080516020810190915260008082528351610d5c908490610ff6565b803573ffffffffffffffffffffffffffffffffffffffff81168114610edd57600080fd5b919050565b600080600060608486031215610ef757600080fd5b610f0084610eb9565b95602085013595506040909401359392505050565b60008060008060008060c08789031215610f2e57600080fd5b505084359660208601359650604086013595606081013595506080810135945060a0013592509050565b600060208284031215610f6a57600080fd5b5035919050565b600060208284031215610f8357600080fd5b610dfe82610eb9565b7f4e487b7100000000000000000000000000000000000000000000000000000000600052601160045260246000fd5b600082610ff1577f4e487b7100000000000000000000000000000000000000000000000000000000600052601260045260246000fd5b500490565b6000817fffffffffffffffffffffffffffffffffffffffffffffffffffffffffffffffff048311821515161561102e5761102e610f8c565b500290565b60008282101561104557611045610f8c565b500390565b6000821982111561105d5761105d610f8c565b50019056fea2646970667358221220ec080f17d50dab78a02ac7b87fc8201bc23355041d754deacf4c04aff975279164736f6c63430008090033",
  "linkReferences": {},
  "deployedLinkReferences": {}
}