{
  "_format": "hh-sol-artifact-1",
  "contractName": "FlashMintArbitrager",
  "sourceName": "contracts/stablecoin/mocks/FlashMintArbitrager.sol",
  "abi": [
    {
      "anonymous": false,
      "inputs": [
        {
          "indexed": true,
          "internalType": "address",
          "name": "previousOwner",
          "type": "address"
        },
        {
          "indexed": true,
          "internalType": "address",
          "name": "newOwner",
          "type": "address"
        }
      ],
      "name": "OwnershipTransferred",
      "type": "event"
    },
    {
      "inputs": [],
      "name": "initialize",
      "outputs": [],
      "stateMutability": "nonpayable",
      "type": "function"
    },
    {
      "inputs": [
        {
          "internalType": "address",
          "name": "initiator",
          "type": "address"
        },
        {
          "internalType": "address",
          "name": "token",
          "type": "address"
        },
        {
          "internalType": "uint256",
          "name": "amount",
          "type": "uint256"
        },
        {
          "internalType": "uint256",
          "name": "fee",
          "type": "uint256"
        },
        {
          "internalType": "bytes",
          "name": "data",
          "type": "bytes"
        }
      ],
      "name": "onFlashLoan",
      "outputs": [
        {
          "internalType": "bytes32",
          "name": "",
          "type": "bytes32"
        }
      ],
      "stateMutability": "nonpayable",
      "type": "function"
    },
    {
      "inputs": [],
      "name": "owner",
      "outputs": [
        {
          "internalType": "address",
          "name": "",
          "type": "address"
        }
      ],
      "stateMutability": "view",
      "type": "function"
    },
    {
      "inputs": [],
      "name": "renounceOwnership",
      "outputs": [],
      "stateMutability": "nonpayable",
      "type": "function"
    },
    {
      "inputs": [
        {
          "internalType": "address",
          "name": "newOwner",
          "type": "address"
        }
      ],
      "name": "transferOwnership",
      "outputs": [],
      "stateMutability": "nonpayable",
      "type": "function"
    }
  ],
  "bytecode": "0x608060405234801561001057600080fd5b5061128f806100206000396000f3fe608060405234801561001057600080fd5b50600436106100675760003560e01c80638129fc1c116100505780638129fc1c1461012a5780638da5cb5b14610132578063f2fde38b1461016357610067565b806323e30c8b1461006c578063715018a614610120575b600080fd5b61010e600480360360a081101561008257600080fd5b73ffffffffffffffffffffffffffffffffffffffff823581169260208101359091169160408201359160608101359181019060a0810160808201356401000000008111156100cf57600080fd5b8201836020820111156100e157600080fd5b8035906020019184600183028401116401000000008311171561010357600080fd5b509092509050610196565b60408051918252519081900360200190f35b6101286106fb565b005b610128610812565b61013a61092e565b6040805173ffffffffffffffffffffffffffffffffffffffff9092168252519081900360200190f35b6101286004803603602081101561017957600080fd5b503573ffffffffffffffffffffffffffffffffffffffff1661094a565b600080600080858560608110156101ac57600080fd5b506040805160028082526060808301845273ffffffffffffffffffffffffffffffffffffffff8535811698506020808701358216985095850135169550939192909183019080368337019050509050898160008151811061020957fe5b602002602001019073ffffffffffffffffffffffffffffffffffffffff16908173ffffffffffffffffffffffffffffffffffffffff1681525050828160018151811061025157fe5b73ffffffffffffffffffffffffffffffffffffffff9283166020918202929092010152600090610282908516610aec565b90506102c573ffffffffffffffffffffffffffffffffffffffff8c16867fffffffffffffffffffffffffffffffffffffffffffffffffffffffffffffffff610b87565b8473ffffffffffffffffffffffffffffffffffffffff166338ed17398b60008530426040518663ffffffff1660e01b815260040180868152602001858152602001806020018473ffffffffffffffffffffffffffffffffffffffff168152602001838152602001828103825285818151815260200191508051906020019060200280838360005b8381101561036457818101518382015260200161034c565b505050509050019650505050505050600060405180830381600087803b15801561038d57600080fd5b505af11580156103a1573d6000803e3d6000fd5b505050506040513d6000823e601f3d9081017fffffffffffffffffffffffffffffffffffffffffffffffffffffffffffffffe016820160405260208110156103e857600080fd5b810190808051604051939291908464010000000082111561040857600080fd5b90830190602082018581111561041d57600080fd5b825186602082028301116401000000008211171561043a57600080fd5b82525081516020918201928201910280838360005b8381101561046757818101518382015260200161044f565b50505050905001604052505050506104a18560008d73ffffffffffffffffffffffffffffffffffffffff16610b879092919063ffffffff16565b60006104c28573ffffffffffffffffffffffffffffffffffffffff16610aec565b90506105778473ffffffffffffffffffffffffffffffffffffffff1663e723b9776040518163ffffffff1660e01b815260040160206040518083038186803b15801561050d57600080fd5b505afa158015610521573d6000803e3d6000fd5b505050506040513d602081101561053757600080fd5b505173ffffffffffffffffffffffffffffffffffffffff8716907fffffffffffffffffffffffffffffffffffffffffffffffffffffffffffffffff610b87565b73ffffffffffffffffffffffffffffffffffffffff84166340853dce3061059e8486610d64565b6040518363ffffffff1660e01b8152600401808373ffffffffffffffffffffffffffffffffffffffff16815260200182815260200192505050600060405180830381600087803b1580156105f157600080fd5b505af1158015610605573d6000803e3d6000fd5b5050505061069d8473ffffffffffffffffffffffffffffffffffffffff1663e723b9776040518163ffffffff1660e01b815260040160206040518083038186803b15801561065257600080fd5b505afa158015610666573d6000803e3d6000fd5b505050506040513d602081101561067c57600080fd5b505173ffffffffffffffffffffffffffffffffffffffff8716906000610b87565b6106c9336106ab8d8d610ddb565b73ffffffffffffffffffffffffffffffffffffffff8f169190610b87565b507f439148f0bbc682ca079e46d6e2c2f0c1e3b820f1a291b069d8882abf8cf18dd99c9b505050505050505050505050565b610703610e56565b73ffffffffffffffffffffffffffffffffffffffff1661072161092e565b73ffffffffffffffffffffffffffffffffffffffff16146107a357604080517f08c379a000000000000000000000000000000000000000000000000000000000815260206004820181905260248201527f4f776e61626c653a2063616c6c6572206973206e6f7420746865206f776e6572604482015290519081900360640190fd5b60335460405160009173ffffffffffffffffffffffffffffffffffffffff16907f8be0079c531659141344cd1fd0a4f28419497f9722a3daafe3b4186f6b6457e0908390a3603380547fffffffffffffffffffffffff0000000000000000000000000000000000000000169055565b600054610100900460ff168061082b575061082b610e5a565b80610839575060005460ff16155b61088e576040517f08c379a000000000000000000000000000000000000000000000000000000000815260040180806020018281038252602e81526020018061122c602e913960400191505060405180910390fd5b600054610100900460ff161580156108f457600080547fffffffffffffffffffffffffffffffffffffffffffffffffffffffffffffff007fffffffffffffffffffffffffffffffffffffffffffffffffffffffffffff00ff909116610100171660011790555b6108fc610e6b565b801561092b57600080547fffffffffffffffffffffffffffffffffffffffffffffffffffffffffffff00ff1690555b50565b60335473ffffffffffffffffffffffffffffffffffffffff1690565b610952610e56565b73ffffffffffffffffffffffffffffffffffffffff1661097061092e565b73ffffffffffffffffffffffffffffffffffffffff16146109f257604080517f08c379a000000000000000000000000000000000000000000000000000000000815260206004820181905260248201527f4f776e61626c653a2063616c6c6572206973206e6f7420746865206f776e6572604482015290519081900360640190fd5b73ffffffffffffffffffffffffffffffffffffffff8116610a5e576040517f08c379a00000000000000000000000000000000000000000000000000000000081526004018080602001828103825260268152602001806112066026913960400191505060405180910390fd5b60335460405173ffffffffffffffffffffffffffffffffffffffff8084169216907f8be0079c531659141344cd1fd0a4f28419497f9722a3daafe3b4186f6b6457e090600090a3603380547fffffffffffffffffffffffff00000000000000000000000000000000000000001673ffffffffffffffffffffffffffffffffffffffff92909216919091179055565b60008173ffffffffffffffffffffffffffffffffffffffff166370a08231306040518263ffffffff1660e01b8152600401808273ffffffffffffffffffffffffffffffffffffffff16815260200191505060206040518083038186803b158015610b5557600080fd5b505afa158015610b69573d6000803e3d6000fd5b505050506040513d6020811015610b7f57600080fd5b505192915050565b6040805173ffffffffffffffffffffffffffffffffffffffff8481166024830152604480830185905283518084039091018152606490920183526020820180517bffffffffffffffffffffffffffffffffffffffffffffffffffffffff167f095ea7b300000000000000000000000000000000000000000000000000000000178152925182516000946060949389169392918291908083835b60208310610c5d57805182527fffffffffffffffffffffffffffffffffffffffffffffffffffffffffffffffe09092019160209182019101610c20565b6001836020036101000a0380198251168184511680821785525050505050509050019150506000604051808303816000865af19150503d8060008114610cbf576040519150601f19603f3d011682016040523d82523d6000602084013e610cc4565b606091505b5091509150818015610cf2575080511580610cf25750808060200190516020811015610cef57600080fd5b50515b610d5d57604080517f08c379a000000000000000000000000000000000000000000000000000000000815260206004820152600c60248201527f2173616665417070726f76650000000000000000000000000000000000000000604482015290519081900360640190fd5b5050505050565b600082821115610dd557604080517f08c379a000000000000000000000000000000000000000000000000000000000815260206004820152601e60248201527f536166654d6174683a207375627472616374696f6e206f766572666c6f770000604482015290519081900360640190fd5b50900390565b600082820183811015610e4f57604080517f08c379a000000000000000000000000000000000000000000000000000000000815260206004820152601b60248201527f536166654d6174683a206164646974696f6e206f766572666c6f770000000000604482015290519081900360640190fd5b9392505050565b3390565b6000610e6530610f5d565b15905090565b600054610100900460ff1680610e845750610e84610e5a565b80610e92575060005460ff16155b610ee7576040517f08c379a000000000000000000000000000000000000000000000000000000000815260040180806020018281038252602e81526020018061122c602e913960400191505060405180910390fd5b600054610100900460ff16158015610f4d57600080547fffffffffffffffffffffffffffffffffffffffffffffffffffffffffffffff007fffffffffffffffffffffffffffffffffffffffffffffffffffffffffffff00ff909116610100171660011790555b610f55610f63565b6108fc611075565b3b151590565b600054610100900460ff1680610f7c5750610f7c610e5a565b80610f8a575060005460ff16155b610fdf576040517f08c379a000000000000000000000000000000000000000000000000000000000815260040180806020018281038252602e81526020018061122c602e913960400191505060405180910390fd5b600054610100900460ff161580156108fc57600080547fffffffffffffffffffffffffffffffffffffffffffffffffffffffffffffff007fffffffffffffffffffffffffffffffffffffffffffffffffffffffffffff00ff90911661010017166001179055801561092b57600080547fffffffffffffffffffffffffffffffffffffffffffffffffffffffffffff00ff16905550565b600054610100900460ff168061108e575061108e610e5a565b8061109c575060005460ff16155b6110f1576040517f08c379a000000000000000000000000000000000000000000000000000000000815260040180806020018281038252602e81526020018061122c602e913960400191505060405180910390fd5b600054610100900460ff1615801561115757600080547fffffffffffffffffffffffffffffffffffffffffffffffffffffffffffffff007fffffffffffffffffffffffffffffffffffffffffffffffffffffffffffff00ff909116610100171660011790555b6000611161610e56565b603380547fffffffffffffffffffffffff00000000000000000000000000000000000000001673ffffffffffffffffffffffffffffffffffffffff8316908117909155604051919250906000907f8be0079c531659141344cd1fd0a4f28419497f9722a3daafe3b4186f6b6457e0908290a350801561092b57600080547fffffffffffffffffffffffffffffffffffffffffffffffffffffffffffff00ff1690555056fe4f776e61626c653a206e6577206f776e657220697320746865207a65726f2061646472657373496e697469616c697a61626c653a20636f6e747261637420697320616c726561647920696e697469616c697a6564a26469706673582212207e60c07aed922b199d253f2eb2b6ef9ca860645629e7718b29fc2bf159bfdbce64736f6c634300060c0033",
  "linkReferences": {},
  "deployedLinkReferences": {}
}