{
  "_format": "hh-sol-artifact-1",
  "contractName": "ComplexRewarderPerSecV3",
  "sourceName": "contracts/farm/v2/rewarders/ComplexRewarderPerSecV3.sol",
  "abi": [
    {
      "inputs": [
        {
          "internalType": "contract IBoringERC20",
          "name": "_rewardToken",
          "type": "address"
        },
        {
          "internalType": "contract IGammaDistributorV2",
          "name": "_distributorV2",
          "type": "address"
        },
        {
          "internalType": "bool",
          "name": "_isNative",
          "type": "bool"
        }
      ],
      "stateMutability": "nonpayable",
      "type": "constructor"
    },
    {
      "anonymous": false,
      "inputs": [
        {
          "indexed": true,
          "internalType": "uint256",
          "name": "pid",
          "type": "uint256"
        }
      ],
      "name": "AddPool",
      "type": "event"
    },
    {
      "anonymous": false,
      "inputs": [
        {
          "indexed": true,
          "internalType": "uint256",
          "name": "pid",
          "type": "uint256"
        },
        {
          "indexed": true,
          "internalType": "uint256",
          "name": "phase",
          "type": "uint256"
        },
        {
          "indexed": false,
          "internalType": "uint256",
          "name": "endTimestamp",
          "type": "uint256"
        },
        {
          "indexed": false,
          "internalType": "uint256",
          "name": "rewardPerSec",
          "type": "uint256"
        }
      ],
      "name": "AddRewardInfo",
      "type": "event"
    },
    {
      "anonymous": false,
      "inputs": [
        {
          "indexed": true,
          "internalType": "address",
          "name": "user",
          "type": "address"
        },
        {
          "indexed": false,
          "internalType": "uint256",
          "name": "amount",
          "type": "uint256"
        }
      ],
      "name": "OnReward",
      "type": "event"
    },
    {
      "anonymous": false,
      "inputs": [
        {
          "indexed": true,
          "internalType": "address",
          "name": "previousOwner",
          "type": "address"
        },
        {
          "indexed": true,
          "internalType": "address",
          "name": "newOwner",
          "type": "address"
        }
      ],
      "name": "OwnershipTransferred",
      "type": "event"
    },
    {
      "anonymous": false,
      "inputs": [
        {
          "indexed": false,
          "internalType": "uint256",
          "name": "oldRate",
          "type": "uint256"
        },
        {
          "indexed": false,
          "internalType": "uint256",
          "name": "newRate",
          "type": "uint256"
        }
      ],
      "name": "RewardRateUpdated",
      "type": "event"
    },
    {
      "anonymous": false,
      "inputs": [
        {
          "indexed": true,
          "internalType": "uint256",
          "name": "pid",
          "type": "uint256"
        },
        {
          "indexed": false,
          "internalType": "uint256",
          "name": "lastRewardTimestamp",
          "type": "uint256"
        },
        {
          "indexed": false,
          "internalType": "uint256",
          "name": "lpSupply",
          "type": "uint256"
        },
        {
          "indexed": false,
          "internalType": "uint256",
          "name": "accTokenPerShare",
          "type": "uint256"
        }
      ],
      "name": "UpdatePool",
      "type": "event"
    },
    {
      "inputs": [
        {
          "internalType": "uint256",
          "name": "_from",
          "type": "uint256"
        },
        {
          "internalType": "uint256",
          "name": "_to",
          "type": "uint256"
        },
        {
          "internalType": "uint256",
          "name": "_endTimestamp",
          "type": "uint256"
        }
      ],
      "name": "_getTimeElapsed",
      "outputs": [
        {
          "internalType": "uint256",
          "name": "",
          "type": "uint256"
        }
      ],
      "stateMutability": "pure",
      "type": "function"
    },
    {
      "inputs": [
        {
          "internalType": "uint256",
          "name": "pid",
          "type": "uint256"
        }
      ],
      "name": "_updatePool",
      "outputs": [
        {
          "components": [
            {
              "internalType": "uint256",
              "name": "accTokenPerShare",
              "type": "uint256"
            },
            {
              "internalType": "uint256",
              "name": "startTimestamp",
              "type": "uint256"
            },
            {
              "internalType": "uint256",
              "name": "lastRewardTimestamp",
              "type": "uint256"
            },
            {
              "internalType": "uint256",
              "name": "totalRewards",
              "type": "uint256"
            }
          ],
          "internalType": "struct ComplexRewarderPerSecV3.PoolInfo",
          "name": "pool",
          "type": "tuple"
        }
      ],
      "stateMutability": "nonpayable",
      "type": "function"
    },
    {
      "inputs": [
        {
          "internalType": "uint256",
          "name": "_pid",
          "type": "uint256"
        },
        {
          "internalType": "uint256",
          "name": "_startTimestamp",
          "type": "uint256"
        }
      ],
      "name": "add",
      "outputs": [],
      "stateMutability": "nonpayable",
      "type": "function"
    },
    {
      "inputs": [
        {
          "internalType": "uint256",
          "name": "_pid",
          "type": "uint256"
        },
        {
          "internalType": "uint256",
          "name": "_endTimestamp",
          "type": "uint256"
        },
        {
          "internalType": "uint256",
          "name": "_rewardPerSec",
          "type": "uint256"
        }
      ],
      "name": "addRewardInfo",
      "outputs": [],
      "stateMutability": "payable",
      "type": "function"
    },
    {
      "inputs": [
        {
          "internalType": "uint256",
          "name": "_pid",
          "type": "uint256"
        }
      ],
      "name": "currentEndTimestamp",
      "outputs": [
        {
          "internalType": "uint256",
          "name": "",
          "type": "uint256"
        }
      ],
      "stateMutability": "view",
      "type": "function"
    },
    {
      "inputs": [],
      "name": "distributorV2",
      "outputs": [
        {
          "internalType": "contract IGammaDistributorV2",
          "name": "",
          "type": "address"
        }
      ],
      "stateMutability": "view",
      "type": "function"
    },
    {
      "inputs": [
        {
          "internalType": "uint256",
          "name": "_pid",
          "type": "uint256"
        },
        {
          "internalType": "uint256",
          "name": "_amount",
          "type": "uint256"
        },
        {
          "internalType": "address",
          "name": "_beneficiary",
          "type": "address"
        }
      ],
      "name": "emergencyRewardWithdraw",
      "outputs": [],
      "stateMutability": "nonpayable",
      "type": "function"
    },
    {
      "inputs": [],
      "name": "isNative",
      "outputs": [
        {
          "internalType": "bool",
          "name": "",
          "type": "bool"
        }
      ],
      "stateMutability": "view",
      "type": "function"
    },
    {
      "inputs": [],
      "name": "massUpdatePools",
      "outputs": [],
      "stateMutability": "nonpayable",
      "type": "function"
    },
    {
      "inputs": [
        {
          "internalType": "uint256",
          "name": "_pid",
          "type": "uint256"
        },
        {
          "internalType": "address",
          "name": "_user",
          "type": "address"
        },
        {
          "internalType": "uint256",
          "name": "_amount",
          "type": "uint256"
        }
      ],
      "name": "onTauReward",
      "outputs": [],
      "stateMutability": "nonpayable",
      "type": "function"
    },
    {
      "inputs": [],
      "name": "owner",
      "outputs": [
        {
          "internalType": "address",
          "name": "",
          "type": "address"
        }
      ],
      "stateMutability": "view",
      "type": "function"
    },
    {
      "inputs": [
        {
          "internalType": "uint256",
          "name": "_pid",
          "type": "uint256"
        },
        {
          "internalType": "address",
          "name": "_user",
          "type": "address"
        }
      ],
      "name": "pendingTokens",
      "outputs": [
        {
          "internalType": "uint256",
          "name": "",
          "type": "uint256"
        }
      ],
      "stateMutability": "view",
      "type": "function"
    },
    {
      "inputs": [
        {
          "internalType": "uint256",
          "name": "",
          "type": "uint256"
        }
      ],
      "name": "poolIds",
      "outputs": [
        {
          "internalType": "uint256",
          "name": "",
          "type": "uint256"
        }
      ],
      "stateMutability": "view",
      "type": "function"
    },
    {
      "inputs": [
        {
          "internalType": "uint256",
          "name": "",
          "type": "uint256"
        }
      ],
      "name": "poolInfo",
      "outputs": [
        {
          "internalType": "uint256",
          "name": "accTokenPerShare",
          "type": "uint256"
        },
        {
          "internalType": "uint256",
          "name": "startTimestamp",
          "type": "uint256"
        },
        {
          "internalType": "uint256",
          "name": "lastRewardTimestamp",
          "type": "uint256"
        },
        {
          "internalType": "uint256",
          "name": "totalRewards",
          "type": "uint256"
        }
      ],
      "stateMutability": "view",
      "type": "function"
    },
    {
      "inputs": [
        {
          "internalType": "uint256",
          "name": "",
          "type": "uint256"
        },
        {
          "internalType": "uint256",
          "name": "",
          "type": "uint256"
        }
      ],
      "name": "poolRewardInfo",
      "outputs": [
        {
          "internalType": "uint256",
          "name": "startTimestamp",
          "type": "uint256"
        },
        {
          "internalType": "uint256",
          "name": "endTimestamp",
          "type": "uint256"
        },
        {
          "internalType": "uint256",
          "name": "rewardPerSec",
          "type": "uint256"
        }
      ],
      "stateMutability": "view",
      "type": "function"
    },
    {
      "inputs": [
        {
          "internalType": "uint256",
          "name": "_pid",
          "type": "uint256"
        }
      ],
      "name": "poolRewardsPerSec",
      "outputs": [
        {
          "internalType": "uint256",
          "name": "",
          "type": "uint256"
        }
      ],
      "stateMutability": "view",
      "type": "function"
    },
    {
      "inputs": [],
      "name": "renounceOwnership",
      "outputs": [],
      "stateMutability": "nonpayable",
      "type": "function"
    },
    {
      "inputs": [],
      "name": "rewardInfoLimit",
      "outputs": [
        {
          "internalType": "uint256",
          "name": "",
          "type": "uint256"
        }
      ],
      "stateMutability": "view",
      "type": "function"
    },
    {
      "inputs": [],
      "name": "rewardToken",
      "outputs": [
        {
          "internalType": "contract IBoringERC20",
          "name": "",
          "type": "address"
        }
      ],
      "stateMutability": "view",
      "type": "function"
    },
    {
      "inputs": [
        {
          "internalType": "address",
          "name": "newOwner",
          "type": "address"
        }
      ],
      "name": "transferOwnership",
      "outputs": [],
      "stateMutability": "nonpayable",
      "type": "function"
    },
    {
      "inputs": [
        {
          "internalType": "uint256",
          "name": "_pid",
          "type": "uint256"
        }
      ],
      "name": "updatePool",
      "outputs": [
        {
          "components": [
            {
              "internalType": "uint256",
              "name": "accTokenPerShare",
              "type": "uint256"
            },
            {
              "internalType": "uint256",
              "name": "startTimestamp",
              "type": "uint256"
            },
            {
              "internalType": "uint256",
              "name": "lastRewardTimestamp",
              "type": "uint256"
            },
            {
              "internalType": "uint256",
              "name": "totalRewards",
              "type": "uint256"
            }
          ],
          "internalType": "struct ComplexRewarderPerSecV3.PoolInfo",
          "name": "pool",
          "type": "tuple"
        }
      ],
      "stateMutability": "nonpayable",
      "type": "function"
    },
    {
      "inputs": [
        {
          "internalType": "uint256",
          "name": "",
          "type": "uint256"
        },
        {
          "internalType": "address",
          "name": "",
          "type": "address"
        }
      ],
      "name": "userInfo",
      "outputs": [
        {
          "internalType": "uint256",
          "name": "amount",
          "type": "uint256"
        },
        {
          "internalType": "uint256",
          "name": "rewardDebt",
          "type": "uint256"
        }
      ],
      "stateMutability": "view",
      "type": "function"
    }
  ],
  "bytecode": "0x610120604052603460e0523480156200001757600080fd5b5060405162002d2838038062002d288339810160408190526200003a9162000389565b620000453362000248565b6001808190555062000062836200029860201b620018d11760201c565b620000cf5760405162461bcd60e51b815260206004820152603260248201527f636f6e7374727563746f723a2072657761726420746f6b656e206d7573742062604482015271194818481d985b1a590818dbdb9d1c9858dd60721b60648201526084015b60405180910390fd5b620000e5826200029860201b620018d11760201c565b620001595760405162461bcd60e51b815260206004820152603860248201527f636f6e7374727563746f723a2047616d6d614469737472696275746f7256322060448201527f6d75737420626520612076616c696420636f6e747261637400000000000000006064820152608401620000c6565b6001600160a01b03808416608052821660a05280151560c0526000816200019f5762000199846001600160a01b0316620002a760201b620018ed1760201c565b620001a2565b60125b60ff169050601e81106200021f5760405162461bcd60e51b815260206004820152603960248201527f636f6e7374727563746f723a2072657761726420746f6b656e20646563696d6160448201527f6c73206d75737420626520696e666572696f7220746f203330000000000000006064820152608401620000c6565b6200022c81601e620003f7565b6200023990600a62000510565b61010052506200058892505050565b600080546001600160a01b038381166001600160a01b0319831681178455604051919092169283917f8be0079c531659141344cd1fd0a4f28419497f9722a3daafe3b4186f6b6457e09190a35050565b6001600160a01b03163b151590565b60408051600481526024810182526020810180516001600160e01b031663313ce56760e01b1790529051600091829182916001600160a01b03861691620002ef919062000525565b600060405180830381855afa9150503d80600081146200032c576040519150601f19603f3d011682016040523d82523d6000602084013e62000331565b606091505b509150915081801562000345575080516020145b6200035257601262000368565b8080602001905181019062000368919062000563565b949350505050565b6001600160a01b03811681146200038657600080fd5b50565b6000806000606084860312156200039f57600080fd5b8351620003ac8162000370565b6020850151909350620003bf8162000370565b60408501519092508015158114620003d657600080fd5b809150509250925092565b634e487b7160e01b600052601160045260246000fd5b6000828210156200040c576200040c620003e1565b500390565b600181815b8085111562000452578160001904821115620004365762000436620003e1565b808516156200044457918102915b93841c939080029062000416565b509250929050565b6000826200046b575060016200050a565b816200047a575060006200050a565b81600181146200049357600281146200049e57620004be565b60019150506200050a565b60ff841115620004b257620004b2620003e1565b50506001821b6200050a565b5060208310610133831016604e8410600b8410161715620004e3575081810a6200050a565b620004ef838362000411565b8060001904821115620005065762000506620003e1565b0290505b92915050565b60006200051e83836200045a565b9392505050565b6000825160005b818110156200054857602081860181015185830152016200052c565b8181111562000558576000828501525b509190910192915050565b6000602082840312156200057657600080fd5b815160ff811681146200051e57600080fd5b60805160a05160c05160e051610100516126dd6200064b6000396000818161127a01528181611602015281816117fe01528181611cf40152611d4801526000818161018b01526109040152600081816103830152818161077101528181610bad0152818161150501526116490152600081816103e701528181610613015281816110ae015281816114100152611bc101526000818161053f015281816107b001528181610bea0152818161155e0152818161178a01526117d001526126dd6000f3fe6080604052600436106101745760003560e01c806373cfc6b2116100cb5780639e494bee1161007f578063f46ad5a211610059578063f46ad5a21461050d578063f7c618c11461052d578063ffcd42631461056157600080fd5b80639e494bee146104ad578063d4aa89b5146104cd578063f2fde38b146104ed57600080fd5b80637d0d9d5f116100b05780637d0d9d5f146103d55780638da5cb5b1461042e57806393f1a40b1461045957600080fd5b806373cfc6b214610371578063771602f7146103b557600080fd5b8063465e81ec1161012d57806369883b4e1161010757806369883b4e1461031c578063715018a61461033c578063723336311461035157600080fd5b8063465e81ec1461029457806351eb05a6146102b4578063630b5ba11461030757600080fd5b80631526fe271161015e5780631526fe27146101fb5780631d1231311461025f5780632ea807c51461028157600080fd5b8062d74850146101795780630832cfbf146101c0575b600080fd5b34801561018557600080fd5b506101ad7f000000000000000000000000000000000000000000000000000000000000000081565b6040519081526020015b60405180910390f35b3480156101cc57600080fd5b506101e06101db366004612394565b610581565b604080519384526020840192909252908201526060016101b7565b34801561020757600080fd5b5061023f6102163660046123b6565b600260208190526000918252604090912080546001820154928201546003909201549092919084565b6040805194855260208501939093529183015260608201526080016101b7565b34801561026b57600080fd5b5061027f61027a3660046123f3565b6105c3565b005b61027f61028f366004612428565b6108df565b3480156102a057600080fd5b506101ad6102af3660046123b6565b610d58565b3480156102c057600080fd5b506102d46102cf3660046123b6565b610d6a565b6040516101b791908151815260208083015190820152604080830151908201526060918201519181019190915260800190565b34801561031357600080fd5b5061027f610db6565b34801561032857600080fd5b506101ad6103373660046123b6565b610dd1565b34801561034857600080fd5b5061027f610df2565b34801561035d57600080fd5b506101ad61036c366004612428565b610e04565b34801561037d57600080fd5b506103a57f000000000000000000000000000000000000000000000000000000000000000081565b60405190151581526020016101b7565b3480156103c157600080fd5b5061027f6103d0366004612394565b610e4d565b3480156103e157600080fd5b506104097f000000000000000000000000000000000000000000000000000000000000000081565b60405173ffffffffffffffffffffffffffffffffffffffff90911681526020016101b7565b34801561043a57600080fd5b5060005473ffffffffffffffffffffffffffffffffffffffff16610409565b34801561046557600080fd5b50610498610474366004612454565b60056020908152600092835260408084209091529082529020805460019091015482565b604080519283526020830191909152016101b7565b3480156104b957600080fd5b506101ad6104c83660046123b6565b610f7e565b3480156104d957600080fd5b506102d46104e83660046123b6565b610f8a565b3480156104f957600080fd5b5061027f610508366004612480565b611341565b34801561051957600080fd5b5061027f61052836600461249b565b6113f8565b34801561053957600080fd5b506104097f000000000000000000000000000000000000000000000000000000000000000081565b34801561056d57600080fd5b506101ad61057c366004612454565b61188f565b6003602052816000526040600020818154811061059d57600080fd5b600091825260209091206003909102018054600182015460029092015490935090915083565b6105cb6119e8565b6105d3611a69565b60008381526002602052604080822090517f654c9ece000000000000000000000000000000000000000000000000000000008152600481018690529091907f000000000000000000000000000000000000000000000000000000000000000073ffffffffffffffffffffffffffffffffffffffff169063654c9ece9060240160206040518083038186803b15801561066a57600080fd5b505afa15801561067e573d6000803e3d6000fd5b505050506040513d601f19601f820116820180604052508101906106a291906124d0565b905060006106b286836000611add565b60038401549091506106c48683612518565b1115610757576040517f08c379a000000000000000000000000000000000000000000000000000000000815260206004820152603260248201527f656d657267656e6379207265776172642077697468647261773a206e6f74206560448201527f6e6f7567682072657761726420746f6b656e000000000000000000000000000060648201526084015b60405180910390fd5b8483600301600082825461076b9190612530565b909155507f000000000000000000000000000000000000000000000000000000000000000090506107dc576107d773ffffffffffffffffffffffffffffffffffffffff7f0000000000000000000000000000000000000000000000000000000000000000168587611d91565b6108ce565b60008473ffffffffffffffffffffffffffffffffffffffff168660405160006040518083038185875af1925050503d8060008114610836576040519150601f19603f3d011682016040523d82523d6000602084013e61083b565b606091505b50509050806108cc576040517f08c379a000000000000000000000000000000000000000000000000000000000815260206004820152602960248201527f656d657267656e6379207265776172642077697468647261773a206661696c6560448201527f6420746f2073656e640000000000000000000000000000000000000000000000606482015260840161074e565b505b5050506108da60018055565b505050565b6108e76119e8565b6000838152600360209081526040808320600290925290912081547f0000000000000000000000000000000000000000000000000000000000000000116109b0576040517f08c379a000000000000000000000000000000000000000000000000000000000815260206004820152603560248201527f6164642072657761726420696e666f3a2072657761726420696e666f206c656e60448201527f677468206578636565647320746865206c696d69740000000000000000000000606482015260840161074e565b815415806109f057508154429083906109cb90600190612530565b815481106109db576109db612547565b90600052602060002090600302016001015410155b610a7b576040517f08c379a0000000000000000000000000000000000000000000000000000000008152602060048201526024808201527f6164642072657761726420696e666f3a2072657761726420706572696f64206560448201527f6e64656400000000000000000000000000000000000000000000000000000000606482015260840161074e565b81541580610aba5750815484908390610a9690600190612530565b81548110610aa657610aa6612547565b906000526020600020906003020160010154105b610b46576040517f08c379a000000000000000000000000000000000000000000000000000000000815260206004820152602560248201527f6164642072657761726420696e666f3a20626164206e657720656e6454696d6560448201527f7374616d70000000000000000000000000000000000000000000000000000000606482015260840161074e565b815460009015610b875782548390610b6090600190612530565b81548110610b7057610b70612547565b906000526020600020906003020160010154610b8d565b81600101545b90506000610b9b8287612530565b90506000610ba98683612576565b90507f0000000000000000000000000000000000000000000000000000000000000000610c1757610c1273ffffffffffffffffffffffffffffffffffffffff7f000000000000000000000000000000000000000000000000000000000000000016333084611f01565b610ca6565b803414610ca6576040517f08c379a000000000000000000000000000000000000000000000000000000000815260206004820152602d60248201527f6164642072657761726420696e666f3a206e6f7420656e6f7567682066756e6460448201527f7320746f207472616e7366657200000000000000000000000000000000000000606482015260840161074e565b80846003016000828254610cba9190612518565b90915550506040805160608101825284815260208082018a8152928201898152885460018181018b5560008b8152939093209351600390910290930192835592518282015591516002909101558554610d139190612530565b60408051898152602081018990528a917fad90731bd0d97445f5af66088f3adebf343c520c20e033cc42f93b124258cdc2910160405180910390a35050505050505050565b6000610d64824261207a565b92915050565b610d956040518060800160405280600081526020016000815260200160008152602001600081525090565b610d9d611a69565b610da682610f8a565b9050610db160018055565b919050565b610dbe611a69565b610dc66121aa565b610dcf60018055565b565b60048181548110610de157600080fd5b600091825260209091200154905081565b610dfa6119e8565b610dcf60006121f3565b60008184101580610e1457508284115b15610e2157506000610e46565b818311610e3957610e328484612530565b9050610e46565b610e438483612530565b90505b9392505050565b610e556119e8565b6000828152600260208190526040909120015415610ecf576040517f08c379a000000000000000000000000000000000000000000000000000000000815260206004820152601360248201527f706f6f6c20616c72656164792065786973747300000000000000000000000000604482015260640161074e565b6040805160808101825260008082526020808301858152838501868152606085018481528885526002938490528685209551865591516001808701919091559051928501929092555160039093019290925560048054928301815581527f8a35acfbc15ff81a39ae7d344fd709f28e8600b4aa8c65c6b64bfe7fe36bd19b909101849055905183917f6f92874181ba07c8e988c53b7d3c2fdcff7154a3500137bf6a350ebac65c087091a25050565b6000610d648242612268565b610fb56040518060800160405280600081526020016000815260200160008152602001600081525090565b50600081815260026020818152604080842081516080810183528154815260018201548185015293810154848301526003908101546060850152858552825280842080548251818502810185019093528083529394939192909190849084015b828210156110655783829060005260206000209060030201604051806060016040529081600082015481526020016001820154815260200160028201548152505081526020019060010190611015565b5050505090508160400151421161107c5750919050565b6040517f654c9ece000000000000000000000000000000000000000000000000000000008152600481018490526000907f000000000000000000000000000000000000000000000000000000000000000073ffffffffffffffffffffffffffffffffffffffff169063654c9ece9060240160206040518083038186803b15801561110557600080fd5b505afa158015611119573d6000803e3d6000fd5b505050506040513d601f19601f8201168201806040525081019061113d91906124d0565b9050806111a85761114e8442612268565b4211156111a15742604084810182905284518151928352602083018490529082015284907f3be3541fc42237d611b30329040bfa4569541d156560acdbbae57640d20b8f46906060015b60405180910390a25b5050919050565b60005b82518110156112ce5760006111e28560400151428685815181106111d1576111d1612547565b602002602001015160200151610e04565b9050806111ef57506112be565b83828151811061120157611201612547565b6020026020010151602001514211156112405783828151811061122657611226612547565b602002602001015160200151856040018181525050611247565b4260408601525b600084838151811061125b5761125b612547565b602002602001015160400151826112729190612576565b90508361129f7f000000000000000000000000000000000000000000000000000000000000000083612576565b6112a991906125b3565b865187906112b8908390612518565b90525050505b6112c7816125ee565b90506111ab565b5060008481526002602081815260409283902086518082558783015160018301558785015193820184905560608089015160039093019290925584519384529183018590529282015285917f3be3541fc42237d611b30329040bfa4569541d156560acdbbae57640d20b8f469101611198565b6113496119e8565b73ffffffffffffffffffffffffffffffffffffffff81166113ec576040517f08c379a000000000000000000000000000000000000000000000000000000000815260206004820152602660248201527f4f776e61626c653a206e6577206f776e657220697320746865207a65726f206160448201527f6464726573730000000000000000000000000000000000000000000000000000606482015260840161074e565b6113f5816121f3565b50565b3373ffffffffffffffffffffffffffffffffffffffff7f000000000000000000000000000000000000000000000000000000000000000016146114bd576040517f08c379a000000000000000000000000000000000000000000000000000000000815260206004820152603c60248201527f6f6e6c794469737472696275746f7256323a206f6e6c7920446973747269627560448201527f746f7256322063616e2063616c6c20746869732066756e6374696f6e00000000606482015260840161074e565b6114c5611a69565b60006114d084610f8a565b600085815260056020908152604080832073ffffffffffffffffffffffffffffffffffffffff881684529091528120919250807f0000000000000000000000000000000000000000000000000000000000000000156115305750476115f0565b6040517f70a082310000000000000000000000000000000000000000000000000000000081523060048201527f000000000000000000000000000000000000000000000000000000000000000073ffffffffffffffffffffffffffffffffffffffff16906370a082319060240160206040518083038186803b1580156115b557600080fd5b505afa1580156115c9573d6000803e3d6000fd5b505050506040513d601f19601f820116820180604052508101906115ed91906124d0565b90505b8254156117f7576001830154845184547f00000000000000000000000000000000000000000000000000000000000000009161162b91612576565b61163591906125b3565b61163f9190612530565b915081156117f7577f00000000000000000000000000000000000000000000000000000000000000001561176857808211156117465760008673ffffffffffffffffffffffffffffffffffffffff16826040515b60006040518083038185875af1925050503d80600081146116d0576040519150601f19603f3d011682016040523d82523d6000602084013e6116d5565b606091505b5050905080611740576040517f08c379a000000000000000000000000000000000000000000000000000000000815260206004820152600f60248201527f5472616e73666572206661696c65640000000000000000000000000000000000604482015260640161074e565b506117f7565b60008673ffffffffffffffffffffffffffffffffffffffff1683604051611693565b808211156117b6576117b173ffffffffffffffffffffffffffffffffffffffff7f0000000000000000000000000000000000000000000000000000000000000000168783611d91565b6117f7565b6117f773ffffffffffffffffffffffffffffffffffffffff7f0000000000000000000000000000000000000000000000000000000000000000168784611d91565b84835583517f0000000000000000000000000000000000000000000000000000000000000000906118289087612576565b61183291906125b3565b600184015560405182815273ffffffffffffffffffffffffffffffffffffffff8716907fd1072bb52c3131d0c96197b73fb8a45637e30f8b6664fc142310cc9b242859b49060200160405180910390a2505050506108da60018055565b600082815260056020908152604080832073ffffffffffffffffffffffffffffffffffffffff8516845290915281208054600190910154610e46918591611add565b73ffffffffffffffffffffffffffffffffffffffff163b151590565b60408051600481526024810182526020810180517bffffffffffffffffffffffffffffffffffffffffffffffffffffffff167f313ce5670000000000000000000000000000000000000000000000000000000017905290516000918291829173ffffffffffffffffffffffffffffffffffffffff86169161196e9190612627565b600060405180830381855afa9150503d80600081146119a9576040519150601f19603f3d011682016040523d82523d6000602084013e6119ae565b606091505b50915091508180156119c1575080516020145b6119cc5760126119e0565b808060200190518101906119e09190612662565b949350505050565b60005473ffffffffffffffffffffffffffffffffffffffff163314610dcf576040517f08c379a000000000000000000000000000000000000000000000000000000000815260206004820181905260248201527f4f776e61626c653a2063616c6c6572206973206e6f7420746865206f776e6572604482015260640161074e565b60026001541415611ad6576040517f08c379a000000000000000000000000000000000000000000000000000000000815260206004820152601f60248201527f5265656e7472616e637947756172643a207265656e7472616e742063616c6c00604482015260640161074e565b6002600155565b600083815260026020818152604080842081516080810183528154815260018201548185015293810154848301526003908101546060850152878552825280842080548251818502810185019093528083528593849084015b82821015611b865783829060005260206000209060030201604051806060016040529081600082015481526020016001820154815260200160028201548152505081526020019060010190611b36565b505084516040517f654c9ece000000000000000000000000000000000000000000000000000000008152600481018b905293945092600092507f000000000000000000000000000000000000000000000000000000000000000073ffffffffffffffffffffffffffffffffffffffff16915063654c9ece9060240160206040518083038186803b158015611c1957600080fd5b505afa158015611c2d573d6000803e3d6000fd5b505050506040513d601f19601f82011682018060405250810190611c5191906124d0565b9050836040015142118015611c6557508015155b15611d4557604084015160005b8451811015611d42576000611c9483428885815181106111d1576111d1612547565b905080611ca15750611d32565b858281518110611cb357611cb3612547565b60200260200101516020015192506000868381518110611cd557611cd5612547565b60200260200101516040015182611cec9190612576565b905084611d197f000000000000000000000000000000000000000000000000000000000000000083612576565b611d2391906125b3565b611d2d9087612518565b955050505b611d3b816125ee565b9050611c72565b50505b857f0000000000000000000000000000000000000000000000000000000000000000611d71848a612576565b611d7b91906125b3565b611d859190612530565b98975050505050505050565b6040805173ffffffffffffffffffffffffffffffffffffffff8481166024830152604480830185905283518084039091018152606490920183526020820180517bffffffffffffffffffffffffffffffffffffffffffffffffffffffff167fa9059cbb000000000000000000000000000000000000000000000000000000001790529151600092839290871691611e289190612627565b6000604051808303816000865af19150503d8060008114611e65576040519150601f19603f3d011682016040523d82523d6000602084013e611e6a565b606091505b5091509150818015611e94575080511580611e94575080806020019051810190611e949190612685565b611efa576040517f08c379a000000000000000000000000000000000000000000000000000000000815260206004820152601c60248201527f426f72696e6745524332303a205472616e73666572206661696c656400000000604482015260640161074e565b5050505050565b6040805173ffffffffffffffffffffffffffffffffffffffff85811660248301528481166044830152606480830185905283518084039091018152608490920183526020820180517bffffffffffffffffffffffffffffffffffffffffffffffffffffffff167f23b872dd000000000000000000000000000000000000000000000000000000001790529151600092839290881691611fa09190612627565b6000604051808303816000865af19150503d8060008114611fdd576040519150601f19603f3d011682016040523d82523d6000602084013e611fe2565b606091505b509150915081801561200c57508051158061200c57508080602001905181019061200c9190612685565b612072576040517f08c379a000000000000000000000000000000000000000000000000000000000815260206004820181905260248201527f426f72696e6745524332303a205472616e7366657246726f6d206661696c6564604482015260640161074e565b505050505050565b600082815260036020908152604080832080548251818502810185019093528083528493849084015b828210156120f357838290600052602060002090600302016040518060600160405290816000820154815260200160018201548152602001600282015481525050815260200190600101906120a3565b505050600086815260026020526040902082519293509190508061211d5760009350505050610d64565b84826001015411156121355760009350505050610d64565b60005b8181101561219d5783818151811061215257612152612547565b602002602001015160200151861161218d5783818151811061217657612176612547565b602002602001015160400151945050505050610d64565b612196816125ee565b9050612138565b5060009695505050505050565b60045460005b818110156121ef576121de600482815481106121ce576121ce612547565b9060005260206000200154610f8a565b506121e8816125ee565b90506121b0565b5050565b6000805473ffffffffffffffffffffffffffffffffffffffff8381167fffffffffffffffffffffffff0000000000000000000000000000000000000000831681178455604051919092169283917f8be0079c531659141344cd1fd0a4f28419497f9722a3daafe3b4186f6b6457e09190a35050565b600082815260036020908152604080832080548251818502810185019093528083528493849084015b828210156122e15783829060005260206000209060030201604051806060016040529081600082015481526020016001820154815260200160028201548152505081526020019060010190612291565b505082519293505050806122fa57600092505050610d64565b60005b818110156123615782818151811061231757612317612547565b60200260200101516020015185116123515782818151811061233b5761233b612547565b6020026020010151602001519350505050610d64565b61235a816125ee565b90506122fd565b508161236e600183612530565b8151811061237e5761237e612547565b6020026020010151602001519250505092915050565b600080604083850312156123a757600080fd5b50508035926020909101359150565b6000602082840312156123c857600080fd5b5035919050565b803573ffffffffffffffffffffffffffffffffffffffff81168114610db157600080fd5b60008060006060848603121561240857600080fd5b833592506020840135915061241f604085016123cf565b90509250925092565b60008060006060848603121561243d57600080fd5b505081359360208301359350604090920135919050565b6000806040838503121561246757600080fd5b82359150612477602084016123cf565b90509250929050565b60006020828403121561249257600080fd5b610e46826123cf565b6000806000606084860312156124b057600080fd5b833592506124c0602085016123cf565b9150604084013590509250925092565b6000602082840312156124e257600080fd5b5051919050565b7f4e487b7100000000000000000000000000000000000000000000000000000000600052601160045260246000fd5b6000821982111561252b5761252b6124e9565b500190565b600082821015612542576125426124e9565b500390565b7f4e487b7100000000000000000000000000000000000000000000000000000000600052603260045260246000fd5b6000817fffffffffffffffffffffffffffffffffffffffffffffffffffffffffffffffff04831182151516156125ae576125ae6124e9565b500290565b6000826125e9577f4e487b7100000000000000000000000000000000000000000000000000000000600052601260045260246000fd5b500490565b60007fffffffffffffffffffffffffffffffffffffffffffffffffffffffffffffffff821415612620576126206124e9565b5060010190565b6000825160005b81811015612648576020818601810151858301520161262e565b81811115612657576000828501525b509190910192915050565b60006020828403121561267457600080fd5b815160ff81168114610e4657600080fd5b60006020828403121561269757600080fd5b81518015158114610e4657600080fdfea264697066735822122026efcaa3bc051e9081c268141fcda253df9019b1d2bd151b9ddd0ed85c6452ed64736f6c63430008090033",
  "linkReferences": {},
  "deployedLinkReferences": {}
}