{
  "_format": "hh-sol-artifact-1",
  "contractName": "MockAave",
  "sourceName": "contracts/vaults/mocks/MockAave.sol",
  "abi": [
    {
      "inputs": [],
      "stateMutability": "nonpayable",
      "type": "constructor"
    },
    {
      "inputs": [
        {
          "internalType": "address",
          "name": "asset",
          "type": "address"
        },
        {
          "internalType": "address",
          "name": "who",
          "type": "address"
        }
      ],
      "name": "balanceOf",
      "outputs": [
        {
          "internalType": "uint256",
          "name": "",
          "type": "uint256"
        }
      ],
      "stateMutability": "view",
      "type": "function"
    },
    {
      "inputs": [
        {
          "internalType": "address",
          "name": "asset",
          "type": "address"
        },
        {
          "internalType": "uint256",
          "name": "amount",
          "type": "uint256"
        },
        {
          "internalType": "address",
          "name": "onBehalfOf",
          "type": "address"
        },
        {
          "internalType": "uint16",
          "name": "referralCode",
          "type": "uint16"
        }
      ],
      "name": "deposit",
      "outputs": [],
      "stateMutability": "nonpayable",
      "type": "function"
    },
    {
      "inputs": [
        {
          "internalType": "address",
          "name": "asset",
          "type": "address"
        },
        {
          "internalType": "uint256",
          "name": "amount",
          "type": "uint256"
        },
        {
          "internalType": "address",
          "name": "to",
          "type": "address"
        }
      ],
      "name": "withdraw",
      "outputs": [],
      "stateMutability": "nonpayable",
      "type": "function"
    }
  ],
  "bytecode": "0x608060405234801561001057600080fd5b506105c7806100206000396000f3fe608060405234801561001057600080fd5b50600436106100415760003560e01c806369328dec14610046578063e8eda9df1461005b578063f7888aec1461006e575b600080fd5b61005961005436600461042c565b6100c4565b005b610059610069366004610468565b610307565b6100b261007c3660046104be565b73ffffffffffffffffffffffffffffffffffffffff91821660009081526020818152604080832093909416825291909152205490565b60405190815260200160405180910390f35b6040517f70a08231000000000000000000000000000000000000000000000000000000008152306004820152829073ffffffffffffffffffffffffffffffffffffffff8516906370a082319060240160206040518083038186803b15801561012b57600080fd5b505afa15801561013f573d6000803e3d6000fd5b505050506040513d601f19601f8201168201806040525081019061016391906104f1565b10156101cf576040517f08c379a000000000000000000000000000000000000000000000000000000000815260206004820152601360248201527f496e73756666696369656e7420616d6f756e7400000000000000000000000000604482015260640160405180910390fd5b6040517fa9059cbb00000000000000000000000000000000000000000000000000000000815273ffffffffffffffffffffffffffffffffffffffff82811660048301526024820184905284169063a9059cbb90604401602060405180830381600087803b15801561023f57600080fd5b505af1158015610253573d6000803e3d6000fd5b505050506040513d601f19601f82011682018060405250810190610277919061050a565b5073ffffffffffffffffffffffffffffffffffffffff8316600090815260208181526040808320338452909152812080548492906102b6908490610562565b909155505073ffffffffffffffffffffffffffffffffffffffff808416600090815260208181526040808320938516835292905290812080548492906102fd908490610579565b9091555050505050565b6040517f23b872dd00000000000000000000000000000000000000000000000000000000815273ffffffffffffffffffffffffffffffffffffffff8381166004830152306024830152604482018590528516906323b872dd90606401602060405180830381600087803b15801561037d57600080fd5b505af1158015610391573d6000803e3d6000fd5b505050506040513d601f19601f820116820180604052508101906103b5919061050a565b5073ffffffffffffffffffffffffffffffffffffffff808516600090815260208181526040808320938616835292905290812080548592906103f8908490610579565b909155505050505050565b803573ffffffffffffffffffffffffffffffffffffffff8116811461042757600080fd5b919050565b60008060006060848603121561044157600080fd5b61044a84610403565b92506020840135915061045f60408501610403565b90509250925092565b6000806000806080858703121561047e57600080fd5b61048785610403565b93506020850135925061049c60408601610403565b9150606085013561ffff811681146104b357600080fd5b939692955090935050565b600080604083850312156104d157600080fd5b6104da83610403565b91506104e860208401610403565b90509250929050565b60006020828403121561050357600080fd5b5051919050565b60006020828403121561051c57600080fd5b8151801515811461052c57600080fd5b9392505050565b7f4e487b7100000000000000000000000000000000000000000000000000000000600052601160045260246000fd5b60008282101561057457610574610533565b500390565b6000821982111561058c5761058c610533565b50019056fea2646970667358221220b9f0260df7b5003bc59a21bb2cd1742999b2d65abfa498e5e92b215f6a09754664736f6c63430008090033",
  "linkReferences": {},
  "deployedLinkReferences": {}
}