{
  "_format": "hh-sol-artifact-1",
  "contractName": "TokenAdapter",
  "sourceName": "contracts/stablecoin/core/adapters/TokenAdapter.sol",
  "abi": [
    {
      "anonymous": false,
      "inputs": [],
      "name": "LogCage",
      "type": "event"
    },
    {
      "anonymous": false,
      "inputs": [],
      "name": "LogUncage",
      "type": "event"
    },
    {
      "anonymous": false,
      "inputs": [
        {
          "indexed": false,
          "internalType": "address",
          "name": "account",
          "type": "address"
        }
      ],
      "name": "Paused",
      "type": "event"
    },
    {
      "anonymous": false,
      "inputs": [
        {
          "indexed": false,
          "internalType": "address",
          "name": "account",
          "type": "address"
        }
      ],
      "name": "Unpaused",
      "type": "event"
    },
    {
      "inputs": [],
      "name": "bookKeeper",
      "outputs": [
        {
          "internalType": "contract IBookKeeper",
          "name": "",
          "type": "address"
        }
      ],
      "stateMutability": "view",
      "type": "function"
    },
    {
      "inputs": [],
      "name": "cage",
      "outputs": [],
      "stateMutability": "nonpayable",
      "type": "function"
    },
    {
      "inputs": [],
      "name": "collateralPoolId",
      "outputs": [
        {
          "internalType": "bytes32",
          "name": "",
          "type": "bytes32"
        }
      ],
      "stateMutability": "view",
      "type": "function"
    },
    {
      "inputs": [],
      "name": "collateralToken",
      "outputs": [
        {
          "internalType": "address",
          "name": "",
          "type": "address"
        }
      ],
      "stateMutability": "view",
      "type": "function"
    },
    {
      "inputs": [],
      "name": "decimals",
      "outputs": [
        {
          "internalType": "uint256",
          "name": "",
          "type": "uint256"
        }
      ],
      "stateMutability": "view",
      "type": "function"
    },
    {
      "inputs": [
        {
          "internalType": "address",
          "name": "usr",
          "type": "address"
        },
        {
          "internalType": "uint256",
          "name": "wad",
          "type": "uint256"
        },
        {
          "internalType": "bytes",
          "name": "",
          "type": "bytes"
        }
      ],
      "name": "deposit",
      "outputs": [],
      "stateMutability": "payable",
      "type": "function"
    },
    {
      "inputs": [
        {
          "internalType": "address",
          "name": "_bookKeeper",
          "type": "address"
        },
        {
          "internalType": "bytes32",
          "name": "collateralPoolId_",
          "type": "bytes32"
        },
        {
          "internalType": "address",
          "name": "collateralToken_",
          "type": "address"
        }
      ],
      "name": "initialize",
      "outputs": [],
      "stateMutability": "nonpayable",
      "type": "function"
    },
    {
      "inputs": [],
      "name": "live",
      "outputs": [
        {
          "internalType": "uint256",
          "name": "",
          "type": "uint256"
        }
      ],
      "stateMutability": "view",
      "type": "function"
    },
    {
      "inputs": [
        {
          "internalType": "address",
          "name": "src",
          "type": "address"
        },
        {
          "internalType": "address",
          "name": "dst",
          "type": "address"
        },
        {
          "internalType": "int256",
          "name": "collateralValue",
          "type": "int256"
        },
        {
          "internalType": "int256",
          "name": "debtShare",
          "type": "int256"
        },
        {
          "internalType": "bytes",
          "name": "data",
          "type": "bytes"
        }
      ],
      "name": "onAdjustPosition",
      "outputs": [],
      "stateMutability": "nonpayable",
      "type": "function"
    },
    {
      "inputs": [
        {
          "internalType": "address",
          "name": "src",
          "type": "address"
        },
        {
          "internalType": "address",
          "name": "dst",
          "type": "address"
        },
        {
          "internalType": "uint256",
          "name": "wad",
          "type": "uint256"
        },
        {
          "internalType": "bytes",
          "name": "data",
          "type": "bytes"
        }
      ],
      "name": "onMoveCollateral",
      "outputs": [],
      "stateMutability": "nonpayable",
      "type": "function"
    },
    {
      "inputs": [],
      "name": "pause",
      "outputs": [],
      "stateMutability": "nonpayable",
      "type": "function"
    },
    {
      "inputs": [],
      "name": "paused",
      "outputs": [
        {
          "internalType": "bool",
          "name": "",
          "type": "bool"
        }
      ],
      "stateMutability": "view",
      "type": "function"
    },
    {
      "inputs": [],
      "name": "uncage",
      "outputs": [],
      "stateMutability": "nonpayable",
      "type": "function"
    },
    {
      "inputs": [],
      "name": "unpause",
      "outputs": [],
      "stateMutability": "nonpayable",
      "type": "function"
    },
    {
      "inputs": [
        {
          "internalType": "address",
          "name": "usr",
          "type": "address"
        },
        {
          "internalType": "uint256",
          "name": "wad",
          "type": "uint256"
        },
        {
          "internalType": "bytes",
          "name": "",
          "type": "bytes"
        }
      ],
      "name": "withdraw",
      "outputs": [],
      "stateMutability": "nonpayable",
      "type": "function"
    }
  ],
  "bytecode": "0x608060405234801561001057600080fd5b50612753806100206000396000f3fe6080604052600436106100e85760003560e01c8063957aa58c1161008a578063d63b23b211610059578063d63b23b2146103fc578063dca07dc514610411578063e3b3932a14610426578063f77c40361461043b576100e8565b8063957aa58c146102af57806399443616146102c4578063b2016bd41461036e578063d26b3e6e146103ac576100e8565b806349bdc2b8116100c657806349bdc2b8146101ca5780635c975abb1461025c57806369245009146102855780638456cb591461029a576100e8565b8063313ce567146100ed57806331f09265146101145780633f4ba83a146101b5575b600080fd5b3480156100f957600080fd5b506101026104ea565b60408051918252519081900360200190f35b34801561012057600080fd5b506101b36004803603606081101561013757600080fd5b73ffffffffffffffffffffffffffffffffffffffff8235169160208101359181019060608101604082013564010000000081111561017457600080fd5b82018360208201111561018657600080fd5b803590602001918460018302840111640100000000831117156101a857600080fd5b5090925090506104f0565b005b3480156101c157600080fd5b506101b3610734565b6101b3600480360360608110156101e057600080fd5b73ffffffffffffffffffffffffffffffffffffffff8235169160208101359181019060608101604082013564010000000081111561021d57600080fd5b82018360208201111561022f57600080fd5b8035906020019184600183028401116401000000008311171561025157600080fd5b509092509050610a82565b34801561026857600080fd5b50610271610d11565b604080519115158252519081900360200190f35b34801561029157600080fd5b506101b3610d1a565b3480156102a657600080fd5b506101b36110ff565b3480156102bb57600080fd5b5061010261144a565b3480156102d057600080fd5b506101b3600480360360808110156102e757600080fd5b73ffffffffffffffffffffffffffffffffffffffff82358116926020810135909116916040820135919081019060808101606082013564010000000081111561032f57600080fd5b82018360208201111561034157600080fd5b8035906020019184600183028401116401000000008311171561036357600080fd5b509092509050611450565b34801561037a57600080fd5b506103836114ce565b6040805173ffffffffffffffffffffffffffffffffffffffff9092168252519081900360200190f35b3480156103b857600080fd5b506101b3600480360360608110156103cf57600080fd5b5073ffffffffffffffffffffffffffffffffffffffff8135811691602081013591604090910135166114ea565b34801561040857600080fd5b506101b3611765565b34801561041d57600080fd5b50610102611b48565b34801561043257600080fd5b50610383611b4e565b34801561044757600080fd5b506101b3600480360360a081101561045e57600080fd5b73ffffffffffffffffffffffffffffffffffffffff823581169260208101359091169160408201359160608101359181019060a0810160808201356401000000008111156104ab57600080fd5b8201836020820111156104bd57600080fd5b803590602001918460018302840111640100000000831117156104df57600080fd5b509092509050611b6a565b609a5481565b6002606554141561056257604080517f08c379a000000000000000000000000000000000000000000000000000000000815260206004820152601f60248201527f5265656e7472616e637947756172643a207265656e7472616e742063616c6c00604482015290519081900360640190fd5b600260655561056f610d11565b156105db57604080517f08c379a000000000000000000000000000000000000000000000000000000000815260206004820152601060248201527f5061757361626c653a2070617573656400000000000000000000000000000000604482015290519081900360640190fd5b7f8000000000000000000000000000000000000000000000000000000000000000831061066957604080517f08c379a000000000000000000000000000000000000000000000000000000000815260206004820152601560248201527f546f6b656e416461707465722f6f766572666c6f770000000000000000000000604482015290519081900360640190fd5b609754609854604080517fd295927a000000000000000000000000000000000000000000000000000000008152600481019290925233602483015260008681036044840152905173ffffffffffffffffffffffffffffffffffffffff9093169263d295927a92606480820193929182900301818387803b1580156106ec57600080fd5b505af1158015610700573d6000803e3d6000fd5b5050609954610729925073ffffffffffffffffffffffffffffffffffffffff1690508585611be9565b505060016065555050565b609754604080517fc8cc243f000000000000000000000000000000000000000000000000000000008152905160009273ffffffffffffffffffffffffffffffffffffffff169163c8cc243f916004808301926020929190829003018186803b15801561079f57600080fd5b505afa1580156107b3573d6000803e3d6000fd5b505050506040513d60208110156107c957600080fd5b5051604080517fe58378bb000000000000000000000000000000000000000000000000000000008152905191925073ffffffffffffffffffffffffffffffffffffffff8316916391d1485491839163e58378bb91600480820192602092909190829003018186803b15801561083d57600080fd5b505afa158015610851573d6000803e3d6000fd5b505050506040513d602081101561086757600080fd5b5051604080517fffffffff0000000000000000000000000000000000000000000000000000000060e085901b1681526004810192909252336024830152516044808301926020929190829003018186803b1580156108c457600080fd5b505afa1580156108d8573d6000803e3d6000fd5b505050506040513d60208110156108ee57600080fd5b505180610a0c57508073ffffffffffffffffffffffffffffffffffffffff166391d148548273ffffffffffffffffffffffffffffffffffffffff1663b536818a6040518163ffffffff1660e01b815260040160206040518083038186803b15801561095857600080fd5b505afa15801561096c573d6000803e3d6000fd5b505050506040513d602081101561098257600080fd5b5051604080517fffffffff0000000000000000000000000000000000000000000000000000000060e085901b1681526004810192909252336024830152516044808301926020929190829003018186803b1580156109df57600080fd5b505afa1580156109f3573d6000803e3d6000fd5b505050506040513d6020811015610a0957600080fd5b50515b610a7757604080517f08c379a000000000000000000000000000000000000000000000000000000000815260206004820152601760248201527f21286f776e6572526f6c65206f7220676f76526f6c6529000000000000000000604482015290519081900360640190fd5b610a7f611dc6565b50565b60026065541415610af457604080517f08c379a000000000000000000000000000000000000000000000000000000000815260206004820152601f60248201527f5265656e7472616e637947756172643a207265656e7472616e742063616c6c00604482015290519081900360640190fd5b6002606555610b01610d11565b15610b6d57604080517f08c379a000000000000000000000000000000000000000000000000000000000815260206004820152601060248201527f5061757361626c653a2070617573656400000000000000000000000000000000604482015290519081900360640190fd5b609b54600114610bde57604080517f08c379a000000000000000000000000000000000000000000000000000000000815260206004820152601560248201527f546f6b656e416461707465722f6e6f742d6c6976650000000000000000000000604482015290519081900360640190fd5b6000831215610c4e57604080517f08c379a000000000000000000000000000000000000000000000000000000000815260206004820152601560248201527f546f6b656e416461707465722f6f766572666c6f770000000000000000000000604482015290519081900360640190fd5b609754609854604080517fd295927a000000000000000000000000000000000000000000000000000000008152600481019290925273ffffffffffffffffffffffffffffffffffffffff878116602484015260448301879052905192169163d295927a9160648082019260009290919082900301818387803b158015610cd357600080fd5b505af1158015610ce7573d6000803e3d6000fd5b5050609954610729925073ffffffffffffffffffffffffffffffffffffffff169050333086611eb4565b60335460ff1690565b609754604080517fc8cc243f000000000000000000000000000000000000000000000000000000008152905160009273ffffffffffffffffffffffffffffffffffffffff169163c8cc243f916004808301926020929190829003018186803b158015610d8557600080fd5b505afa158015610d99573d6000803e3d6000fd5b505050506040513d6020811015610daf57600080fd5b5051604080517fe58378bb000000000000000000000000000000000000000000000000000000008152905191925073ffffffffffffffffffffffffffffffffffffffff8316916391d1485491839163e58378bb91600480820192602092909190829003018186803b158015610e2357600080fd5b505afa158015610e37573d6000803e3d6000fd5b505050506040513d6020811015610e4d57600080fd5b5051604080517fffffffff0000000000000000000000000000000000000000000000000000000060e085901b1681526004810192909252336024830152516044808301926020929190829003018186803b158015610eaa57600080fd5b505afa158015610ebe573d6000803e3d6000fd5b505050506040513d6020811015610ed457600080fd5b505180610ff257508073ffffffffffffffffffffffffffffffffffffffff166391d148548273ffffffffffffffffffffffffffffffffffffffff1663d7a47a696040518163ffffffff1660e01b815260040160206040518083038186803b158015610f3e57600080fd5b505afa158015610f52573d6000803e3d6000fd5b505050506040513d6020811015610f6857600080fd5b5051604080517fffffffff0000000000000000000000000000000000000000000000000000000060e085901b1681526004810192909252336024830152516044808301926020929190829003018186803b158015610fc557600080fd5b505afa158015610fd9573d6000803e3d6000fd5b505050506040513d6020811015610fef57600080fd5b50515b61105d57604080517f08c379a000000000000000000000000000000000000000000000000000000000815260206004820152601f60248201527f21286f776e6572526f6c65206f722073686f7753746f70706572526f6c652900604482015290519081900360640190fd5b609b546001146110ce57604080517f08c379a000000000000000000000000000000000000000000000000000000000815260206004820152601560248201527f546f6b656e416461707465722f6e6f742d6c6976650000000000000000000000604482015290519081900360640190fd5b6000609b8190556040517fbf689b4aae670d200b1d2b971ace2e0c3bef88a9c5e93f36705c7b86eab630b99190a150565b609754604080517fc8cc243f000000000000000000000000000000000000000000000000000000008152905160009273ffffffffffffffffffffffffffffffffffffffff169163c8cc243f916004808301926020929190829003018186803b15801561116a57600080fd5b505afa15801561117e573d6000803e3d6000fd5b505050506040513d602081101561119457600080fd5b5051604080517fe58378bb000000000000000000000000000000000000000000000000000000008152905191925073ffffffffffffffffffffffffffffffffffffffff8316916391d1485491839163e58378bb91600480820192602092909190829003018186803b15801561120857600080fd5b505afa15801561121c573d6000803e3d6000fd5b505050506040513d602081101561123257600080fd5b5051604080517fffffffff0000000000000000000000000000000000000000000000000000000060e085901b1681526004810192909252336024830152516044808301926020929190829003018186803b15801561128f57600080fd5b505afa1580156112a3573d6000803e3d6000fd5b505050506040513d60208110156112b957600080fd5b5051806113d757508073ffffffffffffffffffffffffffffffffffffffff166391d148548273ffffffffffffffffffffffffffffffffffffffff1663b536818a6040518163ffffffff1660e01b815260040160206040518083038186803b15801561132357600080fd5b505afa158015611337573d6000803e3d6000fd5b505050506040513d602081101561134d57600080fd5b5051604080517fffffffff0000000000000000000000000000000000000000000000000000000060e085901b1681526004810192909252336024830152516044808301926020929190829003018186803b1580156113aa57600080fd5b505afa1580156113be573d6000803e3d6000fd5b505050506040513d60208110156113d457600080fd5b50515b61144257604080517f08c379a000000000000000000000000000000000000000000000000000000000815260206004820152601760248201527f21286f776e6572526f6c65206f7220676f76526f6c6529000000000000000000604482015290519081900360640190fd5b610a7f61209a565b609b5481565b600260655414156114c257604080517f08c379a000000000000000000000000000000000000000000000000000000000815260206004820152601f60248201527f5265656e7472616e637947756172643a207265656e7472616e742063616c6c00604482015290519081900360640190fd5b50506001606555505050565b60995473ffffffffffffffffffffffffffffffffffffffff1681565b600054610100900460ff16806115035750611503612162565b80611511575060005460ff16155b611566576040517f08c379a000000000000000000000000000000000000000000000000000000000815260040180806020018281038252602e8152602001806126f0602e913960400191505060405180910390fd5b600054610100900460ff161580156115cc57600080547fffffffffffffffffffffffffffffffffffffffffffffffffffffffffffffff007fffffffffffffffffffffffffffffffffffffffffffffffffffffffffffff00ff909116610100171660011790555b6115d4612173565b6115dc612296565b6001609b556097805473ffffffffffffffffffffffffffffffffffffffff8087167fffffffffffffffffffffffff00000000000000000000000000000000000000009283161790925560988590556099805485841692169190911790819055604080517f313ce5670000000000000000000000000000000000000000000000000000000081529051919092169163313ce567916004828101926020929190829003018186803b15801561168e57600080fd5b505afa1580156116a2573d6000803e3d6000fd5b505050506040513d60208110156116b857600080fd5b505160ff16609a81905560121461173057604080517f08c379a000000000000000000000000000000000000000000000000000000000815260206004820152601f60248201527f546f6b656e416461707465722f6261642d746f6b656e2d646563696d616c7300604482015290519081900360640190fd5b801561175f57600080547fffffffffffffffffffffffffffffffffffffffffffffffffffffffffffff00ff1690555b50505050565b609754604080517fc8cc243f000000000000000000000000000000000000000000000000000000008152905160009273ffffffffffffffffffffffffffffffffffffffff169163c8cc243f916004808301926020929190829003018186803b1580156117d057600080fd5b505afa1580156117e4573d6000803e3d6000fd5b505050506040513d60208110156117fa57600080fd5b5051604080517fe58378bb000000000000000000000000000000000000000000000000000000008152905191925073ffffffffffffffffffffffffffffffffffffffff8316916391d1485491839163e58378bb91600480820192602092909190829003018186803b15801561186e57600080fd5b505afa158015611882573d6000803e3d6000fd5b505050506040513d602081101561189857600080fd5b5051604080517fffffffff0000000000000000000000000000000000000000000000000000000060e085901b1681526004810192909252336024830152516044808301926020929190829003018186803b1580156118f557600080fd5b505afa158015611909573d6000803e3d6000fd5b505050506040513d602081101561191f57600080fd5b505180611a3d57508073ffffffffffffffffffffffffffffffffffffffff166391d148548273ffffffffffffffffffffffffffffffffffffffff1663d7a47a696040518163ffffffff1660e01b815260040160206040518083038186803b15801561198957600080fd5b505afa15801561199d573d6000803e3d6000fd5b505050506040513d60208110156119b357600080fd5b5051604080517fffffffff0000000000000000000000000000000000000000000000000000000060e085901b1681526004810192909252336024830152516044808301926020929190829003018186803b158015611a1057600080fd5b505afa158015611a24573d6000803e3d6000fd5b505050506040513d6020811015611a3a57600080fd5b50515b611aa857604080517f08c379a000000000000000000000000000000000000000000000000000000000815260206004820152601f60248201527f21286f776e6572526f6c65206f722073686f7753746f70706572526f6c652900604482015290519081900360640190fd5b609b5415611b1757604080517f08c379a000000000000000000000000000000000000000000000000000000000815260206004820152601660248201527f546f6b656e416461707465722f6e6f742d636167656400000000000000000000604482015290519081900360640190fd5b6001609b556040517f1868a6ced217213f36be87ba9aee25cde5381b42e85c8f88e73b18772c0bd07390600090a150565b60985481565b60975473ffffffffffffffffffffffffffffffffffffffff1681565b60026065541415611bdc57604080517f08c379a000000000000000000000000000000000000000000000000000000000815260206004820152601f60248201527f5265656e7472616e637947756172643a207265656e7472616e742063616c6c00604482015290519081900360640190fd5b5050600160655550505050565b6040805173ffffffffffffffffffffffffffffffffffffffff8481166024830152604480830185905283518084039091018152606490920183526020820180517bffffffffffffffffffffffffffffffffffffffffffffffffffffffff167fa9059cbb00000000000000000000000000000000000000000000000000000000178152925182516000946060949389169392918291908083835b60208310611cbf57805182527fffffffffffffffffffffffffffffffffffffffffffffffffffffffffffffffe09092019160209182019101611c82565b6001836020036101000a0380198251168184511680821785525050505050509050019150506000604051808303816000865af19150503d8060008114611d21576040519150601f19603f3d011682016040523d82523d6000602084013e611d26565b606091505b5091509150818015611d54575080511580611d545750808060200190516020811015611d5157600080fd5b50515b611dbf57604080517f08c379a000000000000000000000000000000000000000000000000000000000815260206004820152600d60248201527f21736166655472616e7366657200000000000000000000000000000000000000604482015290519081900360640190fd5b5050505050565b611dce610d11565b611e3957604080517f08c379a000000000000000000000000000000000000000000000000000000000815260206004820152601460248201527f5061757361626c653a206e6f7420706175736564000000000000000000000000604482015290519081900360640190fd5b603380547fffffffffffffffffffffffffffffffffffffffffffffffffffffffffffffff001690557f5db9ee0a495bf2e6ff9c91a7834c1ba4fdd244a5e8aa4e537bd38aeae4b073aa611e8a612380565b6040805173ffffffffffffffffffffffffffffffffffffffff9092168252519081900360200190a1565b6040805173ffffffffffffffffffffffffffffffffffffffff85811660248301528481166044830152606480830185905283518084039091018152608490920183526020820180517bffffffffffffffffffffffffffffffffffffffffffffffffffffffff167f23b872dd0000000000000000000000000000000000000000000000000000000017815292518251600094606094938a169392918291908083835b60208310611f9257805182527fffffffffffffffffffffffffffffffffffffffffffffffffffffffffffffffe09092019160209182019101611f55565b6001836020036101000a0380198251168184511680821785525050505050509050019150506000604051808303816000865af19150503d8060008114611ff4576040519150601f19603f3d011682016040523d82523d6000602084013e611ff9565b606091505b5091509150818015612027575080511580612027575080806020019051602081101561202457600080fd5b50515b61209257604080517f08c379a000000000000000000000000000000000000000000000000000000000815260206004820152601160248201527f21736166655472616e7366657246726f6d000000000000000000000000000000604482015290519081900360640190fd5b505050505050565b6120a2610d11565b1561210e57604080517f08c379a000000000000000000000000000000000000000000000000000000000815260206004820152601060248201527f5061757361626c653a2070617573656400000000000000000000000000000000604482015290519081900360640190fd5b603380547fffffffffffffffffffffffffffffffffffffffffffffffffffffffffffffff001660011790557f62e78cea01bee320cd4e420270b5ea74000d11b0c9f74754ebdbfc544b05a258611e8a612380565b600061216d30612384565b15905090565b600054610100900460ff168061218c575061218c612162565b8061219a575060005460ff16155b6121ef576040517f08c379a000000000000000000000000000000000000000000000000000000000815260040180806020018281038252602e8152602001806126f0602e913960400191505060405180910390fd5b600054610100900460ff1615801561225557600080547fffffffffffffffffffffffffffffffffffffffffffffffffffffffffffffff007fffffffffffffffffffffffffffffffffffffffffffffffffffffffffffff00ff909116610100171660011790555b61225d61238a565b61226561249c565b8015610a7f57600080547fffffffffffffffffffffffffffffffffffffffffffffffffffffffffffff00ff16905550565b600054610100900460ff16806122af57506122af612162565b806122bd575060005460ff16155b612312576040517f08c379a000000000000000000000000000000000000000000000000000000000815260040180806020018281038252602e8152602001806126f0602e913960400191505060405180910390fd5b600054610100900460ff1615801561237857600080547fffffffffffffffffffffffffffffffffffffffffffffffffffffffffffffff007fffffffffffffffffffffffffffffffffffffffffffffffffffffffffffff00ff909116610100171660011790555b6122656125d7565b3390565b3b151590565b600054610100900460ff16806123a357506123a3612162565b806123b1575060005460ff16155b612406576040517f08c379a000000000000000000000000000000000000000000000000000000000815260040180806020018281038252602e8152602001806126f0602e913960400191505060405180910390fd5b600054610100900460ff1615801561226557600080547fffffffffffffffffffffffffffffffffffffffffffffffffffffffffffffff007fffffffffffffffffffffffffffffffffffffffffffffffffffffffffffff00ff909116610100171660011790558015610a7f57600080547fffffffffffffffffffffffffffffffffffffffffffffffffffffffffffff00ff16905550565b600054610100900460ff16806124b557506124b5612162565b806124c3575060005460ff16155b612518576040517f08c379a000000000000000000000000000000000000000000000000000000000815260040180806020018281038252602e8152602001806126f0602e913960400191505060405180910390fd5b600054610100900460ff1615801561257e57600080547fffffffffffffffffffffffffffffffffffffffffffffffffffffffffffffff007fffffffffffffffffffffffffffffffffffffffffffffffffffffffffffff00ff909116610100171660011790555b603380547fffffffffffffffffffffffffffffffffffffffffffffffffffffffffffffff001690558015610a7f57600080547fffffffffffffffffffffffffffffffffffffffffffffffffffffffffffff00ff16905550565b600054610100900460ff16806125f057506125f0612162565b806125fe575060005460ff16155b612653576040517f08c379a000000000000000000000000000000000000000000000000000000000815260040180806020018281038252602e8152602001806126f0602e913960400191505060405180910390fd5b600054610100900460ff161580156126b957600080547fffffffffffffffffffffffffffffffffffffffffffffffffffffffffffffff007fffffffffffffffffffffffffffffffffffffffffffffffffffffffffffff00ff909116610100171660011790555b60016065558015610a7f57600080547fffffffffffffffffffffffffffffffffffffffffffffffffffffffffffff00ff1690555056fe496e697469616c697a61626c653a20636f6e747261637420697320616c726561647920696e697469616c697a6564a2646970667358221220df4431ccfc564c899c228b061fddbcd1860350fc979c3669d74bf70ec5131f5264736f6c634300060c0033",
  "linkReferences": {},
  "deployedLinkReferences": {}
}