{
  "_format": "hh-sol-artifact-1",
  "contractName": "IbTokenAdapter",
  "sourceName": "contracts/stablecoin/core/adapters/FarmableTokenAdapter/IbTokenAdapter.sol",
  "abi": [
    {
      "anonymous": false,
      "inputs": [],
      "name": "LogCage",
      "type": "event"
    },
    {
      "anonymous": false,
      "inputs": [
        {
          "indexed": false,
          "internalType": "uint256",
          "name": "_val",
          "type": "uint256"
        }
      ],
      "name": "LogDeposit",
      "type": "event"
    },
    {
      "anonymous": false,
      "inputs": [
        {
          "indexed": true,
          "internalType": "address",
          "name": "_caller",
          "type": "address"
        },
        {
          "indexed": false,
          "internalType": "address",
          "name": "_to",
          "type": "address"
        }
      ],
      "name": "LogEmergencyWithdraw",
      "type": "event"
    },
    {
      "anonymous": false,
      "inputs": [
        {
          "indexed": true,
          "internalType": "address",
          "name": "_src",
          "type": "address"
        },
        {
          "indexed": true,
          "internalType": "address",
          "name": "_dst",
          "type": "address"
        },
        {
          "indexed": false,
          "internalType": "uint256",
          "name": "_wad",
          "type": "uint256"
        }
      ],
      "name": "LogMoveStake",
      "type": "event"
    },
    {
      "anonymous": false,
      "inputs": [
        {
          "indexed": true,
          "internalType": "address",
          "name": "_caller",
          "type": "address"
        },
        {
          "indexed": false,
          "internalType": "address",
          "name": "_treasuryAccount",
          "type": "address"
        }
      ],
      "name": "LogSetTreasuryAccount",
      "type": "event"
    },
    {
      "anonymous": false,
      "inputs": [
        {
          "indexed": true,
          "internalType": "address",
          "name": "_caller",
          "type": "address"
        },
        {
          "indexed": false,
          "internalType": "uint256",
          "name": "_treasuryFeeBps",
          "type": "uint256"
        }
      ],
      "name": "LogSetTreasuryFeeBps",
      "type": "event"
    },
    {
      "anonymous": false,
      "inputs": [],
      "name": "LogUncage",
      "type": "event"
    },
    {
      "anonymous": false,
      "inputs": [
        {
          "indexed": false,
          "internalType": "uint256",
          "name": "_val",
          "type": "uint256"
        }
      ],
      "name": "LogWithdraw",
      "type": "event"
    },
    {
      "anonymous": false,
      "inputs": [
        {
          "indexed": false,
          "internalType": "address",
          "name": "account",
          "type": "address"
        }
      ],
      "name": "Paused",
      "type": "event"
    },
    {
      "anonymous": false,
      "inputs": [
        {
          "indexed": false,
          "internalType": "address",
          "name": "account",
          "type": "address"
        }
      ],
      "name": "Unpaused",
      "type": "event"
    },
    {
      "inputs": [],
      "name": "accRewardBalance",
      "outputs": [
        {
          "internalType": "uint256",
          "name": "",
          "type": "uint256"
        }
      ],
      "stateMutability": "view",
      "type": "function"
    },
    {
      "inputs": [],
      "name": "accRewardPerShare",
      "outputs": [
        {
          "internalType": "uint256",
          "name": "",
          "type": "uint256"
        }
      ],
      "stateMutability": "view",
      "type": "function"
    },
    {
      "inputs": [],
      "name": "bookKeeper",
      "outputs": [
        {
          "internalType": "contract IBookKeeper",
          "name": "",
          "type": "address"
        }
      ],
      "stateMutability": "view",
      "type": "function"
    },
    {
      "inputs": [],
      "name": "cage",
      "outputs": [],
      "stateMutability": "nonpayable",
      "type": "function"
    },
    {
      "inputs": [],
      "name": "collateralPoolId",
      "outputs": [
        {
          "internalType": "bytes32",
          "name": "",
          "type": "bytes32"
        }
      ],
      "stateMutability": "view",
      "type": "function"
    },
    {
      "inputs": [],
      "name": "collateralToken",
      "outputs": [
        {
          "internalType": "address",
          "name": "",
          "type": "address"
        }
      ],
      "stateMutability": "view",
      "type": "function"
    },
    {
      "inputs": [],
      "name": "decimals",
      "outputs": [
        {
          "internalType": "uint256",
          "name": "",
          "type": "uint256"
        }
      ],
      "stateMutability": "view",
      "type": "function"
    },
    {
      "inputs": [
        {
          "internalType": "address",
          "name": "_positionAddress",
          "type": "address"
        },
        {
          "internalType": "uint256",
          "name": "_amount",
          "type": "uint256"
        },
        {
          "internalType": "bytes",
          "name": "_data",
          "type": "bytes"
        }
      ],
      "name": "deposit",
      "outputs": [],
      "stateMutability": "payable",
      "type": "function"
    },
    {
      "inputs": [
        {
          "internalType": "address",
          "name": "_to",
          "type": "address"
        }
      ],
      "name": "emergencyWithdraw",
      "outputs": [],
      "stateMutability": "nonpayable",
      "type": "function"
    },
    {
      "inputs": [],
      "name": "fairlaunch",
      "outputs": [
        {
          "internalType": "contract ILaunch",
          "name": "",
          "type": "address"
        }
      ],
      "stateMutability": "view",
      "type": "function"
    },
    {
      "inputs": [
        {
          "internalType": "address",
          "name": "_bookKeeper",
          "type": "address"
        },
        {
          "internalType": "bytes32",
          "name": "_collateralPoolId",
          "type": "bytes32"
        },
        {
          "internalType": "address",
          "name": "_collateralToken",
          "type": "address"
        },
        {
          "internalType": "address",
          "name": "_rewardToken",
          "type": "address"
        },
        {
          "internalType": "address",
          "name": "_fairlaunch",
          "type": "address"
        },
        {
          "internalType": "uint256",
          "name": "_pid",
          "type": "uint256"
        },
        {
          "internalType": "address",
          "name": "_shield",
          "type": "address"
        },
        {
          "internalType": "address",
          "name": "_timelock",
          "type": "address"
        },
        {
          "internalType": "uint256",
          "name": "_treasuryFeeBps",
          "type": "uint256"
        },
        {
          "internalType": "address",
          "name": "_treasuryAccount",
          "type": "address"
        },
        {
          "internalType": "address",
          "name": "_positionManager",
          "type": "address"
        }
      ],
      "name": "initialize",
      "outputs": [],
      "stateMutability": "nonpayable",
      "type": "function"
    },
    {
      "inputs": [],
      "name": "live",
      "outputs": [
        {
          "internalType": "uint256",
          "name": "",
          "type": "uint256"
        }
      ],
      "stateMutability": "view",
      "type": "function"
    },
    {
      "inputs": [
        {
          "internalType": "address",
          "name": "_source",
          "type": "address"
        },
        {
          "internalType": "address",
          "name": "_destination",
          "type": "address"
        },
        {
          "internalType": "uint256",
          "name": "_share",
          "type": "uint256"
        },
        {
          "internalType": "bytes",
          "name": "_data",
          "type": "bytes"
        }
      ],
      "name": "moveStake",
      "outputs": [],
      "stateMutability": "nonpayable",
      "type": "function"
    },
    {
      "inputs": [],
      "name": "netAssetPerShare",
      "outputs": [
        {
          "internalType": "uint256",
          "name": "",
          "type": "uint256"
        }
      ],
      "stateMutability": "view",
      "type": "function"
    },
    {
      "inputs": [],
      "name": "netAssetValuation",
      "outputs": [
        {
          "internalType": "uint256",
          "name": "",
          "type": "uint256"
        }
      ],
      "stateMutability": "view",
      "type": "function"
    },
    {
      "inputs": [
        {
          "internalType": "address",
          "name": "_positionAddress",
          "type": "address"
        }
      ],
      "name": "netPendingRewards",
      "outputs": [
        {
          "internalType": "uint256",
          "name": "",
          "type": "uint256"
        }
      ],
      "stateMutability": "view",
      "type": "function"
    },
    {
      "inputs": [
        {
          "internalType": "address",
          "name": "_source",
          "type": "address"
        },
        {
          "internalType": "address",
          "name": "_destination",
          "type": "address"
        },
        {
          "internalType": "int256",
          "name": "_collateralValue",
          "type": "int256"
        },
        {
          "internalType": "int256",
          "name": "",
          "type": "int256"
        },
        {
          "internalType": "bytes",
          "name": "_data",
          "type": "bytes"
        }
      ],
      "name": "onAdjustPosition",
      "outputs": [],
      "stateMutability": "nonpayable",
      "type": "function"
    },
    {
      "inputs": [
        {
          "internalType": "address",
          "name": "_source",
          "type": "address"
        },
        {
          "internalType": "address",
          "name": "_destination",
          "type": "address"
        },
        {
          "internalType": "uint256",
          "name": "_share",
          "type": "uint256"
        },
        {
          "internalType": "bytes",
          "name": "_data",
          "type": "bytes"
        }
      ],
      "name": "onMoveCollateral",
      "outputs": [],
      "stateMutability": "nonpayable",
      "type": "function"
    },
    {
      "inputs": [],
      "name": "pause",
      "outputs": [],
      "stateMutability": "nonpayable",
      "type": "function"
    },
    {
      "inputs": [],
      "name": "paused",
      "outputs": [
        {
          "internalType": "bool",
          "name": "",
          "type": "bool"
        }
      ],
      "stateMutability": "view",
      "type": "function"
    },
    {
      "inputs": [
        {
          "internalType": "address",
          "name": "_positionAddress",
          "type": "address"
        }
      ],
      "name": "pendingRewards",
      "outputs": [
        {
          "internalType": "uint256",
          "name": "",
          "type": "uint256"
        }
      ],
      "stateMutability": "view",
      "type": "function"
    },
    {
      "inputs": [],
      "name": "pid",
      "outputs": [
        {
          "internalType": "uint256",
          "name": "",
          "type": "uint256"
        }
      ],
      "stateMutability": "view",
      "type": "function"
    },
    {
      "inputs": [],
      "name": "positionManager",
      "outputs": [
        {
          "internalType": "contract IManager",
          "name": "",
          "type": "address"
        }
      ],
      "stateMutability": "view",
      "type": "function"
    },
    {
      "inputs": [],
      "name": "refreshApproval",
      "outputs": [],
      "stateMutability": "nonpayable",
      "type": "function"
    },
    {
      "inputs": [
        {
          "internalType": "address",
          "name": "",
          "type": "address"
        }
      ],
      "name": "rewardDebts",
      "outputs": [
        {
          "internalType": "uint256",
          "name": "",
          "type": "uint256"
        }
      ],
      "stateMutability": "view",
      "type": "function"
    },
    {
      "inputs": [],
      "name": "rewardToken",
      "outputs": [
        {
          "internalType": "contract IToken",
          "name": "",
          "type": "address"
        }
      ],
      "stateMutability": "view",
      "type": "function"
    },
    {
      "inputs": [
        {
          "internalType": "address",
          "name": "_treasuryAccount",
          "type": "address"
        }
      ],
      "name": "setTreasuryAccount",
      "outputs": [],
      "stateMutability": "nonpayable",
      "type": "function"
    },
    {
      "inputs": [
        {
          "internalType": "uint256",
          "name": "_treasuryFeeBps",
          "type": "uint256"
        }
      ],
      "name": "setTreasuryFeeBps",
      "outputs": [],
      "stateMutability": "nonpayable",
      "type": "function"
    },
    {
      "inputs": [],
      "name": "shield",
      "outputs": [
        {
          "internalType": "contract IShield",
          "name": "",
          "type": "address"
        }
      ],
      "stateMutability": "view",
      "type": "function"
    },
    {
      "inputs": [
        {
          "internalType": "address",
          "name": "",
          "type": "address"
        }
      ],
      "name": "stake",
      "outputs": [
        {
          "internalType": "uint256",
          "name": "",
          "type": "uint256"
        }
      ],
      "stateMutability": "view",
      "type": "function"
    },
    {
      "inputs": [],
      "name": "timelock",
      "outputs": [
        {
          "internalType": "contract ITimeLock",
          "name": "",
          "type": "address"
        }
      ],
      "stateMutability": "view",
      "type": "function"
    },
    {
      "inputs": [],
      "name": "totalShare",
      "outputs": [
        {
          "internalType": "uint256",
          "name": "",
          "type": "uint256"
        }
      ],
      "stateMutability": "view",
      "type": "function"
    },
    {
      "inputs": [],
      "name": "treasuryAccount",
      "outputs": [
        {
          "internalType": "address",
          "name": "",
          "type": "address"
        }
      ],
      "stateMutability": "view",
      "type": "function"
    },
    {
      "inputs": [],
      "name": "treasuryFeeBps",
      "outputs": [
        {
          "internalType": "uint256",
          "name": "",
          "type": "uint256"
        }
      ],
      "stateMutability": "view",
      "type": "function"
    },
    {
      "inputs": [],
      "name": "uncage",
      "outputs": [],
      "stateMutability": "nonpayable",
      "type": "function"
    },
    {
      "inputs": [],
      "name": "unpause",
      "outputs": [],
      "stateMutability": "nonpayable",
      "type": "function"
    },
    {
      "inputs": [
        {
          "internalType": "address",
          "name": "_usr",
          "type": "address"
        },
        {
          "internalType": "uint256",
          "name": "_amount",
          "type": "uint256"
        },
        {
          "internalType": "bytes",
          "name": "",
          "type": "bytes"
        }
      ],
      "name": "withdraw",
      "outputs": [],
      "stateMutability": "nonpayable",
      "type": "function"
    }
  ],
  "bytecode": "0x608060405234801561001057600080fd5b50615e6880620000216000396000f3fe60806040526004361061026a5760003560e01c80638217b84611610153578063d33219b4116100cb578063e80cfa5e1161007f578063f106845411610064578063f10684541461094d578063f77c403614610962578063f7c618c114610a115761026a565b8063e80cfa5e14610923578063e9592780146109385761026a565b8063d886f8a2116100b0578063d886f8a2146108b9578063dca07dc5146108f9578063e3b3932a1461090e5761026a565b8063d33219b41461088f578063d63b23b2146108a45761026a565b8063957aa58c11610122578063a3b1513811610107578063a3b15138146107bb578063b2016bd414610865578063bf33a1f51461087a5761026a565b8063957aa58c146106fc57806399443616146107115761026a565b80638217b846146106a85780638456cb59146106bd578063939d6237146106d2578063944eef42146106e75761026a565b8063339b2cff116101e65780635c975abb116101b55780636ff1c9bc1161019a5780636ff1c9bc1461063e57806370d39cff1461067e578063791b98bc146106935761026a565b80635c975abb1461060057806369245009146106295761026a565b8063339b2cff146105065780633e3be859146105445780633f4ba83a1461055957806349bdc2b81461056e5761026a565b8063264762041161023d57806331d7a2621161022257806331d7a262146103fd57806331f092651461043d578063331fb00f146104dc5761026a565b806326476204146103a8578063313ce567146103e85761026a565b806301f7f89f1461026f578063026c4207146102c15780630ea040d0146102d657806323905f6314610316575b600080fd5b34801561027b57600080fd5b506102af6004803603602081101561029257600080fd5b503573ffffffffffffffffffffffffffffffffffffffff16610a26565b60408051918252519081900360200190f35b3480156102cd57600080fd5b506102af610ae1565b3480156102e257600080fd5b506102af600480360360208110156102f957600080fd5b503573ffffffffffffffffffffffffffffffffffffffff16610ae7565b34801561032257600080fd5b506103a6600480360361016081101561033a57600080fd5b5073ffffffffffffffffffffffffffffffffffffffff813581169160208101359160408201358116916060810135821691608082013581169160a08101359160c082013581169160e0810135821691610100820135916101208101358216916101409091013516610af9565b005b3480156103b457600080fd5b506102af600480360360208110156103cb57600080fd5b503573ffffffffffffffffffffffffffffffffffffffff1661140e565b3480156103f457600080fd5b506102af611420565b34801561040957600080fd5b506102af6004803603602081101561042057600080fd5b503573ffffffffffffffffffffffffffffffffffffffff16611426565b34801561044957600080fd5b506103a66004803603606081101561046057600080fd5b73ffffffffffffffffffffffffffffffffffffffff8235169160208101359181019060608101604082013564010000000081111561049d57600080fd5b8201836020820111156104af57600080fd5b803590602001918460018302840111640100000000831117156104d157600080fd5b5090925090506114db565b3480156104e857600080fd5b506103a6600480360360208110156104ff57600080fd5b5035611688565b34801561051257600080fd5b5061051b6119ba565b6040805173ffffffffffffffffffffffffffffffffffffffff9092168252519081900360200190f35b34801561055057600080fd5b506102af6119d6565b34801561056557600080fd5b506103a66119dc565b6103a66004803603606081101561058457600080fd5b73ffffffffffffffffffffffffffffffffffffffff823516916020810135918101906060810160408201356401000000008111156105c157600080fd5b8201836020820111156105d357600080fd5b803590602001918460018302840111640100000000831117156105f557600080fd5b509092509050611d2a565b34801561060c57600080fd5b50610615611e21565b604080519115158252519081900360200190f35b34801561063557600080fd5b506103a6611e2b565b34801561064a57600080fd5b506103a66004803603602081101561066157600080fd5b503573ffffffffffffffffffffffffffffffffffffffff166122bc565b34801561068a57600080fd5b5061051b612496565b34801561069f57600080fd5b5061051b6124b2565b3480156106b457600080fd5b506102af6124ce565b3480156106c957600080fd5b506103a66124d4565b3480156106de57600080fd5b506102af61281f565b3480156106f357600080fd5b5061051b612825565b34801561070857600080fd5b506102af612841565b34801561071d57600080fd5b506103a66004803603608081101561073457600080fd5b73ffffffffffffffffffffffffffffffffffffffff82358116926020810135909116916040820135919081019060808101606082013564010000000081111561077c57600080fd5b82018360208201111561078e57600080fd5b803590602001918460018302840111640100000000831117156107b057600080fd5b509092509050612847565b3480156107c757600080fd5b506103a6600480360360808110156107de57600080fd5b73ffffffffffffffffffffffffffffffffffffffff82358116926020810135909116916040820135919081019060808101606082013564010000000081111561082657600080fd5b82018360208201111561083857600080fd5b8035906020019184600183028401116401000000008311171561085a57600080fd5b509092509050612958565b34801561087157600080fd5b5061051b612a43565b34801561088657600080fd5b506103a6612a5f565b34801561089b57600080fd5b5061051b612d47565b3480156108b057600080fd5b506103a6612d63565b3480156108c557600080fd5b506103a6600480360360208110156108dc57600080fd5b503573ffffffffffffffffffffffffffffffffffffffff166130c9565b34801561090557600080fd5b506102af61344a565b34801561091a57600080fd5b5061051b613450565b34801561092f57600080fd5b506102af61346c565b34801561094457600080fd5b506102af613472565b34801561095957600080fd5b506102af6134a8565b34801561096e57600080fd5b506103a6600480360360a081101561098557600080fd5b73ffffffffffffffffffffffffffffffffffffffff823581169260208101359091169160408201359160608101359181019060a0810160808201356401000000008111156109d257600080fd5b8201836020820111156109e457600080fd5b80359060200191846001830284011164010000000083111715610a0657600080fd5b5090925090506134ae565b348015610a1d57600080fd5b5061051b6135ca565b609754609a54604080517fb0ab8c52000000000000000000000000000000000000000000000000000000008152600481019290925230602483015251600092610adb92859273ffffffffffffffffffffffffffffffffffffffff9092169163b0ab8c5291604480820192602092909190829003018186803b158015610aaa57600080fd5b505afa158015610abe573d6000803e3d6000fd5b505050506040513d6020811015610ad457600080fd5b50516135e6565b92915050565b60a55481565b60a76020526000908152604090205481565b600054610100900460ff1680610b125750610b12613623565b80610b20575060005460ff16155b610b75576040517f08c379a000000000000000000000000000000000000000000000000000000000815260040180806020018281038252602e815260200180615d08602e913960400191505060405180910390fd5b600054610100900460ff16158015610bdb57600080547fffffffffffffffffffffffffffffffffffffffffffffffffffffffffffffff007fffffffffffffffffffffffffffffffffffffffffffffffffffffffffffff00ff909116610100171660011790555b610be3613634565b610beb613757565b60008873ffffffffffffffffffffffffffffffffffffffff16631526fe27896040518263ffffffff1660e01b81526004018082815260200191505060a06040518083038186803b158015610c3e57600080fd5b505afa158015610c52573d6000803e3d6000fd5b505050506040513d60a0811015610c6857600080fd5b5051905073ffffffffffffffffffffffffffffffffffffffff808216908c1614610cdd576040517f08c379a0000000000000000000000000000000000000000000000000000000008152600401808060200182810382526028815260200180615d366028913960400191505060405180910390fd5b8973ffffffffffffffffffffffffffffffffffffffff168973ffffffffffffffffffffffffffffffffffffffff166394faab236040518163ffffffff1660e01b815260040160206040518083038186803b158015610d3a57600080fd5b505afa158015610d4e573d6000803e3d6000fd5b505050506040513d6020811015610d6457600080fd5b505173ffffffffffffffffffffffffffffffffffffffff1614610dd2576040517f08c379a0000000000000000000000000000000000000000000000000000000008152600401808060200182810382526025815260200180615cc06025913960400191505060405180910390fd5b8673ffffffffffffffffffffffffffffffffffffffff168973ffffffffffffffffffffffffffffffffffffffff16638da5cb5b6040518163ffffffff1660e01b815260040160206040518083038186803b158015610e2f57600080fd5b505afa158015610e43573d6000803e3d6000fd5b505050506040513d6020811015610e5957600080fd5b505173ffffffffffffffffffffffffffffffffffffffff1614610edd57604080517f08c379a000000000000000000000000000000000000000000000000000000000815260206004820152601f60248201527f4962546f6b656e416461707465722f736869656c642d6e6f742d6d6174636800604482015290519081900360640190fd5b8573ffffffffffffffffffffffffffffffffffffffff168773ffffffffffffffffffffffffffffffffffffffff16638da5cb5b6040518163ffffffff1660e01b815260040160206040518083038186803b158015610f3a57600080fd5b505afa158015610f4e573d6000803e3d6000fd5b505050506040513d6020811015610f6457600080fd5b505173ffffffffffffffffffffffffffffffffffffffff1614610fd2576040517f08c379a0000000000000000000000000000000000000000000000000000000008152600401808060200182810382526021815260200180615d5e6021913960400191505060405180910390fd5b88609760006101000a81548173ffffffffffffffffffffffffffffffffffffffff021916908373ffffffffffffffffffffffffffffffffffffffff16021790555086609860006101000a81548173ffffffffffffffffffffffffffffffffffffffff021916908373ffffffffffffffffffffffffffffffffffffffff16021790555085609960006101000a81548173ffffffffffffffffffffffffffffffffffffffff021916908373ffffffffffffffffffffffffffffffffffffffff16021790555087609a819055506001609d819055508c609e60006101000a81548173ffffffffffffffffffffffffffffffffffffffff021916908373ffffffffffffffffffffffffffffffffffffffff1602179055508b609f819055508a60a060006101000a81548173ffffffffffffffffffffffffffffffffffffffff021916908373ffffffffffffffffffffffffffffffffffffffff16021790555060a060009054906101000a900473ffffffffffffffffffffffffffffffffffffffff1673ffffffffffffffffffffffffffffffffffffffff1663313ce5676040518163ffffffff1660e01b815260040160206040518083038186803b15801561119557600080fd5b505afa1580156111a9573d6000803e3d6000fd5b505050506040513d60208110156111bf57600080fd5b505160ff1660a18190556012101561123857604080517f08c379a000000000000000000000000000000000000000000000000000000000815260206004820152601c60248201527f4962546f6b656e416461707465722f646563696d616c73203e20313800000000604482015290519081900360640190fd5b60a1546012819003600a90810a60a9550a60aa5560a280547fffffffffffffffffffffffff00000000000000000000000000000000000000001673ffffffffffffffffffffffffffffffffffffffff8c81169190911790915584166112e8576040517f08c379a0000000000000000000000000000000000000000000000000000000008152600401808060200182810382526023815260200180615ce56023913960400191505060405180910390fd5b611388851115611343576040517f08c379a0000000000000000000000000000000000000000000000000000000008152600401808060200182810382526023815260200180615da86023913960400191505060405180910390fd5b609b859055609c805473ffffffffffffffffffffffffffffffffffffffff8087167fffffffffffffffffffffffff00000000000000000000000000000000000000009283161790925560a38054868416921691909117905560975460a0546113d09290811691167fffffffffffffffffffffffffffffffffffffffffffffffffffffffffffffffff613841565b50801561140057600080547fffffffffffffffffffffffffffffffffffffffffffffffffffffffffffff00ff1690555b505050505050505050505050565b60a86020526000908152604090205481565b60a15481565b609754609a54604080517fb0ab8c52000000000000000000000000000000000000000000000000000000008152600481019290925230602483015251600092610adb92859273ffffffffffffffffffffffffffffffffffffffff9092169163b0ab8c5291604480820192602092909190829003018186803b1580156114aa57600080fd5b505afa1580156114be573d6000803e3d6000fd5b505050506040513d60208110156114d457600080fd5b5051613a1e565b6002606554141561154d57604080517f08c379a000000000000000000000000000000000000000000000000000000000815260206004820152601f60248201527f5265656e7472616e637947756172643a207265656e7472616e742063616c6c00604482015290519081900360640190fd5b600260655561155a611e21565b156115c657604080517f08c379a000000000000000000000000000000000000000000000000000000000815260206004820152601060248201527f5061757361626c653a2070617573656400000000000000000000000000000000604482015290519081900360640190fd5b609d546001141561167357821561167357609754609a54604080517fb5c5f6720000000000000000000000000000000000000000000000000000000081523060048201526024810192909252604482018690525173ffffffffffffffffffffffffffffffffffffffff9092169163b5c5f6729160648082019260009290919082900301818387803b15801561165a57600080fd5b505af115801561166e573d6000803e3d6000fd5b505050505b61167d8484613bad565b505060016065555050565b609e54604080517fc8cc243f000000000000000000000000000000000000000000000000000000008152905160009273ffffffffffffffffffffffffffffffffffffffff169163c8cc243f916004808301926020929190829003018186803b1580156116f357600080fd5b505afa158015611707573d6000803e3d6000fd5b505050506040513d602081101561171d57600080fd5b5051604080517fe58378bb000000000000000000000000000000000000000000000000000000008152905191925073ffffffffffffffffffffffffffffffffffffffff8316916391d1485491839163e58378bb91600480820192602092909190829003018186803b15801561179157600080fd5b505afa1580156117a5573d6000803e3d6000fd5b505050506040513d60208110156117bb57600080fd5b5051604080517fffffffff0000000000000000000000000000000000000000000000000000000060e085901b1681526004810192909252336024830152516044808301926020929190829003018186803b15801561181857600080fd5b505afa15801561182c573d6000803e3d6000fd5b505050506040513d602081101561184257600080fd5b50516118af57604080517f08c379a000000000000000000000000000000000000000000000000000000000815260206004820152600a60248201527f216f776e6572526f6c6500000000000000000000000000000000000000000000604482015290519081900360640190fd5b609d5460011461192057604080517f08c379a000000000000000000000000000000000000000000000000000000000815260206004820152601760248201527f4962546f6b656e416461707465722f6e6f742d6c697665000000000000000000604482015290519081900360640190fd5b61138882111561197b576040517f08c379a0000000000000000000000000000000000000000000000000000000008152600401808060200182810382526023815260200180615da86023913960400191505060405180910390fd5b609b82905560408051838152905133917fc4a68586da2556b3c4dd5c980f9707a3a5c41545f6e23a71be744bd18851a99b919081900360200190a25050565b609c5473ffffffffffffffffffffffffffffffffffffffff1681565b60a65481565b609e54604080517fc8cc243f000000000000000000000000000000000000000000000000000000008152905160009273ffffffffffffffffffffffffffffffffffffffff169163c8cc243f916004808301926020929190829003018186803b158015611a4757600080fd5b505afa158015611a5b573d6000803e3d6000fd5b505050506040513d6020811015611a7157600080fd5b5051604080517fe58378bb000000000000000000000000000000000000000000000000000000008152905191925073ffffffffffffffffffffffffffffffffffffffff8316916391d1485491839163e58378bb91600480820192602092909190829003018186803b158015611ae557600080fd5b505afa158015611af9573d6000803e3d6000fd5b505050506040513d6020811015611b0f57600080fd5b5051604080517fffffffff0000000000000000000000000000000000000000000000000000000060e085901b1681526004810192909252336024830152516044808301926020929190829003018186803b158015611b6c57600080fd5b505afa158015611b80573d6000803e3d6000fd5b505050506040513d6020811015611b9657600080fd5b505180611cb457508073ffffffffffffffffffffffffffffffffffffffff166391d148548273ffffffffffffffffffffffffffffffffffffffff1663b536818a6040518163ffffffff1660e01b815260040160206040518083038186803b158015611c0057600080fd5b505afa158015611c14573d6000803e3d6000fd5b505050506040513d6020811015611c2a57600080fd5b5051604080517fffffffff0000000000000000000000000000000000000000000000000000000060e085901b1681526004810192909252336024830152516044808301926020929190829003018186803b158015611c8757600080fd5b505afa158015611c9b573d6000803e3d6000fd5b505050506040513d6020811015611cb157600080fd5b50515b611d1f57604080517f08c379a000000000000000000000000000000000000000000000000000000000815260206004820152601760248201527f21286f776e6572526f6c65206f7220676f76526f6c6529000000000000000000604482015290519081900360640190fd5b611d27613e17565b50565b60026065541415611d9c57604080517f08c379a000000000000000000000000000000000000000000000000000000000815260206004820152601f60248201527f5265656e7472616e637947756172643a207265656e7472616e742063616c6c00604482015290519081900360640190fd5b6002606555611da9611e21565b15611e1557604080517f08c379a000000000000000000000000000000000000000000000000000000000815260206004820152601060248201527f5061757361626c653a2070617573656400000000000000000000000000000000604482015290519081900360640190fd5b61167d84848484613f05565b60335460ff165b90565b60026065541415611e9d57604080517f08c379a000000000000000000000000000000000000000000000000000000000815260206004820152601f60248201527f5265656e7472616e637947756172643a207265656e7472616e742063616c6c00604482015290519081900360640190fd5b6002606555609e54604080517fc8cc243f000000000000000000000000000000000000000000000000000000008152905160009273ffffffffffffffffffffffffffffffffffffffff169163c8cc243f916004808301926020929190829003018186803b158015611f0d57600080fd5b505afa158015611f21573d6000803e3d6000fd5b505050506040513d6020811015611f3757600080fd5b5051604080517fe58378bb000000000000000000000000000000000000000000000000000000008152905191925073ffffffffffffffffffffffffffffffffffffffff8316916391d1485491839163e58378bb91600480820192602092909190829003018186803b158015611fab57600080fd5b505afa158015611fbf573d6000803e3d6000fd5b505050506040513d6020811015611fd557600080fd5b5051604080517fffffffff0000000000000000000000000000000000000000000000000000000060e085901b1681526004810192909252336024830152516044808301926020929190829003018186803b15801561203257600080fd5b505afa158015612046573d6000803e3d6000fd5b505050506040513d602081101561205c57600080fd5b50518061211b5750609954609854604080517f8da5cb5b000000000000000000000000000000000000000000000000000000008152905173ffffffffffffffffffffffffffffffffffffffff9384169390921691638da5cb5b91600480820192602092909190829003018186803b1580156120d657600080fd5b505afa1580156120ea573d6000803e3d6000fd5b505050506040513d602081101561210057600080fd5b505173ffffffffffffffffffffffffffffffffffffffff1614155b61218657604080517f08c379a000000000000000000000000000000000000000000000000000000000815260206004820152601d60248201527f4962546f6b656e416461707465722f6e6f742d617574686f72697a6564000000604482015290519081900360640190fd5b609d546001146121f757604080517f08c379a000000000000000000000000000000000000000000000000000000000815260206004820152601760248201527f4962546f6b656e416461707465722f6e6f742d6c697665000000000000000000604482015290519081900360640190fd5b609754609a54604080517f5312ea8e00000000000000000000000000000000000000000000000000000000815260048101929092525173ffffffffffffffffffffffffffffffffffffffff90921691635312ea8e9160248082019260009290919082900301818387803b15801561226d57600080fd5b505af1158015612281573d6000803e3d6000fd5b50506000609d8190556040517fbf689b4aae670d200b1d2b971ace2e0c3bef88a9c5e93f36705c7b86eab630b99350909150a1506001606555565b6002606554141561232e57604080517f08c379a000000000000000000000000000000000000000000000000000000000815260206004820152601f60248201527f5265656e7472616e637947756172643a207265656e7472616e742063616c6c00604482015290519081900360640190fd5b6002606555609d546001141561248557609e54609f54604080517ff8be242c00000000000000000000000000000000000000000000000000000000815260048101929092523360248301525160009273ffffffffffffffffffffffffffffffffffffffff169163f8be242c916044808301926020929190829003018186803b1580156123b957600080fd5b505afa1580156123cd573d6000803e3d6000fd5b505050506040513d60208110156123e357600080fd5b5051609754609a54604080517fb5c5f6720000000000000000000000000000000000000000000000000000000081523060048201526024810192909252604482018490525192935073ffffffffffffffffffffffffffffffffffffffff9091169163b5c5f6729160648082019260009290919082900301818387803b15801561246b57600080fd5b505af115801561247f573d6000803e3d6000fd5b50505050505b61248e81614271565b506001606555565b60985473ffffffffffffffffffffffffffffffffffffffff1681565b60a35473ffffffffffffffffffffffffffffffffffffffff1681565b60a55490565b609e54604080517fc8cc243f000000000000000000000000000000000000000000000000000000008152905160009273ffffffffffffffffffffffffffffffffffffffff169163c8cc243f916004808301926020929190829003018186803b15801561253f57600080fd5b505afa158015612553573d6000803e3d6000fd5b505050506040513d602081101561256957600080fd5b5051604080517fe58378bb000000000000000000000000000000000000000000000000000000008152905191925073ffffffffffffffffffffffffffffffffffffffff8316916391d1485491839163e58378bb91600480820192602092909190829003018186803b1580156125dd57600080fd5b505afa1580156125f1573d6000803e3d6000fd5b505050506040513d602081101561260757600080fd5b5051604080517fffffffff0000000000000000000000000000000000000000000000000000000060e085901b1681526004810192909252336024830152516044808301926020929190829003018186803b15801561266457600080fd5b505afa158015612678573d6000803e3d6000fd5b505050506040513d602081101561268e57600080fd5b5051806127ac57508073ffffffffffffffffffffffffffffffffffffffff166391d148548273ffffffffffffffffffffffffffffffffffffffff1663b536818a6040518163ffffffff1660e01b815260040160206040518083038186803b1580156126f857600080fd5b505afa15801561270c573d6000803e3d6000fd5b505050506040513d602081101561272257600080fd5b5051604080517fffffffff0000000000000000000000000000000000000000000000000000000060e085901b1681526004810192909252336024830152516044808301926020929190829003018186803b15801561277f57600080fd5b505afa158015612793573d6000803e3d6000fd5b505050506040513d60208110156127a957600080fd5b50515b61281757604080517f08c379a000000000000000000000000000000000000000000000000000000000815260206004820152601760248201527f21286f776e6572526f6c65206f7220676f76526f6c6529000000000000000000604482015290519081900360640190fd5b611d27614532565b60a45481565b60975473ffffffffffffffffffffffffffffffffffffffff1681565b609d5481565b600260655414156128b957604080517f08c379a000000000000000000000000000000000000000000000000000000000815260206004820152601f60248201527f5265656e7472616e637947756172643a207265656e7472616e742063616c6c00604482015290519081900360640190fd5b60026065556128c6611e21565b1561293257604080517f08c379a000000000000000000000000000000000000000000000000000000000815260206004820152601060248201527f5061757361626c653a2070617573656400000000000000000000000000000000604482015290519081900360640190fd5b61293f8560008484613f05565b61294c85858585856145fa565b50506001606555505050565b600260655414156129ca57604080517f08c379a000000000000000000000000000000000000000000000000000000000815260206004820152601f60248201527f5265656e7472616e637947756172643a207265656e7472616e742063616c6c00604482015290519081900360640190fd5b60026065556129d7611e21565b1561293f57604080517f08c379a000000000000000000000000000000000000000000000000000000000815260206004820152601060248201527f5061757361626c653a2070617573656400000000000000000000000000000000604482015290519081900360640190fd5b60a05473ffffffffffffffffffffffffffffffffffffffff1681565b60026065541415612ad157604080517f08c379a000000000000000000000000000000000000000000000000000000000815260206004820152601f60248201527f5265656e7472616e637947756172643a207265656e7472616e742063616c6c00604482015290519081900360640190fd5b6002606555609e54604080517fc8cc243f000000000000000000000000000000000000000000000000000000008152905160009273ffffffffffffffffffffffffffffffffffffffff169163c8cc243f916004808301926020929190829003018186803b158015612b4157600080fd5b505afa158015612b55573d6000803e3d6000fd5b505050506040513d6020811015612b6b57600080fd5b5051604080517fe58378bb000000000000000000000000000000000000000000000000000000008152905191925073ffffffffffffffffffffffffffffffffffffffff8316916391d1485491839163e58378bb91600480820192602092909190829003018186803b158015612bdf57600080fd5b505afa158015612bf3573d6000803e3d6000fd5b505050506040513d6020811015612c0957600080fd5b5051604080517fffffffff0000000000000000000000000000000000000000000000000000000060e085901b1681526004810192909252336024830152516044808301926020929190829003018186803b158015612c6657600080fd5b505afa158015612c7a573d6000803e3d6000fd5b505050506040513d6020811015612c9057600080fd5b5051612cfd57604080517f08c379a000000000000000000000000000000000000000000000000000000000815260206004820152600a60248201527f216f776e6572526f6c6500000000000000000000000000000000000000000000604482015290519081900360640190fd5b60975460a05461248e9173ffffffffffffffffffffffffffffffffffffffff91821691167fffffffffffffffffffffffffffffffffffffffffffffffffffffffffffffffff613841565b60995473ffffffffffffffffffffffffffffffffffffffff1681565b609e54604080517fc8cc243f000000000000000000000000000000000000000000000000000000008152905160009273ffffffffffffffffffffffffffffffffffffffff169163c8cc243f916004808301926020929190829003018186803b158015612dce57600080fd5b505afa158015612de2573d6000803e3d6000fd5b505050506040513d6020811015612df857600080fd5b5051604080517fe58378bb000000000000000000000000000000000000000000000000000000008152905191925073ffffffffffffffffffffffffffffffffffffffff8316916391d1485491839163e58378bb91600480820192602092909190829003018186803b158015612e6c57600080fd5b505afa158015612e80573d6000803e3d6000fd5b505050506040513d6020811015612e9657600080fd5b5051604080517fffffffff0000000000000000000000000000000000000000000000000000000060e085901b1681526004810192909252336024830152516044808301926020929190829003018186803b158015612ef357600080fd5b505afa158015612f07573d6000803e3d6000fd5b505050506040513d6020811015612f1d57600080fd5b5051612f8a57604080517f08c379a000000000000000000000000000000000000000000000000000000000815260206004820152600a60248201527f216f776e6572526f6c6500000000000000000000000000000000000000000000604482015290519081900360640190fd5b609d5415612ff957604080517f08c379a000000000000000000000000000000000000000000000000000000000815260206004820152601860248201527f4962546f6b656e416461707465722f6e6f742d63616765640000000000000000604482015290519081900360640190fd5b609754609a5460a554604080517f0efe6a8b000000000000000000000000000000000000000000000000000000008152306004820152602481019390935260448301919091525173ffffffffffffffffffffffffffffffffffffffff90921691630efe6a8b9160648082019260009290919082900301818387803b15801561308057600080fd5b505af1158015613094573d6000803e3d6000fd5b50506001609d5550506040517f1868a6ced217213f36be87ba9aee25cde5381b42e85c8f88e73b18772c0bd07390600090a150565b609e54604080517fc8cc243f000000000000000000000000000000000000000000000000000000008152905160009273ffffffffffffffffffffffffffffffffffffffff169163c8cc243f916004808301926020929190829003018186803b15801561313457600080fd5b505afa158015613148573d6000803e3d6000fd5b505050506040513d602081101561315e57600080fd5b5051604080517fe58378bb000000000000000000000000000000000000000000000000000000008152905191925073ffffffffffffffffffffffffffffffffffffffff8316916391d1485491839163e58378bb91600480820192602092909190829003018186803b1580156131d257600080fd5b505afa1580156131e6573d6000803e3d6000fd5b505050506040513d60208110156131fc57600080fd5b5051604080517fffffffff0000000000000000000000000000000000000000000000000000000060e085901b1681526004810192909252336024830152516044808301926020929190829003018186803b15801561325957600080fd5b505afa15801561326d573d6000803e3d6000fd5b505050506040513d602081101561328357600080fd5b50516132f057604080517f08c379a000000000000000000000000000000000000000000000000000000000815260206004820152600a60248201527f216f776e6572526f6c6500000000000000000000000000000000000000000000604482015290519081900360640190fd5b609d5460011461336157604080517f08c379a000000000000000000000000000000000000000000000000000000000815260206004820152601760248201527f4962546f6b656e416461707465722f6e6f742d6c697665000000000000000000604482015290519081900360640190fd5b73ffffffffffffffffffffffffffffffffffffffff82166133cd576040517f08c379a0000000000000000000000000000000000000000000000000000000008152600401808060200182810382526023815260200180615ce56023913960400191505060405180910390fd5b609c805473ffffffffffffffffffffffffffffffffffffffff84167fffffffffffffffffffffffff00000000000000000000000000000000000000009091168117909155604080519182525133917fb4d09ab4c7ddf7a7c96bead0c779f3194bc1c10dd5028fbc751e5abe334cf779919081900360200190a25050565b609f5481565b609e5473ffffffffffffffffffffffffffffffffffffffff1681565b609b5481565b600060a5546000141561348e5750670de0b6b3a7640000611e28565b6134a16134996124ce565b60a554614d26565b9050611e28565b609a5481565b6002606554141561352057604080517f08c379a000000000000000000000000000000000000000000000000000000000815260206004820152601f60248201527f5265656e7472616e637947756172643a207265656e7472616e742063616c6c00604482015290519081900360640190fd5b600260655561352d611e21565b1561359957604080517f08c379a000000000000000000000000000000000000000000000000000000000815260206004820152601060248201527f5061757361626c653a2070617573656400000000000000000000000000000000604482015290519081900360640190fd5b60008085126135a857846135ad565b846000035b90506135bc87878386866145fa565b505060016065555050505050565b60a25473ffffffffffffffffffffffffffffffffffffffff1681565b6000806135f38484613a1e565b9050600061360e61360683609b54614d4a565b612710614dd0565b905061361a8282614e49565b95945050505050565b600061362e30614ebb565b15905090565b600054610100900460ff168061364d575061364d613623565b8061365b575060005460ff16155b6136b0576040517f08c379a000000000000000000000000000000000000000000000000000000000815260040180806020018281038252602e815260200180615d08602e913960400191505060405180910390fd5b600054610100900460ff1615801561371657600080547fffffffffffffffffffffffffffffffffffffffffffffffffffffffffffffff007fffffffffffffffffffffffffffffffffffffffffffffffffffffffffffff00ff909116610100171660011790555b61371e614ec1565b613726614fd3565b8015611d2757600080547fffffffffffffffffffffffffffffffffffffffffffffffffffffffffffff00ff16905550565b600054610100900460ff16806137705750613770613623565b8061377e575060005460ff16155b6137d3576040517f08c379a000000000000000000000000000000000000000000000000000000000815260040180806020018281038252602e815260200180615d08602e913960400191505060405180910390fd5b600054610100900460ff1615801561383957600080547fffffffffffffffffffffffffffffffffffffffffffffffffffffffffffffff007fffffffffffffffffffffffffffffffffffffffffffffffffffffffffffff00ff909116610100171660011790555b61372661510e565b6040805173ffffffffffffffffffffffffffffffffffffffff8481166024830152604480830185905283518084039091018152606490920183526020820180517bffffffffffffffffffffffffffffffffffffffffffffffffffffffff167f095ea7b300000000000000000000000000000000000000000000000000000000178152925182516000946060949389169392918291908083835b6020831061391757805182527fffffffffffffffffffffffffffffffffffffffffffffffffffffffffffffffe090920191602091820191016138da565b6001836020036101000a0380198251168184511680821785525050505050509050019150506000604051808303816000865af19150503d8060008114613979576040519150601f19603f3d011682016040523d82523d6000602084013e61397e565b606091505b50915091508180156139ac5750805115806139ac57508080602001905160208110156139a957600080fd5b50515b613a1757604080517f08c379a000000000000000000000000000000000000000000000000000000000815260206004820152600c60248201527f2173616665417070726f76650000000000000000000000000000000000000000604482015290519081900360640190fd5b5050505050565b600060a55460001415613a3357506000610adb565b60a254604080517f70a082310000000000000000000000000000000000000000000000000000000081523060048201529051600092613ae792613adf92879273ffffffffffffffffffffffffffffffffffffffff16916370a08231916024808301926020929190829003018186803b158015613aae57600080fd5b505afa158015613ac2573d6000803e3d6000fd5b505050506040513d6020811015613ad857600080fd5b5051615226565b60a654614e49565b90506000613b0260a454613afd8460a554615298565b615226565b73ffffffffffffffffffffffffffffffffffffffff8616600090815260a8602052604081205491925090613b3690836152b1565b73ffffffffffffffffffffffffffffffffffffffff8716600090815260a76020526040902054909150811115613ba15773ffffffffffffffffffffffffffffffffffffffff8616600090815260a76020526040902054613b97908290614e49565b9350505050610adb565b60009350505050610adb565b613bb6336152ca565b8015613dad576000613bda613bcd8360a954614d4a565b613bd5613472565b61558c565b905060008113613c4b57604080517f08c379a000000000000000000000000000000000000000000000000000000000815260206004820152601d60248201527f4962546f6b656e416461707465722f73686172652d6f766572666c6f77000000604482015290519081900360640190fd5b33600090815260a86020526040902054811115613cb3576040517f08c379a0000000000000000000000000000000000000000000000000000000008152600401808060200182810382526029815260200180615d7f6029913960400191505060405180910390fd5b609e54609f54604080517fd295927a000000000000000000000000000000000000000000000000000000008152600481019290925233602483015260008481036044840152905173ffffffffffffffffffffffffffffffffffffffff9093169263d295927a92606480820193929182900301818387803b158015613d3657600080fd5b505af1158015613d4a573d6000803e3d6000fd5b50505050613d5a60a55482614e49565b60a55533600090815260a86020526040902054613d779082614e49565b33600090815260a8602052604090205560a054613dab9073ffffffffffffffffffffffffffffffffffffffff1684846155b0565b505b33600090815260a8602052604090205460a454613dca9190615786565b33600090815260a7602090815260409182902092909255805183815290517f879a83fc17750905b8aef4ef85e6701b84a50e15d4463dc3c2e7fb0f9dbcf75d929181900390910190a15050565b613e1f611e21565b613e8a57604080517f08c379a000000000000000000000000000000000000000000000000000000000815260206004820152601460248201527f5061757361626c653a206e6f7420706175736564000000000000000000000000604482015290519081900360640190fd5b603380547fffffffffffffffffffffffffffffffffffffffffffffffffffffffffffffff001690557f5db9ee0a495bf2e6ff9c91a7834c1ba4fdd244a5e8aa4e537bd38aeae4b073aa613edb6157a7565b6040805173ffffffffffffffffffffffffffffffffffffffff9092168252519081900360200190a1565b609d54600114613f7657604080517f08c379a000000000000000000000000000000000000000000000000000000000815260206004820152601760248201527f4962546f6b656e416461707465722f6e6f74206c697665000000000000000000604482015290519081900360640190fd5b613f7f846152ca565b821561413d576000613fa3613f968560a954614d4a565b613f9e613472565b614d26565b90506000811361401457604080517f08c379a000000000000000000000000000000000000000000000000000000000815260206004820152601d60248201527f4962546f6b656e416461707465722f73686172652d6f766572666c6f77000000604482015290519081900360640190fd5b60a0546140399073ffffffffffffffffffffffffffffffffffffffff163330876157ab565b609e54609f54604080517fd295927a000000000000000000000000000000000000000000000000000000008152600481019290925273ffffffffffffffffffffffffffffffffffffffff888116602484015260448301859052905192169163d295927a9160648082019260009290919082900301818387803b1580156140be57600080fd5b505af11580156140d2573d6000803e3d6000fd5b505050506140e260a55482615226565b60a55573ffffffffffffffffffffffffffffffffffffffff8516600090815260a860205260409020546141159082615226565b73ffffffffffffffffffffffffffffffffffffffff8616600090815260a86020526040902055505b73ffffffffffffffffffffffffffffffffffffffff8416600090815260a8602052604090205460a4546141709190615786565b73ffffffffffffffffffffffffffffffffffffffff8516600090815260a76020526040902055821561423857609754609a54604080517f0efe6a8b0000000000000000000000000000000000000000000000000000000081523060048201526024810192909252604482018690525173ffffffffffffffffffffffffffffffffffffffff90921691630efe6a8b9160648082019260009290919082900301818387803b15801561421f57600080fd5b505af1158015614233573d6000803e3d6000fd5b505050505b6040805184815290517ff641ad64267ca71156d13749ad746155df3095d9afeb604fe3b53016ce5fc8ba9181900360200190a150505050565b609e54609f54604080517ff8be242c00000000000000000000000000000000000000000000000000000000815260048101929092523360248301525160009273ffffffffffffffffffffffffffffffffffffffff169163f8be242c916044808301926020929190829003018186803b1580156142ec57600080fd5b505afa158015614300573d6000803e3d6000fd5b505050506040513d602081101561431657600080fd5b505190507f800000000000000000000000000000000000000000000000000000000000000081106143a857604080517f08c379a000000000000000000000000000000000000000000000000000000000815260206004820152601d60248201527f4962546f6b656e416461707465722f73686172652d6f766572666c6f77000000604482015290519081900360640190fd5b60006143c66143be836143b9613472565b615991565b60aa54615991565b609e54609f54604080517fd295927a000000000000000000000000000000000000000000000000000000008152600481019290925233602483015260008681036044840152905193945073ffffffffffffffffffffffffffffffffffffffff9092169263d295927a9260648084019391929182900301818387803b15801561444d57600080fd5b505af1158015614461573d6000803e3d6000fd5b5050505061447160a55483614e49565b60a55533600090815260a8602052604090205461448e9083614e49565b33600090815260a86020526040902081905560a4546144ad9190615786565b33600090815260a7602052604090205560a0546144e19073ffffffffffffffffffffffffffffffffffffffff1684836155b0565b6040805173ffffffffffffffffffffffffffffffffffffffff85168152905133917f6ba7f365fdc489ae6b61ea2021626b6df9cff6f0280e8e1658e5d7f87794f0c8919081900360200190a2505050565b61453a611e21565b156145a657604080517f08c379a000000000000000000000000000000000000000000000000000000000815260206004820152601060248201527f5061757361626c653a2070617573656400000000000000000000000000000000604482015290519081900360640190fd5b603380547fffffffffffffffffffffffffffffffffffffffffffffffffffffffffffffff001660011790557f62e78cea01bee320cd4e420270b5ea74000d11b0c9f74754ebdbfc544b05a258613edb6157a7565b609e54604080517fc8cc243f000000000000000000000000000000000000000000000000000000008152905160009273ffffffffffffffffffffffffffffffffffffffff169163c8cc243f916004808301926020929190829003018186803b15801561466557600080fd5b505afa158015614679573d6000803e3d6000fd5b505050506040513d602081101561468f57600080fd5b5051604080517f2e718ab7000000000000000000000000000000000000000000000000000000008152905191925073ffffffffffffffffffffffffffffffffffffffff8316916391d14854918391632e718ab791600480820192602092909190829003018186803b15801561470357600080fd5b505afa158015614717573d6000803e3d6000fd5b505050506040513d602081101561472d57600080fd5b5051604080517fffffffff0000000000000000000000000000000000000000000000000000000060e085901b1681526004810192909252336024830152516044808301926020929190829003018186803b15801561478a57600080fd5b505afa15801561479e573d6000803e3d6000fd5b505050506040513d60208110156147b457600080fd5b505161482157604080517f08c379a000000000000000000000000000000000000000000000000000000000815260206004820152601260248201527f21636f6c6c61746572616c4d616e616765720000000000000000000000000000604482015290519081900360640190fd5b73ffffffffffffffffffffffffffffffffffffffff8616600090815260a860205260409020546148518186614e49565b73ffffffffffffffffffffffffffffffffffffffff808916600090815260a86020526040808220939093559088168152205461488d9086615226565b73ffffffffffffffffffffffffffffffffffffffff808816600090815260a86020908152604080832094909455918a16815260a79091529081205490826148d48389614d4a565b816148db57fe5b73ffffffffffffffffffffffffffffffffffffffff808c16600090815260a7602052604080822094909304808703909455908b16815220549091506149209082615226565b73ffffffffffffffffffffffffffffffffffffffff808a16600090815260a7602052604080822093909355609e54609f5484517f29d8859400000000000000000000000000000000000000000000000000000000815260048101919091528d841660248201528451929491909316926329d885949260448083019392829003018186803b1580156149b057600080fd5b505afa1580156149c4573d6000803e3d6000fd5b505050506040513d60408110156149da57600080fd5b5051609e54609f54604080517ff8be242c000000000000000000000000000000000000000000000000000000008152600481019290925273ffffffffffffffffffffffffffffffffffffffff8e811660248401529051939450614a929392169163f8be242c91604480820192602092909190829003018186803b158015614a6057600080fd5b505afa158015614a74573d6000803e3d6000fd5b505050506040513d6020811015614a8a57600080fd5b505182615226565b73ffffffffffffffffffffffffffffffffffffffff8b16600090815260a860205260409020541015614b0f576040517f08c379a0000000000000000000000000000000000000000000000000000000008152600401808060200182810382526042815260200180615df16042913960600191505060405180910390fd5b609e54609f54604080517f29d88594000000000000000000000000000000000000000000000000000000008152600481019290925273ffffffffffffffffffffffffffffffffffffffff8c8116602484015281519316926329d88594926044808201939291829003018186803b158015614b8857600080fd5b505afa158015614b9c573d6000803e3d6000fd5b505050506040513d6040811015614bb257600080fd5b5051609e54609f54604080517ff8be242c000000000000000000000000000000000000000000000000000000008152600481019290925273ffffffffffffffffffffffffffffffffffffffff8d811660248401529051939450614c389392169163f8be242c91604480820192602092909190829003018186803b158015614a6057600080fd5b73ffffffffffffffffffffffffffffffffffffffff8a16600090815260a860205260409020541115614cb5576040517f08c379a0000000000000000000000000000000000000000000000000000000008152600401808060200182810382526047815260200180615c796047913960600191505060405180910390fd5b8873ffffffffffffffffffffffffffffffffffffffff168a73ffffffffffffffffffffffffffffffffffffffff167f11f8877fdec37577921d8bf36ca71ea534c8901eada496d759bce84bba46e2de8a6040518082815260200191505060405180910390a350505050505050505050565b600081614d3b84670de0b6b3a7640000614d4a565b81614d4257fe5b049392505050565b6000811580614d6557505080820282828281614d6257fe5b04145b610adb57604080517f08c379a000000000000000000000000000000000000000000000000000000000815260206004820152601460248201527f64732d6d6174682d6d756c2d6f766572666c6f77000000000000000000000000604482015290519081900360640190fd5b6000808211614e4057604080517f08c379a000000000000000000000000000000000000000000000000000000000815260206004820152601360248201527f64732d6d6174682d6469762d62792d7a65726f00000000000000000000000000604482015290519081900360640190fd5b818381614d4257fe5b80820382811115610adb57604080517f08c379a000000000000000000000000000000000000000000000000000000000815260206004820152601560248201527f64732d6d6174682d7375622d756e646572666c6f770000000000000000000000604482015290519081900360640190fd5b3b151590565b600054610100900460ff1680614eda5750614eda613623565b80614ee8575060005460ff16155b614f3d576040517f08c379a000000000000000000000000000000000000000000000000000000000815260040180806020018281038252602e815260200180615d08602e913960400191505060405180910390fd5b600054610100900460ff1615801561372657600080547fffffffffffffffffffffffffffffffffffffffffffffffffffffffffffffff007fffffffffffffffffffffffffffffffffffffffffffffffffffffffffffff00ff909116610100171660011790558015611d2757600080547fffffffffffffffffffffffffffffffffffffffffffffffffffffffffffff00ff16905550565b600054610100900460ff1680614fec5750614fec613623565b80614ffa575060005460ff16155b61504f576040517f08c379a000000000000000000000000000000000000000000000000000000000815260040180806020018281038252602e815260200180615d08602e913960400191505060405180910390fd5b600054610100900460ff161580156150b557600080547fffffffffffffffffffffffffffffffffffffffffffffffffffffffffffffff007fffffffffffffffffffffffffffffffffffffffffffffffffffffffffffff00ff909116610100171660011790555b603380547fffffffffffffffffffffffffffffffffffffffffffffffffffffffffffffff001690558015611d2757600080547fffffffffffffffffffffffffffffffffffffffffffffffffffffffffffff00ff16905550565b600054610100900460ff16806151275750615127613623565b80615135575060005460ff16155b61518a576040517f08c379a000000000000000000000000000000000000000000000000000000000815260040180806020018281038252602e815260200180615d08602e913960400191505060405180910390fd5b600054610100900460ff161580156151f057600080547fffffffffffffffffffffffffffffffffffffffffffffffffffffffffffffff007fffffffffffffffffffffffffffffffffffffffffffffffffffffffffffff00ff909116610100171660011790555b60016065558015611d2757600080547fffffffffffffffffffffffffffffffffffffffffffffffffffffffffffff00ff16905550565b80820182811015610adb57604080517f08c379a000000000000000000000000000000000000000000000000000000000815260206004820152601460248201527f64732d6d6174682d6164642d6f766572666c6f77000000000000000000000000604482015290519081900360640190fd5b600081614d3b846b033b2e3c9fd0803ce8000000614d4a565b60006b033b2e3c9fd0803ce8000000614d3b8484614d4a565b60a354604080517f6707f3de00000000000000000000000000000000000000000000000000000000815273ffffffffffffffffffffffffffffffffffffffff848116600483015291516000939290921691636707f3de91602480820192602092909190829003018186803b15801561534157600080fd5b505afa158015615355573d6000803e3d6000fd5b505050506040513d602081101561536b57600080fd5b5051905073ffffffffffffffffffffffffffffffffffffffff811661538d5750805b73ffffffffffffffffffffffffffffffffffffffff81166153f9576040517f08c379a0000000000000000000000000000000000000000000000000000000008152600401808060200182810382526026815260200180615dcb6026913960400191505060405180910390fd5b60a5541561541e5761541a60a454613afd6154126159a6565b60a554615298565b60a4555b73ffffffffffffffffffffffffffffffffffffffff8216600090815260a7602090815260408083205460a890925282205460a45491929161545f91906152b1565b9050818111156154e65760006154758284614e49565b9050600061548861360683609b54614d4a565b609c5460a2549192506154b59173ffffffffffffffffffffffffffffffffffffffff9081169116836155b0565b6154e3856154c38484614e49565b60a25473ffffffffffffffffffffffffffffffffffffffff1691906155b0565b50505b60a254604080517f70a08231000000000000000000000000000000000000000000000000000000008152306004820152905173ffffffffffffffffffffffffffffffffffffffff909216916370a0823191602480820192602092909190829003018186803b15801561555757600080fd5b505afa15801561556b573d6000803e3d6000fd5b505050506040513d602081101561558157600080fd5b505160a65550505050565b60006155a96155a384670de0b6b3a7640000614d4a565b83615c66565b9392505050565b6040805173ffffffffffffffffffffffffffffffffffffffff8481166024830152604480830185905283518084039091018152606490920183526020820180517bffffffffffffffffffffffffffffffffffffffffffffffffffffffff167fa9059cbb00000000000000000000000000000000000000000000000000000000178152925182516000946060949389169392918291908083835b6020831061568657805182527fffffffffffffffffffffffffffffffffffffffffffffffffffffffffffffffe09092019160209182019101615649565b6001836020036101000a0380198251168184511680821785525050505050509050019150506000604051808303816000865af19150503d80600081146156e8576040519150601f19603f3d011682016040523d82523d6000602084013e6156ed565b606091505b509150915081801561571b57508051158061571b575080806020019051602081101561571857600080fd5b50515b613a1757604080517f08c379a000000000000000000000000000000000000000000000000000000000815260206004820152600d60248201527f21736166655472616e7366657200000000000000000000000000000000000000604482015290519081900360640190fd5b60006155a96157958484614d4a565b6b033b2e3c9fd0803ce8000000615c66565b3390565b6040805173ffffffffffffffffffffffffffffffffffffffff85811660248301528481166044830152606480830185905283518084039091018152608490920183526020820180517bffffffffffffffffffffffffffffffffffffffffffffffffffffffff167f23b872dd0000000000000000000000000000000000000000000000000000000017815292518251600094606094938a169392918291908083835b6020831061588957805182527fffffffffffffffffffffffffffffffffffffffffffffffffffffffffffffffe0909201916020918201910161584c565b6001836020036101000a0380198251168184511680821785525050505050509050019150506000604051808303816000865af19150503d80600081146158eb576040519150601f19603f3d011682016040523d82523d6000602084013e6158f0565b606091505b509150915081801561591e57508051158061591e575080806020019051602081101561591b57600080fd5b50515b61598957604080517f08c379a000000000000000000000000000000000000000000000000000000000815260206004820152601160248201527f21736166655472616e7366657246726f6d000000000000000000000000000000604482015290519081900360640190fd5b505050505050565b6000670de0b6b3a7640000614d3b8484614d4a565b6000609d5460011415615bbb57609754609a54604080517fb0ab8c5200000000000000000000000000000000000000000000000000000000815260048101929092523060248301525160009273ffffffffffffffffffffffffffffffffffffffff169163b0ab8c52916044808301926020929190829003018186803b158015615a2e57600080fd5b505afa158015615a42573d6000803e3d6000fd5b505050506040513d6020811015615a5857600080fd5b5051609754609a54604080517f93f1a40b00000000000000000000000000000000000000000000000000000000815260048101929092523060248301525192935060009273ffffffffffffffffffffffffffffffffffffffff909216916393f1a40b91604480820192608092909190829003018186803b158015615adb57600080fd5b505afa158015615aef573d6000803e3d6000fd5b505050506040513d6080811015615b0557600080fd5b505190508015801590615b185750600082115b15615bb857609754609a54604080517fb5c5f6720000000000000000000000000000000000000000000000000000000081523060048201526024810192909252600060448301819052905173ffffffffffffffffffffffffffffffffffffffff9093169263b5c5f67292606480820193929182900301818387803b158015615b9f57600080fd5b505af1158015615bb3573d6000803e3d6000fd5b505050505b50505b60a254604080517f70a082310000000000000000000000000000000000000000000000000000000081523060048201529051615c619273ffffffffffffffffffffffffffffffffffffffff16916370a08231916024808301926020929190829003018186803b158015615c2d57600080fd5b505afa158015615c41573d6000803e3d6000fd5b505050506040513d6020811015615c5757600080fd5b505160a654614e49565b905090565b600081614d3b84613afd856001614e4956fe4962546f6b656e416461707465722f7374616b655b64657374696e6174696f6e5d203e20636f6c6c61746572616c546f6b656e73202b206c6f636b6564436f6c6c61746572616c4962546f6b656e416461707465722f7265776172642d746f6b656e2d6e6f742d6d617463684962546f6b656e416461707465722f626164207472656173757279206163636f756e74496e697469616c697a61626c653a20636f6e747261637420697320616c726561647920696e697469616c697a65644962546f6b656e416461707465722f636f6c6c61746572616c546f6b656e2d6e6f742d6d617463684962546f6b656e416461707465722f74696d656c6f636b2d6e6f742d6d617463684962546f6b656e416461707465722f696e73756666696369656e74207374616b656420616d6f756e744962546f6b656e416461707465722f62616420747265617375727920666565206270734962546f6b656e416461707465722f686172766573742d746f2d616464726573732d7a65726f4962546f6b656e416461707465722f7374616b655b736f757263655d203c20636f6c6c61746572616c546f6b656e73202b206c6f636b6564436f6c6c61746572616ca26469706673582212207d945c48d81dbc7725bbb7e73c781c5fd8002567270262d7f93fdec548a00bd664736f6c634300060c0033",
  "linkReferences": {},
  "deployedLinkReferences": {}
}