{
  "_format": "hh-sol-artifact-1",
  "contractName": "MockICY",
  "sourceName": "contracts/vaults/mocks/MockICY.sol",
  "abi": [
    {
      "inputs": [],
      "stateMutability": "nonpayable",
      "type": "constructor"
    },
    {
      "inputs": [
        {
          "internalType": "address",
          "name": "asset",
          "type": "address"
        },
        {
          "internalType": "address",
          "name": "who",
          "type": "address"
        }
      ],
      "name": "balanceOf",
      "outputs": [
        {
          "internalType": "uint256",
          "name": "",
          "type": "uint256"
        }
      ],
      "stateMutability": "view",
      "type": "function"
    },
    {
      "inputs": [
        {
          "internalType": "address",
          "name": "asset",
          "type": "address"
        },
        {
          "internalType": "uint256",
          "name": "mintAmount",
          "type": "uint256"
        }
      ],
      "name": "mint",
      "outputs": [
        {
          "internalType": "uint256",
          "name": "",
          "type": "uint256"
        }
      ],
      "stateMutability": "nonpayable",
      "type": "function"
    },
    {
      "inputs": [
        {
          "internalType": "address",
          "name": "asset",
          "type": "address"
        },
        {
          "internalType": "uint256",
          "name": "redeemTokens",
          "type": "uint256"
        }
      ],
      "name": "redeem",
      "outputs": [
        {
          "internalType": "uint256",
          "name": "",
          "type": "uint256"
        }
      ],
      "stateMutability": "nonpayable",
      "type": "function"
    }
  ],
  "bytecode": "0x608060405234801561001057600080fd5b5061050d806100206000396000f3fe608060405234801561001057600080fd5b50600436106100415760003560e01c80631e9a69501461004657806340c10f191461006b578063f7888aec1461007e575b600080fd5b6100596100543660046103da565b6100c2565b60405190815260200160405180910390f35b6100596100793660046103da565b6102c3565b61005961008c366004610404565b73ffffffffffffffffffffffffffffffffffffffff91821660009081526020818152604080832093909416825291909152205490565b6040517f70a08231000000000000000000000000000000000000000000000000000000008152306004820152600090829073ffffffffffffffffffffffffffffffffffffffff8516906370a082319060240160206040518083038186803b15801561012c57600080fd5b505afa158015610140573d6000803e3d6000fd5b505050506040513d601f19601f820116820180604052508101906101649190610437565b10156101d0576040517f08c379a000000000000000000000000000000000000000000000000000000000815260206004820152601360248201527f496e73756666696369656e7420616d6f756e7400000000000000000000000000604482015260640160405180910390fd5b6040517fa9059cbb0000000000000000000000000000000000000000000000000000000081523360048201526024810183905273ffffffffffffffffffffffffffffffffffffffff84169063a9059cbb90604401602060405180830381600087803b15801561023e57600080fd5b505af1158015610252573d6000803e3d6000fd5b505050506040513d601f19601f820116820180604052508101906102769190610450565b5073ffffffffffffffffffffffffffffffffffffffff8316600090815260208181526040808320338452909152812080548492906102b59084906104a8565b909155506000949350505050565b6040517f23b872dd0000000000000000000000000000000000000000000000000000000081523360048201523060248201526044810182905260009073ffffffffffffffffffffffffffffffffffffffff8416906323b872dd90606401602060405180830381600087803b15801561033a57600080fd5b505af115801561034e573d6000803e3d6000fd5b505050506040513d601f19601f820116820180604052508101906103729190610450565b5073ffffffffffffffffffffffffffffffffffffffff8316600090815260208181526040808320338452909152812080548492906102b59084906104bf565b803573ffffffffffffffffffffffffffffffffffffffff811681146103d557600080fd5b919050565b600080604083850312156103ed57600080fd5b6103f6836103b1565b946020939093013593505050565b6000806040838503121561041757600080fd5b610420836103b1565b915061042e602084016103b1565b90509250929050565b60006020828403121561044957600080fd5b5051919050565b60006020828403121561046257600080fd5b8151801515811461047257600080fd5b9392505050565b7f4e487b7100000000000000000000000000000000000000000000000000000000600052601160045260246000fd5b6000828210156104ba576104ba610479565b500390565b600082198211156104d2576104d2610479565b50019056fea2646970667358221220725a2ecbd7ef6deef8619d423189ca471bfd6da3b6b75d5ee60ec4774b2f74b264736f6c63430008090033",
  "linkReferences": {},
  "deployedLinkReferences": {}
}