{
  "_format": "hh-sol-artifact-1",
  "contractName": "VestedSolarBeamToken",
  "sourceName": "contracts/solar/VestedSolarBeamToken.sol",
  "abi": [
    {
      "inputs": [
        {
          "internalType": "string",
          "name": "_tokenName",
          "type": "string"
        },
        {
          "internalType": "string",
          "name": "_tokenSymbol",
          "type": "string"
        },
        {
          "internalType": "address",
          "name": "_lockedToken",
          "type": "address"
        },
        {
          "internalType": "uint256",
          "name": "_minLockedAmount",
          "type": "uint256"
        }
      ],
      "stateMutability": "nonpayable",
      "type": "constructor"
    },
    {
      "anonymous": false,
      "inputs": [
        {
          "indexed": true,
          "internalType": "address",
          "name": "owner",
          "type": "address"
        },
        {
          "indexed": true,
          "internalType": "address",
          "name": "spender",
          "type": "address"
        },
        {
          "indexed": false,
          "internalType": "uint256",
          "name": "value",
          "type": "uint256"
        }
      ],
      "name": "Approval",
      "type": "event"
    },
    {
      "anonymous": false,
      "inputs": [
        {
          "indexed": true,
          "internalType": "address",
          "name": "provider",
          "type": "address"
        },
        {
          "indexed": false,
          "internalType": "uint256",
          "name": "value",
          "type": "uint256"
        },
        {
          "indexed": false,
          "internalType": "uint256",
          "name": "locktime",
          "type": "uint256"
        }
      ],
      "name": "Deposit",
      "type": "event"
    },
    {
      "anonymous": false,
      "inputs": [
        {
          "indexed": true,
          "internalType": "uint256",
          "name": "penalty",
          "type": "uint256"
        }
      ],
      "name": "EarlyWithdrawPenaltySet",
      "type": "event"
    },
    {
      "anonymous": false,
      "inputs": [
        {
          "indexed": true,
          "internalType": "uint256",
          "name": "amount",
          "type": "uint256"
        }
      ],
      "name": "MinLockedAmountSet",
      "type": "event"
    },
    {
      "anonymous": false,
      "inputs": [
        {
          "indexed": true,
          "internalType": "address",
          "name": "previousOwner",
          "type": "address"
        },
        {
          "indexed": true,
          "internalType": "address",
          "name": "newOwner",
          "type": "address"
        }
      ],
      "name": "OwnershipTransferred",
      "type": "event"
    },
    {
      "anonymous": false,
      "inputs": [
        {
          "indexed": true,
          "internalType": "address",
          "name": "addr",
          "type": "address"
        }
      ],
      "name": "PenaltyCollectorSet",
      "type": "event"
    },
    {
      "anonymous": false,
      "inputs": [
        {
          "indexed": true,
          "internalType": "address",
          "name": "from",
          "type": "address"
        },
        {
          "indexed": true,
          "internalType": "address",
          "name": "to",
          "type": "address"
        },
        {
          "indexed": false,
          "internalType": "uint256",
          "name": "value",
          "type": "uint256"
        }
      ],
      "name": "Transfer",
      "type": "event"
    },
    {
      "anonymous": false,
      "inputs": [
        {
          "indexed": true,
          "internalType": "address",
          "name": "provider",
          "type": "address"
        },
        {
          "indexed": false,
          "internalType": "uint256",
          "name": "value",
          "type": "uint256"
        }
      ],
      "name": "Withdraw",
      "type": "event"
    },
    {
      "inputs": [],
      "name": "DOMAIN_SEPARATOR",
      "outputs": [
        {
          "internalType": "bytes32",
          "name": "",
          "type": "bytes32"
        }
      ],
      "stateMutability": "view",
      "type": "function"
    },
    {
      "inputs": [],
      "name": "MAXDAYS",
      "outputs": [
        {
          "internalType": "uint256",
          "name": "",
          "type": "uint256"
        }
      ],
      "stateMutability": "view",
      "type": "function"
    },
    {
      "inputs": [],
      "name": "MAXTIME",
      "outputs": [
        {
          "internalType": "uint256",
          "name": "",
          "type": "uint256"
        }
      ],
      "stateMutability": "view",
      "type": "function"
    },
    {
      "inputs": [],
      "name": "MAX_WITHDRAWAL_PENALTY",
      "outputs": [
        {
          "internalType": "uint256",
          "name": "",
          "type": "uint256"
        }
      ],
      "stateMutability": "view",
      "type": "function"
    },
    {
      "inputs": [],
      "name": "MINDAYS",
      "outputs": [
        {
          "internalType": "uint256",
          "name": "",
          "type": "uint256"
        }
      ],
      "stateMutability": "view",
      "type": "function"
    },
    {
      "inputs": [],
      "name": "PRECISION",
      "outputs": [
        {
          "internalType": "uint256",
          "name": "",
          "type": "uint256"
        }
      ],
      "stateMutability": "view",
      "type": "function"
    },
    {
      "inputs": [
        {
          "internalType": "address",
          "name": "owner",
          "type": "address"
        },
        {
          "internalType": "address",
          "name": "spender",
          "type": "address"
        }
      ],
      "name": "allowance",
      "outputs": [
        {
          "internalType": "uint256",
          "name": "",
          "type": "uint256"
        }
      ],
      "stateMutability": "view",
      "type": "function"
    },
    {
      "inputs": [
        {
          "internalType": "address",
          "name": "spender",
          "type": "address"
        },
        {
          "internalType": "uint256",
          "name": "amount",
          "type": "uint256"
        }
      ],
      "name": "approve",
      "outputs": [
        {
          "internalType": "bool",
          "name": "",
          "type": "bool"
        }
      ],
      "stateMutability": "nonpayable",
      "type": "function"
    },
    {
      "inputs": [
        {
          "internalType": "address",
          "name": "account",
          "type": "address"
        }
      ],
      "name": "balanceOf",
      "outputs": [
        {
          "internalType": "uint256",
          "name": "",
          "type": "uint256"
        }
      ],
      "stateMutability": "view",
      "type": "function"
    },
    {
      "inputs": [
        {
          "internalType": "uint256",
          "name": "amount",
          "type": "uint256"
        }
      ],
      "name": "burn",
      "outputs": [],
      "stateMutability": "nonpayable",
      "type": "function"
    },
    {
      "inputs": [
        {
          "internalType": "address",
          "name": "account",
          "type": "address"
        },
        {
          "internalType": "uint256",
          "name": "amount",
          "type": "uint256"
        }
      ],
      "name": "burnFrom",
      "outputs": [],
      "stateMutability": "nonpayable",
      "type": "function"
    },
    {
      "inputs": [
        {
          "internalType": "uint256",
          "name": "_value",
          "type": "uint256"
        },
        {
          "internalType": "uint256",
          "name": "_days",
          "type": "uint256"
        }
      ],
      "name": "create",
      "outputs": [],
      "stateMutability": "nonpayable",
      "type": "function"
    },
    {
      "inputs": [
        {
          "internalType": "uint256",
          "name": "_value",
          "type": "uint256"
        },
        {
          "internalType": "uint256",
          "name": "_days",
          "type": "uint256"
        },
        {
          "internalType": "uint256",
          "name": "deadline",
          "type": "uint256"
        },
        {
          "internalType": "uint8",
          "name": "v",
          "type": "uint8"
        },
        {
          "internalType": "bytes32",
          "name": "r",
          "type": "bytes32"
        },
        {
          "internalType": "bytes32",
          "name": "s",
          "type": "bytes32"
        }
      ],
      "name": "createWithPermit",
      "outputs": [],
      "stateMutability": "nonpayable",
      "type": "function"
    },
    {
      "inputs": [],
      "name": "decimals",
      "outputs": [
        {
          "internalType": "uint8",
          "name": "",
          "type": "uint8"
        }
      ],
      "stateMutability": "view",
      "type": "function"
    },
    {
      "inputs": [
        {
          "internalType": "address",
          "name": "spender",
          "type": "address"
        },
        {
          "internalType": "uint256",
          "name": "subtractedValue",
          "type": "uint256"
        }
      ],
      "name": "decreaseAllowance",
      "outputs": [
        {
          "internalType": "bool",
          "name": "",
          "type": "bool"
        }
      ],
      "stateMutability": "nonpayable",
      "type": "function"
    },
    {
      "inputs": [
        {
          "internalType": "address",
          "name": "_addr",
          "type": "address"
        },
        {
          "internalType": "uint256",
          "name": "_value",
          "type": "uint256"
        }
      ],
      "name": "deposit",
      "outputs": [],
      "stateMutability": "nonpayable",
      "type": "function"
    },
    {
      "inputs": [],
      "name": "earlyWithdrawPenaltyRate",
      "outputs": [
        {
          "internalType": "uint256",
          "name": "",
          "type": "uint256"
        }
      ],
      "stateMutability": "view",
      "type": "function"
    },
    {
      "inputs": [],
      "name": "emergencyWithdraw",
      "outputs": [],
      "stateMutability": "nonpayable",
      "type": "function"
    },
    {
      "inputs": [
        {
          "internalType": "address",
          "name": "spender",
          "type": "address"
        },
        {
          "internalType": "uint256",
          "name": "addedValue",
          "type": "uint256"
        }
      ],
      "name": "increaseAllowance",
      "outputs": [
        {
          "internalType": "bool",
          "name": "",
          "type": "bool"
        }
      ],
      "stateMutability": "nonpayable",
      "type": "function"
    },
    {
      "inputs": [
        {
          "internalType": "uint256",
          "name": "_value",
          "type": "uint256"
        }
      ],
      "name": "increaseAmount",
      "outputs": [],
      "stateMutability": "nonpayable",
      "type": "function"
    },
    {
      "inputs": [
        {
          "internalType": "uint256",
          "name": "_value",
          "type": "uint256"
        },
        {
          "internalType": "uint256",
          "name": "deadline",
          "type": "uint256"
        },
        {
          "internalType": "uint8",
          "name": "v",
          "type": "uint8"
        },
        {
          "internalType": "bytes32",
          "name": "r",
          "type": "bytes32"
        },
        {
          "internalType": "bytes32",
          "name": "s",
          "type": "bytes32"
        }
      ],
      "name": "increaseAmountWithPermit",
      "outputs": [],
      "stateMutability": "nonpayable",
      "type": "function"
    },
    {
      "inputs": [
        {
          "internalType": "uint256",
          "name": "_days",
          "type": "uint256"
        }
      ],
      "name": "increaseLock",
      "outputs": [],
      "stateMutability": "nonpayable",
      "type": "function"
    },
    {
      "inputs": [
        {
          "internalType": "address",
          "name": "",
          "type": "address"
        }
      ],
      "name": "locked",
      "outputs": [
        {
          "internalType": "uint256",
          "name": "amount",
          "type": "uint256"
        },
        {
          "internalType": "uint256",
          "name": "end",
          "type": "uint256"
        }
      ],
      "stateMutability": "view",
      "type": "function"
    },
    {
      "inputs": [],
      "name": "lockedToken",
      "outputs": [
        {
          "internalType": "address",
          "name": "",
          "type": "address"
        }
      ],
      "stateMutability": "view",
      "type": "function"
    },
    {
      "inputs": [],
      "name": "minLockedAmount",
      "outputs": [
        {
          "internalType": "uint256",
          "name": "",
          "type": "uint256"
        }
      ],
      "stateMutability": "view",
      "type": "function"
    },
    {
      "inputs": [
        {
          "internalType": "address",
          "name": "",
          "type": "address"
        }
      ],
      "name": "mintedForLock",
      "outputs": [
        {
          "internalType": "uint256",
          "name": "",
          "type": "uint256"
        }
      ],
      "stateMutability": "view",
      "type": "function"
    },
    {
      "inputs": [],
      "name": "name",
      "outputs": [
        {
          "internalType": "string",
          "name": "",
          "type": "string"
        }
      ],
      "stateMutability": "view",
      "type": "function"
    },
    {
      "inputs": [
        {
          "internalType": "address",
          "name": "owner",
          "type": "address"
        }
      ],
      "name": "nonces",
      "outputs": [
        {
          "internalType": "uint256",
          "name": "",
          "type": "uint256"
        }
      ],
      "stateMutability": "view",
      "type": "function"
    },
    {
      "inputs": [],
      "name": "owner",
      "outputs": [
        {
          "internalType": "address",
          "name": "",
          "type": "address"
        }
      ],
      "stateMutability": "view",
      "type": "function"
    },
    {
      "inputs": [],
      "name": "penaltyCollector",
      "outputs": [
        {
          "internalType": "address",
          "name": "",
          "type": "address"
        }
      ],
      "stateMutability": "view",
      "type": "function"
    },
    {
      "inputs": [
        {
          "internalType": "address",
          "name": "owner",
          "type": "address"
        },
        {
          "internalType": "address",
          "name": "spender",
          "type": "address"
        },
        {
          "internalType": "uint256",
          "name": "value",
          "type": "uint256"
        },
        {
          "internalType": "uint256",
          "name": "deadline",
          "type": "uint256"
        },
        {
          "internalType": "uint8",
          "name": "v",
          "type": "uint8"
        },
        {
          "internalType": "bytes32",
          "name": "r",
          "type": "bytes32"
        },
        {
          "internalType": "bytes32",
          "name": "s",
          "type": "bytes32"
        }
      ],
      "name": "permit",
      "outputs": [],
      "stateMutability": "nonpayable",
      "type": "function"
    },
    {
      "inputs": [],
      "name": "renounceOwnership",
      "outputs": [],
      "stateMutability": "nonpayable",
      "type": "function"
    },
    {
      "inputs": [
        {
          "internalType": "uint256",
          "name": "_earlyWithdrawPenaltyRate",
          "type": "uint256"
        }
      ],
      "name": "setEarlyWithdrawPenaltyRate",
      "outputs": [],
      "stateMutability": "nonpayable",
      "type": "function"
    },
    {
      "inputs": [
        {
          "internalType": "uint256",
          "name": "_minLockedAmount",
          "type": "uint256"
        }
      ],
      "name": "setMinLockedAmount",
      "outputs": [],
      "stateMutability": "nonpayable",
      "type": "function"
    },
    {
      "inputs": [
        {
          "internalType": "address",
          "name": "_addr",
          "type": "address"
        }
      ],
      "name": "setPenaltyCollector",
      "outputs": [],
      "stateMutability": "nonpayable",
      "type": "function"
    },
    {
      "inputs": [],
      "name": "symbol",
      "outputs": [
        {
          "internalType": "string",
          "name": "",
          "type": "string"
        }
      ],
      "stateMutability": "view",
      "type": "function"
    },
    {
      "inputs": [],
      "name": "totalSupply",
      "outputs": [
        {
          "internalType": "uint256",
          "name": "",
          "type": "uint256"
        }
      ],
      "stateMutability": "view",
      "type": "function"
    },
    {
      "inputs": [
        {
          "internalType": "address",
          "name": "to",
          "type": "address"
        },
        {
          "internalType": "uint256",
          "name": "amount",
          "type": "uint256"
        }
      ],
      "name": "transfer",
      "outputs": [
        {
          "internalType": "bool",
          "name": "",
          "type": "bool"
        }
      ],
      "stateMutability": "nonpayable",
      "type": "function"
    },
    {
      "inputs": [
        {
          "internalType": "address",
          "name": "from",
          "type": "address"
        },
        {
          "internalType": "address",
          "name": "to",
          "type": "address"
        },
        {
          "internalType": "uint256",
          "name": "amount",
          "type": "uint256"
        }
      ],
      "name": "transferFrom",
      "outputs": [
        {
          "internalType": "bool",
          "name": "",
          "type": "bool"
        }
      ],
      "stateMutability": "nonpayable",
      "type": "function"
    },
    {
      "inputs": [
        {
          "internalType": "address",
          "name": "newOwner",
          "type": "address"
        }
      ],
      "name": "transferOwnership",
      "outputs": [],
      "stateMutability": "nonpayable",
      "type": "function"
    },
    {
      "inputs": [
        {
          "internalType": "address",
          "name": "_addr",
          "type": "address"
        }
      ],
      "name": "userLockedAmount",
      "outputs": [
        {
          "internalType": "uint256",
          "name": "",
          "type": "uint256"
        }
      ],
      "stateMutability": "view",
      "type": "function"
    },
    {
      "inputs": [
        {
          "internalType": "address",
          "name": "_addr",
          "type": "address"
        }
      ],
      "name": "userLockedUntil",
      "outputs": [
        {
          "internalType": "uint256",
          "name": "",
          "type": "uint256"
        }
      ],
      "stateMutability": "view",
      "type": "function"
    },
    {
      "inputs": [
        {
          "internalType": "uint256",
          "name": "_value",
          "type": "uint256"
        },
        {
          "internalType": "uint256",
          "name": "_days",
          "type": "uint256"
        }
      ],
      "name": "votingPowerLockedDays",
      "outputs": [
        {
          "internalType": "uint256",
          "name": "",
          "type": "uint256"
        }
      ],
      "stateMutability": "pure",
      "type": "function"
    },
    {
      "inputs": [
        {
          "internalType": "uint256",
          "name": "_value",
          "type": "uint256"
        },
        {
          "internalType": "uint256",
          "name": "_unlockTime",
          "type": "uint256"
        }
      ],
      "name": "votingPowerUnlockTime",
      "outputs": [
        {
          "internalType": "uint256",
          "name": "",
          "type": "uint256"
        }
      ],
      "stateMutability": "view",
      "type": "function"
    },
    {
      "inputs": [],
      "name": "withdraw",
      "outputs": [],
      "stateMutability": "nonpayable",
      "type": "function"
    }
  ],
  "bytecode": "0x6101606040523480156200001257600080fd5b50604051620039c6380380620039c6833981016040819052620000359162000325565b8380604051806040016040528060018152602001603160f81b815250868681600390805190602001906200006b929190620001b2565b50805162000081906004906020840190620001b2565b5050825160209384012082519284019290922060e08390526101008190524660a0818152604080517f8b73c3c69bb8fe3d512ecc4cf759cc79239f7b179b0ffacaa9a75d522b39400f818901819052818301979097526060810194909452608080850193909352308483018190528151808603909301835260c09485019091528151919096012090529290925261012052506200012090503362000160565b600160088190556001600160a01b0390921661014052600a55620124f8600b55600980546001600160a01b03191661dead179055600c5550620003f59050565b600780546001600160a01b038381166001600160a01b0319831681179093556040519116919082907f8be0079c531659141344cd1fd0a4f28419497f9722a3daafe3b4186f6b6457e090600090a35050565b828054620001c090620003b8565b90600052602060002090601f016020900481019282620001e457600085556200022f565b82601f10620001ff57805160ff19168380011785556200022f565b828001600101855582156200022f579182015b828111156200022f57825182559160200191906001019062000212565b506200023d92915062000241565b5090565b5b808211156200023d576000815560010162000242565b634e487b7160e01b600052604160045260246000fd5b600082601f8301126200028057600080fd5b81516001600160401b03808211156200029d576200029d62000258565b604051601f8301601f19908116603f01168101908282118183101715620002c857620002c862000258565b81604052838152602092508683858801011115620002e557600080fd5b600091505b83821015620003095785820183015181830184015290820190620002ea565b838211156200031b5760008385830101525b9695505050505050565b600080600080608085870312156200033c57600080fd5b84516001600160401b03808211156200035457600080fd5b62000362888389016200026e565b955060208701519150808211156200037957600080fd5b5062000388878288016200026e565b604087015190945090506001600160a01b0381168114620003a857600080fd5b6060959095015193969295505050565b600181811c90821680620003cd57607f821691505b60208210811415620003ef57634e487b7160e01b600052602260045260246000fd5b50919050565b60805160a05160c05160e051610100516101205161014051613553620004736000396000818161034a01528181610c1c01528181610f8401528181611324015281816121480152612bb101526000612613015260006126620152600061263d01526000612596015260006125c0015260006125ea01526135536000f3fe608060405234801561001057600080fd5b50600436106102ff5760003560e01c80636766e2db1161019c578063a8a4a376116100ee578063d08a12ff11610097578063dd62ed3e11610071578063dd62ed3e146106bf578063ee00ef3a14610705578063f2fde38b1461070d57600080fd5b8063d08a12ff14610691578063d505accf146106a4578063db2e21bc146106b757600080fd5b8063ae6ef65f116100c8578063ae6ef65f14610613578063bf0ae48c1461061c578063cbf9fe5f1461065557600080fd5b8063a8a4a376146105e3578063a9059cbb146105f6578063aaf5eb681461060957600080fd5b80638da5cb5b116101505780639f7b45791161012a5780639f7b4579146105b4578063a25b39b7146105c7578063a457c2d7146105d057600080fd5b80638da5cb5b1461057b57806395d89b41146105995780639655b433146105a157600080fd5b8063715018a611610181578063715018a61461054d57806379cc6790146105555780637ecebe001461056857600080fd5b80636766e2db1461050457806370a082311461051757600080fd5b806323b872dd11610255578063395093511161020957806342966c68116101e357806342966c68146104cb57806347e7ef24146104de5780635b7d8f05146104f157600080fd5b8063395093511461049d5780633b886979146104b05780633ccfd60b146104c357600080fd5b8063308097b21161023a578063308097b214610466578063313ce567146104865780633644e5151461049557600080fd5b806323b872dd1461041d5780632bfc94671461043057600080fd5b806315456eba116102b75780631c1706ca116102915780631c1706ca146103ed5780631c5a0914146104005780632060176b1461041357600080fd5b806315456eba146103c75780631767c433146103dc57806318160ddd146103e557600080fd5b80630f45cc81116102e85780630f45cc81146103455780630f51c09c14610391578063113f6653146103a757600080fd5b806306fdde0314610304578063095ea7b314610322575b600080fd5b61030c610720565b6040516103199190613110565b60405180910390f35b61033561033036600461318a565b6107b2565b6040519015158152602001610319565b61036c7f000000000000000000000000000000000000000000000000000000000000000081565b60405173ffffffffffffffffffffffffffffffffffffffff9091168152602001610319565b610399600781565b604051908152602001610319565b6103996103b53660046131b4565b600e6020526000908152604090205481565b6103da6103d53660046131cf565b6107cc565b005b6103996105b481565b600254610399565b6103996103fb3660046131e8565b61085c565b6103da61040e3660046131cf565b6108c9565b61039962015f9081565b61033561042b36600461320a565b6109d9565b61039961043e3660046131b4565b73ffffffffffffffffffffffffffffffffffffffff166000908152600d602052604090205490565b60095461036c9073ffffffffffffffffffffffffffffffffffffffff1681565b60405160128152602001610319565b6103996109fd565b6103356104ab36600461318a565b610a0c565b6103996104be3660046131e8565b610a58565b6103da610a88565b6103da6104d93660046131cf565b610c97565b6103da6104ec36600461318a565b610ca1565b6103da6104ff3660046131b4565b610ddf565b6103da610512366004613257565b610efb565b6103996105253660046131b4565b73ffffffffffffffffffffffffffffffffffffffff1660009081526020819052604090205490565b6103da611076565b6103da61056336600461318a565b61108a565b6103996105763660046131b4565b61109f565b60075473ffffffffffffffffffffffffffffffffffffffff1661036c565b61030c6110ca565b6103da6105af36600461329e565b6110d9565b6103da6105c23660046131e8565b611416565b610399600a5481565b6103356105de36600461318a565b611655565b6103da6105f13660046131cf565b611726565b61033561060436600461318a565b6117f4565b610399620186a081565b610399600b5481565b61039961062a3660046131b4565b73ffffffffffffffffffffffffffffffffffffffff166000908152600d602052604090206001015490565b61067c6106633660046131b4565b600d602052600090815260409020805460019091015482565b60408051928352602083019190915201610319565b6103da61069f3660046131cf565b611802565b6103da6106b23660046132ef565b61183d565b6103da6119fc565b6103996106cd366004613359565b73ffffffffffffffffffffffffffffffffffffffff918216600090815260016020908152604080832093909416825291909152205490565b610399611b64565b6103da61071b3660046131b4565b611b76565b60606003805461072f9061338c565b80601f016020809104026020016040519081016040528092919081815260200182805461075b9061338c565b80156107a85780601f1061077d576101008083540402835291602001916107a8565b820191906000526020600020905b81548152906001019060200180831161078b57829003601f168201915b5050505050905090565b6000336107c0818585611c2a565b60019150505b92915050565b6107d4611dde565b60008111610843576040517f08c379a000000000000000000000000000000000000000000000000000000000815260206004820152601e60248201527f696e637265617365416d6f756e743a20696e76616c696420616d6f756e74000060448201526064015b60405180910390fd5b61084f33826000611e52565b6108596001600855565b50565b6000428083116108705760009150506107c6565b600061087c8285613409565b905061088d6105b462015180613420565b811061089d5784925050506107c6565b6108ac6105b462015180613420565b6108b68287613420565b6108c0919061345d565b95945050505050565b6108d1611dde565b6000811161093b576040517f08c379a000000000000000000000000000000000000000000000000000000000815260206004820152601c60248201527f696e6372656173654c6f636b3a20696e76616c696420616d6f756e7400000000604482015260640161083a565b6105b48111156109cd576040517f08c379a000000000000000000000000000000000000000000000000000000000815260206004820152602c60248201527f696e6372656173654c6f636b3a20766f74696e67206c6f636b2063616e20626560448201527f2034207965617273206d61780000000000000000000000000000000000000000606482015260840161083a565b61084f33600083611e52565b6000336109e7858285612236565b6109f285858561230d565b506001949350505050565b6000610a0761257c565b905090565b33600081815260016020908152604080832073ffffffffffffffffffffffffffffffffffffffff871684529091528120549091906107c09082908690610a53908790613498565b611c2a565b60006105b48210610a6a5750816107c6565b6105b4610a778385613420565b610a81919061345d565b9392505050565b600c54600114610af4576040517f08c379a000000000000000000000000000000000000000000000000000000000815260206004820152600660248201527f4c4f434b45440000000000000000000000000000000000000000000000000000604482015260640161083a565b6000600c819055338152600d6020526040902080544290610b71576040517f08c379a000000000000000000000000000000000000000000000000000000000815260206004820152601d60248201527f77697468647261773a206e6f7468696e6720746f207769746864726177000000604482015260640161083a565b8160010154811015610bdf576040517f08c379a000000000000000000000000000000000000000000000000000000000815260206004820152601b60248201527f77697468647261773a2075736572207374696c6c206c6f636b65640000000000604482015260640161083a565b81546000600184018190558355610c06335b336000908152600e60205260409020546126b0565b336000818152600e6020526040812055610c58907f000000000000000000000000000000000000000000000000000000000000000073ffffffffffffffffffffffffffffffffffffffff16908361286c565b60405181815233907f884edad9ce6fa2440d8a54cc123490eb96d2768479d49ff9c7366125a94243649060200160405180910390a250506001600c5550565b61085933826126b0565b610ca9611dde565b60008111610d13576040517f08c379a000000000000000000000000000000000000000000000000000000000815260206004820152601760248201527f6465706f7369743a20696e76616c696420616d6f756e74000000000000000000604482015260640161083a565b73ffffffffffffffffffffffffffffffffffffffff82166000908152600d6020526040902054610dc5576040517f08c379a000000000000000000000000000000000000000000000000000000000815260206004820152602160248201527f6465706f7369743a206e6f206c6f636b20666f7220746869732061646472657360448201527f7300000000000000000000000000000000000000000000000000000000000000606482015260840161083a565b610dd182826000611e52565b610ddb6001600855565b5050565b610de76129d5565b60095473ffffffffffffffffffffffffffffffffffffffff16610e8c576040517f08c379a000000000000000000000000000000000000000000000000000000000815260206004820152602860248201527f73657450656e616c7479436f6c6c6563746f723a2073657420612076616c696460448201527f2061646472657373000000000000000000000000000000000000000000000000606482015260840161083a565b600980547fffffffffffffffffffffffff00000000000000000000000000000000000000001673ffffffffffffffffffffffffffffffffffffffff83169081179091556040517f2541601c97bce42b47813f2be715ba4eb0a571f2aafaf35cda2054137d9a79af90600090a250565b610f03611dde565b60008511610f6d576040517f08c379a000000000000000000000000000000000000000000000000000000000815260206004820152601e60248201527f696e637265617365416d6f756e743a20696e76616c696420616d6f756e740000604482015260640161083a565b73ffffffffffffffffffffffffffffffffffffffff7f00000000000000000000000000000000000000000000000000000000000000001663d505accf336040517fffffffff0000000000000000000000000000000000000000000000000000000060e084901b16815273ffffffffffffffffffffffffffffffffffffffff9091166004820152306024820152604481018890526064810187905260ff8616608482015260a4810185905260c4810184905260e401600060405180830381600087803b15801561103b57600080fd5b505af115801561104f573d6000803e3d6000fd5b5050505061106561105d3390565b866000611e52565b61106f6001600855565b5050505050565b61107e6129d5565b6110886000612a56565b565b611095823383612236565b610ddb82826126b0565b73ffffffffffffffffffffffffffffffffffffffff81166000908152600560205260408120546107c6565b60606004805461072f9061338c565b6110e1611dde565b600a5486101561114d576040517f08c379a000000000000000000000000000000000000000000000000000000000815260206004820152601c60248201527f6372656174653a206c657373207468616e206d696e20616d6f756e7400000000604482015260640161083a565b336000908152600d6020526040902054156111ea576040517f08c379a000000000000000000000000000000000000000000000000000000000815260206004820152602160248201527f6372656174653a207769746864726177206f6c6420746f6b656e73206669727360448201527f7400000000000000000000000000000000000000000000000000000000000000606482015260840161083a565b600785101561127b576040517f08c379a000000000000000000000000000000000000000000000000000000000815260206004820152602660248201527f6372656174653a206c657373207468616e206d696e20616d6f756e74206f662060448201527f3720646179730000000000000000000000000000000000000000000000000000606482015260840161083a565b6105b485111561130d576040517f08c379a000000000000000000000000000000000000000000000000000000000815260206004820152602660248201527f6372656174653a20766f74696e67206c6f636b2063616e20626520342079656160448201527f7273206d61780000000000000000000000000000000000000000000000000000606482015260840161083a565b73ffffffffffffffffffffffffffffffffffffffff7f00000000000000000000000000000000000000000000000000000000000000001663d505accf336040517fffffffff0000000000000000000000000000000000000000000000000000000060e084901b16815273ffffffffffffffffffffffffffffffffffffffff9091166004820152306024820152604481018990526064810187905260ff8616608482015260a4810185905260c4810184905260e401600060405180830381600087803b1580156113db57600080fd5b505af11580156113ef573d6000803e3d6000fd5b505050506114046113fd3390565b8787611e52565b61140e6001600855565b505050505050565b61141e611dde565b600a5482101561148a576040517f08c379a000000000000000000000000000000000000000000000000000000000815260206004820152601c60248201527f6372656174653a206c657373207468616e206d696e20616d6f756e7400000000604482015260640161083a565b336000908152600d602052604090205415611527576040517f08c379a000000000000000000000000000000000000000000000000000000000815260206004820152602160248201527f6372656174653a207769746864726177206f6c6420746f6b656e73206669727360448201527f7400000000000000000000000000000000000000000000000000000000000000606482015260840161083a565b60078110156115b8576040517f08c379a000000000000000000000000000000000000000000000000000000000815260206004820152602660248201527f6372656174653a206c657373207468616e206d696e20616d6f756e74206f662060448201527f3720646179730000000000000000000000000000000000000000000000000000606482015260840161083a565b6105b481111561164a576040517f08c379a000000000000000000000000000000000000000000000000000000000815260206004820152602660248201527f6372656174653a20766f74696e67206c6f636b2063616e20626520342079656160448201527f7273206d61780000000000000000000000000000000000000000000000000000606482015260840161083a565b610dd1338383611e52565b33600081815260016020908152604080832073ffffffffffffffffffffffffffffffffffffffff8716845290915281205490919083811015611719576040517f08c379a000000000000000000000000000000000000000000000000000000000815260206004820152602560248201527f45524332303a2064656372656173656420616c6c6f77616e63652062656c6f7760448201527f207a65726f000000000000000000000000000000000000000000000000000000606482015260840161083a565b6109f28286868403611c2a565b61172e6129d5565b62015f908111156117c1576040517f08c379a000000000000000000000000000000000000000000000000000000000815260206004820152603b60248201527f7365744561726c79576974686472617750656e616c7479526174653a2077697460448201527f6864726177616c2070656e616c747920697320746f6f20686967680000000000606482015260840161083a565b600b81905560405181907fa7d10353d34f5fe96bad91fa358f55fbea8ad6ee0d30924022d2b58e77f476e390600090a250565b6000336107c081858561230d565b61180a6129d5565b600a81905560405181907f9a8dc7fb9d13b0f5acaf673226d570d31ec15d8a813fceced1eb36ad11afebc590600090a250565b834211156118a7576040517f08c379a000000000000000000000000000000000000000000000000000000000815260206004820152601d60248201527f45524332305065726d69743a206578706972656420646561646c696e65000000604482015260640161083a565b60007f6e71edae12b1b97f4d1f60370fef10105fa2faae0126114a169c64845d6126c98888886118d68c612acd565b60408051602081019690965273ffffffffffffffffffffffffffffffffffffffff94851690860152929091166060840152608083015260a082015260c0810186905260e001604051602081830303815290604052805190602001209050600061193e82612b02565b9050600061194e82878787612b6b565b90508973ffffffffffffffffffffffffffffffffffffffff168173ffffffffffffffffffffffffffffffffffffffff16146119e5576040517f08c379a000000000000000000000000000000000000000000000000000000000815260206004820152601e60248201527f45524332305065726d69743a20696e76616c6964207369676e61747572650000604482015260640161083a565b6119f08a8a8a611c2a565b50505050505050505050565b600c54600114611a68576040517f08c379a000000000000000000000000000000000000000000000000000000000815260206004820152600660248201527f4c4f434b45440000000000000000000000000000000000000000000000000000604482015260640161083a565b6000600c819055338152600d6020526040902080544290611b0b576040517f08c379a000000000000000000000000000000000000000000000000000000000815260206004820152602660248201527f656d657267656e637957697468647261773a206e6f7468696e6720746f20776960448201527f7468647261770000000000000000000000000000000000000000000000000000606482015260840161083a565b81546001830154821015611b50576000620186a0600b5483611b2d9190613420565b611b37919061345d565b9050611b4281612b93565b611b4c8183613409565b9150505b6000600184018190558355610c0633610bf1565b611b736105b462015180613420565b81565b611b7e6129d5565b73ffffffffffffffffffffffffffffffffffffffff8116611c21576040517f08c379a000000000000000000000000000000000000000000000000000000000815260206004820152602660248201527f4f776e61626c653a206e6577206f776e657220697320746865207a65726f206160448201527f6464726573730000000000000000000000000000000000000000000000000000606482015260840161083a565b61085981612a56565b73ffffffffffffffffffffffffffffffffffffffff8316611ccc576040517f08c379a0000000000000000000000000000000000000000000000000000000008152602060048201526024808201527f45524332303a20617070726f76652066726f6d20746865207a65726f2061646460448201527f7265737300000000000000000000000000000000000000000000000000000000606482015260840161083a565b73ffffffffffffffffffffffffffffffffffffffff8216611d6f576040517f08c379a000000000000000000000000000000000000000000000000000000000815260206004820152602260248201527f45524332303a20617070726f766520746f20746865207a65726f20616464726560448201527f7373000000000000000000000000000000000000000000000000000000000000606482015260840161083a565b73ffffffffffffffffffffffffffffffffffffffff83811660008181526001602090815260408083209487168084529482529182902085905590518481527f8c5be1e5ebec7d5bd14f71427d1e84f3dd0314c0f7b2291e5b200ac8c7c3b92591015b60405180910390a3505050565b60026008541415611e4b576040517f08c379a000000000000000000000000000000000000000000000000000000000815260206004820152601f60248201527f5265656e7472616e637947756172643a207265656e7472616e742063616c6c00604482015260640161083a565b6002600855565b600c54600114611ebe576040517f08c379a000000000000000000000000000000000000000000000000000000000815260206004820152600660248201527f4c4f434b45440000000000000000000000000000000000000000000000000000604482015260640161083a565b6000600c81905573ffffffffffffffffffffffffffffffffffffffff84168152600d6020526040812080546001820154919242929082611f2857611f028787610a58565b8786559050611f148662015180613420565b611f1e9085613498565b60018601556120d3565b85611f4a57611f37878361085c565b9050611f438784613498565b85556120d3565b8615611ffe576040517f08c379a000000000000000000000000000000000000000000000000000000000815260206004820152604160248201527f5f6465706f7369743a2063616e6e6f7420696e63726561736520616d6f756e7460448201527f20616e6420657874656e64206c6f636b20696e207468652073616d652074696d60648201527f6500000000000000000000000000000000000000000000000000000000000000608482015260a40161083a565b6120088387610a58565b90506120178662015180613420565b6120219083613498565b60018601556120356105b462015180613420565b8486600101546120459190613409565b11156120d3576040517f08c379a000000000000000000000000000000000000000000000000000000000815260206004820152603160248201527f5f6465706f7369743a2063616e6e6f7420657874656e64206c6f636b20746f2060448201527f6d6f7265207468616e2034207965617273000000000000000000000000000000606482015260840161083a565b6000811161213d576040517f08c379a000000000000000000000000000000000000000000000000000000000815260206004820152601260248201527f4e6f2062656e6566697420746f206c6f636b0000000000000000000000000000604482015260640161083a565b8615612185576121857f000000000000000000000000000000000000000000000000000000000000000073ffffffffffffffffffffffffffffffffffffffff1633308a612bda565b61218f8882612d4b565b73ffffffffffffffffffffffffffffffffffffffff88166000908152600e6020526040812080548392906121c4908490613498565b90915550508454600186015460405173ffffffffffffffffffffffffffffffffffffffff8b16927f90890809c654f11d6e72a28fa60149770a0d11ec6c92319d6ceb2bb0a4ea1a159261221f92918252602082015260400190565b60405180910390a250506001600c55505050505050565b73ffffffffffffffffffffffffffffffffffffffff8381166000908152600160209081526040808320938616835292905220547fffffffffffffffffffffffffffffffffffffffffffffffffffffffffffffffff811461230757818110156122fa576040517f08c379a000000000000000000000000000000000000000000000000000000000815260206004820152601d60248201527f45524332303a20696e73756666696369656e7420616c6c6f77616e6365000000604482015260640161083a565b6123078484848403611c2a565b50505050565b73ffffffffffffffffffffffffffffffffffffffff83166123b0576040517f08c379a000000000000000000000000000000000000000000000000000000000815260206004820152602560248201527f45524332303a207472616e736665722066726f6d20746865207a65726f20616460448201527f6472657373000000000000000000000000000000000000000000000000000000606482015260840161083a565b73ffffffffffffffffffffffffffffffffffffffff8216612453576040517f08c379a000000000000000000000000000000000000000000000000000000000815260206004820152602360248201527f45524332303a207472616e7366657220746f20746865207a65726f206164647260448201527f6573730000000000000000000000000000000000000000000000000000000000606482015260840161083a565b73ffffffffffffffffffffffffffffffffffffffff831660009081526020819052604090205481811015612509576040517f08c379a000000000000000000000000000000000000000000000000000000000815260206004820152602660248201527f45524332303a207472616e7366657220616d6f756e742065786365656473206260448201527f616c616e63650000000000000000000000000000000000000000000000000000606482015260840161083a565b73ffffffffffffffffffffffffffffffffffffffff848116600081815260208181526040808320878703905593871680835291849020805487019055925185815290927fddf252ad1be2c89b69c2b068fc378daa952ba7f163c4a11628f55a4df523b3ef910160405180910390a3612307565b60003073ffffffffffffffffffffffffffffffffffffffff7f0000000000000000000000000000000000000000000000000000000000000000161480156125e257507f000000000000000000000000000000000000000000000000000000000000000046145b1561260c57507f000000000000000000000000000000000000000000000000000000000000000090565b50604080517f00000000000000000000000000000000000000000000000000000000000000006020808301919091527f0000000000000000000000000000000000000000000000000000000000000000828401527f000000000000000000000000000000000000000000000000000000000000000060608301524660808301523060a0808401919091528351808403909101815260c0909201909252805191012090565b73ffffffffffffffffffffffffffffffffffffffff8216612753576040517f08c379a000000000000000000000000000000000000000000000000000000000815260206004820152602160248201527f45524332303a206275726e2066726f6d20746865207a65726f2061646472657360448201527f7300000000000000000000000000000000000000000000000000000000000000606482015260840161083a565b73ffffffffffffffffffffffffffffffffffffffff821660009081526020819052604090205481811015612809576040517f08c379a000000000000000000000000000000000000000000000000000000000815260206004820152602260248201527f45524332303a206275726e20616d6f756e7420657863656564732062616c616e60448201527f6365000000000000000000000000000000000000000000000000000000000000606482015260840161083a565b73ffffffffffffffffffffffffffffffffffffffff83166000818152602081815260408083208686039055600280548790039055518581529192917fddf252ad1be2c89b69c2b068fc378daa952ba7f163c4a11628f55a4df523b3ef9101611dd1565b6040805173ffffffffffffffffffffffffffffffffffffffff8481166024830152604480830185905283518084039091018152606490920183526020820180517bffffffffffffffffffffffffffffffffffffffffffffffffffffffff167fa9059cbb00000000000000000000000000000000000000000000000000000000179052915160009283929087169161290391906134b0565b6000604051808303816000865af19150503d8060008114612940576040519150601f19603f3d011682016040523d82523d6000602084013e612945565b606091505b509150915081801561296f57508051158061296f57508080602001905181019061296f91906134cc565b61106f576040517f08c379a000000000000000000000000000000000000000000000000000000000815260206004820152601c60248201527f426f72696e6745524332303a205472616e73666572206661696c656400000000604482015260640161083a565b60075473ffffffffffffffffffffffffffffffffffffffff163314611088576040517f08c379a000000000000000000000000000000000000000000000000000000000815260206004820181905260248201527f4f776e61626c653a2063616c6c6572206973206e6f7420746865206f776e6572604482015260640161083a565b6007805473ffffffffffffffffffffffffffffffffffffffff8381167fffffffffffffffffffffffff0000000000000000000000000000000000000000831681179093556040519116919082907f8be0079c531659141344cd1fd0a4f28419497f9722a3daafe3b4186f6b6457e090600090a35050565b73ffffffffffffffffffffffffffffffffffffffff811660009081526005602052604090208054600181018255905b50919050565b60006107c6612b0f61257c565b836040517f19010000000000000000000000000000000000000000000000000000000000006020820152602281018390526042810182905260009060620160405160208183030381529060405280519060200120905092915050565b6000806000612b7c87878787612e3e565b91509150612b8981612f2d565b5095945050505050565b6009546108599073ffffffffffffffffffffffffffffffffffffffff7f0000000000000000000000000000000000000000000000000000000000000000811691168361286c565b6040805173ffffffffffffffffffffffffffffffffffffffff85811660248301528481166044830152606480830185905283518084039091018152608490920183526020820180517bffffffffffffffffffffffffffffffffffffffffffffffffffffffff167f23b872dd000000000000000000000000000000000000000000000000000000001790529151600092839290881691612c7991906134b0565b6000604051808303816000865af19150503d8060008114612cb6576040519150601f19603f3d011682016040523d82523d6000602084013e612cbb565b606091505b5091509150818015612ce5575080511580612ce5575080806020019051810190612ce591906134cc565b61140e576040517f08c379a000000000000000000000000000000000000000000000000000000000815260206004820181905260248201527f426f72696e6745524332303a205472616e7366657246726f6d206661696c6564604482015260640161083a565b73ffffffffffffffffffffffffffffffffffffffff8216612dc8576040517f08c379a000000000000000000000000000000000000000000000000000000000815260206004820152601f60248201527f45524332303a206d696e7420746f20746865207a65726f206164647265737300604482015260640161083a565b8060026000828254612dda9190613498565b909155505073ffffffffffffffffffffffffffffffffffffffff8216600081815260208181526040808320805486019055518481527fddf252ad1be2c89b69c2b068fc378daa952ba7f163c4a11628f55a4df523b3ef910160405180910390a35050565b6000807f7fffffffffffffffffffffffffffffff5d576e7357a4501ddfe92f46681b20a0831115612e755750600090506003612f24565b6040805160008082526020820180845289905260ff881692820192909252606081018690526080810185905260019060a0016020604051602081039080840390855afa158015612ec9573d6000803e3d6000fd5b50506040517fffffffffffffffffffffffffffffffffffffffffffffffffffffffffffffffe0015191505073ffffffffffffffffffffffffffffffffffffffff8116612f1d57600060019250925050612f24565b9150600090505b94509492505050565b6000816004811115612f4157612f416134ee565b1415612f4a5750565b6001816004811115612f5e57612f5e6134ee565b1415612fc6576040517f08c379a000000000000000000000000000000000000000000000000000000000815260206004820152601860248201527f45434453413a20696e76616c6964207369676e61747572650000000000000000604482015260640161083a565b6002816004811115612fda57612fda6134ee565b1415613042576040517f08c379a000000000000000000000000000000000000000000000000000000000815260206004820152601f60248201527f45434453413a20696e76616c6964207369676e6174757265206c656e67746800604482015260640161083a565b6003816004811115613056576130566134ee565b1415610859576040517f08c379a000000000000000000000000000000000000000000000000000000000815260206004820152602260248201527f45434453413a20696e76616c6964207369676e6174757265202773272076616c60448201527f7565000000000000000000000000000000000000000000000000000000000000606482015260840161083a565b60005b838110156130ff5781810151838201526020016130e7565b838111156123075750506000910152565b602081526000825180602084015261312f8160408501602087016130e4565b601f017fffffffffffffffffffffffffffffffffffffffffffffffffffffffffffffffe0169190910160400192915050565b803573ffffffffffffffffffffffffffffffffffffffff8116811461318557600080fd5b919050565b6000806040838503121561319d57600080fd5b6131a683613161565b946020939093013593505050565b6000602082840312156131c657600080fd5b610a8182613161565b6000602082840312156131e157600080fd5b5035919050565b600080604083850312156131fb57600080fd5b50508035926020909101359150565b60008060006060848603121561321f57600080fd5b61322884613161565b925061323660208501613161565b9150604084013590509250925092565b803560ff8116811461318557600080fd5b600080600080600060a0868803121561326f57600080fd5b853594506020860135935061328660408701613246565b94979396509394606081013594506080013592915050565b60008060008060008060c087890312156132b757600080fd5b8635955060208701359450604087013593506132d560608801613246565b92506080870135915060a087013590509295509295509295565b600080600080600080600060e0888a03121561330a57600080fd5b61331388613161565b965061332160208901613161565b9550604088013594506060880135935061333d60808901613246565b925060a0880135915060c0880135905092959891949750929550565b6000806040838503121561336c57600080fd5b61337583613161565b915061338360208401613161565b90509250929050565b600181811c908216806133a057607f821691505b60208210811415612afc577f4e487b7100000000000000000000000000000000000000000000000000000000600052602260045260246000fd5b7f4e487b7100000000000000000000000000000000000000000000000000000000600052601160045260246000fd5b60008282101561341b5761341b6133da565b500390565b6000817fffffffffffffffffffffffffffffffffffffffffffffffffffffffffffffffff0483118215151615613458576134586133da565b500290565b600082613493577f4e487b7100000000000000000000000000000000000000000000000000000000600052601260045260246000fd5b500490565b600082198211156134ab576134ab6133da565b500190565b600082516134c28184602087016130e4565b9190910192915050565b6000602082840312156134de57600080fd5b81518015158114610a8157600080fd5b7f4e487b7100000000000000000000000000000000000000000000000000000000600052602160045260246000fdfea2646970667358221220dad35ccdade50dddb8510bbb24588b03953290d2b41f89af0ee7b190325e76c964736f6c63430008090033",
  "linkReferences": {},
  "deployedLinkReferences": {}
}