{
  "_format": "hh-sol-artifact-1",
  "contractName": "SimpleRewarderPerSec",
  "sourceName": "contracts/farm/v2/rewarders/SimpleRewarderPerSec.sol",
  "abi": [
    {
      "inputs": [
        {
          "internalType": "contract IBoringERC20",
          "name": "_rewardToken",
          "type": "address"
        },
        {
          "internalType": "uint256",
          "name": "_tokenPerSec",
          "type": "uint256"
        },
        {
          "internalType": "contract IGammaDistributorV2",
          "name": "_distributorV2",
          "type": "address"
        },
        {
          "internalType": "uint256",
          "name": "_pid",
          "type": "uint256"
        },
        {
          "internalType": "bool",
          "name": "_isNative",
          "type": "bool"
        }
      ],
      "stateMutability": "nonpayable",
      "type": "constructor"
    },
    {
      "anonymous": false,
      "inputs": [
        {
          "indexed": true,
          "internalType": "address",
          "name": "user",
          "type": "address"
        },
        {
          "indexed": false,
          "internalType": "uint256",
          "name": "amount",
          "type": "uint256"
        }
      ],
      "name": "OnReward",
      "type": "event"
    },
    {
      "anonymous": false,
      "inputs": [
        {
          "indexed": true,
          "internalType": "address",
          "name": "previousOwner",
          "type": "address"
        },
        {
          "indexed": true,
          "internalType": "address",
          "name": "newOwner",
          "type": "address"
        }
      ],
      "name": "OwnershipTransferred",
      "type": "event"
    },
    {
      "anonymous": false,
      "inputs": [
        {
          "indexed": false,
          "internalType": "uint256",
          "name": "oldRate",
          "type": "uint256"
        },
        {
          "indexed": false,
          "internalType": "uint256",
          "name": "newRate",
          "type": "uint256"
        }
      ],
      "name": "RewardRateUpdated",
      "type": "event"
    },
    {
      "inputs": [],
      "name": "balance",
      "outputs": [
        {
          "internalType": "uint256",
          "name": "",
          "type": "uint256"
        }
      ],
      "stateMutability": "view",
      "type": "function"
    },
    {
      "inputs": [],
      "name": "distributorV2",
      "outputs": [
        {
          "internalType": "contract IGammaDistributorV2",
          "name": "",
          "type": "address"
        }
      ],
      "stateMutability": "view",
      "type": "function"
    },
    {
      "inputs": [],
      "name": "emergencyWithdraw",
      "outputs": [],
      "stateMutability": "nonpayable",
      "type": "function"
    },
    {
      "inputs": [],
      "name": "isNative",
      "outputs": [
        {
          "internalType": "bool",
          "name": "",
          "type": "bool"
        }
      ],
      "stateMutability": "view",
      "type": "function"
    },
    {
      "inputs": [
        {
          "internalType": "address",
          "name": "_user",
          "type": "address"
        },
        {
          "internalType": "uint256",
          "name": "_lpAmount",
          "type": "uint256"
        }
      ],
      "name": "onTauReward",
      "outputs": [],
      "stateMutability": "nonpayable",
      "type": "function"
    },
    {
      "inputs": [],
      "name": "owner",
      "outputs": [
        {
          "internalType": "address",
          "name": "",
          "type": "address"
        }
      ],
      "stateMutability": "view",
      "type": "function"
    },
    {
      "inputs": [
        {
          "internalType": "address",
          "name": "_user",
          "type": "address"
        }
      ],
      "name": "pendingTokens",
      "outputs": [
        {
          "internalType": "uint256",
          "name": "pending",
          "type": "uint256"
        }
      ],
      "stateMutability": "view",
      "type": "function"
    },
    {
      "inputs": [],
      "name": "pid",
      "outputs": [
        {
          "internalType": "uint256",
          "name": "",
          "type": "uint256"
        }
      ],
      "stateMutability": "view",
      "type": "function"
    },
    {
      "inputs": [],
      "name": "poolInfo",
      "outputs": [
        {
          "internalType": "uint256",
          "name": "accTokenPerShare",
          "type": "uint256"
        },
        {
          "internalType": "uint256",
          "name": "lastRewardTimestamp",
          "type": "uint256"
        }
      ],
      "stateMutability": "view",
      "type": "function"
    },
    {
      "inputs": [],
      "name": "renounceOwnership",
      "outputs": [],
      "stateMutability": "nonpayable",
      "type": "function"
    },
    {
      "inputs": [],
      "name": "rewardToken",
      "outputs": [
        {
          "internalType": "contract IBoringERC20",
          "name": "",
          "type": "address"
        }
      ],
      "stateMutability": "view",
      "type": "function"
    },
    {
      "inputs": [
        {
          "internalType": "uint256",
          "name": "_tokenPerSec",
          "type": "uint256"
        }
      ],
      "name": "setRewardRate",
      "outputs": [],
      "stateMutability": "nonpayable",
      "type": "function"
    },
    {
      "inputs": [],
      "name": "tokenPerSec",
      "outputs": [
        {
          "internalType": "uint256",
          "name": "",
          "type": "uint256"
        }
      ],
      "stateMutability": "view",
      "type": "function"
    },
    {
      "inputs": [
        {
          "internalType": "address",
          "name": "newOwner",
          "type": "address"
        }
      ],
      "name": "transferOwnership",
      "outputs": [],
      "stateMutability": "nonpayable",
      "type": "function"
    },
    {
      "inputs": [],
      "name": "updatePool",
      "outputs": [
        {
          "components": [
            {
              "internalType": "uint256",
              "name": "accTokenPerShare",
              "type": "uint256"
            },
            {
              "internalType": "uint256",
              "name": "lastRewardTimestamp",
              "type": "uint256"
            }
          ],
          "internalType": "struct SimpleRewarderPerSec.PoolInfo",
          "name": "pool",
          "type": "tuple"
        }
      ],
      "stateMutability": "nonpayable",
      "type": "function"
    },
    {
      "inputs": [
        {
          "internalType": "address",
          "name": "",
          "type": "address"
        }
      ],
      "name": "userInfo",
      "outputs": [
        {
          "internalType": "uint256",
          "name": "amount",
          "type": "uint256"
        },
        {
          "internalType": "uint256",
          "name": "rewardDebt",
          "type": "uint256"
        }
      ],
      "stateMutability": "view",
      "type": "function"
    },
    {
      "stateMutability": "payable",
      "type": "receive"
    }
  ],
  "bytecode": "0x6101006040523480156200001257600080fd5b50604051620016b5380380620016b5833981016040819052620000359162000216565b62000040336200019e565b600180819055506200005d85620001ee60201b62000dae1760201c565b620000ca5760405162461bcd60e51b815260206004820152603260248201527f636f6e7374727563746f723a2072657761726420746f6b656e206d7573742062604482015271194818481d985b1a590818dbdb9d1c9858dd60721b60648201526084015b60405180910390fd5b620000e083620001ee60201b62000dae1760201c565b620001545760405162461bcd60e51b815260206004820152603860248201527f636f6e7374727563746f723a2047616d6d614469737472696275746f7256322060448201527f6d75737420626520612076616c696420636f6e747261637400000000000000006064820152608401620000c1565b6001600160a01b0394851660805260a09190915260059290925590911660e052151560c0526040805180820190915260008082524260209290920182905260025560035562000282565b600080546001600160a01b038381166001600160a01b0319831681178455604051919092169283917f8be0079c531659141344cd1fd0a4f28419497f9722a3daafe3b4186f6b6457e09190a35050565b6001600160a01b03163b151590565b6001600160a01b03811681146200021357600080fd5b50565b600080600080600060a086880312156200022f57600080fd5b85516200023c81620001fd565b6020870151604088015191965094506200025681620001fd565b60608701516080880151919450925080151581146200027457600080fd5b809150509295509295909350565b60805160a05160c05160e05161139e620003176000396000818161021d015281816103c90152818161084b0152610bf90152600081816101d9015281816105360152818161099d0152610e4201526000818161033b0152818161087a0152610bd001526000818161038f01528181610677015281816106bd01528181610abf01528181610b500152610e99015261139e6000f3fe6080604052600436106100f75760003560e01c80639e447fc61161008a578063e3161ddd11610059578063e3161ddd146102f9578063f106845414610329578063f2fde38b1461035d578063f7c618c11461037d57600080fd5b80639e447fc61461028f578063b69ef8a8146102af578063c031a66f146102c4578063db2e21bc146102e457600080fd5b8063715018a6116100c6578063715018a6146101b257806373cfc6b2146101c75780637d0d9d5f1461020b5780638da5cb5b1461026457600080fd5b80631959a0021461010357806350fd1f3e146101515780635a2f3d09146101755780636a3f6a5f1461019057600080fd5b366100fe57005b600080fd5b34801561010f57600080fd5b5061013761011e3660046111b7565b6004602052600090815260409020805460019091015482565b604080519283526020830191909152015b60405180910390f35b34801561015d57600080fd5b5061016760055481565b604051908152602001610148565b34801561018157600080fd5b50600254600354610137919082565b34801561019c57600080fd5b506101b06101ab3660046111d9565b6103b1565b005b3480156101be57600080fd5b506101b0610765565b3480156101d357600080fd5b506101fb7f000000000000000000000000000000000000000000000000000000000000000081565b6040519015158152602001610148565b34801561021757600080fd5b5061023f7f000000000000000000000000000000000000000000000000000000000000000081565b60405173ffffffffffffffffffffffffffffffffffffffff9091168152602001610148565b34801561027057600080fd5b5060005473ffffffffffffffffffffffffffffffffffffffff1661023f565b34801561029b57600080fd5b506101b06102aa366004611203565b610779565b3480156102bb57600080fd5b506101676107cb565b3480156102d057600080fd5b506101676102df3660046111b7565b6107da565b3480156102f057600080fd5b506101b0610993565b34801561030557600080fd5b5061030e610b77565b60408051825181526020928301519281019290925201610148565b34801561033557600080fd5b506101677f000000000000000000000000000000000000000000000000000000000000000081565b34801561036957600080fd5b506101b06103783660046111b7565b610cfa565b34801561038957600080fd5b5061023f7f000000000000000000000000000000000000000000000000000000000000000081565b3373ffffffffffffffffffffffffffffffffffffffff7f000000000000000000000000000000000000000000000000000000000000000016146104a1576040517f08c379a000000000000000000000000000000000000000000000000000000000815260206004820152604160248201527f6f6e6c794469737472696275746f7256323a206f6e6c792047616d6d6144697360448201527f7472696275746f7256322063616e2063616c6c20746869732066756e6374696f60648201527f6e00000000000000000000000000000000000000000000000000000000000000608482015260a4015b60405180910390fd5b6104a9610dca565b6104b1610b77565b50604080518082018252600254815260035460208083019190915273ffffffffffffffffffffffffffffffffffffffff8516600090815260049091529182209091806104fb610e3e565b8354909150156106e45760018301548451845464e8d4a510009161051e9161124b565b6105289190611288565b61053291906112c3565b91507f00000000000000000000000000000000000000000000000000000000000000001561065557808211156106335760008673ffffffffffffffffffffffffffffffffffffffff16826040515b60006040518083038185875af1925050503d80600081146105bd576040519150601f19603f3d011682016040523d82523d6000602084013e6105c2565b606091505b505090508061062d576040517f08c379a000000000000000000000000000000000000000000000000000000000815260206004820152600f60248201527f5472616e73666572206661696c656400000000000000000000000000000000006044820152606401610498565b506106e4565b60008673ffffffffffffffffffffffffffffffffffffffff1683604051610580565b808211156106a35761069e73ffffffffffffffffffffffffffffffffffffffff7f0000000000000000000000000000000000000000000000000000000000000000168783610f28565b6106e4565b6106e473ffffffffffffffffffffffffffffffffffffffff7f0000000000000000000000000000000000000000000000000000000000000000168784610f28565b848355835164e8d4a51000906106fa908761124b565b6107049190611288565b600184015560405182815273ffffffffffffffffffffffffffffffffffffffff8716907fd1072bb52c3131d0c96197b73fb8a45637e30f8b6664fc142310cc9b242859b49060200160405180910390a25050505061076160018055565b5050565b61076d611098565b6107776000611119565b565b610781611098565b610789610b77565b5060055460408051918252602082018390527fc390a98ace15a7bb6bab611eedfdbb2685043b241a869420043cdfb23ccfee50910160405180910390a1600555565b60006107d5610e3e565b905090565b604080518082018252600254815260035460208083019190915273ffffffffffffffffffffffffffffffffffffffff8085166000908152600492839052848120845195517f654c9ece00000000000000000000000000000000000000000000000000000000815291959093909286927f00000000000000000000000000000000000000000000000000000000000000009091169163654c9ece916108a4917f0000000000000000000000000000000000000000000000000000000000000000910190815260200190565b60206040518083038186803b1580156108bc57600080fd5b505afa1580156108d0573d6000803e3d6000fd5b505050506040513d601f19601f820116820180604052508101906108f491906112da565b905083602001514211801561090857508015155b1561095c57600084602001514261091f91906112c3565b9050600060055482610931919061124b565b90508261094364e8d4a510008361124b565b61094d9190611288565b61095790856112f3565b935050505b6001830154835464e8d4a510009061097590859061124b565b61097f9190611288565b61098991906112c3565b9695505050505050565b61099b611098565b7f000000000000000000000000000000000000000000000000000000000000000015610a7657604051600090339047908381818185875af1925050503d8060008114610a03576040519150601f19603f3d011682016040523d82523d6000602084013e610a08565b606091505b5050905080610a73576040517f08c379a000000000000000000000000000000000000000000000000000000000815260206004820152600f60248201527f5472616e73666572206661696c656400000000000000000000000000000000006044820152606401610498565b50565b6040517f70a0823100000000000000000000000000000000000000000000000000000000815230600482015261077790339073ffffffffffffffffffffffffffffffffffffffff7f000000000000000000000000000000000000000000000000000000000000000016906370a082319060240160206040518083038186803b158015610b0157600080fd5b505afa158015610b15573d6000803e3d6000fd5b505050506040513d601f19601f82011682018060405250810190610b3991906112da565b73ffffffffffffffffffffffffffffffffffffffff7f0000000000000000000000000000000000000000000000000000000000000000169190610f28565b604080518082018252600080825260209182015281518083019092526002548252600354908201819052421115610cf7576040517f654c9ece0000000000000000000000000000000000000000000000000000000081527f000000000000000000000000000000000000000000000000000000000000000060048201526000907f000000000000000000000000000000000000000000000000000000000000000073ffffffffffffffffffffffffffffffffffffffff169063654c9ece9060240160206040518083038186803b158015610c5057600080fd5b505afa158015610c64573d6000803e3d6000fd5b505050506040513d601f19601f82011682018060405250810190610c8891906112da565b90508015610ce5576000826020015142610ca291906112c3565b9050600060055482610cb4919061124b565b905082610cc664e8d4a510008361124b565b610cd09190611288565b84518590610cdf9083906112f3565b90525050505b50426020820181905281516002556003555b90565b610d02611098565b73ffffffffffffffffffffffffffffffffffffffff8116610da5576040517f08c379a000000000000000000000000000000000000000000000000000000000815260206004820152602660248201527f4f776e61626c653a206e6577206f776e657220697320746865207a65726f206160448201527f64647265737300000000000000000000000000000000000000000000000000006064820152608401610498565b610a7381611119565b73ffffffffffffffffffffffffffffffffffffffff163b151590565b60026001541415610e37576040517f08c379a000000000000000000000000000000000000000000000000000000000815260206004820152601f60248201527f5265656e7472616e637947756172643a207265656e7472616e742063616c6c006044820152606401610498565b6002600155565b60007f000000000000000000000000000000000000000000000000000000000000000015610e6b57504790565b6040517f70a082310000000000000000000000000000000000000000000000000000000081523060048201527f000000000000000000000000000000000000000000000000000000000000000073ffffffffffffffffffffffffffffffffffffffff16906370a082319060240160206040518083038186803b158015610ef057600080fd5b505afa158015610f04573d6000803e3d6000fd5b505050506040513d601f19601f820116820180604052508101906107d591906112da565b6040805173ffffffffffffffffffffffffffffffffffffffff8481166024830152604480830185905283518084039091018152606490920183526020820180517bffffffffffffffffffffffffffffffffffffffffffffffffffffffff167fa9059cbb000000000000000000000000000000000000000000000000000000001790529151600092839290871691610fbf919061130b565b6000604051808303816000865af19150503d8060008114610ffc576040519150601f19603f3d011682016040523d82523d6000602084013e611001565b606091505b509150915081801561102b57508051158061102b57508080602001905181019061102b9190611346565b611091576040517f08c379a000000000000000000000000000000000000000000000000000000000815260206004820152601c60248201527f426f72696e6745524332303a205472616e73666572206661696c6564000000006044820152606401610498565b5050505050565b60005473ffffffffffffffffffffffffffffffffffffffff163314610777576040517f08c379a000000000000000000000000000000000000000000000000000000000815260206004820181905260248201527f4f776e61626c653a2063616c6c6572206973206e6f7420746865206f776e65726044820152606401610498565b6000805473ffffffffffffffffffffffffffffffffffffffff8381167fffffffffffffffffffffffff0000000000000000000000000000000000000000831681178455604051919092169283917f8be0079c531659141344cd1fd0a4f28419497f9722a3daafe3b4186f6b6457e09190a35050565b803573ffffffffffffffffffffffffffffffffffffffff811681146111b257600080fd5b919050565b6000602082840312156111c957600080fd5b6111d28261118e565b9392505050565b600080604083850312156111ec57600080fd5b6111f58361118e565b946020939093013593505050565b60006020828403121561121557600080fd5b5035919050565b7f4e487b7100000000000000000000000000000000000000000000000000000000600052601160045260246000fd5b6000817fffffffffffffffffffffffffffffffffffffffffffffffffffffffffffffffff04831182151516156112835761128361121c565b500290565b6000826112be577f4e487b7100000000000000000000000000000000000000000000000000000000600052601260045260246000fd5b500490565b6000828210156112d5576112d561121c565b500390565b6000602082840312156112ec57600080fd5b5051919050565b600082198211156113065761130661121c565b500190565b6000825160005b8181101561132c5760208186018101518583015201611312565b8181111561133b576000828501525b509190910192915050565b60006020828403121561135857600080fd5b815180151581146111d257600080fdfea26469706673582212202ff0ea755ba78acfadf7712dcc6ac5bf70ec1a2b1540d224862f70010f8de30864736f6c63430008090033",
  "linkReferences": {},
  "deployedLinkReferences": {}
}