{
  "_format": "hh-sol-artifact-1",
  "contractName": "TauStablecoin",
  "sourceName": "contracts/stablecoin/core/TauStablecoin.sol",
  "abi": [
    {
      "anonymous": false,
      "inputs": [
        {
          "indexed": true,
          "internalType": "address",
          "name": "src",
          "type": "address"
        },
        {
          "indexed": true,
          "internalType": "address",
          "name": "guy",
          "type": "address"
        },
        {
          "indexed": false,
          "internalType": "uint256",
          "name": "wad",
          "type": "uint256"
        }
      ],
      "name": "Approval",
      "type": "event"
    },
    {
      "anonymous": false,
      "inputs": [
        {
          "indexed": true,
          "internalType": "bytes32",
          "name": "role",
          "type": "bytes32"
        },
        {
          "indexed": true,
          "internalType": "bytes32",
          "name": "previousAdminRole",
          "type": "bytes32"
        },
        {
          "indexed": true,
          "internalType": "bytes32",
          "name": "newAdminRole",
          "type": "bytes32"
        }
      ],
      "name": "RoleAdminChanged",
      "type": "event"
    },
    {
      "anonymous": false,
      "inputs": [
        {
          "indexed": true,
          "internalType": "bytes32",
          "name": "role",
          "type": "bytes32"
        },
        {
          "indexed": true,
          "internalType": "address",
          "name": "account",
          "type": "address"
        },
        {
          "indexed": true,
          "internalType": "address",
          "name": "sender",
          "type": "address"
        }
      ],
      "name": "RoleGranted",
      "type": "event"
    },
    {
      "anonymous": false,
      "inputs": [
        {
          "indexed": true,
          "internalType": "bytes32",
          "name": "role",
          "type": "bytes32"
        },
        {
          "indexed": true,
          "internalType": "address",
          "name": "account",
          "type": "address"
        },
        {
          "indexed": true,
          "internalType": "address",
          "name": "sender",
          "type": "address"
        }
      ],
      "name": "RoleRevoked",
      "type": "event"
    },
    {
      "anonymous": false,
      "inputs": [
        {
          "indexed": true,
          "internalType": "address",
          "name": "src",
          "type": "address"
        },
        {
          "indexed": true,
          "internalType": "address",
          "name": "dst",
          "type": "address"
        },
        {
          "indexed": false,
          "internalType": "uint256",
          "name": "wad",
          "type": "uint256"
        }
      ],
      "name": "Transfer",
      "type": "event"
    },
    {
      "inputs": [],
      "name": "DEFAULT_ADMIN_ROLE",
      "outputs": [
        {
          "internalType": "bytes32",
          "name": "",
          "type": "bytes32"
        }
      ],
      "stateMutability": "view",
      "type": "function"
    },
    {
      "inputs": [],
      "name": "MINTER_ROLE",
      "outputs": [
        {
          "internalType": "bytes32",
          "name": "",
          "type": "bytes32"
        }
      ],
      "stateMutability": "view",
      "type": "function"
    },
    {
      "inputs": [],
      "name": "OWNER_ROLE",
      "outputs": [
        {
          "internalType": "bytes32",
          "name": "",
          "type": "bytes32"
        }
      ],
      "stateMutability": "view",
      "type": "function"
    },
    {
      "inputs": [
        {
          "internalType": "address",
          "name": "",
          "type": "address"
        },
        {
          "internalType": "address",
          "name": "",
          "type": "address"
        }
      ],
      "name": "allowance",
      "outputs": [
        {
          "internalType": "uint256",
          "name": "",
          "type": "uint256"
        }
      ],
      "stateMutability": "view",
      "type": "function"
    },
    {
      "inputs": [
        {
          "internalType": "address",
          "name": "_usr",
          "type": "address"
        },
        {
          "internalType": "uint256",
          "name": "_wad",
          "type": "uint256"
        }
      ],
      "name": "approve",
      "outputs": [
        {
          "internalType": "bool",
          "name": "",
          "type": "bool"
        }
      ],
      "stateMutability": "nonpayable",
      "type": "function"
    },
    {
      "inputs": [
        {
          "internalType": "address",
          "name": "",
          "type": "address"
        }
      ],
      "name": "balanceOf",
      "outputs": [
        {
          "internalType": "uint256",
          "name": "",
          "type": "uint256"
        }
      ],
      "stateMutability": "view",
      "type": "function"
    },
    {
      "inputs": [
        {
          "internalType": "address",
          "name": "_usr",
          "type": "address"
        },
        {
          "internalType": "uint256",
          "name": "_wad",
          "type": "uint256"
        }
      ],
      "name": "burn",
      "outputs": [],
      "stateMutability": "nonpayable",
      "type": "function"
    },
    {
      "inputs": [],
      "name": "decimals",
      "outputs": [
        {
          "internalType": "uint8",
          "name": "",
          "type": "uint8"
        }
      ],
      "stateMutability": "view",
      "type": "function"
    },
    {
      "inputs": [
        {
          "internalType": "bytes32",
          "name": "role",
          "type": "bytes32"
        }
      ],
      "name": "getRoleAdmin",
      "outputs": [
        {
          "internalType": "bytes32",
          "name": "",
          "type": "bytes32"
        }
      ],
      "stateMutability": "view",
      "type": "function"
    },
    {
      "inputs": [
        {
          "internalType": "bytes32",
          "name": "role",
          "type": "bytes32"
        },
        {
          "internalType": "uint256",
          "name": "index",
          "type": "uint256"
        }
      ],
      "name": "getRoleMember",
      "outputs": [
        {
          "internalType": "address",
          "name": "",
          "type": "address"
        }
      ],
      "stateMutability": "view",
      "type": "function"
    },
    {
      "inputs": [
        {
          "internalType": "bytes32",
          "name": "role",
          "type": "bytes32"
        }
      ],
      "name": "getRoleMemberCount",
      "outputs": [
        {
          "internalType": "uint256",
          "name": "",
          "type": "uint256"
        }
      ],
      "stateMutability": "view",
      "type": "function"
    },
    {
      "inputs": [
        {
          "internalType": "bytes32",
          "name": "role",
          "type": "bytes32"
        },
        {
          "internalType": "address",
          "name": "account",
          "type": "address"
        }
      ],
      "name": "grantRole",
      "outputs": [],
      "stateMutability": "nonpayable",
      "type": "function"
    },
    {
      "inputs": [
        {
          "internalType": "bytes32",
          "name": "role",
          "type": "bytes32"
        },
        {
          "internalType": "address",
          "name": "account",
          "type": "address"
        }
      ],
      "name": "hasRole",
      "outputs": [
        {
          "internalType": "bool",
          "name": "",
          "type": "bool"
        }
      ],
      "stateMutability": "view",
      "type": "function"
    },
    {
      "inputs": [
        {
          "internalType": "string",
          "name": "_name",
          "type": "string"
        },
        {
          "internalType": "string",
          "name": "_symbol",
          "type": "string"
        }
      ],
      "name": "initialize",
      "outputs": [],
      "stateMutability": "nonpayable",
      "type": "function"
    },
    {
      "inputs": [
        {
          "internalType": "address",
          "name": "_usr",
          "type": "address"
        },
        {
          "internalType": "uint256",
          "name": "_wad",
          "type": "uint256"
        }
      ],
      "name": "mint",
      "outputs": [],
      "stateMutability": "nonpayable",
      "type": "function"
    },
    {
      "inputs": [
        {
          "internalType": "address",
          "name": "_src",
          "type": "address"
        },
        {
          "internalType": "address",
          "name": "_dst",
          "type": "address"
        },
        {
          "internalType": "uint256",
          "name": "_wad",
          "type": "uint256"
        }
      ],
      "name": "move",
      "outputs": [],
      "stateMutability": "nonpayable",
      "type": "function"
    },
    {
      "inputs": [],
      "name": "name",
      "outputs": [
        {
          "internalType": "string",
          "name": "",
          "type": "string"
        }
      ],
      "stateMutability": "view",
      "type": "function"
    },
    {
      "inputs": [
        {
          "internalType": "address",
          "name": "",
          "type": "address"
        }
      ],
      "name": "nonces",
      "outputs": [
        {
          "internalType": "uint256",
          "name": "",
          "type": "uint256"
        }
      ],
      "stateMutability": "view",
      "type": "function"
    },
    {
      "inputs": [
        {
          "internalType": "address",
          "name": "_usr",
          "type": "address"
        },
        {
          "internalType": "uint256",
          "name": "_wad",
          "type": "uint256"
        }
      ],
      "name": "pull",
      "outputs": [],
      "stateMutability": "nonpayable",
      "type": "function"
    },
    {
      "inputs": [
        {
          "internalType": "address",
          "name": "_usr",
          "type": "address"
        },
        {
          "internalType": "uint256",
          "name": "_wad",
          "type": "uint256"
        }
      ],
      "name": "push",
      "outputs": [],
      "stateMutability": "nonpayable",
      "type": "function"
    },
    {
      "inputs": [
        {
          "internalType": "bytes32",
          "name": "role",
          "type": "bytes32"
        },
        {
          "internalType": "address",
          "name": "account",
          "type": "address"
        }
      ],
      "name": "renounceRole",
      "outputs": [],
      "stateMutability": "nonpayable",
      "type": "function"
    },
    {
      "inputs": [
        {
          "internalType": "bytes32",
          "name": "role",
          "type": "bytes32"
        },
        {
          "internalType": "address",
          "name": "account",
          "type": "address"
        }
      ],
      "name": "revokeRole",
      "outputs": [],
      "stateMutability": "nonpayable",
      "type": "function"
    },
    {
      "inputs": [],
      "name": "symbol",
      "outputs": [
        {
          "internalType": "string",
          "name": "",
          "type": "string"
        }
      ],
      "stateMutability": "view",
      "type": "function"
    },
    {
      "inputs": [],
      "name": "totalSupply",
      "outputs": [
        {
          "internalType": "uint256",
          "name": "",
          "type": "uint256"
        }
      ],
      "stateMutability": "view",
      "type": "function"
    },
    {
      "inputs": [
        {
          "internalType": "address",
          "name": "_dst",
          "type": "address"
        },
        {
          "internalType": "uint256",
          "name": "_wad",
          "type": "uint256"
        }
      ],
      "name": "transfer",
      "outputs": [
        {
          "internalType": "bool",
          "name": "",
          "type": "bool"
        }
      ],
      "stateMutability": "nonpayable",
      "type": "function"
    },
    {
      "inputs": [
        {
          "internalType": "address",
          "name": "_src",
          "type": "address"
        },
        {
          "internalType": "address",
          "name": "_dst",
          "type": "address"
        },
        {
          "internalType": "uint256",
          "name": "_wad",
          "type": "uint256"
        }
      ],
      "name": "transferFrom",
      "outputs": [
        {
          "internalType": "bool",
          "name": "",
          "type": "bool"
        }
      ],
      "stateMutability": "nonpayable",
      "type": "function"
    },
    {
      "inputs": [],
      "name": "version",
      "outputs": [
        {
          "internalType": "string",
          "name": "",
          "type": "string"
        }
      ],
      "stateMutability": "view",
      "type": "function"
    }
  ],
  "bytecode": "0x608060405234801561001057600080fd5b50611be4806100206000396000f3fe608060405234801561001057600080fd5b50600436106101b95760003560e01c80639010d07c116100f9578063bb35783b11610097578063d547741f11610071578063d547741f14610710578063dd62ed3e14610749578063e58378bb1461062e578063f2d5d56b14610784576101b9565b8063bb35783b146106a8578063ca15c873146106eb578063d539139314610708576101b9565b80639dc29fac116100d35780639dc29fac146105f5578063a217fddf1461062e578063a9059cbb14610636578063b753a98c1461066f576101b9565b80639010d07c1461056857806391d14854146105b457806395d89b41146105ed576101b9565b8063313ce567116101665780634cd88b76116101405780634cd88b76146103cd57806354fd4d50146104fa57806370a08231146105025780637ecebe0014610535576101b9565b8063313ce5671461033d57806336568abe1461035b57806340c10f1914610394576101b9565b806323b872dd1161019757806323b872dd146102a2578063248a9ca3146102e55780632f2ff15d14610302576101b9565b806306fdde03146101be578063095ea7b31461023b57806318160ddd14610288575b600080fd5b6101c66107bd565b6040805160208082528351818301528351919283929083019185019080838360005b838110156102005781810151838201526020016101e8565b50505050905090810190601f16801561022d5780820380516001836020036101000a031916815260200191505b509250505060405180910390f35b6102746004803603604081101561025157600080fd5b5073ffffffffffffffffffffffffffffffffffffffff8135169060200135610869565b604080519115158252519081900360200190f35b6102906108dd565b60408051918252519081900360200190f35b610274600480360360608110156102b857600080fd5b5073ffffffffffffffffffffffffffffffffffffffff8135811691602081013590911690604001356108e3565b610290600480360360208110156102fb57600080fd5b5035610bac565b61033b6004803603604081101561031857600080fd5b508035906020013573ffffffffffffffffffffffffffffffffffffffff16610bc1565b005b610345610c47565b6040805160ff9092168252519081900360200190f35b61033b6004803603604081101561037157600080fd5b508035906020013573ffffffffffffffffffffffffffffffffffffffff16610c4c565b61033b600480360360408110156103aa57600080fd5b5073ffffffffffffffffffffffffffffffffffffffff8135169060200135610ce1565b61033b600480360360408110156103e357600080fd5b8101906020810181356401000000008111156103fe57600080fd5b82018360208201111561041057600080fd5b8035906020019184600183028401116401000000008311171561043257600080fd5b91908080601f016020809104026020016040519081016040528093929190818152602001838380828437600092019190915250929594936020810193503591505064010000000081111561048557600080fd5b82018360208201111561049757600080fd5b803590602001918460018302840111640100000000831117156104b957600080fd5b91908080601f016020809104026020016040519081016040528093929190818152602001838380828437600092019190915250929550610e2e945050505050565b6101c6610f7f565b6102906004803603602081101561051857600080fd5b503573ffffffffffffffffffffffffffffffffffffffff16610fb8565b6102906004803603602081101561054b57600080fd5b503573ffffffffffffffffffffffffffffffffffffffff16610fca565b61058b6004803603604081101561057e57600080fd5b5080359060200135610fdc565b6040805173ffffffffffffffffffffffffffffffffffffffff9092168252519081900360200190f35b610274600480360360408110156105ca57600080fd5b508035906020013573ffffffffffffffffffffffffffffffffffffffff16610ffb565b6101c6611013565b61033b6004803603604081101561060b57600080fd5b5073ffffffffffffffffffffffffffffffffffffffff813516906020013561108c565b610290611333565b6102746004803603604081101561064c57600080fd5b5073ffffffffffffffffffffffffffffffffffffffff8135169060200135611338565b61033b6004803603604081101561068557600080fd5b5073ffffffffffffffffffffffffffffffffffffffff8135169060200135611345565b61033b600480360360608110156106be57600080fd5b5073ffffffffffffffffffffffffffffffffffffffff813581169160208101359091169060400135611350565b6102906004803603602081101561070157600080fd5b5035611361565b610290611378565b61033b6004803603604081101561072657600080fd5b508035906020013573ffffffffffffffffffffffffffffffffffffffff1661139c565b6102906004803603604081101561075f57600080fd5b5073ffffffffffffffffffffffffffffffffffffffff8135811691602001351661140f565b61033b6004803603604081101561079a57600080fd5b5073ffffffffffffffffffffffffffffffffffffffff813516906020013561142c565b6065805460408051602060026001851615610100027fffffffffffffffffffffffffffffffffffffffffffffffffffffffffffffffff0190941693909304601f810184900484028201840190925281815292918301828280156108615780601f1061083657610100808354040283529160200191610861565b820191906000526020600020905b81548152906001019060200180831161084457829003601f168201915b505050505081565b33600081815260696020908152604080832073ffffffffffffffffffffffffffffffffffffffff8716808552908352818420869055815186815291519394909390927f8c5be1e5ebec7d5bd14f71427d1e84f3dd0314c0f7b2291e5b200ac8c7c3b925928290030190a35060015b92915050565b60675481565b73ffffffffffffffffffffffffffffffffffffffff8316600090815260686020526040812054821115610961576040517f08c379a0000000000000000000000000000000000000000000000000000000008152600401808060200182810382526024815260200180611b5c6024913960400191505060405180910390fd5b73ffffffffffffffffffffffffffffffffffffffff841633148015906109d7575073ffffffffffffffffffffffffffffffffffffffff841660009081526069602090815260408083203384529091529020547fffffffffffffffffffffffffffffffffffffffffffffffffffffffffffffffff14155b15610ad25773ffffffffffffffffffffffffffffffffffffffff84166000908152606960209081526040808320338452909152902054821115610a65576040517f08c379a0000000000000000000000000000000000000000000000000000000008152600401808060200182810382526026815260200180611ad86026913960400191505060405180910390fd5b73ffffffffffffffffffffffffffffffffffffffff84166000908152606960209081526040808320338452909152902054610aa09083611437565b73ffffffffffffffffffffffffffffffffffffffff851660009081526069602090815260408083203384529091529020555b73ffffffffffffffffffffffffffffffffffffffff8416600090815260686020526040902054610b029083611437565b73ffffffffffffffffffffffffffffffffffffffff8086166000908152606860205260408082209390935590851681522054610b3e9083611447565b73ffffffffffffffffffffffffffffffffffffffff80851660008181526068602090815260409182902094909455805186815290519193928816927fddf252ad1be2c89b69c2b068fc378daa952ba7f163c4a11628f55a4df523b3ef92918290030190a35060019392505050565b60009081526033602052604090206002015490565b600082815260336020526040902060020154610be490610bdf611457565b610ffb565b610c39576040517f08c379a000000000000000000000000000000000000000000000000000000000815260040180806020018281038252602f815260200180611aa9602f913960400191505060405180910390fd5b610c43828261145b565b5050565b601281565b610c54611457565b73ffffffffffffffffffffffffffffffffffffffff168173ffffffffffffffffffffffffffffffffffffffff1614610cd7576040517f08c379a000000000000000000000000000000000000000000000000000000000815260040180806020018281038252602f815260200180611b80602f913960400191505060405180910390fd5b610c4382826114de565b610d0b7f9f2df0fed2c77648de5860a4cc508cd0818c85b8b8a1ab4ceeef8d981c8956a633610ffb565b610d7657604080517f08c379a000000000000000000000000000000000000000000000000000000000815260206004820152600b60248201527f216d696e746572526f6c65000000000000000000000000000000000000000000604482015290519081900360640190fd5b73ffffffffffffffffffffffffffffffffffffffff8216600090815260686020526040902054610da69082611447565b73ffffffffffffffffffffffffffffffffffffffff8316600090815260686020526040902055606754610dd99082611447565b60675560408051828152905173ffffffffffffffffffffffffffffffffffffffff8416916000917fddf252ad1be2c89b69c2b068fc378daa952ba7f163c4a11628f55a4df523b3ef9181900360200190a35050565b600054610100900460ff1680610e475750610e47611561565b80610e55575060005460ff16155b610eaa576040517f08c379a000000000000000000000000000000000000000000000000000000000815260040180806020018281038252602e815260200180611b2e602e913960400191505060405180910390fd5b600054610100900460ff16158015610f1057600080547fffffffffffffffffffffffffffffffffffffffffffffffffffffffffffffff007fffffffffffffffffffffffffffffffffffffffffffffffffffffffffffff00ff909116610100171660011790555b610f18611572565b8251610f2b9060659060208601906119f3565b508151610f3f9060669060208501906119f3565b50610f4b600033610c39565b8015610f7a57600080547fffffffffffffffffffffffffffffffffffffffffffffffffffffffffffff00ff1690555b505050565b6040518060400160405280600181526020017f310000000000000000000000000000000000000000000000000000000000000081525081565b60686020526000908152604090205481565b606a6020526000908152604090205481565b6000828152603360205260408120610ff49083611696565b9392505050565b6000828152603360205260408120610ff490836116a2565b6066805460408051602060026001851615610100027fffffffffffffffffffffffffffffffffffffffffffffffffffffffffffffffff0190941693909304601f810184900484028201840190925281815292918301828280156108615780601f1061083657610100808354040283529160200191610861565b73ffffffffffffffffffffffffffffffffffffffff821660009081526068602052604090205481111561110a576040517f08c379a0000000000000000000000000000000000000000000000000000000008152600401808060200182810382526024815260200180611b5c6024913960400191505060405180910390fd5b73ffffffffffffffffffffffffffffffffffffffff82163314801590611180575073ffffffffffffffffffffffffffffffffffffffff821660009081526069602090815260408083203384529091529020547fffffffffffffffffffffffffffffffffffffffffffffffffffffffffffffffff14155b1561127b5773ffffffffffffffffffffffffffffffffffffffff8216600090815260696020908152604080832033845290915290205481111561120e576040517f08c379a0000000000000000000000000000000000000000000000000000000008152600401808060200182810382526026815260200180611ad86026913960400191505060405180910390fd5b73ffffffffffffffffffffffffffffffffffffffff821660009081526069602090815260408083203384529091529020546112499082611437565b73ffffffffffffffffffffffffffffffffffffffff831660009081526069602090815260408083203384529091529020555b73ffffffffffffffffffffffffffffffffffffffff82166000908152606860205260409020546112ab9082611437565b73ffffffffffffffffffffffffffffffffffffffff83166000908152606860205260409020556067546112de9082611437565b60675560408051828152905160009173ffffffffffffffffffffffffffffffffffffffff8516917fddf252ad1be2c89b69c2b068fc378daa952ba7f163c4a11628f55a4df523b3ef9181900360200190a35050565b600081565b6000610ff43384846108e3565b610f7a3383836108e3565b61135b8383836108e3565b50505050565b60008181526033602052604081206108d7906116c4565b7f9f2df0fed2c77648de5860a4cc508cd0818c85b8b8a1ab4ceeef8d981c8956a681565b6000828152603360205260409020600201546113ba90610bdf611457565b610cd7576040517f08c379a0000000000000000000000000000000000000000000000000000000008152600401808060200182810382526030815260200180611afe6030913960400191505060405180910390fd5b606960209081526000928352604080842090915290825290205481565b610f7a8233836108e3565b808203828111156108d757600080fd5b808201828110156108d757600080fd5b3390565b600082815260336020526040902061147390826116cf565b15610c4357611480611457565b73ffffffffffffffffffffffffffffffffffffffff168173ffffffffffffffffffffffffffffffffffffffff16837f2f8788117e7eff1d82e926ec794901d17c78024a50270940304540a733656f0d60405160405180910390a45050565b60008281526033602052604090206114f690826116f1565b15610c4357611503611457565b73ffffffffffffffffffffffffffffffffffffffff168173ffffffffffffffffffffffffffffffffffffffff16837ff6391f5c32d9c69d2a47ea670b442974b53935d1edc7fd64eb21e047a839171b60405160405180910390a45050565b600061156c30611713565b15905090565b600054610100900460ff168061158b575061158b611561565b80611599575060005460ff16155b6115ee576040517f08c379a000000000000000000000000000000000000000000000000000000000815260040180806020018281038252602e815260200180611b2e602e913960400191505060405180910390fd5b600054610100900460ff1615801561165457600080547fffffffffffffffffffffffffffffffffffffffffffffffffffffffffffffff007fffffffffffffffffffffffffffffffffffffffffffffffffffffffffffff00ff909116610100171660011790555b61165c611719565b611664611719565b801561169357600080547fffffffffffffffffffffffffffffffffffffffffffffffffffffffffffff00ff1690555b50565b6000610ff4838361182b565b6000610ff48373ffffffffffffffffffffffffffffffffffffffff84166118a9565b60006108d7826118c1565b6000610ff48373ffffffffffffffffffffffffffffffffffffffff84166118c5565b6000610ff48373ffffffffffffffffffffffffffffffffffffffff841661190f565b3b151590565b600054610100900460ff16806117325750611732611561565b80611740575060005460ff16155b611795576040517f08c379a000000000000000000000000000000000000000000000000000000000815260040180806020018281038252602e815260200180611b2e602e913960400191505060405180910390fd5b600054610100900460ff1615801561166457600080547fffffffffffffffffffffffffffffffffffffffffffffffffffffffffffffff007fffffffffffffffffffffffffffffffffffffffffffffffffffffffffffff00ff90911661010017166001179055801561169357600080547fffffffffffffffffffffffffffffffffffffffffffffffffffffffffffff00ff16905550565b81546000908210611887576040517f08c379a0000000000000000000000000000000000000000000000000000000008152600401808060200182810382526022815260200180611a876022913960400191505060405180910390fd5b82600001828154811061189657fe5b9060005260206000200154905092915050565b60009081526001919091016020526040902054151590565b5490565b60006118d183836118a9565b611907575081546001818101845560008481526020808220909301849055845484825282860190935260409020919091556108d7565b5060006108d7565b600081815260018301602052604081205480156119e95783547fffffffffffffffffffffffffffffffffffffffffffffffffffffffffffffffff808301919081019060009087908390811061196057fe5b906000526020600020015490508087600001848154811061197d57fe5b6000918252602080832090910192909255828152600189810190925260409020908401905586548790806119ad57fe5b600190038181906000526020600020016000905590558660010160008781526020019081526020016000206000905560019450505050506108d7565b60009150506108d7565b828054600181600116156101000203166002900490600052602060002090601f016020900481019282601f10611a3457805160ff1916838001178555611a61565b82800160010185558215611a61579182015b82811115611a61578251825591602001919060010190611a46565b50611a6d929150611a71565b5090565b5b80821115611a6d5760008155600101611a7256fe456e756d657261626c655365743a20696e646578206f7574206f6620626f756e6473416363657373436f6e74726f6c3a2073656e646572206d75737420626520616e2061646d696e20746f206772616e745b546175537461626c65636f696e5d20696e73756666696369656e742d616c6c6f77616e6365416363657373436f6e74726f6c3a2073656e646572206d75737420626520616e2061646d696e20746f207265766f6b65496e697469616c697a61626c653a20636f6e747261637420697320616c726561647920696e697469616c697a65645b546175537461626c65636f696e5d20696e73756666696369656e742d62616c616e6365416363657373436f6e74726f6c3a2063616e206f6e6c792072656e6f756e636520726f6c657320666f722073656c66a2646970667358221220784535174d6fa3a302db7b6e1d73d868470a1f921fc8912eda4918cb447c1fef64736f6c634300060c0033",
  "linkReferences": {},
  "deployedLinkReferences": {}
}