{
  "_format": "hh-sol-artifact-1",
  "contractName": "MockPriceFeed",
  "sourceName": "contracts/stablecoin/mocks/MockPriceFeed.sol",
  "abi": [
    {
      "inputs": [],
      "name": "peekPrice",
      "outputs": [
        {
          "internalType": "bytes32",
          "name": "",
          "type": "bytes32"
        },
        {
          "internalType": "bool",
          "name": "",
          "type": "bool"
        }
      ],
      "stateMutability": "view",
      "type": "function"
    },
    {
      "inputs": [],
      "name": "readPrice",
      "outputs": [
        {
          "internalType": "bytes32",
          "name": "",
          "type": "bytes32"
        }
      ],
      "stateMutability": "view",
      "type": "function"
    }
  ],
  "bytecode": "0x608060405234801561001057600080fd5b5060b18061001f6000396000f3fe6080604052348015600f57600080fd5b506004361060325760003560e01c8063140d27201460375780637e91400f146056575b600080fd5b603d606e565b6040805192835290151560208301528051918290030190f35b605c6076565b60408051918252519081900360200190f35b600060019091565b60009056fea26469706673582212200eaaf18ef70d3cd6a4a5fc1776b974de6e62dae2d46fb19cc428e4f981f1207d64736f6c634300060c0033",
  "linkReferences": {},
  "deployedLinkReferences": {}
}