{
  "_format": "hh-sol-artifact-1",
  "contractName": "GammaDistributorV2",
  "sourceName": "contracts/farm/v2/GammaDistributorV2.sol",
  "abi": [
    {
      "inputs": [
        {
          "internalType": "contract IBoringERC20",
          "name": "_tau",
          "type": "address"
        },
        {
          "internalType": "uint256",
          "name": "_tauPerSec",
          "type": "uint256"
        },
        {
          "internalType": "address",
          "name": "_teamAddress",
          "type": "address"
        },
        {
          "internalType": "address",
          "name": "_treasuryAddress",
          "type": "address"
        },
        {
          "internalType": "address",
          "name": "_investorAddress",
          "type": "address"
        },
        {
          "internalType": "uint256",
          "name": "_teamPercent",
          "type": "uint256"
        },
        {
          "internalType": "uint256",
          "name": "_treasuryPercent",
          "type": "uint256"
        },
        {
          "internalType": "uint256",
          "name": "_investorPercent",
          "type": "uint256"
        }
      ],
      "stateMutability": "nonpayable",
      "type": "constructor"
    },
    {
      "anonymous": false,
      "inputs": [
        {
          "indexed": true,
          "internalType": "uint256",
          "name": "pid",
          "type": "uint256"
        },
        {
          "indexed": false,
          "internalType": "uint256",
          "name": "allocPoint",
          "type": "uint256"
        },
        {
          "indexed": true,
          "internalType": "contract IBoringERC20",
          "name": "lpToken",
          "type": "address"
        },
        {
          "indexed": false,
          "internalType": "uint16",
          "name": "depositFeeBP",
          "type": "uint16"
        },
        {
          "indexed": false,
          "internalType": "uint256",
          "name": "harvestInterval",
          "type": "uint256"
        },
        {
          "indexed": true,
          "internalType": "contract IComplexRewarder[]",
          "name": "rewarders",
          "type": "address[]"
        }
      ],
      "name": "Add",
      "type": "event"
    },
    {
      "anonymous": false,
      "inputs": [
        {
          "indexed": true,
          "internalType": "address",
          "name": "caller",
          "type": "address"
        },
        {
          "indexed": false,
          "internalType": "uint256",
          "name": "previousAmount",
          "type": "uint256"
        },
        {
          "indexed": false,
          "internalType": "uint256",
          "name": "newAmount",
          "type": "uint256"
        }
      ],
      "name": "AllocPointsUpdated",
      "type": "event"
    },
    {
      "anonymous": false,
      "inputs": [
        {
          "indexed": true,
          "internalType": "address",
          "name": "user",
          "type": "address"
        },
        {
          "indexed": true,
          "internalType": "uint256",
          "name": "pid",
          "type": "uint256"
        },
        {
          "indexed": false,
          "internalType": "uint256",
          "name": "amount",
          "type": "uint256"
        }
      ],
      "name": "Deposit",
      "type": "event"
    },
    {
      "anonymous": false,
      "inputs": [
        {
          "indexed": true,
          "internalType": "address",
          "name": "user",
          "type": "address"
        },
        {
          "indexed": true,
          "internalType": "uint256",
          "name": "pid",
          "type": "uint256"
        },
        {
          "indexed": false,
          "internalType": "uint256",
          "name": "amount",
          "type": "uint256"
        }
      ],
      "name": "EmergencyWithdraw",
      "type": "event"
    },
    {
      "anonymous": false,
      "inputs": [
        {
          "indexed": true,
          "internalType": "address",
          "name": "caller",
          "type": "address"
        },
        {
          "indexed": false,
          "internalType": "uint256",
          "name": "previousValue",
          "type": "uint256"
        },
        {
          "indexed": false,
          "internalType": "uint256",
          "name": "newValue",
          "type": "uint256"
        }
      ],
      "name": "EmissionRateUpdated",
      "type": "event"
    },
    {
      "anonymous": false,
      "inputs": [
        {
          "indexed": true,
          "internalType": "address",
          "name": "previousOwner",
          "type": "address"
        },
        {
          "indexed": true,
          "internalType": "address",
          "name": "newOwner",
          "type": "address"
        }
      ],
      "name": "OwnershipTransferred",
      "type": "event"
    },
    {
      "anonymous": false,
      "inputs": [
        {
          "indexed": true,
          "internalType": "address",
          "name": "user",
          "type": "address"
        },
        {
          "indexed": true,
          "internalType": "uint256",
          "name": "pid",
          "type": "uint256"
        },
        {
          "indexed": false,
          "internalType": "uint256",
          "name": "amountLockedUp",
          "type": "uint256"
        }
      ],
      "name": "RewardLockedUp",
      "type": "event"
    },
    {
      "anonymous": false,
      "inputs": [
        {
          "indexed": true,
          "internalType": "uint256",
          "name": "pid",
          "type": "uint256"
        },
        {
          "indexed": false,
          "internalType": "uint256",
          "name": "allocPoint",
          "type": "uint256"
        },
        {
          "indexed": false,
          "internalType": "uint16",
          "name": "depositFeeBP",
          "type": "uint16"
        },
        {
          "indexed": false,
          "internalType": "uint256",
          "name": "harvestInterval",
          "type": "uint256"
        },
        {
          "indexed": true,
          "internalType": "contract IComplexRewarder[]",
          "name": "rewarders",
          "type": "address[]"
        }
      ],
      "name": "Set",
      "type": "event"
    },
    {
      "anonymous": false,
      "inputs": [
        {
          "indexed": true,
          "internalType": "address",
          "name": "oldAddress",
          "type": "address"
        },
        {
          "indexed": true,
          "internalType": "address",
          "name": "newAddress",
          "type": "address"
        }
      ],
      "name": "SetInvestorAddress",
      "type": "event"
    },
    {
      "anonymous": false,
      "inputs": [
        {
          "indexed": false,
          "internalType": "uint256",
          "name": "oldPercent",
          "type": "uint256"
        },
        {
          "indexed": false,
          "internalType": "uint256",
          "name": "newPercent",
          "type": "uint256"
        }
      ],
      "name": "SetInvestorPercent",
      "type": "event"
    },
    {
      "anonymous": false,
      "inputs": [
        {
          "indexed": true,
          "internalType": "address",
          "name": "oldAddress",
          "type": "address"
        },
        {
          "indexed": true,
          "internalType": "address",
          "name": "newAddress",
          "type": "address"
        }
      ],
      "name": "SetTeamAddress",
      "type": "event"
    },
    {
      "anonymous": false,
      "inputs": [
        {
          "indexed": false,
          "internalType": "uint256",
          "name": "oldPercent",
          "type": "uint256"
        },
        {
          "indexed": false,
          "internalType": "uint256",
          "name": "newPercent",
          "type": "uint256"
        }
      ],
      "name": "SetTeamPercent",
      "type": "event"
    },
    {
      "anonymous": false,
      "inputs": [
        {
          "indexed": true,
          "internalType": "address",
          "name": "oldAddress",
          "type": "address"
        },
        {
          "indexed": true,
          "internalType": "address",
          "name": "newAddress",
          "type": "address"
        }
      ],
      "name": "SetTreasuryAddress",
      "type": "event"
    },
    {
      "anonymous": false,
      "inputs": [
        {
          "indexed": false,
          "internalType": "uint256",
          "name": "oldPercent",
          "type": "uint256"
        },
        {
          "indexed": false,
          "internalType": "uint256",
          "name": "newPercent",
          "type": "uint256"
        }
      ],
      "name": "SetTreasuryPercent",
      "type": "event"
    },
    {
      "anonymous": false,
      "inputs": [
        {
          "indexed": true,
          "internalType": "uint256",
          "name": "pid",
          "type": "uint256"
        },
        {
          "indexed": false,
          "internalType": "uint256",
          "name": "lastRewardTimestamp",
          "type": "uint256"
        },
        {
          "indexed": false,
          "internalType": "uint256",
          "name": "lpSupply",
          "type": "uint256"
        },
        {
          "indexed": false,
          "internalType": "uint256",
          "name": "accTauPerShare",
          "type": "uint256"
        }
      ],
      "name": "UpdatePool",
      "type": "event"
    },
    {
      "anonymous": false,
      "inputs": [
        {
          "indexed": true,
          "internalType": "address",
          "name": "user",
          "type": "address"
        },
        {
          "indexed": true,
          "internalType": "uint256",
          "name": "pid",
          "type": "uint256"
        },
        {
          "indexed": false,
          "internalType": "uint256",
          "name": "amount",
          "type": "uint256"
        }
      ],
      "name": "Withdraw",
      "type": "event"
    },
    {
      "inputs": [],
      "name": "MAXIMUM_DEPOSIT_FEE_RATE",
      "outputs": [
        {
          "internalType": "uint16",
          "name": "",
          "type": "uint16"
        }
      ],
      "stateMutability": "view",
      "type": "function"
    },
    {
      "inputs": [],
      "name": "MAXIMUM_HARVEST_INTERVAL",
      "outputs": [
        {
          "internalType": "uint256",
          "name": "",
          "type": "uint256"
        }
      ],
      "stateMutability": "view",
      "type": "function"
    },
    {
      "inputs": [
        {
          "internalType": "uint256",
          "name": "_allocPoint",
          "type": "uint256"
        },
        {
          "internalType": "contract IBoringERC20",
          "name": "_lpToken",
          "type": "address"
        },
        {
          "internalType": "uint16",
          "name": "_depositFeeBP",
          "type": "uint16"
        },
        {
          "internalType": "uint256",
          "name": "_harvestInterval",
          "type": "uint256"
        },
        {
          "internalType": "contract IComplexRewarder[]",
          "name": "_rewarders",
          "type": "address[]"
        }
      ],
      "name": "add",
      "outputs": [],
      "stateMutability": "nonpayable",
      "type": "function"
    },
    {
      "inputs": [
        {
          "internalType": "uint256",
          "name": "_pid",
          "type": "uint256"
        },
        {
          "internalType": "address",
          "name": "_user",
          "type": "address"
        }
      ],
      "name": "canHarvest",
      "outputs": [
        {
          "internalType": "bool",
          "name": "",
          "type": "bool"
        }
      ],
      "stateMutability": "view",
      "type": "function"
    },
    {
      "inputs": [
        {
          "internalType": "uint256",
          "name": "_pid",
          "type": "uint256"
        },
        {
          "internalType": "uint256",
          "name": "_amount",
          "type": "uint256"
        }
      ],
      "name": "deposit",
      "outputs": [],
      "stateMutability": "nonpayable",
      "type": "function"
    },
    {
      "inputs": [
        {
          "internalType": "uint256",
          "name": "pid",
          "type": "uint256"
        },
        {
          "internalType": "uint256",
          "name": "amount",
          "type": "uint256"
        },
        {
          "internalType": "uint256",
          "name": "deadline",
          "type": "uint256"
        },
        {
          "internalType": "uint8",
          "name": "v",
          "type": "uint8"
        },
        {
          "internalType": "bytes32",
          "name": "r",
          "type": "bytes32"
        },
        {
          "internalType": "bytes32",
          "name": "s",
          "type": "bytes32"
        }
      ],
      "name": "depositWithPermit",
      "outputs": [],
      "stateMutability": "nonpayable",
      "type": "function"
    },
    {
      "inputs": [
        {
          "internalType": "uint256",
          "name": "_pid",
          "type": "uint256"
        }
      ],
      "name": "emergencyWithdraw",
      "outputs": [],
      "stateMutability": "nonpayable",
      "type": "function"
    },
    {
      "inputs": [
        {
          "internalType": "uint256[]",
          "name": "_pids",
          "type": "uint256[]"
        }
      ],
      "name": "harvestMany",
      "outputs": [],
      "stateMutability": "nonpayable",
      "type": "function"
    },
    {
      "inputs": [],
      "name": "investorAddress",
      "outputs": [
        {
          "internalType": "address",
          "name": "",
          "type": "address"
        }
      ],
      "stateMutability": "view",
      "type": "function"
    },
    {
      "inputs": [],
      "name": "investorPercent",
      "outputs": [
        {
          "internalType": "uint256",
          "name": "",
          "type": "uint256"
        }
      ],
      "stateMutability": "view",
      "type": "function"
    },
    {
      "inputs": [],
      "name": "massUpdatePools",
      "outputs": [],
      "stateMutability": "nonpayable",
      "type": "function"
    },
    {
      "inputs": [],
      "name": "owner",
      "outputs": [
        {
          "internalType": "address",
          "name": "",
          "type": "address"
        }
      ],
      "stateMutability": "view",
      "type": "function"
    },
    {
      "inputs": [
        {
          "internalType": "uint256",
          "name": "_pid",
          "type": "uint256"
        },
        {
          "internalType": "address",
          "name": "_user",
          "type": "address"
        }
      ],
      "name": "pendingTokens",
      "outputs": [
        {
          "internalType": "address[]",
          "name": "addresses",
          "type": "address[]"
        },
        {
          "internalType": "string[]",
          "name": "symbols",
          "type": "string[]"
        },
        {
          "internalType": "uint256[]",
          "name": "decimals",
          "type": "uint256[]"
        },
        {
          "internalType": "uint256[]",
          "name": "amounts",
          "type": "uint256[]"
        }
      ],
      "stateMutability": "view",
      "type": "function"
    },
    {
      "inputs": [
        {
          "internalType": "uint256",
          "name": "",
          "type": "uint256"
        }
      ],
      "name": "poolInfo",
      "outputs": [
        {
          "internalType": "contract IBoringERC20",
          "name": "lpToken",
          "type": "address"
        },
        {
          "internalType": "uint256",
          "name": "allocPoint",
          "type": "uint256"
        },
        {
          "internalType": "uint256",
          "name": "lastRewardTimestamp",
          "type": "uint256"
        },
        {
          "internalType": "uint256",
          "name": "accTauPerShare",
          "type": "uint256"
        },
        {
          "internalType": "uint16",
          "name": "depositFeeBP",
          "type": "uint16"
        },
        {
          "internalType": "uint256",
          "name": "harvestInterval",
          "type": "uint256"
        },
        {
          "internalType": "uint256",
          "name": "totalLp",
          "type": "uint256"
        }
      ],
      "stateMutability": "view",
      "type": "function"
    },
    {
      "inputs": [],
      "name": "poolLength",
      "outputs": [
        {
          "internalType": "uint256",
          "name": "",
          "type": "uint256"
        }
      ],
      "stateMutability": "view",
      "type": "function"
    },
    {
      "inputs": [
        {
          "internalType": "uint256",
          "name": "_pid",
          "type": "uint256"
        }
      ],
      "name": "poolRewarders",
      "outputs": [
        {
          "internalType": "address[]",
          "name": "rewarders",
          "type": "address[]"
        }
      ],
      "stateMutability": "view",
      "type": "function"
    },
    {
      "inputs": [
        {
          "internalType": "uint256",
          "name": "_pid",
          "type": "uint256"
        }
      ],
      "name": "poolRewardsPerSec",
      "outputs": [
        {
          "internalType": "address[]",
          "name": "addresses",
          "type": "address[]"
        },
        {
          "internalType": "string[]",
          "name": "symbols",
          "type": "string[]"
        },
        {
          "internalType": "uint256[]",
          "name": "decimals",
          "type": "uint256[]"
        },
        {
          "internalType": "uint256[]",
          "name": "rewardsPerSec",
          "type": "uint256[]"
        }
      ],
      "stateMutability": "view",
      "type": "function"
    },
    {
      "inputs": [
        {
          "internalType": "uint256",
          "name": "pid",
          "type": "uint256"
        }
      ],
      "name": "poolTotalLp",
      "outputs": [
        {
          "internalType": "uint256",
          "name": "",
          "type": "uint256"
        }
      ],
      "stateMutability": "view",
      "type": "function"
    },
    {
      "inputs": [],
      "name": "renounceOwnership",
      "outputs": [],
      "stateMutability": "nonpayable",
      "type": "function"
    },
    {
      "inputs": [
        {
          "internalType": "uint256",
          "name": "_pid",
          "type": "uint256"
        },
        {
          "internalType": "uint256",
          "name": "_allocPoint",
          "type": "uint256"
        },
        {
          "internalType": "uint16",
          "name": "_depositFeeBP",
          "type": "uint16"
        },
        {
          "internalType": "uint256",
          "name": "_harvestInterval",
          "type": "uint256"
        },
        {
          "internalType": "contract IComplexRewarder[]",
          "name": "_rewarders",
          "type": "address[]"
        }
      ],
      "name": "set",
      "outputs": [],
      "stateMutability": "nonpayable",
      "type": "function"
    },
    {
      "inputs": [
        {
          "internalType": "address",
          "name": "_investorAddress",
          "type": "address"
        }
      ],
      "name": "setInvestorAddress",
      "outputs": [],
      "stateMutability": "nonpayable",
      "type": "function"
    },
    {
      "inputs": [
        {
          "internalType": "uint256",
          "name": "_newInvestorPercent",
          "type": "uint256"
        }
      ],
      "name": "setInvestorPercent",
      "outputs": [],
      "stateMutability": "nonpayable",
      "type": "function"
    },
    {
      "inputs": [
        {
          "internalType": "address",
          "name": "_teamAddress",
          "type": "address"
        }
      ],
      "name": "setTeamAddress",
      "outputs": [],
      "stateMutability": "nonpayable",
      "type": "function"
    },
    {
      "inputs": [
        {
          "internalType": "uint256",
          "name": "_newTeamPercent",
          "type": "uint256"
        }
      ],
      "name": "setTeamPercent",
      "outputs": [],
      "stateMutability": "nonpayable",
      "type": "function"
    },
    {
      "inputs": [
        {
          "internalType": "address",
          "name": "_treasuryAddress",
          "type": "address"
        }
      ],
      "name": "setTreasuryAddress",
      "outputs": [],
      "stateMutability": "nonpayable",
      "type": "function"
    },
    {
      "inputs": [
        {
          "internalType": "uint256",
          "name": "_newTreasuryPercent",
          "type": "uint256"
        }
      ],
      "name": "setTreasuryPercent",
      "outputs": [],
      "stateMutability": "nonpayable",
      "type": "function"
    },
    {
      "inputs": [],
      "name": "startFarming",
      "outputs": [],
      "stateMutability": "nonpayable",
      "type": "function"
    },
    {
      "inputs": [],
      "name": "startTimestamp",
      "outputs": [
        {
          "internalType": "uint256",
          "name": "",
          "type": "uint256"
        }
      ],
      "stateMutability": "view",
      "type": "function"
    },
    {
      "inputs": [],
      "name": "tau",
      "outputs": [
        {
          "internalType": "contract IBoringERC20",
          "name": "",
          "type": "address"
        }
      ],
      "stateMutability": "view",
      "type": "function"
    },
    {
      "inputs": [],
      "name": "tauPerSec",
      "outputs": [
        {
          "internalType": "uint256",
          "name": "",
          "type": "uint256"
        }
      ],
      "stateMutability": "view",
      "type": "function"
    },
    {
      "inputs": [],
      "name": "teamAddress",
      "outputs": [
        {
          "internalType": "address",
          "name": "",
          "type": "address"
        }
      ],
      "stateMutability": "view",
      "type": "function"
    },
    {
      "inputs": [],
      "name": "teamPercent",
      "outputs": [
        {
          "internalType": "uint256",
          "name": "",
          "type": "uint256"
        }
      ],
      "stateMutability": "view",
      "type": "function"
    },
    {
      "inputs": [],
      "name": "totalAllocPoint",
      "outputs": [
        {
          "internalType": "uint256",
          "name": "",
          "type": "uint256"
        }
      ],
      "stateMutability": "view",
      "type": "function"
    },
    {
      "inputs": [],
      "name": "totalLockedUpRewards",
      "outputs": [
        {
          "internalType": "uint256",
          "name": "",
          "type": "uint256"
        }
      ],
      "stateMutability": "view",
      "type": "function"
    },
    {
      "inputs": [],
      "name": "totalTauInPools",
      "outputs": [
        {
          "internalType": "uint256",
          "name": "",
          "type": "uint256"
        }
      ],
      "stateMutability": "view",
      "type": "function"
    },
    {
      "inputs": [
        {
          "internalType": "address",
          "name": "newOwner",
          "type": "address"
        }
      ],
      "name": "transferOwnership",
      "outputs": [],
      "stateMutability": "nonpayable",
      "type": "function"
    },
    {
      "inputs": [],
      "name": "treasuryAddress",
      "outputs": [
        {
          "internalType": "address",
          "name": "",
          "type": "address"
        }
      ],
      "stateMutability": "view",
      "type": "function"
    },
    {
      "inputs": [],
      "name": "treasuryPercent",
      "outputs": [
        {
          "internalType": "uint256",
          "name": "",
          "type": "uint256"
        }
      ],
      "stateMutability": "view",
      "type": "function"
    },
    {
      "inputs": [
        {
          "internalType": "uint256",
          "name": "_pid",
          "type": "uint256"
        },
        {
          "internalType": "uint256",
          "name": "_allocPoint",
          "type": "uint256"
        }
      ],
      "name": "updateAllocPoint",
      "outputs": [],
      "stateMutability": "nonpayable",
      "type": "function"
    },
    {
      "inputs": [
        {
          "internalType": "uint256",
          "name": "_tauPerSec",
          "type": "uint256"
        }
      ],
      "name": "updateEmissionRate",
      "outputs": [],
      "stateMutability": "nonpayable",
      "type": "function"
    },
    {
      "inputs": [
        {
          "internalType": "uint256",
          "name": "_pid",
          "type": "uint256"
        }
      ],
      "name": "updatePool",
      "outputs": [],
      "stateMutability": "nonpayable",
      "type": "function"
    },
    {
      "inputs": [
        {
          "internalType": "uint256",
          "name": "",
          "type": "uint256"
        },
        {
          "internalType": "address",
          "name": "",
          "type": "address"
        }
      ],
      "name": "userInfo",
      "outputs": [
        {
          "internalType": "uint256",
          "name": "amount",
          "type": "uint256"
        },
        {
          "internalType": "uint256",
          "name": "rewardDebt",
          "type": "uint256"
        },
        {
          "internalType": "uint256",
          "name": "rewardLockedUp",
          "type": "uint256"
        },
        {
          "internalType": "uint256",
          "name": "nextHarvestUntil",
          "type": "uint256"
        }
      ],
      "stateMutability": "view",
      "type": "function"
    },
    {
      "inputs": [
        {
          "internalType": "uint256",
          "name": "_pid",
          "type": "uint256"
        },
        {
          "internalType": "uint256",
          "name": "_amount",
          "type": "uint256"
        }
      ],
      "name": "withdraw",
      "outputs": [],
      "stateMutability": "nonpayable",
      "type": "function"
    }
  ],
  "bytecode": "0x60a06040526000600681905560095564e8d4a510006080523480156200002457600080fd5b506040516200584a3803806200584a8339810160408190526200004791620002e8565b62000052336200027f565b600180556103e8831115620000be5760405162461bcd60e51b815260206004820152602760248201527f636f6e7374727563746f723a20696e76616c6964207465616d2070657263656e604482015266742076616c756560c81b60648201526084015b60405180910390fd5b6103e8821115620001265760405162461bcd60e51b815260206004820152602b60248201527f636f6e7374727563746f723a20696e76616c696420747265617375727920706560448201526a7263656e742076616c756560a81b6064820152608401620000b5565b6103e88111156200018e5760405162461bcd60e51b815260206004820152602b60248201527f636f6e7374727563746f723a20696e76616c696420696e766573746f7220706560448201526a7263656e742076616c756560a81b6064820152608401620000b5565b6103e8816200019e848662000377565b620001aa919062000377565b1115620002065760405162461bcd60e51b815260206004820152602360248201527f636f6e7374727563746f723a20746f74616c2070657263656e74206f766572206044820152620dac2f60eb1b6064820152608401620000b5565b62000216426301e1338062000377565b600755600280546001600160a01b03199081166001600160a01b039a8b1617909155600397909755600a8054881696891696909617909555600b8054871694881694909417909355600c80549095169190951617909255600d92909255600e55600f556200039e565b600080546001600160a01b038381166001600160a01b0319831681178455604051919092169283917f8be0079c531659141344cd1fd0a4f28419497f9722a3daafe3b4186f6b6457e09190a35050565b6001600160a01b0381168114620002e557600080fd5b50565b600080600080600080600080610100898b0312156200030657600080fd5b88516200031381620002cf565b60208a015160408b015191995097506200032d81620002cf565b60608a01519096506200034081620002cf565b60808a01519095506200035381620002cf565b60a08a015160c08b015160e0909b0151999c989b5096999598909790945092505050565b600082198211156200039957634e487b7160e01b600052601160045260246000fd5b500190565b60805161546d620003dd60003960008181611067015281816131330152818161318101528181613c2b01528181613d510152614515015261546d6000f3fe608060405234801561001057600080fd5b50600436106102e95760003560e01c80636605bfda11610191578063cfc4af55116100e3578063e2bbb15811610097578063eff8976b11610071578063eff8976b146106a0578063f2fde38b146106c0578063ffcd4263146106d357600080fd5b8063e2bbb15814610671578063e6fd48bc14610684578063eddf96521461068d57600080fd5b8063de0af129116100c8578063de0af12914610655578063de73149d1461065e578063e164ac501461066857600080fd5b8063cfc4af5514610622578063dc640ac91461064257600080fd5b806389a2bc2511610145578063949e63021161011f578063949e6302146105e7578063afbcfea1146105fa578063c5f956af1461060257600080fd5b806389a2bc25146105565780638da5cb5b1461056957806393f1a40b1461058757600080fd5b8063715018a611610176578063715018a61461051f578063812c64f114610527578063876d3c9c1461054357600080fd5b80636605bfda146104f95780636690864e1461050c57600080fd5b80632e6c998d1161024a578063508593ab116101fe5780635312ea8e116101d85780635312ea8e146104cb578063630b5ba1146104de578063654c9ece146104e657600080fd5b8063508593ab14610492578063515bc323146104a557806351eb05a6146104b857600080fd5b8063441a3e701161022f578063441a3e7014610453578063465e81ec14610466578063474fa6301461048957600080fd5b80632e6c998d1461041d57806342602f1e1461044057600080fd5b80631526fe27116102a15780631984dd36116102865780631984dd36146103e15780631c75f085146103ea5780632081ccc41461040a57600080fd5b80631526fe271461037557806317caf6f1146103d857600080fd5b8063081e3eda116102d2578063081e3eda146103135780630ba84cd21461031b57806312e228fd1461033057600080fd5b806304ef9d58146102ee5780630735b2081461030a575b600080fd5b6102f7600e5481565b6040519081526020015b60405180910390f35b6102f7600f5481565b6004546102f7565b61032e610329366004614d24565b6106e6565b005b600c546103509073ffffffffffffffffffffffffffffffffffffffff1681565b60405173ffffffffffffffffffffffffffffffffffffffff9091168152602001610301565b610388610383366004614d24565b610739565b6040805173ffffffffffffffffffffffffffffffffffffffff9098168852602088019690965294860193909352606085019190915261ffff16608084015260a083015260c082015260e001610301565b6102f760065481565b6102f760035481565b600a546103509073ffffffffffffffffffffffffffffffffffffffff1681565b61032e610418366004614d9b565b6107a3565b61043061042b366004614e2e565b610ba3565b6040519015158152602001610301565b61032e61044e366004614e5e565b610c61565b61032e610461366004614e7b565b610e42565b610479610474366004614d24565b6111d9565b6040516103019493929190614f4a565b6102f760085481565b61032e6104a036600461501a565b611945565b61032e6104b3366004615062565b611e07565b61032e6104c6366004614d24565b611f6f565b61032e6104d9366004614d24565b611f8c565b61032e61220e565b6102f76104f4366004614d24565b612229565b61032e610507366004614e5e565b612257565b61032e61051a366004614e5e565b612438565b61032e612619565b6105306103e881565b60405161ffff9091168152602001610301565b61032e610551366004614d24565b61262b565b61032e610564366004614d24565b6127b2565b60005473ffffffffffffffffffffffffffffffffffffffff16610350565b6105c7610595366004614e2e565b600560209081526000928352604080842090915290825290208054600182015460028301546003909301549192909184565b604080519485526020850193909352918301526060820152608001610301565b61032e6105f5366004614d24565b612939565b61032e612ac0565b600b546103509073ffffffffffffffffffffffffffffffffffffffff1681565b6002546103509073ffffffffffffffffffffffffffffffffffffffff1681565b61032e6106503660046150b5565b612baf565b6102f760095481565b6102f76212750081565b6102f7600d5481565b61032e61067f366004614e7b565b612c6a565b6102f760075481565b61032e61069b366004614e7b565b612c85565b6106b36106ae366004614d24565b612d82565b60405161030191906150f7565b61032e6106ce366004614e5e565b612f01565b6104796106e1366004614e2e565b612fb5565b6106ee6136c0565b6106f6613741565b600354604080519182526020820183905233917feedc6338c9c1ad8f3cd6c90dd09dbe98dbd57e610d3e59a17996d07acb0d9511910160405180910390a2600355565b6004818154811061074957600080fd5b6000918252602090912060089091020180546001820154600283015460038401546004850154600586015460069096015473ffffffffffffffffffffffffffffffffffffffff909516965092949193909261ffff16919087565b6107ab6136c0565b6004548690811061081d576040517f08c379a000000000000000000000000000000000000000000000000000000000815260206004820152601360248201527f506f6f6c20646f6573206e6f742065786973740000000000000000000000000060448201526064015b60405180910390fd5b600a821115610888576040517f08c379a000000000000000000000000000000000000000000000000000000000815260206004820152601760248201527f7365743a20746f6f206d616e79207265776172646572730000000000000000006044820152606401610814565b6103e861ffff861611156108f8576040517f08c379a000000000000000000000000000000000000000000000000000000000815260206004820152601960248201527f7365743a206465706f7369742066656520746f6f2068696768000000000000006044820152606401610814565b62127500841115610965576040517f08c379a000000000000000000000000000000000000000000000000000000000815260206004820152601d60248201527f7365743a20696e76616c6964206861727665737420696e74657276616c0000006044820152606401610814565b60005b82811015610a2c576109b68484838181106109855761098561510a565b905060200201602081019061099a9190614e5e565b73ffffffffffffffffffffffffffffffffffffffff163b151590565b610a1c576040517f08c379a000000000000000000000000000000000000000000000000000000000815260206004820152601e60248201527f7365743a207265776172646572206d75737420626520636f6e747261637400006044820152606401610814565b610a2581615168565b9050610968565b50610a35613741565b8560048881548110610a4957610a4961510a565b906000526020600020906008020160010154600654610a6891906151a1565b610a7291906151b8565b6006819055508560048881548110610a8c57610a8c61510a565b9060005260206000209060080201600101819055508460048881548110610ab557610ab561510a565b906000526020600020906008020160040160006101000a81548161ffff021916908361ffff1602179055508360048881548110610af457610af461510a565b906000526020600020906008020160050181905550828260048981548110610b1e57610b1e61510a565b90600052602060002090600802016007019190610b3c929190614c0d565b508282604051610b4d9291906151d0565b6040805191829003822088835261ffff881660208401529082018690529088907f5ed6f0deef9ab49d02900b40d596df4cd637a2a7fbfa56bbcb377389d3ce8d289060600160405180910390a350505050505050565b60045460009083908110610c13576040517f08c379a000000000000000000000000000000000000000000000000000000000815260206004820152601360248201527f506f6f6c20646f6573206e6f74206578697374000000000000000000000000006044820152606401610814565b600084815260056020908152604080832073ffffffffffffffffffffffffffffffffffffffff8716845290915290206007544210801590610c58575080600301544210155b95945050505050565b600c5473ffffffffffffffffffffffffffffffffffffffff163314610d2e576040517f08c379a000000000000000000000000000000000000000000000000000000000815260206004820152604160248201527f73657420696e766573746f7220616464726573733a206f6e6c7920707265766960448201527f6f757320696e766573746f722063616e2063616c6c2074686973206d6574686f60648201527f6400000000000000000000000000000000000000000000000000000000000000608482015260a401610814565b73ffffffffffffffffffffffffffffffffffffffff8116610dd1576040517f08c379a000000000000000000000000000000000000000000000000000000000815260206004820152603260248201527f73657420696e766573746f7220616464726573733a20696e76616c6964206e6560448201527f7720696e766573746f72206164647265737300000000000000000000000000006064820152608401610814565b600c80547fffffffffffffffffffffffff00000000000000000000000000000000000000001673ffffffffffffffffffffffffffffffffffffffff831690811790915560405133907f6260cb34f06b782e83bde168f7d74ab2133041cb53b63ce22b127822a92b679190600090a350565b610e4a613767565b60045482908110610eb7576040517f08c379a000000000000000000000000000000000000000000000000000000000815260206004820152601360248201527f506f6f6c20646f6573206e6f74206578697374000000000000000000000000006044820152606401610814565b600060048481548110610ecc57610ecc61510a565b600091825260208083208784526005825260408085203386529092529220805460089092029092019250841115610f5f576040517f08c379a000000000000000000000000000000000000000000000000000000000815260206004820181905260248201527f77697468647261773a207573657220616d6f756e74206e6f7420656e6f7567686044820152606401610814565b8382600601541015610fcd576040517f08c379a000000000000000000000000000000000000000000000000000000000815260206004820152601f60248201527f77697468647261773a20706f6f6c20746f74616c206e6f7420656e6f756768006044820152606401610814565b610fd6856137db565b610fdf85613cdd565b831561105e5783816000016000828254610ff991906151a1565b9091555050600254825473ffffffffffffffffffffffffffffffffffffffff9081169116141561103b57836009600082825461103591906151a1565b90915550505b815461105e9073ffffffffffffffffffffffffffffffffffffffff163386613e92565b600382015481547f0000000000000000000000000000000000000000000000000000000000000000916110909161521f565b61109a919061525c565b600182015560005b6007830154811015611171578260070181815481106110c3576110c361510a565b60009182526020909120015482546040517ff46ad5a200000000000000000000000000000000000000000000000000000000815260048101899052336024820152604481019190915273ffffffffffffffffffffffffffffffffffffffff9091169063f46ad5a290606401600060405180830381600087803b15801561114857600080fd5b505af115801561115c573d6000803e3d6000fd5b505050508061116a90615168565b90506110a2565b508315611192578382600601600082825461118c91906151a1565b90915550505b604051848152859033907ff279e6a1f5e320cca91135676d9cb6e44ca8a08c0b88342bcdb1144f6511b5689060200160405180910390a35050506111d560018055565b5050565b60608060608084600480549050811061124e576040517f08c379a000000000000000000000000000000000000000000000000000000000815260206004820152601360248201527f506f6f6c20646f6573206e6f74206578697374000000000000000000000000006044820152606401610814565b6000600487815481106112635761126361510a565b906000526020600020906008020190508060070180549050600161128791906151b8565b67ffffffffffffffff81111561129f5761129f615297565b6040519080825280602002602001820160405280156112c8578160200160208202803683370190505b5060078201549096506112dc9060016151b8565b67ffffffffffffffff8111156112f4576112f4615297565b60405190808252806020026020018201604052801561132757816020015b60608152602001906001900390816113125790505b50600782015490955061133b9060016151b8565b67ffffffffffffffff81111561135357611353615297565b60405190808252806020026020018201604052801561137c578160200160208202803683370190505b5060078201549094506113909060016151b8565b67ffffffffffffffff8111156113a8576113a8615297565b6040519080825280602002602001820160405280156113d1578160200160208202803683370190505b50600254875191945073ffffffffffffffffffffffffffffffffffffffff169087906000906114025761140261510a565b73ffffffffffffffffffffffffffffffffffffffff92831660209182029290920101526002546114329116614002565b856000815181106114455761144561510a565b60209081029190910101526002546114729073ffffffffffffffffffffffffffffffffffffffff1661411a565b60ff16846000815181106114885761148861510a565b60200260200101818152505060006103e890506000600f54600e54600d54846114b191906151a1565b6114bb91906151a1565b6114c591906151a1565b9050816006548260035486600101546114de919061521f565b6114e8919061521f565b6114f2919061525c565b6114fc919061525c565b8560008151811061150f5761150f61510a565b60200260200101818152505060005b60078401548110156119395783600701818154811061153f5761153f61510a565b60009182526020918290200154604080517ff7c618c1000000000000000000000000000000000000000000000000000000008152905173ffffffffffffffffffffffffffffffffffffffff9092169263f7c618c192600480840193829003018186803b1580156115ae57600080fd5b505afa1580156115c2573d6000803e3d6000fd5b505050506040513d601f19601f820116820180604052508101906115e691906152c6565b896115f28360016151b8565b815181106116025761160261510a565b602002602001019073ffffffffffffffffffffffffffffffffffffffff16908173ffffffffffffffffffffffffffffffffffffffff16815250506117168460070182815481106116545761165461510a565b60009182526020918290200154604080517ff7c618c1000000000000000000000000000000000000000000000000000000008152905173ffffffffffffffffffffffffffffffffffffffff9092169263f7c618c192600480840193829003018186803b1580156116c357600080fd5b505afa1580156116d7573d6000803e3d6000fd5b505050506040513d601f19601f820116820180604052508101906116fb91906152c6565b73ffffffffffffffffffffffffffffffffffffffff16614002565b886117228360016151b8565b815181106117325761173261510a565b60200260200101819052506118178460070182815481106117555761175561510a565b60009182526020918290200154604080517ff7c618c1000000000000000000000000000000000000000000000000000000008152905173ffffffffffffffffffffffffffffffffffffffff9092169263f7c618c192600480840193829003018186803b1580156117c457600080fd5b505afa1580156117d8573d6000803e3d6000fd5b505050506040513d601f19601f820116820180604052508101906117fc91906152c6565b73ffffffffffffffffffffffffffffffffffffffff1661411a565b60ff16876118268360016151b8565b815181106118365761183661510a565b6020026020010181815250508360070181815481106118575761185761510a565b6000918252602090912001546040517f465e81ec000000000000000000000000000000000000000000000000000000008152600481018c905273ffffffffffffffffffffffffffffffffffffffff9091169063465e81ec9060240160206040518083038186803b1580156118ca57600080fd5b505afa1580156118de573d6000803e3d6000fd5b505050506040513d601f19601f8201168201806040525081019061190291906152e3565b8661190e8360016151b8565b8151811061191e5761191e61510a565b602090810291909101015261193281615168565b905061151e565b50505050509193509193565b61194d6136c0565b600a8111156119b8576040517f08c379a000000000000000000000000000000000000000000000000000000000815260206004820152601760248201527f6164643a20746f6f206d616e79207265776172646572730000000000000000006044820152606401610814565b6103e861ffff85161115611a28576040517f08c379a000000000000000000000000000000000000000000000000000000000815260206004820152601960248201527f6164643a206465706f7369742066656520746f6f2068696768000000000000006044820152606401610814565b62127500831115611a95576040517f08c379a000000000000000000000000000000000000000000000000000000000815260206004820152601d60248201527f6164643a20696e76616c6964206861727665737420696e74657276616c0000006044820152606401610814565b73ffffffffffffffffffffffffffffffffffffffff85163b611b39576040517f08c379a000000000000000000000000000000000000000000000000000000000815260206004820152602660248201527f6164643a204c5020746f6b656e206d75737420626520612076616c696420636f60448201527f6e747261637400000000000000000000000000000000000000000000000000006064820152608401610814565b60005b81811015611bcf57611b598383838181106109855761098561510a565b611bbf576040517f08c379a000000000000000000000000000000000000000000000000000000000815260206004820152601e60248201527f6164643a207265776172646572206d75737420626520636f6e747261637400006044820152606401610814565b611bc881615168565b9050611b3c565b50611bd8613741565b60006007544211611beb57600754611bed565b425b90508660066000828254611c0191906151b8565b9250508190555060046040518061010001604052808873ffffffffffffffffffffffffffffffffffffffff168152602001898152602001838152602001600081526020018761ffff168152602001868152602001600081526020018585808060200260200160405190810160405280939291908181526020018383602002808284376000920182905250939094525050835460018082018655948252602091829020845160089092020180547fffffffffffffffffffffffff00000000000000000000000000000000000000001673ffffffffffffffffffffffffffffffffffffffff9092169190911781558382015194810194909455604083015160028501556060830151600385015560808301516004850180547fffffffffffffffffffffffffffffffffffffffffffffffffffffffffffff00001661ffff90921691909117905560a0830151600585015560c0830151600685015560e08301518051939493611d77935060078501929190910190614c95565b5050508282604051611d8a9291906151d0565b60405190819003902060045473ffffffffffffffffffffffffffffffffffffffff881690611dba906001906151a1565b604080518b815261ffff8a1660208201529081018890527f5ed295c4f5af5aeb1ccd905e1cd55a86ab3bb9fc1fe2346ff64ac47dbef366619060600160405180910390a450505050505050565b611e0f613767565b60045486908110611e7c576040517f08c379a000000000000000000000000000000000000000000000000000000000815260206004820152601360248201527f506f6f6c20646f6573206e6f74206578697374000000000000000000000000006044820152606401610814565b600060048881548110611e9157611e9161510a565b6000918252602090912060089091020180546040517fd505accf000000000000000000000000000000000000000000000000000000008152336004820152306024820152604481018a90526064810189905260ff8816608482015260a4810187905260c4810186905291925073ffffffffffffffffffffffffffffffffffffffff1690819063d505accf9060e401600060405180830381600087803b158015611f3957600080fd5b505af1158015611f4d573d6000803e3d6000fd5b50505050611f5b898961420d565b505050611f6760018055565b505050505050565b611f77613767565b611f80816137db565b611f8960018055565b50565b611f94613767565b600060048281548110611fa957611fa961510a565b60009182526020808320858452600582526040808520338652909252922080546008929092029092016006810154909350811115612069576040517f08c379a000000000000000000000000000000000000000000000000000000000815260206004820152602960248201527f656d657267656e63792077697468647261773a20706f6f6c20746f74616c206e60448201527f6f7420656e6f75676800000000000000000000000000000000000000000000006064820152608401610814565b60008083556001830181905560028301819055600383018190556006840180548392906120979084906151a1565b90915550600090505b600784015481101561216a578360070181815481106120c1576120c161510a565b60009182526020822001546040517ff46ad5a200000000000000000000000000000000000000000000000000000000815260048101889052336024820152604481019290925273ffffffffffffffffffffffffffffffffffffffff169063f46ad5a290606401600060405180830381600087803b15801561214157600080fd5b505af1158015612155573d6000803e3d6000fd5b505050508061216390615168565b90506120a0565b50600254835473ffffffffffffffffffffffffffffffffffffffff908116911614156121a85780600960008282546121a291906151a1565b90915550505b82546121cb9073ffffffffffffffffffffffffffffffffffffffff163383613e92565b604051818152849033907fbb757047c2b5f3974fe26b7c10f732e7bce710b0952a71082702781e62ae05959060200160405180910390a3505050611f8960018055565b612216613767565b61221e613741565b61222760018055565b565b60006004828154811061223e5761223e61510a565b9060005260206000209060080201600601549050919050565b600b5473ffffffffffffffffffffffffffffffffffffffff163314612324576040517f08c379a000000000000000000000000000000000000000000000000000000000815260206004820152604960248201527f73657420747265617375727920616464726573733a206f6e6c7920707265766960448201527f6f757320747265617375727920616464726573732063616e2063616c6c20746860648201527f6973206d6574686f640000000000000000000000000000000000000000000000608482015260a401610814565b73ffffffffffffffffffffffffffffffffffffffff81166123c7576040517f08c379a000000000000000000000000000000000000000000000000000000000815260206004820152603260248201527f73657420747265617375727920616464726573733a20696e76616c6964206e6560448201527f77207472656173757279206164647265737300000000000000000000000000006064820152608401610814565b600b80547fffffffffffffffffffffffff00000000000000000000000000000000000000001673ffffffffffffffffffffffffffffffffffffffff831690811790915560405133907f61885cdba916be748ff3e3f6f15e4206153b8ea3b7acabade9d04b4063a8351090600090a350565b600a5473ffffffffffffffffffffffffffffffffffffffff163314612505576040517f08c379a000000000000000000000000000000000000000000000000000000000815260206004820152604160248201527f736574207465616d20616464726573733a206f6e6c792070726576696f75732060448201527f7465616d20616464726573732063616e2063616c6c2074686973206d6574686f60648201527f6400000000000000000000000000000000000000000000000000000000000000608482015260a401610814565b73ffffffffffffffffffffffffffffffffffffffff81166125a8576040517f08c379a000000000000000000000000000000000000000000000000000000000815260206004820152602a60248201527f736574207465616d20616464726573733a20696e76616c6964206e657720746560448201527f616d2061646472657373000000000000000000000000000000000000000000006064820152608401610814565b600a80547fffffffffffffffffffffffff00000000000000000000000000000000000000001673ffffffffffffffffffffffffffffffffffffffff831690811790915560405133907f42fbc17d847fdc3e5c82da842a5ef3979c64f3b94cd4e7382310fd5525c6ee0f90600090a350565b6126216136c0565b612227600061467e565b6126336136c0565b6103e88111156126c5576040517f08c379a000000000000000000000000000000000000000000000000000000000815260206004820152602b60248201527f73657420696e766573746f722070657263656e743a20696e76616c696420706560448201527f7263656e742076616c75650000000000000000000000000000000000000000006064820152608401610814565b6103e8600e5482600d546126d991906151b8565b6126e391906151b8565b1115612771576040517f08c379a000000000000000000000000000000000000000000000000000000000815260206004820152602c60248201527f73657420696e766573746f722070657263656e743a20746f74616c207065726360448201527f656e74206f766572206d617800000000000000000000000000000000000000006064820152608401610814565b600f5460408051918252602082018390527f905b464403a98b455243c8b4d30c545b8fbd70cda670142b9326425b2c039f3b910160405180910390a1600f55565b6127ba6136c0565b6103e881111561284c576040517f08c379a000000000000000000000000000000000000000000000000000000000815260206004820152602b60248201527f7365742074726561737572792070657263656e743a20696e76616c696420706560448201527f7263656e742076616c75650000000000000000000000000000000000000000006064820152608401610814565b6103e8600f5482600d5461286091906151b8565b61286a91906151b8565b11156128f8576040517f08c379a000000000000000000000000000000000000000000000000000000000815260206004820152602c60248201527f7365742074726561737572792070657263656e743a20746f74616c207065726360448201527f656e74206f766572206d617800000000000000000000000000000000000000006064820152608401610814565b600e5460408051918252602082018390527fa565895c0101fca10e6a7b85742e56cf52ac5f58b09ce030425d3555b47069fd910160405180910390a1600e55565b6129416136c0565b6103e88111156129d3576040517f08c379a000000000000000000000000000000000000000000000000000000000815260206004820152602760248201527f736574207465616d2070657263656e743a20696e76616c69642070657263656e60448201527f742076616c7565000000000000000000000000000000000000000000000000006064820152608401610814565b6103e8600f5482600e546129e791906151b8565b6129f191906151b8565b1115612a7f576040517f08c379a000000000000000000000000000000000000000000000000000000000815260206004820152602860248201527f736574207465616d2070657263656e743a20746f74616c2070657263656e742060448201527f6f766572206d61780000000000000000000000000000000000000000000000006064820152608401610814565b600d5460408051918252602082018390527f204a076f4a2e4e5e646bb8841cc285306bf747e277f40dbfd5750e782e17b7a6910160405180910390a1600d55565b612ac86136c0565b6007544210612b59576040517f08c379a000000000000000000000000000000000000000000000000000000000815260206004820152602360248201527f7374617274206661726d696e673a206661726d207374617274656420616c726560448201527f61647900000000000000000000000000000000000000000000000000000000006064820152608401610814565b60045460005b81811015612ba757600060048281548110612b7c57612b7c61510a565b906000526020600020906008020190504281600201819055505080612ba090615168565b9050612b5f565b505042600755565b612bb7613767565b601e811115612c22576040517f08c379a000000000000000000000000000000000000000000000000000000000815260206004820152601f60248201527f68617276657374206d616e793a20746f6f206d616e7920706f6f6c20696473006044820152606401610814565b60005b81811015612c6057612c50838383818110612c4257612c4261510a565b90506020020135600061420d565b612c5981615168565b9050612c25565b506111d560018055565b612c72613767565b612c7c828261420d565b6111d560018055565b612c8d6136c0565b612c95613741565b3373ffffffffffffffffffffffffffffffffffffffff167f802633c8d26237616d81bdac01bc40fcdf36e098832601582ec19d7e431c5ef360048481548110612ce057612ce061510a565b90600052602060002090600802016001015483604051612d0a929190918252602082015260400190565b60405180910390a28060048381548110612d2657612d2661510a565b906000526020600020906008020160010154600654612d4591906151a1565b612d4f91906151b8565b6006819055508060048381548110612d6957612d6961510a565b9060005260206000209060080201600101819055505050565b60045460609082908110612df2576040517f08c379a000000000000000000000000000000000000000000000000000000000815260206004820152601360248201527f506f6f6c20646f6573206e6f74206578697374000000000000000000000000006044820152606401610814565b600060048481548110612e0757612e0761510a565b90600052602060002090600802019050806007018054905067ffffffffffffffff811115612e3757612e37615297565b604051908082528060200260200182016040528015612e60578160200160208202803683370190505b50925060005b6007820154811015612ef957816007018181548110612e8757612e8761510a565b9060005260206000200160009054906101000a900473ffffffffffffffffffffffffffffffffffffffff16848281518110612ec457612ec461510a565b73ffffffffffffffffffffffffffffffffffffffff90921660209283029190910190910152612ef281615168565b9050612e66565b505050919050565b612f096136c0565b73ffffffffffffffffffffffffffffffffffffffff8116612fac576040517f08c379a000000000000000000000000000000000000000000000000000000000815260206004820152602660248201527f4f776e61626c653a206e6577206f776e657220697320746865207a65726f206160448201527f64647265737300000000000000000000000000000000000000000000000000006064820152608401610814565b611f898161467e565b60608060608085600480549050811061302a576040517f08c379a000000000000000000000000000000000000000000000000000000000815260206004820152601360248201527f506f6f6c20646f6573206e6f74206578697374000000000000000000000000006044820152606401610814565b60006004888154811061303f5761303f61510a565b600091825260208083208b845260058252604080852073ffffffffffffffffffffffffffffffffffffffff8d168652909252922060036008909202909201908101546006820154600283015492945090914211801561309d57508015155b156131735760008460020154426130b491906151a1565b905060006103e890506000600f54600e54600d54846130d391906151a1565b6130dd91906151a1565b6130e791906151a1565b9050600082600654838a6001015460035488613103919061521f565b61310d919061521f565b613117919061521f565b613121919061525c565b61312b919061525c565b9050846131587f00000000000000000000000000000000000000000000000000000000000000008361521f565b613162919061525c565b61316c90876151b8565b9550505050505b6000836002015484600101547f00000000000000000000000000000000000000000000000000000000000000008587600001546131b0919061521f565b6131ba919061525c565b6131c491906151a1565b6131ce91906151b8565b60078601549091506131e19060016151b8565b67ffffffffffffffff8111156131f9576131f9615297565b604051908082528060200260200182016040528015613222578160200160208202803683370190505b506007860154909a506132369060016151b8565b67ffffffffffffffff81111561324e5761324e615297565b60405190808252806020026020018201604052801561328157816020015b606081526020019060019003908161326c5790505b5060078601549099506132959060016151b8565b67ffffffffffffffff8111156132ad576132ad615297565b6040519080825280602002602001820160405280156132d6578160200160208202803683370190505b5060078601549097506132ea9060016151b8565b67ffffffffffffffff81111561330257613302615297565b60405190808252806020026020018201604052801561332b578160200160208202803683370190505b506002548b5191995073ffffffffffffffffffffffffffffffffffffffff16908b9060009061335c5761335c61510a565b73ffffffffffffffffffffffffffffffffffffffff928316602091820292909201015260025461338c9116614002565b8960008151811061339f5761339f61510a565b60209081029190910101526002546133cc9073ffffffffffffffffffffffffffffffffffffffff1661411a565b60ff16886000815181106133e2576133e261510a565b60200260200101818152505080876000815181106134025761340261510a565b60200260200101818152505060005b60078601548110156136b0578560070181815481106134325761343261510a565b60009182526020918290200154604080517ff7c618c1000000000000000000000000000000000000000000000000000000008152905173ffffffffffffffffffffffffffffffffffffffff9092169263f7c618c192600480840193829003018186803b1580156134a157600080fd5b505afa1580156134b5573d6000803e3d6000fd5b505050506040513d601f19601f820116820180604052508101906134d991906152c6565b8b6134e58360016151b8565b815181106134f5576134f561510a565b602002602001019073ffffffffffffffffffffffffffffffffffffffff16908173ffffffffffffffffffffffffffffffffffffffff16815250506135478660070182815481106116545761165461510a565b8a6135538360016151b8565b815181106135635761356361510a565b60200260200101819052506135868660070182815481106117555761175561510a565b60ff16896135958360016151b8565b815181106135a5576135a561510a565b6020026020010181815250508560070181815481106135c6576135c661510a565b6000918252602090912001546040517fffcd4263000000000000000000000000000000000000000000000000000000008152600481018f905273ffffffffffffffffffffffffffffffffffffffff8e811660248301529091169063ffcd42639060440160206040518083038186803b15801561364157600080fd5b505afa158015613655573d6000803e3d6000fd5b505050506040513d601f19601f8201168201806040525081019061367991906152e3565b886136858360016151b8565b815181106136955761369561510a565b60209081029190910101526136a981615168565b9050613411565b5050505050505092959194509250565b60005473ffffffffffffffffffffffffffffffffffffffff163314612227576040517f08c379a000000000000000000000000000000000000000000000000000000000815260206004820181905260248201527f4f776e61626c653a2063616c6c6572206973206e6f7420746865206f776e65726044820152606401610814565b60005b600454811015611f8957613757816137db565b61376081615168565b9050613744565b600260015414156137d4576040517f08c379a000000000000000000000000000000000000000000000000000000000815260206004820152601f60248201527f5265656e7472616e637947756172643a207265656e7472616e742063616c6c006044820152606401610814565b6002600155565b60045481908110613848576040517f08c379a000000000000000000000000000000000000000000000000000000000815260206004820152601360248201527f506f6f6c20646f6573206e6f74206578697374000000000000000000000000006044820152606401610814565b60006004838154811061385d5761385d61510a565b906000526020600020906008020190508060020154421161387d57505050565b600681015480158061389157506001820154155b156138a25750426002909101555050565b60008260020154426138b491906151a1565b905060006006548460010154600354846138ce919061521f565b6138d8919061521f565b6138e2919061525c565b905060006103e890506000600f54600e54600d548461390191906151a1565b61390b91906151a1565b61391591906151a1565b600254600a54600d5492935073ffffffffffffffffffffffffffffffffffffffff918216926340c10f1992909116908590613950908861521f565b61395a919061525c565b6040517fffffffff0000000000000000000000000000000000000000000000000000000060e085901b16815273ffffffffffffffffffffffffffffffffffffffff90921660048301526024820152604401600060405180830381600087803b1580156139c557600080fd5b505af11580156139d9573d6000803e3d6000fd5b5050600254600b54600e5473ffffffffffffffffffffffffffffffffffffffff92831694506340c10f1993509116908590613a14908861521f565b613a1e919061525c565b6040517fffffffff0000000000000000000000000000000000000000000000000000000060e085901b16815273ffffffffffffffffffffffffffffffffffffffff90921660048301526024820152604401600060405180830381600087803b158015613a8957600080fd5b505af1158015613a9d573d6000803e3d6000fd5b5050600254600c54600f5473ffffffffffffffffffffffffffffffffffffffff92831694506340c10f1993509116908590613ad8908861521f565b613ae2919061525c565b6040517fffffffff0000000000000000000000000000000000000000000000000000000060e085901b16815273ffffffffffffffffffffffffffffffffffffffff90921660048301526024820152604401600060405180830381600087803b158015613b4d57600080fd5b505af1158015613b61573d6000803e3d6000fd5b505060025473ffffffffffffffffffffffffffffffffffffffff1691506340c10f1990503084613b91858861521f565b613b9b919061525c565b6040517fffffffff0000000000000000000000000000000000000000000000000000000060e085901b16815273ffffffffffffffffffffffffffffffffffffffff90921660048301526024820152604401600060405180830381600087803b158015613c0657600080fd5b505af1158015613c1a573d6000803e3d6000fd5b505050600687015483915082613c507f00000000000000000000000000000000000000000000000000000000000000008761521f565b613c5a919061521f565b613c64919061525c565b613c6e919061525c565b866003016000828254613c8191906151b8565b909155505042600287018190556003870154604080519283526020830188905282015288907f3be3541fc42237d611b30329040bfa4569541d156560acdbbae57640d20b8f469060600160405180910390a25050505050505050565b600060048281548110613cf257613cf261510a565b600091825260208083208584526005825260408085203386529092529220600381015460089092029092019250158015613d2e57506007544210155b15613d48576005820154613d4290426151b8565b60038201555b600081600101547f000000000000000000000000000000000000000000000000000000000000000084600301548460000154613d84919061521f565b613d8e919061525c565b613d9891906151a1565b9050613da48433610ba3565b15613e1c576000811180613dbc575060008260020154115b15613e17576000826002015482613dd391906151b8565b9050826002015460086000828254613deb91906151a1565b9091555050600060028401556005840154613e0690426151b8565b6003840155613e1533826146f3565b505b613e8c565b8015613e8c578060086000828254613e3491906151b8565b9250508190555080826002016000828254613e4f91906151b8565b9091555050604051818152849033907fee470483107f579a55c754fa00613c45a9a3b617a418b39cb0be97e5381ba7c19060200160405180910390a35b50505050565b6040805173ffffffffffffffffffffffffffffffffffffffff8481166024830152604480830185905283518084039091018152606490920183526020820180517bffffffffffffffffffffffffffffffffffffffffffffffffffffffff167fa9059cbb000000000000000000000000000000000000000000000000000000001790529151600092839290871691613f2991906152fc565b6000604051808303816000865af19150503d8060008114613f66576040519150601f19603f3d011682016040523d82523d6000602084013e613f6b565b606091505b5091509150818015613f95575080511580613f95575080806020019051810190613f959190615318565b613ffb576040517f08c379a000000000000000000000000000000000000000000000000000000000815260206004820152601c60248201527f426f72696e6745524332303a205472616e73666572206661696c6564000000006044820152606401610814565b5050505050565b60408051600481526024810182526020810180517bffffffffffffffffffffffffffffffffffffffffffffffffffffffff167f95d89b41000000000000000000000000000000000000000000000000000000001790529051606091600091829173ffffffffffffffffffffffffffffffffffffffff86169161408491906152fc565b600060405180830381855afa9150503d80600081146140bf576040519150601f19603f3d011682016040523d82523d6000602084013e6140c4565b606091505b509150915081614109576040518060400160405280600381526020017f3f3f3f0000000000000000000000000000000000000000000000000000000000815250614112565b614112816148a9565b949350505050565b60408051600481526024810182526020810180517bffffffffffffffffffffffffffffffffffffffffffffffffffffffff167f313ce5670000000000000000000000000000000000000000000000000000000017905290516000918291829173ffffffffffffffffffffffffffffffffffffffff86169161419b91906152fc565b600060405180830381855afa9150503d80600081146141d6576040519150601f19603f3d011682016040523d82523d6000602084013e6141db565b606091505b50915091508180156141ee575080516020145b6141f9576012614112565b80806020019051810190614112919061533a565b6004548290811061427a576040517f08c379a000000000000000000000000000000000000000000000000000000000815260206004820152601360248201527f506f6f6c20646f6573206e6f74206578697374000000000000000000000000006044820152606401610814565b60006004848154811061428f5761428f61510a565b600091825260208083208784526005825260408085203386529092529220600890910290910191506142c0856137db565b6142c985613cdd565b831561450c5781546040517f70a0823100000000000000000000000000000000000000000000000000000000815230600482015260009173ffffffffffffffffffffffffffffffffffffffff16906370a082319060240160206040518083038186803b15801561433857600080fd5b505afa15801561434c573d6000803e3d6000fd5b505050506040513d601f19601f8201168201806040525081019061437091906152e3565b83549091506143979073ffffffffffffffffffffffffffffffffffffffff16333088614a9c565b82546040517f70a0823100000000000000000000000000000000000000000000000000000000815230600482015260009173ffffffffffffffffffffffffffffffffffffffff16906370a082319060240160206040518083038186803b15801561440057600080fd5b505afa158015614414573d6000803e3d6000fd5b505050506040513d601f19601f8201168201806040525081019061443891906152e3565b905061444482826151a1565b600485015490965061ffff16156144b35760048401546000906127109061446f9061ffff168961521f565b614479919061525c565b600b5486549192506144a59173ffffffffffffffffffffffffffffffffffffffff908116911683613e92565b6144af81886151a1565b9650505b858360000160008282546144c791906151b8565b9091555050600254845473ffffffffffffffffffffffffffffffffffffffff9081169116141561450957856009600082825461450391906151b8565b90915550505b50505b600382015481547f00000000000000000000000000000000000000000000000000000000000000009161453e9161521f565b614548919061525c565b600182015560005b600783015481101561461f578260070181815481106145715761457161510a565b60009182526020909120015482546040517ff46ad5a200000000000000000000000000000000000000000000000000000000815260048101899052336024820152604481019190915273ffffffffffffffffffffffffffffffffffffffff9091169063f46ad5a290606401600060405180830381600087803b1580156145f657600080fd5b505af115801561460a573d6000803e3d6000fd5b505050508061461890615168565b9050614550565b508315614640578382600601600082825461463a91906151b8565b90915550505b604051848152859033907f90890809c654f11d6e72a28fa60149770a0d11ec6c92319d6ceb2bb0a4ea1a159060200160405180910390a35050505050565b6000805473ffffffffffffffffffffffffffffffffffffffff8381167fffffffffffffffffffffffff0000000000000000000000000000000000000000831681178455604051919092169283917f8be0079c531659141344cd1fd0a4f28419497f9722a3daafe3b4186f6b6457e09190a35050565b6009546002546040517f70a0823100000000000000000000000000000000000000000000000000000000815230600482015273ffffffffffffffffffffffffffffffffffffffff909116906370a082319060240160206040518083038186803b15801561475f57600080fd5b505afa158015614773573d6000803e3d6000fd5b505050506040513d601f19601f8201168201806040525081019061479791906152e3565b11156111d5576009546002546040517f70a082310000000000000000000000000000000000000000000000000000000081523060048201526000929173ffffffffffffffffffffffffffffffffffffffff16906370a082319060240160206040518083038186803b15801561480b57600080fd5b505afa15801561481f573d6000803e3d6000fd5b505050506040513d601f19601f8201168201806040525081019061484391906152e3565b61484d91906151a1565b905080821061487f5760025461487a9073ffffffffffffffffffffffffffffffffffffffff168483613e92565b505050565b811561487a5760025461487a9073ffffffffffffffffffffffffffffffffffffffff168484613e92565b606060408251106148ce57818060200190518101906148c89190615357565b92915050565b815160201415614a5e5760005b60208160ff161080156149285750828160ff16815181106148fe576148fe61510a565b01602001517fff000000000000000000000000000000000000000000000000000000000000001615155b1561493f578061493781615417565b9150506148db565b60008160ff1667ffffffffffffffff81111561495d5761495d615297565b6040519080825280601f01601f191660200182016040528015614987576020820181803683370190505b509050600091505b60208260ff161080156149dc5750838260ff16815181106149b2576149b261510a565b01602001517fff000000000000000000000000000000000000000000000000000000000000001615155b15614a5757838260ff16815181106149f6576149f661510a565b602001015160f81c60f81b818360ff1681518110614a1657614a1661510a565b60200101907effffffffffffffffffffffffffffffffffffffffffffffffffffffffffffff1916908160001a90535081614a4f81615417565b92505061498f565b9392505050565b505060408051808201909152600381527f3f3f3f0000000000000000000000000000000000000000000000000000000000602082015290565b919050565b6040805173ffffffffffffffffffffffffffffffffffffffff85811660248301528481166044830152606480830185905283518084039091018152608490920183526020820180517bffffffffffffffffffffffffffffffffffffffffffffffffffffffff167f23b872dd000000000000000000000000000000000000000000000000000000001790529151600092839290881691614b3b91906152fc565b6000604051808303816000865af19150503d8060008114614b78576040519150601f19603f3d011682016040523d82523d6000602084013e614b7d565b606091505b5091509150818015614ba7575080511580614ba7575080806020019051810190614ba79190615318565b611f67576040517f08c379a000000000000000000000000000000000000000000000000000000000815260206004820181905260248201527f426f72696e6745524332303a205472616e7366657246726f6d206661696c65646044820152606401610814565b828054828255906000526020600020908101928215614c85579160200282015b82811115614c855781547fffffffffffffffffffffffff00000000000000000000000000000000000000001673ffffffffffffffffffffffffffffffffffffffff843516178255602090920191600190910190614c2d565b50614c91929150614d0f565b5090565b828054828255906000526020600020908101928215614c85579160200282015b82811115614c8557825182547fffffffffffffffffffffffff00000000000000000000000000000000000000001673ffffffffffffffffffffffffffffffffffffffff909116178255602090920191600190910190614cb5565b5b80821115614c915760008155600101614d10565b600060208284031215614d3657600080fd5b5035919050565b803561ffff81168114614a9757600080fd5b60008083601f840112614d6157600080fd5b50813567ffffffffffffffff811115614d7957600080fd5b6020830191508360208260051b8501011115614d9457600080fd5b9250929050565b60008060008060008060a08789031215614db457600080fd5b8635955060208701359450614dcb60408801614d3d565b935060608701359250608087013567ffffffffffffffff811115614dee57600080fd5b614dfa89828a01614d4f565b979a9699509497509295939492505050565b73ffffffffffffffffffffffffffffffffffffffff81168114611f8957600080fd5b60008060408385031215614e4157600080fd5b823591506020830135614e5381614e0c565b809150509250929050565b600060208284031215614e7057600080fd5b8135614a5781614e0c565b60008060408385031215614e8e57600080fd5b50508035926020909101359150565b600081518084526020808501945080840160005b83811015614ee357815173ffffffffffffffffffffffffffffffffffffffff1687529582019590820190600101614eb1565b509495945050505050565b60005b83811015614f09578181015183820152602001614ef1565b83811115613e8c5750506000910152565b600081518084526020808501945080840160005b83811015614ee357815187529582019590820190600101614f2e565b608081526000614f5d6080830187614e9d565b6020838203818501528187518084528284019150828160051b850101838a0160005b83811015614fe3577fffffffffffffffffffffffffffffffffffffffffffffffffffffffffffffffe08088850301865282518051808652614fc5818a88018b8501614eee565b96880196601f01909116939093018601925090850190600101614f7f565b50508681036040880152614ff7818a614f1a565b945050505050828103606084015261500f8185614f1a565b979650505050505050565b60008060008060008060a0878903121561503357600080fd5b86359550602087013561504581614e0c565b9450614dcb60408801614d3d565b60ff81168114611f8957600080fd5b60008060008060008060c0878903121561507b57600080fd5b863595506020870135945060408701359350606087013561509b81615053565b9598949750929560808101359460a0909101359350915050565b600080602083850312156150c857600080fd5b823567ffffffffffffffff8111156150df57600080fd5b6150eb85828601614d4f565b90969095509350505050565b602081526000614a576020830184614e9d565b7f4e487b7100000000000000000000000000000000000000000000000000000000600052603260045260246000fd5b7f4e487b7100000000000000000000000000000000000000000000000000000000600052601160045260246000fd5b60007fffffffffffffffffffffffffffffffffffffffffffffffffffffffffffffffff82141561519a5761519a615139565b5060010190565b6000828210156151b3576151b3615139565b500390565b600082198211156151cb576151cb615139565b500190565b60008184825b858110156152145781356151e981614e0c565b73ffffffffffffffffffffffffffffffffffffffff16835260209283019291909101906001016151d6565b509095945050505050565b6000817fffffffffffffffffffffffffffffffffffffffffffffffffffffffffffffffff048311821515161561525757615257615139565b500290565b600082615292577f4e487b7100000000000000000000000000000000000000000000000000000000600052601260045260246000fd5b500490565b7f4e487b7100000000000000000000000000000000000000000000000000000000600052604160045260246000fd5b6000602082840312156152d857600080fd5b8151614a5781614e0c565b6000602082840312156152f557600080fd5b5051919050565b6000825161530e818460208701614eee565b9190910192915050565b60006020828403121561532a57600080fd5b81518015158114614a5757600080fd5b60006020828403121561534c57600080fd5b8151614a5781615053565b60006020828403121561536957600080fd5b815167ffffffffffffffff8082111561538157600080fd5b818401915084601f83011261539557600080fd5b8151818111156153a7576153a7615297565b604051601f82017fffffffffffffffffffffffffffffffffffffffffffffffffffffffffffffffe0908116603f011681019083821181831017156153ed576153ed615297565b8160405282815287602084870101111561540657600080fd5b61500f836020830160208801614eee565b600060ff821660ff81141561542e5761542e615139565b6001019291505056fea2646970667358221220ae4beffb3f7ceb38ce057eb7ddc15d78f2ed90682803def65371fdacc85885fa64736f6c63430008090033",
  "linkReferences": {},
  "deployedLinkReferences": {}
}