{
  "_format": "hh-sol-artifact-1",
  "contractName": "FixedSpreadLiquidationStrategy",
  "sourceName": "contracts/stablecoin/core/liquidation-strategies/FixedSpreadLiquidationStrategy.sol",
  "abi": [
    {
      "anonymous": false,
      "inputs": [
        {
          "indexed": true,
          "internalType": "bytes32",
          "name": "_collateralPoolId",
          "type": "bytes32"
        },
        {
          "indexed": false,
          "internalType": "uint256",
          "name": "_positionDebtShare",
          "type": "uint256"
        },
        {
          "indexed": false,
          "internalType": "uint256",
          "name": "_positionCollateralAmount",
          "type": "uint256"
        },
        {
          "indexed": true,
          "internalType": "address",
          "name": "_positionAddress",
          "type": "address"
        },
        {
          "indexed": false,
          "internalType": "uint256",
          "name": "_debtShareToBeLiquidated",
          "type": "uint256"
        },
        {
          "indexed": false,
          "internalType": "uint256",
          "name": "_maxDebtShareToBeLiquidated",
          "type": "uint256"
        },
        {
          "indexed": true,
          "internalType": "address",
          "name": "_liquidatorAddress",
          "type": "address"
        },
        {
          "indexed": false,
          "internalType": "address",
          "name": "_collateralRecipient",
          "type": "address"
        },
        {
          "indexed": false,
          "internalType": "uint256",
          "name": "_actualDebtShareToBeLiquidated",
          "type": "uint256"
        },
        {
          "indexed": false,
          "internalType": "uint256",
          "name": "_actualDebtValueToBeLiquidated",
          "type": "uint256"
        },
        {
          "indexed": false,
          "internalType": "uint256",
          "name": "_collateralAmountToBeLiquidated",
          "type": "uint256"
        },
        {
          "indexed": false,
          "internalType": "uint256",
          "name": "_treasuryFees",
          "type": "uint256"
        }
      ],
      "name": "LogFixedSpreadLiquidate",
      "type": "event"
    },
    {
      "anonymous": false,
      "inputs": [
        {
          "indexed": true,
          "internalType": "address",
          "name": "caller",
          "type": "address"
        },
        {
          "indexed": false,
          "internalType": "uint256",
          "name": "_flashLendingEnabled",
          "type": "uint256"
        }
      ],
      "name": "LogSetFlashLendingEnabled",
      "type": "event"
    },
    {
      "anonymous": false,
      "inputs": [
        {
          "indexed": false,
          "internalType": "address",
          "name": "account",
          "type": "address"
        }
      ],
      "name": "Paused",
      "type": "event"
    },
    {
      "anonymous": false,
      "inputs": [
        {
          "indexed": false,
          "internalType": "address",
          "name": "account",
          "type": "address"
        }
      ],
      "name": "Unpaused",
      "type": "event"
    },
    {
      "inputs": [],
      "name": "bookKeeper",
      "outputs": [
        {
          "internalType": "contract IBookKeeper",
          "name": "",
          "type": "address"
        }
      ],
      "stateMutability": "view",
      "type": "function"
    },
    {
      "inputs": [
        {
          "internalType": "bytes32",
          "name": "_collateralPoolId",
          "type": "bytes32"
        },
        {
          "internalType": "uint256",
          "name": "_positionDebtShare",
          "type": "uint256"
        },
        {
          "internalType": "uint256",
          "name": "_positionCollateralAmount",
          "type": "uint256"
        },
        {
          "internalType": "address",
          "name": "_positionAddress",
          "type": "address"
        },
        {
          "internalType": "uint256",
          "name": "_debtShareToBeLiquidated",
          "type": "uint256"
        },
        {
          "internalType": "uint256",
          "name": "_maxDebtShareToBeLiquidated",
          "type": "uint256"
        },
        {
          "internalType": "address",
          "name": "_liquidatorAddress",
          "type": "address"
        },
        {
          "internalType": "address",
          "name": "_collateralRecipient",
          "type": "address"
        },
        {
          "internalType": "bytes",
          "name": "_data",
          "type": "bytes"
        }
      ],
      "name": "execute",
      "outputs": [],
      "stateMutability": "nonpayable",
      "type": "function"
    },
    {
      "inputs": [],
      "name": "flashLendingEnabled",
      "outputs": [
        {
          "internalType": "uint256",
          "name": "",
          "type": "uint256"
        }
      ],
      "stateMutability": "view",
      "type": "function"
    },
    {
      "inputs": [
        {
          "internalType": "address",
          "name": "_bookKeeper",
          "type": "address"
        },
        {
          "internalType": "address",
          "name": "_priceOracle",
          "type": "address"
        },
        {
          "internalType": "address",
          "name": "_liquidationEngine",
          "type": "address"
        },
        {
          "internalType": "address",
          "name": "_systemDebtEngine",
          "type": "address"
        }
      ],
      "name": "initialize",
      "outputs": [],
      "stateMutability": "nonpayable",
      "type": "function"
    },
    {
      "inputs": [],
      "name": "liquidationEngine",
      "outputs": [
        {
          "internalType": "contract ILiquidationEngine",
          "name": "",
          "type": "address"
        }
      ],
      "stateMutability": "view",
      "type": "function"
    },
    {
      "inputs": [],
      "name": "pause",
      "outputs": [],
      "stateMutability": "nonpayable",
      "type": "function"
    },
    {
      "inputs": [],
      "name": "paused",
      "outputs": [
        {
          "internalType": "bool",
          "name": "",
          "type": "bool"
        }
      ],
      "stateMutability": "view",
      "type": "function"
    },
    {
      "inputs": [],
      "name": "priceOracle",
      "outputs": [
        {
          "internalType": "contract IPriceOracle",
          "name": "",
          "type": "address"
        }
      ],
      "stateMutability": "view",
      "type": "function"
    },
    {
      "inputs": [
        {
          "internalType": "uint256",
          "name": "_flashLendingEnabled",
          "type": "uint256"
        }
      ],
      "name": "setFlashLendingEnabled",
      "outputs": [],
      "stateMutability": "nonpayable",
      "type": "function"
    },
    {
      "inputs": [],
      "name": "systemDebtEngine",
      "outputs": [
        {
          "internalType": "contract ISystemDebtEngine",
          "name": "",
          "type": "address"
        }
      ],
      "stateMutability": "view",
      "type": "function"
    },
    {
      "inputs": [],
      "name": "unpause",
      "outputs": [],
      "stateMutability": "nonpayable",
      "type": "function"
    }
  ],
  "bytecode": "0x608060405234801561001057600080fd5b506137bc806100206000396000f3fe608060405234801561001057600080fd5b50600436106100c95760003560e01c80635c975abb11610081578063e3b3932a1161005b578063e3b3932a1461014b578063f79b9f4a14610153578063f8c8765e14610166576100c9565b80635c975abb146101195780638456cb591461012e578063df1a4b7314610136576100c9565b806328e49a42116100b257806328e49a42146101015780633f4ba83a1461010957806344bf3c7214610111576100c9565b806316d8d291146100ce5780632630c12f146100e3575b600080fd5b6100e16100dc366004612e46565b610179565b005b6100eb610d0b565b6040516100f89190612f35565b60405180910390f35b6100eb610d27565b6100e1610d43565b6100eb61103f565b61012161105b565b6040516100f891906130a1565b6100e1611064565b61013e61135d565b6040516100f891906130ac565b6100eb611363565b6100e1610161366004612f1d565b61137f565b6100e1610174366004612d88565b6116b3565b600260655414156101bf576040517f08c379a00000000000000000000000000000000000000000000000000000000081526004016101b69061366d565b60405180910390fd5b60026065556101cc61105b565b15610203576040517f08c379a00000000000000000000000000000000000000000000000000000000081526004016101b69061333d565b609760009054906101000a900473ffffffffffffffffffffffffffffffffffffffff1673ffffffffffffffffffffffffffffffffffffffff1663c8cc243f6040518163ffffffff1660e01b815260040160206040518083038186803b15801561026b57600080fd5b505afa15801561027f573d6000803e3d6000fd5b505050506040513d601f19601f820116820180604052508101906102a39190612d6c565b73ffffffffffffffffffffffffffffffffffffffff166391d148547f73cc1824a5ac1764c2e141cf3615a9dcb73677c4e5be5154addc88d3e0cc1480336040518363ffffffff1660e01b81526004016102fd9291906130b5565b60206040518083038186803b15801561031557600080fd5b505afa158015610329573d6000803e3d6000fd5b505050506040513d601f19601f8201168201806040525081019061034d9190612de3565b610383576040517f08c379a00000000000000000000000000000000000000000000000000000000081526004016101b69061351f565b600089116103bd576040517f08c379a00000000000000000000000000000000000000000000000000000000081526004016101b6906135b3565b600088116103f7576040517f08c379a00000000000000000000000000000000000000000000000000000000081526004016101b6906134c2565b73ffffffffffffffffffffffffffffffffffffffff8716610444576040517f08c379a00000000000000000000000000000000000000000000000000000000081526004016101b6906131ef565b600061044f8b611abd565b90506000811161048b576040517f08c379a00000000000000000000000000000000000000000000000000000000081526004016101b6906133d1565b610493612cf1565b6104a08c89848d8f611d6a565b9050868160a0015111156104e0576040517f08c379a00000000000000000000000000000000000000000000000000000000081526004016101b69061324c565b7f80000000000000000000000000000000000000000000000000000000000000008160c0015110801561053657507f80000000000000000000000000000000000000000000000000000000000000008160a00151105b61056c576040517f08c379a00000000000000000000000000000000000000000000000000000000081526004016101b690613556565b609760009054906101000a900473ffffffffffffffffffffffffffffffffffffffff1673ffffffffffffffffffffffffffffffffffffffff1663b1df25948d8b30609960009054906101000a900473ffffffffffffffffffffffffffffffffffffffff168660c001516000038760a001516000036040518763ffffffff1660e01b8152600401610601969594939291906130d9565b600060405180830381600087803b15801561061b57600080fd5b505af115801561062f573d6000803e3d6000fd5b505050506000609760009054906101000a900473ffffffffffffffffffffffffffffffffffffffff1673ffffffffffffffffffffffffffffffffffffffff1663d86824616040518163ffffffff1660e01b815260040160206040518083038186803b15801561069d57600080fd5b505afa1580156106b1573d6000803e3d6000fd5b505050506040513d601f19601f820116820180604052508101906106d59190612d6c565b73ffffffffffffffffffffffffffffffffffffffff16638272e1388e6040518263ffffffff1660e01b815260040161070d91906130ac565b60206040518083038186803b15801561072557600080fd5b505afa158015610739573d6000803e3d6000fd5b505050506040513d601f19601f8201168201806040525081019061075d9190612d6c565b90508073ffffffffffffffffffffffffffffffffffffffff1663994436168b308560c001516000604051602001610794919061314d565b6040516020818303038152906040526040518563ffffffff1660e01b81526004016107c29493929190612fff565b600060405180830381600087803b1580156107dc57600080fd5b505af11580156107f0573d6000803e3d6000fd5b50505050609760009054906101000a900473ffffffffffffffffffffffffffffffffffffffff1673ffffffffffffffffffffffffffffffffffffffff1663b5d993298e30896108508760e001518860c0015161255b90919063ffffffff16565b6040518563ffffffff1660e01b815260040161086f949392919061311b565b600060405180830381600087803b15801561088957600080fd5b505af115801561089d573d6000803e3d6000fd5b505050508073ffffffffffffffffffffffffffffffffffffffff16639944361630886108da8660e001518760c0015161255b90919063ffffffff16565b60006040516020016108ec919061314d565b6040516020818303038152906040526040518563ffffffff1660e01b815260040161091a9493929190612fff565b600060405180830381600087803b15801561093457600080fd5b505af1158015610948573d6000803e3d6000fd5b5050505060e082015115610aae57609760009054906101000a900473ffffffffffffffffffffffffffffffffffffffff1673ffffffffffffffffffffffffffffffffffffffff1663b5d993298e30609960009054906101000a900473ffffffffffffffffffffffffffffffffffffffff168660e001516040518563ffffffff1660e01b81526004016109dd949392919061311b565b600060405180830381600087803b1580156109f757600080fd5b505af1158015610a0b573d6000803e3d6000fd5b505060995460e085015160405173ffffffffffffffffffffffffffffffffffffffff8087169550639944361694503093169190610a4d9060009060200161314d565b6040516020818303038152906040526040518563ffffffff1660e01b8152600401610a7b9493929190612fff565b600060405180830381600087803b158015610a9557600080fd5b505af1158015610aa9573d6000803e3d6000fd5b505050505b609b546001148015610abf57508315155b8015610ae6575060975473ffffffffffffffffffffffffffffffffffffffff878116911614155b8015610b0d575060985473ffffffffffffffffffffffffffffffffffffffff878116911614155b15610ba4578573ffffffffffffffffffffffffffffffffffffffff1663af7bd142338460800151610b4f8660e001518760c0015161255b90919063ffffffff16565b89896040518663ffffffff1660e01b8152600401610b71959493929190612f56565b600060405180830381600087803b158015610b8b57600080fd5b505af1158015610b9f573d6000803e3d6000fd5b505050505b60975460995460808401516040517f8c15785400000000000000000000000000000000000000000000000000000000815273ffffffffffffffffffffffffffffffffffffffff93841693638c15785493610c07938d939290911691600401612fce565b600060405180830381600087803b158015610c2157600080fd5b505af1158015610c35573d6000803e3d6000fd5b505050508b8260000181815250508a82602001818152505088826040018181525050878260600181815250508673ffffffffffffffffffffffffffffffffffffffff168a73ffffffffffffffffffffffffffffffffffffffff168e7f498293dc3e787b3f04a320f39b6d8853b395dbbccb2abadfb92ec74a01f1338185600001518660200151876040015188606001518d8a60a001518b608001518c60c001518d60e00151604051610cef99989796959493929190613701565b60405180910390a4505060016065555050505050505050505050565b609a5473ffffffffffffffffffffffffffffffffffffffff1681565b60995473ffffffffffffffffffffffffffffffffffffffff1681565b609754604080517fc8cc243f000000000000000000000000000000000000000000000000000000008152905160009273ffffffffffffffffffffffffffffffffffffffff169163c8cc243f916004808301926020929190829003018186803b158015610dae57600080fd5b505afa158015610dc2573d6000803e3d6000fd5b505050506040513d601f19601f82011682018060405250810190610de69190612d6c565b90508073ffffffffffffffffffffffffffffffffffffffff166391d148548273ffffffffffffffffffffffffffffffffffffffff1663e58378bb6040518163ffffffff1660e01b815260040160206040518083038186803b158015610e4a57600080fd5b505afa158015610e5e573d6000803e3d6000fd5b505050506040513d601f19601f82011682018060405250810190610e829190612dff565b336040518363ffffffff1660e01b8152600401610ea09291906130b5565b60206040518083038186803b158015610eb857600080fd5b505afa158015610ecc573d6000803e3d6000fd5b505050506040513d601f19601f82011682018060405250810190610ef09190612de3565b80610ffe57508073ffffffffffffffffffffffffffffffffffffffff166391d148548273ffffffffffffffffffffffffffffffffffffffff1663b536818a6040518163ffffffff1660e01b815260040160206040518083038186803b158015610f5857600080fd5b505afa158015610f6c573d6000803e3d6000fd5b505050506040513d601f19601f82011682018060405250810190610f909190612dff565b336040518363ffffffff1660e01b8152600401610fae9291906130b5565b60206040518083038186803b158015610fc657600080fd5b505afa158015610fda573d6000803e3d6000fd5b505050506040513d601f19601f82011682018060405250810190610ffe9190612de3565b611034576040517f08c379a00000000000000000000000000000000000000000000000000000000081526004016101b69061348b565b61103c6125a2565b50565b60985473ffffffffffffffffffffffffffffffffffffffff1681565b60335460ff1690565b609754604080517fc8cc243f000000000000000000000000000000000000000000000000000000008152905160009273ffffffffffffffffffffffffffffffffffffffff169163c8cc243f916004808301926020929190829003018186803b1580156110cf57600080fd5b505afa1580156110e3573d6000803e3d6000fd5b505050506040513d601f19601f820116820180604052508101906111079190612d6c565b90508073ffffffffffffffffffffffffffffffffffffffff166391d148548273ffffffffffffffffffffffffffffffffffffffff1663e58378bb6040518163ffffffff1660e01b815260040160206040518083038186803b15801561116b57600080fd5b505afa15801561117f573d6000803e3d6000fd5b505050506040513d601f19601f820116820180604052508101906111a39190612dff565b336040518363ffffffff1660e01b81526004016111c19291906130b5565b60206040518083038186803b1580156111d957600080fd5b505afa1580156111ed573d6000803e3d6000fd5b505050506040513d601f19601f820116820180604052508101906112119190612de3565b8061131f57508073ffffffffffffffffffffffffffffffffffffffff166391d148548273ffffffffffffffffffffffffffffffffffffffff1663b536818a6040518163ffffffff1660e01b815260040160206040518083038186803b15801561127957600080fd5b505afa15801561128d573d6000803e3d6000fd5b505050506040513d601f19601f820116820180604052508101906112b19190612dff565b336040518363ffffffff1660e01b81526004016112cf9291906130b5565b60206040518083038186803b1580156112e757600080fd5b505afa1580156112fb573d6000803e3d6000fd5b505050506040513d601f19601f8201168201806040525081019061131f9190612de3565b611355576040517f08c379a00000000000000000000000000000000000000000000000000000000081526004016101b69061348b565b61103c612648565b609b5481565b60975473ffffffffffffffffffffffffffffffffffffffff1681565b609754604080517fc8cc243f000000000000000000000000000000000000000000000000000000008152905160009273ffffffffffffffffffffffffffffffffffffffff169163c8cc243f916004808301926020929190829003018186803b1580156113ea57600080fd5b505afa1580156113fe573d6000803e3d6000fd5b505050506040513d601f19601f820116820180604052508101906114229190612d6c565b90508073ffffffffffffffffffffffffffffffffffffffff166391d148548273ffffffffffffffffffffffffffffffffffffffff1663e58378bb6040518163ffffffff1660e01b815260040160206040518083038186803b15801561148657600080fd5b505afa15801561149a573d6000803e3d6000fd5b505050506040513d601f19601f820116820180604052508101906114be9190612dff565b336040518363ffffffff1660e01b81526004016114dc9291906130b5565b60206040518083038186803b1580156114f457600080fd5b505afa158015611508573d6000803e3d6000fd5b505050506040513d601f19601f8201168201806040525081019061152c9190612de3565b8061163a57508073ffffffffffffffffffffffffffffffffffffffff166391d148548273ffffffffffffffffffffffffffffffffffffffff1663b536818a6040518163ffffffff1660e01b815260040160206040518083038186803b15801561159457600080fd5b505afa1580156115a8573d6000803e3d6000fd5b505050506040513d601f19601f820116820180604052508101906115cc9190612dff565b336040518363ffffffff1660e01b81526004016115ea9291906130b5565b60206040518083038186803b15801561160257600080fd5b505afa158015611616573d6000803e3d6000fd5b505050506040513d601f19601f8201168201806040525081019061163a9190612de3565b611670576040517f08c379a00000000000000000000000000000000000000000000000000000000081526004016101b69061348b565b609b82905560405133907f684f8e172a780a0039365d294d89561032ab348a858ed68283e8f531a2298107906116a79085906130ac565b60405180910390a25050565b600054610100900460ff16806116cc57506116cc6126db565b806116da575060005460ff16155b611710576040517f08c379a00000000000000000000000000000000000000000000000000000000081526004016101b690613374565b600054610100900460ff1615801561177657600080547fffffffffffffffffffffffffffffffffffffffffffffffffffffffffffffff007fffffffffffffffffffffffffffffffffffffffffffffffffffffffffffff00ff909116610100171660011790555b61177e6126ec565b6117866127f0565b8473ffffffffffffffffffffffffffffffffffffffff16636f3a3bfc6040518163ffffffff1660e01b8152600401602060405180830381600087803b1580156117ce57600080fd5b505af11580156117e2573d6000803e3d6000fd5b505050506040513d601f19601f820116820180604052508101906118069190612dff565b5084609760006101000a81548173ffffffffffffffffffffffffffffffffffffffff021916908373ffffffffffffffffffffffffffffffffffffffff1602179055508373ffffffffffffffffffffffffffffffffffffffff16639d1eea786040518163ffffffff1660e01b815260040160206040518083038186803b15801561188e57600080fd5b505afa1580156118a2573d6000803e3d6000fd5b505050506040513d601f19601f820116820180604052508101906118c69190612dff565b5083609a60006101000a81548173ffffffffffffffffffffffffffffffffffffffff021916908373ffffffffffffffffffffffffffffffffffffffff1602179055508273ffffffffffffffffffffffffffffffffffffffff1663957aa58c6040518163ffffffff1660e01b815260040160206040518083038186803b15801561194e57600080fd5b505afa158015611962573d6000803e3d6000fd5b505050506040513d601f19601f820116820180604052508101906119869190612dff565b5082609860006101000a81548173ffffffffffffffffffffffffffffffffffffffff021916908373ffffffffffffffffffffffffffffffffffffffff1602179055508173ffffffffffffffffffffffffffffffffffffffff16632a608d5b6040518163ffffffff1660e01b815260040160206040518083038186803b158015611a0e57600080fd5b505afa158015611a22573d6000803e3d6000fd5b505050506040513d601f19601f82011682018060405250810190611a469190612dff565b50609980547fffffffffffffffffffffffff00000000000000000000000000000000000000001673ffffffffffffffffffffffffffffffffffffffff84161790558015611ab657600080547fffffffffffffffffffffffffffffffffffffffffffffffffffffffffffff00ff1690555b5050505050565b600080609760009054906101000a900473ffffffffffffffffffffffffffffffffffffffff1673ffffffffffffffffffffffffffffffffffffffff1663d86824616040518163ffffffff1660e01b815260040160206040518083038186803b158015611b2857600080fd5b505afa158015611b3c573d6000803e3d6000fd5b505050506040513d601f19601f82011682018060405250810190611b609190612d6c565b73ffffffffffffffffffffffffffffffffffffffff16638c0adf62846040518263ffffffff1660e01b8152600401611b9891906130ac565b60206040518083038186803b158015611bb057600080fd5b505afa158015611bc4573d6000803e3d6000fd5b505050506040513d601f19601f82011682018060405250810190611be89190612d6c565b905060008190506000808273ffffffffffffffffffffffffffffffffffffffff1663140d27206040518163ffffffff1660e01b8152600401604080518083038186803b158015611c3757600080fd5b505afa158015611c4b573d6000803e3d6000fd5b505050506040513d601f19601f82011682018060405250810190611c6f9190612e17565b9150915080611caa576040517f08c379a00000000000000000000000000000000000000000000000000000000081526004016101b6906136a4565b611d60611cbb83633b9aca006128bb565b609a60009054906101000a900473ffffffffffffffffffffffffffffffffffffffff1673ffffffffffffffffffffffffffffffffffffffff16639d1eea786040518163ffffffff1660e01b815260040160206040518083038186803b158015611d2357600080fd5b505afa158015611d37573d6000803e3d6000fd5b505050506040513d601f19601f82011682018060405250810190611d5b9190612dff565b6128df565b9695505050505050565b611d72612cf1565b611d7a612d3d565b609760009054906101000a900473ffffffffffffffffffffffffffffffffffffffff1673ffffffffffffffffffffffffffffffffffffffff1663d86824616040518163ffffffff1660e01b815260040160206040518083038186803b158015611de257600080fd5b505afa158015611df6573d6000803e3d6000fd5b505050506040513d601f19601f82011682018060405250810190611e1a9190612d6c565b73ffffffffffffffffffffffffffffffffffffffff1663a09b0fe0886040518263ffffffff1660e01b8152600401611e5291906130ac565b60206040518083038186803b158015611e6a57600080fd5b505afa158015611e7e573d6000803e3d6000fd5b505050506040513d601f19601f82011682018060405250810190611ea29190612dff565b8152609754604080517fd8682461000000000000000000000000000000000000000000000000000000008152905173ffffffffffffffffffffffffffffffffffffffff9092169163d868246191600480820192602092909190829003018186803b158015611f0f57600080fd5b505afa158015611f23573d6000803e3d6000fd5b505050506040513d601f19601f82011682018060405250810190611f479190612d6c565b73ffffffffffffffffffffffffffffffffffffffff1663e73bbc79886040518263ffffffff1660e01b8152600401611f7f91906130ac565b60206040518083038186803b158015611f9757600080fd5b505afa158015611fab573d6000803e3d6000fd5b505050506040513d601f19601f82011682018060405250810190611fcf9190612dff565b602080830191909152609754604080517fd8682461000000000000000000000000000000000000000000000000000000008152905173ffffffffffffffffffffffffffffffffffffffff9092169263d868246192600480840193829003018186803b15801561203d57600080fd5b505afa158015612051573d6000803e3d6000fd5b505050506040513d601f19601f820116820180604052508101906120759190612d6c565b73ffffffffffffffffffffffffffffffffffffffff16630ec057e5886040518263ffffffff1660e01b81526004016120ad91906130ac565b60206040518083038186803b1580156120c557600080fd5b505afa1580156120d9573d6000803e3d6000fd5b505050506040513d601f19601f820116820180604052508101906120fd9190612dff565b60408083019190915260975481517fd8682461000000000000000000000000000000000000000000000000000000008152915173ffffffffffffffffffffffffffffffffffffffff9091169163d8682461916004808301926020929190829003018186803b15801561216e57600080fd5b505afa158015612182573d6000803e3d6000fd5b505050506040513d601f19601f820116820180604052508101906121a69190612d6c565b73ffffffffffffffffffffffffffffffffffffffff16639c1985d5886040518263ffffffff1660e01b81526004016121de91906130ac565b60206040518083038186803b1580156121f657600080fd5b505afa15801561220a573d6000803e3d6000fd5b505050506040513d601f19601f8201168201806040525081019061222e9190612dff565b6060820152609754604080517fd8682461000000000000000000000000000000000000000000000000000000008152905173ffffffffffffffffffffffffffffffffffffffff9092169163d868246191600480820192602092909190829003018186803b15801561229e57600080fd5b505afa1580156122b2573d6000803e3d6000fd5b505050506040513d601f19601f820116820180604052508101906122d69190612d6c565b73ffffffffffffffffffffffffffffffffffffffff166373a4f962886040518263ffffffff1660e01b815260040161230e91906130ac565b60206040518083038186803b15801561232657600080fd5b505afa15801561233a573d6000803e3d6000fd5b505050506040513d601f19601f8201168201806040525081019061235e9190612dff565b60808201528051600090612373908590612940565b905060008260200151116123b3576040517f08c379a00000000000000000000000000000000000000000000000000000000081526004016101b690613192565b6123d66127106123d084602001518761294090919063ffffffff16565b9061299b565b610100840181905287116123ea57866123f1565b8261010001515b60a0840181905282516124049190612940565b6080840181905260408301516000916124289189916123d091612710918391612940565b9050858111806124595750608084015161244390839061255b565b61245788612451898561255b565b90612940565b105b156124885760c08401869052604083015161247e906123d06127106124518b8b612940565b60808501526124e7565b8360800151821180156124ad5750606083015160808501516124ab90849061255b565b105b156124df576080840182905260408301516124d59088906123d0906127109082908790612940565b60c08501526124e7565b60c084018190525b825160808501516124f79161299b565b60a0850152604083015160c08501516000916125299161251e91906123d090612710612940565b60c08701519061255b565b90506125486127106123d086608001518461294090919063ffffffff16565b60e0860152509298975050505050505050565b600082821115612597576040517f08c379a00000000000000000000000000000000000000000000000000000000081526004016101b6906132cf565b508082035b92915050565b6125aa61105b565b6125e0576040517f08c379a00000000000000000000000000000000000000000000000000000000081526004016101b69061315b565b603380547fffffffffffffffffffffffffffffffffffffffffffffffffffffffffffffff001690557f5db9ee0a495bf2e6ff9c91a7834c1ba4fdd244a5e8aa4e537bd38aeae4b073aa6126316129df565b60405161263e9190612f35565b60405180910390a1565b61265061105b565b15612687576040517f08c379a00000000000000000000000000000000000000000000000000000000081526004016101b69061333d565b603380547fffffffffffffffffffffffffffffffffffffffffffffffffffffffffffffff001660011790557f62e78cea01bee320cd4e420270b5ea74000d11b0c9f74754ebdbfc544b05a2586126316129df565b60006126e6306129e3565b15905090565b600054610100900460ff168061270557506127056126db565b80612713575060005460ff16155b612749576040517f08c379a00000000000000000000000000000000000000000000000000000000081526004016101b690613374565b600054610100900460ff161580156127af57600080547fffffffffffffffffffffffffffffffffffffffffffffffffffffffffffffff007fffffffffffffffffffffffffffffffffffffffffffffffffffffffffffff00ff909116610100171660011790555b6127b76129e9565b6127bf612adc565b801561103c57600080547fffffffffffffffffffffffffffffffffffffffffffffffffffffffffffff00ff16905550565b600054610100900460ff168061280957506128096126db565b80612817575060005460ff16155b61284d576040517f08c379a00000000000000000000000000000000000000000000000000000000081526004016101b690613374565b600054610100900460ff161580156128b357600080547fffffffffffffffffffffffffffffffffffffffffffffffffffffffffffffff007fffffffffffffffffffffffffffffffffffffffffffffffffffffffffffff00ff909116610100171660011790555b6127bf612bf8565b60008115806128d6575050808202828282816128d357fe5b04145b61259c57600080fd5b600080821161291a576040517f08c379a00000000000000000000000000000000000000000000000000000000081526004016101b690613610565b81612931846b033b2e3c9fd0803ce80000006128bb565b8161293857fe5b049392505050565b60008261294f5750600061259c565b8282028284828161295c57fe5b0414612994576040517f08c379a00000000000000000000000000000000000000000000000000000000081526004016101b69061342e565b9392505050565b60008082116129d6576040517f08c379a00000000000000000000000000000000000000000000000000000000081526004016101b690613306565b81838161293857fe5b3390565b3b151590565b600054610100900460ff1680612a025750612a026126db565b80612a10575060005460ff16155b612a46576040517f08c379a00000000000000000000000000000000000000000000000000000000081526004016101b690613374565b600054610100900460ff161580156127bf57600080547fffffffffffffffffffffffffffffffffffffffffffffffffffffffffffffff007fffffffffffffffffffffffffffffffffffffffffffffffffffffffffffff00ff90911661010017166001179055801561103c57600080547fffffffffffffffffffffffffffffffffffffffffffffffffffffffffffff00ff16905550565b600054610100900460ff1680612af55750612af56126db565b80612b03575060005460ff16155b612b39576040517f08c379a00000000000000000000000000000000000000000000000000000000081526004016101b690613374565b600054610100900460ff16158015612b9f57600080547fffffffffffffffffffffffffffffffffffffffffffffffffffffffffffffff007fffffffffffffffffffffffffffffffffffffffffffffffffffffffffffff00ff909116610100171660011790555b603380547fffffffffffffffffffffffffffffffffffffffffffffffffffffffffffffff00169055801561103c57600080547fffffffffffffffffffffffffffffffffffffffffffffffffffffffffffff00ff16905550565b600054610100900460ff1680612c115750612c116126db565b80612c1f575060005460ff16155b612c55576040517f08c379a00000000000000000000000000000000000000000000000000000000081526004016101b690613374565b600054610100900460ff16158015612cbb57600080547fffffffffffffffffffffffffffffffffffffffffffffffffffffffffffffff007fffffffffffffffffffffffffffffffffffffffffffffffffffffffffffff00ff909116610100171660011790555b6001606555801561103c57600080547fffffffffffffffffffffffffffffffffffffffffffffffffffffffffffff00ff16905550565b6040518061012001604052806000815260200160008152602001600081526020016000815260200160008152602001600081526020016000815260200160008152602001600081525090565b6040518060a0016040528060008152602001600081526020016000815260200160008152602001600081525090565b600060208284031215612d7d578081fd5b815161299481613756565b60008060008060808587031215612d9d578283fd5b8435612da881613756565b93506020850135612db881613756565b92506040850135612dc881613756565b91506060850135612dd881613756565b939692955090935050565b600060208284031215612df4578081fd5b815161299481613778565b600060208284031215612e10578081fd5b5051919050565b60008060408385031215612e29578182fd5b825191506020830151612e3b81613778565b809150509250929050565b6000806000806000806000806000806101208b8d031215612e65578586fd5b8a35995060208b0135985060408b0135975060608b0135612e8581613756565b965060808b0135955060a08b0135945060c08b0135612ea381613756565b935060e08b0135612eb381613756565b92506101008b013567ffffffffffffffff80821115612ed0578384fd5b818d0191508d601f830112612ee3578384fd5b813581811115612ef1578485fd5b8e6020828501011115612f02578485fd5b6020830194508093505050509295989b9194979a5092959850565b600060208284031215612f2e578081fd5b5035919050565b73ffffffffffffffffffffffffffffffffffffffff91909116815260200190565b600073ffffffffffffffffffffffffffffffffffffffff8716825285602083015284604083015260806060830152826080830152828460a084013781830160a090810191909152601f9092017fffffffffffffffffffffffffffffffffffffffffffffffffffffffffffffffe0160101949350505050565b73ffffffffffffffffffffffffffffffffffffffff9384168152919092166020820152604081019190915260600190565b600073ffffffffffffffffffffffffffffffffffffffff80871683526020818716818501528560408501526080606085015284519150816080850152825b828110156130595785810182015185820160a00152810161303d565b8281111561306a578360a084870101525b5050601f017fffffffffffffffffffffffffffffffffffffffffffffffffffffffffffffffe0169190910160a00195945050505050565b901515815260200190565b90815260200190565b91825273ffffffffffffffffffffffffffffffffffffffff16602082015260400190565b95865273ffffffffffffffffffffffffffffffffffffffff9485166020870152928416604086015292166060840152608083019190915260a082015260c00190565b93845273ffffffffffffffffffffffffffffffffffffffff928316602085015291166040830152606082015260800190565b60ff91909116815260200190565b60208082526014908201527f5061757361626c653a206e6f7420706175736564000000000000000000000000604082015260600190565b60208082526037908201527f46697865645370726561644c69717569646174696f6e53747261746567792f6360408201527f6c6f73652d666163746f722d6270732d6e6f742d736574000000000000000000606082015260800190565b60208082526034908201527f46697865645370726561644c69717569646174696f6e53747261746567792f7a60408201527f65726f2d706f736974696f6e2d61646472657373000000000000000000000000606082015260800190565b60208082526045908201527f46697865645370726561644c69717569646174696f6e53747261746567792f6560408201527f78636565642d6d61782d646562742d76616c75652d746f2d62652d6c6971756960608201527f6461746564000000000000000000000000000000000000000000000000000000608082015260a00190565b6020808252601e908201527f536166654d6174683a207375627472616374696f6e206f766572666c6f770000604082015260600190565b6020808252601a908201527f536166654d6174683a206469766973696f6e206279207a65726f000000000000604082015260600190565b60208082526010908201527f5061757361626c653a2070617573656400000000000000000000000000000000604082015260600190565b6020808252602e908201527f496e697469616c697a61626c653a20636f6e747261637420697320616c72656160408201527f647920696e697469616c697a6564000000000000000000000000000000000000606082015260800190565b60208082526034908201527f46697865645370726561644c69717569646174696f6e53747261746567792f7a60408201527f65726f2d636f6c6c61746572616c2d7072696365000000000000000000000000606082015260800190565b60208082526021908201527f536166654d6174683a206d756c7469706c69636174696f6e206f766572666c6f60408201527f7700000000000000000000000000000000000000000000000000000000000000606082015260800190565b60208082526017908201527f21286f776e6572526f6c65206f7220676f76526f6c6529000000000000000000604082015260600190565b60208082526035908201527f46697865645370726561644c69717569646174696f6e53747261746567792f7a60408201527f65726f2d636f6c6c61746572616c2d616d6f756e740000000000000000000000606082015260800190565b60208082526016908201527f216c69717569646174696f6e456e67696e67526f6c6500000000000000000000604082015260600190565b60208082526027908201527f46697865645370726561644c69717569646174696f6e53747261746567792f6f60408201527f766572666c6f7700000000000000000000000000000000000000000000000000606082015260800190565b60208082526028908201527f46697865645370726561644c69717569646174696f6e53747261746567792f7a60408201527f65726f2d64656274000000000000000000000000000000000000000000000000606082015260800190565b6020808252602b908201527f46697865645370726561644c69717569646174696f6e53747261746567792f7a60408201527f65726f2d64697669736f72000000000000000000000000000000000000000000606082015260800190565b6020808252601f908201527f5265656e7472616e637947756172643a207265656e7472616e742063616c6c00604082015260600190565b6020808252602c908201527f46697865645370726561644c69717569646174696f6e53747261746567792f6960408201527f6e76616c69642d70726963650000000000000000000000000000000000000000606082015260800190565b98895260208901979097526040880195909552606087019390935273ffffffffffffffffffffffffffffffffffffffff91909116608086015260a085015260c084015260e08301526101008201526101200190565b73ffffffffffffffffffffffffffffffffffffffff8116811461103c57600080fd5b801515811461103c57600080fdfea264697066735822122061b37ab5550f9728c0d28646de48abca6d89a5928764fe5da68078d77a5ab1d364736f6c634300060c0033",
  "linkReferences": {},
  "deployedLinkReferences": {}
}