{
  "_format": "hh-sol-artifact-1",
  "contractName": "BookKeeper",
  "sourceName": "contracts/stablecoin/core/BookKeeper.sol",
  "abi": [
    {
      "anonymous": false,
      "inputs": [
        {
          "indexed": true,
          "internalType": "address",
          "name": "_caller",
          "type": "address"
        },
        {
          "indexed": false,
          "internalType": "address",
          "name": "_usr",
          "type": "address"
        },
        {
          "indexed": false,
          "internalType": "int256",
          "name": "_amount",
          "type": "int256"
        }
      ],
      "name": "LogAddCollateral",
      "type": "event"
    },
    {
      "anonymous": false,
      "inputs": [
        {
          "indexed": true,
          "internalType": "address",
          "name": "_caller",
          "type": "address"
        },
        {
          "indexed": false,
          "internalType": "bytes32",
          "name": "_collateralPoolId",
          "type": "bytes32"
        },
        {
          "indexed": false,
          "internalType": "address",
          "name": "_positionAddress",
          "type": "address"
        },
        {
          "indexed": false,
          "internalType": "uint256",
          "name": "_lockedCollateral",
          "type": "uint256"
        },
        {
          "indexed": false,
          "internalType": "uint256",
          "name": "_debtShare",
          "type": "uint256"
        },
        {
          "indexed": false,
          "internalType": "int256",
          "name": "_addCollateral",
          "type": "int256"
        },
        {
          "indexed": false,
          "internalType": "int256",
          "name": "_addDebtShare",
          "type": "int256"
        }
      ],
      "name": "LogAdjustPosition",
      "type": "event"
    },
    {
      "anonymous": false,
      "inputs": [],
      "name": "LogCage",
      "type": "event"
    },
    {
      "anonymous": false,
      "inputs": [
        {
          "indexed": true,
          "internalType": "address",
          "name": "_caller",
          "type": "address"
        },
        {
          "indexed": false,
          "internalType": "bytes32",
          "name": "_collateralPoolId",
          "type": "bytes32"
        },
        {
          "indexed": false,
          "internalType": "address",
          "name": "_src",
          "type": "address"
        },
        {
          "indexed": false,
          "internalType": "address",
          "name": "_dst",
          "type": "address"
        },
        {
          "indexed": false,
          "internalType": "uint256",
          "name": "_amount",
          "type": "uint256"
        }
      ],
      "name": "LogMoveCollateral",
      "type": "event"
    },
    {
      "anonymous": false,
      "inputs": [
        {
          "indexed": true,
          "internalType": "address",
          "name": "_caller",
          "type": "address"
        },
        {
          "indexed": false,
          "internalType": "address",
          "name": "_accessControlConfig",
          "type": "address"
        }
      ],
      "name": "LogSetAccessControlConfig",
      "type": "event"
    },
    {
      "anonymous": false,
      "inputs": [
        {
          "indexed": true,
          "internalType": "address",
          "name": "_caller",
          "type": "address"
        },
        {
          "indexed": false,
          "internalType": "address",
          "name": "_collateralPoolConfig",
          "type": "address"
        }
      ],
      "name": "LogSetCollateralPoolConfig",
      "type": "event"
    },
    {
      "anonymous": false,
      "inputs": [
        {
          "indexed": true,
          "internalType": "address",
          "name": "_caller",
          "type": "address"
        },
        {
          "indexed": false,
          "internalType": "uint256",
          "name": "_totalDebtCeiling",
          "type": "uint256"
        }
      ],
      "name": "LogSetTotalDebtCeiling",
      "type": "event"
    },
    {
      "anonymous": false,
      "inputs": [],
      "name": "LogUncage",
      "type": "event"
    },
    {
      "anonymous": false,
      "inputs": [
        {
          "indexed": false,
          "internalType": "address",
          "name": "account",
          "type": "address"
        }
      ],
      "name": "Paused",
      "type": "event"
    },
    {
      "anonymous": false,
      "inputs": [
        {
          "indexed": false,
          "internalType": "address",
          "name": "account",
          "type": "address"
        }
      ],
      "name": "Unpaused",
      "type": "event"
    },
    {
      "inputs": [],
      "name": "accessControlConfig",
      "outputs": [
        {
          "internalType": "address",
          "name": "",
          "type": "address"
        }
      ],
      "stateMutability": "view",
      "type": "function"
    },
    {
      "inputs": [
        {
          "internalType": "bytes32",
          "name": "_collateralPoolId",
          "type": "bytes32"
        },
        {
          "internalType": "address",
          "name": "_stabilityFeeRecipient",
          "type": "address"
        },
        {
          "internalType": "int256",
          "name": "_debtAccumulatedRate",
          "type": "int256"
        }
      ],
      "name": "accrueStabilityFee",
      "outputs": [],
      "stateMutability": "nonpayable",
      "type": "function"
    },
    {
      "inputs": [
        {
          "internalType": "bytes32",
          "name": "_collateralPoolId",
          "type": "bytes32"
        },
        {
          "internalType": "address",
          "name": "_usr",
          "type": "address"
        },
        {
          "internalType": "int256",
          "name": "_amount",
          "type": "int256"
        }
      ],
      "name": "addCollateral",
      "outputs": [],
      "stateMutability": "nonpayable",
      "type": "function"
    },
    {
      "inputs": [
        {
          "internalType": "bytes32",
          "name": "_collateralPoolId",
          "type": "bytes32"
        },
        {
          "internalType": "address",
          "name": "_positionAddress",
          "type": "address"
        },
        {
          "internalType": "address",
          "name": "_collateralOwner",
          "type": "address"
        },
        {
          "internalType": "address",
          "name": "_stablecoinOwner",
          "type": "address"
        },
        {
          "internalType": "int256",
          "name": "_collateralValue",
          "type": "int256"
        },
        {
          "internalType": "int256",
          "name": "_debtShare",
          "type": "int256"
        }
      ],
      "name": "adjustPosition",
      "outputs": [],
      "stateMutability": "nonpayable",
      "type": "function"
    },
    {
      "inputs": [
        {
          "internalType": "address",
          "name": "toBeBlacklistedAddress",
          "type": "address"
        }
      ],
      "name": "blacklist",
      "outputs": [],
      "stateMutability": "nonpayable",
      "type": "function"
    },
    {
      "inputs": [],
      "name": "cage",
      "outputs": [],
      "stateMutability": "nonpayable",
      "type": "function"
    },
    {
      "inputs": [],
      "name": "collateralPoolConfig",
      "outputs": [
        {
          "internalType": "address",
          "name": "",
          "type": "address"
        }
      ],
      "stateMutability": "view",
      "type": "function"
    },
    {
      "inputs": [
        {
          "internalType": "bytes32",
          "name": "",
          "type": "bytes32"
        },
        {
          "internalType": "address",
          "name": "",
          "type": "address"
        }
      ],
      "name": "collateralToken",
      "outputs": [
        {
          "internalType": "uint256",
          "name": "",
          "type": "uint256"
        }
      ],
      "stateMutability": "view",
      "type": "function"
    },
    {
      "inputs": [
        {
          "internalType": "bytes32",
          "name": "_collateralPoolId",
          "type": "bytes32"
        },
        {
          "internalType": "address",
          "name": "_positionAddress",
          "type": "address"
        },
        {
          "internalType": "address",
          "name": "_collateralCreditor",
          "type": "address"
        },
        {
          "internalType": "address",
          "name": "_stablecoinDebtor",
          "type": "address"
        },
        {
          "internalType": "int256",
          "name": "_collateralAmount",
          "type": "int256"
        },
        {
          "internalType": "int256",
          "name": "_debtShare",
          "type": "int256"
        }
      ],
      "name": "confiscatePosition",
      "outputs": [],
      "stateMutability": "nonpayable",
      "type": "function"
    },
    {
      "inputs": [
        {
          "internalType": "address",
          "name": "_collateralPoolConfig",
          "type": "address"
        },
        {
          "internalType": "address",
          "name": "_accessControlConfig",
          "type": "address"
        }
      ],
      "name": "initialize",
      "outputs": [],
      "stateMutability": "nonpayable",
      "type": "function"
    },
    {
      "inputs": [],
      "name": "live",
      "outputs": [
        {
          "internalType": "uint256",
          "name": "",
          "type": "uint256"
        }
      ],
      "stateMutability": "view",
      "type": "function"
    },
    {
      "inputs": [
        {
          "internalType": "address",
          "name": "_from",
          "type": "address"
        },
        {
          "internalType": "address",
          "name": "_to",
          "type": "address"
        },
        {
          "internalType": "uint256",
          "name": "_value",
          "type": "uint256"
        }
      ],
      "name": "mintUnbackedStablecoin",
      "outputs": [],
      "stateMutability": "nonpayable",
      "type": "function"
    },
    {
      "inputs": [
        {
          "internalType": "bytes32",
          "name": "_collateralPoolId",
          "type": "bytes32"
        },
        {
          "internalType": "address",
          "name": "_src",
          "type": "address"
        },
        {
          "internalType": "address",
          "name": "_dst",
          "type": "address"
        },
        {
          "internalType": "uint256",
          "name": "_amount",
          "type": "uint256"
        }
      ],
      "name": "moveCollateral",
      "outputs": [],
      "stateMutability": "nonpayable",
      "type": "function"
    },
    {
      "inputs": [
        {
          "internalType": "bytes32",
          "name": "_collateralPoolId",
          "type": "bytes32"
        },
        {
          "internalType": "address",
          "name": "_src",
          "type": "address"
        },
        {
          "internalType": "address",
          "name": "_dst",
          "type": "address"
        },
        {
          "internalType": "int256",
          "name": "_collateralAmount",
          "type": "int256"
        },
        {
          "internalType": "int256",
          "name": "_debtShare",
          "type": "int256"
        }
      ],
      "name": "movePosition",
      "outputs": [],
      "stateMutability": "nonpayable",
      "type": "function"
    },
    {
      "inputs": [
        {
          "internalType": "address",
          "name": "_src",
          "type": "address"
        },
        {
          "internalType": "address",
          "name": "_dst",
          "type": "address"
        },
        {
          "internalType": "uint256",
          "name": "_value",
          "type": "uint256"
        }
      ],
      "name": "moveStablecoin",
      "outputs": [],
      "stateMutability": "nonpayable",
      "type": "function"
    },
    {
      "inputs": [],
      "name": "pause",
      "outputs": [],
      "stateMutability": "nonpayable",
      "type": "function"
    },
    {
      "inputs": [],
      "name": "paused",
      "outputs": [
        {
          "internalType": "bool",
          "name": "",
          "type": "bool"
        }
      ],
      "stateMutability": "view",
      "type": "function"
    },
    {
      "inputs": [
        {
          "internalType": "address",
          "name": "",
          "type": "address"
        },
        {
          "internalType": "address",
          "name": "",
          "type": "address"
        }
      ],
      "name": "positionWhitelist",
      "outputs": [
        {
          "internalType": "uint256",
          "name": "",
          "type": "uint256"
        }
      ],
      "stateMutability": "view",
      "type": "function"
    },
    {
      "inputs": [
        {
          "internalType": "bytes32",
          "name": "",
          "type": "bytes32"
        },
        {
          "internalType": "address",
          "name": "",
          "type": "address"
        }
      ],
      "name": "positions",
      "outputs": [
        {
          "internalType": "uint256",
          "name": "lockedCollateral",
          "type": "uint256"
        },
        {
          "internalType": "uint256",
          "name": "debtShare",
          "type": "uint256"
        }
      ],
      "stateMutability": "view",
      "type": "function"
    },
    {
      "inputs": [
        {
          "internalType": "address",
          "name": "_accessControlConfig",
          "type": "address"
        }
      ],
      "name": "setAccessControlConfig",
      "outputs": [],
      "stateMutability": "nonpayable",
      "type": "function"
    },
    {
      "inputs": [
        {
          "internalType": "address",
          "name": "_collateralPoolConfig",
          "type": "address"
        }
      ],
      "name": "setCollateralPoolConfig",
      "outputs": [],
      "stateMutability": "nonpayable",
      "type": "function"
    },
    {
      "inputs": [
        {
          "internalType": "uint256",
          "name": "_totalDebtCeiling",
          "type": "uint256"
        }
      ],
      "name": "setTotalDebtCeiling",
      "outputs": [],
      "stateMutability": "nonpayable",
      "type": "function"
    },
    {
      "inputs": [
        {
          "internalType": "uint256",
          "name": "_value",
          "type": "uint256"
        }
      ],
      "name": "settleSystemBadDebt",
      "outputs": [],
      "stateMutability": "nonpayable",
      "type": "function"
    },
    {
      "inputs": [
        {
          "internalType": "address",
          "name": "",
          "type": "address"
        }
      ],
      "name": "stablecoin",
      "outputs": [
        {
          "internalType": "uint256",
          "name": "",
          "type": "uint256"
        }
      ],
      "stateMutability": "view",
      "type": "function"
    },
    {
      "inputs": [
        {
          "internalType": "address",
          "name": "",
          "type": "address"
        }
      ],
      "name": "systemBadDebt",
      "outputs": [
        {
          "internalType": "uint256",
          "name": "",
          "type": "uint256"
        }
      ],
      "stateMutability": "view",
      "type": "function"
    },
    {
      "inputs": [],
      "name": "totalDebtCeiling",
      "outputs": [
        {
          "internalType": "uint256",
          "name": "",
          "type": "uint256"
        }
      ],
      "stateMutability": "view",
      "type": "function"
    },
    {
      "inputs": [],
      "name": "totalStablecoinIssued",
      "outputs": [
        {
          "internalType": "uint256",
          "name": "",
          "type": "uint256"
        }
      ],
      "stateMutability": "view",
      "type": "function"
    },
    {
      "inputs": [],
      "name": "totalUnbackedStablecoin",
      "outputs": [
        {
          "internalType": "uint256",
          "name": "",
          "type": "uint256"
        }
      ],
      "stateMutability": "view",
      "type": "function"
    },
    {
      "inputs": [],
      "name": "uncage",
      "outputs": [],
      "stateMutability": "nonpayable",
      "type": "function"
    },
    {
      "inputs": [],
      "name": "unpause",
      "outputs": [],
      "stateMutability": "nonpayable",
      "type": "function"
    },
    {
      "inputs": [
        {
          "internalType": "address",
          "name": "toBeWhitelistedAddress",
          "type": "address"
        }
      ],
      "name": "whitelist",
      "outputs": [],
      "stateMutability": "nonpayable",
      "type": "function"
    }
  ],
  "bytecode": "0x608060405234801561001057600080fd5b50614994806100206000396000f3fe608060405234801561001057600080fd5b50600436106101e55760003560e01c806390d536391161010f578063d63b23b2116100a2578063ec50009911610071578063ec500099146103b2578063f635d8a7146103c5578063f8be242c146103d8578063f9f92be4146103eb576101e5565b8063d63b23b21461037c578063d868246114610384578063d9ea91551461038c578063e137ddc51461039f576101e5565b8063b4ac08bb116100de578063b4ac08bb1461032e578063b5d9932914610341578063c8cc243f14610354578063d295927a14610369576101e5565b806390d53639146102ed578063957aa58c146103005780639b19251a14610308578063b1df25941461031b576101e5565b80635c975abb11610187578063815110ec11610156578063815110ec146102ac5780638456cb59146102bf57806384e44abb146102c75780638c157854146102da576101e5565b80635c975abb1461027457806369245009146102895780636a321151146102915780636f3a3bfc146102a4576101e5565b8063485cc955116101c3578063485cc9551461023157806354eb03a21461024457806356bd594a146102595780635b2a51211461026c576101e5565b806303ab9076146101ea57806329d88594146101ff5780633f4ba83a14610229575b600080fd5b6101fd6101f8366004614066565b6103fe565b005b61021261020d366004613fd3565b6108cb565b6040516102209291906142a3565b60405180910390f35b6101fd6108ef565b6101fd61023f366004613f27565b610b58565b61024c610cb9565b6040516102209190614206565b6101fd610267366004614002565b610cbf565b61024c6114a4565b61027c6114aa565b60405161022091906141fb565b6101fd6114b3565b6101fd61029f366004613f5b565b61177e565b61024c611a13565b6101fd6102ba36600461419c565b611a19565b6101fd611b12565b6101fd6102d536600461419c565b611d78565b6101fd6102e8366004613f5b565b611f47565b6101fd6102fb3660046140fc565b6120a7565b61024c612483565b6101fd610316366004613f0c565b612489565b6101fd610329366004614002565b6124ff565b61024c61033c366004613f0c565b61294f565b6101fd61034f3660046140b7565b612961565b61035c612c6f565b60405161022091906141b4565b6101fd6103773660046140fc565b612c8b565b6101fd612f10565b61035c6131d9565b61024c61039a366004613f27565b6131f5565b61024c6103ad366004613f0c565b613212565b6101fd6103c0366004613f0c565b613224565b6101fd6103d3366004613f0c565b6134ef565b61024c6103e6366004613fd3565b6136b1565b6101fd6103f9366004613f0c565b6136ce565b60026065541415610444576040517f08c379a000000000000000000000000000000000000000000000000000000000815260040161043b90614897565b60405180910390fd5b60026065556104516114aa565b15610488576040517f08c379a000000000000000000000000000000000000000000000000000000000815260040161043b906144b5565b60a154604080517f6e19aa59000000000000000000000000000000000000000000000000000000008152905173ffffffffffffffffffffffffffffffffffffffff9092169182916391d14854918391636e19aa59916004808301926020929190829003018186803b1580156104fc57600080fd5b505afa158015610510573d6000803e3d6000fd5b505050506040513d601f19601f820116820180604052508101906105349190613fbb565b336040518363ffffffff1660e01b815260040161055292919061420f565b60206040518083038186803b15801561056a57600080fd5b505afa15801561057e573d6000803e3d6000fd5b505050506040513d601f19601f820116820180604052508101906105a29190613f9b565b6105d8576040517f08c379a000000000000000000000000000000000000000000000000000000000815260040161043b90614905565b600086815260986020908152604080832073ffffffffffffffffffffffffffffffffffffffff898116855292528083209187168352909120610618613e9f565b60a0546040517f1204769e00000000000000000000000000000000000000000000000000000000815273ffffffffffffffffffffffffffffffffffffffff90911690631204769e9061066e908c90600401614206565b60a06040518083038186803b15801561068657600080fd5b505afa15801561069a573d6000803e3d6000fd5b505050506040513d601f19601f820116820180604052508101906106be9190614131565b90506106ce836000015487613743565b835560018301546106df9086613743565b600184015581546106f0908761377e565b82556001820154610701908661377e565b8260010181905550600061071d846001015483600001516137b2565b90506000610733846001015484600001516137b2565b90506107516107428b336137d5565b61074c8b336137d5565b613822565b610787576040517f08c379a000000000000000000000000000000000000000000000000000000000815260040161043b90614727565b610799856000015484606001516137b2565b8211156107d2576040517f08c379a000000000000000000000000000000000000000000000000000000000815260040161043b906145dd565b6107e4846000015484606001516137b2565b81111561081d576040517f08c379a000000000000000000000000000000000000000000000000000000000815260040161043b90614829565b61083583608001518310158660010154600014613826565b61086b576040517f08c379a000000000000000000000000000000000000000000000000000000000815260040161043b9061431f565b61088383608001518210158560010154600014613826565b6108b9576040517f08c379a000000000000000000000000000000000000000000000000000000000815260040161043b906143ea565b50506001606555505050505050505050565b60986020908152600092835260408084209091529082529020805460019091015482565b60a154604080517fe58378bb000000000000000000000000000000000000000000000000000000008152905173ffffffffffffffffffffffffffffffffffffffff9092169182916391d1485491839163e58378bb916004808301926020929190829003018186803b15801561096357600080fd5b505afa158015610977573d6000803e3d6000fd5b505050506040513d601f19601f8201168201806040525081019061099b9190613fbb565b336040518363ffffffff1660e01b81526004016109b992919061420f565b60206040518083038186803b1580156109d157600080fd5b505afa1580156109e5573d6000803e3d6000fd5b505050506040513d601f19601f82011682018060405250810190610a099190613f9b565b80610b1757508073ffffffffffffffffffffffffffffffffffffffff166391d148548273ffffffffffffffffffffffffffffffffffffffff1663b536818a6040518163ffffffff1660e01b815260040160206040518083038186803b158015610a7157600080fd5b505afa158015610a85573d6000803e3d6000fd5b505050506040513d601f19601f82011682018060405250810190610aa99190613fbb565b336040518363ffffffff1660e01b8152600401610ac792919061420f565b60206040518083038186803b158015610adf57600080fd5b505afa158015610af3573d6000803e3d6000fd5b505050506040513d601f19601f82011682018060405250810190610b179190613f9b565b610b4d576040517f08c379a000000000000000000000000000000000000000000000000000000000815260040161043b9061464b565b610b5561382a565b50565b600054610100900460ff1680610b715750610b716138d0565b80610b7f575060005460ff16155b610bb5576040517f08c379a000000000000000000000000000000000000000000000000000000000815260040161043b90614523565b600054610100900460ff16158015610c1b57600080547fffffffffffffffffffffffffffffffffffffffffffffffffffffffffffffff007fffffffffffffffffffffffffffffffffffffffffffffffffffffffffffff00ff909116610100171660011790555b610c236138e1565b610c2b6139e5565b60a0805473ffffffffffffffffffffffffffffffffffffffff8086167fffffffffffffffffffffffff00000000000000000000000000000000000000009283161790925560a18054928516929091169190911790556001609f558015610cb457600080547fffffffffffffffffffffffffffffffffffffffffffffffffffffffffffff00ff1690555b505050565b609d5481565b60026065541415610cfc576040517f08c379a000000000000000000000000000000000000000000000000000000000815260040161043b90614897565b6002606555610d096114aa565b15610d40576040517f08c379a000000000000000000000000000000000000000000000000000000000815260040161043b906144b5565b60a154604080517f6e19aa59000000000000000000000000000000000000000000000000000000008152905173ffffffffffffffffffffffffffffffffffffffff9092169182916391d14854918391636e19aa59916004808301926020929190829003018186803b158015610db457600080fd5b505afa158015610dc8573d6000803e3d6000fd5b505050506040513d601f19601f82011682018060405250810190610dec9190613fbb565b336040518363ffffffff1660e01b8152600401610e0a92919061420f565b60206040518083038186803b158015610e2257600080fd5b505afa158015610e36573d6000803e3d6000fd5b505050506040513d601f19601f82011682018060405250810190610e5a9190613f9b565b610e90576040517f08c379a000000000000000000000000000000000000000000000000000000000815260040161043b90614905565b609f54600114610ecc576040517f08c379a000000000000000000000000000000000000000000000000000000000815260040161043b90614795565b610ed4613ece565b50600087815260986020908152604080832073ffffffffffffffffffffffffffffffffffffffff8a1684528252918290208251808401909352805483526001015490820152610f21613e9f565b60a0546040517f1204769e00000000000000000000000000000000000000000000000000000000815273ffffffffffffffffffffffffffffffffffffffff90911690631204769e90610f77908c90600401614206565b60a06040518083038186803b158015610f8f57600080fd5b505afa158015610fa3573d6000803e3d6000fd5b505050506040513d601f19601f82011682018060405250810190610fc79190614131565b8051909150611002576040517f08c379a000000000000000000000000000000000000000000000000000000000815260040161043b90614580565b815161100e908661377e565b8252602082015161101f908561377e565b82602001818152505061103681602001518561377e565b6020820181905260a0546040517fb3b1cfa200000000000000000000000000000000000000000000000000000000815273ffffffffffffffffffffffffffffffffffffffff9091169163b3b1cfa291611093918d916004016142a3565b600060405180830381600087803b1580156110ad57600080fd5b505af11580156110c1573d6000803e3d6000fd5b5050505060006110d5826000015186613ab0565b905060006110eb836000015185602001516137b2565b90506110f9609c548361377e565b609c8190555061113560008713156111308560400151611121876020015188600001516137b2565b1115609e54609c541115613822565b613826565b61116b576040517f08c379a000000000000000000000000000000000000000000000000000000000815260040161043b90614421565b61119a611180600088131560008a1215613822565b611192866000015186606001516137b2565b831115613826565b6111d0576040517f08c379a000000000000000000000000000000000000000000000000000000000815260040161043b90614860565b6111ef6111e5600088131560008a1215613822565b6111308c336137d5565b611225576040517f08c379a000000000000000000000000000000000000000000000000000000000815260040161043b906147cc565b61123760008813156111308b336137d5565b61126d576040517f08c379a000000000000000000000000000000000000000000000000000000000815260040161043b90614356565b61127f60008712156111308a336137d5565b6112b5576040517f08c379a000000000000000000000000000000000000000000000000000000000815260040161043b90614458565b6112cd84602001516000148460800151831015613826565b611303576040517f08c379a000000000000000000000000000000000000000000000000000000000815260040161043b90614682565b60008b815260996020908152604080832073ffffffffffffffffffffffffffffffffffffffff8d16845290915290205461133d9088613743565b60008c815260996020908152604080832073ffffffffffffffffffffffffffffffffffffffff808f16855290835281842094909455928b168252609a90522054611387908361377e565b609a60008a73ffffffffffffffffffffffffffffffffffffffff1673ffffffffffffffffffffffffffffffffffffffff1681526020019081526020016000208190555083609860008d815260200190815260200160002060008c73ffffffffffffffffffffffffffffffffffffffff1673ffffffffffffffffffffffffffffffffffffffff16815260200190815260200160002060008201518160000155602082015181600101559050503373ffffffffffffffffffffffffffffffffffffffff167f9b94d9430dddc4ac521de354f6e41dda42e93122366c22ea833f7b216daf86138c8c876000015188602001518c8c60405161148a96959493929190614265565b60405180910390a250506001606555505050505050505050565b609e5481565b60335460ff1690565b60a154604080517fe58378bb000000000000000000000000000000000000000000000000000000008152905173ffffffffffffffffffffffffffffffffffffffff9092169182916391d1485491839163e58378bb916004808301926020929190829003018186803b15801561152757600080fd5b505afa15801561153b573d6000803e3d6000fd5b505050506040513d601f19601f8201168201806040525081019061155f9190613fbb565b336040518363ffffffff1660e01b815260040161157d92919061420f565b60206040518083038186803b15801561159557600080fd5b505afa1580156115a9573d6000803e3d6000fd5b505050506040513d601f19601f820116820180604052508101906115cd9190613f9b565b806116db57508073ffffffffffffffffffffffffffffffffffffffff166391d148548273ffffffffffffffffffffffffffffffffffffffff1663d7a47a696040518163ffffffff1660e01b815260040160206040518083038186803b15801561163557600080fd5b505afa158015611649573d6000803e3d6000fd5b505050506040513d601f19601f8201168201806040525081019061166d9190613fbb565b336040518363ffffffff1660e01b815260040161168b92919061420f565b60206040518083038186803b1580156116a357600080fd5b505afa1580156116b7573d6000803e3d6000fd5b505050506040513d601f19601f820116820180604052508101906116db9190613f9b565b611711576040517f08c379a000000000000000000000000000000000000000000000000000000000815260040161043b906148ce565b609f5460011461174d576040517f08c379a000000000000000000000000000000000000000000000000000000000815260040161043b90614795565b6000609f8190556040517fbf689b4aae670d200b1d2b971ace2e0c3bef88a9c5e93f36705c7b86eab630b99190a150565b600260655414156117bb576040517f08c379a000000000000000000000000000000000000000000000000000000000815260040161043b90614897565b60026065556117c86114aa565b156117ff576040517f08c379a000000000000000000000000000000000000000000000000000000000815260040161043b906144b5565b60a154604080517f08e45bc5000000000000000000000000000000000000000000000000000000008152905173ffffffffffffffffffffffffffffffffffffffff9092169182916391d148549183916308e45bc5916004808301926020929190829003018186803b15801561187357600080fd5b505afa158015611887573d6000803e3d6000fd5b505050506040513d601f19601f820116820180604052508101906118ab9190613fbb565b336040518363ffffffff1660e01b81526004016118c992919061420f565b60206040518083038186803b1580156118e157600080fd5b505afa1580156118f5573d6000803e3d6000fd5b505050506040513d601f19601f820116820180604052508101906119199190613f9b565b61194f576040517f08c379a000000000000000000000000000000000000000000000000000000000815260040161043b906144ec565b73ffffffffffffffffffffffffffffffffffffffff84166000908152609b602052604090205461197f9083613ade565b73ffffffffffffffffffffffffffffffffffffffff8086166000908152609b60209081526040808320949094559186168152609a90915220546119c29083613ade565b73ffffffffffffffffffffffffffffffffffffffff84166000908152609a6020526040902055609d546119f59083613ade565b609d55609c54611a059083613ade565b609c55505060016065555050565b609c5481565b60026065541415611a56576040517f08c379a000000000000000000000000000000000000000000000000000000000815260040161043b90614897565b6002606555611a636114aa565b15611a9a576040517f08c379a000000000000000000000000000000000000000000000000000000000815260040161043b906144b5565b336000908152609b6020526040902054611ab49082613aee565b336000908152609b6020908152604080832093909355609a90522054611ada9082613aee565b336000908152609a6020526040902055609d54611af79082613aee565b609d55609c54611b079082613aee565b609c55506001606555565b60a154604080517fe58378bb000000000000000000000000000000000000000000000000000000008152905173ffffffffffffffffffffffffffffffffffffffff9092169182916391d1485491839163e58378bb916004808301926020929190829003018186803b158015611b8657600080fd5b505afa158015611b9a573d6000803e3d6000fd5b505050506040513d601f19601f82011682018060405250810190611bbe9190613fbb565b336040518363ffffffff1660e01b8152600401611bdc92919061420f565b60206040518083038186803b158015611bf457600080fd5b505afa158015611c08573d6000803e3d6000fd5b505050506040513d601f19601f82011682018060405250810190611c2c9190613f9b565b80611d3a57508073ffffffffffffffffffffffffffffffffffffffff166391d148548273ffffffffffffffffffffffffffffffffffffffff1663b536818a6040518163ffffffff1660e01b815260040160206040518083038186803b158015611c9457600080fd5b505afa158015611ca8573d6000803e3d6000fd5b505050506040513d601f19601f82011682018060405250810190611ccc9190613fbb565b336040518363ffffffff1660e01b8152600401611cea92919061420f565b60206040518083038186803b158015611d0257600080fd5b505afa158015611d16573d6000803e3d6000fd5b505050506040513d601f19601f82011682018060405250810190611d3a9190613f9b565b611d70576040517f08c379a000000000000000000000000000000000000000000000000000000000815260040161043b9061464b565b610b55613afe565b60a154604080517fe58378bb000000000000000000000000000000000000000000000000000000008152905173ffffffffffffffffffffffffffffffffffffffff9092169182916391d1485491839163e58378bb916004808301926020929190829003018186803b158015611dec57600080fd5b505afa158015611e00573d6000803e3d6000fd5b505050506040513d601f19601f82011682018060405250810190611e249190613fbb565b336040518363ffffffff1660e01b8152600401611e4292919061420f565b60206040518083038186803b158015611e5a57600080fd5b505afa158015611e6e573d6000803e3d6000fd5b505050506040513d601f19601f82011682018060405250810190611e929190613f9b565b611ec8576040517f08c379a000000000000000000000000000000000000000000000000000000000815260040161043b906142b1565b609f54600114611f04576040517f08c379a000000000000000000000000000000000000000000000000000000000815260040161043b90614795565b609e82905560405133907f40f69e672a10878e2ae12a782e2a123f25152d75979b2f9c50295f44ff4e308d90611f3b908590614206565b60405180910390a25050565b60026065541415611f84576040517f08c379a000000000000000000000000000000000000000000000000000000000815260040161043b90614897565b6002606555611f916114aa565b15611fc8576040517f08c379a000000000000000000000000000000000000000000000000000000000815260040161043b906144b5565b611fd283336137d5565b612008576040517f08c379a000000000000000000000000000000000000000000000000000000000815260040161043b90614727565b73ffffffffffffffffffffffffffffffffffffffff83166000908152609a60205260409020546120389082613aee565b73ffffffffffffffffffffffffffffffffffffffff8085166000908152609a602052604080822093909355908416815220546120749082613ade565b73ffffffffffffffffffffffffffffffffffffffff9092166000908152609a602052604090209190915550506001606555565b600260655414156120e4576040517f08c379a000000000000000000000000000000000000000000000000000000000815260040161043b90614897565b60026065556120f16114aa565b15612128576040517f08c379a000000000000000000000000000000000000000000000000000000000815260040161043b906144b5565b60a154604080517f23868800000000000000000000000000000000000000000000000000000000008152905173ffffffffffffffffffffffffffffffffffffffff9092169182916391d148549183916323868800916004808301926020929190829003018186803b15801561219c57600080fd5b505afa1580156121b0573d6000803e3d6000fd5b505050506040513d601f19601f820116820180604052508101906121d49190613fbb565b336040518363ffffffff1660e01b81526004016121f292919061420f565b60206040518083038186803b15801561220a57600080fd5b505afa15801561221e573d6000803e3d6000fd5b505050506040513d601f19601f820116820180604052508101906122429190613f9b565b612278576040517f08c379a000000000000000000000000000000000000000000000000000000000815260040161043b906146b9565b609f546001146122b4576040517f08c379a000000000000000000000000000000000000000000000000000000000815260040161043b90614795565b6122bc613e9f565b60a0546040517f1204769e00000000000000000000000000000000000000000000000000000000815273ffffffffffffffffffffffffffffffffffffffff90911690631204769e90612312908890600401614206565b60a06040518083038186803b15801561232a57600080fd5b505afa15801561233e573d6000803e3d6000fd5b505050506040513d601f19601f820116820180604052508101906123629190614131565b905061237281600001518461377e565b80825260a0546040517fe47f3c6f00000000000000000000000000000000000000000000000000000000815273ffffffffffffffffffffffffffffffffffffffff9091169163e47f3c6f916123cb9189916004016142a3565b600060405180830381600087803b1580156123e557600080fd5b505af11580156123f9573d6000803e3d6000fd5b50505050600061240d826020015185613ab0565b73ffffffffffffffffffffffffffffffffffffffff86166000908152609a6020526040902054909150612440908261377e565b73ffffffffffffffffffffffffffffffffffffffff86166000908152609a6020526040902055609c54612473908261377e565b609c555050600160655550505050565b609f5481565b6124916114aa565b156124c8576040517f08c379a000000000000000000000000000000000000000000000000000000000815260040161043b906144b5565b33600090815260976020908152604080832073ffffffffffffffffffffffffffffffffffffffff9490941683529290522060019055565b6002606554141561253c576040517f08c379a000000000000000000000000000000000000000000000000000000000815260040161043b90614897565b60026065556125496114aa565b15612580576040517f08c379a000000000000000000000000000000000000000000000000000000000815260040161043b906144b5565b60a154604080517fe8ff193d000000000000000000000000000000000000000000000000000000008152905173ffffffffffffffffffffffffffffffffffffffff9092169182916391d1485491839163e8ff193d916004808301926020929190829003018186803b1580156125f457600080fd5b505afa158015612608573d6000803e3d6000fd5b505050506040513d601f19601f8201168201806040525081019061262c9190613fbb565b336040518363ffffffff1660e01b815260040161264a92919061420f565b60206040518083038186803b15801561266257600080fd5b505afa158015612676573d6000803e3d6000fd5b505050506040513d601f19601f8201168201806040525081019061269a9190613f9b565b6126d0576040517f08c379a000000000000000000000000000000000000000000000000000000000815260040161043b906146f0565b600087815260986020908152604080832073ffffffffffffffffffffffffffffffffffffffff8a1684529091529020612707613e9f565b60a0546040517f1204769e00000000000000000000000000000000000000000000000000000000815273ffffffffffffffffffffffffffffffffffffffff90911690631204769e9061275d908c90600401614206565b60a06040518083038186803b15801561277557600080fd5b505afa158015612789573d6000803e3d6000fd5b505050506040513d601f19601f820116820180604052508101906127ad9190614131565b90506127bd82600001548661377e565b825560018201546127ce908561377e565b600183015560208101516127e2908561377e565b6020820181905260a0546040517fb3b1cfa200000000000000000000000000000000000000000000000000000000815273ffffffffffffffffffffffffffffffffffffffff9091169163b3b1cfa29161283f918d916004016142a3565b600060405180830381600087803b15801561285957600080fd5b505af115801561286d573d6000803e3d6000fd5b505050506000612881826000015186613ab0565b60008b815260996020908152604080832073ffffffffffffffffffffffffffffffffffffffff8d1684529091529020549091506128be9087613743565b60008b815260996020908152604080832073ffffffffffffffffffffffffffffffffffffffff808e16855290835281842094909455928a168252609b905220546129089082613743565b73ffffffffffffffffffffffffffffffffffffffff88166000908152609b6020526040902055609d5461293b9082613743565b609d55505060016065555050505050505050565b609a6020526000908152604090205481565b6002606554141561299e576040517f08c379a000000000000000000000000000000000000000000000000000000000815260040161043b90614897565b60026065556129ab6114aa565b156129e2576040517f08c379a000000000000000000000000000000000000000000000000000000000815260040161043b906144b5565b60a154604080517f2e718ab7000000000000000000000000000000000000000000000000000000008152905173ffffffffffffffffffffffffffffffffffffffff9092169182916391d14854918391632e718ab7916004808301926020929190829003018186803b158015612a5657600080fd5b505afa158015612a6a573d6000803e3d6000fd5b505050506040513d601f19601f82011682018060405250810190612a8e9190613fbb565b336040518363ffffffff1660e01b8152600401612aac92919061420f565b60206040518083038186803b158015612ac457600080fd5b505afa158015612ad8573d6000803e3d6000fd5b505050506040513d601f19601f82011682018060405250810190612afc9190613f9b565b612b32576040517f08c379a000000000000000000000000000000000000000000000000000000000815260040161043b906143b3565b612b3c84336137d5565b612b72576040517f08c379a000000000000000000000000000000000000000000000000000000000815260040161043b90614727565b600085815260996020908152604080832073ffffffffffffffffffffffffffffffffffffffff88168452909152902054612bac9083613aee565b600086815260996020908152604080832073ffffffffffffffffffffffffffffffffffffffff8981168552925280832093909355851681522054612bf09083613ade565b600086815260996020908152604080832073ffffffffffffffffffffffffffffffffffffffff8816845290915290819020919091555133907f545a77591462bbdd247f8de3aabb8666317d6937475594c9df7e48f32b44e20a90612c5b908890889088908890614233565b60405180910390a250506001606555505050565b60a15473ffffffffffffffffffffffffffffffffffffffff1681565b60026065541415612cc8576040517f08c379a000000000000000000000000000000000000000000000000000000000815260040161043b90614897565b6002606555612cd56114aa565b15612d0c576040517f08c379a000000000000000000000000000000000000000000000000000000000815260040161043b906144b5565b60a154604080517f02a882e6000000000000000000000000000000000000000000000000000000008152905173ffffffffffffffffffffffffffffffffffffffff9092169182916391d148549183916302a882e6916004808301926020929190829003018186803b158015612d8057600080fd5b505afa158015612d94573d6000803e3d6000fd5b505050506040513d601f19601f82011682018060405250810190612db89190613fbb565b336040518363ffffffff1660e01b8152600401612dd692919061420f565b60206040518083038186803b158015612dee57600080fd5b505afa158015612e02573d6000803e3d6000fd5b505050506040513d601f19601f82011682018060405250810190612e269190613f9b565b612e5c576040517f08c379a000000000000000000000000000000000000000000000000000000000815260040161043b9061475e565b600084815260996020908152604080832073ffffffffffffffffffffffffffffffffffffffff87168452909152902054612e96908361377e565b600085815260996020908152604080832073ffffffffffffffffffffffffffffffffffffffff8816845290915290819020919091555133907ff61a861415a232c4e7fc9cc6939614aa780fd55601ac4bdf95db158bd642e27490612efd90869086906141d5565b60405180910390a2505060016065555050565b60a154604080517fe58378bb000000000000000000000000000000000000000000000000000000008152905173ffffffffffffffffffffffffffffffffffffffff9092169182916391d1485491839163e58378bb916004808301926020929190829003018186803b158015612f8457600080fd5b505afa158015612f98573d6000803e3d6000fd5b505050506040513d601f19601f82011682018060405250810190612fbc9190613fbb565b336040518363ffffffff1660e01b8152600401612fda92919061420f565b60206040518083038186803b158015612ff257600080fd5b505afa158015613006573d6000803e3d6000fd5b505050506040513d601f19601f8201168201806040525081019061302a9190613f9b565b8061313857508073ffffffffffffffffffffffffffffffffffffffff166391d148548273ffffffffffffffffffffffffffffffffffffffff1663d7a47a696040518163ffffffff1660e01b815260040160206040518083038186803b15801561309257600080fd5b505afa1580156130a6573d6000803e3d6000fd5b505050506040513d601f19601f820116820180604052508101906130ca9190613fbb565b336040518363ffffffff1660e01b81526004016130e892919061420f565b60206040518083038186803b15801561310057600080fd5b505afa158015613114573d6000803e3d6000fd5b505050506040513d601f19601f820116820180604052508101906131389190613f9b565b61316e576040517f08c379a000000000000000000000000000000000000000000000000000000000815260040161043b906148ce565b609f54156131a8576040517f08c379a000000000000000000000000000000000000000000000000000000000815260040161043b90614614565b6001609f556040517f1868a6ced217213f36be87ba9aee25cde5381b42e85c8f88e73b18772c0bd07390600090a150565b60a05473ffffffffffffffffffffffffffffffffffffffff1681565b609760209081526000928352604080842090915290825290205481565b609b6020526000908152604090205481565b60a154604080517fe58378bb000000000000000000000000000000000000000000000000000000008152905173ffffffffffffffffffffffffffffffffffffffff9092169182916391d1485491839163e58378bb916004808301926020929190829003018186803b15801561329857600080fd5b505afa1580156132ac573d6000803e3d6000fd5b505050506040513d601f19601f820116820180604052508101906132d09190613fbb565b336040518363ffffffff1660e01b81526004016132ee92919061420f565b60206040518083038186803b15801561330657600080fd5b505afa15801561331a573d6000803e3d6000fd5b505050506040513d601f19601f8201168201806040525081019061333e9190613f9b565b613374576040517f08c379a000000000000000000000000000000000000000000000000000000000815260040161043b906142b1565b8173ffffffffffffffffffffffffffffffffffffffff166391d148548373ffffffffffffffffffffffffffffffffffffffff1663e58378bb6040518163ffffffff1660e01b815260040160206040518083038186803b1580156133d657600080fd5b505afa1580156133ea573d6000803e3d6000fd5b505050506040513d601f19601f8201168201806040525081019061340e9190613fbb565b336040518363ffffffff1660e01b815260040161342c92919061420f565b60206040518083038186803b15801561344457600080fd5b505afa158015613458573d6000803e3d6000fd5b505050506040513d601f19601f8201168201806040525081019061347c9190613f9b565b5060a180547fffffffffffffffffffffffff00000000000000000000000000000000000000001673ffffffffffffffffffffffffffffffffffffffff841617905560405133907f104d594bb3ca960b0fc4fe7e747247b97b766449771c92e9a57395b370fd9a6290611f3b9085906141b4565b60a154604080517fe58378bb000000000000000000000000000000000000000000000000000000008152905173ffffffffffffffffffffffffffffffffffffffff9092169182916391d1485491839163e58378bb916004808301926020929190829003018186803b15801561356357600080fd5b505afa158015613577573d6000803e3d6000fd5b505050506040513d601f19601f8201168201806040525081019061359b9190613fbb565b336040518363ffffffff1660e01b81526004016135b992919061420f565b60206040518083038186803b1580156135d157600080fd5b505afa1580156135e5573d6000803e3d6000fd5b505050506040513d601f19601f820116820180604052508101906136099190613f9b565b61363f576040517f08c379a000000000000000000000000000000000000000000000000000000000815260040161043b906142b1565b60a080547fffffffffffffffffffffffff00000000000000000000000000000000000000001673ffffffffffffffffffffffffffffffffffffffff841617905560405133907f0223eb47811767b900acc3004a53292afccdf30a6334f8d93984f7c7916f6ecb90611f3b9085906141b4565b609960209081526000928352604080842090915290825290205481565b6136d66114aa565b1561370d576040517f08c379a000000000000000000000000000000000000000000000000000000000815260040161043b906144b5565b33600090815260976020908152604080832073ffffffffffffffffffffffffffffffffffffffff94909416835292905290812055565b8082036000821315806137565750828111155b61375f57600080fd5b60008212158061376f5750828110155b61377857600080fd5b92915050565b8181016000821215806137915750828111155b61379a57600080fd5b60008213158061376f57508281101561377857600080fd5b600081158061376f575050808202828282816137ca57fe5b041461377857600080fd5b73ffffffffffffffffffffffffffffffffffffffff828116600081815260976020908152604080832094861680845294909152812054909261381b921490600114613826565b9392505050565b1690565b1790565b6138326114aa565b613868576040517f08c379a000000000000000000000000000000000000000000000000000000000815260040161043b906142e8565b603380547fffffffffffffffffffffffffffffffffffffffffffffffffffffffffffffff001690557f5db9ee0a495bf2e6ff9c91a7834c1ba4fdd244a5e8aa4e537bd38aeae4b073aa6138b9613b8d565b6040516138c691906141b4565b60405180910390a1565b60006138db30613b91565b15905090565b600054610100900460ff16806138fa57506138fa6138d0565b80613908575060005460ff16155b61393e576040517f08c379a000000000000000000000000000000000000000000000000000000000815260040161043b90614523565b600054610100900460ff161580156139a457600080547fffffffffffffffffffffffffffffffffffffffffffffffffffffffffffffff007fffffffffffffffffffffffffffffffffffffffffffffffffffffffffffff00ff909116610100171660011790555b6139ac613b97565b6139b4613c8a565b8015610b5557600080547fffffffffffffffffffffffffffffffffffffffffffffffffffffffffffff00ff16905550565b600054610100900460ff16806139fe57506139fe6138d0565b80613a0c575060005460ff16155b613a42576040517f08c379a000000000000000000000000000000000000000000000000000000000815260040161043b90614523565b600054610100900460ff16158015613aa857600080547fffffffffffffffffffffffffffffffffffffffffffffffffffffffffffffff007fffffffffffffffffffffffffffffffffffffffffffffffffffffffffffff00ff909116610100171660011790555b6139b4613da6565b8181026000831215613ac157600080fd5b81158061376f575082828281613ad357fe5b051461377857600080fd5b8082018281101561377857600080fd5b8082038281111561377857600080fd5b613b066114aa565b15613b3d576040517f08c379a000000000000000000000000000000000000000000000000000000000815260040161043b906144b5565b603380547fffffffffffffffffffffffffffffffffffffffffffffffffffffffffffffff001660011790557f62e78cea01bee320cd4e420270b5ea74000d11b0c9f74754ebdbfc544b05a2586138b95b3390565b3b151590565b600054610100900460ff1680613bb05750613bb06138d0565b80613bbe575060005460ff16155b613bf4576040517f08c379a000000000000000000000000000000000000000000000000000000000815260040161043b90614523565b600054610100900460ff161580156139b457600080547fffffffffffffffffffffffffffffffffffffffffffffffffffffffffffffff007fffffffffffffffffffffffffffffffffffffffffffffffffffffffffffff00ff909116610100171660011790558015610b5557600080547fffffffffffffffffffffffffffffffffffffffffffffffffffffffffffff00ff16905550565b600054610100900460ff1680613ca35750613ca36138d0565b80613cb1575060005460ff16155b613ce7576040517f08c379a000000000000000000000000000000000000000000000000000000000815260040161043b90614523565b600054610100900460ff16158015613d4d57600080547fffffffffffffffffffffffffffffffffffffffffffffffffffffffffffffff007fffffffffffffffffffffffffffffffffffffffffffffffffffffffffffff00ff909116610100171660011790555b603380547fffffffffffffffffffffffffffffffffffffffffffffffffffffffffffffff001690558015610b5557600080547fffffffffffffffffffffffffffffffffffffffffffffffffffffffffffff00ff16905550565b600054610100900460ff1680613dbf5750613dbf6138d0565b80613dcd575060005460ff16155b613e03576040517f08c379a000000000000000000000000000000000000000000000000000000000815260040161043b90614523565b600054610100900460ff16158015613e6957600080547fffffffffffffffffffffffffffffffffffffffffffffffffffffffffffffff007fffffffffffffffffffffffffffffffffffffffffffffffffffffffffffff00ff909116610100171660011790555b60016065558015610b5557600080547fffffffffffffffffffffffffffffffffffffffffffffffffffffffffffff00ff16905550565b6040518060a0016040528060008152602001600081526020016000815260200160008152602001600081525090565b604051806040016040528060008152602001600081525090565b803573ffffffffffffffffffffffffffffffffffffffff8116811461377857600080fd5b600060208284031215613f1d578081fd5b61381b8383613ee8565b60008060408385031215613f39578081fd5b613f438484613ee8565b9150613f528460208501613ee8565b90509250929050565b600080600060608486031215613f6f578081fd5b8335613f7a8161493c565b92506020840135613f8a8161493c565b929592945050506040919091013590565b600060208284031215613fac578081fd5b8151801515811461381b578182fd5b600060208284031215613fcc578081fd5b5051919050565b60008060408385031215613fe5578182fd5b823591506020830135613ff78161493c565b809150509250929050565b60008060008060008060c0878903121561401a578182fd5b86359550602087013561402c8161493c565b9450604087013561403c8161493c565b9350606087013561404c8161493c565b9598949750929560808101359460a0909101359350915050565b600080600080600060a0868803121561407d578081fd5b85359450602086013561408f8161493c565b9350604086013561409f8161493c565b94979396509394606081013594506080013592915050565b600080600080608085870312156140cc578384fd5b843593506140dd8660208701613ee8565b92506140ec8660408701613ee8565b9396929550929360600135925050565b600080600060608486031215614110578283fd5b833592506141218560208601613ee8565b9150604084013590509250925092565b600060a08284031215614142578081fd5b60405160a0810181811067ffffffffffffffff82111715614161578283fd5b806040525082518152602083015160208201526040830151604082015260608301516060820152608083015160808201528091505092915050565b6000602082840312156141ad578081fd5b5035919050565b73ffffffffffffffffffffffffffffffffffffffff91909116815260200190565b73ffffffffffffffffffffffffffffffffffffffff929092168252602082015260400190565b901515815260200190565b90815260200190565b91825273ffffffffffffffffffffffffffffffffffffffff16602082015260400190565b93845273ffffffffffffffffffffffffffffffffffffffff928316602085015291166040830152606082015260800190565b95865273ffffffffffffffffffffffffffffffffffffffff94909416602086015260408501929092526060840152608083015260a082015260c00190565b918252602082015260400190565b6020808252600a908201527f216f776e6572526f6c6500000000000000000000000000000000000000000000604082015260600190565b60208082526014908201527f5061757361626c653a206e6f7420706175736564000000000000000000000000604082015260600190565b6020808252601b908201527f5b426f6f6b4b65657065725d20646562742d666c6f6f722d7372630000000000604082015260600190565b60208082526029908201527f5b426f6f6b4b65657065725d206e6f742d616c6c6f7765642d636f6c6c61746560408201527f72616c2d6f776e65720000000000000000000000000000000000000000000000606082015260800190565b60208082526016908201527f21636f6c6c61746572616c4d616e61676572526f6c6500000000000000000000604082015260600190565b6020808252601b908201527f5b426f6f6b4b65657065725d20646562742d666c6f6f722d6473740000000000604082015260600190565b6020808252601d908201527f5b426f6f6b4b65657065725d206365696c696e672d6578636565646564000000604082015260600190565b60208082526029908201527f5b426f6f6b4b65657065725d206e6f742d616c6c6f7765642d737461626c656360408201527f6f696e2d6f776e65720000000000000000000000000000000000000000000000606082015260800190565b60208082526010908201527f5061757361626c653a2070617573656400000000000000000000000000000000604082015260600190565b6020808252600d908201527f216d696e7461626c65526f6c6500000000000000000000000000000000000000604082015260600190565b6020808252602e908201527f496e697469616c697a61626c653a20636f6e747261637420697320616c72656160408201527f647920696e697469616c697a6564000000000000000000000000000000000000606082015260800190565b60208082526024908201527f5b426f6f6b4b65657065725d20636f6c6c61746572616c506f6f6c2d6e6f742d60408201527f696e697400000000000000000000000000000000000000000000000000000000606082015260800190565b60208082526019908201527f5b426f6f6b4b65657065725d206e6f742d736166652d73726300000000000000604082015260600190565b60208082526016908201527f5b426f6f6b4b65657065725d206e6f742d636167656400000000000000000000604082015260600190565b60208082526017908201527f21286f776e6572526f6c65206f7220676f76526f6c6529000000000000000000604082015260600190565b60208082526017908201527f5b426f6f6b4b65657065725d20646562742d666c6f6f72000000000000000000604082015260600190565b6020808252601a908201527f2173746162696c697479466565436f6c6c6563746f72526f6c65000000000000604082015260600190565b60208082526016908201527f216c69717569646174696f6e456e67696e65526f6c6500000000000000000000604082015260600190565b60208082526018908201527f5b426f6f6b4b65657065725d206e6f742d616c6c6f7765640000000000000000604082015260600190565b6020808252600c908201527f2161646170746572526f6c650000000000000000000000000000000000000000604082015260600190565b60208082526015908201527f5b426f6f6b4b65657065725d206e6f742d6c6976650000000000000000000000604082015260600190565b60208082526029908201527f5b426f6f6b4b65657065725d206e6f742d616c6c6f7765642d706f736974696f60408201527f6e2d616464726573730000000000000000000000000000000000000000000000606082015260800190565b60208082526019908201527f5b426f6f6b4b65657065725d206e6f742d736166652d64737400000000000000604082015260600190565b60208082526015908201527f5b426f6f6b4b65657065725d206e6f742d736166650000000000000000000000604082015260600190565b6020808252601f908201527f5265656e7472616e637947756172643a207265656e7472616e742063616c6c00604082015260600190565b6020808252601f908201527f21286f776e6572526f6c65206f722073686f7753746f70706572526f6c652900604082015260600190565b60208082526014908201527f21706f736974696f6e4d616e61676572526f6c65000000000000000000000000604082015260600190565b73ffffffffffffffffffffffffffffffffffffffff81168114610b5557600080fdfea264697066735822122000e4ba1dad72fdfd3af73b2025c6f2d04816cdcd46e34bd5cd5f1df11360f7f564736f6c634300060c0033",
  "linkReferences": {},
  "deployedLinkReferences": {}
}