{
  "_format": "hh-sol-artifact-1",
  "contractName": "MockAlpacaOracle",
  "sourceName": "contracts/stablecoin/mocks/MockAlpacaOracle.sol",
  "abi": [
    {
      "inputs": [
        {
          "internalType": "address",
          "name": "",
          "type": "address"
        },
        {
          "internalType": "address",
          "name": "",
          "type": "address"
        }
      ],
      "name": "getPrice",
      "outputs": [
        {
          "internalType": "uint256",
          "name": "price",
          "type": "uint256"
        },
        {
          "internalType": "uint256",
          "name": "lastUpdate",
          "type": "uint256"
        }
      ],
      "stateMutability": "view",
      "type": "function"
    }
  ],
  "bytecode": "0x608060405234801561001057600080fd5b5060bd8061001f6000396000f3fe6080604052348015600f57600080fd5b506004361060285760003560e01c8063ac41865a14602d575b600080fd5b606560048036036040811015604157600080fd5b5073ffffffffffffffffffffffffffffffffffffffff81358116916020013516607e565b6040805192835260208301919091528051918290030190f35b5060009182915056fea2646970667358221220f9bc7fda20cbf0fc1ecc94bfac62aad17d1e8eed6546d6ee46386772be8e051164736f6c634300060c0033",
  "linkReferences": {},
  "deployedLinkReferences": {}
}