{
  "_format": "hh-sol-artifact-1",
  "contractName": "ComplexRewarderPerSecV2",
  "sourceName": "contracts/farm/v2/rewarders/ComplexRewarderPerSecV2.sol",
  "abi": [
    {
      "inputs": [
        {
          "internalType": "contract IBoringERC20",
          "name": "_rewardToken",
          "type": "address"
        },
        {
          "internalType": "contract IGammaDistributorV2",
          "name": "_distributorV2",
          "type": "address"
        },
        {
          "internalType": "bool",
          "name": "_isNative",
          "type": "bool"
        }
      ],
      "stateMutability": "nonpayable",
      "type": "constructor"
    },
    {
      "anonymous": false,
      "inputs": [
        {
          "indexed": true,
          "internalType": "uint256",
          "name": "pid",
          "type": "uint256"
        },
        {
          "indexed": false,
          "internalType": "uint256",
          "name": "allocPoint",
          "type": "uint256"
        }
      ],
      "name": "AddPool",
      "type": "event"
    },
    {
      "anonymous": false,
      "inputs": [
        {
          "indexed": true,
          "internalType": "uint256",
          "name": "pid",
          "type": "uint256"
        },
        {
          "indexed": true,
          "internalType": "uint256",
          "name": "phase",
          "type": "uint256"
        },
        {
          "indexed": false,
          "internalType": "uint256",
          "name": "endTimestamp",
          "type": "uint256"
        },
        {
          "indexed": false,
          "internalType": "uint256",
          "name": "rewardPerSec",
          "type": "uint256"
        }
      ],
      "name": "AddRewardInfo",
      "type": "event"
    },
    {
      "anonymous": false,
      "inputs": [
        {
          "indexed": true,
          "internalType": "address",
          "name": "user",
          "type": "address"
        },
        {
          "indexed": false,
          "internalType": "uint256",
          "name": "amount",
          "type": "uint256"
        }
      ],
      "name": "OnReward",
      "type": "event"
    },
    {
      "anonymous": false,
      "inputs": [
        {
          "indexed": true,
          "internalType": "address",
          "name": "previousOwner",
          "type": "address"
        },
        {
          "indexed": true,
          "internalType": "address",
          "name": "newOwner",
          "type": "address"
        }
      ],
      "name": "OwnershipTransferred",
      "type": "event"
    },
    {
      "anonymous": false,
      "inputs": [
        {
          "indexed": false,
          "internalType": "uint256",
          "name": "oldRate",
          "type": "uint256"
        },
        {
          "indexed": false,
          "internalType": "uint256",
          "name": "newRate",
          "type": "uint256"
        }
      ],
      "name": "RewardRateUpdated",
      "type": "event"
    },
    {
      "anonymous": false,
      "inputs": [
        {
          "indexed": true,
          "internalType": "uint256",
          "name": "pid",
          "type": "uint256"
        },
        {
          "indexed": false,
          "internalType": "uint256",
          "name": "allocPoint",
          "type": "uint256"
        }
      ],
      "name": "SetPool",
      "type": "event"
    },
    {
      "anonymous": false,
      "inputs": [
        {
          "indexed": true,
          "internalType": "uint256",
          "name": "pid",
          "type": "uint256"
        },
        {
          "indexed": false,
          "internalType": "uint256",
          "name": "lastRewardTimestamp",
          "type": "uint256"
        },
        {
          "indexed": false,
          "internalType": "uint256",
          "name": "lpSupply",
          "type": "uint256"
        },
        {
          "indexed": false,
          "internalType": "uint256",
          "name": "accTokenPerShare",
          "type": "uint256"
        }
      ],
      "name": "UpdatePool",
      "type": "event"
    },
    {
      "inputs": [
        {
          "internalType": "uint256",
          "name": "_from",
          "type": "uint256"
        },
        {
          "internalType": "uint256",
          "name": "_to",
          "type": "uint256"
        },
        {
          "internalType": "uint256",
          "name": "_endTimestamp",
          "type": "uint256"
        }
      ],
      "name": "_getTimeElapsed",
      "outputs": [
        {
          "internalType": "uint256",
          "name": "",
          "type": "uint256"
        }
      ],
      "stateMutability": "pure",
      "type": "function"
    },
    {
      "inputs": [
        {
          "internalType": "uint256",
          "name": "pid",
          "type": "uint256"
        }
      ],
      "name": "_updatePool",
      "outputs": [
        {
          "components": [
            {
              "internalType": "uint256",
              "name": "accTokenPerShare",
              "type": "uint256"
            },
            {
              "internalType": "uint256",
              "name": "startTimestamp",
              "type": "uint256"
            },
            {
              "internalType": "uint256",
              "name": "lastRewardTimestamp",
              "type": "uint256"
            },
            {
              "internalType": "uint256",
              "name": "allocPoint",
              "type": "uint256"
            },
            {
              "internalType": "uint256",
              "name": "totalRewards",
              "type": "uint256"
            }
          ],
          "internalType": "struct ComplexRewarderPerSecV2.PoolInfo",
          "name": "pool",
          "type": "tuple"
        }
      ],
      "stateMutability": "nonpayable",
      "type": "function"
    },
    {
      "inputs": [
        {
          "internalType": "uint256",
          "name": "_pid",
          "type": "uint256"
        },
        {
          "internalType": "uint256",
          "name": "_allocPoint",
          "type": "uint256"
        },
        {
          "internalType": "uint256",
          "name": "_startTimestamp",
          "type": "uint256"
        }
      ],
      "name": "add",
      "outputs": [],
      "stateMutability": "nonpayable",
      "type": "function"
    },
    {
      "inputs": [
        {
          "internalType": "uint256",
          "name": "_pid",
          "type": "uint256"
        },
        {
          "internalType": "uint256",
          "name": "_endTimestamp",
          "type": "uint256"
        },
        {
          "internalType": "uint256",
          "name": "_rewardPerSec",
          "type": "uint256"
        }
      ],
      "name": "addRewardInfo",
      "outputs": [],
      "stateMutability": "payable",
      "type": "function"
    },
    {
      "inputs": [
        {
          "internalType": "uint256",
          "name": "_pid",
          "type": "uint256"
        }
      ],
      "name": "currentEndTimestamp",
      "outputs": [
        {
          "internalType": "uint256",
          "name": "",
          "type": "uint256"
        }
      ],
      "stateMutability": "view",
      "type": "function"
    },
    {
      "inputs": [],
      "name": "distributorV2",
      "outputs": [
        {
          "internalType": "contract IGammaDistributorV2",
          "name": "",
          "type": "address"
        }
      ],
      "stateMutability": "view",
      "type": "function"
    },
    {
      "inputs": [
        {
          "internalType": "uint256",
          "name": "_pid",
          "type": "uint256"
        },
        {
          "internalType": "uint256",
          "name": "_amount",
          "type": "uint256"
        },
        {
          "internalType": "address",
          "name": "_beneficiary",
          "type": "address"
        }
      ],
      "name": "emergencyRewardWithdraw",
      "outputs": [],
      "stateMutability": "nonpayable",
      "type": "function"
    },
    {
      "inputs": [],
      "name": "isNative",
      "outputs": [
        {
          "internalType": "bool",
          "name": "",
          "type": "bool"
        }
      ],
      "stateMutability": "view",
      "type": "function"
    },
    {
      "inputs": [],
      "name": "massUpdatePools",
      "outputs": [],
      "stateMutability": "nonpayable",
      "type": "function"
    },
    {
      "inputs": [
        {
          "internalType": "uint256",
          "name": "_pid",
          "type": "uint256"
        },
        {
          "internalType": "address",
          "name": "_user",
          "type": "address"
        },
        {
          "internalType": "uint256",
          "name": "_amount",
          "type": "uint256"
        }
      ],
      "name": "onTauReward",
      "outputs": [],
      "stateMutability": "nonpayable",
      "type": "function"
    },
    {
      "inputs": [],
      "name": "owner",
      "outputs": [
        {
          "internalType": "address",
          "name": "",
          "type": "address"
        }
      ],
      "stateMutability": "view",
      "type": "function"
    },
    {
      "inputs": [
        {
          "internalType": "uint256",
          "name": "_pid",
          "type": "uint256"
        },
        {
          "internalType": "address",
          "name": "_user",
          "type": "address"
        }
      ],
      "name": "pendingTokens",
      "outputs": [
        {
          "internalType": "uint256",
          "name": "",
          "type": "uint256"
        }
      ],
      "stateMutability": "view",
      "type": "function"
    },
    {
      "inputs": [
        {
          "internalType": "uint256",
          "name": "",
          "type": "uint256"
        }
      ],
      "name": "poolIds",
      "outputs": [
        {
          "internalType": "uint256",
          "name": "",
          "type": "uint256"
        }
      ],
      "stateMutability": "view",
      "type": "function"
    },
    {
      "inputs": [
        {
          "internalType": "uint256",
          "name": "",
          "type": "uint256"
        }
      ],
      "name": "poolInfo",
      "outputs": [
        {
          "internalType": "uint256",
          "name": "accTokenPerShare",
          "type": "uint256"
        },
        {
          "internalType": "uint256",
          "name": "startTimestamp",
          "type": "uint256"
        },
        {
          "internalType": "uint256",
          "name": "lastRewardTimestamp",
          "type": "uint256"
        },
        {
          "internalType": "uint256",
          "name": "allocPoint",
          "type": "uint256"
        },
        {
          "internalType": "uint256",
          "name": "totalRewards",
          "type": "uint256"
        }
      ],
      "stateMutability": "view",
      "type": "function"
    },
    {
      "inputs": [
        {
          "internalType": "uint256",
          "name": "",
          "type": "uint256"
        },
        {
          "internalType": "uint256",
          "name": "",
          "type": "uint256"
        }
      ],
      "name": "poolRewardInfo",
      "outputs": [
        {
          "internalType": "uint256",
          "name": "startTimestamp",
          "type": "uint256"
        },
        {
          "internalType": "uint256",
          "name": "endTimestamp",
          "type": "uint256"
        },
        {
          "internalType": "uint256",
          "name": "rewardPerSec",
          "type": "uint256"
        }
      ],
      "stateMutability": "view",
      "type": "function"
    },
    {
      "inputs": [
        {
          "internalType": "uint256",
          "name": "_pid",
          "type": "uint256"
        }
      ],
      "name": "poolRewardsPerSec",
      "outputs": [
        {
          "internalType": "uint256",
          "name": "",
          "type": "uint256"
        }
      ],
      "stateMutability": "view",
      "type": "function"
    },
    {
      "inputs": [],
      "name": "renounceOwnership",
      "outputs": [],
      "stateMutability": "nonpayable",
      "type": "function"
    },
    {
      "inputs": [],
      "name": "rewardInfoLimit",
      "outputs": [
        {
          "internalType": "uint256",
          "name": "",
          "type": "uint256"
        }
      ],
      "stateMutability": "view",
      "type": "function"
    },
    {
      "inputs": [],
      "name": "rewardToken",
      "outputs": [
        {
          "internalType": "contract IBoringERC20",
          "name": "",
          "type": "address"
        }
      ],
      "stateMutability": "view",
      "type": "function"
    },
    {
      "inputs": [],
      "name": "totalAllocPoint",
      "outputs": [
        {
          "internalType": "uint256",
          "name": "",
          "type": "uint256"
        }
      ],
      "stateMutability": "view",
      "type": "function"
    },
    {
      "inputs": [
        {
          "internalType": "address",
          "name": "newOwner",
          "type": "address"
        }
      ],
      "name": "transferOwnership",
      "outputs": [],
      "stateMutability": "nonpayable",
      "type": "function"
    },
    {
      "inputs": [
        {
          "internalType": "uint256",
          "name": "_pid",
          "type": "uint256"
        }
      ],
      "name": "updatePool",
      "outputs": [
        {
          "components": [
            {
              "internalType": "uint256",
              "name": "accTokenPerShare",
              "type": "uint256"
            },
            {
              "internalType": "uint256",
              "name": "startTimestamp",
              "type": "uint256"
            },
            {
              "internalType": "uint256",
              "name": "lastRewardTimestamp",
              "type": "uint256"
            },
            {
              "internalType": "uint256",
              "name": "allocPoint",
              "type": "uint256"
            },
            {
              "internalType": "uint256",
              "name": "totalRewards",
              "type": "uint256"
            }
          ],
          "internalType": "struct ComplexRewarderPerSecV2.PoolInfo",
          "name": "pool",
          "type": "tuple"
        }
      ],
      "stateMutability": "nonpayable",
      "type": "function"
    },
    {
      "inputs": [
        {
          "internalType": "uint256",
          "name": "",
          "type": "uint256"
        },
        {
          "internalType": "address",
          "name": "",
          "type": "address"
        }
      ],
      "name": "userInfo",
      "outputs": [
        {
          "internalType": "uint256",
          "name": "amount",
          "type": "uint256"
        },
        {
          "internalType": "uint256",
          "name": "rewardDebt",
          "type": "uint256"
        }
      ],
      "stateMutability": "view",
      "type": "function"
    }
  ],
  "bytecode": "0x6101206040526000600655603460e0523480156200001c57600080fd5b5060405162002e0838038062002e088339810160408190526200003f916200038e565b6200004a336200024d565b6001808190555062000067836200029d60201b620019811760201c565b620000d45760405162461bcd60e51b815260206004820152603260248201527f636f6e7374727563746f723a2072657761726420746f6b656e206d7573742062604482015271194818481d985b1a590818dbdb9d1c9858dd60721b60648201526084015b60405180910390fd5b620000ea826200029d60201b620019811760201c565b6200015e5760405162461bcd60e51b815260206004820152603860248201527f636f6e7374727563746f723a2047616d6d614469737472696275746f7256322060448201527f6d75737420626520612076616c696420636f6e747261637400000000000000006064820152608401620000cb565b6001600160a01b03808416608052821660a05280151560c052600081620001a4576200019e846001600160a01b0316620002ac60201b6200199d1760201c565b620001a7565b60125b60ff169050601e8110620002245760405162461bcd60e51b815260206004820152603960248201527f636f6e7374727563746f723a2072657761726420746f6b656e20646563696d6160448201527f6c73206d75737420626520696e666572696f7220746f203330000000000000006064820152608401620000cb565b6200023181601e620003fc565b6200023e90600a62000515565b61010052506200058d92505050565b600080546001600160a01b038381166001600160a01b0319831681178455604051919092169283917f8be0079c531659141344cd1fd0a4f28419497f9722a3daafe3b4186f6b6457e09190a35050565b6001600160a01b03163b151590565b60408051600481526024810182526020810180516001600160e01b031663313ce56760e01b1790529051600091829182916001600160a01b03861691620002f491906200052a565b600060405180830381855afa9150503d806000811462000331576040519150601f19603f3d011682016040523d82523d6000602084013e62000336565b606091505b50915091508180156200034a575080516020145b620003575760126200036d565b808060200190518101906200036d919062000568565b949350505050565b6001600160a01b03811681146200038b57600080fd5b50565b600080600060608486031215620003a457600080fd5b8351620003b18162000375565b6020850151909350620003c48162000375565b60408501519092508015158114620003db57600080fd5b809150509250925092565b634e487b7160e01b600052601160045260246000fd5b600082821015620004115762000411620003e6565b500390565b600181815b80851115620004575781600019048211156200043b576200043b620003e6565b808516156200044957918102915b93841c93908002906200041b565b509250929050565b60008262000470575060016200050f565b816200047f575060006200050f565b8160018114620004985760028114620004a357620004c3565b60019150506200050f565b60ff841115620004b757620004b7620003e6565b50506001821b6200050f565b5060208310610133831016604e8410600b8410161715620004e8575081810a6200050f565b620004f4838362000416565b80600019048211156200050b576200050b620003e6565b0290505b92915050565b60006200052383836200045f565b9392505050565b6000825160005b818110156200054d576020818601810151858301520162000531565b818111156200055d576000828501525b509190910192915050565b6000602082840312156200057b57600080fd5b815160ff811681146200052357600080fd5b60805160a05160c05160e051610100516127b86200065060003960008181611320015281816116b2015281816118ae01528181611dcb0152611e1f01526000818161019601526109420152600081816103e1015281816107af01528181610beb015281816115b501526116f90152600081816104250152818161065101528181611138015281816114c00152611c7c01526000818161057d015281816107ee01528181610c280152818161160e0152818161183a015261188001526127b86000f3fe60806040526004361061017f5760003560e01c8063715018a6116100d65780639e494bee1161007f578063f46ad5a211610059578063f46ad5a21461054b578063f7c618c11461056b578063ffcd42631461059f57600080fd5b80639e494bee146104eb578063d4aa89b51461050b578063f2fde38b1461052b57600080fd5b80637d0d9d5f116100b05780637d0d9d5f146104135780638da5cb5b1461046c57806393f1a40b1461049757600080fd5b8063715018a61461039a57806372333631146103af57806373cfc6b2146103cf57600080fd5b80632ea807c51161013857806351eb05a61161011257806351eb05a614610303578063630b5ba11461036557806369883b4e1461037a57600080fd5b80632ea807c5146102b0578063465e81ec146102c3578063505fb46c146102e357600080fd5b80631526fe27116101695780631526fe271461020657806317caf6f1146102785780631d1231311461028e57600080fd5b8062d74850146101845780630832cfbf146101cb575b600080fd5b34801561019057600080fd5b506101b87f000000000000000000000000000000000000000000000000000000000000000081565b6040519081526020015b60405180910390f35b3480156101d757600080fd5b506101eb6101e636600461246f565b6105bf565b604080519384526020840192909252908201526060016101c2565b34801561021257600080fd5b50610250610221366004612491565b600260208190526000918252604090912080546001820154928201546003830154600490930154919392909185565b604080519586526020860194909452928401919091526060830152608082015260a0016101c2565b34801561028457600080fd5b506101b860065481565b34801561029a57600080fd5b506102ae6102a93660046124ce565b610601565b005b6102ae6102be366004612503565b61091d565b3480156102cf57600080fd5b506101b86102de366004612491565b610d96565b3480156102ef57600080fd5b506102ae6102fe366004612503565b610da8565b34801561030f57600080fd5b5061032361031e366004612491565b610f0c565b6040516101c29190600060a082019050825182526020830151602083015260408301516040830152606083015160608301526080830151608083015292915050565b34801561037157600080fd5b506102ae610f5f565b34801561038657600080fd5b506101b8610395366004612491565b610f7a565b3480156103a657600080fd5b506102ae610f9b565b3480156103bb57600080fd5b506101b86103ca366004612503565b610fad565b3480156103db57600080fd5b506104037f000000000000000000000000000000000000000000000000000000000000000081565b60405190151581526020016101c2565b34801561041f57600080fd5b506104477f000000000000000000000000000000000000000000000000000000000000000081565b60405173ffffffffffffffffffffffffffffffffffffffff90911681526020016101c2565b34801561047857600080fd5b5060005473ffffffffffffffffffffffffffffffffffffffff16610447565b3480156104a357600080fd5b506104d66104b236600461252f565b60056020908152600092835260408084209091529082529020805460019091015482565b604080519283526020830191909152016101c2565b3480156104f757600080fd5b506101b8610506366004612491565b610ff6565b34801561051757600080fd5b50610323610526366004612491565b611002565b34801561053757600080fd5b506102ae61054636600461255b565b6113f1565b34801561055757600080fd5b506102ae610566366004612576565b6114a8565b34801561057757600080fd5b506104477f000000000000000000000000000000000000000000000000000000000000000081565b3480156105ab57600080fd5b506101b86105ba36600461252f565b61193f565b600360205281600052604060002081815481106105db57600080fd5b600091825260209091206003909102018054600182015460029092015490935090915083565b610609611a98565b610611611b19565b60008381526002602052604080822090517f654c9ece000000000000000000000000000000000000000000000000000000008152600481018690529091907f000000000000000000000000000000000000000000000000000000000000000073ffffffffffffffffffffffffffffffffffffffff169063654c9ece9060240160206040518083038186803b1580156106a857600080fd5b505afa1580156106bc573d6000803e3d6000fd5b505050506040513d601f19601f820116820180604052508101906106e091906125ab565b905060006106f086836000611b8d565b600484015490915061070286836125f3565b1115610795576040517f08c379a000000000000000000000000000000000000000000000000000000000815260206004820152603260248201527f656d657267656e6379207265776172642077697468647261773a206e6f74206560448201527f6e6f7567682072657761726420746f6b656e000000000000000000000000000060648201526084015b60405180910390fd5b848360040160008282546107a9919061260b565b909155507f0000000000000000000000000000000000000000000000000000000000000000905061081a5761081573ffffffffffffffffffffffffffffffffffffffff7f0000000000000000000000000000000000000000000000000000000000000000168587611e68565b61090c565b60008473ffffffffffffffffffffffffffffffffffffffff168660405160006040518083038185875af1925050503d8060008114610874576040519150601f19603f3d011682016040523d82523d6000602084013e610879565b606091505b505090508061090a576040517f08c379a000000000000000000000000000000000000000000000000000000000815260206004820152602960248201527f656d657267656e6379207265776172642077697468647261773a206661696c6560448201527f6420746f2073656e640000000000000000000000000000000000000000000000606482015260840161078c565b505b50505061091860018055565b505050565b610925611a98565b6000838152600360209081526040808320600290925290912081547f0000000000000000000000000000000000000000000000000000000000000000116109ee576040517f08c379a000000000000000000000000000000000000000000000000000000000815260206004820152603560248201527f6164642072657761726420696e666f3a2072657761726420696e666f206c656e60448201527f677468206578636565647320746865206c696d69740000000000000000000000606482015260840161078c565b81541580610a2e5750815442908390610a099060019061260b565b81548110610a1957610a19612622565b90600052602060002090600302016001015410155b610ab9576040517f08c379a0000000000000000000000000000000000000000000000000000000008152602060048201526024808201527f6164642072657761726420696e666f3a2072657761726420706572696f64206560448201527f6e64656400000000000000000000000000000000000000000000000000000000606482015260840161078c565b81541580610af85750815484908390610ad49060019061260b565b81548110610ae457610ae4612622565b906000526020600020906003020160010154105b610b84576040517f08c379a000000000000000000000000000000000000000000000000000000000815260206004820152602560248201527f6164642072657761726420696e666f3a20626164206e657720656e6454696d6560448201527f7374616d70000000000000000000000000000000000000000000000000000000606482015260840161078c565b815460009015610bc55782548390610b9e9060019061260b565b81548110610bae57610bae612622565b906000526020600020906003020160010154610bcb565b81600101545b90506000610bd9828761260b565b90506000610be78683612651565b90507f0000000000000000000000000000000000000000000000000000000000000000610c5557610c5073ffffffffffffffffffffffffffffffffffffffff7f000000000000000000000000000000000000000000000000000000000000000016333084611fd8565b610ce4565b803414610ce4576040517f08c379a000000000000000000000000000000000000000000000000000000000815260206004820152602d60248201527f6164642072657761726420696e666f3a206e6f7420656e6f7567682066756e6460448201527f7320746f207472616e7366657200000000000000000000000000000000000000606482015260840161078c565b80846004016000828254610cf891906125f3565b90915550506040805160608101825284815260208082018a8152928201898152885460018181018b5560008b8152939093209351600390910290930192835592518282015591516002909101558554610d51919061260b565b60408051898152602081018990528a917fad90731bd0d97445f5af66088f3adebf343c520c20e033cc42f93b124258cdc2910160405180910390a35050505050505050565b6000610da28242612151565b92915050565b610db0611a98565b6000838152600260208190526040909120015415610e2a576040517f08c379a000000000000000000000000000000000000000000000000000000000815260206004820152601360248201527f706f6f6c20616c72656164792065786973747300000000000000000000000000604482015260640161078c565b8160066000828254610e3c91906125f3565b90915550506040805160a0810182526000808252602080830185815283850186815260608501888152608086018581528a86526002948590528786209651875592516001808801919091559151938601939093559151600385015551600493840155825490810183559190527f8a35acfbc15ff81a39ae7d344fd709f28e8600b4aa8c65c6b64bfe7fe36bd19b018490555183907fa6b36ea399c1eae2ba98a011138f78722b48f46ad93349269348ccc6e8f1cced90610eff9085815260200190565b60405180910390a2505050565b610f3e6040518060a0016040528060008152602001600081526020016000815260200160008152602001600081525090565b610f46611b19565b610f4f82611002565b9050610f5a60018055565b919050565b610f67611b19565b610f6f612285565b610f7860018055565b565b60048181548110610f8a57600080fd5b600091825260209091200154905081565b610fa3611a98565b610f7860006122ce565b60008184101580610fbd57508284115b15610fca57506000610fef565b818311610fe257610fdb848461260b565b9050610fef565b610fec848361260b565b90505b9392505050565b6000610da28242612343565b6110346040518060a0016040528060008152602001600081526020016000815260200160008152602001600081525090565b506000818152600260208181526040808420815160a08101835281548152600182015481850152938101548483015260038082015460608601526004909101546080850152858552825280842080548251818502810185019093528083529394939192909190849084015b828210156110ef578382906000526020600020906003020160405180606001604052908160008201548152602001600182015481526020016002820154815250508152602001906001019061109f565b505050509050816040015142116111065750919050565b6040517f654c9ece000000000000000000000000000000000000000000000000000000008152600481018490526000907f000000000000000000000000000000000000000000000000000000000000000073ffffffffffffffffffffffffffffffffffffffff169063654c9ece9060240160206040518083038186803b15801561118f57600080fd5b505afa1580156111a3573d6000803e3d6000fd5b505050506040513d601f19601f820116820180604052508101906111c791906125ab565b905080611232576111d88442612343565b42111561122b5742604084810182905284518151928352602083018490529082015284907f3be3541fc42237d611b30329040bfa4569541d156560acdbbae57640d20b8f46906060015b60405180910390a25b5050919050565b60005b825181101561137457600061126c85604001514286858151811061125b5761125b612622565b602002602001015160200151610fad565b9050806112795750611364565b83828151811061128b5761128b612622565b6020026020010151602001514211156112ca578382815181106112b0576112b0612622565b6020026020010151602001518560400181815250506112d1565b4260408601525b600060065486606001518685815181106112ed576112ed612622565b602002602001015160400151846113049190612651565b61130e9190612651565b611318919061268e565b9050836113457f000000000000000000000000000000000000000000000000000000000000000083612651565b61134f919061268e565b8651879061135e9083906125f3565b90525050505b61136d816126c9565b9050611235565b506000848152600260208181526040928390208651808255878301516001830155878501519382018490556060808901516003840155608089015160049093019290925584519384529183018590529282015285917f3be3541fc42237d611b30329040bfa4569541d156560acdbbae57640d20b8f469101611222565b6113f9611a98565b73ffffffffffffffffffffffffffffffffffffffff811661149c576040517f08c379a000000000000000000000000000000000000000000000000000000000815260206004820152602660248201527f4f776e61626c653a206e6577206f776e657220697320746865207a65726f206160448201527f6464726573730000000000000000000000000000000000000000000000000000606482015260840161078c565b6114a5816122ce565b50565b3373ffffffffffffffffffffffffffffffffffffffff7f0000000000000000000000000000000000000000000000000000000000000000161461156d576040517f08c379a000000000000000000000000000000000000000000000000000000000815260206004820152603c60248201527f6f6e6c794469737472696275746f7256323a206f6e6c7920446973747269627560448201527f746f7256322063616e2063616c6c20746869732066756e6374696f6e00000000606482015260840161078c565b611575611b19565b600061158084611002565b600085815260056020908152604080832073ffffffffffffffffffffffffffffffffffffffff881684529091528120919250807f0000000000000000000000000000000000000000000000000000000000000000156115e05750476116a0565b6040517f70a082310000000000000000000000000000000000000000000000000000000081523060048201527f000000000000000000000000000000000000000000000000000000000000000073ffffffffffffffffffffffffffffffffffffffff16906370a082319060240160206040518083038186803b15801561166557600080fd5b505afa158015611679573d6000803e3d6000fd5b505050506040513d601f19601f8201168201806040525081019061169d91906125ab565b90505b8254156118a7576001830154845184547f0000000000000000000000000000000000000000000000000000000000000000916116db91612651565b6116e5919061268e565b6116ef919061260b565b915081156118a7577f00000000000000000000000000000000000000000000000000000000000000001561181857808211156117f65760008673ffffffffffffffffffffffffffffffffffffffff16826040515b60006040518083038185875af1925050503d8060008114611780576040519150601f19603f3d011682016040523d82523d6000602084013e611785565b606091505b50509050806117f0576040517f08c379a000000000000000000000000000000000000000000000000000000000815260206004820152600f60248201527f5472616e73666572206661696c65640000000000000000000000000000000000604482015260640161078c565b506118a7565b60008673ffffffffffffffffffffffffffffffffffffffff1683604051611743565b808211156118665761186173ffffffffffffffffffffffffffffffffffffffff7f0000000000000000000000000000000000000000000000000000000000000000168783611e68565b6118a7565b6118a773ffffffffffffffffffffffffffffffffffffffff7f0000000000000000000000000000000000000000000000000000000000000000168784611e68565b84835583517f0000000000000000000000000000000000000000000000000000000000000000906118d89087612651565b6118e2919061268e565b600184015560405182815273ffffffffffffffffffffffffffffffffffffffff8716907fd1072bb52c3131d0c96197b73fb8a45637e30f8b6664fc142310cc9b242859b49060200160405180910390a25050505061091860018055565b600082815260056020908152604080832073ffffffffffffffffffffffffffffffffffffffff8516845290915281208054600190910154610fef918591611b8d565b73ffffffffffffffffffffffffffffffffffffffff163b151590565b60408051600481526024810182526020810180517bffffffffffffffffffffffffffffffffffffffffffffffffffffffff167f313ce5670000000000000000000000000000000000000000000000000000000017905290516000918291829173ffffffffffffffffffffffffffffffffffffffff861691611a1e9190612702565b600060405180830381855afa9150503d8060008114611a59576040519150601f19603f3d011682016040523d82523d6000602084013e611a5e565b606091505b5091509150818015611a71575080516020145b611a7c576012611a90565b80806020019051810190611a90919061273d565b949350505050565b60005473ffffffffffffffffffffffffffffffffffffffff163314610f78576040517f08c379a000000000000000000000000000000000000000000000000000000000815260206004820181905260248201527f4f776e61626c653a2063616c6c6572206973206e6f7420746865206f776e6572604482015260640161078c565b60026001541415611b86576040517f08c379a000000000000000000000000000000000000000000000000000000000815260206004820152601f60248201527f5265656e7472616e637947756172643a207265656e7472616e742063616c6c00604482015260640161078c565b6002600155565b6000838152600260208181526040808420815160a08101835281548152600182015481850152938101548483015260038082015460608601526004909101546080850152878552825280842080548251818502810185019093528083528593849084015b82821015611c415783829060005260206000209060030201604051806060016040529081600082015481526020016001820154815260200160028201548152505081526020019060010190611bf1565b505084516040517f654c9ece000000000000000000000000000000000000000000000000000000008152600481018b905293945092600092507f000000000000000000000000000000000000000000000000000000000000000073ffffffffffffffffffffffffffffffffffffffff16915063654c9ece9060240160206040518083038186803b158015611cd457600080fd5b505afa158015611ce8573d6000803e3d6000fd5b505050506040513d601f19601f82011682018060405250810190611d0c91906125ab565b9050836040015142118015611d2057508015155b15611e1c57604084015160005b8451811015611e19576000611d4f834288858151811061125b5761125b612622565b905080611d5c5750611e09565b858281518110611d6e57611d6e612622565b602002602001015160200151925060006006548860600151888581518110611d9857611d98612622565b60200260200101516040015184611daf9190612651565b611db99190612651565b611dc3919061268e565b905084611df07f000000000000000000000000000000000000000000000000000000000000000083612651565b611dfa919061268e565b611e0490876125f3565b955050505b611e12816126c9565b9050611d2d565b50505b857f0000000000000000000000000000000000000000000000000000000000000000611e48848a612651565b611e52919061268e565b611e5c919061260b565b98975050505050505050565b6040805173ffffffffffffffffffffffffffffffffffffffff8481166024830152604480830185905283518084039091018152606490920183526020820180517bffffffffffffffffffffffffffffffffffffffffffffffffffffffff167fa9059cbb000000000000000000000000000000000000000000000000000000001790529151600092839290871691611eff9190612702565b6000604051808303816000865af19150503d8060008114611f3c576040519150601f19603f3d011682016040523d82523d6000602084013e611f41565b606091505b5091509150818015611f6b575080511580611f6b575080806020019051810190611f6b9190612760565b611fd1576040517f08c379a000000000000000000000000000000000000000000000000000000000815260206004820152601c60248201527f426f72696e6745524332303a205472616e73666572206661696c656400000000604482015260640161078c565b5050505050565b6040805173ffffffffffffffffffffffffffffffffffffffff85811660248301528481166044830152606480830185905283518084039091018152608490920183526020820180517bffffffffffffffffffffffffffffffffffffffffffffffffffffffff167f23b872dd0000000000000000000000000000000000000000000000000000000017905291516000928392908816916120779190612702565b6000604051808303816000865af19150503d80600081146120b4576040519150601f19603f3d011682016040523d82523d6000602084013e6120b9565b606091505b50915091508180156120e35750805115806120e35750808060200190518101906120e39190612760565b612149576040517f08c379a000000000000000000000000000000000000000000000000000000000815260206004820181905260248201527f426f72696e6745524332303a205472616e7366657246726f6d206661696c6564604482015260640161078c565b505050505050565b600082815260036020908152604080832080548251818502810185019093528083528493849084015b828210156121ca578382906000526020600020906003020160405180606001604052908160008201548152602001600182015481526020016002820154815250508152602001906001019061217a565b50505060008681526002602052604090208251929350919050806121f45760009350505050610da2565b60005b818110156122785783818151811061221157612211612622565b602002602001015160200151861161226857600654836003015485838151811061223d5761223d612622565b6020026020010151604001516122539190612651565b61225d919061268e565b945050505050610da2565b612271816126c9565b90506121f7565b5060009695505050505050565b60045460005b818110156122ca576122b9600482815481106122a9576122a9612622565b9060005260206000200154611002565b506122c3816126c9565b905061228b565b5050565b6000805473ffffffffffffffffffffffffffffffffffffffff8381167fffffffffffffffffffffffff0000000000000000000000000000000000000000831681178455604051919092169283917f8be0079c531659141344cd1fd0a4f28419497f9722a3daafe3b4186f6b6457e09190a35050565b600082815260036020908152604080832080548251818502810185019093528083528493849084015b828210156123bc578382906000526020600020906003020160405180606001604052908160008201548152602001600182015481526020016002820154815250508152602001906001019061236c565b505082519293505050806123d557600092505050610da2565b60005b8181101561243c578281815181106123f2576123f2612622565b602002602001015160200151851161242c5782818151811061241657612416612622565b6020026020010151602001519350505050610da2565b612435816126c9565b90506123d8565b508161244960018361260b565b8151811061245957612459612622565b6020026020010151602001519250505092915050565b6000806040838503121561248257600080fd5b50508035926020909101359150565b6000602082840312156124a357600080fd5b5035919050565b803573ffffffffffffffffffffffffffffffffffffffff81168114610f5a57600080fd5b6000806000606084860312156124e357600080fd5b83359250602084013591506124fa604085016124aa565b90509250925092565b60008060006060848603121561251857600080fd5b505081359360208301359350604090920135919050565b6000806040838503121561254257600080fd5b82359150612552602084016124aa565b90509250929050565b60006020828403121561256d57600080fd5b610fef826124aa565b60008060006060848603121561258b57600080fd5b8335925061259b602085016124aa565b9150604084013590509250925092565b6000602082840312156125bd57600080fd5b5051919050565b7f4e487b7100000000000000000000000000000000000000000000000000000000600052601160045260246000fd5b60008219821115612606576126066125c4565b500190565b60008282101561261d5761261d6125c4565b500390565b7f4e487b7100000000000000000000000000000000000000000000000000000000600052603260045260246000fd5b6000817fffffffffffffffffffffffffffffffffffffffffffffffffffffffffffffffff0483118215151615612689576126896125c4565b500290565b6000826126c4577f4e487b7100000000000000000000000000000000000000000000000000000000600052601260045260246000fd5b500490565b60007fffffffffffffffffffffffffffffffffffffffffffffffffffffffffffffffff8214156126fb576126fb6125c4565b5060010190565b6000825160005b818110156127235760208186018101518583015201612709565b81811115612732576000828501525b509190910192915050565b60006020828403121561274f57600080fd5b815160ff81168114610fef57600080fd5b60006020828403121561277257600080fd5b81518015158114610fef57600080fdfea2646970667358221220316adba84484eb1f66e55c4255cbfa3596366181df2ea38b7a2801f3fbb8d1c764736f6c63430008090033",
  "linkReferences": {},
  "deployedLinkReferences": {}
}