{
  "_format": "hh-sol-artifact-1",
  "contractName": "LiquidationEngine",
  "sourceName": "contracts/stablecoin/core/LiquidationEngine.sol",
  "abi": [
    {
      "anonymous": false,
      "inputs": [],
      "name": "LogCage",
      "type": "event"
    },
    {
      "anonymous": false,
      "inputs": [],
      "name": "LogUncage",
      "type": "event"
    },
    {
      "anonymous": false,
      "inputs": [
        {
          "indexed": false,
          "internalType": "address",
          "name": "account",
          "type": "address"
        }
      ],
      "name": "Paused",
      "type": "event"
    },
    {
      "anonymous": false,
      "inputs": [
        {
          "indexed": false,
          "internalType": "address",
          "name": "account",
          "type": "address"
        }
      ],
      "name": "Unpaused",
      "type": "event"
    },
    {
      "inputs": [],
      "name": "bookKeeper",
      "outputs": [
        {
          "internalType": "contract IBookKeeper",
          "name": "",
          "type": "address"
        }
      ],
      "stateMutability": "view",
      "type": "function"
    },
    {
      "inputs": [],
      "name": "cage",
      "outputs": [],
      "stateMutability": "nonpayable",
      "type": "function"
    },
    {
      "inputs": [
        {
          "internalType": "address",
          "name": "_bookKeeper",
          "type": "address"
        },
        {
          "internalType": "address",
          "name": "_systemDebtEngine",
          "type": "address"
        }
      ],
      "name": "initialize",
      "outputs": [],
      "stateMutability": "nonpayable",
      "type": "function"
    },
    {
      "inputs": [
        {
          "internalType": "bytes32",
          "name": "_collateralPoolId",
          "type": "bytes32"
        },
        {
          "internalType": "address",
          "name": "_positionAddress",
          "type": "address"
        },
        {
          "internalType": "uint256",
          "name": "_debtShareToBeLiquidated",
          "type": "uint256"
        },
        {
          "internalType": "uint256",
          "name": "_maxDebtShareToBeLiquidated",
          "type": "uint256"
        },
        {
          "internalType": "address",
          "name": "_collateralRecipient",
          "type": "address"
        },
        {
          "internalType": "bytes",
          "name": "_data",
          "type": "bytes"
        }
      ],
      "name": "liquidate",
      "outputs": [],
      "stateMutability": "nonpayable",
      "type": "function"
    },
    {
      "inputs": [],
      "name": "live",
      "outputs": [
        {
          "internalType": "uint256",
          "name": "",
          "type": "uint256"
        }
      ],
      "stateMutability": "view",
      "type": "function"
    },
    {
      "inputs": [],
      "name": "pause",
      "outputs": [],
      "stateMutability": "nonpayable",
      "type": "function"
    },
    {
      "inputs": [],
      "name": "paused",
      "outputs": [
        {
          "internalType": "bool",
          "name": "",
          "type": "bool"
        }
      ],
      "stateMutability": "view",
      "type": "function"
    },
    {
      "inputs": [],
      "name": "systemDebtEngine",
      "outputs": [
        {
          "internalType": "contract ISystemDebtEngine",
          "name": "",
          "type": "address"
        }
      ],
      "stateMutability": "view",
      "type": "function"
    },
    {
      "inputs": [],
      "name": "uncage",
      "outputs": [],
      "stateMutability": "nonpayable",
      "type": "function"
    },
    {
      "inputs": [],
      "name": "unpause",
      "outputs": [],
      "stateMutability": "nonpayable",
      "type": "function"
    }
  ],
  "bytecode": "0x608060405234801561001057600080fd5b50612aaa806100206000396000f3fe608060405234801561001057600080fd5b50600436106100be5760003560e01c80636924500911610076578063957aa58c1161005b578063957aa58c14610136578063d63b23b21461014b578063e3b3932a14610153576100be565b806369245009146101265780638456cb591461012e576100be565b80633f4ba83a116100a75780633f4ba83a146100f6578063485cc955146100fe5780635c975abb14610111576100be565b80631ebce593146100c357806328e49a42146100d8575b600080fd5b6100d66100d136600461236a565b61015b565b005b6100e0610c28565b6040516100ed919061243d565b60405180910390f35b6100d6610c44565b6100d661010c3660046122fa565b610f40565b6101196111cd565b6040516100ed919061245e565b6100d66111d6565b6100d6611534565b61013e61182d565b6040516100ed9190612469565b6100d6611833565b6100e0611b8f565b600260655414156101a1576040517f08c379a0000000000000000000000000000000000000000000000000000000008152600401610198906129e4565b60405180910390fd5b60026065556101ae6111cd565b156101e5576040517f08c379a000000000000000000000000000000000000000000000000000000000815260040161019890612794565b609954600114610221576040517f08c379a000000000000000000000000000000000000000000000000000000000815260040161019890612726565b84610258576040517f08c379a00000000000000000000000000000000000000000000000000000000081526004016101989061266c565b8361028f576040517f08c379a0000000000000000000000000000000000000000000000000000000008152600401610198906126c9565b610297612271565b6097546040517f29d8859400000000000000000000000000000000000000000000000000000000815273ffffffffffffffffffffffffffffffffffffffff909116906329d88594906102ef908b908b90600401612472565b604080518083038186803b15801561030657600080fd5b505afa15801561031a573d6000803e3d6000fd5b505050506040513d601f19601f8201168201806040525081019061033e919061241a565b6020830152815261034d6122a7565b609760009054906101000a900473ffffffffffffffffffffffffffffffffffffffff1673ffffffffffffffffffffffffffffffffffffffff1663d86824616040518163ffffffff1660e01b815260040160206040518083038186803b1580156103b557600080fd5b505afa1580156103c9573d6000803e3d6000fd5b505050506040513d601f19601f820116820180604052508101906103ed91906122de565b73ffffffffffffffffffffffffffffffffffffffff166328c84bbd8a6040518263ffffffff1660e01b81526004016104259190612469565b60206040518083038186803b15801561043d57600080fd5b505afa158015610451573d6000803e3d6000fd5b505050506040513d601f19601f8201168201806040525081019061047591906122de565b73ffffffffffffffffffffffffffffffffffffffff9081168252609754604080517fd86824610000000000000000000000000000000000000000000000000000000081529051919092169163d8682461916004808301926020929190829003018186803b1580156104e557600080fd5b505afa1580156104f9573d6000803e3d6000fd5b505050506040513d601f19601f8201168201806040525081019061051d91906122de565b73ffffffffffffffffffffffffffffffffffffffff16638c492d078a6040518263ffffffff1660e01b81526004016105559190612469565b60206040518083038186803b15801561056d57600080fd5b505afa158015610581573d6000803e3d6000fd5b505050506040513d601f19601f820116820180604052508101906105a59190612352565b602080830191909152609754604080517fd8682461000000000000000000000000000000000000000000000000000000008152905173ffffffffffffffffffffffffffffffffffffffff9092169263d868246192600480840193829003018186803b15801561061357600080fd5b505afa158015610627573d6000803e3d6000fd5b505050506040513d601f19601f8201168201806040525081019061064b91906122de565b73ffffffffffffffffffffffffffffffffffffffff1663a09b0fe08a6040518263ffffffff1660e01b81526004016106839190612469565b60206040518083038186803b15801561069b57600080fd5b505afa1580156106af573d6000803e3d6000fd5b505050506040513d601f19601f820116820180604052508101906106d39190612352565b6040820152805173ffffffffffffffffffffffffffffffffffffffff8116610727576040517f08c379a00000000000000000000000000000000000000000000000000000000081526004016101989061257b565b6000826020015111801561075b57506040820151602084015161074991611bab565b6020830151845161075991611bab565b105b610791576040517f08c379a000000000000000000000000000000000000000000000000000000000815260040161019890612987565b6097546098546040517fb4ac08bb00000000000000000000000000000000000000000000000000000000815273ffffffffffffffffffffffffffffffffffffffff9283169263b4ac08bb926107eb9291169060040161243d565b60206040518083038186803b15801561080357600080fd5b505afa158015610817573d6000803e3d6000fd5b505050506040513d601f19601f8201168201806040525081019061083b9190612352565b8360400181815250508073ffffffffffffffffffffffffffffffffffffffff166316d8d2918b856020015186600001518d8d8d338e8e8e6040518b63ffffffff1660e01b81526004016108979a999897969594939291906124d8565b600060405180830381600087803b1580156108b157600080fd5b505af11580156108c5573d6000803e3d6000fd5b50506097546040517f29d8859400000000000000000000000000000000000000000000000000000000815273ffffffffffffffffffffffffffffffffffffffff90911692506329d885949150610921908d908d90600401612472565b604080518083038186803b15801561093857600080fd5b505afa15801561094c573d6000803e3d6000fd5b505050506040513d601f19601f82011682018060405250810190610970919061241a565b6080850181905260608501919091526020840151116109bb576040517f08c379a00000000000000000000000000000000000000000000000000000000081526004016101989061292a565b6109e482604001516109de85608001518660200151611c0890919063ffffffff16565b90611bab565b60a0840181905260408085015160975460985492517fb4ac08bb000000000000000000000000000000000000000000000000000000008152610aa59373ffffffffffffffffffffffffffffffffffffffff9283169263b4ac08bb92610a4f929091169060040161243d565b60206040518083038186803b158015610a6757600080fd5b505afa158015610a7b573d6000803e3d6000fd5b505050506040513d601f19601f82011682018060405250810190610a9f9190612352565b90611c08565b1015610add576040517f08c379a00000000000000000000000000000000000000000000000000000000081526004016101989061260f565b6060830151158015610af3575060008360800151115b15610c17577f8000000000000000000000000000000000000000000000000000000000000000836080015110610b55576040517f08c379a000000000000000000000000000000000000000000000000000000000815260040161019890612828565b609760009054906101000a900473ffffffffffffffffffffffffffffffffffffffff1673ffffffffffffffffffffffffffffffffffffffff1663b1df25948b8b8c609860009054906101000a900473ffffffffffffffffffffffffffffffffffffffff16600089608001516000036040518763ffffffff1660e01b8152600401610be496959493929190612496565b600060405180830381600087803b158015610bfe57600080fd5b505af1158015610c12573d6000803e3d6000fd5b505050505b505060016065555050505050505050565b60985473ffffffffffffffffffffffffffffffffffffffff1681565b609754604080517fc8cc243f000000000000000000000000000000000000000000000000000000008152905160009273ffffffffffffffffffffffffffffffffffffffff169163c8cc243f916004808301926020929190829003018186803b158015610caf57600080fd5b505afa158015610cc3573d6000803e3d6000fd5b505050506040513d601f19601f82011682018060405250810190610ce791906122de565b90508073ffffffffffffffffffffffffffffffffffffffff166391d148548273ffffffffffffffffffffffffffffffffffffffff1663e58378bb6040518163ffffffff1660e01b815260040160206040518083038186803b158015610d4b57600080fd5b505afa158015610d5f573d6000803e3d6000fd5b505050506040513d601f19601f82011682018060405250810190610d839190612352565b336040518363ffffffff1660e01b8152600401610da1929190612472565b60206040518083038186803b158015610db957600080fd5b505afa158015610dcd573d6000803e3d6000fd5b505050506040513d601f19601f82011682018060405250810190610df19190612332565b80610eff57508073ffffffffffffffffffffffffffffffffffffffff166391d148548273ffffffffffffffffffffffffffffffffffffffff1663b536818a6040518163ffffffff1660e01b815260040160206040518083038186803b158015610e5957600080fd5b505afa158015610e6d573d6000803e3d6000fd5b505050506040513d601f19601f82011682018060405250810190610e919190612352565b336040518363ffffffff1660e01b8152600401610eaf929190612472565b60206040518083038186803b158015610ec757600080fd5b505afa158015610edb573d6000803e3d6000fd5b505050506040513d601f19601f82011682018060405250810190610eff9190612332565b610f35576040517f08c379a0000000000000000000000000000000000000000000000000000000008152600401610198906128bc565b610f3d611c4a565b50565b600054610100900460ff1680610f595750610f59611cf0565b80610f67575060005460ff16155b610f9d576040517f08c379a0000000000000000000000000000000000000000000000000000000008152600401610198906127cb565b600054610100900460ff1615801561100357600080547fffffffffffffffffffffffffffffffffffffffffffffffffffffffffffffff007fffffffffffffffffffffffffffffffffffffffffffffffffffffffffffff00ff909116610100171660011790555b61100b611d01565b611013611e05565b8273ffffffffffffffffffffffffffffffffffffffff16636f3a3bfc6040518163ffffffff1660e01b8152600401602060405180830381600087803b15801561105b57600080fd5b505af115801561106f573d6000803e3d6000fd5b505050506040513d601f19601f820116820180604052508101906110939190612352565b5082609760006101000a81548173ffffffffffffffffffffffffffffffffffffffff021916908373ffffffffffffffffffffffffffffffffffffffff1602179055508173ffffffffffffffffffffffffffffffffffffffff16632a608d5b6040518163ffffffff1660e01b815260040160206040518083038186803b15801561111b57600080fd5b505afa15801561112f573d6000803e3d6000fd5b505050506040513d601f19601f820116820180604052508101906111539190612352565b50609880547fffffffffffffffffffffffff00000000000000000000000000000000000000001673ffffffffffffffffffffffffffffffffffffffff8416179055600160995580156111c857600080547fffffffffffffffffffffffffffffffffffffffffffffffffffffffffffff00ff1690555b505050565b60335460ff1690565b609754604080517fc8cc243f000000000000000000000000000000000000000000000000000000008152905160009273ffffffffffffffffffffffffffffffffffffffff169163c8cc243f916004808301926020929190829003018186803b15801561124157600080fd5b505afa158015611255573d6000803e3d6000fd5b505050506040513d601f19601f8201168201806040525081019061127991906122de565b90508073ffffffffffffffffffffffffffffffffffffffff166391d148548273ffffffffffffffffffffffffffffffffffffffff1663e58378bb6040518163ffffffff1660e01b815260040160206040518083038186803b1580156112dd57600080fd5b505afa1580156112f1573d6000803e3d6000fd5b505050506040513d601f19601f820116820180604052508101906113159190612352565b336040518363ffffffff1660e01b8152600401611333929190612472565b60206040518083038186803b15801561134b57600080fd5b505afa15801561135f573d6000803e3d6000fd5b505050506040513d601f19601f820116820180604052508101906113839190612332565b8061149157508073ffffffffffffffffffffffffffffffffffffffff166391d148548273ffffffffffffffffffffffffffffffffffffffff1663d7a47a696040518163ffffffff1660e01b815260040160206040518083038186803b1580156113eb57600080fd5b505afa1580156113ff573d6000803e3d6000fd5b505050506040513d601f19601f820116820180604052508101906114239190612352565b336040518363ffffffff1660e01b8152600401611441929190612472565b60206040518083038186803b15801561145957600080fd5b505afa15801561146d573d6000803e3d6000fd5b505050506040513d601f19601f820116820180604052508101906114919190612332565b6114c7576040517f08c379a000000000000000000000000000000000000000000000000000000000815260040161019890612a1b565b609954600114611503576040517f08c379a000000000000000000000000000000000000000000000000000000000815260040161019890612726565b600060998190556040517fbf689b4aae670d200b1d2b971ace2e0c3bef88a9c5e93f36705c7b86eab630b99190a150565b609754604080517fc8cc243f000000000000000000000000000000000000000000000000000000008152905160009273ffffffffffffffffffffffffffffffffffffffff169163c8cc243f916004808301926020929190829003018186803b15801561159f57600080fd5b505afa1580156115b3573d6000803e3d6000fd5b505050506040513d601f19601f820116820180604052508101906115d791906122de565b90508073ffffffffffffffffffffffffffffffffffffffff166391d148548273ffffffffffffffffffffffffffffffffffffffff1663e58378bb6040518163ffffffff1660e01b815260040160206040518083038186803b15801561163b57600080fd5b505afa15801561164f573d6000803e3d6000fd5b505050506040513d601f19601f820116820180604052508101906116739190612352565b336040518363ffffffff1660e01b8152600401611691929190612472565b60206040518083038186803b1580156116a957600080fd5b505afa1580156116bd573d6000803e3d6000fd5b505050506040513d601f19601f820116820180604052508101906116e19190612332565b806117ef57508073ffffffffffffffffffffffffffffffffffffffff166391d148548273ffffffffffffffffffffffffffffffffffffffff1663b536818a6040518163ffffffff1660e01b815260040160206040518083038186803b15801561174957600080fd5b505afa15801561175d573d6000803e3d6000fd5b505050506040513d601f19601f820116820180604052508101906117819190612352565b336040518363ffffffff1660e01b815260040161179f929190612472565b60206040518083038186803b1580156117b757600080fd5b505afa1580156117cb573d6000803e3d6000fd5b505050506040513d601f19601f820116820180604052508101906117ef9190612332565b611825576040517f08c379a0000000000000000000000000000000000000000000000000000000008152600401610198906128bc565b610f3d611ed0565b60995481565b609754604080517fc8cc243f000000000000000000000000000000000000000000000000000000008152905160009273ffffffffffffffffffffffffffffffffffffffff169163c8cc243f916004808301926020929190829003018186803b15801561189e57600080fd5b505afa1580156118b2573d6000803e3d6000fd5b505050506040513d601f19601f820116820180604052508101906118d691906122de565b90508073ffffffffffffffffffffffffffffffffffffffff166391d148548273ffffffffffffffffffffffffffffffffffffffff1663e58378bb6040518163ffffffff1660e01b815260040160206040518083038186803b15801561193a57600080fd5b505afa15801561194e573d6000803e3d6000fd5b505050506040513d601f19601f820116820180604052508101906119729190612352565b336040518363ffffffff1660e01b8152600401611990929190612472565b60206040518083038186803b1580156119a857600080fd5b505afa1580156119bc573d6000803e3d6000fd5b505050506040513d601f19601f820116820180604052508101906119e09190612332565b80611aee57508073ffffffffffffffffffffffffffffffffffffffff166391d148548273ffffffffffffffffffffffffffffffffffffffff1663d7a47a696040518163ffffffff1660e01b815260040160206040518083038186803b158015611a4857600080fd5b505afa158015611a5c573d6000803e3d6000fd5b505050506040513d601f19601f82011682018060405250810190611a809190612352565b336040518363ffffffff1660e01b8152600401611a9e929190612472565b60206040518083038186803b158015611ab657600080fd5b505afa158015611aca573d6000803e3d6000fd5b505050506040513d601f19601f82011682018060405250810190611aee9190612332565b611b24576040517f08c379a000000000000000000000000000000000000000000000000000000000815260040161019890612a1b565b60995415611b5e576040517f08c379a0000000000000000000000000000000000000000000000000000000008152600401610198906128f3565b60016099556040517f1868a6ced217213f36be87ba9aee25cde5381b42e85c8f88e73b18772c0bd07390600090a150565b60975473ffffffffffffffffffffffffffffffffffffffff1681565b600082611bba57506000611c02565b82820282848281611bc757fe5b0414611bff576040517f08c379a00000000000000000000000000000000000000000000000000000000081526004016101989061285f565b90505b92915050565b600082821115611c44576040517f08c379a00000000000000000000000000000000000000000000000000000000081526004016101989061275d565b50900390565b611c526111cd565b611c88576040517f08c379a0000000000000000000000000000000000000000000000000000000008152600401610198906125d8565b603380547fffffffffffffffffffffffffffffffffffffffffffffffffffffffffffffff001690557f5db9ee0a495bf2e6ff9c91a7834c1ba4fdd244a5e8aa4e537bd38aeae4b073aa611cd9611f5f565b604051611ce6919061243d565b60405180910390a1565b6000611cfb30611f63565b15905090565b600054610100900460ff1680611d1a5750611d1a611cf0565b80611d28575060005460ff16155b611d5e576040517f08c379a0000000000000000000000000000000000000000000000000000000008152600401610198906127cb565b600054610100900460ff16158015611dc457600080547fffffffffffffffffffffffffffffffffffffffffffffffffffffffffffffff007fffffffffffffffffffffffffffffffffffffffffffffffffffffffffffff00ff909116610100171660011790555b611dcc611f69565b611dd461205c565b8015610f3d57600080547fffffffffffffffffffffffffffffffffffffffffffffffffffffffffffff00ff16905550565b600054610100900460ff1680611e1e5750611e1e611cf0565b80611e2c575060005460ff16155b611e62576040517f08c379a0000000000000000000000000000000000000000000000000000000008152600401610198906127cb565b600054610100900460ff16158015611ec857600080547fffffffffffffffffffffffffffffffffffffffffffffffffffffffffffffff007fffffffffffffffffffffffffffffffffffffffffffffffffffffffffffff00ff909116610100171660011790555b611dd4612178565b611ed86111cd565b15611f0f576040517f08c379a000000000000000000000000000000000000000000000000000000000815260040161019890612794565b603380547fffffffffffffffffffffffffffffffffffffffffffffffffffffffffffffff001660011790557f62e78cea01bee320cd4e420270b5ea74000d11b0c9f74754ebdbfc544b05a258611cd95b3390565b3b151590565b600054610100900460ff1680611f825750611f82611cf0565b80611f90575060005460ff16155b611fc6576040517f08c379a0000000000000000000000000000000000000000000000000000000008152600401610198906127cb565b600054610100900460ff16158015611dd457600080547fffffffffffffffffffffffffffffffffffffffffffffffffffffffffffffff007fffffffffffffffffffffffffffffffffffffffffffffffffffffffffffff00ff909116610100171660011790558015610f3d57600080547fffffffffffffffffffffffffffffffffffffffffffffffffffffffffffff00ff16905550565b600054610100900460ff16806120755750612075611cf0565b80612083575060005460ff16155b6120b9576040517f08c379a0000000000000000000000000000000000000000000000000000000008152600401610198906127cb565b600054610100900460ff1615801561211f57600080547fffffffffffffffffffffffffffffffffffffffffffffffffffffffffffffff007fffffffffffffffffffffffffffffffffffffffffffffffffffffffffffff00ff909116610100171660011790555b603380547fffffffffffffffffffffffffffffffffffffffffffffffffffffffffffffff001690558015610f3d57600080547fffffffffffffffffffffffffffffffffffffffffffffffffffffffffffff00ff16905550565b600054610100900460ff16806121915750612191611cf0565b8061219f575060005460ff16155b6121d5576040517f08c379a0000000000000000000000000000000000000000000000000000000008152600401610198906127cb565b600054610100900460ff1615801561223b57600080547fffffffffffffffffffffffffffffffffffffffffffffffffffffffffffffff007fffffffffffffffffffffffffffffffffffffffffffffffffffffffffffff00ff909116610100171660011790555b60016065558015610f3d57600080547fffffffffffffffffffffffffffffffffffffffffffffffffffffffffffff00ff16905550565b6040518060c001604052806000815260200160008152602001600081526020016000815260200160008152602001600081525090565b6040518060600160405280600073ffffffffffffffffffffffffffffffffffffffff16815260200160008152602001600081525090565b6000602082840312156122ef578081fd5b8151611bff81612a52565b6000806040838503121561230c578081fd5b823561231781612a52565b9150602083013561232781612a52565b809150509250929050565b600060208284031215612343578081fd5b81518015158114611bff578182fd5b600060208284031215612363578081fd5b5051919050565b600080600080600080600060c0888a031215612384578283fd5b87359650602088013561239681612a52565b9550604088013594506060880135935060808801356123b481612a52565b925060a088013567ffffffffffffffff808211156123d0578384fd5b818a0191508a601f8301126123e3578384fd5b8135818111156123f1578485fd5b8b6020828501011115612402578485fd5b60208301945080935050505092959891949750929550565b6000806040838503121561242c578182fd5b505080516020909101519092909150565b73ffffffffffffffffffffffffffffffffffffffff91909116815260200190565b901515815260200190565b90815260200190565b91825273ffffffffffffffffffffffffffffffffffffffff16602082015260400190565b95865273ffffffffffffffffffffffffffffffffffffffff9485166020870152928416604086015292166060840152608083019190915260a082015260c00190565b60006101208c83528b60208401528a604084015273ffffffffffffffffffffffffffffffffffffffff808b1660608501528960808501528860a085015280881660c085015280871660e08501525080610100840152838184015250610140838582850137828401810191909152601f9092017fffffffffffffffffffffffffffffffffffffffffffffffffffffffffffffffe01601019998505050505050505050565b60208082526024908201527f5b4c69717569646174696f6e456e67696e655d206e6f742d7365742d7374726160408201527f7465677900000000000000000000000000000000000000000000000000000000606082015260800190565b60208082526014908201527f5061757361626c653a206e6f7420706175736564000000000000000000000000604082015260600190565b60208082526028908201527f5b4c69717569646174696f6e456e67696e655d207061796d656e742d6e6f742d60408201527f7265636569766564000000000000000000000000000000000000000000000000606082015260800190565b60208082526034908201527f5b4c69717569646174696f6e456e67696e655d207a65726f2d646562742d766160408201527f6c75652d746f2d62652d6c697175696461746564000000000000000000000000606082015260800190565b60208082526038908201527f5b4c69717569646174696f6e456e67696e655d207a65726f2d6d61782d64656260408201527f742d76616c75652d746f2d62652d6c6971756964617465640000000000000000606082015260800190565b6020808252601c908201527f5b4c69717569646174696f6e456e67696e655d206e6f742d6c69766500000000604082015260600190565b6020808252601e908201527f536166654d6174683a207375627472616374696f6e206f766572666c6f770000604082015260600190565b60208082526010908201527f5061757361626c653a2070617573656400000000000000000000000000000000604082015260600190565b6020808252602e908201527f496e697469616c697a61626c653a20636f6e747261637420697320616c72656160408201527f647920696e697469616c697a6564000000000000000000000000000000000000606082015260800190565b6020808252601c908201527f5b4c69717569646174696f6e456e67696e655d206f766572666c6f7700000000604082015260600190565b60208082526021908201527f536166654d6174683a206d756c7469706c69636174696f6e206f766572666c6f60408201527f7700000000000000000000000000000000000000000000000000000000000000606082015260800190565b60208082526017908201527f21286f776e6572526f6c65206f7220676f76526f6c6529000000000000000000604082015260600190565b6020808252601d908201527f5b4c69717569646174696f6e456e67696e655d206e6f742d6361676564000000604082015260600190565b60208082526027908201527f5b4c69717569646174696f6e456e67696e655d20646562742d6e6f742d6c697160408201527f7569646174656400000000000000000000000000000000000000000000000000606082015260800190565b60208082526024908201527f5b4c69717569646174696f6e456e67696e655d20706f736974696f6e2d69732d60408201527f7361666500000000000000000000000000000000000000000000000000000000606082015260800190565b6020808252601f908201527f5265656e7472616e637947756172643a207265656e7472616e742063616c6c00604082015260600190565b6020808252601f908201527f21286f776e6572526f6c65206f722073686f7753746f70706572526f6c652900604082015260600190565b73ffffffffffffffffffffffffffffffffffffffff81168114610f3d57600080fdfea264697066735822122070cff25d15db8fb926875e162c081f9545aa93d3b5f1263ae8e95abe6717f9f164736f6c634300060c0033",
  "linkReferences": {},
  "deployedLinkReferences": {}
}