{
  "_format": "hh-sol-artifact-1",
  "contractName": "DexPriceOracle",
  "sourceName": "contracts/stablecoin/price-oracles/DexPriceOracle.sol",
  "abi": [
    {
      "inputs": [],
      "name": "dexFactory",
      "outputs": [
        {
          "internalType": "address",
          "name": "",
          "type": "address"
        }
      ],
      "stateMutability": "view",
      "type": "function"
    },
    {
      "inputs": [
        {
          "internalType": "address",
          "name": "token0",
          "type": "address"
        },
        {
          "internalType": "address",
          "name": "token1",
          "type": "address"
        }
      ],
      "name": "getPrice",
      "outputs": [
        {
          "internalType": "uint256",
          "name": "",
          "type": "uint256"
        },
        {
          "internalType": "uint256",
          "name": "",
          "type": "uint256"
        }
      ],
      "stateMutability": "view",
      "type": "function"
    },
    {
      "inputs": [
        {
          "internalType": "address",
          "name": "_dexFactory",
          "type": "address"
        }
      ],
      "name": "initialize",
      "outputs": [],
      "stateMutability": "nonpayable",
      "type": "function"
    }
  ],
  "bytecode": "0x608060405234801561001057600080fd5b506107f0806100206000396000f3fe608060405234801561001057600080fd5b50600436106100415760003560e01c8063ac41865a14610046578063b8d8fbb41461009a578063c4d66de8146100cb575b600080fd5b6100816004803603604081101561005c57600080fd5b5073ffffffffffffffffffffffffffffffffffffffff81358116916020013516610100565b6040805192835260208301919091528051918290030190f35b6100a26101bd565b6040805173ffffffffffffffffffffffffffffffffffffffff9092168252519081900360200190f35b6100fe600480360360208110156100e157600080fd5b503573ffffffffffffffffffffffffffffffffffffffff166101df565b005b6000808273ffffffffffffffffffffffffffffffffffffffff168473ffffffffffffffffffffffffffffffffffffffff1614156101535750670de0b6b3a7640000905067ffffffffffffffff42166101b6565b6000805481906101809062010000900473ffffffffffffffffffffffffffffffffffffffff168787610339565b909250905060006101a38261019d85670de0b6b3a764000061042d565b906104a9565b94505067ffffffffffffffff4216925050505b9250929050565b60005462010000900473ffffffffffffffffffffffffffffffffffffffff1681565b600054610100900460ff16806101f857506101f861052a565b80610206575060005460ff16155b61025b576040517f08c379a000000000000000000000000000000000000000000000000000000000815260040180806020018281038252602e81526020018061076c602e913960400191505060405180910390fd5b600054610100900460ff161580156102c157600080547fffffffffffffffffffffffffffffffffffffffffffffffffffffffffffffff007fffffffffffffffffffffffffffffffffffffffffffffffffffffffffffff00ff909116610100171660011790555b600080547fffffffffffffffffffff0000000000000000000000000000000000000000ffff166201000073ffffffffffffffffffffffffffffffffffffffff851602179055801561033557600080547fffffffffffffffffffffffffffffffffffffffffffffffffffffffffffff00ff1690555b5050565b6000806000610348858561053b565b509050610356868686610687565b50600080610365888888610687565b73ffffffffffffffffffffffffffffffffffffffff16630902f1ac6040518163ffffffff1660e01b815260040160606040518083038186803b1580156103aa57600080fd5b505afa1580156103be573d6000803e3d6000fd5b505050506040513d60608110156103d457600080fd5b5080516020909101516dffffffffffffffffffffffffffff918216935016905073ffffffffffffffffffffffffffffffffffffffff8781169084161461041b57808261041e565b81815b90999098509650505050505050565b60008261043c575060006104a3565b8282028284828161044957fe5b04146104a0576040517f08c379a000000000000000000000000000000000000000000000000000000000815260040180806020018281038252602181526020018061079a6021913960400191505060405180910390fd5b90505b92915050565b600080821161051957604080517f08c379a000000000000000000000000000000000000000000000000000000000815260206004820152601a60248201527f536166654d6174683a206469766973696f6e206279207a65726f000000000000604482015290519081900360640190fd5b81838161052257fe5b049392505050565b600061053530610742565b15905090565b6000808273ffffffffffffffffffffffffffffffffffffffff168473ffffffffffffffffffffffffffffffffffffffff1614156105c3576040517f08c379a00000000000000000000000000000000000000000000000000000000081526004018080602001828103825260238152602001806107496023913960400191505060405180910390fd5b8273ffffffffffffffffffffffffffffffffffffffff168473ffffffffffffffffffffffffffffffffffffffff16106105fd578284610600565b83835b909250905073ffffffffffffffffffffffffffffffffffffffff82166101b657604080517f08c379a000000000000000000000000000000000000000000000000000000000815260206004820152601c60248201527f50616e63616b654c6962726172793a205a45524f5f4144445245535300000000604482015290519081900360640190fd5b60008373ffffffffffffffffffffffffffffffffffffffff1663e6a4390584846040518363ffffffff1660e01b8152600401808373ffffffffffffffffffffffffffffffffffffffff1681526020018273ffffffffffffffffffffffffffffffffffffffff1681526020019250505060206040518083038186803b15801561070e57600080fd5b505afa158015610722573d6000803e3d6000fd5b505050506040513d602081101561073857600080fd5b5051949350505050565b3b15159056fe50616e63616b654c6962726172793a204944454e544943414c5f414444524553534553496e697469616c697a61626c653a20636f6e747261637420697320616c726561647920696e697469616c697a6564536166654d6174683a206d756c7469706c69636174696f6e206f766572666c6f77a2646970667358221220662be183b837c7efa787a709498f85a5b23cd8475d1ef86e14a40a57aa3b0e4c64736f6c634300060c0033",
  "linkReferences": {},
  "deployedLinkReferences": {}
}