{
  "_format": "hh-sol-artifact-1",
  "contractName": "RewarderBroken",
  "sourceName": "contracts/farm/v2/rewarders/RewarderBroken.sol",
  "abi": [
    {
      "inputs": [
        {
          "internalType": "address",
          "name": "",
          "type": "address"
        },
        {
          "internalType": "uint256",
          "name": "",
          "type": "uint256"
        }
      ],
      "name": "onTauReward",
      "outputs": [],
      "stateMutability": "pure",
      "type": "function"
    },
    {
      "inputs": [
        {
          "internalType": "address",
          "name": "",
          "type": "address"
        }
      ],
      "name": "pendingTokens",
      "outputs": [
        {
          "internalType": "uint256",
          "name": "",
          "type": "uint256"
        }
      ],
      "stateMutability": "pure",
      "type": "function"
    },
    {
      "inputs": [],
      "name": "rewardToken",
      "outputs": [
        {
          "internalType": "contract IBoringERC20",
          "name": "",
          "type": "address"
        }
      ],
      "stateMutability": "view",
      "type": "function"
    }
  ],
  "bytecode": "0x608060405234801561001057600080fd5b50610173806100206000396000f3fe608060405234801561001057600080fd5b50600436106100415760003560e01c80636a3f6a5f14610046578063c031a66f14610056578063f7c618c11461007c575b600080fd5b6100546100413660046100f1565b005b61006961006436600461011b565b6100c1565b6040519081526020015b60405180910390f35b60005461009c9073ffffffffffffffffffffffffffffffffffffffff1681565b60405173ffffffffffffffffffffffffffffffffffffffff9091168152602001610073565b6000806000fd5b803573ffffffffffffffffffffffffffffffffffffffff811681146100ec57600080fd5b919050565b6000806040838503121561010457600080fd5b61010d836100c8565b946020939093013593505050565b60006020828403121561012d57600080fd5b610136826100c8565b939250505056fea2646970667358221220964eb68ecc395d1a188962ba5c07820f8a06c02b2e0854c45da521f8c9ca4b9564736f6c63430008090033",
  "linkReferences": {},
  "deployedLinkReferences": {}
}