{
  "_format": "hh-sol-artifact-1",
  "contractName": "OraclePriceFeed",
  "sourceName": "contracts/stablecoin/price-feeders/OraclePriceFeed.sol",
  "abi": [
    {
      "anonymous": false,
      "inputs": [
        {
          "indexed": true,
          "internalType": "address",
          "name": "_caller",
          "type": "address"
        },
        {
          "indexed": false,
          "internalType": "uint256",
          "name": "_second",
          "type": "uint256"
        }
      ],
      "name": "LogSetPriceLife",
      "type": "event"
    },
    {
      "anonymous": false,
      "inputs": [
        {
          "indexed": false,
          "internalType": "address",
          "name": "account",
          "type": "address"
        }
      ],
      "name": "Paused",
      "type": "event"
    },
    {
      "anonymous": false,
      "inputs": [
        {
          "indexed": false,
          "internalType": "address",
          "name": "account",
          "type": "address"
        }
      ],
      "name": "Unpaused",
      "type": "event"
    },
    {
      "inputs": [],
      "name": "accessControlConfig",
      "outputs": [
        {
          "internalType": "contract IAccessControlConfig",
          "name": "",
          "type": "address"
        }
      ],
      "stateMutability": "view",
      "type": "function"
    },
    {
      "inputs": [
        {
          "internalType": "address",
          "name": "_oracle",
          "type": "address"
        },
        {
          "internalType": "address",
          "name": "_token0",
          "type": "address"
        },
        {
          "internalType": "address",
          "name": "_token1",
          "type": "address"
        },
        {
          "internalType": "address",
          "name": "_accessControlConfig",
          "type": "address"
        }
      ],
      "name": "initialize",
      "outputs": [],
      "stateMutability": "nonpayable",
      "type": "function"
    },
    {
      "inputs": [],
      "name": "oracle",
      "outputs": [
        {
          "internalType": "contract IOracle",
          "name": "",
          "type": "address"
        }
      ],
      "stateMutability": "view",
      "type": "function"
    },
    {
      "inputs": [],
      "name": "pause",
      "outputs": [],
      "stateMutability": "nonpayable",
      "type": "function"
    },
    {
      "inputs": [],
      "name": "paused",
      "outputs": [
        {
          "internalType": "bool",
          "name": "",
          "type": "bool"
        }
      ],
      "stateMutability": "view",
      "type": "function"
    },
    {
      "inputs": [],
      "name": "peekPrice",
      "outputs": [
        {
          "internalType": "bytes32",
          "name": "",
          "type": "bytes32"
        },
        {
          "internalType": "bool",
          "name": "",
          "type": "bool"
        }
      ],
      "stateMutability": "view",
      "type": "function"
    },
    {
      "inputs": [],
      "name": "priceLife",
      "outputs": [
        {
          "internalType": "uint256",
          "name": "",
          "type": "uint256"
        }
      ],
      "stateMutability": "view",
      "type": "function"
    },
    {
      "inputs": [],
      "name": "readPrice",
      "outputs": [
        {
          "internalType": "bytes32",
          "name": "",
          "type": "bytes32"
        }
      ],
      "stateMutability": "view",
      "type": "function"
    },
    {
      "inputs": [
        {
          "internalType": "uint256",
          "name": "_second",
          "type": "uint256"
        }
      ],
      "name": "setPriceLife",
      "outputs": [],
      "stateMutability": "nonpayable",
      "type": "function"
    },
    {
      "inputs": [],
      "name": "token0",
      "outputs": [
        {
          "internalType": "address",
          "name": "",
          "type": "address"
        }
      ],
      "stateMutability": "view",
      "type": "function"
    },
    {
      "inputs": [],
      "name": "token1",
      "outputs": [
        {
          "internalType": "address",
          "name": "",
          "type": "address"
        }
      ],
      "stateMutability": "view",
      "type": "function"
    },
    {
      "inputs": [],
      "name": "unpause",
      "outputs": [],
      "stateMutability": "nonpayable",
      "type": "function"
    }
  ],
  "bytecode": "0x608060405234801561001057600080fd5b506113fd806100206000396000f3fe608060405234801561001057600080fd5b50600436106100d45760003560e01c80637e91400f11610081578063d21220a71161005b578063d21220a71461018b578063ef36ee4714610193578063f8c8765e146101b0576100d4565b80637e91400f146101735780638456cb591461017b578063c8cc243f14610183576100d4565b80635af639c3116100b25780635af639c3146101355780635c975abb1461014f5780637dc0d1d01461016b576100d4565b80630dfe1681146100d9578063140d27201461010a5780633f4ba83a1461012b575b600080fd5b6100e16101fb565b6040805173ffffffffffffffffffffffffffffffffffffffff9092168252519081900360200190f35b610112610217565b6040805192835290151560208301528051918290030190f35b6101336102ea565b005b61013d6105b2565b60408051918252519081900360200190f35b6101576105b8565b604080519115158252519081900360200190f35b6100e16105c1565b61013d6105dd565b61013361068f565b6100e1610955565b6100e1610971565b610133600480360360208110156101a957600080fd5b503561098d565b610133600480360360808110156101c657600080fd5b5073ffffffffffffffffffffffffffffffffffffffff8135811691602081013582169160408201358116916060013516610bdc565b60675473ffffffffffffffffffffffffffffffffffffffff1681565b606554606754606854604080517fac41865a00000000000000000000000000000000000000000000000000000000815273ffffffffffffffffffffffffffffffffffffffff938416600482015291831660248301528051600094859485948594919092169263ac41865a926044808201939291829003018186803b15801561029e57600080fd5b505afa1580156102b2573d6000803e3d6000fd5b505050506040513d60408110156102c857600080fd5b5080516020909101519092509050816102e082610e08565b9350935050509091565b606654604080517fe58378bb000000000000000000000000000000000000000000000000000000008152905173ffffffffffffffffffffffffffffffffffffffff909216916391d1485491839163e58378bb91600480820192602092909190829003018186803b15801561035d57600080fd5b505afa158015610371573d6000803e3d6000fd5b505050506040513d602081101561038757600080fd5b5051604080517fffffffff0000000000000000000000000000000000000000000000000000000060e085901b1681526004810192909252336024830152516044808301926020929190829003018186803b1580156103e457600080fd5b505afa1580156103f8573d6000803e3d6000fd5b505050506040513d602081101561040e57600080fd5b50518061053d5750606654604080517fb536818a000000000000000000000000000000000000000000000000000000008152905173ffffffffffffffffffffffffffffffffffffffff909216916391d1485491839163b536818a91600480820192602092909190829003018186803b15801561048957600080fd5b505afa15801561049d573d6000803e3d6000fd5b505050506040513d60208110156104b357600080fd5b5051604080517fffffffff0000000000000000000000000000000000000000000000000000000060e085901b1681526004810192909252336024830152516044808301926020929190829003018186803b15801561051057600080fd5b505afa158015610524573d6000803e3d6000fd5b505050506040513d602081101561053a57600080fd5b50515b6105a857604080517f08c379a000000000000000000000000000000000000000000000000000000000815260206004820152601760248201527f21286f776e6572526f6c65206f7220676f76526f6c6529000000000000000000604482015290519081900360640190fd5b6105b0610e2a565b565b60695481565b60335460ff1690565b60655473ffffffffffffffffffffffffffffffffffffffff1681565b606554606754606854604080517fac41865a00000000000000000000000000000000000000000000000000000000815273ffffffffffffffffffffffffffffffffffffffff9384166004820152918316602483015280516000948594169263ac41865a926044808301939192829003018186803b15801561065d57600080fd5b505afa158015610671573d6000803e3d6000fd5b505050506040513d604081101561068757600080fd5b505191505090565b606654604080517fe58378bb000000000000000000000000000000000000000000000000000000008152905173ffffffffffffffffffffffffffffffffffffffff909216916391d1485491839163e58378bb91600480820192602092909190829003018186803b15801561070257600080fd5b505afa158015610716573d6000803e3d6000fd5b505050506040513d602081101561072c57600080fd5b5051604080517fffffffff0000000000000000000000000000000000000000000000000000000060e085901b1681526004810192909252336024830152516044808301926020929190829003018186803b15801561078957600080fd5b505afa15801561079d573d6000803e3d6000fd5b505050506040513d60208110156107b357600080fd5b5051806108e25750606654604080517fb536818a000000000000000000000000000000000000000000000000000000008152905173ffffffffffffffffffffffffffffffffffffffff909216916391d1485491839163b536818a91600480820192602092909190829003018186803b15801561082e57600080fd5b505afa158015610842573d6000803e3d6000fd5b505050506040513d602081101561085857600080fd5b5051604080517fffffffff0000000000000000000000000000000000000000000000000000000060e085901b1681526004810192909252336024830152516044808301926020929190829003018186803b1580156108b557600080fd5b505afa1580156108c9573d6000803e3d6000fd5b505050506040513d60208110156108df57600080fd5b50515b61094d57604080517f08c379a000000000000000000000000000000000000000000000000000000000815260206004820152601760248201527f21286f776e6572526f6c65206f7220676f76526f6c6529000000000000000000604482015290519081900360640190fd5b6105b0610f18565b60665473ffffffffffffffffffffffffffffffffffffffff1681565b60685473ffffffffffffffffffffffffffffffffffffffff1681565b606654604080517fe58378bb000000000000000000000000000000000000000000000000000000008152905173ffffffffffffffffffffffffffffffffffffffff909216916391d1485491839163e58378bb91600480820192602092909190829003018186803b158015610a0057600080fd5b505afa158015610a14573d6000803e3d6000fd5b505050506040513d6020811015610a2a57600080fd5b5051604080517fffffffff0000000000000000000000000000000000000000000000000000000060e085901b1681526004810192909252336024830152516044808301926020929190829003018186803b158015610a8757600080fd5b505afa158015610a9b573d6000803e3d6000fd5b505050506040513d6020811015610ab157600080fd5b5051610b1e57604080517f08c379a000000000000000000000000000000000000000000000000000000000815260206004820152600a60248201527f216f776e6572526f6c6500000000000000000000000000000000000000000000604482015290519081900360640190fd5b610e108110158015610b335750620151808111155b610b9e57604080517f08c379a000000000000000000000000000000000000000000000000000000000815260206004820152601e60248201527f4f7261636c655072696365466565642f6261642d70726963652d6c6966650000604482015290519081900360640190fd5b606981905560408051828152905133917f472c5e14bb804bd7b201c5c27f2ea820980b37ef7611806e7b3f6db6758f32e0919081900360200190a250565b600054610100900460ff1680610bf55750610bf5610fe0565b80610c03575060005460ff16155b610c58576040517f08c379a000000000000000000000000000000000000000000000000000000000815260040180806020018281038252602e815260200180611377602e913960400191505060405180910390fd5b600054610100900460ff16158015610cbe57600080547fffffffffffffffffffffffffffffffffffffffffffffffffffffffffffffff007fffffffffffffffffffffffffffffffffffffffffffffffffffffffffffff00ff909116610100171660011790555b610cc6610ff1565b6066805473ffffffffffffffffffffffffffffffffffffffff8085167fffffffffffffffffffffffff0000000000000000000000000000000000000000928316179092556065805488841692169190911790558481169084161415610d76576040517f08c379a00000000000000000000000000000000000000000000000000000000081526004018080602001828103825260238152602001806113a56023913960400191505060405180910390fd5b6067805473ffffffffffffffffffffffffffffffffffffffff8087167fffffffffffffffffffffffff0000000000000000000000000000000000000000928316179092556068805492861692909116919091179055620151806069558015610e0157600080547fffffffffffffffffffffffffffffffffffffffffffffffffffffffffffff00ff1690555b5050505050565b6000610e1382611115565b8015610e245750610e226105b8565b155b92915050565b610e326105b8565b610e9d57604080517f08c379a000000000000000000000000000000000000000000000000000000000815260206004820152601460248201527f5061757361626c653a206e6f7420706175736564000000000000000000000000604482015290519081900360640190fd5b603380547fffffffffffffffffffffffffffffffffffffffffffffffffffffffffffffff001690557f5db9ee0a495bf2e6ff9c91a7834c1ba4fdd244a5e8aa4e537bd38aeae4b073aa610eee61111f565b6040805173ffffffffffffffffffffffffffffffffffffffff9092168252519081900360200190a1565b610f206105b8565b15610f8c57604080517f08c379a000000000000000000000000000000000000000000000000000000000815260206004820152601060248201527f5061757361626c653a2070617573656400000000000000000000000000000000604482015290519081900360640190fd5b603380547fffffffffffffffffffffffffffffffffffffffffffffffffffffffffffffff001660011790557f62e78cea01bee320cd4e420270b5ea74000d11b0c9f74754ebdbfc544b05a258610eee61111f565b6000610feb30611123565b15905090565b600054610100900460ff168061100a575061100a610fe0565b80611018575060005460ff16155b61106d576040517f08c379a000000000000000000000000000000000000000000000000000000000815260040180806020018281038252602e815260200180611377602e913960400191505060405180910390fd5b600054610100900460ff161580156110d357600080547fffffffffffffffffffffffffffffffffffffffffffffffffffffffffffffff007fffffffffffffffffffffffffffffffffffffffffffffffffffffffffffff00ff909116610100171660011790555b6110db611129565b6110e361123b565b801561111257600080547fffffffffffffffffffffffffffffffffffffffffffffffffffffffffffff00ff1690555b50565b6069544203111590565b3390565b3b151590565b600054610100900460ff16806111425750611142610fe0565b80611150575060005460ff16155b6111a5576040517f08c379a000000000000000000000000000000000000000000000000000000000815260040180806020018281038252602e815260200180611377602e913960400191505060405180910390fd5b600054610100900460ff161580156110e357600080547fffffffffffffffffffffffffffffffffffffffffffffffffffffffffffffff007fffffffffffffffffffffffffffffffffffffffffffffffffffffffffffff00ff90911661010017166001179055801561111257600080547fffffffffffffffffffffffffffffffffffffffffffffffffffffffffffff00ff16905550565b600054610100900460ff16806112545750611254610fe0565b80611262575060005460ff16155b6112b7576040517f08c379a000000000000000000000000000000000000000000000000000000000815260040180806020018281038252602e815260200180611377602e913960400191505060405180910390fd5b600054610100900460ff1615801561131d57600080547fffffffffffffffffffffffffffffffffffffffffffffffffffffffffffffff007fffffffffffffffffffffffffffffffffffffffffffffffffffffffffffff00ff909116610100171660011790555b603380547fffffffffffffffffffffffffffffffffffffffffffffffffffffffffffffff00169055801561111257600080547fffffffffffffffffffffffffffffffffffffffffffffffffffffffffffff00ff1690555056fe496e697469616c697a61626c653a20636f6e747261637420697320616c726561647920696e697469616c697a65644f7261636c655072696365466565642f77726f6e672d746f6b656e302d746f6b656e31a2646970667358221220e3355aa70f9fc260dc7f7fb27d9c53285dee48e7594950f391a1145ed21ad58264736f6c634300060c0033",
  "linkReferences": {},
  "deployedLinkReferences": {}
}