{
  "_format": "hh-sol-artifact-1",
  "contractName": "GetPositions",
  "sourceName": "contracts/stablecoin/managers/GetPositions.sol",
  "abi": [
    {
      "inputs": [
        {
          "internalType": "address",
          "name": "_manager",
          "type": "address"
        },
        {
          "internalType": "address",
          "name": "_user",
          "type": "address"
        }
      ],
      "name": "getAllPositionsAsc",
      "outputs": [
        {
          "internalType": "uint256[]",
          "name": "_ids",
          "type": "uint256[]"
        },
        {
          "internalType": "address[]",
          "name": "_positions",
          "type": "address[]"
        },
        {
          "internalType": "bytes32[]",
          "name": "_collateralPools",
          "type": "bytes32[]"
        }
      ],
      "stateMutability": "view",
      "type": "function"
    },
    {
      "inputs": [
        {
          "internalType": "address",
          "name": "_manager",
          "type": "address"
        },
        {
          "internalType": "address",
          "name": "_user",
          "type": "address"
        }
      ],
      "name": "getAllPositionsDesc",
      "outputs": [
        {
          "internalType": "uint256[]",
          "name": "",
          "type": "uint256[]"
        },
        {
          "internalType": "address[]",
          "name": "",
          "type": "address[]"
        },
        {
          "internalType": "bytes32[]",
          "name": "",
          "type": "bytes32[]"
        }
      ],
      "stateMutability": "view",
      "type": "function"
    },
    {
      "inputs": [
        {
          "internalType": "address",
          "name": "_manager",
          "type": "address"
        },
        {
          "internalType": "uint256",
          "name": "_startIndex",
          "type": "uint256"
        },
        {
          "internalType": "uint256",
          "name": "_offset",
          "type": "uint256"
        }
      ],
      "name": "getPositionWithSafetyBuffer",
      "outputs": [
        {
          "internalType": "address[]",
          "name": "_positions",
          "type": "address[]"
        },
        {
          "internalType": "uint256[]",
          "name": "_debtShares",
          "type": "uint256[]"
        },
        {
          "internalType": "uint256[]",
          "name": "_safetyBuffers",
          "type": "uint256[]"
        }
      ],
      "stateMutability": "view",
      "type": "function"
    },
    {
      "inputs": [
        {
          "internalType": "address",
          "name": "_manager",
          "type": "address"
        },
        {
          "internalType": "uint256",
          "name": "_fromId",
          "type": "uint256"
        },
        {
          "internalType": "uint256",
          "name": "_size",
          "type": "uint256"
        }
      ],
      "name": "getPositionsAsc",
      "outputs": [
        {
          "internalType": "uint256[]",
          "name": "_ids",
          "type": "uint256[]"
        },
        {
          "internalType": "address[]",
          "name": "_positions",
          "type": "address[]"
        },
        {
          "internalType": "bytes32[]",
          "name": "_collateralPools",
          "type": "bytes32[]"
        }
      ],
      "stateMutability": "view",
      "type": "function"
    },
    {
      "inputs": [
        {
          "internalType": "address",
          "name": "_manager",
          "type": "address"
        },
        {
          "internalType": "uint256",
          "name": "_fromId",
          "type": "uint256"
        },
        {
          "internalType": "uint256",
          "name": "_size",
          "type": "uint256"
        }
      ],
      "name": "getPositionsDesc",
      "outputs": [
        {
          "internalType": "uint256[]",
          "name": "",
          "type": "uint256[]"
        },
        {
          "internalType": "address[]",
          "name": "",
          "type": "address[]"
        },
        {
          "internalType": "bytes32[]",
          "name": "",
          "type": "bytes32[]"
        }
      ],
      "stateMutability": "view",
      "type": "function"
    },
    {
      "inputs": [],
      "name": "initialize",
      "outputs": [],
      "stateMutability": "nonpayable",
      "type": "function"
    }
  ],
  "bytecode": "0x608060405234801561001057600080fd5b50611748806100206000396000f3fe608060405234801561001057600080fd5b50600436106100725760003560e01c8063833175d211610050578063833175d2146100bf578063e64cfdae146100e1578063ed5d876a146100f457610072565b806313286b2b1461007757806377d05607146100a25780638129fc1c146100b5575b600080fd5b61008a6100853660046113e1565b610107565b60405161009993929190611533565b60405180910390f35b61008a6100b03660046113e1565b610126565b6100bd610136565b005b6100d26100cd3660046113e1565b610234565b604051610099939291906114f0565b61008a6100ef3660046113a9565b61099c565b61008a6101023660046113a9565b610ad5565b6060806060610117868686610bff565b92509250925093509350939050565b6060806060610117868686610f30565b600054610100900460ff168061014f575061014f611257565b8061015d575060005460ff16155b61019c576040517f08c379a000000000000000000000000000000000000000000000000000000000815260040161019390611636565b60405180910390fd5b600054610100900460ff1615801561020257600080547fffffffffffffffffffffffffffffffffffffffffffffffffffffffffffffff007fffffffffffffffffffffffffffffffffffffffffffffffffffffffffffff00ff909116610100171660011790555b801561023157600080547fffffffffffffffffffffffffffffffffffffffffffffffffffffffffffff00ff1690555b50565b60608060608573ffffffffffffffffffffffffffffffffffffffff1663583545026040518163ffffffff1660e01b815260040160206040518083038186803b15801561027f57600080fd5b505afa158015610293573d6000803e3d6000fd5b505050506040513d601f19601f820116820180604052508101906102b79190611415565b6102c18686611268565b111561035d5761035a6001610354878973ffffffffffffffffffffffffffffffffffffffff1663583545026040518163ffffffff1660e01b815260040160206040518083038186803b15801561031657600080fd5b505afa15801561032a573d6000803e3d6000fd5b505050506040513d601f19601f8201168201806040525081019061034e9190611415565b906112b0565b90611268565b93505b60008673ffffffffffffffffffffffffffffffffffffffff1663e3b3932a6040518163ffffffff1660e01b815260040160206040518083038186803b1580156103a557600080fd5b505afa1580156103b9573d6000803e3d6000fd5b505050506040513d601f19601f820116820180604052508101906103dd919061138d565b90508467ffffffffffffffff811180156103f657600080fd5b50604051908082528060200260200182016040528015610420578160200160208202803683370190505b5093508467ffffffffffffffff8111801561043a57600080fd5b50604051908082528060200260200182016040528015610464578160200160208202803683370190505b5092508467ffffffffffffffff8111801561047e57600080fd5b506040519080825280602002602001820160405280156104a8578160200160208202803683370190505b5091506000865b6104b98888611268565b811015610990576040517f99fbab8800000000000000000000000000000000000000000000000000000000815260009073ffffffffffffffffffffffffffffffffffffffff8b16906399fbab889061051590859060040161159b565b60206040518083038186803b15801561052d57600080fd5b505afa158015610541573d6000803e3d6000fd5b505050506040513d601f19601f82011682018060405250810190610565919061138d565b73ffffffffffffffffffffffffffffffffffffffff16141561058657610990565b6040517f99fbab8800000000000000000000000000000000000000000000000000000000815273ffffffffffffffffffffffffffffffffffffffff8a16906399fbab88906105d890849060040161159b565b60206040518083038186803b1580156105f057600080fd5b505afa158015610604573d6000803e3d6000fd5b505050506040513d601f19601f82011682018060405250810190610628919061138d565b86838151811061063457fe5b73ffffffffffffffffffffffffffffffffffffffff92831660209182029290920101526040517f6dbe4ef20000000000000000000000000000000000000000000000000000000081526000918b1690636dbe4ef29061069790859060040161159b565b60206040518083038186803b1580156106af57600080fd5b505afa1580156106c3573d6000803e3d6000fd5b505050506040513d601f19601f820116820180604052508101906106e79190611415565b90506000808573ffffffffffffffffffffffffffffffffffffffff166329d88594848b888151811061071557fe5b60200260200101516040518363ffffffff1660e01b815260040161073a9291906115a4565b604080518083038186803b15801561075157600080fd5b505afa158015610765573d6000803e3d6000fd5b505050506040513d601f19601f82011682018060405250810190610789919061142d565b9150915060008673ffffffffffffffffffffffffffffffffffffffff1663d86824616040518163ffffffff1660e01b815260040160206040518083038186803b1580156107d557600080fd5b505afa1580156107e9573d6000803e3d6000fd5b505050506040513d601f19601f8201168201806040525081019061080d919061138d565b90506000610947838373ffffffffffffffffffffffffffffffffffffffff1663a09b0fe0886040518263ffffffff1660e01b815260040161084e919061159b565b60206040518083038186803b15801561086657600080fd5b505afa15801561087a573d6000803e3d6000fd5b505050506040513d601f19601f8201168201806040525081019061089e9190611415565b6040517f8c492d07000000000000000000000000000000000000000000000000000000008152879073ffffffffffffffffffffffffffffffffffffffff871690638c492d07906108f2908c9060040161159b565b60206040518083038186803b15801561090a57600080fd5b505afa15801561091e573d6000803e3d6000fd5b505050506040513d601f19601f820116820180604052508101906109429190611415565b6112f2565b90508089888151811061095657fe5b602002602001018181525050828a888151811061096f57fe5b602090810291909101015250506001948501949390930192506104af915050565b50505093509350939050565b606080606060008573ffffffffffffffffffffffffffffffffffffffff16634afa7271866040518263ffffffff1660e01b81526004016109dc91906114cf565b60206040518083038186803b1580156109f457600080fd5b505afa158015610a08573d6000803e3d6000fd5b505050506040513d601f19601f82011682018060405250810190610a2c9190611415565b905060008673ffffffffffffffffffffffffffffffffffffffff1663bbc26b84876040518263ffffffff1660e01b8152600401610a6991906114cf565b60206040518083038186803b158015610a8157600080fd5b505afa158015610a95573d6000803e3d6000fd5b505050506040513d601f19601f82011682018060405250810190610ab99190611415565b9050610ac6878284610bff565b94509450945050509250925092565b606080606060008573ffffffffffffffffffffffffffffffffffffffff16634afa7271866040518263ffffffff1660e01b8152600401610b1591906114cf565b60206040518083038186803b158015610b2d57600080fd5b505afa158015610b41573d6000803e3d6000fd5b505050506040513d601f19601f82011682018060405250810190610b659190611415565b905060008673ffffffffffffffffffffffffffffffffffffffff1663e93cb1b9876040518263ffffffff1660e01b8152600401610ba291906114cf565b60206040518083038186803b158015610bba57600080fd5b505afa158015610bce573d6000803e3d6000fd5b505050506040513d601f19601f82011682018060405250810190610bf29190611415565b9050610ac6878284610f30565b60608060608367ffffffffffffffff81118015610c1b57600080fd5b50604051908082528060200260200182016040528015610c45578160200160208202803683370190505b5092508367ffffffffffffffff81118015610c5f57600080fd5b50604051908082528060200260200182016040528015610c89578160200160208202803683370190505b5091508367ffffffffffffffff81118015610ca357600080fd5b50604051908082528060200260200182016040528015610ccd578160200160208202803683370190505b5090506000855b600081118015610ce357508582105b15610f255780858381518110610cf557fe5b60209081029190910101526040517f99fbab8800000000000000000000000000000000000000000000000000000000815273ffffffffffffffffffffffffffffffffffffffff8916906399fbab8890610d5290849060040161159b565b60206040518083038186803b158015610d6a57600080fd5b505afa158015610d7e573d6000803e3d6000fd5b505050506040513d601f19601f82011682018060405250810190610da2919061138d565b848381518110610dae57fe5b73ffffffffffffffffffffffffffffffffffffffff92831660209182029290920101526040517f6dbe4ef200000000000000000000000000000000000000000000000000000000815290891690636dbe4ef290610e0f90849060040161159b565b60206040518083038186803b158015610e2757600080fd5b505afa158015610e3b573d6000803e3d6000fd5b505050506040513d601f19601f82011682018060405250810190610e5f9190611415565b838381518110610e6b57fe5b60209081029190910101526040517f80c9419e00000000000000000000000000000000000000000000000000000000815273ffffffffffffffffffffffffffffffffffffffff8916906380c9419e90610ec890849060040161159b565b604080518083038186803b158015610edf57600080fd5b505afa158015610ef3573d6000803e3d6000fd5b505050506040513d601f19601f82011682018060405250810190610f17919061142d565b506001909201919050610cd4565b505093509350939050565b60608060608367ffffffffffffffff81118015610f4c57600080fd5b50604051908082528060200260200182016040528015610f76578160200160208202803683370190505b5092508367ffffffffffffffff81118015610f9057600080fd5b50604051908082528060200260200182016040528015610fba578160200160208202803683370190505b5091508367ffffffffffffffff81118015610fd457600080fd5b50604051908082528060200260200182016040528015610ffe578160200160208202803683370190505b5090506000855b60008111801561101457508582105b15610f25578085838151811061102657fe5b60209081029190910101526040517f99fbab8800000000000000000000000000000000000000000000000000000000815273ffffffffffffffffffffffffffffffffffffffff8916906399fbab889061108390849060040161159b565b60206040518083038186803b15801561109b57600080fd5b505afa1580156110af573d6000803e3d6000fd5b505050506040513d601f19601f820116820180604052508101906110d3919061138d565b8483815181106110df57fe5b73ffffffffffffffffffffffffffffffffffffffff92831660209182029290920101526040517f6dbe4ef200000000000000000000000000000000000000000000000000000000815290891690636dbe4ef29061114090849060040161159b565b60206040518083038186803b15801561115857600080fd5b505afa15801561116c573d6000803e3d6000fd5b505050506040513d601f19601f820116820180604052508101906111909190611415565b83838151811061119c57fe5b60209081029190910101526040517f80c9419e00000000000000000000000000000000000000000000000000000000815273ffffffffffffffffffffffffffffffffffffffff8916906380c9419e906111f990849060040161159b565b604080518083038186803b15801561121057600080fd5b505afa158015611224573d6000803e3d6000fd5b505050506040513d601f19601f82011682018060405250810190611248919061142d565b60019093019291506110059050565b600061126230611333565b15905090565b6000828201838110156112a7576040517f08c379a0000000000000000000000000000000000000000000000000000000008152600401610193906115c8565b90505b92915050565b6000828211156112ec576040517f08c379a0000000000000000000000000000000000000000000000000000000008152600401610193906115ff565b50900390565b6000806112ff8484611339565b9050600061130d8787611339565b90508082101561131e576000611328565b61132882826112b0565b979650505050505050565b3b151590565b600082611348575060006112aa565b8282028284828161135557fe5b04146112a7576040517f08c379a000000000000000000000000000000000000000000000000000000000815260040161019390611693565b60006020828403121561139e578081fd5b81516112a7816116f0565b600080604083850312156113bb578081fd5b82356113c6816116f0565b915060208301356113d6816116f0565b809150509250929050565b6000806000606084860312156113f5578081fd5b8335611400816116f0565b95602085013595506040909401359392505050565b600060208284031215611426578081fd5b5051919050565b6000806040838503121561143f578182fd5b505080516020909101519092909150565b6000815180845260208085019450808401835b8381101561149557815173ffffffffffffffffffffffffffffffffffffffff1687529582019590820190600101611463565b509495945050505050565b6000815180845260208085019450808401835b83811015611495578151875295820195908201906001016114b3565b73ffffffffffffffffffffffffffffffffffffffff91909116815260200190565b6000606082526115036060830186611450565b828103602084015261151581866114a0565b9050828103604084015261152981856114a0565b9695505050505050565b60006060825261154660608301866114a0565b6020838203818501526115598287611450565b84810360408601528551808252828701935090820190845b8181101561158d57845183529383019391830191600101611571565b509098975050505050505050565b90815260200190565b91825273ffffffffffffffffffffffffffffffffffffffff16602082015260400190565b6020808252601b908201527f536166654d6174683a206164646974696f6e206f766572666c6f770000000000604082015260600190565b6020808252601e908201527f536166654d6174683a207375627472616374696f6e206f766572666c6f770000604082015260600190565b6020808252602e908201527f496e697469616c697a61626c653a20636f6e747261637420697320616c72656160408201527f647920696e697469616c697a6564000000000000000000000000000000000000606082015260800190565b60208082526021908201527f536166654d6174683a206d756c7469706c69636174696f6e206f766572666c6f60408201527f7700000000000000000000000000000000000000000000000000000000000000606082015260800190565b73ffffffffffffffffffffffffffffffffffffffff8116811461023157600080fdfea2646970667358221220ce0164a716c4952291eb364c4c7178048ecce26f623db1d3870489374883f46d64736f6c634300060c0033",
  "linkReferences": {},
  "deployedLinkReferences": {}
}