{
  "_format": "hh-sol-artifact-1",
  "contractName": "BandPriceOracle",
  "sourceName": "contracts/stablecoin/price-oracles/BandPriceOracle.sol",
  "abi": [
    {
      "anonymous": false,
      "inputs": [
        {
          "indexed": true,
          "internalType": "address",
          "name": "_tokenAddress",
          "type": "address"
        },
        {
          "indexed": false,
          "internalType": "string",
          "name": "_tokenSymbol",
          "type": "string"
        }
      ],
      "name": "LogSetTokenSymbol",
      "type": "event"
    },
    {
      "inputs": [],
      "name": "accessControlConfig",
      "outputs": [
        {
          "internalType": "contract IAccessControlConfig",
          "name": "",
          "type": "address"
        }
      ],
      "stateMutability": "view",
      "type": "function"
    },
    {
      "inputs": [
        {
          "internalType": "address",
          "name": "_token0",
          "type": "address"
        },
        {
          "internalType": "address",
          "name": "_token1",
          "type": "address"
        }
      ],
      "name": "getPrice",
      "outputs": [
        {
          "internalType": "uint256",
          "name": "",
          "type": "uint256"
        },
        {
          "internalType": "uint256",
          "name": "",
          "type": "uint256"
        }
      ],
      "stateMutability": "view",
      "type": "function"
    },
    {
      "inputs": [
        {
          "internalType": "address",
          "name": "_stdReferenceProxy",
          "type": "address"
        },
        {
          "internalType": "address",
          "name": "_accessControlConfig",
          "type": "address"
        }
      ],
      "name": "initialize",
      "outputs": [],
      "stateMutability": "nonpayable",
      "type": "function"
    },
    {
      "inputs": [
        {
          "internalType": "address",
          "name": "_tokenAddress",
          "type": "address"
        },
        {
          "internalType": "string",
          "name": "_tokenSymbol",
          "type": "string"
        }
      ],
      "name": "setTokenSymbol",
      "outputs": [],
      "stateMutability": "nonpayable",
      "type": "function"
    },
    {
      "inputs": [],
      "name": "stdReferenceProxy",
      "outputs": [
        {
          "internalType": "contract IStdReference",
          "name": "",
          "type": "address"
        }
      ],
      "stateMutability": "view",
      "type": "function"
    },
    {
      "inputs": [
        {
          "internalType": "address",
          "name": "",
          "type": "address"
        }
      ],
      "name": "tokenSymbols",
      "outputs": [
        {
          "internalType": "string",
          "name": "",
          "type": "string"
        }
      ],
      "stateMutability": "view",
      "type": "function"
    }
  ],
  "bytecode": "0x608060405234801561001057600080fd5b50610f3e806100206000396000f3fe608060405234801561001057600080fd5b50600436106100725760003560e01c8063c8cc243f11610050578063c8cc243f146100cb578063f036417f146100d3578063fb0b2b36146100e657610072565b8063485cc955146100775780637eb89d331461008c578063ac41865a146100aa575b600080fd5b61008a610085366004610ab5565b610106565b005b61009461031f565b6040516100a19190610ca7565b60405180910390f35b6100bd6100b8366004610ab5565b610341565b6040516100a1929190610eae565b6100946106f3565b61008a6100e1366004610ae9565b61070f565b6100f96100f4366004610a93565b6108e7565b6040516100a19190610cc8565b600054610100900460ff168061011f575061011f61099e565b8061012d575060005460ff16155b61016c576040517f08c379a000000000000000000000000000000000000000000000000000000000815260040161016390610dac565b60405180910390fd5b600054610100900460ff161580156101d257600080547fffffffffffffffffffffffffffffffffffffffffffffffffffffffffffffff007fffffffffffffffffffffffffffffffffffffffffffffffffffffffffffff00ff909116610100171660011790555b600080547fffffffffffffffffffff0000000000000000000000000000000000000000ffff166201000073ffffffffffffffffffffffffffffffffffffffff868116820292909217928390556040517f65555bcc000000000000000000000000000000000000000000000000000000008152920416906365555bcc9061025a90600401610d40565b60606040518083038186803b15801561027257600080fd5b505afa158015610286573d6000803e3d6000fd5b505050506040513d601f19601f820116820180604052508101906102aa9190610bdd565b50600180547fffffffffffffffffffffffff00000000000000000000000000000000000000001673ffffffffffffffffffffffffffffffffffffffff8416179055801561031a57600080547fffffffffffffffffffffffffffffffffffffffffffffffffffffffffffff00ff1690555b505050565b60005462010000900473ffffffffffffffffffffffffffffffffffffffff1681565b73ffffffffffffffffffffffffffffffffffffffff82166000908152600260208181526040808420805482516001821615610100027fffffffffffffffffffffffffffffffffffffffffffffffffffffffffffffffff0190911694909404601f8101849004840285018401909252818452849360609390929083018282801561040b5780601f106103e05761010080835404028352916020019161040b565b820191906000526020600020905b8154815290600101906020018083116103ee57829003601f168201915b50505073ffffffffffffffffffffffffffffffffffffffff871660009081526002602081815260409283902080548451601f7fffffffffffffffffffffffffffffffffffffffffffffffffffffffffffffffff61010060018516150201909216949094049081018390048302840183019094528383529596506060959194509092508301828280156104de5780601f106104b3576101008083540402835291602001916104de565b820191906000526020600020905b8154815290600101906020018083116104c157829003601f168201915b5050505050905080805190602001208280519060200120141561052d576040517f08c379a000000000000000000000000000000000000000000000000000000000815260040161016390610e40565b604080516020808201909252600090528251908301207fc5d2460186f7233c927e7db2dcc703c0e500b653ca82273b7bfad8045d85a470141561059c576040517f08c379a000000000000000000000000000000000000000000000000000000000815260040161016390610e09565b604080516020808201909252600090528151908201207fc5d2460186f7233c927e7db2dcc703c0e500b653ca82273b7bfad8045d85a470141561060b576040517f08c379a000000000000000000000000000000000000000000000000000000000815260040161016390610e77565b6106136109b5565b6000546040517f65555bcc0000000000000000000000000000000000000000000000000000000081526201000090910473ffffffffffffffffffffffffffffffffffffffff16906365555bcc906106709086908690600401610cdb565b60606040518083038186803b15801561068857600080fd5b505afa15801561069c573d6000803e3d6000fd5b505050506040513d601f19601f820116820180604052508101906106c09190610bdd565b9050600081604001518260200151106106dd5781604001516106e3565b81602001515b9151989197509095505050505050565b60015473ffffffffffffffffffffffffffffffffffffffff1681565b600154604080517fe58378bb000000000000000000000000000000000000000000000000000000008152905173ffffffffffffffffffffffffffffffffffffffff909216916391d1485491839163e58378bb91600480820192602092909190829003018186803b15801561078257600080fd5b505afa158015610796573d6000803e3d6000fd5b505050506040513d601f19601f820116820180604052508101906107ba9190610bc5565b336040518363ffffffff1660e01b81526004016107d8929190610c83565b60206040518083038186803b1580156107f057600080fd5b505afa158015610804573d6000803e3d6000fd5b505050506040513d601f19601f820116820180604052508101906108289190610ba5565b61085e576040517f08c379a000000000000000000000000000000000000000000000000000000000815260040161016390610d09565b73ffffffffffffffffffffffffffffffffffffffff821660009081526002602090815260409091208251610894928401906109d6565b508173ffffffffffffffffffffffffffffffffffffffff167f98e96baff014754a375324221b70d18c5fb71684cd358d7cf905f7dbf4e1fda3826040516108db9190610cc8565b60405180910390a25050565b600260208181526000928352604092839020805484516001821615610100027fffffffffffffffffffffffffffffffffffffffffffffffffffffffffffffffff0190911693909304601f81018390048302840183019094528383529192908301828280156109965780601f1061096b57610100808354040283529160200191610996565b820191906000526020600020905b81548152906001019060200180831161097957829003601f168201915b505050505081565b60006109a9306109af565b15905090565b3b151590565b60405180606001604052806000815260200160008152602001600081525090565b828054600181600116156101000203166002900490600052602060002090601f016020900481019282601f10610a1757805160ff1916838001178555610a44565b82800160010185558215610a44579182015b82811115610a44578251825591602001919060010190610a29565b50610a50929150610a54565b5090565b5b80821115610a505760008155600101610a55565b803573ffffffffffffffffffffffffffffffffffffffff81168114610a8d57600080fd5b92915050565b600060208284031215610aa4578081fd5b610aae8383610a69565b9392505050565b60008060408385031215610ac7578081fd5b610ad18484610a69565b9150610ae08460208501610a69565b90509250929050565b60008060408385031215610afb578182fd5b8235610b0681610ee3565b915060208381013567ffffffffffffffff80821115610b23578384fd5b818601915086601f830112610b36578384fd5b813581811115610b44578485fd5b610b74847fffffffffffffffffffffffffffffffffffffffffffffffffffffffffffffffe0601f84011601610ebc565b91508082528784828501011115610b89578485fd5b8084840185840137810190920192909252919491935090915050565b600060208284031215610bb6578081fd5b81518015158114610aae578182fd5b600060208284031215610bd6578081fd5b5051919050565b600060608284031215610bee578081fd5b610bf86060610ebc565b8251815260208301516020820152604083015160408201528091505092915050565b60008151808452815b81811015610c3f57602081850181015186830182015201610c23565b81811115610c505782602083870101525b50601f017fffffffffffffffffffffffffffffffffffffffffffffffffffffffffffffffe0169290920160200192915050565b91825273ffffffffffffffffffffffffffffffffffffffff16602082015260400190565b73ffffffffffffffffffffffffffffffffffffffff91909116815260200190565b600060208252610aae6020830184610c1a565b600060408252610cee6040830185610c1a565b8281036020840152610d008185610c1a565b95945050505050565b6020808252600a908201527f216f776e6572526f6c6500000000000000000000000000000000000000000000604082015260600190565b60408082526004908201527f425553440000000000000000000000000000000000000000000000000000000060608201526080602082018190526003908201527f555344000000000000000000000000000000000000000000000000000000000060a082015260c00190565b6020808252602e908201527f496e697469616c697a61626c653a20636f6e747261637420697320616c72656160408201527f647920696e697469616c697a6564000000000000000000000000000000000000606082015260800190565b6020808252601e908201527f42616e6450726963654f7261636c652f756e6b6e6f776e2d746f6b656e300000604082015260600190565b6020808252601b908201527f42616e6450726963654f7261636c652f73616d652d73796d626f6c0000000000604082015260600190565b6020808252601e908201527f42616e6450726963654f7261636c652f756e6b6e6f776e2d746f6b656e310000604082015260600190565b918252602082015260400190565b60405181810167ffffffffffffffff81118282101715610edb57600080fd5b604052919050565b73ffffffffffffffffffffffffffffffffffffffff81168114610f0557600080fd5b5056fea2646970667358221220800d11dc882499cb84d7bfbdd9bd9212641377a46ef6fcae6f0566ef8ff9c2cd64736f6c634300060c0033",
  "linkReferences": {},
  "deployedLinkReferences": {}
}