{
  "_format": "hh-sol-artifact-1",
  "contractName": "StrictOraclePriceFeed",
  "sourceName": "contracts/stablecoin/price-feeders/StrictOraclePriceFeed.sol",
  "abi": [
    {
      "anonymous": false,
      "inputs": [
        {
          "indexed": true,
          "internalType": "address",
          "name": "caller",
          "type": "address"
        },
        {
          "indexed": false,
          "internalType": "uint256",
          "name": "maxPriceDiff",
          "type": "uint256"
        }
      ],
      "name": "LogSetMaxPriceDiff",
      "type": "event"
    },
    {
      "anonymous": false,
      "inputs": [
        {
          "indexed": true,
          "internalType": "address",
          "name": "caller",
          "type": "address"
        },
        {
          "indexed": false,
          "internalType": "uint256",
          "name": "second",
          "type": "uint256"
        }
      ],
      "name": "LogSetPriceLife",
      "type": "event"
    },
    {
      "anonymous": false,
      "inputs": [
        {
          "indexed": true,
          "internalType": "address",
          "name": "caller",
          "type": "address"
        },
        {
          "indexed": false,
          "internalType": "address",
          "name": "newAlpacaOracle",
          "type": "address"
        },
        {
          "indexed": false,
          "internalType": "address",
          "name": "primaryToken0",
          "type": "address"
        },
        {
          "indexed": false,
          "internalType": "address",
          "name": "primaryToken1",
          "type": "address"
        }
      ],
      "name": "LogSetPrimary",
      "type": "event"
    },
    {
      "anonymous": false,
      "inputs": [
        {
          "indexed": true,
          "internalType": "address",
          "name": "caller",
          "type": "address"
        },
        {
          "indexed": false,
          "internalType": "address",
          "name": "newAlpacaOracle",
          "type": "address"
        },
        {
          "indexed": false,
          "internalType": "address",
          "name": "secondaryToken0",
          "type": "address"
        },
        {
          "indexed": false,
          "internalType": "address",
          "name": "secondaryToken1",
          "type": "address"
        }
      ],
      "name": "LogSetSecondary",
      "type": "event"
    },
    {
      "anonymous": false,
      "inputs": [
        {
          "indexed": false,
          "internalType": "address",
          "name": "account",
          "type": "address"
        }
      ],
      "name": "Paused",
      "type": "event"
    },
    {
      "anonymous": false,
      "inputs": [
        {
          "indexed": true,
          "internalType": "bytes32",
          "name": "role",
          "type": "bytes32"
        },
        {
          "indexed": true,
          "internalType": "bytes32",
          "name": "previousAdminRole",
          "type": "bytes32"
        },
        {
          "indexed": true,
          "internalType": "bytes32",
          "name": "newAdminRole",
          "type": "bytes32"
        }
      ],
      "name": "RoleAdminChanged",
      "type": "event"
    },
    {
      "anonymous": false,
      "inputs": [
        {
          "indexed": true,
          "internalType": "bytes32",
          "name": "role",
          "type": "bytes32"
        },
        {
          "indexed": true,
          "internalType": "address",
          "name": "account",
          "type": "address"
        },
        {
          "indexed": true,
          "internalType": "address",
          "name": "sender",
          "type": "address"
        }
      ],
      "name": "RoleGranted",
      "type": "event"
    },
    {
      "anonymous": false,
      "inputs": [
        {
          "indexed": true,
          "internalType": "bytes32",
          "name": "role",
          "type": "bytes32"
        },
        {
          "indexed": true,
          "internalType": "address",
          "name": "account",
          "type": "address"
        },
        {
          "indexed": true,
          "internalType": "address",
          "name": "sender",
          "type": "address"
        }
      ],
      "name": "RoleRevoked",
      "type": "event"
    },
    {
      "anonymous": false,
      "inputs": [
        {
          "indexed": false,
          "internalType": "address",
          "name": "account",
          "type": "address"
        }
      ],
      "name": "Unpaused",
      "type": "event"
    },
    {
      "inputs": [],
      "name": "DEFAULT_ADMIN_ROLE",
      "outputs": [
        {
          "internalType": "bytes32",
          "name": "",
          "type": "bytes32"
        }
      ],
      "stateMutability": "view",
      "type": "function"
    },
    {
      "inputs": [],
      "name": "accessControlConfig",
      "outputs": [
        {
          "internalType": "contract IAccessControlConfig",
          "name": "",
          "type": "address"
        }
      ],
      "stateMutability": "view",
      "type": "function"
    },
    {
      "inputs": [
        {
          "internalType": "bytes32",
          "name": "role",
          "type": "bytes32"
        }
      ],
      "name": "getRoleAdmin",
      "outputs": [
        {
          "internalType": "bytes32",
          "name": "",
          "type": "bytes32"
        }
      ],
      "stateMutability": "view",
      "type": "function"
    },
    {
      "inputs": [
        {
          "internalType": "bytes32",
          "name": "role",
          "type": "bytes32"
        },
        {
          "internalType": "uint256",
          "name": "index",
          "type": "uint256"
        }
      ],
      "name": "getRoleMember",
      "outputs": [
        {
          "internalType": "address",
          "name": "",
          "type": "address"
        }
      ],
      "stateMutability": "view",
      "type": "function"
    },
    {
      "inputs": [
        {
          "internalType": "bytes32",
          "name": "role",
          "type": "bytes32"
        }
      ],
      "name": "getRoleMemberCount",
      "outputs": [
        {
          "internalType": "uint256",
          "name": "",
          "type": "uint256"
        }
      ],
      "stateMutability": "view",
      "type": "function"
    },
    {
      "inputs": [
        {
          "internalType": "bytes32",
          "name": "role",
          "type": "bytes32"
        },
        {
          "internalType": "address",
          "name": "account",
          "type": "address"
        }
      ],
      "name": "grantRole",
      "outputs": [],
      "stateMutability": "nonpayable",
      "type": "function"
    },
    {
      "inputs": [
        {
          "internalType": "bytes32",
          "name": "role",
          "type": "bytes32"
        },
        {
          "internalType": "address",
          "name": "account",
          "type": "address"
        }
      ],
      "name": "hasRole",
      "outputs": [
        {
          "internalType": "bool",
          "name": "",
          "type": "bool"
        }
      ],
      "stateMutability": "view",
      "type": "function"
    },
    {
      "inputs": [
        {
          "internalType": "address",
          "name": "_primaryAlpacaOracle",
          "type": "address"
        },
        {
          "internalType": "address",
          "name": "_primaryToken0",
          "type": "address"
        },
        {
          "internalType": "address",
          "name": "_primaryToken1",
          "type": "address"
        },
        {
          "internalType": "address",
          "name": "_secondaryAlpacaOracle",
          "type": "address"
        },
        {
          "internalType": "address",
          "name": "_secondaryToken0",
          "type": "address"
        },
        {
          "internalType": "address",
          "name": "_secondaryToken1",
          "type": "address"
        },
        {
          "internalType": "address",
          "name": "_accessControlConfig",
          "type": "address"
        }
      ],
      "name": "initialize",
      "outputs": [],
      "stateMutability": "nonpayable",
      "type": "function"
    },
    {
      "inputs": [],
      "name": "maxPriceDiff",
      "outputs": [
        {
          "internalType": "uint256",
          "name": "",
          "type": "uint256"
        }
      ],
      "stateMutability": "view",
      "type": "function"
    },
    {
      "inputs": [],
      "name": "pause",
      "outputs": [],
      "stateMutability": "nonpayable",
      "type": "function"
    },
    {
      "inputs": [],
      "name": "paused",
      "outputs": [
        {
          "internalType": "bool",
          "name": "",
          "type": "bool"
        }
      ],
      "stateMutability": "view",
      "type": "function"
    },
    {
      "inputs": [],
      "name": "peekPrice",
      "outputs": [
        {
          "internalType": "bytes32",
          "name": "",
          "type": "bytes32"
        },
        {
          "internalType": "bool",
          "name": "",
          "type": "bool"
        }
      ],
      "stateMutability": "view",
      "type": "function"
    },
    {
      "inputs": [],
      "name": "priceLife",
      "outputs": [
        {
          "internalType": "uint256",
          "name": "",
          "type": "uint256"
        }
      ],
      "stateMutability": "view",
      "type": "function"
    },
    {
      "inputs": [],
      "name": "primary",
      "outputs": [
        {
          "internalType": "contract IOracle",
          "name": "alpacaOracle",
          "type": "address"
        },
        {
          "internalType": "address",
          "name": "token0",
          "type": "address"
        },
        {
          "internalType": "address",
          "name": "token1",
          "type": "address"
        }
      ],
      "stateMutability": "view",
      "type": "function"
    },
    {
      "inputs": [],
      "name": "readPrice",
      "outputs": [
        {
          "internalType": "bytes32",
          "name": "",
          "type": "bytes32"
        }
      ],
      "stateMutability": "view",
      "type": "function"
    },
    {
      "inputs": [
        {
          "internalType": "bytes32",
          "name": "role",
          "type": "bytes32"
        },
        {
          "internalType": "address",
          "name": "account",
          "type": "address"
        }
      ],
      "name": "renounceRole",
      "outputs": [],
      "stateMutability": "nonpayable",
      "type": "function"
    },
    {
      "inputs": [
        {
          "internalType": "bytes32",
          "name": "role",
          "type": "bytes32"
        },
        {
          "internalType": "address",
          "name": "account",
          "type": "address"
        }
      ],
      "name": "revokeRole",
      "outputs": [],
      "stateMutability": "nonpayable",
      "type": "function"
    },
    {
      "inputs": [],
      "name": "secondary",
      "outputs": [
        {
          "internalType": "contract IOracle",
          "name": "alpacaOracle",
          "type": "address"
        },
        {
          "internalType": "address",
          "name": "token0",
          "type": "address"
        },
        {
          "internalType": "address",
          "name": "token1",
          "type": "address"
        }
      ],
      "stateMutability": "view",
      "type": "function"
    },
    {
      "inputs": [
        {
          "internalType": "uint256",
          "name": "_maxPriceDiff",
          "type": "uint256"
        }
      ],
      "name": "setMaxPriceDiff",
      "outputs": [],
      "stateMutability": "nonpayable",
      "type": "function"
    },
    {
      "inputs": [
        {
          "internalType": "uint256",
          "name": "_second",
          "type": "uint256"
        }
      ],
      "name": "setPriceLife",
      "outputs": [],
      "stateMutability": "nonpayable",
      "type": "function"
    },
    {
      "inputs": [
        {
          "internalType": "address",
          "name": "_primaryAlpacaOracle",
          "type": "address"
        },
        {
          "internalType": "address",
          "name": "_primaryToken0",
          "type": "address"
        },
        {
          "internalType": "address",
          "name": "_primaryToken1",
          "type": "address"
        }
      ],
      "name": "setPrimary",
      "outputs": [],
      "stateMutability": "nonpayable",
      "type": "function"
    },
    {
      "inputs": [
        {
          "internalType": "address",
          "name": "_secondaryAlpacaOracle",
          "type": "address"
        },
        {
          "internalType": "address",
          "name": "_secondaryToken0",
          "type": "address"
        },
        {
          "internalType": "address",
          "name": "_secondaryToken1",
          "type": "address"
        }
      ],
      "name": "setSecondary",
      "outputs": [],
      "stateMutability": "nonpayable",
      "type": "function"
    },
    {
      "inputs": [],
      "name": "unpause",
      "outputs": [],
      "stateMutability": "nonpayable",
      "type": "function"
    }
  ],
  "bytecode": "0x608060405234801561001057600080fd5b5061283c806100206000396000f3fe608060405234801561001057600080fd5b506004361061018d5760003560e01c80638456cb59116100e3578063c8cc243f1161008c578063d547741f11610066578063d547741f14610483578063ef36ee47146104bc578063fea4c541146104d95761018d565b8063c8cc243f14610419578063ca15c87314610421578063d25a5d5c1461043e5761018d565b80639d3c8cc4116100bd5780639d3c8cc4146103c9578063a217fddf14610409578063c6dbdf61146104115761018d565b80638456cb591461033c5780639010d07c1461034457806391d14854146103905761018d565b806335876476116101455780635af639c31161011f5780635af639c3146103105780635c975abb146103185780637e91400f146103345761018d565b8063358764761461026a57806336568abe146102cf5780633f4ba83a146103085761018d565b8063140d272011610176578063140d2720146101f3578063248a9ca3146102145780632f2ff15d146102315761018d565b806305c552d81461019257806313b17ab0146101ac575b600080fd5b61019a6104f6565b60408051918252519081900360200190f35b6101f1600480360360608110156101c257600080fd5b5073ffffffffffffffffffffffffffffffffffffffff81358116916020810135821691604090910135166104fc565b005b6101fb6107df565b6040805192835290151560208301528051918290030190f35b61019a6004803603602081101561022a57600080fd5b5035610974565b6101f16004803603604081101561024757600080fd5b508035906020013573ffffffffffffffffffffffffffffffffffffffff16610989565b6101f1600480360360e081101561028057600080fd5b5073ffffffffffffffffffffffffffffffffffffffff8135811691602081013582169160408201358116916060810135821691608082013581169160a081013582169160c09091013516610a0f565b6101f1600480360360408110156102e557600080fd5b508035906020013573ffffffffffffffffffffffffffffffffffffffff16610d46565b6101f1610ddb565b61019a6110a3565b6103206110a9565b604080519115158252519081900360200190f35b61019a6110b2565b6101f1611164565b6103676004803603604081101561035a57600080fd5b508035906020013561142a565b6040805173ffffffffffffffffffffffffffffffffffffffff9092168252519081900360200190f35b610320600480360360408110156103a657600080fd5b508035906020013573ffffffffffffffffffffffffffffffffffffffff1661144b565b6103d1611463565b6040805173ffffffffffffffffffffffffffffffffffffffff9485168152928416602084015292168183015290519081900360600190f35b61019a61148d565b6103d1611492565b6103676114bc565b61019a6004803603602081101561043757600080fd5b50356114d8565b6101f16004803603606081101561045457600080fd5b5073ffffffffffffffffffffffffffffffffffffffff81358116916020810135821691604090910135166114ef565b6101f16004803603604081101561049957600080fd5b508035906020013573ffffffffffffffffffffffffffffffffffffffff166117d2565b6101f1600480360360208110156104d257600080fd5b5035611845565b6101f1600480360360208110156104ef57600080fd5b5035611a7e565b609e5481565b609f54604080517fe58378bb000000000000000000000000000000000000000000000000000000008152905173ffffffffffffffffffffffffffffffffffffffff909216916391d1485491839163e58378bb91600480820192602092909190829003018186803b15801561056f57600080fd5b505afa158015610583573d6000803e3d6000fd5b505050506040513d602081101561059957600080fd5b5051604080517fffffffff0000000000000000000000000000000000000000000000000000000060e085901b1681526004810192909252336024830152516044808301926020929190829003018186803b1580156105f657600080fd5b505afa15801561060a573d6000803e3d6000fd5b505050506040513d602081101561062057600080fd5b505161068d57604080517f08c379a000000000000000000000000000000000000000000000000000000000815260206004820152600a60248201527f216f776e6572526f6c6500000000000000000000000000000000000000000000604482015290519081900360640190fd5b609a805473ffffffffffffffffffffffffffffffffffffffff8086167fffffffffffffffffffffffff00000000000000000000000000000000000000009283161792839055609b80548683169084161790819055609c805486841694169390931792839055604080517fac41865a000000000000000000000000000000000000000000000000000000008152918316600483015292821660248201528251939091169263ac41865a92604480840193919291829003018186803b15801561075357600080fd5b505afa158015610767573d6000803e3d6000fd5b505050506040513d604081101561077d57600080fd5b50506040805173ffffffffffffffffffffffffffffffffffffffff85811682528481166020830152831681830152905133917fb35ff075a769c20f3214ee392de77b56a9f29bab0a7bc3965e1100c817ae8bb5919081900360600190a2505050565b609754609854609954604080517fac41865a00000000000000000000000000000000000000000000000000000000815273ffffffffffffffffffffffffffffffffffffffff938416600482015291831660248301528051600094859485948594919092169263ac41865a926044808201939291829003018186803b15801561086657600080fd5b505afa15801561087a573d6000803e3d6000fd5b505050506040513d604081101561089057600080fd5b508051602090910151609a54609b54609c54604080517fac41865a00000000000000000000000000000000000000000000000000000000815273ffffffffffffffffffffffffffffffffffffffff9384166004820152918316602483015280519597509395506000948594929093169263ac41865a92604480840193919291829003018186803b15801561092357600080fd5b505afa158015610937573d6000803e3d6000fd5b505050506040513d604081101561094d57600080fd5b50805160209091015190925090508361096881848685611c4d565b95509550505050509091565b60009081526065602052604090206002015490565b6000828152606560205260409020600201546109ac906109a7611c84565b61144b565b610a01576040517f08c379a000000000000000000000000000000000000000000000000000000000815260040180806020018281038252602f81526020018061272a602f913960400191505060405180910390fd5b610a0b8282611c88565b5050565b600054610100900460ff1680610a285750610a28611d0b565b80610a36575060005460ff16155b610a8b576040517f08c379a000000000000000000000000000000000000000000000000000000000815260040180806020018281038252602e815260200180612789602e913960400191505060405180910390fd5b600054610100900460ff16158015610af157600080547fffffffffffffffffffffffffffffffffffffffffffffffffffffffffffffff007fffffffffffffffffffffffffffffffffffffffffffffffffffffffffffff00ff909116610100171660011790555b610af9611d1c565b610b01611e40565b609780547fffffffffffffffffffffffff000000000000000000000000000000000000000090811673ffffffffffffffffffffffffffffffffffffffff8b811691909117928390556098805483168b831617908190556099805484168b84161790819055609a805485168b8516179055609b805485168a8516179055609c805490941688841617909355604080517fac41865a000000000000000000000000000000000000000000000000000000008152918316600483015292821660248201528251939091169263ac41865a92604480840193919291829003018186803b158015610bec57600080fd5b505afa158015610c00573d6000803e3d6000fd5b505050506040513d6040811015610c1657600080fd5b5050609a54609b54609c54604080517fac41865a00000000000000000000000000000000000000000000000000000000815273ffffffffffffffffffffffffffffffffffffffff938416600482015291831660248301528051929093169263ac41865a92604480840193829003018186803b158015610c9457600080fd5b505afa158015610ca8573d6000803e3d6000fd5b505050506040513d6040811015610cbe57600080fd5b505062015180609d55612904609e55609f80547fffffffffffffffffffffffff00000000000000000000000000000000000000001673ffffffffffffffffffffffffffffffffffffffff84161790558015610d3c57600080547fffffffffffffffffffffffffffffffffffffffffffffffffffffffffffff00ff1690555b5050505050505050565b610d4e611c84565b73ffffffffffffffffffffffffffffffffffffffff168173ffffffffffffffffffffffffffffffffffffffff1614610dd1576040517f08c379a000000000000000000000000000000000000000000000000000000000815260040180806020018281038252602f8152602001806127d8602f913960400191505060405180910390fd5b610a0b8282611f32565b609f54604080517fb536818a000000000000000000000000000000000000000000000000000000008152905173ffffffffffffffffffffffffffffffffffffffff909216916391d1485491839163b536818a91600480820192602092909190829003018186803b158015610e4e57600080fd5b505afa158015610e62573d6000803e3d6000fd5b505050506040513d6020811015610e7857600080fd5b5051604080517fffffffff0000000000000000000000000000000000000000000000000000000060e085901b1681526004810192909252336024830152516044808301926020929190829003018186803b158015610ed557600080fd5b505afa158015610ee9573d6000803e3d6000fd5b505050506040513d6020811015610eff57600080fd5b50518061102e5750609f54604080517fe58378bb000000000000000000000000000000000000000000000000000000008152905173ffffffffffffffffffffffffffffffffffffffff909216916391d1485491839163e58378bb91600480820192602092909190829003018186803b158015610f7a57600080fd5b505afa158015610f8e573d6000803e3d6000fd5b505050506040513d6020811015610fa457600080fd5b5051604080517fffffffff0000000000000000000000000000000000000000000000000000000060e085901b1681526004810192909252336024830152516044808301926020929190829003018186803b15801561100157600080fd5b505afa158015611015573d6000803e3d6000fd5b505050506040513d602081101561102b57600080fd5b50515b61109957604080517f08c379a000000000000000000000000000000000000000000000000000000000815260206004820152601760248201527f21286f776e6572526f6c65206f7220676f76526f6c6529000000000000000000604482015290519081900360640190fd5b6110a1611fb5565b565b609d5481565b60335460ff1690565b609754609854609954604080517fac41865a00000000000000000000000000000000000000000000000000000000815273ffffffffffffffffffffffffffffffffffffffff9384166004820152918316602483015280516000948594169263ac41865a926044808301939192829003018186803b15801561113257600080fd5b505afa158015611146573d6000803e3d6000fd5b505050506040513d604081101561115c57600080fd5b505191505090565b609f54604080517fb536818a000000000000000000000000000000000000000000000000000000008152905173ffffffffffffffffffffffffffffffffffffffff909216916391d1485491839163b536818a91600480820192602092909190829003018186803b1580156111d757600080fd5b505afa1580156111eb573d6000803e3d6000fd5b505050506040513d602081101561120157600080fd5b5051604080517fffffffff0000000000000000000000000000000000000000000000000000000060e085901b1681526004810192909252336024830152516044808301926020929190829003018186803b15801561125e57600080fd5b505afa158015611272573d6000803e3d6000fd5b505050506040513d602081101561128857600080fd5b5051806113b75750609f54604080517fe58378bb000000000000000000000000000000000000000000000000000000008152905173ffffffffffffffffffffffffffffffffffffffff909216916391d1485491839163e58378bb91600480820192602092909190829003018186803b15801561130357600080fd5b505afa158015611317573d6000803e3d6000fd5b505050506040513d602081101561132d57600080fd5b5051604080517fffffffff0000000000000000000000000000000000000000000000000000000060e085901b1681526004810192909252336024830152516044808301926020929190829003018186803b15801561138a57600080fd5b505afa15801561139e573d6000803e3d6000fd5b505050506040513d60208110156113b457600080fd5b50515b61142257604080517f08c379a000000000000000000000000000000000000000000000000000000000815260206004820152601760248201527f21286f776e6572526f6c65206f7220676f76526f6c6529000000000000000000604482015290519081900360640190fd5b6110a16120a3565b6000828152606560205260408120611442908361216b565b90505b92915050565b60008281526065602052604081206114429083612177565b609a54609b54609c5473ffffffffffffffffffffffffffffffffffffffff92831692918216911683565b600081565b60975460985460995473ffffffffffffffffffffffffffffffffffffffff92831692918216911683565b609f5473ffffffffffffffffffffffffffffffffffffffff1681565b600081815260656020526040812061144590612199565b609f54604080517fe58378bb000000000000000000000000000000000000000000000000000000008152905173ffffffffffffffffffffffffffffffffffffffff909216916391d1485491839163e58378bb91600480820192602092909190829003018186803b15801561156257600080fd5b505afa158015611576573d6000803e3d6000fd5b505050506040513d602081101561158c57600080fd5b5051604080517fffffffff0000000000000000000000000000000000000000000000000000000060e085901b1681526004810192909252336024830152516044808301926020929190829003018186803b1580156115e957600080fd5b505afa1580156115fd573d6000803e3d6000fd5b505050506040513d602081101561161357600080fd5b505161168057604080517f08c379a000000000000000000000000000000000000000000000000000000000815260206004820152600a60248201527f216f776e6572526f6c6500000000000000000000000000000000000000000000604482015290519081900360640190fd5b6097805473ffffffffffffffffffffffffffffffffffffffff8086167fffffffffffffffffffffffff000000000000000000000000000000000000000092831617928390556098805486831690841617908190556099805486841694169390931792839055604080517fac41865a000000000000000000000000000000000000000000000000000000008152918316600483015292821660248201528251939091169263ac41865a92604480840193919291829003018186803b15801561174657600080fd5b505afa15801561175a573d6000803e3d6000fd5b505050506040513d604081101561177057600080fd5b50506040805173ffffffffffffffffffffffffffffffffffffffff85811682528481166020830152831681830152905133917ffe139b9e3b3a49c56a94c7c72c4806845f19a6d47a76c784ac52770fea865797919081900360600190a2505050565b6000828152606560205260409020600201546117f0906109a7611c84565b610dd1576040517f08c379a00000000000000000000000000000000000000000000000000000000081526004018080602001828103825260308152602001806127596030913960400191505060405180910390fd5b609f54604080517fe58378bb000000000000000000000000000000000000000000000000000000008152905173ffffffffffffffffffffffffffffffffffffffff909216916391d1485491839163e58378bb91600480820192602092909190829003018186803b1580156118b857600080fd5b505afa1580156118cc573d6000803e3d6000fd5b505050506040513d60208110156118e257600080fd5b5051604080517fffffffff0000000000000000000000000000000000000000000000000000000060e085901b1681526004810192909252336024830152516044808301926020929190829003018186803b15801561193f57600080fd5b505afa158015611953573d6000803e3d6000fd5b505050506040513d602081101561196957600080fd5b50516119d657604080517f08c379a000000000000000000000000000000000000000000000000000000000815260206004820152600a60248201527f216f776e6572526f6c6500000000000000000000000000000000000000000000604482015290519081900360640190fd5b610e1081101580156119eb5750620151808111155b611a40576040517f08c379a00000000000000000000000000000000000000000000000000000000081526004018080602001828103825260248152602001806127066024913960400191505060405180910390fd5b609d81905560408051828152905133917f472c5e14bb804bd7b201c5c27f2ea820980b37ef7611806e7b3f6db6758f32e0919081900360200190a250565b609f54604080517fe58378bb000000000000000000000000000000000000000000000000000000008152905173ffffffffffffffffffffffffffffffffffffffff909216916391d1485491839163e58378bb91600480820192602092909190829003018186803b158015611af157600080fd5b505afa158015611b05573d6000803e3d6000fd5b505050506040513d6020811015611b1b57600080fd5b5051604080517fffffffff0000000000000000000000000000000000000000000000000000000060e085901b1681526004810192909252336024830152516044808301926020929190829003018186803b158015611b7857600080fd5b505afa158015611b8c573d6000803e3d6000fd5b505050506040513d6020811015611ba257600080fd5b5051611c0f57604080517f08c379a000000000000000000000000000000000000000000000000000000000815260206004820152600a60248201527f216f776e6572526f6c6500000000000000000000000000000000000000000000604482015290519081900360640190fd5b609e81905560408051828152905133917f35cd4efb2c38347b81695c1e23f73668c2281ecac3def24759edb98bab45f1f8919081900360200190a250565b6000611c5983836121a4565b8015611c6a5750611c6a85856121c2565b8015611c7b5750611c796110a9565b155b95945050505050565b3390565b6000828152606560205260409020611ca09082612211565b15610a0b57611cad611c84565b73ffffffffffffffffffffffffffffffffffffffff168173ffffffffffffffffffffffffffffffffffffffff16837f2f8788117e7eff1d82e926ec794901d17c78024a50270940304540a733656f0d60405160405180910390a45050565b6000611d1630612233565b15905090565b600054610100900460ff1680611d355750611d35611d0b565b80611d43575060005460ff16155b611d98576040517f08c379a000000000000000000000000000000000000000000000000000000000815260040180806020018281038252602e815260200180612789602e913960400191505060405180910390fd5b600054610100900460ff16158015611dfe57600080547fffffffffffffffffffffffffffffffffffffffffffffffffffffffffffffff007fffffffffffffffffffffffffffffffffffffffffffffffffffffffffffff00ff909116610100171660011790555b611e06612239565b611e0e61234b565b8015611e3d57600080547fffffffffffffffffffffffffffffffffffffffffffffffffffffffffffff00ff1690555b50565b600054610100900460ff1680611e595750611e59611d0b565b80611e67575060005460ff16155b611ebc576040517f08c379a000000000000000000000000000000000000000000000000000000000815260040180806020018281038252602e815260200180612789602e913960400191505060405180910390fd5b600054610100900460ff16158015611f2257600080547fffffffffffffffffffffffffffffffffffffffffffffffffffffffffffffff007fffffffffffffffffffffffffffffffffffffffffffffffffffffffffffff00ff909116610100171660011790555b611f2a612239565b611e0e612239565b6000828152606560205260409020611f4a9082612486565b15610a0b57611f57611c84565b73ffffffffffffffffffffffffffffffffffffffff168173ffffffffffffffffffffffffffffffffffffffff16837ff6391f5c32d9c69d2a47ea670b442974b53935d1edc7fd64eb21e047a839171b60405160405180910390a45050565b611fbd6110a9565b61202857604080517f08c379a000000000000000000000000000000000000000000000000000000000815260206004820152601460248201527f5061757361626c653a206e6f7420706175736564000000000000000000000000604482015290519081900360640190fd5b603380547fffffffffffffffffffffffffffffffffffffffffffffffffffffffffffffff001690557f5db9ee0a495bf2e6ff9c91a7834c1ba4fdd244a5e8aa4e537bd38aeae4b073aa612079611c84565b6040805173ffffffffffffffffffffffffffffffffffffffff9092168252519081900360200190a1565b6120ab6110a9565b1561211757604080517f08c379a000000000000000000000000000000000000000000000000000000000815260206004820152601060248201527f5061757361626c653a2070617573656400000000000000000000000000000000604482015290519081900360640190fd5b603380547fffffffffffffffffffffffffffffffffffffffffffffffffffffffffffffff001660011790557f62e78cea01bee320cd4e420270b5ea74000d11b0c9f74754ebdbfc544b05a258612079611c84565b600061144283836124a8565b60006114428373ffffffffffffffffffffffffffffffffffffffff8416612526565b60006114458261253e565b6000609d5442038310158015611442575050609d5442031115919050565b60006121d9609e548361254290919063ffffffff16565b6121e584612710612542565b1115801561144257506121fa82612710612542565b609e54612208908590612542565b10159392505050565b60006114428373ffffffffffffffffffffffffffffffffffffffff84166125b5565b3b151590565b600054610100900460ff16806122525750612252611d0b565b80612260575060005460ff16155b6122b5576040517f08c379a000000000000000000000000000000000000000000000000000000000815260040180806020018281038252602e815260200180612789602e913960400191505060405180910390fd5b600054610100900460ff16158015611e0e57600080547fffffffffffffffffffffffffffffffffffffffffffffffffffffffffffffff007fffffffffffffffffffffffffffffffffffffffffffffffffffffffffffff00ff909116610100171660011790558015611e3d57600080547fffffffffffffffffffffffffffffffffffffffffffffffffffffffffffff00ff16905550565b600054610100900460ff16806123645750612364611d0b565b80612372575060005460ff16155b6123c7576040517f08c379a000000000000000000000000000000000000000000000000000000000815260040180806020018281038252602e815260200180612789602e913960400191505060405180910390fd5b600054610100900460ff1615801561242d57600080547fffffffffffffffffffffffffffffffffffffffffffffffffffffffffffffff007fffffffffffffffffffffffffffffffffffffffffffffffffffffffffffff00ff909116610100171660011790555b603380547fffffffffffffffffffffffffffffffffffffffffffffffffffffffffffffff001690558015611e3d57600080547fffffffffffffffffffffffffffffffffffffffffffffffffffffffffffff00ff16905550565b60006114428373ffffffffffffffffffffffffffffffffffffffff84166125ff565b81546000908210612504576040517f08c379a00000000000000000000000000000000000000000000000000000000081526004018080602001828103825260228152602001806126e46022913960400191505060405180910390fd5b82600001828154811061251357fe5b9060005260206000200154905092915050565b60009081526001919091016020526040902054151590565b5490565b60008261255157506000611445565b8282028284828161255e57fe5b0414611442576040517f08c379a00000000000000000000000000000000000000000000000000000000081526004018080602001828103825260218152602001806127b76021913960400191505060405180910390fd5b60006125c18383612526565b6125f757508154600181810184556000848152602080822090930184905584548482528286019093526040902091909155611445565b506000611445565b600081815260018301602052604081205480156126d95783547fffffffffffffffffffffffffffffffffffffffffffffffffffffffffffffffff808301919081019060009087908390811061265057fe5b906000526020600020015490508087600001848154811061266d57fe5b60009182526020808320909101929092558281526001898101909252604090209084019055865487908061269d57fe5b60019003818190600052602060002001600090559055866001016000878152602001908152602001600020600090556001945050505050611445565b600091505061144556fe456e756d657261626c655365743a20696e646578206f7574206f6620626f756e64735374726963744f7261636c655072696365466565642f6261642d70726963652d6c696665416363657373436f6e74726f6c3a2073656e646572206d75737420626520616e2061646d696e20746f206772616e74416363657373436f6e74726f6c3a2073656e646572206d75737420626520616e2061646d696e20746f207265766f6b65496e697469616c697a61626c653a20636f6e747261637420697320616c726561647920696e697469616c697a6564536166654d6174683a206d756c7469706c69636174696f6e206f766572666c6f77416363657373436f6e74726f6c3a2063616e206f6e6c792072656e6f756e636520726f6c657320666f722073656c66a2646970667358221220d6597a7b10763e45060132a7ba1c8a6b8606e77fdad8afcaed4530a47de2a1d564736f6c634300060c0033",
  "linkReferences": {},
  "deployedLinkReferences": {}
}