{
  "_format": "hh-sol-artifact-1",
  "contractName": "AccessControlConfig",
  "sourceName": "contracts/stablecoin/core/config/AccessControlConfig.sol",
  "abi": [
    {
      "anonymous": false,
      "inputs": [
        {
          "indexed": true,
          "internalType": "bytes32",
          "name": "role",
          "type": "bytes32"
        },
        {
          "indexed": true,
          "internalType": "bytes32",
          "name": "previousAdminRole",
          "type": "bytes32"
        },
        {
          "indexed": true,
          "internalType": "bytes32",
          "name": "newAdminRole",
          "type": "bytes32"
        }
      ],
      "name": "RoleAdminChanged",
      "type": "event"
    },
    {
      "anonymous": false,
      "inputs": [
        {
          "indexed": true,
          "internalType": "bytes32",
          "name": "role",
          "type": "bytes32"
        },
        {
          "indexed": true,
          "internalType": "address",
          "name": "account",
          "type": "address"
        },
        {
          "indexed": true,
          "internalType": "address",
          "name": "sender",
          "type": "address"
        }
      ],
      "name": "RoleGranted",
      "type": "event"
    },
    {
      "anonymous": false,
      "inputs": [
        {
          "indexed": true,
          "internalType": "bytes32",
          "name": "role",
          "type": "bytes32"
        },
        {
          "indexed": true,
          "internalType": "address",
          "name": "account",
          "type": "address"
        },
        {
          "indexed": true,
          "internalType": "address",
          "name": "sender",
          "type": "address"
        }
      ],
      "name": "RoleRevoked",
      "type": "event"
    },
    {
      "inputs": [],
      "name": "ADAPTER_ROLE",
      "outputs": [
        {
          "internalType": "bytes32",
          "name": "",
          "type": "bytes32"
        }
      ],
      "stateMutability": "view",
      "type": "function"
    },
    {
      "inputs": [],
      "name": "BOOK_KEEPER_ROLE",
      "outputs": [
        {
          "internalType": "bytes32",
          "name": "",
          "type": "bytes32"
        }
      ],
      "stateMutability": "view",
      "type": "function"
    },
    {
      "inputs": [],
      "name": "COLLATERAL_MANAGER_ROLE",
      "outputs": [
        {
          "internalType": "bytes32",
          "name": "",
          "type": "bytes32"
        }
      ],
      "stateMutability": "view",
      "type": "function"
    },
    {
      "inputs": [],
      "name": "DEFAULT_ADMIN_ROLE",
      "outputs": [
        {
          "internalType": "bytes32",
          "name": "",
          "type": "bytes32"
        }
      ],
      "stateMutability": "view",
      "type": "function"
    },
    {
      "inputs": [],
      "name": "GOV_ROLE",
      "outputs": [
        {
          "internalType": "bytes32",
          "name": "",
          "type": "bytes32"
        }
      ],
      "stateMutability": "view",
      "type": "function"
    },
    {
      "inputs": [],
      "name": "LIQUIDATION_ENGINE_ROLE",
      "outputs": [
        {
          "internalType": "bytes32",
          "name": "",
          "type": "bytes32"
        }
      ],
      "stateMutability": "view",
      "type": "function"
    },
    {
      "inputs": [],
      "name": "MINTABLE_ROLE",
      "outputs": [
        {
          "internalType": "bytes32",
          "name": "",
          "type": "bytes32"
        }
      ],
      "stateMutability": "view",
      "type": "function"
    },
    {
      "inputs": [],
      "name": "OWNER_ROLE",
      "outputs": [
        {
          "internalType": "bytes32",
          "name": "",
          "type": "bytes32"
        }
      ],
      "stateMutability": "view",
      "type": "function"
    },
    {
      "inputs": [],
      "name": "POSITION_MANAGER_ROLE",
      "outputs": [
        {
          "internalType": "bytes32",
          "name": "",
          "type": "bytes32"
        }
      ],
      "stateMutability": "view",
      "type": "function"
    },
    {
      "inputs": [],
      "name": "PRICE_ORACLE_ROLE",
      "outputs": [
        {
          "internalType": "bytes32",
          "name": "",
          "type": "bytes32"
        }
      ],
      "stateMutability": "view",
      "type": "function"
    },
    {
      "inputs": [],
      "name": "SHOW_STOPPER_ROLE",
      "outputs": [
        {
          "internalType": "bytes32",
          "name": "",
          "type": "bytes32"
        }
      ],
      "stateMutability": "view",
      "type": "function"
    },
    {
      "inputs": [],
      "name": "STABILITY_FEE_COLLECTOR_ROLE",
      "outputs": [
        {
          "internalType": "bytes32",
          "name": "",
          "type": "bytes32"
        }
      ],
      "stateMutability": "view",
      "type": "function"
    },
    {
      "inputs": [
        {
          "internalType": "bytes32",
          "name": "role",
          "type": "bytes32"
        }
      ],
      "name": "getRoleAdmin",
      "outputs": [
        {
          "internalType": "bytes32",
          "name": "",
          "type": "bytes32"
        }
      ],
      "stateMutability": "view",
      "type": "function"
    },
    {
      "inputs": [
        {
          "internalType": "bytes32",
          "name": "role",
          "type": "bytes32"
        },
        {
          "internalType": "uint256",
          "name": "index",
          "type": "uint256"
        }
      ],
      "name": "getRoleMember",
      "outputs": [
        {
          "internalType": "address",
          "name": "",
          "type": "address"
        }
      ],
      "stateMutability": "view",
      "type": "function"
    },
    {
      "inputs": [
        {
          "internalType": "bytes32",
          "name": "role",
          "type": "bytes32"
        }
      ],
      "name": "getRoleMemberCount",
      "outputs": [
        {
          "internalType": "uint256",
          "name": "",
          "type": "uint256"
        }
      ],
      "stateMutability": "view",
      "type": "function"
    },
    {
      "inputs": [
        {
          "internalType": "bytes32",
          "name": "role",
          "type": "bytes32"
        },
        {
          "internalType": "address",
          "name": "account",
          "type": "address"
        }
      ],
      "name": "grantRole",
      "outputs": [],
      "stateMutability": "nonpayable",
      "type": "function"
    },
    {
      "inputs": [
        {
          "internalType": "bytes32",
          "name": "role",
          "type": "bytes32"
        },
        {
          "internalType": "address",
          "name": "account",
          "type": "address"
        }
      ],
      "name": "hasRole",
      "outputs": [
        {
          "internalType": "bool",
          "name": "",
          "type": "bool"
        }
      ],
      "stateMutability": "view",
      "type": "function"
    },
    {
      "inputs": [],
      "name": "initialize",
      "outputs": [],
      "stateMutability": "nonpayable",
      "type": "function"
    },
    {
      "inputs": [
        {
          "internalType": "bytes32",
          "name": "role",
          "type": "bytes32"
        },
        {
          "internalType": "address",
          "name": "account",
          "type": "address"
        }
      ],
      "name": "renounceRole",
      "outputs": [],
      "stateMutability": "nonpayable",
      "type": "function"
    },
    {
      "inputs": [
        {
          "internalType": "bytes32",
          "name": "role",
          "type": "bytes32"
        },
        {
          "internalType": "address",
          "name": "account",
          "type": "address"
        }
      ],
      "name": "revokeRole",
      "outputs": [],
      "stateMutability": "nonpayable",
      "type": "function"
    }
  ],
  "bytecode": "0x608060405234801561001057600080fd5b50610e68806100206000396000f3fe608060405234801561001057600080fd5b506004361061016c5760003560e01c80639010d07c116100cd578063ca15c87311610081578063d7a47a6911610066578063d7a47a6914610353578063e58378bb146102e5578063e8ff193d1461035b5761016c565b8063ca15c873146102fd578063d547741f1461031a5761016c565b8063a217fddf116100b2578063a217fddf146102e5578063b536818a146102ed578063b998902f146102f55761016c565b80639010d07c1461024c57806391d14854146102985761016c565b80632f2ff15d116101245780636792166f116101095780636792166f146102345780636e19aa591461023c5780638129fc1c146102445761016c565b80632f2ff15d146101c057806336568abe146101fb5761016c565b806323868800116101555780632386880014610193578063248a9ca31461019b5780632e718ab7146101b85761016c565b806302a882e61461017157806308e45bc51461018b575b600080fd5b610179610363565b60408051918252519081900360200190f35b610179610387565b6101796103ab565b610179600480360360208110156101b157600080fd5b50356103cf565b6101796103e4565b6101f9600480360360408110156101d657600080fd5b508035906020013573ffffffffffffffffffffffffffffffffffffffff16610408565b005b6101f96004803603604081101561021157600080fd5b508035906020013573ffffffffffffffffffffffffffffffffffffffff1661048e565b610179610523565b610179610547565b6101f961056b565b61026f6004803603604081101561026257600080fd5b5080359060200135610692565b6040805173ffffffffffffffffffffffffffffffffffffffff9092168252519081900360200190f35b6102d1600480360360408110156102ae57600080fd5b508035906020013573ffffffffffffffffffffffffffffffffffffffff166106b3565b604080519115158252519081900360200190f35b6101796106cb565b6101796106d0565b6101796106f4565b6101796004803603602081101561031357600080fd5b5035610718565b6101f96004803603604081101561033057600080fd5b508035906020013573ffffffffffffffffffffffffffffffffffffffff1661072f565b6101796107a2565b6101796107c6565b7fdbeb657137b1822b3d5418bea6fd641226d964b4c3871ef23546db262225887181565b7f79dc86561fc62d7eb9a727d180af689d208d86aa03e0931051e770b97b8f8fac81565b7f515cd6857d3fa5ea767894c7605f2a1266baaf48168f41fb0ae14a219567d6a481565b60009081526033602052604090206002015490565b7f85e8f2d6819d6b24108062d87ea08f54651bcb8960d98062d3faf96e7873b8b981565b60008281526033602052604090206002015461042b906104266107ea565b6106b3565b610480576040517f08c379a000000000000000000000000000000000000000000000000000000000815260040180806020018281038252602f815260200180610d77602f913960400191505060405180910390fd5b61048a82826107ee565b5050565b6104966107ea565b73ffffffffffffffffffffffffffffffffffffffff168173ffffffffffffffffffffffffffffffffffffffff1614610519576040517f08c379a000000000000000000000000000000000000000000000000000000000815260040180806020018281038252602f815260200180610e04602f913960400191505060405180910390fd5b61048a8282610871565b7f1cf2b81dce95f0e7b91e95903f9b70bc58c33207c55b6b0bc3ba3d0522942e3181565b7f6af7a8f7f9ca95b722bc4d8832aeefb2b4e004a3a488a8f38b84605fa58e809b81565b600054610100900460ff168061058457506105846108f4565b80610592575060005460ff16155b6105e7576040517f08c379a000000000000000000000000000000000000000000000000000000000815260040180806020018281038252602e815260200180610dd6602e913960400191505060405180910390fd5b600054610100900460ff1615801561064d57600080547fffffffffffffffffffffffffffffffffffffffffffffffffffffffffffffff007fffffffffffffffffffffffffffffffffffffffffffffffffffffffffffff00ff909116610100171660011790555b610655610905565b610660600033610480565b801561068f57600080547fffffffffffffffffffffffffffffffffffffffffffffffffffffffffffff00ff1690555b50565b60008281526033602052604081206106aa90836109f7565b90505b92915050565b60008281526033602052604081206106aa9083610a03565b600081565b7f0603f2636f0ca34ae3ea5a23bb826e2bd2ffd59fb1c01edc1ba10fba2899d1ba81565b7f1337d7d57528a8879766fdf2d0456253114c66c4fc263c97168bfdb007c64c6681565b60008181526033602052604081206106ad90610a25565b60008281526033602052604090206002015461074d906104266107ea565b610519576040517f08c379a0000000000000000000000000000000000000000000000000000000008152600401808060200182810382526030815260200180610da66030913960400191505060405180910390fd5b7fa5b93761cdcf4730aa6f4ed2fccea400435617d3fb902128f8d4cf7f6265b30681565b7f73cc1824a5ac1764c2e141cf3615a9dcb73677c4e5be5154addc88d3e0cc148081565b3390565b60008281526033602052604090206108069082610a30565b1561048a576108136107ea565b73ffffffffffffffffffffffffffffffffffffffff168173ffffffffffffffffffffffffffffffffffffffff16837f2f8788117e7eff1d82e926ec794901d17c78024a50270940304540a733656f0d60405160405180910390a45050565b60008281526033602052604090206108899082610a52565b1561048a576108966107ea565b73ffffffffffffffffffffffffffffffffffffffff168173ffffffffffffffffffffffffffffffffffffffff16837ff6391f5c32d9c69d2a47ea670b442974b53935d1edc7fd64eb21e047a839171b60405160405180910390a45050565b60006108ff30610a74565b15905090565b600054610100900460ff168061091e575061091e6108f4565b8061092c575060005460ff16155b610981576040517f08c379a000000000000000000000000000000000000000000000000000000000815260040180806020018281038252602e815260200180610dd6602e913960400191505060405180910390fd5b600054610100900460ff161580156109e757600080547fffffffffffffffffffffffffffffffffffffffffffffffffffffffffffffff007fffffffffffffffffffffffffffffffffffffffffffffffffffffffffffff00ff909116610100171660011790555b6109ef610a7a565b610660610a7a565b60006106aa8383610b8c565b60006106aa8373ffffffffffffffffffffffffffffffffffffffff8416610c0a565b60006106ad82610c22565b60006106aa8373ffffffffffffffffffffffffffffffffffffffff8416610c26565b60006106aa8373ffffffffffffffffffffffffffffffffffffffff8416610c70565b3b151590565b600054610100900460ff1680610a935750610a936108f4565b80610aa1575060005460ff16155b610af6576040517f08c379a000000000000000000000000000000000000000000000000000000000815260040180806020018281038252602e815260200180610dd6602e913960400191505060405180910390fd5b600054610100900460ff1615801561066057600080547fffffffffffffffffffffffffffffffffffffffffffffffffffffffffffffff007fffffffffffffffffffffffffffffffffffffffffffffffffffffffffffff00ff90911661010017166001179055801561068f57600080547fffffffffffffffffffffffffffffffffffffffffffffffffffffffffffff00ff16905550565b81546000908210610be8576040517f08c379a0000000000000000000000000000000000000000000000000000000008152600401808060200182810382526022815260200180610d556022913960400191505060405180910390fd5b826000018281548110610bf757fe5b9060005260206000200154905092915050565b60009081526001919091016020526040902054151590565b5490565b6000610c328383610c0a565b610c68575081546001818101845560008481526020808220909301849055845484825282860190935260409020919091556106ad565b5060006106ad565b60008181526001830160205260408120548015610d4a5783547fffffffffffffffffffffffffffffffffffffffffffffffffffffffffffffffff8083019190810190600090879083908110610cc157fe5b9060005260206000200154905080876000018481548110610cde57fe5b600091825260208083209091019290925582815260018981019092526040902090840190558654879080610d0e57fe5b600190038181906000526020600020016000905590558660010160008781526020019081526020016000206000905560019450505050506106ad565b60009150506106ad56fe456e756d657261626c655365743a20696e646578206f7574206f6620626f756e6473416363657373436f6e74726f6c3a2073656e646572206d75737420626520616e2061646d696e20746f206772616e74416363657373436f6e74726f6c3a2073656e646572206d75737420626520616e2061646d696e20746f207265766f6b65496e697469616c697a61626c653a20636f6e747261637420697320616c726561647920696e697469616c697a6564416363657373436f6e74726f6c3a2063616e206f6e6c792072656e6f756e636520726f6c657320666f722073656c66a2646970667358221220057f49ac6ff8f338035c5b15ad438d37ec75736cc7f8f2bc275b346207aa961664736f6c634300060c0033",
  "linkReferences": {},
  "deployedLinkReferences": {}
}