{
  "_format": "hh-sol-artifact-1",
  "contractName": "Faucet",
  "sourceName": "contracts/bridge/Faucet.sol",
  "abi": [
    {
      "inputs": [],
      "stateMutability": "nonpayable",
      "type": "constructor"
    },
    {
      "inputs": [
        {
          "internalType": "address[]",
          "name": "tokens",
          "type": "address[]"
        },
        {
          "internalType": "uint256[]",
          "name": "amounts",
          "type": "uint256[]"
        },
        {
          "internalType": "address",
          "name": "who",
          "type": "address"
        }
      ],
      "name": "supply",
      "outputs": [],
      "stateMutability": "nonpayable",
      "type": "function"
    }
  ],
  "bytecode": "0x608060405234801561001057600080fd5b50610464806100206000396000f3fe608060405234801561001057600080fd5b506004361061002b5760003560e01c8063ff4fa2f614610030575b600080fd5b61004361003e3660046102cf565b610045565b005b81518351146100b4576040517f08c379a000000000000000000000000000000000000000000000000000000000815260206004820152600f60248201527f496e76616c6964206c656e677468730000000000000000000000000000000000604482015260640160405180910390fd5b60005b8351811015610193578381815181106100d2576100d261039f565b602002602001015173ffffffffffffffffffffffffffffffffffffffff166340c10f19838584815181106101085761010861039f565b60200260200101516040518363ffffffff1660e01b815260040161014e92919073ffffffffffffffffffffffffffffffffffffffff929092168252602082015260400190565b600060405180830381600087803b15801561016857600080fd5b505af115801561017c573d6000803e3d6000fd5b50505050808061018b906103ce565b9150506100b7565b50505050565b7f4e487b7100000000000000000000000000000000000000000000000000000000600052604160045260246000fd5b604051601f82017fffffffffffffffffffffffffffffffffffffffffffffffffffffffffffffffe016810167ffffffffffffffff8111828210171561020f5761020f610199565b604052919050565b600067ffffffffffffffff82111561023157610231610199565b5060051b60200190565b803573ffffffffffffffffffffffffffffffffffffffff8116811461025f57600080fd5b919050565b600082601f83011261027557600080fd5b8135602061028a61028583610217565b6101c8565b82815260059290921b840181019181810190868411156102a957600080fd5b8286015b848110156102c457803583529183019183016102ad565b509695505050505050565b6000806000606084860312156102e457600080fd5b833567ffffffffffffffff808211156102fc57600080fd5b818601915086601f83011261031057600080fd5b8135602061032061028583610217565b82815260059290921b8401810191818101908a84111561033f57600080fd5b948201945b83861015610364576103558661023b565b82529482019490820190610344565b9750508701359250508082111561037a57600080fd5b5061038786828701610264565b9250506103966040850161023b565b90509250925092565b7f4e487b7100000000000000000000000000000000000000000000000000000000600052603260045260246000fd5b60007fffffffffffffffffffffffffffffffffffffffffffffffffffffffffffffffff821415610427577f4e487b7100000000000000000000000000000000000000000000000000000000600052601160045260246000fd5b506001019056fea2646970667358221220ece294e3595b1c7c58e747a7ada8e73e5c6ec2b422a62ba85d3ed631b256e09d64736f6c63430008090033",
  "linkReferences": {},
  "deployedLinkReferences": {}
}