{
  "_format": "hh-sol-artifact-1",
  "contractName": "PriceOracle",
  "sourceName": "contracts/stablecoin/core/PriceOracle.sol",
  "abi": [
    {
      "anonymous": false,
      "inputs": [],
      "name": "LogCage",
      "type": "event"
    },
    {
      "anonymous": false,
      "inputs": [
        {
          "indexed": false,
          "internalType": "bytes32",
          "name": "_poolId",
          "type": "bytes32"
        },
        {
          "indexed": false,
          "internalType": "bytes32",
          "name": "_rawPrice",
          "type": "bytes32"
        },
        {
          "indexed": false,
          "internalType": "uint256",
          "name": "_priceWithSafetyMargin",
          "type": "uint256"
        }
      ],
      "name": "LogSetPrice",
      "type": "event"
    },
    {
      "anonymous": false,
      "inputs": [
        {
          "indexed": true,
          "internalType": "address",
          "name": "_caller",
          "type": "address"
        },
        {
          "indexed": false,
          "internalType": "uint256",
          "name": "_data",
          "type": "uint256"
        }
      ],
      "name": "LogSetStableCoinReferencePrice",
      "type": "event"
    },
    {
      "anonymous": false,
      "inputs": [],
      "name": "LogUncage",
      "type": "event"
    },
    {
      "anonymous": false,
      "inputs": [
        {
          "indexed": false,
          "internalType": "address",
          "name": "account",
          "type": "address"
        }
      ],
      "name": "Paused",
      "type": "event"
    },
    {
      "anonymous": false,
      "inputs": [
        {
          "indexed": false,
          "internalType": "address",
          "name": "account",
          "type": "address"
        }
      ],
      "name": "Unpaused",
      "type": "event"
    },
    {
      "inputs": [],
      "name": "bookKeeper",
      "outputs": [
        {
          "internalType": "contract IBookKeeper",
          "name": "",
          "type": "address"
        }
      ],
      "stateMutability": "view",
      "type": "function"
    },
    {
      "inputs": [],
      "name": "cage",
      "outputs": [],
      "stateMutability": "nonpayable",
      "type": "function"
    },
    {
      "inputs": [
        {
          "internalType": "address",
          "name": "_bookKeeper",
          "type": "address"
        }
      ],
      "name": "initialize",
      "outputs": [],
      "stateMutability": "nonpayable",
      "type": "function"
    },
    {
      "inputs": [],
      "name": "live",
      "outputs": [
        {
          "internalType": "uint256",
          "name": "",
          "type": "uint256"
        }
      ],
      "stateMutability": "view",
      "type": "function"
    },
    {
      "inputs": [],
      "name": "pause",
      "outputs": [],
      "stateMutability": "nonpayable",
      "type": "function"
    },
    {
      "inputs": [],
      "name": "paused",
      "outputs": [
        {
          "internalType": "bool",
          "name": "",
          "type": "bool"
        }
      ],
      "stateMutability": "view",
      "type": "function"
    },
    {
      "inputs": [
        {
          "internalType": "bytes32",
          "name": "_collateralPoolId",
          "type": "bytes32"
        }
      ],
      "name": "setPrice",
      "outputs": [],
      "stateMutability": "nonpayable",
      "type": "function"
    },
    {
      "inputs": [
        {
          "internalType": "uint256",
          "name": "_data",
          "type": "uint256"
        }
      ],
      "name": "setStableCoinReferencePrice",
      "outputs": [],
      "stateMutability": "nonpayable",
      "type": "function"
    },
    {
      "inputs": [],
      "name": "stableCoinReferencePrice",
      "outputs": [
        {
          "internalType": "uint256",
          "name": "",
          "type": "uint256"
        }
      ],
      "stateMutability": "view",
      "type": "function"
    },
    {
      "inputs": [],
      "name": "uncage",
      "outputs": [],
      "stateMutability": "nonpayable",
      "type": "function"
    },
    {
      "inputs": [],
      "name": "unpause",
      "outputs": [],
      "stateMutability": "nonpayable",
      "type": "function"
    }
  ],
  "bytecode": "0x608060405234801561001057600080fd5b50612254806100206000396000f3fe608060405234801561001057600080fd5b50600436106100c95760003560e01c80638456cb5911610081578063c4d66de81161005b578063c4d66de814610149578063d63b23b21461015c578063e3b3932a14610164576100c9565b80638456cb5914610124578063957aa58c1461012c5780639d1eea7814610141576100c9565b80633f4ba83a116100b25780633f4ba83a146100f65780635c975abb146100fe578063692450091461011c576100c9565b8063038a2f0d146100ce578063285da53b146100e3575b600080fd5b6100e16100dc366004611e43565b610179565b005b6100e16100f1366004611e43565b6103e4565b6100e16108a6565b610106610ba2565b6040516101139190611f8d565b60405180910390f35b6100e1610bab565b6100e1610f09565b610134611202565b6040516101139190611f98565b610134611208565b6100e1610157366004611de8565b61120e565b6100e16113e8565b61016c611744565b6040516101139190611f6c565b609754604080517fc8cc243f000000000000000000000000000000000000000000000000000000008152905160009273ffffffffffffffffffffffffffffffffffffffff169163c8cc243f916004808301926020929190829003018186803b1580156101e457600080fd5b505afa1580156101f8573d6000803e3d6000fd5b505050506040513d601f19601f8201168201806040525081019061021c9190611e0b565b90508073ffffffffffffffffffffffffffffffffffffffff166391d148548273ffffffffffffffffffffffffffffffffffffffff1663e58378bb6040518163ffffffff1660e01b815260040160206040518083038186803b15801561028057600080fd5b505afa158015610294573d6000803e3d6000fd5b505050506040513d601f19601f820116820180604052508101906102b89190611e5b565b336040518363ffffffff1660e01b81526004016102d6929190611fa1565b60206040518083038186803b1580156102ee57600080fd5b505afa158015610302573d6000803e3d6000fd5b505050506040513d601f19601f820116820180604052508101906103269190611e27565b610365576040517f08c379a000000000000000000000000000000000000000000000000000000000815260040161035c90611fe9565b60405180910390fd5b6099546001146103a1576040517f08c379a000000000000000000000000000000000000000000000000000000000815260040161035c9061208e565b609882905560405133907f981464cdb0035497ee4816c35dc8771b2d26e321e79163de2b51ee8b6d51df13906103d8908590611f98565b60405180910390a25050565b6103ec610ba2565b15610423576040517f08c379a000000000000000000000000000000000000000000000000000000000815260040161035c90612057565b609754604080517fd8682461000000000000000000000000000000000000000000000000000000008152905160009273ffffffffffffffffffffffffffffffffffffffff169163d8682461916004808301926020929190829003018186803b15801561048e57600080fd5b505afa1580156104a2573d6000803e3d6000fd5b505050506040513d601f19601f820116820180604052508101906104c69190611e0b565b73ffffffffffffffffffffffffffffffffffffffff1663d97a3649836040518263ffffffff1660e01b81526004016104fe9190611f98565b6101c06040518083038186803b15801561051757600080fd5b505afa15801561052b573d6000803e3d6000fd5b505050506040513d601f19601f8201168201806040525081019061054f9190611ea2565b60a0015190506000609760009054906101000a900473ffffffffffffffffffffffffffffffffffffffff1673ffffffffffffffffffffffffffffffffffffffff1663d86824616040518163ffffffff1660e01b815260040160206040518083038186803b1580156105bf57600080fd5b505afa1580156105d3573d6000803e3d6000fd5b505050506040513d601f19601f820116820180604052508101906105f79190611e0b565b73ffffffffffffffffffffffffffffffffffffffff166344d0c937846040518263ffffffff1660e01b815260040161062f9190611f98565b60206040518083038186803b15801561064757600080fd5b505afa15801561065b573d6000803e3d6000fd5b505050506040513d601f19601f8201168201806040525081019061067f9190611e5b565b90506000808373ffffffffffffffffffffffffffffffffffffffff1663140d27206040518163ffffffff1660e01b8152600401604080518083038186803b1580156106c957600080fd5b505afa1580156106dd573d6000803e3d6000fd5b505050506040513d601f19601f820116820180604052508101906107019190611e73565b91509150600081610713576000610735565b61073561072f61072785633b9aca00611760565b60985461178a565b8561178a565b90506000609760009054906101000a900473ffffffffffffffffffffffffffffffffffffffff1673ffffffffffffffffffffffffffffffffffffffff1663d86824616040518163ffffffff1660e01b815260040160206040518083038186803b1580156107a157600080fd5b505afa1580156107b5573d6000803e3d6000fd5b505050506040513d601f19601f820116820180604052508101906107d99190611e0b565b6040517fbe7c9f3200000000000000000000000000000000000000000000000000000000815290915073ffffffffffffffffffffffffffffffffffffffff82169063be7c9f3290610830908a908690600401611fdb565b600060405180830381600087803b15801561084a57600080fd5b505af115801561085e573d6000803e3d6000fd5b505050507fc6ac892c4d05ed2b88732c325777abce65e43d448251b695c7e19067d33cc0e287858460405161089593929190611fc5565b60405180910390a150505050505050565b609754604080517fc8cc243f000000000000000000000000000000000000000000000000000000008152905160009273ffffffffffffffffffffffffffffffffffffffff169163c8cc243f916004808301926020929190829003018186803b15801561091157600080fd5b505afa158015610925573d6000803e3d6000fd5b505050506040513d601f19601f820116820180604052508101906109499190611e0b565b90508073ffffffffffffffffffffffffffffffffffffffff166391d148548273ffffffffffffffffffffffffffffffffffffffff1663e58378bb6040518163ffffffff1660e01b815260040160206040518083038186803b1580156109ad57600080fd5b505afa1580156109c1573d6000803e3d6000fd5b505050506040513d601f19601f820116820180604052508101906109e59190611e5b565b336040518363ffffffff1660e01b8152600401610a03929190611fa1565b60206040518083038186803b158015610a1b57600080fd5b505afa158015610a2f573d6000803e3d6000fd5b505050506040513d601f19601f82011682018060405250810190610a539190611e27565b80610b6157508073ffffffffffffffffffffffffffffffffffffffff166391d148548273ffffffffffffffffffffffffffffffffffffffff1663b536818a6040518163ffffffff1660e01b815260040160206040518083038186803b158015610abb57600080fd5b505afa158015610acf573d6000803e3d6000fd5b505050506040513d601f19601f82011682018060405250810190610af39190611e5b565b336040518363ffffffff1660e01b8152600401610b11929190611fa1565b60206040518083038186803b158015610b2957600080fd5b505afa158015610b3d573d6000803e3d6000fd5b505050506040513d601f19601f82011682018060405250810190610b619190611e27565b610b97576040517f08c379a000000000000000000000000000000000000000000000000000000000815260040161035c90612122565b610b9f6117b2565b50565b60335460ff1690565b609754604080517fc8cc243f000000000000000000000000000000000000000000000000000000008152905160009273ffffffffffffffffffffffffffffffffffffffff169163c8cc243f916004808301926020929190829003018186803b158015610c1657600080fd5b505afa158015610c2a573d6000803e3d6000fd5b505050506040513d601f19601f82011682018060405250810190610c4e9190611e0b565b90508073ffffffffffffffffffffffffffffffffffffffff166391d148548273ffffffffffffffffffffffffffffffffffffffff1663e58378bb6040518163ffffffff1660e01b815260040160206040518083038186803b158015610cb257600080fd5b505afa158015610cc6573d6000803e3d6000fd5b505050506040513d601f19601f82011682018060405250810190610cea9190611e5b565b336040518363ffffffff1660e01b8152600401610d08929190611fa1565b60206040518083038186803b158015610d2057600080fd5b505afa158015610d34573d6000803e3d6000fd5b505050506040513d601f19601f82011682018060405250810190610d589190611e27565b80610e6657508073ffffffffffffffffffffffffffffffffffffffff166391d148548273ffffffffffffffffffffffffffffffffffffffff1663d7a47a696040518163ffffffff1660e01b815260040160206040518083038186803b158015610dc057600080fd5b505afa158015610dd4573d6000803e3d6000fd5b505050506040513d601f19601f82011682018060405250810190610df89190611e5b565b336040518363ffffffff1660e01b8152600401610e16929190611fa1565b60206040518083038186803b158015610e2e57600080fd5b505afa158015610e42573d6000803e3d6000fd5b505050506040513d601f19601f82011682018060405250810190610e669190611e27565b610e9c576040517f08c379a000000000000000000000000000000000000000000000000000000000815260040161035c90612190565b609954600114610ed8576040517f08c379a000000000000000000000000000000000000000000000000000000000815260040161035c9061208e565b600060998190556040517fbf689b4aae670d200b1d2b971ace2e0c3bef88a9c5e93f36705c7b86eab630b99190a150565b609754604080517fc8cc243f000000000000000000000000000000000000000000000000000000008152905160009273ffffffffffffffffffffffffffffffffffffffff169163c8cc243f916004808301926020929190829003018186803b158015610f7457600080fd5b505afa158015610f88573d6000803e3d6000fd5b505050506040513d601f19601f82011682018060405250810190610fac9190611e0b565b90508073ffffffffffffffffffffffffffffffffffffffff166391d148548273ffffffffffffffffffffffffffffffffffffffff1663e58378bb6040518163ffffffff1660e01b815260040160206040518083038186803b15801561101057600080fd5b505afa158015611024573d6000803e3d6000fd5b505050506040513d601f19601f820116820180604052508101906110489190611e5b565b336040518363ffffffff1660e01b8152600401611066929190611fa1565b60206040518083038186803b15801561107e57600080fd5b505afa158015611092573d6000803e3d6000fd5b505050506040513d601f19601f820116820180604052508101906110b69190611e27565b806111c457508073ffffffffffffffffffffffffffffffffffffffff166391d148548273ffffffffffffffffffffffffffffffffffffffff1663b536818a6040518163ffffffff1660e01b815260040160206040518083038186803b15801561111e57600080fd5b505afa158015611132573d6000803e3d6000fd5b505050506040513d601f19601f820116820180604052508101906111569190611e5b565b336040518363ffffffff1660e01b8152600401611174929190611fa1565b60206040518083038186803b15801561118c57600080fd5b505afa1580156111a0573d6000803e3d6000fd5b505050506040513d601f19601f820116820180604052508101906111c49190611e27565b6111fa576040517f08c379a000000000000000000000000000000000000000000000000000000000815260040161035c90612122565b610b9f611858565b60995481565b60985481565b600054610100900460ff168061122757506112276118eb565b80611235575060005460ff16155b61126b576040517f08c379a000000000000000000000000000000000000000000000000000000000815260040161035c906120c5565b600054610100900460ff161580156112d157600080547fffffffffffffffffffffffffffffffffffffffffffffffffffffffffffffff007fffffffffffffffffffffffffffffffffffffffffffffffffffffffffffff00ff909116610100171660011790555b6112d96118fc565b6112e1611a00565b8173ffffffffffffffffffffffffffffffffffffffff1663d86824616040518163ffffffff1660e01b815260040160206040518083038186803b15801561132757600080fd5b505afa15801561133b573d6000803e3d6000fd5b505050506040513d601f19601f8201168201806040525081019061135f9190611e0b565b50609780547fffffffffffffffffffffffff00000000000000000000000000000000000000001673ffffffffffffffffffffffffffffffffffffffff84161790556b033b2e3c9fd0803ce8000000609855600160995580156113e457600080547fffffffffffffffffffffffffffffffffffffffffffffffffffffffffffff00ff1690555b5050565b609754604080517fc8cc243f000000000000000000000000000000000000000000000000000000008152905160009273ffffffffffffffffffffffffffffffffffffffff169163c8cc243f916004808301926020929190829003018186803b15801561145357600080fd5b505afa158015611467573d6000803e3d6000fd5b505050506040513d601f19601f8201168201806040525081019061148b9190611e0b565b90508073ffffffffffffffffffffffffffffffffffffffff166391d148548273ffffffffffffffffffffffffffffffffffffffff1663e58378bb6040518163ffffffff1660e01b815260040160206040518083038186803b1580156114ef57600080fd5b505afa158015611503573d6000803e3d6000fd5b505050506040513d601f19601f820116820180604052508101906115279190611e5b565b336040518363ffffffff1660e01b8152600401611545929190611fa1565b60206040518083038186803b15801561155d57600080fd5b505afa158015611571573d6000803e3d6000fd5b505050506040513d601f19601f820116820180604052508101906115959190611e27565b806116a357508073ffffffffffffffffffffffffffffffffffffffff166391d148548273ffffffffffffffffffffffffffffffffffffffff1663d7a47a696040518163ffffffff1660e01b815260040160206040518083038186803b1580156115fd57600080fd5b505afa158015611611573d6000803e3d6000fd5b505050506040513d601f19601f820116820180604052508101906116359190611e5b565b336040518363ffffffff1660e01b8152600401611653929190611fa1565b60206040518083038186803b15801561166b57600080fd5b505afa15801561167f573d6000803e3d6000fd5b505050506040513d601f19601f820116820180604052508101906116a39190611e27565b6116d9576040517f08c379a000000000000000000000000000000000000000000000000000000000815260040161035c90612190565b60995415611713576040517f08c379a000000000000000000000000000000000000000000000000000000000815260040161035c90612159565b60016099556040517f1868a6ced217213f36be87ba9aee25cde5381b42e85c8f88e73b18772c0bd07390600090a150565b60975473ffffffffffffffffffffffffffffffffffffffff1681565b600081158061177b5750508082028282828161177857fe5b04145b61178457600080fd5b92915050565b6000816117a3846b033b2e3c9fd0803ce8000000611760565b816117aa57fe5b049392505050565b6117ba610ba2565b6117f0576040517f08c379a000000000000000000000000000000000000000000000000000000000815260040161035c90612020565b603380547fffffffffffffffffffffffffffffffffffffffffffffffffffffffffffffff001690557f5db9ee0a495bf2e6ff9c91a7834c1ba4fdd244a5e8aa4e537bd38aeae4b073aa611841611acb565b60405161184e9190611f6c565b60405180910390a1565b611860610ba2565b15611897576040517f08c379a000000000000000000000000000000000000000000000000000000000815260040161035c90612057565b603380547fffffffffffffffffffffffffffffffffffffffffffffffffffffffffffffff001660011790557f62e78cea01bee320cd4e420270b5ea74000d11b0c9f74754ebdbfc544b05a258611841611acb565b60006118f630611acf565b15905090565b600054610100900460ff168061191557506119156118eb565b80611923575060005460ff16155b611959576040517f08c379a000000000000000000000000000000000000000000000000000000000815260040161035c906120c5565b600054610100900460ff161580156119bf57600080547fffffffffffffffffffffffffffffffffffffffffffffffffffffffffffffff007fffffffffffffffffffffffffffffffffffffffffffffffffffffffffffff00ff909116610100171660011790555b6119c7611ad5565b6119cf611bc8565b8015610b9f57600080547fffffffffffffffffffffffffffffffffffffffffffffffffffffffffffff00ff16905550565b600054610100900460ff1680611a195750611a196118eb565b80611a27575060005460ff16155b611a5d576040517f08c379a000000000000000000000000000000000000000000000000000000000815260040161035c906120c5565b600054610100900460ff16158015611ac357600080547fffffffffffffffffffffffffffffffffffffffffffffffffffffffffffffff007fffffffffffffffffffffffffffffffffffffffffffffffffffffffffffff00ff909116610100171660011790555b6119cf611ce4565b3390565b3b151590565b600054610100900460ff1680611aee5750611aee6118eb565b80611afc575060005460ff16155b611b32576040517f08c379a000000000000000000000000000000000000000000000000000000000815260040161035c906120c5565b600054610100900460ff161580156119cf57600080547fffffffffffffffffffffffffffffffffffffffffffffffffffffffffffffff007fffffffffffffffffffffffffffffffffffffffffffffffffffffffffffff00ff909116610100171660011790558015610b9f57600080547fffffffffffffffffffffffffffffffffffffffffffffffffffffffffffff00ff16905550565b600054610100900460ff1680611be15750611be16118eb565b80611bef575060005460ff16155b611c25576040517f08c379a000000000000000000000000000000000000000000000000000000000815260040161035c906120c5565b600054610100900460ff16158015611c8b57600080547fffffffffffffffffffffffffffffffffffffffffffffffffffffffffffffff007fffffffffffffffffffffffffffffffffffffffffffffffffffffffffffff00ff909116610100171660011790555b603380547fffffffffffffffffffffffffffffffffffffffffffffffffffffffffffffff001690558015610b9f57600080547fffffffffffffffffffffffffffffffffffffffffffffffffffffffffffff00ff16905550565b600054610100900460ff1680611cfd5750611cfd6118eb565b80611d0b575060005460ff16155b611d41576040517f08c379a000000000000000000000000000000000000000000000000000000000815260040161035c906120c5565b600054610100900460ff16158015611da757600080547fffffffffffffffffffffffffffffffffffffffffffffffffffffffffffffff007fffffffffffffffffffffffffffffffffffffffffffffffffffffffffffff00ff909116610100171660011790555b60016065558015610b9f57600080547fffffffffffffffffffffffffffffffffffffffffffffffffffffffffffff00ff16905550565b8051611784816121ee565b600060208284031215611df9578081fd5b8135611e04816121ee565b9392505050565b600060208284031215611e1c578081fd5b8151611e04816121ee565b600060208284031215611e38578081fd5b8151611e0481612210565b600060208284031215611e54578081fd5b5035919050565b600060208284031215611e6c578081fd5b5051919050565b60008060408385031215611e85578081fd5b825191506020830151611e9781612210565b809150509250929050565b60006101c0808385031215611eb5578182fd5b611ebe816121c7565b90508251815260208301516020820152604083015160408201526060830151606082015260808301516080820152611ef98460a08501611ddd565b60a082015260c083015160c082015260e083015160e0820152610100808401518183015250610120611f2d85828601611ddd565b908201526101408381015190820152610160808401519082015261018080840151908201526101a0611f6185828601611ddd565b908201529392505050565b73ffffffffffffffffffffffffffffffffffffffff91909116815260200190565b901515815260200190565b90815260200190565b91825273ffffffffffffffffffffffffffffffffffffffff16602082015260400190565b9283526020830191909152604082015260600190565b918252602082015260400190565b6020808252600a908201527f216f776e6572526f6c6500000000000000000000000000000000000000000000604082015260600190565b60208082526014908201527f5061757361626c653a206e6f7420706175736564000000000000000000000000604082015260600190565b60208082526010908201527f5061757361626c653a2070617573656400000000000000000000000000000000604082015260600190565b60208082526014908201527f50726963654f7261636c652f6e6f742d6c697665000000000000000000000000604082015260600190565b6020808252602e908201527f496e697469616c697a61626c653a20636f6e747261637420697320616c72656160408201527f647920696e697469616c697a6564000000000000000000000000000000000000606082015260800190565b60208082526017908201527f21286f776e6572526f6c65206f7220676f76526f6c6529000000000000000000604082015260600190565b60208082526015908201527f50726963654f7261636c652f6e6f742d63616765640000000000000000000000604082015260600190565b6020808252601f908201527f21286f776e6572526f6c65206f722073686f7753746f70706572526f6c652900604082015260600190565b60405181810167ffffffffffffffff811182821017156121e657600080fd5b604052919050565b73ffffffffffffffffffffffffffffffffffffffff81168114610b9f57600080fd5b8015158114610b9f57600080fdfea2646970667358221220392cf8c90c84a589c0a902089ee27d24b46b9752570d5ed66bc13b667dad138664736f6c634300060c0033",
  "linkReferences": {},
  "deployedLinkReferences": {}
}