{
  "_format": "hh-sol-artifact-1",
  "contractName": "GammaDistributor",
  "sourceName": "contracts/farm/GammaDistributor.sol",
  "abi": [
    {
      "inputs": [
        {
          "internalType": "contract IGammaERC20",
          "name": "_tau",
          "type": "address"
        },
        {
          "internalType": "uint256",
          "name": "_tauPerBlock",
          "type": "uint256"
        }
      ],
      "stateMutability": "nonpayable",
      "type": "constructor"
    },
    {
      "anonymous": false,
      "inputs": [
        {
          "indexed": true,
          "internalType": "address",
          "name": "caller",
          "type": "address"
        },
        {
          "indexed": false,
          "internalType": "uint256",
          "name": "previousAmount",
          "type": "uint256"
        },
        {
          "indexed": false,
          "internalType": "uint256",
          "name": "newAmount",
          "type": "uint256"
        }
      ],
      "name": "AllocPointsUpdated",
      "type": "event"
    },
    {
      "anonymous": false,
      "inputs": [
        {
          "indexed": true,
          "internalType": "address",
          "name": "user",
          "type": "address"
        },
        {
          "indexed": true,
          "internalType": "uint256",
          "name": "pid",
          "type": "uint256"
        },
        {
          "indexed": false,
          "internalType": "uint256",
          "name": "amount",
          "type": "uint256"
        }
      ],
      "name": "Deposit",
      "type": "event"
    },
    {
      "anonymous": false,
      "inputs": [
        {
          "indexed": true,
          "internalType": "address",
          "name": "caller",
          "type": "address"
        },
        {
          "indexed": false,
          "internalType": "address",
          "name": "oldAddress",
          "type": "address"
        },
        {
          "indexed": false,
          "internalType": "address",
          "name": "newAddress",
          "type": "address"
        }
      ],
      "name": "DevAddressChanged",
      "type": "event"
    },
    {
      "anonymous": false,
      "inputs": [
        {
          "indexed": true,
          "internalType": "address",
          "name": "user",
          "type": "address"
        },
        {
          "indexed": true,
          "internalType": "uint256",
          "name": "pid",
          "type": "uint256"
        },
        {
          "indexed": false,
          "internalType": "uint256",
          "name": "amount",
          "type": "uint256"
        }
      ],
      "name": "EmergencyWithdraw",
      "type": "event"
    },
    {
      "anonymous": false,
      "inputs": [
        {
          "indexed": true,
          "internalType": "address",
          "name": "caller",
          "type": "address"
        },
        {
          "indexed": false,
          "internalType": "uint256",
          "name": "previousAmount",
          "type": "uint256"
        },
        {
          "indexed": false,
          "internalType": "uint256",
          "name": "newAmount",
          "type": "uint256"
        }
      ],
      "name": "EmissionRateUpdated",
      "type": "event"
    },
    {
      "anonymous": false,
      "inputs": [
        {
          "indexed": true,
          "internalType": "address",
          "name": "caller",
          "type": "address"
        },
        {
          "indexed": false,
          "internalType": "address",
          "name": "oldAddress",
          "type": "address"
        },
        {
          "indexed": false,
          "internalType": "address",
          "name": "newAddress",
          "type": "address"
        }
      ],
      "name": "FeeAddressChanged",
      "type": "event"
    },
    {
      "anonymous": false,
      "inputs": [
        {
          "indexed": true,
          "internalType": "address",
          "name": "caller",
          "type": "address"
        }
      ],
      "name": "MetaTxnsDisabled",
      "type": "event"
    },
    {
      "anonymous": false,
      "inputs": [
        {
          "indexed": true,
          "internalType": "address",
          "name": "caller",
          "type": "address"
        }
      ],
      "name": "MetaTxnsEnabled",
      "type": "event"
    },
    {
      "anonymous": false,
      "inputs": [
        {
          "indexed": true,
          "internalType": "address",
          "name": "previousOperator",
          "type": "address"
        },
        {
          "indexed": true,
          "internalType": "address",
          "name": "newOperator",
          "type": "address"
        }
      ],
      "name": "OperatorTransferred",
      "type": "event"
    },
    {
      "anonymous": false,
      "inputs": [
        {
          "indexed": true,
          "internalType": "address",
          "name": "previousOwner",
          "type": "address"
        },
        {
          "indexed": true,
          "internalType": "address",
          "name": "newOwner",
          "type": "address"
        }
      ],
      "name": "OwnershipTransferred",
      "type": "event"
    },
    {
      "anonymous": false,
      "inputs": [
        {
          "indexed": true,
          "internalType": "address",
          "name": "user",
          "type": "address"
        },
        {
          "indexed": true,
          "internalType": "uint256",
          "name": "pid",
          "type": "uint256"
        },
        {
          "indexed": false,
          "internalType": "uint256",
          "name": "amountLockedUp",
          "type": "uint256"
        }
      ],
      "name": "RewardLockedUp",
      "type": "event"
    },
    {
      "anonymous": false,
      "inputs": [
        {
          "indexed": true,
          "internalType": "address",
          "name": "user",
          "type": "address"
        },
        {
          "indexed": true,
          "internalType": "uint256",
          "name": "pid",
          "type": "uint256"
        },
        {
          "indexed": false,
          "internalType": "uint256",
          "name": "amount",
          "type": "uint256"
        }
      ],
      "name": "Withdraw",
      "type": "event"
    },
    {
      "inputs": [],
      "name": "MAXIMUM_DEPOSIT_FEE_RATE",
      "outputs": [
        {
          "internalType": "uint16",
          "name": "",
          "type": "uint16"
        }
      ],
      "stateMutability": "view",
      "type": "function"
    },
    {
      "inputs": [],
      "name": "MAXIMUM_HARVEST_INTERVAL",
      "outputs": [
        {
          "internalType": "uint256",
          "name": "",
          "type": "uint256"
        }
      ],
      "stateMutability": "view",
      "type": "function"
    },
    {
      "inputs": [
        {
          "internalType": "uint256",
          "name": "_allocPoint",
          "type": "uint256"
        },
        {
          "internalType": "contract IERC20",
          "name": "_lpToken",
          "type": "address"
        },
        {
          "internalType": "uint16",
          "name": "_depositFeeBP",
          "type": "uint16"
        },
        {
          "internalType": "uint256",
          "name": "_harvestInterval",
          "type": "uint256"
        },
        {
          "internalType": "bool",
          "name": "_withUpdate",
          "type": "bool"
        }
      ],
      "name": "add",
      "outputs": [],
      "stateMutability": "nonpayable",
      "type": "function"
    },
    {
      "inputs": [
        {
          "internalType": "uint256",
          "name": "_poolId",
          "type": "uint256"
        },
        {
          "internalType": "address",
          "name": "_user",
          "type": "address"
        }
      ],
      "name": "canHarvest",
      "outputs": [
        {
          "internalType": "bool",
          "name": "",
          "type": "bool"
        }
      ],
      "stateMutability": "view",
      "type": "function"
    },
    {
      "inputs": [
        {
          "internalType": "uint256",
          "name": "_poolId",
          "type": "uint256"
        },
        {
          "internalType": "uint256",
          "name": "_amount",
          "type": "uint256"
        }
      ],
      "name": "deposit",
      "outputs": [],
      "stateMutability": "nonpayable",
      "type": "function"
    },
    {
      "inputs": [],
      "name": "devAddress",
      "outputs": [
        {
          "internalType": "address",
          "name": "",
          "type": "address"
        }
      ],
      "stateMutability": "view",
      "type": "function"
    },
    {
      "inputs": [],
      "name": "disableMetaTxns",
      "outputs": [],
      "stateMutability": "nonpayable",
      "type": "function"
    },
    {
      "inputs": [
        {
          "internalType": "uint256",
          "name": "_poolId",
          "type": "uint256"
        }
      ],
      "name": "emergencyWithdraw",
      "outputs": [],
      "stateMutability": "nonpayable",
      "type": "function"
    },
    {
      "inputs": [],
      "name": "enableMetaTxns",
      "outputs": [],
      "stateMutability": "nonpayable",
      "type": "function"
    },
    {
      "inputs": [],
      "name": "feeAddress",
      "outputs": [
        {
          "internalType": "address",
          "name": "",
          "type": "address"
        }
      ],
      "stateMutability": "view",
      "type": "function"
    },
    {
      "inputs": [
        {
          "internalType": "uint256",
          "name": "_from",
          "type": "uint256"
        },
        {
          "internalType": "uint256",
          "name": "_to",
          "type": "uint256"
        }
      ],
      "name": "getMultiplier",
      "outputs": [
        {
          "internalType": "uint256",
          "name": "",
          "type": "uint256"
        }
      ],
      "stateMutability": "pure",
      "type": "function"
    },
    {
      "inputs": [
        {
          "internalType": "address",
          "name": "forwarder",
          "type": "address"
        }
      ],
      "name": "isTrustedForwarder",
      "outputs": [
        {
          "internalType": "bool",
          "name": "",
          "type": "bool"
        }
      ],
      "stateMutability": "view",
      "type": "function"
    },
    {
      "inputs": [],
      "name": "massUpdatePools",
      "outputs": [],
      "stateMutability": "nonpayable",
      "type": "function"
    },
    {
      "inputs": [],
      "name": "metaTxnsEnabled",
      "outputs": [
        {
          "internalType": "bool",
          "name": "",
          "type": "bool"
        }
      ],
      "stateMutability": "view",
      "type": "function"
    },
    {
      "inputs": [],
      "name": "operator",
      "outputs": [
        {
          "internalType": "address",
          "name": "",
          "type": "address"
        }
      ],
      "stateMutability": "view",
      "type": "function"
    },
    {
      "inputs": [],
      "name": "owner",
      "outputs": [
        {
          "internalType": "address",
          "name": "",
          "type": "address"
        }
      ],
      "stateMutability": "view",
      "type": "function"
    },
    {
      "inputs": [
        {
          "internalType": "uint256",
          "name": "_poolId",
          "type": "uint256"
        },
        {
          "internalType": "address",
          "name": "_user",
          "type": "address"
        }
      ],
      "name": "pendingTau",
      "outputs": [
        {
          "internalType": "uint256",
          "name": "",
          "type": "uint256"
        }
      ],
      "stateMutability": "view",
      "type": "function"
    },
    {
      "inputs": [
        {
          "internalType": "uint256",
          "name": "",
          "type": "uint256"
        }
      ],
      "name": "poolInfo",
      "outputs": [
        {
          "internalType": "contract IERC20",
          "name": "lpToken",
          "type": "address"
        },
        {
          "internalType": "uint256",
          "name": "allocPoint",
          "type": "uint256"
        },
        {
          "internalType": "uint256",
          "name": "lastRewardBlock",
          "type": "uint256"
        },
        {
          "internalType": "uint256",
          "name": "accTauPerShare",
          "type": "uint256"
        },
        {
          "internalType": "uint16",
          "name": "depositFeeBP",
          "type": "uint16"
        },
        {
          "internalType": "uint256",
          "name": "harvestInterval",
          "type": "uint256"
        },
        {
          "internalType": "uint256",
          "name": "totalLp",
          "type": "uint256"
        }
      ],
      "stateMutability": "view",
      "type": "function"
    },
    {
      "inputs": [],
      "name": "poolLength",
      "outputs": [
        {
          "internalType": "uint256",
          "name": "",
          "type": "uint256"
        }
      ],
      "stateMutability": "view",
      "type": "function"
    },
    {
      "inputs": [],
      "name": "renounceOwnership",
      "outputs": [],
      "stateMutability": "nonpayable",
      "type": "function"
    },
    {
      "inputs": [
        {
          "internalType": "uint256",
          "name": "_poolId",
          "type": "uint256"
        },
        {
          "internalType": "uint256",
          "name": "_allocPoint",
          "type": "uint256"
        },
        {
          "internalType": "uint16",
          "name": "_depositFeeBP",
          "type": "uint16"
        },
        {
          "internalType": "uint256",
          "name": "_harvestInterval",
          "type": "uint256"
        },
        {
          "internalType": "bool",
          "name": "_withUpdate",
          "type": "bool"
        }
      ],
      "name": "set",
      "outputs": [],
      "stateMutability": "nonpayable",
      "type": "function"
    },
    {
      "inputs": [
        {
          "internalType": "address",
          "name": "_devAddress",
          "type": "address"
        }
      ],
      "name": "setDevAddress",
      "outputs": [],
      "stateMutability": "nonpayable",
      "type": "function"
    },
    {
      "inputs": [
        {
          "internalType": "address",
          "name": "_feeAddress",
          "type": "address"
        }
      ],
      "name": "setFeeAddress",
      "outputs": [],
      "stateMutability": "nonpayable",
      "type": "function"
    },
    {
      "inputs": [],
      "name": "startBlock",
      "outputs": [
        {
          "internalType": "uint256",
          "name": "",
          "type": "uint256"
        }
      ],
      "stateMutability": "view",
      "type": "function"
    },
    {
      "inputs": [],
      "name": "startFarming",
      "outputs": [],
      "stateMutability": "nonpayable",
      "type": "function"
    },
    {
      "inputs": [],
      "name": "tau",
      "outputs": [
        {
          "internalType": "contract IGammaERC20",
          "name": "",
          "type": "address"
        }
      ],
      "stateMutability": "view",
      "type": "function"
    },
    {
      "inputs": [],
      "name": "tauPerBlock",
      "outputs": [
        {
          "internalType": "uint256",
          "name": "",
          "type": "uint256"
        }
      ],
      "stateMutability": "view",
      "type": "function"
    },
    {
      "inputs": [],
      "name": "totalAllocPoint",
      "outputs": [
        {
          "internalType": "uint256",
          "name": "",
          "type": "uint256"
        }
      ],
      "stateMutability": "view",
      "type": "function"
    },
    {
      "inputs": [],
      "name": "totalLockedUpRewards",
      "outputs": [
        {
          "internalType": "uint256",
          "name": "",
          "type": "uint256"
        }
      ],
      "stateMutability": "view",
      "type": "function"
    },
    {
      "inputs": [],
      "name": "totalTauInPools",
      "outputs": [
        {
          "internalType": "uint256",
          "name": "",
          "type": "uint256"
        }
      ],
      "stateMutability": "view",
      "type": "function"
    },
    {
      "inputs": [
        {
          "internalType": "address",
          "name": "newOperator",
          "type": "address"
        }
      ],
      "name": "transferOperator",
      "outputs": [],
      "stateMutability": "nonpayable",
      "type": "function"
    },
    {
      "inputs": [
        {
          "internalType": "address",
          "name": "newOwner",
          "type": "address"
        }
      ],
      "name": "transferOwnership",
      "outputs": [],
      "stateMutability": "nonpayable",
      "type": "function"
    },
    {
      "inputs": [
        {
          "internalType": "uint256",
          "name": "_poolId",
          "type": "uint256"
        },
        {
          "internalType": "uint256",
          "name": "_allocPoint",
          "type": "uint256"
        },
        {
          "internalType": "bool",
          "name": "_withUpdate",
          "type": "bool"
        }
      ],
      "name": "updateAllocPoint",
      "outputs": [],
      "stateMutability": "nonpayable",
      "type": "function"
    },
    {
      "inputs": [
        {
          "internalType": "uint256",
          "name": "_tauPerBlock",
          "type": "uint256"
        }
      ],
      "name": "updateEmissionRate",
      "outputs": [],
      "stateMutability": "nonpayable",
      "type": "function"
    },
    {
      "inputs": [
        {
          "internalType": "uint256",
          "name": "_poolId",
          "type": "uint256"
        }
      ],
      "name": "updatePool",
      "outputs": [],
      "stateMutability": "nonpayable",
      "type": "function"
    },
    {
      "inputs": [
        {
          "internalType": "uint256",
          "name": "",
          "type": "uint256"
        },
        {
          "internalType": "address",
          "name": "",
          "type": "address"
        }
      ],
      "name": "userInfo",
      "outputs": [
        {
          "internalType": "uint256",
          "name": "amount",
          "type": "uint256"
        },
        {
          "internalType": "uint256",
          "name": "rewardDebt",
          "type": "uint256"
        },
        {
          "internalType": "uint256",
          "name": "rewardLockedUp",
          "type": "uint256"
        },
        {
          "internalType": "uint256",
          "name": "nextHarvestUntil",
          "type": "uint256"
        }
      ],
      "stateMutability": "view",
      "type": "function"
    },
    {
      "inputs": [
        {
          "internalType": "uint256",
          "name": "_poolId",
          "type": "uint256"
        },
        {
          "internalType": "uint256",
          "name": "_amount",
          "type": "uint256"
        }
      ],
      "name": "withdraw",
      "outputs": [],
      "stateMutability": "nonpayable",
      "type": "function"
    }
  ],
  "bytecode": "0x60806040526000600a819055600d55600e805460ff191690553480156200002557600080fd5b506040516200322c3803806200322c8339810160408190526200004891620001a3565b6200005c62000056620000ec565b62000126565b6001805562000070436312cc0300620001df565b600b55600380546001600160a01b0384166001600160a01b031991821617909155600782905560058054821633908117909155600680548316821790556004805490921681179091556040516000907f74da04524d50c64947f5dd5381ef1a4dca5cba8ed1d816243f9e48aa0b5617ed908290a3505062000206565b6000620000f93362000176565b156200010c575060131936013560601c90565b620001216200019f60201b6200264e1760201c565b905090565b600080546001600160a01b038381166001600160a01b0319831681178455604051919092169283917f8be0079c531659141344cd1fd0a4f28419497f9722a3daafe3b4186f6b6457e09190a35050565b600e5460009060ff1680156200019957506002546001600160a01b038381169116145b92915050565b3390565b60008060408385031215620001b757600080fd5b82516001600160a01b0381168114620001cf57600080fd5b6020939093015192949293505050565b600082198211156200020157634e487b7160e01b600052601160045260246000fd5b500190565b61301680620002166000396000f3fe608060405234801561001057600080fd5b50600436106102775760003560e01c8063630b5ba111610160578063af018de8116100d8578063d0d41fe11161008c578063de73149d11610071578063de73149d146105e7578063e2bbb158146105f1578063f2fde38b1461060457600080fd5b8063d0d41fe1146105cb578063de0af129146105de57600080fd5b8063b0ab8c52116100bd578063b0ab8c5214610585578063bde4aeca14610598578063cfc4af55146105ab57600080fd5b8063af018de81461056a578063afbcfea11461057d57600080fd5b80638da5cb5b1161012f57806392f0ba7f1161011457806392f0ba7f146104f457806393f1a40b146104fd578063a8c95dc01461055d57600080fd5b80638da5cb5b146104c35780638dbb1e3a146104e157600080fd5b8063630b5ba114610484578063715018a61461048c578063812c64f1146104945780638705fcd4146104b057600080fd5b806341275358116101f357806351eb05a6116101c2578063570ca735116101a7578063570ca7351461044b578063572b6c0514610469578063578bb42d1461047c57600080fd5b806351eb05a6146104255780635312ea8e1461043857600080fd5b806341275358146103e0578063441a3e7014610400578063474fa6301461041357806348cd4cb11461041c57600080fd5b806317caf6f11161024a57806329605e771161022f57806329605e771461032f5780632e6c998d146103425780633ad10ef61461039b57600080fd5b806317caf6f1146103135780632143e5451461031c57600080fd5b8063081e3eda1461027c57806308383640146102935780630ba84cd21461029d5780631526fe27146102b0575b600080fd5b6008545b6040519081526020015b60405180910390f35b61029b610617565b005b61029b6102ab366004612cd8565b6107c8565b6102c36102be366004612cd8565b6108b9565b6040805173ffffffffffffffffffffffffffffffffffffffff9098168852602088019690965294860193909352606085019190915261ffff16608084015260a083015260c082015260e00161028a565b610280600a5481565b61029b61032a366004612d16565b610923565b61029b61033d366004612d8c565b610af7565b61038b610350366004612da9565b600091825260096020908152604080842073ffffffffffffffffffffffffffffffffffffffff93909316845291905290206003015442101590565b604051901515815260200161028a565b6005546103bb9073ffffffffffffffffffffffffffffffffffffffff1681565b60405173ffffffffffffffffffffffffffffffffffffffff909116815260200161028a565b6006546103bb9073ffffffffffffffffffffffffffffffffffffffff1681565b61029b61040e366004612dd9565b610cce565b610280600c5481565b610280600b5481565b61029b610433366004612cd8565b610ff3565b61029b610446366004612cd8565b611205565b60045473ffffffffffffffffffffffffffffffffffffffff166103bb565b61038b610477366004612d8c565b61149d565b61029b6114d2565b61029b611682565b61029b6116a9565b61049d6103e881565b60405161ffff909116815260200161028a565b61029b6104be366004612d8c565b6116bd565b60005473ffffffffffffffffffffffffffffffffffffffff166103bb565b6102806104ef366004612dd9565b611880565b61028060075481565b61053d61050b366004612da9565b600960209081526000928352604080842090915290825290208054600182015460028301546003909301549192909184565b60408051948552602085019390935291830152606082015260800161028a565b600e5461038b9060ff1681565b61029b610578366004612dfb565b611893565b61029b611b62565b610280610593366004612da9565b611c2b565b61029b6105a6366004612e33565b611dde565b6003546103bb9073ffffffffffffffffffffffffffffffffffffffff1681565b61029b6105d9366004612d8c565b611f64565b610280600d5481565b6102806212750081565b61029b6105ff366004612dd9565b612127565b61029b610612366004612d8c565b61259a565b60045473ffffffffffffffffffffffffffffffffffffffff1633146106c2576040517f08c379a0000000000000000000000000000000000000000000000000000000008152602060048201526024808201527f4f70657261746f723a2063616c6c6572206973206e6f7420746865206f70657260448201527f61746f720000000000000000000000000000000000000000000000000000000060648201526084015b60405180910390fd5b600e5460ff16610754576040517f08c379a000000000000000000000000000000000000000000000000000000000815260206004820152602660248201527f4d657461207472616e73616374696f6e732061726520616c726561647920646960448201527f7361626c6564000000000000000000000000000000000000000000000000000060648201526084016106b9565b600e80547fffffffffffffffffffffffffffffffffffffffffffffffffffffffffffffff00169055610784612652565b73ffffffffffffffffffffffffffffffffffffffff167f096be170ccc67847e55535e7d8334b2afedd95805baedc160005addb9144745060405160405180910390a2565b60045473ffffffffffffffffffffffffffffffffffffffff16331461086e576040517f08c379a0000000000000000000000000000000000000000000000000000000008152602060048201526024808201527f4f70657261746f723a2063616c6c6572206973206e6f7420746865206f70657260448201527f61746f720000000000000000000000000000000000000000000000000000000060648201526084016106b9565b610876611682565b600754604080519182526020820183905233917feedc6338c9c1ad8f3cd6c90dd09dbe98dbd57e610d3e59a17996d07acb0d9511910160405180910390a2600755565b600881815481106108c957600080fd5b6000918252602090912060079091020180546001820154600283015460038401546004850154600586015460069096015473ffffffffffffffffffffffffffffffffffffffff909516965092949193909261ffff16919087565b61092b612692565b6103e861ffff8416111561099b576040517f08c379a000000000000000000000000000000000000000000000000000000000815260206004820152601960248201527f7365743a206465706f7369742066656520746f6f20686967680000000000000060448201526064016106b9565b62127500821115610a08576040517f08c379a000000000000000000000000000000000000000000000000000000000815260206004820152601d60248201527f7365743a20696e76616c6964206861727665737420696e74657276616c00000060448201526064016106b9565b8015610a1657610a16611682565b610a5984610a5360088881548110610a3057610a30612e6c565b906000526020600020906007020160010154600a5461274c90919063ffffffff16565b90612758565b600a819055508360088681548110610a7357610a73612e6c565b9060005260206000209060070201600101819055508260088681548110610a9c57610a9c612e6c565b906000526020600020906007020160040160006101000a81548161ffff021916908361ffff1602179055508160088681548110610adb57610adb612e6c565b9060005260206000209060070201600501819055505050505050565b60045473ffffffffffffffffffffffffffffffffffffffff163314610b9d576040517f08c379a0000000000000000000000000000000000000000000000000000000008152602060048201526024808201527f4f70657261746f723a2063616c6c6572206973206e6f7420746865206f70657260448201527f61746f720000000000000000000000000000000000000000000000000000000060648201526084016106b9565b73ffffffffffffffffffffffffffffffffffffffff8116610c40576040517f08c379a000000000000000000000000000000000000000000000000000000000815260206004820152603260248201527f5472616e736665724f70657261746f723a206e6577206f70657261746f72206960448201527f7320746865207a65726f2061646472657373000000000000000000000000000060648201526084016106b9565b60045460405173ffffffffffffffffffffffffffffffffffffffff8084169216907f74da04524d50c64947f5dd5381ef1a4dca5cba8ed1d816243f9e48aa0b5617ed90600090a3600480547fffffffffffffffffffffffff00000000000000000000000000000000000000001673ffffffffffffffffffffffffffffffffffffffff92909216919091179055565b610cd6612764565b600060088381548110610ceb57610ceb612e6c565b60009182526020808320868452600990915260408320600790920201925081610d12612652565b73ffffffffffffffffffffffffffffffffffffffff1673ffffffffffffffffffffffffffffffffffffffff16815260200190815260200160002090508281600001541015610dbc576040517f08c379a000000000000000000000000000000000000000000000000000000000815260206004820181905260248201527f57697468647261773a205573657220616d6f756e74206e6f7420656e6f75676860448201526064016106b9565b8282600601541015610e2a576040517f08c379a000000000000000000000000000000000000000000000000000000000815260206004820152601f60248201527f57697468647261773a20506f6f6c20746f74616c206e6f7420656e6f7567680060448201526064016106b9565b610e3384610ff3565b610e3c846127d8565b8215610f66578054610e4e908461274c565b81556006820154610e5f908461274c565b6006830155600354825473ffffffffffffffffffffffffffffffffffffffff90811691161415610e9a57600d54610e96908461274c565b600d555b815473ffffffffffffffffffffffffffffffffffffffff1663a9059cbb610ebf612652565b6040517fffffffff0000000000000000000000000000000000000000000000000000000060e084901b16815273ffffffffffffffffffffffffffffffffffffffff909116600482015260248101869052604401602060405180830381600087803b158015610f2c57600080fd5b505af1158015610f40573d6000803e3d6000fd5b505050506040513d601f19601f82011682018060405250810190610f649190612e9b565b505b60038201548154610f879164e8d4a5100091610f81916129c0565b906129cc565b600182015583610f95612652565b73ffffffffffffffffffffffffffffffffffffffff167ff279e6a1f5e320cca91135676d9cb6e44ca8a08c0b88342bcdb1144f6511b56885604051610fdc91815260200190565b60405180910390a35050610fef60018055565b5050565b60006008828154811061100857611008612e6c565b9060005260206000209060070201905080600201544311611027575050565b600681015480158061103b57506001820154155b1561104b57504360029091015550565b600061105b836002015443611880565b90506000611088600a54610f818660010154611082600754876129c090919063ffffffff16565b906129c0565b60035460055491925073ffffffffffffffffffffffffffffffffffffffff908116916340c10f1991166110bc84600a6129cc565b6040517fffffffff0000000000000000000000000000000000000000000000000000000060e085901b16815273ffffffffffffffffffffffffffffffffffffffff90921660048301526024820152604401600060405180830381600087803b15801561112757600080fd5b505af115801561113b573d6000803e3d6000fd5b50506003546040517f40c10f190000000000000000000000000000000000000000000000000000000081523060048201526024810185905273ffffffffffffffffffffffffffffffffffffffff90911692506340c10f199150604401600060405180830381600087803b1580156111b157600080fd5b505af11580156111c5573d6000803e3d6000fd5b50505060068501546111f091506111e590610f818464e8d4a510006129c0565b600386015490612758565b60038501555050436002909201919091555050565b61120d612764565b60006008828154811061122257611222612e6c565b60009182526020808320858452600990915260408320600790920201925081611249612652565b73ffffffffffffffffffffffffffffffffffffffff16815260208101919091526040016000208054600684015491925090811115611309576040517f08c379a000000000000000000000000000000000000000000000000000000000815260206004820152602860248201527f456d657267656e637957697468647261773a20506f6f6c20746f74616c206e6f60448201527f7420656e6f75676800000000000000000000000000000000000000000000000060648201526084016106b9565b6000808355600183018190556002830181905560038301556006830154611330908261274c565b6006840155600354835473ffffffffffffffffffffffffffffffffffffffff9081169116141561136b57600d54611367908261274c565b600d555b825473ffffffffffffffffffffffffffffffffffffffff1663a9059cbb611390612652565b6040517fffffffff0000000000000000000000000000000000000000000000000000000060e084901b16815273ffffffffffffffffffffffffffffffffffffffff909116600482015260248101849052604401602060405180830381600087803b1580156113fd57600080fd5b505af1158015611411573d6000803e3d6000fd5b505050506040513d601f19601f820116820180604052508101906114359190612e9b565b508361143f612652565b73ffffffffffffffffffffffffffffffffffffffff167fbb757047c2b5f3974fe26b7c10f732e7bce710b0952a71082702781e62ae05958360405161148691815260200190565b60405180910390a350505061149a60018055565b50565b600e5460009060ff1680156114cc575060025473ffffffffffffffffffffffffffffffffffffffff8381169116145b92915050565b60045473ffffffffffffffffffffffffffffffffffffffff163314611578576040517f08c379a0000000000000000000000000000000000000000000000000000000008152602060048201526024808201527f4f70657261746f723a2063616c6c6572206973206e6f7420746865206f70657260448201527f61746f720000000000000000000000000000000000000000000000000000000060648201526084016106b9565b600e5460ff161561160b576040517f08c379a000000000000000000000000000000000000000000000000000000000815260206004820152602560248201527f4d657461207472616e73616374696f6e732061726520616c726561647920656e60448201527f61626c656400000000000000000000000000000000000000000000000000000060648201526084016106b9565b600e80547fffffffffffffffffffffffffffffffffffffffffffffffffffffffffffffff0016600117905561163e612652565b73ffffffffffffffffffffffffffffffffffffffff167f92e4c08d47b71e8dc051232b8e475ec296489a67a4ba5cca88ff20fb6ac499e660405160405180910390a2565b60085460005b81811015610fef5761169981610ff3565b6116a281612ee7565b9050611688565b6116b1612692565b6116bb60006129d8565b565b60065473ffffffffffffffffffffffffffffffffffffffff166116de612652565b73ffffffffffffffffffffffffffffffffffffffff161461175b576040517f08c379a000000000000000000000000000000000000000000000000000000000815260206004820152601860248201527f736574466565416464726573733a20464f5242494444454e000000000000000060448201526064016106b9565b73ffffffffffffffffffffffffffffffffffffffff81166117d8576040517f08c379a000000000000000000000000000000000000000000000000000000000815260206004820152601360248201527f736574466565416464726573733a205a45524f0000000000000000000000000060448201526064016106b9565b6117e0612652565b6006546040805173ffffffffffffffffffffffffffffffffffffffff9283168152848316602082015292909116917f6690a53895b5691c039238b384bd857e65c42adcc727775381e02cb90a122613910160405180910390a2600680547fffffffffffffffffffffffff00000000000000000000000000000000000000001673ffffffffffffffffffffffffffffffffffffffff92909216919091179055565b600061188c828461274c565b9392505050565b61189b612692565b6103e861ffff8416111561190b576040517f08c379a000000000000000000000000000000000000000000000000000000000815260206004820152601960248201527f6164643a206465706f7369742066656520746f6f20686967680000000000000060448201526064016106b9565b62127500821115611978576040517f08c379a000000000000000000000000000000000000000000000000000000000815260206004820152601d60248201527f6164643a20696e76616c6964206861727665737420696e74657276616c00000060448201526064016106b9565b801561198657611986611682565b600a5443906119959087612758565b600a556040805160e08101825273ffffffffffffffffffffffffffffffffffffffff96871681526020810197885290810191825260006060820181815261ffff9687166080840190815260a0840196875260c0840183815260088054600181018255945293517ff3f7a9fe364faab93b216da50a3214154f22a0a2b415b23a84c8169e8b636ee3600790940293840180547fffffffffffffffffffffffff00000000000000000000000000000000000000001691909a161790985597517ff3f7a9fe364faab93b216da50a3214154f22a0a2b415b23a84c8169e8b636ee482015591517ff3f7a9fe364faab93b216da50a3214154f22a0a2b415b23a84c8169e8b636ee583015595517ff3f7a9fe364faab93b216da50a3214154f22a0a2b415b23a84c8169e8b636ee682015593517ff3f7a9fe364faab93b216da50a3214154f22a0a2b415b23a84c8169e8b636ee7850180547fffffffffffffffffffffffffffffffffffffffffffffffffffffffffffff0000169190941617909255517ff3f7a9fe364faab93b216da50a3214154f22a0a2b415b23a84c8169e8b636ee88301555090517ff3f7a9fe364faab93b216da50a3214154f22a0a2b415b23a84c8169e8b636ee990910155565b611b6a612692565b600b544310611bd5576040517f08c379a000000000000000000000000000000000000000000000000000000000815260206004820152601b60248201527f4572726f723a3a4661726d207374617274656420616c7265616479000000000060448201526064016106b9565b60085460005b81811015611c2357600060088281548110611bf857611bf8612e6c565b906000526020600020906007020190504381600201819055505080611c1c90612ee7565b9050611bdb565b505043600b55565b60008060088481548110611c4157611c41612e6c565b6000918252602080832087845260098252604080852073ffffffffffffffffffffffffffffffffffffffff898116875293528085206007949094029091016003810154815492517f70a0823100000000000000000000000000000000000000000000000000000000815230600482015291965093949291909116906370a082319060240160206040518083038186803b158015611cdd57600080fd5b505afa158015611cf1573d6000803e3d6000fd5b505050506040513d601f19601f82011682018060405250810190611d159190612f20565b9050836002015443118015611d2957508015155b15611d89576000611d3e856002015443611880565b90506000611d65600a54610f818860010154611082600754876129c090919063ffffffff16565b9050611d84611d7d84610f818464e8d4a510006129c0565b8590612758565b935050505b6000611db98460010154611db364e8d4a51000610f818789600001546129c090919063ffffffff16565b9061274c565b9050611dd284600201548261275890919063ffffffff16565b98975050505050505050565b60045473ffffffffffffffffffffffffffffffffffffffff163314611e84576040517f08c379a0000000000000000000000000000000000000000000000000000000008152602060048201526024808201527f4f70657261746f723a2063616c6c6572206973206e6f7420746865206f70657260448201527f61746f720000000000000000000000000000000000000000000000000000000060648201526084016106b9565b8015611e9257611e92611682565b611e9a612652565b73ffffffffffffffffffffffffffffffffffffffff167f802633c8d26237616d81bdac01bc40fcdf36e098832601582ec19d7e431c5ef360088581548110611ee457611ee4612e6c565b90600052602060002090600702016001015484604051611f0e929190918252602082015260400190565b60405180910390a2611f3082610a5360088681548110610a3057610a30612e6c565b600a819055508160088481548110611f4a57611f4a612e6c565b906000526020600020906007020160010181905550505050565b60055473ffffffffffffffffffffffffffffffffffffffff16611f85612652565b73ffffffffffffffffffffffffffffffffffffffff1614612002576040517f08c379a000000000000000000000000000000000000000000000000000000000815260206004820152601860248201527f736574446576416464726573733a20464f5242494444454e000000000000000060448201526064016106b9565b73ffffffffffffffffffffffffffffffffffffffff811661207f576040517f08c379a000000000000000000000000000000000000000000000000000000000815260206004820152601360248201527f736574446576416464726573733a205a45524f0000000000000000000000000060448201526064016106b9565b612087612652565b6005546040805173ffffffffffffffffffffffffffffffffffffffff9283168152848316602082015292909116917fd36d63f6c513a911d7912853de740af476b0fbb569aa769e1a4f5bfa37a325c4910160405180910390a2600580547fffffffffffffffffffffffff00000000000000000000000000000000000000001673ffffffffffffffffffffffffffffffffffffffff92909216919091179055565b61212f612764565b60006008838154811061214457612144612e6c565b6000918252602080832086845260099091526040832060079092020192508161216b612652565b73ffffffffffffffffffffffffffffffffffffffff1673ffffffffffffffffffffffffffffffffffffffff16815260200190815260200160002090506121b084610ff3565b6121b9846127d8565b821561252a5781546040517f70a0823100000000000000000000000000000000000000000000000000000000815230600482015260009173ffffffffffffffffffffffffffffffffffffffff16906370a082319060240160206040518083038186803b15801561222857600080fd5b505afa15801561223c573d6000803e3d6000fd5b505050506040513d601f19601f820116820180604052508101906122609190612f20565b835490915073ffffffffffffffffffffffffffffffffffffffff166323b872dd612288612652565b6040517fffffffff0000000000000000000000000000000000000000000000000000000060e084901b16815273ffffffffffffffffffffffffffffffffffffffff909116600482015230602482015260448101879052606401602060405180830381600087803b1580156122fb57600080fd5b505af115801561230f573d6000803e3d6000fd5b505050506040513d601f19601f820116820180604052508101906123339190612e9b565b5082546040517f70a0823100000000000000000000000000000000000000000000000000000000815230600482015260009173ffffffffffffffffffffffffffffffffffffffff16906370a082319060240160206040518083038186803b15801561239d57600080fd5b505afa1580156123b1573d6000803e3d6000fd5b505050506040513d601f19601f820116820180604052508101906123d59190612f20565b90506123e1818361274c565b600485015490955061ffff16156124cf5760048401546000906124119061271090610f8190899061ffff166129c0565b85546006546040517fa9059cbb00000000000000000000000000000000000000000000000000000000815273ffffffffffffffffffffffffffffffffffffffff918216600482015260248101849052929350169063a9059cbb90604401602060405180830381600087803b15801561248857600080fd5b505af115801561249c573d6000803e3d6000fd5b505050506040513d601f19601f820116820180604052508101906124c09190612e9b565b506124cb868261274c565b9550505b82546124db9086612758565b835560068401546124ec9086612758565b6006850155600354845473ffffffffffffffffffffffffffffffffffffffff9081169116141561252757600d546125239086612758565b600d555b50505b600382015481546125459164e8d4a5100091610f81916129c0565b600182015583612553612652565b73ffffffffffffffffffffffffffffffffffffffff167f90890809c654f11d6e72a28fa60149770a0d11ec6c92319d6ceb2bb0a4ea1a1585604051610fdc91815260200190565b6125a2612692565b73ffffffffffffffffffffffffffffffffffffffff8116612645576040517f08c379a000000000000000000000000000000000000000000000000000000000815260206004820152602660248201527f4f776e61626c653a206e6577206f776e657220697320746865207a65726f206160448201527f646472657373000000000000000000000000000000000000000000000000000060648201526084016106b9565b61149a816129d8565b3390565b600061265d3361149d565b1561268d57507fffffffffffffffffffffffffffffffffffffffffffffffffffffffffffffffec36013560601c90565b503390565b61269a612652565b73ffffffffffffffffffffffffffffffffffffffff166126cf60005473ffffffffffffffffffffffffffffffffffffffff1690565b73ffffffffffffffffffffffffffffffffffffffff16146116bb576040517f08c379a000000000000000000000000000000000000000000000000000000000815260206004820181905260248201527f4f776e61626c653a2063616c6c6572206973206e6f7420746865206f776e657260448201526064016106b9565b600061188c8284612f39565b600061188c8284612f50565b600260015414156127d1576040517f08c379a000000000000000000000000000000000000000000000000000000000815260206004820152601f60248201527f5265656e7472616e637947756172643a207265656e7472616e742063616c6c0060448201526064016106b9565b6002600155565b6000600882815481106127ed576127ed612e6c565b60009182526020808320858452600990915260408320600790920201925081612814612652565b73ffffffffffffffffffffffffffffffffffffffff1673ffffffffffffffffffffffffffffffffffffffff168152602001908152602001600020905080600301546000141561287357600582015461286d904290612758565b60038201555b60006128a18260010154611db364e8d4a51000610f81876003015487600001546129c090919063ffffffff16565b90506128af84610350612652565b156129375760008111806128c7575060008260020154115b156129325760006128e583600201548361275890919063ffffffff16565b90506129008360020154600c5461274c90919063ffffffff16565b600c5560006002840155600584015461291a904290612758565b600384015561293061292a612652565b82612a4d565b505b6129ba565b80156129ba57600282015461294c9082612758565b6002830155600c5461295e9082612758565b600c558361296a612652565b73ffffffffffffffffffffffffffffffffffffffff167fee470483107f579a55c754fa00613c45a9a3b617a418b39cb0be97e5381ba7c1836040516129b191815260200190565b60405180910390a35b50505050565b600061188c8284612f68565b600061188c8284612fa5565b6000805473ffffffffffffffffffffffffffffffffffffffff8381167fffffffffffffffffffffffff0000000000000000000000000000000000000000831681178455604051919092169283917f8be0079c531659141344cd1fd0a4f28419497f9722a3daafe3b4186f6b6457e09190a35050565b600d546003546040517f70a0823100000000000000000000000000000000000000000000000000000000815230600482015273ffffffffffffffffffffffffffffffffffffffff909116906370a082319060240160206040518083038186803b158015612ab957600080fd5b505afa158015612acd573d6000803e3d6000fd5b505050506040513d601f19601f82011682018060405250810190612af19190612f20565b1115610fef57600d546003546040517f70a08231000000000000000000000000000000000000000000000000000000008152306004820152600092612ba492909173ffffffffffffffffffffffffffffffffffffffff909116906370a082319060240160206040518083038186803b158015612b6c57600080fd5b505afa158015612b80573d6000803e3d6000fd5b505050506040513d601f19601f82011682018060405250810190611db39190612f20565b9050808210612c59576003546040517fa9059cbb00000000000000000000000000000000000000000000000000000000815273ffffffffffffffffffffffffffffffffffffffff8581166004830152602482018490529091169063a9059cbb90604401602060405180830381600087803b158015612c2157600080fd5b505af1158015612c35573d6000803e3d6000fd5b505050506040513d601f19601f820116820180604052508101906129ba9190612e9b565b8115612cd3576003546040517fa9059cbb00000000000000000000000000000000000000000000000000000000815273ffffffffffffffffffffffffffffffffffffffff8581166004830152602482018590529091169063a9059cbb90604401602060405180830381600087803b158015612c2157600080fd5b505050565b600060208284031215612cea57600080fd5b5035919050565b803561ffff81168114612d0357600080fd5b919050565b801515811461149a57600080fd5b600080600080600060a08688031215612d2e57600080fd5b8535945060208601359350612d4560408701612cf1565b9250606086013591506080860135612d5c81612d08565b809150509295509295909350565b73ffffffffffffffffffffffffffffffffffffffff8116811461149a57600080fd5b600060208284031215612d9e57600080fd5b813561188c81612d6a565b60008060408385031215612dbc57600080fd5b823591506020830135612dce81612d6a565b809150509250929050565b60008060408385031215612dec57600080fd5b50508035926020909101359150565b600080600080600060a08688031215612e1357600080fd5b853594506020860135612e2581612d6a565b9350612d4560408701612cf1565b600080600060608486031215612e4857600080fd5b83359250602084013591506040840135612e6181612d08565b809150509250925092565b7f4e487b7100000000000000000000000000000000000000000000000000000000600052603260045260246000fd5b600060208284031215612ead57600080fd5b815161188c81612d08565b7f4e487b7100000000000000000000000000000000000000000000000000000000600052601160045260246000fd5b60007fffffffffffffffffffffffffffffffffffffffffffffffffffffffffffffffff821415612f1957612f19612eb8565b5060010190565b600060208284031215612f3257600080fd5b5051919050565b600082821015612f4b57612f4b612eb8565b500390565b60008219821115612f6357612f63612eb8565b500190565b6000817fffffffffffffffffffffffffffffffffffffffffffffffffffffffffffffffff0483118215151615612fa057612fa0612eb8565b500290565b600082612fdb577f4e487b7100000000000000000000000000000000000000000000000000000000600052601260045260246000fd5b50049056fea26469706673582212208f4ea202ef97075d9c70c29cf05c580244c69e904cf7592f30f236646a12b18f64736f6c63430008090033",
  "linkReferences": {},
  "deployedLinkReferences": {}
}