{
  "_format": "hh-sol-artifact-1",
  "contractName": "MockStdReference",
  "sourceName": "contracts/stablecoin/mocks/MockStdReference.sol",
  "abi": [
    {
      "inputs": [
        {
          "internalType": "string",
          "name": "_base",
          "type": "string"
        },
        {
          "internalType": "string",
          "name": "_quote",
          "type": "string"
        }
      ],
      "name": "getReferenceData",
      "outputs": [
        {
          "components": [
            {
              "internalType": "uint256",
              "name": "rate",
              "type": "uint256"
            },
            {
              "internalType": "uint256",
              "name": "lastUpdatedBase",
              "type": "uint256"
            },
            {
              "internalType": "uint256",
              "name": "lastUpdatedQuote",
              "type": "uint256"
            }
          ],
          "internalType": "struct IStdReference.ReferenceData",
          "name": "data",
          "type": "tuple"
        }
      ],
      "stateMutability": "view",
      "type": "function"
    },
    {
      "inputs": [
        {
          "internalType": "string[]",
          "name": "_bases",
          "type": "string[]"
        },
        {
          "internalType": "string[]",
          "name": "_quotes",
          "type": "string[]"
        }
      ],
      "name": "getReferenceDataBulk",
      "outputs": [
        {
          "components": [
            {
              "internalType": "uint256",
              "name": "rate",
              "type": "uint256"
            },
            {
              "internalType": "uint256",
              "name": "lastUpdatedBase",
              "type": "uint256"
            },
            {
              "internalType": "uint256",
              "name": "lastUpdatedQuote",
              "type": "uint256"
            }
          ],
          "internalType": "struct IStdReference.ReferenceData[]",
          "name": "arr",
          "type": "tuple[]"
        }
      ],
      "stateMutability": "view",
      "type": "function"
    }
  ],
  "bytecode": "0x608060405234801561001057600080fd5b50610355806100206000396000f3fe608060405234801561001057600080fd5b50600436106100365760003560e01c806365555bcc1461003b578063e42a071b14610064575b600080fd5b61004e61004936600461022c565b610084565b60405161005b91906102ea565b60405180910390f35b6100776100723660046101cb565b6100a3565b60405161005b919061029c565b61008c6100ac565b600080825260208201819052604082015292915050565b60605b92915050565b60405180606001604052806000815260200160008152602001600081525090565b600082601f8301126100dd578081fd5b813567ffffffffffffffff8111156100f3578182fd5b602061010281828402016102f8565b828152925080830184820160005b8481101561013957610127888584358a0101610144565b83529183019190830190600101610110565b505050505092915050565b600082601f830112610154578081fd5b813567ffffffffffffffff81111561016a578182fd5b61019b60207fffffffffffffffffffffffffffffffffffffffffffffffffffffffffffffffe0601f840116016102f8565b91508082528360208285010111156101b257600080fd5b8060208401602084013760009082016020015292915050565b600080604083850312156101dd578182fd5b823567ffffffffffffffff808211156101f4578384fd5b610200868387016100cd565b93506020850135915080821115610215578283fd5b50610222858286016100cd565b9150509250929050565b6000806040838503121561023e578182fd5b823567ffffffffffffffff80821115610255578384fd5b61026186838701610144565b93506020850135915080821115610276578283fd5b5061022285828601610144565b8051825260208082015190830152604090810151910152565b6020808252825182820181905260009190848201906040850190845b818110156102de576102cb838551610283565b92840192606092909201916001016102b8565b50909695505050505050565b606081016100a68284610283565b60405181810167ffffffffffffffff8111828210171561031757600080fd5b60405291905056fea2646970667358221220dcf4b472888b2a08b1a0ffc8f049c20786995a58a52dc310a491e2abf5fb469b64736f6c634300060c0033",
  "linkReferences": {},
  "deployedLinkReferences": {}
}