{
  "_format": "hh-sol-artifact-1",
  "contractName": "ShowStopper",
  "sourceName": "contracts/stablecoin/core/ShowStopper.sol",
  "abi": [
    {
      "anonymous": false,
      "inputs": [
        {
          "indexed": true,
          "internalType": "bytes32",
          "name": "collateralPoolId",
          "type": "bytes32"
        },
        {
          "indexed": true,
          "internalType": "address",
          "name": "positionAddress",
          "type": "address"
        },
        {
          "indexed": false,
          "internalType": "uint256",
          "name": "amount",
          "type": "uint256"
        },
        {
          "indexed": false,
          "internalType": "uint256",
          "name": "debtShare",
          "type": "uint256"
        }
      ],
      "name": "LogAccumulateBadDebt",
      "type": "event"
    },
    {
      "anonymous": false,
      "inputs": [
        {
          "indexed": true,
          "internalType": "address",
          "name": "ownerAddress",
          "type": "address"
        },
        {
          "indexed": false,
          "internalType": "uint256",
          "name": "amount",
          "type": "uint256"
        }
      ],
      "name": "LogAccumulateStablecoin",
      "type": "event"
    },
    {
      "anonymous": false,
      "inputs": [],
      "name": "LogCage",
      "type": "event"
    },
    {
      "anonymous": false,
      "inputs": [
        {
          "indexed": true,
          "internalType": "bytes32",
          "name": "collateralPoolId",
          "type": "bytes32"
        }
      ],
      "name": "LogCageCollateralPool",
      "type": "event"
    },
    {
      "anonymous": false,
      "inputs": [
        {
          "indexed": true,
          "internalType": "bytes32",
          "name": "collateralPoolId",
          "type": "bytes32"
        }
      ],
      "name": "LogFinalizeCashPrice",
      "type": "event"
    },
    {
      "anonymous": false,
      "inputs": [],
      "name": "LogFinalizeDebt",
      "type": "event"
    },
    {
      "anonymous": false,
      "inputs": [
        {
          "indexed": true,
          "internalType": "bytes32",
          "name": "collateralPoolId",
          "type": "bytes32"
        },
        {
          "indexed": true,
          "internalType": "address",
          "name": "positionAddress",
          "type": "address"
        },
        {
          "indexed": false,
          "internalType": "uint256",
          "name": "lockedCollateral",
          "type": "uint256"
        }
      ],
      "name": "LogRedeemLockedCollateral",
      "type": "event"
    },
    {
      "anonymous": false,
      "inputs": [
        {
          "indexed": true,
          "internalType": "bytes32",
          "name": "collateralPoolId",
          "type": "bytes32"
        },
        {
          "indexed": true,
          "internalType": "address",
          "name": "ownerAddress",
          "type": "address"
        },
        {
          "indexed": false,
          "internalType": "uint256",
          "name": "amount",
          "type": "uint256"
        }
      ],
      "name": "LogRedeemStablecoin",
      "type": "event"
    },
    {
      "anonymous": false,
      "inputs": [
        {
          "indexed": true,
          "internalType": "address",
          "name": "caller",
          "type": "address"
        },
        {
          "indexed": false,
          "internalType": "address",
          "name": "_bookKeeper",
          "type": "address"
        }
      ],
      "name": "LogSetBookKeeper",
      "type": "event"
    },
    {
      "anonymous": false,
      "inputs": [
        {
          "indexed": true,
          "internalType": "address",
          "name": "caller",
          "type": "address"
        },
        {
          "indexed": false,
          "internalType": "uint256",
          "name": "_cageCoolDown",
          "type": "uint256"
        }
      ],
      "name": "LogSetCageCoolDown",
      "type": "event"
    },
    {
      "anonymous": false,
      "inputs": [
        {
          "indexed": true,
          "internalType": "address",
          "name": "caller",
          "type": "address"
        },
        {
          "indexed": false,
          "internalType": "address",
          "name": "_liquidationEngine",
          "type": "address"
        }
      ],
      "name": "LogSetLiquidationEngine",
      "type": "event"
    },
    {
      "anonymous": false,
      "inputs": [
        {
          "indexed": true,
          "internalType": "address",
          "name": "caller",
          "type": "address"
        },
        {
          "indexed": false,
          "internalType": "address",
          "name": "_priceOracle",
          "type": "address"
        }
      ],
      "name": "LogSetPriceOracle",
      "type": "event"
    },
    {
      "anonymous": false,
      "inputs": [
        {
          "indexed": true,
          "internalType": "address",
          "name": "caller",
          "type": "address"
        },
        {
          "indexed": false,
          "internalType": "address",
          "name": "_systemDebtEngine",
          "type": "address"
        }
      ],
      "name": "LogSetSystemDebtEngine",
      "type": "event"
    },
    {
      "anonymous": false,
      "inputs": [
        {
          "indexed": false,
          "internalType": "address",
          "name": "account",
          "type": "address"
        }
      ],
      "name": "Paused",
      "type": "event"
    },
    {
      "anonymous": false,
      "inputs": [
        {
          "indexed": false,
          "internalType": "address",
          "name": "account",
          "type": "address"
        }
      ],
      "name": "Unpaused",
      "type": "event"
    },
    {
      "inputs": [
        {
          "internalType": "bytes32",
          "name": "_collateralPoolId",
          "type": "bytes32"
        },
        {
          "internalType": "address",
          "name": "_positionAddress",
          "type": "address"
        }
      ],
      "name": "accumulateBadDebt",
      "outputs": [],
      "stateMutability": "nonpayable",
      "type": "function"
    },
    {
      "inputs": [
        {
          "internalType": "uint256",
          "name": "_amount",
          "type": "uint256"
        }
      ],
      "name": "accumulateStablecoin",
      "outputs": [],
      "stateMutability": "nonpayable",
      "type": "function"
    },
    {
      "inputs": [
        {
          "internalType": "bytes32",
          "name": "",
          "type": "bytes32"
        }
      ],
      "name": "badDebtAccumulator",
      "outputs": [
        {
          "internalType": "uint256",
          "name": "",
          "type": "uint256"
        }
      ],
      "stateMutability": "view",
      "type": "function"
    },
    {
      "inputs": [],
      "name": "bookKeeper",
      "outputs": [
        {
          "internalType": "contract IBookKeeper",
          "name": "",
          "type": "address"
        }
      ],
      "stateMutability": "view",
      "type": "function"
    },
    {
      "inputs": [],
      "name": "cage",
      "outputs": [],
      "stateMutability": "nonpayable",
      "type": "function"
    },
    {
      "inputs": [
        {
          "internalType": "bytes32",
          "name": "_collateralPoolId",
          "type": "bytes32"
        }
      ],
      "name": "cage",
      "outputs": [],
      "stateMutability": "nonpayable",
      "type": "function"
    },
    {
      "inputs": [],
      "name": "cageCoolDown",
      "outputs": [
        {
          "internalType": "uint256",
          "name": "",
          "type": "uint256"
        }
      ],
      "stateMutability": "view",
      "type": "function"
    },
    {
      "inputs": [
        {
          "internalType": "bytes32",
          "name": "",
          "type": "bytes32"
        }
      ],
      "name": "cagePrice",
      "outputs": [
        {
          "internalType": "uint256",
          "name": "",
          "type": "uint256"
        }
      ],
      "stateMutability": "view",
      "type": "function"
    },
    {
      "inputs": [],
      "name": "cagedTimestamp",
      "outputs": [
        {
          "internalType": "uint256",
          "name": "",
          "type": "uint256"
        }
      ],
      "stateMutability": "view",
      "type": "function"
    },
    {
      "inputs": [],
      "name": "debt",
      "outputs": [
        {
          "internalType": "uint256",
          "name": "",
          "type": "uint256"
        }
      ],
      "stateMutability": "view",
      "type": "function"
    },
    {
      "inputs": [
        {
          "internalType": "bytes32",
          "name": "",
          "type": "bytes32"
        }
      ],
      "name": "finalCashPrice",
      "outputs": [
        {
          "internalType": "uint256",
          "name": "",
          "type": "uint256"
        }
      ],
      "stateMutability": "view",
      "type": "function"
    },
    {
      "inputs": [
        {
          "internalType": "bytes32",
          "name": "_collateralPoolId",
          "type": "bytes32"
        }
      ],
      "name": "finalizeCashPrice",
      "outputs": [],
      "stateMutability": "nonpayable",
      "type": "function"
    },
    {
      "inputs": [],
      "name": "finalizeDebt",
      "outputs": [],
      "stateMutability": "nonpayable",
      "type": "function"
    },
    {
      "inputs": [
        {
          "internalType": "address",
          "name": "_bookKeeper",
          "type": "address"
        }
      ],
      "name": "initialize",
      "outputs": [],
      "stateMutability": "nonpayable",
      "type": "function"
    },
    {
      "inputs": [],
      "name": "liquidationEngine",
      "outputs": [
        {
          "internalType": "contract ILiquidationEngine",
          "name": "",
          "type": "address"
        }
      ],
      "stateMutability": "view",
      "type": "function"
    },
    {
      "inputs": [],
      "name": "live",
      "outputs": [
        {
          "internalType": "uint256",
          "name": "",
          "type": "uint256"
        }
      ],
      "stateMutability": "view",
      "type": "function"
    },
    {
      "inputs": [],
      "name": "paused",
      "outputs": [
        {
          "internalType": "bool",
          "name": "",
          "type": "bool"
        }
      ],
      "stateMutability": "view",
      "type": "function"
    },
    {
      "inputs": [],
      "name": "priceOracle",
      "outputs": [
        {
          "internalType": "contract IPriceOracle",
          "name": "",
          "type": "address"
        }
      ],
      "stateMutability": "view",
      "type": "function"
    },
    {
      "inputs": [
        {
          "internalType": "bytes32",
          "name": "_collateralPoolId",
          "type": "bytes32"
        },
        {
          "internalType": "contract IGenericTokenAdapter",
          "name": "_adapter",
          "type": "address"
        },
        {
          "internalType": "address",
          "name": "_positionAddress",
          "type": "address"
        },
        {
          "internalType": "address",
          "name": "_collateralReceiver",
          "type": "address"
        },
        {
          "internalType": "bytes",
          "name": "_data",
          "type": "bytes"
        }
      ],
      "name": "redeemLockedCollateral",
      "outputs": [],
      "stateMutability": "nonpayable",
      "type": "function"
    },
    {
      "inputs": [
        {
          "internalType": "bytes32",
          "name": "_collateralPoolId",
          "type": "bytes32"
        },
        {
          "internalType": "uint256",
          "name": "_amount",
          "type": "uint256"
        }
      ],
      "name": "redeemStablecoin",
      "outputs": [],
      "stateMutability": "nonpayable",
      "type": "function"
    },
    {
      "inputs": [
        {
          "internalType": "bytes32",
          "name": "",
          "type": "bytes32"
        },
        {
          "internalType": "address",
          "name": "",
          "type": "address"
        }
      ],
      "name": "redeemedStablecoinAmount",
      "outputs": [
        {
          "internalType": "uint256",
          "name": "",
          "type": "uint256"
        }
      ],
      "stateMutability": "view",
      "type": "function"
    },
    {
      "inputs": [
        {
          "internalType": "address",
          "name": "_bookKeeper",
          "type": "address"
        }
      ],
      "name": "setBookKeeper",
      "outputs": [],
      "stateMutability": "nonpayable",
      "type": "function"
    },
    {
      "inputs": [
        {
          "internalType": "uint256",
          "name": "_cageCoolDown",
          "type": "uint256"
        }
      ],
      "name": "setCageCoolDown",
      "outputs": [],
      "stateMutability": "nonpayable",
      "type": "function"
    },
    {
      "inputs": [
        {
          "internalType": "address",
          "name": "_liquidationEngine",
          "type": "address"
        }
      ],
      "name": "setLiquidationEngine",
      "outputs": [],
      "stateMutability": "nonpayable",
      "type": "function"
    },
    {
      "inputs": [
        {
          "internalType": "address",
          "name": "_priceOracle",
          "type": "address"
        }
      ],
      "name": "setPriceOracle",
      "outputs": [],
      "stateMutability": "nonpayable",
      "type": "function"
    },
    {
      "inputs": [
        {
          "internalType": "address",
          "name": "_systemDebtEngine",
          "type": "address"
        }
      ],
      "name": "setSystemDebtEngine",
      "outputs": [],
      "stateMutability": "nonpayable",
      "type": "function"
    },
    {
      "inputs": [
        {
          "internalType": "address",
          "name": "",
          "type": "address"
        }
      ],
      "name": "stablecoinAccumulator",
      "outputs": [
        {
          "internalType": "uint256",
          "name": "",
          "type": "uint256"
        }
      ],
      "stateMutability": "view",
      "type": "function"
    },
    {
      "inputs": [],
      "name": "systemDebtEngine",
      "outputs": [
        {
          "internalType": "contract ISystemDebtEngine",
          "name": "",
          "type": "address"
        }
      ],
      "stateMutability": "view",
      "type": "function"
    },
    {
      "inputs": [
        {
          "internalType": "bytes32",
          "name": "",
          "type": "bytes32"
        }
      ],
      "name": "totalDebtShare",
      "outputs": [
        {
          "internalType": "uint256",
          "name": "",
          "type": "uint256"
        }
      ],
      "stateMutability": "view",
      "type": "function"
    }
  ],
  "bytecode": "0x608060405234801561001057600080fd5b50613abc806100206000396000f3fe608060405234801561001057600080fd5b50600436106101ce5760003560e01c80635c975abb11610104578063acb5f847116100a2578063c4d66de811610071578063c4d66de814610372578063e2702fdc14610385578063e3b3932a14610398578063f25e7ee5146103a0576101ce565b8063acb5f84714610331578063b5a297b114610339578063be0c4a111461034c578063bfb934c41461035f576101ce565b806372bac359116100de57806372bac359146102f05780637e0972f5146103035780638557198914610316578063957aa58c14610329576101ce565b80635c975abb146102cb5780636920c9cb146102e057806369245009146102e8576101ce565b806328e49a421161017157806344bf3c721161014b57806344bf3c721461028a5780634d298abd14610292578063530e784f146102a557806359836333146102b8576101ce565b806328e49a42146102675780633b4a52101461026f57806340a29d1814610277576101ce565b80630c91102d116101ad5780630c91102d146102245780630dca59c1146102375780632630c12f1461023f578063267750c114610254576101ce565b80621a0fda146101d357806307d8bd88146101fc578063094ad0cb14610211575b600080fd5b6101e66101e1366004613230565b6103b3565b6040516101f391906134e0565b60405180910390f35b61020f61020a366004613230565b6103c5565b005b61020f61021f3660046132bf565b6106ec565b61020f61023236600461328f565b610aed565b6101e6610d60565b610247610d66565b6040516101f391906133e0565b6101e66102623660046132bf565b610d82565b610247610d9f565b6101e6610dbb565b61020f61028536600461339c565b610dc1565b610247610fa6565b61020f6102a0366004613230565b610fc2565b61020f6102b3366004613230565b611253565b61020f6102c63660046132ee565b6114e4565b6102d36118df565b6040516101f391906134d5565b61020f6118e8565b61020f611b54565b6101e66102fe36600461328f565b611fae565b61020f610311366004613230565b611fc0565b61020f61032436600461328f565b612251565b6101e66123b9565b6101e66123bf565b61020f61034736600461328f565b6123c5565b6101e661035a36600461328f565b61261b565b6101e661036d36600461328f565b61262d565b61020f610380366004613230565b61263f565b61020f61039336600461328f565b612803565b610247612e3b565b6101e66103ae36600461328f565b612e57565b60716020526000908152604090205481565b606554604080517fc8cc243f000000000000000000000000000000000000000000000000000000008152905160009273ffffffffffffffffffffffffffffffffffffffff169163c8cc243f916004808301926020929190829003018186803b15801561043057600080fd5b505afa158015610444573d6000803e3d6000fd5b505050506040513d601f19601f820116820180604052508101906104689190613253565b90508073ffffffffffffffffffffffffffffffffffffffff166391d148548273ffffffffffffffffffffffffffffffffffffffff1663e58378bb6040518163ffffffff1660e01b815260040160206040518083038186803b1580156104cc57600080fd5b505afa1580156104e0573d6000803e3d6000fd5b505050506040513d601f19601f8201168201806040525081019061050491906132a7565b336040518363ffffffff1660e01b81526004016105229291906134e9565b60206040518083038186803b15801561053a57600080fd5b505afa15801561054e573d6000803e3d6000fd5b505050506040513d601f19601f82011682018060405250810190610572919061326f565b6105b1576040517f08c379a00000000000000000000000000000000000000000000000000000000081526004016105a890613581565b60405180910390fd5b6069546001146105ed576040517f08c379a00000000000000000000000000000000000000000000000000000000081526004016105a89061382e565b8173ffffffffffffffffffffffffffffffffffffffff16636f3a3bfc6040518163ffffffff1660e01b8152600401602060405180830381600087803b15801561063557600080fd5b505af1158015610649573d6000803e3d6000fd5b505050506040513d601f19601f8201168201806040525081019061066d91906132a7565b50606580547fffffffffffffffffffffffff00000000000000000000000000000000000000001673ffffffffffffffffffffffffffffffffffffffff841617905560405133907f2dbdc2d9ab1d00dae4c8616a09875d464749cf2b95c105a3e590740214eed3b7906106e09085906133e0565b60405180910390a25050565b6000828152606d6020526040902054610731576040517f08c379a00000000000000000000000000000000000000000000000000000000081526004016105a89061364c565b606554604080517fd8682461000000000000000000000000000000000000000000000000000000008152905160009273ffffffffffffffffffffffffffffffffffffffff169163d8682461916004808301926020929190829003018186803b15801561079c57600080fd5b505afa1580156107b0573d6000803e3d6000fd5b505050506040513d601f19601f820116820180604052508101906107d49190613253565b73ffffffffffffffffffffffffffffffffffffffff1663a09b0fe0846040518263ffffffff1660e01b815260040161080c91906134e0565b60206040518083038186803b15801561082457600080fd5b505afa158015610838573d6000803e3d6000fd5b505050506040513d601f19601f8201168201806040525081019061085c91906132a7565b6065546040517f29d88594000000000000000000000000000000000000000000000000000000008152919250600091829173ffffffffffffffffffffffffffffffffffffffff16906329d88594906108ba90889088906004016134e9565b604080518083038186803b1580156108d157600080fd5b505afa1580156108e5573d6000803e3d6000fd5b505050506040513d601f19601f8201168201806040525081019061090991906133bd565b91509150600061093061091c8386612e69565b6000888152606d6020526040902054612e69565b9050600061093e8483612e91565b6000888152606e60205260409020549091506109639061095e8484612eac565b612ebc565b6000888152606e60205260409020557f8000000000000000000000000000000000000000000000000000000000000000811080156109c057507f800000000000000000000000000000000000000000000000000000000000000083105b6109f6576040517f08c379a00000000000000000000000000000000000000000000000000000000081526004016105a89061398b565b6065546067546040517fb1df259400000000000000000000000000000000000000000000000000000000815273ffffffffffffffffffffffffffffffffffffffff9283169263b1df259492610a61928c928c923092911690600089810391908c90039060040161353f565b600060405180830381600087803b158015610a7b57600080fd5b505af1158015610a8f573d6000803e3d6000fd5b505050508573ffffffffffffffffffffffffffffffffffffffff16877f293e4e60f641b49922533fbeeac17db015a503c90dbb303eb7a873cf88d9539f8386604051610adc929190613a56565b60405180910390a350505050505050565b606c54610b26576040517f08c379a00000000000000000000000000000000000000000000000000000000081526004016105a8906138d1565b60008181526070602052604090205415610b6c576040517f08c379a00000000000000000000000000000000000000000000000000000000081526004016105a890613908565b606554604080517fd8682461000000000000000000000000000000000000000000000000000000008152905160009273ffffffffffffffffffffffffffffffffffffffff169163d8682461916004808301926020929190829003018186803b158015610bd757600080fd5b505afa158015610beb573d6000803e3d6000fd5b505050506040513d601f19601f82011682018060405250810190610c0f9190613253565b73ffffffffffffffffffffffffffffffffffffffff1663a09b0fe0836040518263ffffffff1660e01b8152600401610c4791906134e0565b60206040518083038186803b158015610c5f57600080fd5b505afa158015610c73573d6000803e3d6000fd5b505050506040513d601f19601f82011682018060405250810190610c9791906132a7565b6000838152606f602052604081205491925090610ccc90610cb89084612e69565b6000858152606d6020526040902054612e69565b90506b033b2e3c9fd0803ce8000000606c5481610ce557fe5b04610d18610d0683606e600088815260200190815260200160002054612eac565b6b033b2e3c9fd0803ce8000000612ecc565b81610d1f57fe5b600085815260706020526040808220939092049092555184917fe3784a448612e2ede1104caa7905e411b93502dd4dc33d032bf343c5917b43c891a2505050565b606c5481565b60685473ffffffffffffffffffffffffffffffffffffffff1681565b607260209081526000928352604080842090915290825290205481565b60675473ffffffffffffffffffffffffffffffffffffffff1681565b606b5481565b80610df8576040517f08c379a00000000000000000000000000000000000000000000000000000000081526004016105a8906135b8565b600082815260706020526040902054610e3d576040517f08c379a00000000000000000000000000000000000000000000000000000000081526004016105a8906139f9565b60655460008381526070602052604090205473ffffffffffffffffffffffffffffffffffffffff9091169063b5d9932990849030903390610e7f908790612e69565b6040518563ffffffff1660e01b8152600401610e9e949392919061350d565b600060405180830381600087803b158015610eb857600080fd5b505af1158015610ecc573d6000803e3d6000fd5b5050506000838152607260209081526040808320338452909152902054610ef4915082612ebc565b6000838152607260209081526040808320338452808352818420859055607183529220549190521015610f53576040517f08c379a00000000000000000000000000000000000000000000000000000000081526004016105a8906135ef565b3373ffffffffffffffffffffffffffffffffffffffff16827f276115163114a9fc56b72ce487409e28a2d9dc521d5edb93623d4ae286c5485383604051610f9a91906134e0565b60405180910390a35050565b60665473ffffffffffffffffffffffffffffffffffffffff1681565b606554604080517fc8cc243f000000000000000000000000000000000000000000000000000000008152905160009273ffffffffffffffffffffffffffffffffffffffff169163c8cc243f916004808301926020929190829003018186803b15801561102d57600080fd5b505afa158015611041573d6000803e3d6000fd5b505050506040513d601f19601f820116820180604052508101906110659190613253565b90508073ffffffffffffffffffffffffffffffffffffffff166391d148548273ffffffffffffffffffffffffffffffffffffffff1663e58378bb6040518163ffffffff1660e01b815260040160206040518083038186803b1580156110c957600080fd5b505afa1580156110dd573d6000803e3d6000fd5b505050506040513d601f19601f8201168201806040525081019061110191906132a7565b336040518363ffffffff1660e01b815260040161111f9291906134e9565b60206040518083038186803b15801561113757600080fd5b505afa15801561114b573d6000803e3d6000fd5b505050506040513d601f19601f8201168201806040525081019061116f919061326f565b6111a5576040517f08c379a00000000000000000000000000000000000000000000000000000000081526004016105a890613581565b6069546001146111e1576040517f08c379a00000000000000000000000000000000000000000000000000000000081526004016105a89061382e565b606680547fffffffffffffffffffffffff00000000000000000000000000000000000000001673ffffffffffffffffffffffffffffffffffffffff841617905560405133907f599e6dd25180262019a2297440c3ca5d90e3fdb763a03e04e1ab11bb0ead154b906106e09085906133e0565b606554604080517fc8cc243f000000000000000000000000000000000000000000000000000000008152905160009273ffffffffffffffffffffffffffffffffffffffff169163c8cc243f916004808301926020929190829003018186803b1580156112be57600080fd5b505afa1580156112d2573d6000803e3d6000fd5b505050506040513d601f19601f820116820180604052508101906112f69190613253565b90508073ffffffffffffffffffffffffffffffffffffffff166391d148548273ffffffffffffffffffffffffffffffffffffffff1663e58378bb6040518163ffffffff1660e01b815260040160206040518083038186803b15801561135a57600080fd5b505afa15801561136e573d6000803e3d6000fd5b505050506040513d601f19601f8201168201806040525081019061139291906132a7565b336040518363ffffffff1660e01b81526004016113b09291906134e9565b60206040518083038186803b1580156113c857600080fd5b505afa1580156113dc573d6000803e3d6000fd5b505050506040513d601f19601f82011682018060405250810190611400919061326f565b611436576040517f08c379a00000000000000000000000000000000000000000000000000000000081526004016105a890613581565b606954600114611472576040517f08c379a00000000000000000000000000000000000000000000000000000000081526004016105a89061382e565b606880547fffffffffffffffffffffffff00000000000000000000000000000000000000001673ffffffffffffffffffffffffffffffffffffffff841617905560405133907f23a4a5c78e3d84f844d749b85830c9b1f4c9d4c036c10b4a2343afb46f0f0fe8906106e09085906133e0565b6069541561151e576040517f08c379a00000000000000000000000000000000000000000000000000000000081526004016105a8906137f7565b73ffffffffffffffffffffffffffffffffffffffff84163314806115e957506065546040517fd9ea915500000000000000000000000000000000000000000000000000000000815273ffffffffffffffffffffffffffffffffffffffff9091169063d9ea9155906115959087903390600401613432565b60206040518083038186803b1580156115ad57600080fd5b505afa1580156115c1573d6000803e3d6000fd5b505050506040513d601f19601f820116820180604052508101906115e591906132a7565b6001145b61161f576040517f08c379a00000000000000000000000000000000000000000000000000000000081526004016105a890613865565b6065546040517f29d88594000000000000000000000000000000000000000000000000000000008152600091829173ffffffffffffffffffffffffffffffffffffffff909116906329d885949061167c908b908a906004016134e9565b604080518083038186803b15801561169357600080fd5b505afa1580156116a7573d6000803e3d6000fd5b505050506040513d601f19601f820116820180604052508101906116cb91906133bd565b9150915080600014611709576040517f08c379a00000000000000000000000000000000000000000000000000000000081526004016105a89061389c565b7f80000000000000000000000000000000000000000000000000000000000000008210611762576040517f08c379a00000000000000000000000000000000000000000000000000000000081526004016105a89061398b565b6065546067546040517fb1df259400000000000000000000000000000000000000000000000000000000815273ffffffffffffffffffffffffffffffffffffffff9283169263b1df2594926117c8928d928c928c9291169060008a81039160040161353f565b600060405180830381600087803b1580156117e257600080fd5b505af11580156117f6573d6000803e3d6000fd5b50506040517f9944361600000000000000000000000000000000000000000000000000000000815273ffffffffffffffffffffffffffffffffffffffff8a16925063994436169150611854908990899087908a908a90600401613459565b600060405180830381600087803b15801561186e57600080fd5b505af1158015611882573d6000803e3d6000fd5b505050508473ffffffffffffffffffffffffffffffffffffffff16887ff2ac336db333e2ae75aa12cd2daa676109d3c95bf5b1cd3a952048f7f799cffb846040516118cd91906134e0565b60405180910390a35050505050505050565b60335460ff1690565b60695415611922576040517f08c379a00000000000000000000000000000000000000000000000000000000081526004016105a8906137f7565b606c541561195c576040517f08c379a00000000000000000000000000000000000000000000000000000000081526004016105a890613706565b6065546067546040517fb4ac08bb00000000000000000000000000000000000000000000000000000000815273ffffffffffffffffffffffffffffffffffffffff9283169263b4ac08bb926119b6929116906004016133e0565b60206040518083038186803b1580156119ce57600080fd5b505afa1580156119e2573d6000803e3d6000fd5b505050506040513d601f19601f82011682018060405250810190611a0691906132a7565b15611a3d576040517f08c379a00000000000000000000000000000000000000000000000000000000081526004016105a8906139c2565b611a4b606a54606b54612ebc565b421015611a84576040517f08c379a00000000000000000000000000000000000000000000000000000000081526004016105a8906136a9565b606560009054906101000a900473ffffffffffffffffffffffffffffffffffffffff1673ffffffffffffffffffffffffffffffffffffffff16636f3a3bfc6040518163ffffffff1660e01b8152600401602060405180830381600087803b158015611aee57600080fd5b505af1158015611b02573d6000803e3d6000fd5b505050506040513d601f19601f82011682018060405250810190611b2691906132a7565b606c556040517f0e3725bc56837c9af795ff76d008a9b5e8d0c95f11f3df03ff9c9225370b4bd290600090a1565b606554604080517fc8cc243f000000000000000000000000000000000000000000000000000000008152905160009273ffffffffffffffffffffffffffffffffffffffff169163c8cc243f916004808301926020929190829003018186803b158015611bbf57600080fd5b505afa158015611bd3573d6000803e3d6000fd5b505050506040513d601f19601f82011682018060405250810190611bf79190613253565b90508073ffffffffffffffffffffffffffffffffffffffff166391d148548273ffffffffffffffffffffffffffffffffffffffff1663e58378bb6040518163ffffffff1660e01b815260040160206040518083038186803b158015611c5b57600080fd5b505afa158015611c6f573d6000803e3d6000fd5b505050506040513d601f19601f82011682018060405250810190611c9391906132a7565b336040518363ffffffff1660e01b8152600401611cb19291906134e9565b60206040518083038186803b158015611cc957600080fd5b505afa158015611cdd573d6000803e3d6000fd5b505050506040513d601f19601f82011682018060405250810190611d01919061326f565b611d37576040517f08c379a00000000000000000000000000000000000000000000000000000000081526004016105a890613581565b606954600114611d73576040517f08c379a00000000000000000000000000000000000000000000000000000000081526004016105a89061382e565b6000606981905542606a55606554604080517f69245009000000000000000000000000000000000000000000000000000000008152905173ffffffffffffffffffffffffffffffffffffffff9092169263692450099260048084019382900301818387803b158015611de457600080fd5b505af1158015611df8573d6000803e3d6000fd5b50505050606660009054906101000a900473ffffffffffffffffffffffffffffffffffffffff1673ffffffffffffffffffffffffffffffffffffffff1663692450096040518163ffffffff1660e01b8152600401600060405180830381600087803b158015611e6657600080fd5b505af1158015611e7a573d6000803e3d6000fd5b50505050606760009054906101000a900473ffffffffffffffffffffffffffffffffffffffff1673ffffffffffffffffffffffffffffffffffffffff1663692450096040518163ffffffff1660e01b8152600401600060405180830381600087803b158015611ee857600080fd5b505af1158015611efc573d6000803e3d6000fd5b50505050606860009054906101000a900473ffffffffffffffffffffffffffffffffffffffff1673ffffffffffffffffffffffffffffffffffffffff1663692450096040518163ffffffff1660e01b8152600401600060405180830381600087803b158015611f6a57600080fd5b505af1158015611f7e573d6000803e3d6000fd5b50506040517fbf689b4aae670d200b1d2b971ace2e0c3bef88a9c5e93f36705c7b86eab630b9925060009150a150565b606e6020526000908152604090205481565b606554604080517fc8cc243f000000000000000000000000000000000000000000000000000000008152905160009273ffffffffffffffffffffffffffffffffffffffff169163c8cc243f916004808301926020929190829003018186803b15801561202b57600080fd5b505afa15801561203f573d6000803e3d6000fd5b505050506040513d601f19601f820116820180604052508101906120639190613253565b90508073ffffffffffffffffffffffffffffffffffffffff166391d148548273ffffffffffffffffffffffffffffffffffffffff1663e58378bb6040518163ffffffff1660e01b815260040160206040518083038186803b1580156120c757600080fd5b505afa1580156120db573d6000803e3d6000fd5b505050506040513d601f19601f820116820180604052508101906120ff91906132a7565b336040518363ffffffff1660e01b815260040161211d9291906134e9565b60206040518083038186803b15801561213557600080fd5b505afa158015612149573d6000803e3d6000fd5b505050506040513d601f19601f8201168201806040525081019061216d919061326f565b6121a3576040517f08c379a00000000000000000000000000000000000000000000000000000000081526004016105a890613581565b6069546001146121df576040517f08c379a00000000000000000000000000000000000000000000000000000000081526004016105a89061382e565b606780547fffffffffffffffffffffffff00000000000000000000000000000000000000001673ffffffffffffffffffffffffffffffffffffffff841617905560405133907f28c02b7fb4c1c94c7b73df5dd0863593970575d3a1faf5271e73ee27155c4021906106e09085906133e0565b80612288576040517f08c379a00000000000000000000000000000000000000000000000000000000081526004016105a8906135b8565b606c546122c1576040517f08c379a00000000000000000000000000000000000000000000000000000000081526004016105a8906138d1565b60655460675473ffffffffffffffffffffffffffffffffffffffff91821691638c157854913391166122ff856b033b2e3c9fd0803ce8000000612ecc565b6040518463ffffffff1660e01b815260040161231d93929190613401565b600060405180830381600087803b15801561233757600080fd5b505af115801561234b573d6000803e3d6000fd5b50503360009081526071602052604090205461236a9250905082612ebc565b33600081815260716020526040908190209290925590517fc50ee2f6bfb3dfbf11848560b2f455c3b655a6046bd89eda50b5b2ffcd6fc1f9906123ae9084906134e0565b60405180910390a250565b60695481565b606a5481565b606554604080517fc8cc243f000000000000000000000000000000000000000000000000000000008152905160009273ffffffffffffffffffffffffffffffffffffffff169163c8cc243f916004808301926020929190829003018186803b15801561243057600080fd5b505afa158015612444573d6000803e3d6000fd5b505050506040513d601f19601f820116820180604052508101906124689190613253565b90508073ffffffffffffffffffffffffffffffffffffffff166391d148548273ffffffffffffffffffffffffffffffffffffffff1663e58378bb6040518163ffffffff1660e01b815260040160206040518083038186803b1580156124cc57600080fd5b505afa1580156124e0573d6000803e3d6000fd5b505050506040513d601f19601f8201168201806040525081019061250491906132a7565b336040518363ffffffff1660e01b81526004016125229291906134e9565b60206040518083038186803b15801561253a57600080fd5b505afa15801561254e573d6000803e3d6000fd5b505050506040513d601f19601f82011682018060405250810190612572919061326f565b6125a8576040517f08c379a00000000000000000000000000000000000000000000000000000000081526004016105a890613581565b6069546001146125e4576040517f08c379a00000000000000000000000000000000000000000000000000000000081526004016105a89061382e565b606b82905560405133907f0fbe15c55a6ffa7c9d38f88af449a911fad669e3c5de3215a833fb9fa53b7e5c906106e09085906134e0565b606f6020526000908152604090205481565b606d6020526000908152604090205481565b600054610100900460ff16806126585750612658612ef0565b80612666575060005460ff16155b61269c576040517f08c379a00000000000000000000000000000000000000000000000000000000081526004016105a89061379a565b600054610100900460ff1615801561270257600080547fffffffffffffffffffffffffffffffffffffffffffffffffffffffffffffff007fffffffffffffffffffffffffffffffffffffffffffffffffffffffffffff00ff909116610100171660011790555b61270a612f01565b8173ffffffffffffffffffffffffffffffffffffffff16636f3a3bfc6040518163ffffffff1660e01b8152600401602060405180830381600087803b15801561275257600080fd5b505af1158015612766573d6000803e3d6000fd5b505050506040513d601f19601f8201168201806040525081019061278a91906132a7565b50606580547fffffffffffffffffffffffff00000000000000000000000000000000000000001673ffffffffffffffffffffffffffffffffffffffff8416179055600160695580156127ff57600080547fffffffffffffffffffffffffffffffffffffffffffffffffffffffffffff00ff1690555b5050565b606554604080517fc8cc243f000000000000000000000000000000000000000000000000000000008152905160009273ffffffffffffffffffffffffffffffffffffffff169163c8cc243f916004808301926020929190829003018186803b15801561286e57600080fd5b505afa158015612882573d6000803e3d6000fd5b505050506040513d601f19601f820116820180604052508101906128a69190613253565b90508073ffffffffffffffffffffffffffffffffffffffff166391d148548273ffffffffffffffffffffffffffffffffffffffff1663e58378bb6040518163ffffffff1660e01b815260040160206040518083038186803b15801561290a57600080fd5b505afa15801561291e573d6000803e3d6000fd5b505050506040513d601f19601f8201168201806040525081019061294291906132a7565b336040518363ffffffff1660e01b81526004016129609291906134e9565b60206040518083038186803b15801561297857600080fd5b505afa15801561298c573d6000803e3d6000fd5b505050506040513d601f19601f820116820180604052508101906129b0919061326f565b6129e6576040517f08c379a00000000000000000000000000000000000000000000000000000000081526004016105a890613581565b60695415612a20576040517f08c379a00000000000000000000000000000000000000000000000000000000081526004016105a8906137f7565b6000828152606d602052604090205415612a66576040517f08c379a00000000000000000000000000000000000000000000000000000000081526004016105a89061373d565b606554604080517fd8682461000000000000000000000000000000000000000000000000000000008152905160009273ffffffffffffffffffffffffffffffffffffffff169163d8682461916004808301926020929190829003018186803b158015612ad157600080fd5b505afa158015612ae5573d6000803e3d6000fd5b505050506040513d601f19601f82011682018060405250810190612b099190613253565b73ffffffffffffffffffffffffffffffffffffffff16637a8bd02e846040518263ffffffff1660e01b8152600401612b4191906134e0565b60206040518083038186803b158015612b5957600080fd5b505afa158015612b6d573d6000803e3d6000fd5b505050506040513d601f19601f82011682018060405250810190612b9191906132a7565b90506000606560009054906101000a900473ffffffffffffffffffffffffffffffffffffffff1673ffffffffffffffffffffffffffffffffffffffff1663d86824616040518163ffffffff1660e01b815260040160206040518083038186803b158015612bfd57600080fd5b505afa158015612c11573d6000803e3d6000fd5b505050506040513d601f19601f82011682018060405250810190612c359190613253565b73ffffffffffffffffffffffffffffffffffffffff16638c0adf62856040518263ffffffff1660e01b8152600401612c6d91906134e0565b60206040518083038186803b158015612c8557600080fd5b505afa158015612c99573d6000803e3d6000fd5b505050506040513d601f19601f82011682018060405250810190612cbd9190613253565b6000858152606f602090815260409182902085905560685482517f9d1eea7800000000000000000000000000000000000000000000000000000000815292519394508493612dfa9373ffffffffffffffffffffffffffffffffffffffff90921692639d1eea789260048082019391829003018186803b158015612d3f57600080fd5b505afa158015612d53573d6000803e3d6000fd5b505050506040513d601f19601f82011682018060405250810190612d7791906132a7565b8273ffffffffffffffffffffffffffffffffffffffff16637e91400f6040518163ffffffff1660e01b815260040160206040518083038186803b158015612dbd57600080fd5b505afa158015612dd1573d6000803e3d6000fd5b505050506040513d601f19601f82011682018060405250810190612df591906132a7565b613006565b6000868152606d602052604080822092909255905186917fbd1c95632282a2358063f487ff1e4525000d7c339f7afebf6744f972d0a98ba191a25050505050565b60655473ffffffffffffffffffffffffffffffffffffffff1681565b60706020526000908152604090205481565b60006b033b2e3c9fd0803ce8000000612e828484612ecc565b81612e8957fe5b049392505050565b600081831115612ea15781612ea3565b825b90505b92915050565b80820382811115612ea657600080fd5b81810182811015612ea657600080fd5b6000811580612ee757505080820282828281612ee457fe5b04145b612ea657600080fd5b6000612efb3061301b565b15905090565b600054610100900460ff1680612f1a5750612f1a612ef0565b80612f28575060005460ff16155b612f5e576040517f08c379a00000000000000000000000000000000000000000000000000000000081526004016105a89061379a565b600054610100900460ff16158015612fc457600080547fffffffffffffffffffffffffffffffffffffffffffffffffffffffffffffff007fffffffffffffffffffffffffffffffffffffffffffffffffffffffffffff00ff909116610100171660011790555b612fcc613021565b612fd4613114565b801561300357600080547fffffffffffffffffffffffffffffffffffffffffffffffffffffffffffff00ff1690555b50565b600081612e8284670de0b6b3a7640000612ecc565b3b151590565b600054610100900460ff168061303a575061303a612ef0565b80613048575060005460ff16155b61307e576040517f08c379a00000000000000000000000000000000000000000000000000000000081526004016105a89061379a565b600054610100900460ff16158015612fd457600080547fffffffffffffffffffffffffffffffffffffffffffffffffffffffffffffff007fffffffffffffffffffffffffffffffffffffffffffffffffffffffffffff00ff90911661010017166001179055801561300357600080547fffffffffffffffffffffffffffffffffffffffffffffffffffffffffffff00ff16905550565b600054610100900460ff168061312d575061312d612ef0565b8061313b575060005460ff16155b613171576040517f08c379a00000000000000000000000000000000000000000000000000000000081526004016105a89061379a565b600054610100900460ff161580156131d757600080547fffffffffffffffffffffffffffffffffffffffffffffffffffffffffffffff007fffffffffffffffffffffffffffffffffffffffffffffffffffffffffffff00ff909116610100171660011790555b603380547fffffffffffffffffffffffffffffffffffffffffffffffffffffffffffffff00169055801561300357600080547fffffffffffffffffffffffffffffffffffffffffffffffffffffffffffff00ff16905550565b600060208284031215613241578081fd5b813561324c81613a64565b9392505050565b600060208284031215613264578081fd5b815161324c81613a64565b600060208284031215613280578081fd5b8151801515811461324c578182fd5b6000602082840312156132a0578081fd5b5035919050565b6000602082840312156132b8578081fd5b5051919050565b600080604083850312156132d1578081fd5b8235915060208301356132e381613a64565b809150509250929050565b60008060008060008060a08789031215613306578182fd5b86359550602087013561331881613a64565b9450604087013561332881613a64565b9350606087013561333881613a64565b9250608087013567ffffffffffffffff80821115613354578384fd5b818901915089601f830112613367578384fd5b813581811115613375578485fd5b8a6020828501011115613386578485fd5b6020830194508093505050509295509295509295565b600080604083850312156133ae578182fd5b50508035926020909101359150565b600080604083850312156133cf578182fd5b505080516020909101519092909150565b73ffffffffffffffffffffffffffffffffffffffff91909116815260200190565b73ffffffffffffffffffffffffffffffffffffffff9384168152919092166020820152604081019190915260600190565b73ffffffffffffffffffffffffffffffffffffffff92831681529116602082015260400190565b600073ffffffffffffffffffffffffffffffffffffffff808816835280871660208401525084604083015260806060830152826080830152828460a084013781830160a090810191909152601f9092017fffffffffffffffffffffffffffffffffffffffffffffffffffffffffffffffe0160101949350505050565b901515815260200190565b90815260200190565b91825273ffffffffffffffffffffffffffffffffffffffff16602082015260400190565b93845273ffffffffffffffffffffffffffffffffffffffff928316602085015291166040830152606082015260800190565b95865273ffffffffffffffffffffffffffffffffffffffff9485166020870152928416604086015292166060840152608083019190915260a082015260c00190565b6020808252600a908201527f216f776e6572526f6c6500000000000000000000000000000000000000000000604082015260600190565b60208082526019908201527f5b53686f7753746f707065725d20616d6f756e742d7a65726f00000000000000604082015260600190565b60208082526039908201527f5b53686f7753746f707065725d20696e73756666696369656e742d737461626c60408201527f65636f696e2d616363756d756c61746f722d62616c616e636500000000000000606082015260800190565b60208082526037908201527f5b53686f7753746f707065725d20636167652d70726963652d636f6c6c61746560408201527f72616c2d706f6f6c2d69642d6e6f742d646566696e6564000000000000000000606082015260800190565b60208082526029908201527f5b53686f7753746f707065725d20636167652d636f6f6c2d646f776e2d6e6f7460408201527f2d66696e69736865640000000000000000000000000000000000000000000000606082015260800190565b6020808252601b908201527f5b53686f7753746f707065725d20646562742d6e6f742d7a65726f0000000000604082015260600190565b6020808252603b908201527f5b53686f7753746f707065725d20636167652d70726963652d636f6c6c61746560408201527f72616c2d706f6f6c2d69642d616c72656164792d646566696e65640000000000606082015260800190565b6020808252602e908201527f496e697469616c697a61626c653a20636f6e747261637420697320616c72656160408201527f647920696e697469616c697a6564000000000000000000000000000000000000606082015260800190565b60208082526018908201527f5b53686f7753746f707065725d207374696c6c2d6c6976650000000000000000604082015260600190565b60208082526016908201527f5b53686f7753746f707065725d206e6f742d6c69766500000000000000000000604082015260600190565b60208082526019908201527f5b53686f7753746f707065725d206e6f742d616c6c6f77656400000000000000604082015260600190565b6020808252818101527f5b53686f7753746f707065725d206465627453686172652d6e6f742d7a65726f604082015260600190565b60208082526017908201527f5b53686f7753746f707065725d20646562742d7a65726f000000000000000000604082015260600190565b60208082526041908201527f5b53686f7753746f707065725d2066696e616c2d636173682d70726963652d6360408201527f6f6c6c61746572616c2d706f6f6c2d69642d616c72656164792d646566696e6560608201527f6400000000000000000000000000000000000000000000000000000000000000608082015260a00190565b60208082526016908201527f5b53686f7753746f707065725d206f766572666c6f7700000000000000000000604082015260600190565b6020808252601e908201527f5b53686f7753746f707065725d20737572706c75732d6e6f742d7a65726f0000604082015260600190565b6020808252603d908201527f5b53686f7753746f707065725d2066696e616c2d636173682d70726963652d6360408201527f6f6c6c61746572616c2d706f6f6c2d69642d6e6f742d646566696e6564000000606082015260800190565b918252602082015260400190565b73ffffffffffffffffffffffffffffffffffffffff8116811461300357600080fdfea26469706673582212206a2f0a6cbe5a866c8888cb461682d0735b91a68bc65f0b362c1d6067c1398f8364736f6c634300060c0033",
  "linkReferences": {},
  "deployedLinkReferences": {}
}