{
  "_format": "hh-sol-artifact-1",
  "contractName": "StablecoinAdapter",
  "sourceName": "contracts/stablecoin/core/adapters/StablecoinAdapter.sol",
  "abi": [
    {
      "anonymous": false,
      "inputs": [],
      "name": "LogCage",
      "type": "event"
    },
    {
      "anonymous": false,
      "inputs": [],
      "name": "LogUncage",
      "type": "event"
    },
    {
      "anonymous": false,
      "inputs": [
        {
          "indexed": false,
          "internalType": "address",
          "name": "account",
          "type": "address"
        }
      ],
      "name": "Paused",
      "type": "event"
    },
    {
      "anonymous": false,
      "inputs": [
        {
          "indexed": false,
          "internalType": "address",
          "name": "account",
          "type": "address"
        }
      ],
      "name": "Unpaused",
      "type": "event"
    },
    {
      "inputs": [],
      "name": "bookKeeper",
      "outputs": [
        {
          "internalType": "contract IBookKeeper",
          "name": "",
          "type": "address"
        }
      ],
      "stateMutability": "view",
      "type": "function"
    },
    {
      "inputs": [],
      "name": "cage",
      "outputs": [],
      "stateMutability": "nonpayable",
      "type": "function"
    },
    {
      "inputs": [
        {
          "internalType": "address",
          "name": "usr",
          "type": "address"
        },
        {
          "internalType": "uint256",
          "name": "wad",
          "type": "uint256"
        },
        {
          "internalType": "bytes",
          "name": "",
          "type": "bytes"
        }
      ],
      "name": "deposit",
      "outputs": [],
      "stateMutability": "payable",
      "type": "function"
    },
    {
      "inputs": [
        {
          "internalType": "address",
          "name": "_bookKeeper",
          "type": "address"
        },
        {
          "internalType": "address",
          "name": "_stablecoin",
          "type": "address"
        }
      ],
      "name": "initialize",
      "outputs": [],
      "stateMutability": "nonpayable",
      "type": "function"
    },
    {
      "inputs": [],
      "name": "live",
      "outputs": [
        {
          "internalType": "uint256",
          "name": "",
          "type": "uint256"
        }
      ],
      "stateMutability": "view",
      "type": "function"
    },
    {
      "inputs": [],
      "name": "pause",
      "outputs": [],
      "stateMutability": "nonpayable",
      "type": "function"
    },
    {
      "inputs": [],
      "name": "paused",
      "outputs": [
        {
          "internalType": "bool",
          "name": "",
          "type": "bool"
        }
      ],
      "stateMutability": "view",
      "type": "function"
    },
    {
      "inputs": [],
      "name": "stablecoin",
      "outputs": [
        {
          "internalType": "contract IStablecoin",
          "name": "",
          "type": "address"
        }
      ],
      "stateMutability": "view",
      "type": "function"
    },
    {
      "inputs": [],
      "name": "uncage",
      "outputs": [],
      "stateMutability": "nonpayable",
      "type": "function"
    },
    {
      "inputs": [],
      "name": "unpause",
      "outputs": [],
      "stateMutability": "nonpayable",
      "type": "function"
    },
    {
      "inputs": [
        {
          "internalType": "address",
          "name": "usr",
          "type": "address"
        },
        {
          "internalType": "uint256",
          "name": "wad",
          "type": "uint256"
        },
        {
          "internalType": "bytes",
          "name": "",
          "type": "bytes"
        }
      ],
      "name": "withdraw",
      "outputs": [],
      "stateMutability": "nonpayable",
      "type": "function"
    }
  ],
  "bytecode": "0x608060405234801561001057600080fd5b50612002806100206000396000f3fe6080604052600436106100bc5760003560e01c80636924500911610074578063d63b23b21161004e578063d63b23b2146102cb578063e3b3932a146102e0578063e9cbd8221461031e576100bc565b8063692450091461027a5780638456cb591461028f578063957aa58c146102a4576100bc565b8063485cc955116100a5578063485cc9551461017757806349bdc2b8146101bf5780635c975abb14610251576100bc565b806331f09265146100c15780633f4ba83a14610162575b600080fd5b3480156100cd57600080fd5b50610160600480360360608110156100e457600080fd5b73ffffffffffffffffffffffffffffffffffffffff8235169160208101359181019060608101604082013564010000000081111561012157600080fd5b82018360208201111561013357600080fd5b8035906020019184600183028401116401000000008311171561015557600080fd5b509092509050610333565b005b34801561016e57600080fd5b506101606105eb565b34801561018357600080fd5b506101606004803603604081101561019a57600080fd5b5073ffffffffffffffffffffffffffffffffffffffff81358116916020013516610939565b610160600480360360608110156101d557600080fd5b73ffffffffffffffffffffffffffffffffffffffff8235169160208101359181019060608101604082013564010000000081111561021257600080fd5b82018360208201111561022457600080fd5b8035906020019184600183028401116401000000008311171561024657600080fd5b509092509050610ab9565b34801561025d57600080fd5b50610266610cdb565b604080519115158252519081900360200190f35b34801561028657600080fd5b50610160610ce4565b34801561029b57600080fd5b506101606110c9565b3480156102b057600080fd5b506102b9611414565b60408051918252519081900360200190f35b3480156102d757600080fd5b5061016061141a565b3480156102ec57600080fd5b506102f56117fd565b6040805173ffffffffffffffffffffffffffffffffffffffff9092168252519081900360200190f35b34801561032a57600080fd5b506102f5611819565b600260655414156103a557604080517f08c379a000000000000000000000000000000000000000000000000000000000815260206004820152601f60248201527f5265656e7472616e637947756172643a207265656e7472616e742063616c6c00604482015290519081900360640190fd5b60026065556103b2610cdb565b1561041e57604080517f08c379a000000000000000000000000000000000000000000000000000000000815260206004820152601060248201527f5061757361626c653a2070617573656400000000000000000000000000000000604482015290519081900360640190fd5b60995460011461048f57604080517f08c379a000000000000000000000000000000000000000000000000000000000815260206004820152601a60248201527f537461626c65636f696e416461707465722f6e6f742d6c697665000000000000604482015290519081900360640190fd5b60975473ffffffffffffffffffffffffffffffffffffffff16638c15785433306104c56b033b2e3c9fd0803ce800000088611835565b6040518463ffffffff1660e01b8152600401808473ffffffffffffffffffffffffffffffffffffffff1681526020018373ffffffffffffffffffffffffffffffffffffffff1681526020018281526020019350505050600060405180830381600087803b15801561053557600080fd5b505af1158015610549573d6000803e3d6000fd5b5050609854604080517f40c10f1900000000000000000000000000000000000000000000000000000000815273ffffffffffffffffffffffffffffffffffffffff89811660048301526024820189905291519190921693506340c10f199250604480830192600092919082900301818387803b1580156105c857600080fd5b505af11580156105dc573d6000803e3d6000fd5b50506001606555505050505050565b609754604080517fc8cc243f000000000000000000000000000000000000000000000000000000008152905160009273ffffffffffffffffffffffffffffffffffffffff169163c8cc243f916004808301926020929190829003018186803b15801561065657600080fd5b505afa15801561066a573d6000803e3d6000fd5b505050506040513d602081101561068057600080fd5b5051604080517fe58378bb000000000000000000000000000000000000000000000000000000008152905191925073ffffffffffffffffffffffffffffffffffffffff8316916391d1485491839163e58378bb91600480820192602092909190829003018186803b1580156106f457600080fd5b505afa158015610708573d6000803e3d6000fd5b505050506040513d602081101561071e57600080fd5b5051604080517fffffffff0000000000000000000000000000000000000000000000000000000060e085901b1681526004810192909252336024830152516044808301926020929190829003018186803b15801561077b57600080fd5b505afa15801561078f573d6000803e3d6000fd5b505050506040513d60208110156107a557600080fd5b5051806108c357508073ffffffffffffffffffffffffffffffffffffffff166391d148548273ffffffffffffffffffffffffffffffffffffffff1663b536818a6040518163ffffffff1660e01b815260040160206040518083038186803b15801561080f57600080fd5b505afa158015610823573d6000803e3d6000fd5b505050506040513d602081101561083957600080fd5b5051604080517fffffffff0000000000000000000000000000000000000000000000000000000060e085901b1681526004810192909252336024830152516044808301926020929190829003018186803b15801561089657600080fd5b505afa1580156108aa573d6000803e3d6000fd5b505050506040513d60208110156108c057600080fd5b50515b61092e57604080517f08c379a000000000000000000000000000000000000000000000000000000000815260206004820152601760248201527f21286f776e6572526f6c65206f7220676f76526f6c6529000000000000000000604482015290519081900360640190fd5b61093661185f565b50565b600054610100900460ff1680610952575061095261194d565b80610960575060005460ff16155b6109b5576040517f08c379a000000000000000000000000000000000000000000000000000000000815260040180806020018281038252602e815260200180611f9f602e913960400191505060405180910390fd5b600054610100900460ff16158015610a1b57600080547fffffffffffffffffffffffffffffffffffffffffffffffffffffffffffffff007fffffffffffffffffffffffffffffffffffffffffffffffffffffffffffff00ff909116610100171660011790555b610a2361195e565b610a2b611a81565b60016099556097805473ffffffffffffffffffffffffffffffffffffffff8086167fffffffffffffffffffffffff00000000000000000000000000000000000000009283161790925560988054928516929091169190911790558015610ab457600080547fffffffffffffffffffffffffffffffffffffffffffffffffffffffffffff00ff1690555b505050565b60026065541415610b2b57604080517f08c379a000000000000000000000000000000000000000000000000000000000815260206004820152601f60248201527f5265656e7472616e637947756172643a207265656e7472616e742063616c6c00604482015290519081900360640190fd5b6002606555610b38610cdb565b15610ba457604080517f08c379a000000000000000000000000000000000000000000000000000000000815260206004820152601060248201527f5061757361626c653a2070617573656400000000000000000000000000000000604482015290519081900360640190fd5b60975473ffffffffffffffffffffffffffffffffffffffff16638c1578543086610bda6b033b2e3c9fd0803ce800000088611835565b6040518463ffffffff1660e01b8152600401808473ffffffffffffffffffffffffffffffffffffffff1681526020018373ffffffffffffffffffffffffffffffffffffffff1681526020018281526020019350505050600060405180830381600087803b158015610c4a57600080fd5b505af1158015610c5e573d6000803e3d6000fd5b5050609854604080517f9dc29fac00000000000000000000000000000000000000000000000000000000815233600482015260248101889052905173ffffffffffffffffffffffffffffffffffffffff9092169350639dc29fac925060448082019260009290919082900301818387803b1580156105c857600080fd5b60335460ff1690565b609754604080517fc8cc243f000000000000000000000000000000000000000000000000000000008152905160009273ffffffffffffffffffffffffffffffffffffffff169163c8cc243f916004808301926020929190829003018186803b158015610d4f57600080fd5b505afa158015610d63573d6000803e3d6000fd5b505050506040513d6020811015610d7957600080fd5b5051604080517fe58378bb000000000000000000000000000000000000000000000000000000008152905191925073ffffffffffffffffffffffffffffffffffffffff8316916391d1485491839163e58378bb91600480820192602092909190829003018186803b158015610ded57600080fd5b505afa158015610e01573d6000803e3d6000fd5b505050506040513d6020811015610e1757600080fd5b5051604080517fffffffff0000000000000000000000000000000000000000000000000000000060e085901b1681526004810192909252336024830152516044808301926020929190829003018186803b158015610e7457600080fd5b505afa158015610e88573d6000803e3d6000fd5b505050506040513d6020811015610e9e57600080fd5b505180610fbc57508073ffffffffffffffffffffffffffffffffffffffff166391d148548273ffffffffffffffffffffffffffffffffffffffff1663d7a47a696040518163ffffffff1660e01b815260040160206040518083038186803b158015610f0857600080fd5b505afa158015610f1c573d6000803e3d6000fd5b505050506040513d6020811015610f3257600080fd5b5051604080517fffffffff0000000000000000000000000000000000000000000000000000000060e085901b1681526004810192909252336024830152516044808301926020929190829003018186803b158015610f8f57600080fd5b505afa158015610fa3573d6000803e3d6000fd5b505050506040513d6020811015610fb957600080fd5b50515b61102757604080517f08c379a000000000000000000000000000000000000000000000000000000000815260206004820152601f60248201527f21286f776e6572526f6c65206f722073686f7753746f70706572526f6c652900604482015290519081900360640190fd5b60995460011461109857604080517f08c379a000000000000000000000000000000000000000000000000000000000815260206004820152601a60248201527f537461626c65636f696e416461707465722f6e6f742d6c697665000000000000604482015290519081900360640190fd5b600060998190556040517fbf689b4aae670d200b1d2b971ace2e0c3bef88a9c5e93f36705c7b86eab630b99190a150565b609754604080517fc8cc243f000000000000000000000000000000000000000000000000000000008152905160009273ffffffffffffffffffffffffffffffffffffffff169163c8cc243f916004808301926020929190829003018186803b15801561113457600080fd5b505afa158015611148573d6000803e3d6000fd5b505050506040513d602081101561115e57600080fd5b5051604080517fe58378bb000000000000000000000000000000000000000000000000000000008152905191925073ffffffffffffffffffffffffffffffffffffffff8316916391d1485491839163e58378bb91600480820192602092909190829003018186803b1580156111d257600080fd5b505afa1580156111e6573d6000803e3d6000fd5b505050506040513d60208110156111fc57600080fd5b5051604080517fffffffff0000000000000000000000000000000000000000000000000000000060e085901b1681526004810192909252336024830152516044808301926020929190829003018186803b15801561125957600080fd5b505afa15801561126d573d6000803e3d6000fd5b505050506040513d602081101561128357600080fd5b5051806113a157508073ffffffffffffffffffffffffffffffffffffffff166391d148548273ffffffffffffffffffffffffffffffffffffffff1663b536818a6040518163ffffffff1660e01b815260040160206040518083038186803b1580156112ed57600080fd5b505afa158015611301573d6000803e3d6000fd5b505050506040513d602081101561131757600080fd5b5051604080517fffffffff0000000000000000000000000000000000000000000000000000000060e085901b1681526004810192909252336024830152516044808301926020929190829003018186803b15801561137457600080fd5b505afa158015611388573d6000803e3d6000fd5b505050506040513d602081101561139e57600080fd5b50515b61140c57604080517f08c379a000000000000000000000000000000000000000000000000000000000815260206004820152601760248201527f21286f776e6572526f6c65206f7220676f76526f6c6529000000000000000000604482015290519081900360640190fd5b610936611b6b565b60995481565b609754604080517fc8cc243f000000000000000000000000000000000000000000000000000000008152905160009273ffffffffffffffffffffffffffffffffffffffff169163c8cc243f916004808301926020929190829003018186803b15801561148557600080fd5b505afa158015611499573d6000803e3d6000fd5b505050506040513d60208110156114af57600080fd5b5051604080517fe58378bb000000000000000000000000000000000000000000000000000000008152905191925073ffffffffffffffffffffffffffffffffffffffff8316916391d1485491839163e58378bb91600480820192602092909190829003018186803b15801561152357600080fd5b505afa158015611537573d6000803e3d6000fd5b505050506040513d602081101561154d57600080fd5b5051604080517fffffffff0000000000000000000000000000000000000000000000000000000060e085901b1681526004810192909252336024830152516044808301926020929190829003018186803b1580156115aa57600080fd5b505afa1580156115be573d6000803e3d6000fd5b505050506040513d60208110156115d457600080fd5b5051806116f257508073ffffffffffffffffffffffffffffffffffffffff166391d148548273ffffffffffffffffffffffffffffffffffffffff1663d7a47a696040518163ffffffff1660e01b815260040160206040518083038186803b15801561163e57600080fd5b505afa158015611652573d6000803e3d6000fd5b505050506040513d602081101561166857600080fd5b5051604080517fffffffff0000000000000000000000000000000000000000000000000000000060e085901b1681526004810192909252336024830152516044808301926020929190829003018186803b1580156116c557600080fd5b505afa1580156116d9573d6000803e3d6000fd5b505050506040513d60208110156116ef57600080fd5b50515b61175d57604080517f08c379a000000000000000000000000000000000000000000000000000000000815260206004820152601f60248201527f21286f776e6572526f6c65206f722073686f7753746f70706572526f6c652900604482015290519081900360640190fd5b609954156117cc57604080517f08c379a000000000000000000000000000000000000000000000000000000000815260206004820152601b60248201527f537461626c65636f696e416461707465722f6e6f742d63616765640000000000604482015290519081900360640190fd5b60016099556040517f1868a6ced217213f36be87ba9aee25cde5381b42e85c8f88e73b18772c0bd07390600090a150565b60975473ffffffffffffffffffffffffffffffffffffffff1681565b60985473ffffffffffffffffffffffffffffffffffffffff1681565b60008115806118505750508082028282828161184d57fe5b04145b61185957600080fd5b92915050565b611867610cdb565b6118d257604080517f08c379a000000000000000000000000000000000000000000000000000000000815260206004820152601460248201527f5061757361626c653a206e6f7420706175736564000000000000000000000000604482015290519081900360640190fd5b603380547fffffffffffffffffffffffffffffffffffffffffffffffffffffffffffffff001690557f5db9ee0a495bf2e6ff9c91a7834c1ba4fdd244a5e8aa4e537bd38aeae4b073aa611923611c2f565b6040805173ffffffffffffffffffffffffffffffffffffffff9092168252519081900360200190a1565b600061195830611c33565b15905090565b600054610100900460ff1680611977575061197761194d565b80611985575060005460ff16155b6119da576040517f08c379a000000000000000000000000000000000000000000000000000000000815260040180806020018281038252602e815260200180611f9f602e913960400191505060405180910390fd5b600054610100900460ff16158015611a4057600080547fffffffffffffffffffffffffffffffffffffffffffffffffffffffffffffff007fffffffffffffffffffffffffffffffffffffffffffffffffffffffffffff00ff909116610100171660011790555b611a48611c39565b611a50611d4b565b801561093657600080547fffffffffffffffffffffffffffffffffffffffffffffffffffffffffffff00ff16905550565b600054610100900460ff1680611a9a5750611a9a61194d565b80611aa8575060005460ff16155b611afd576040517f08c379a000000000000000000000000000000000000000000000000000000000815260040180806020018281038252602e815260200180611f9f602e913960400191505060405180910390fd5b600054610100900460ff16158015611b6357600080547fffffffffffffffffffffffffffffffffffffffffffffffffffffffffffffff007fffffffffffffffffffffffffffffffffffffffffffffffffffffffffffff00ff909116610100171660011790555b611a50611e86565b611b73610cdb565b15611bdf57604080517f08c379a000000000000000000000000000000000000000000000000000000000815260206004820152601060248201527f5061757361626c653a2070617573656400000000000000000000000000000000604482015290519081900360640190fd5b603380547fffffffffffffffffffffffffffffffffffffffffffffffffffffffffffffff001660011790557f62e78cea01bee320cd4e420270b5ea74000d11b0c9f74754ebdbfc544b05a2586119235b3390565b3b151590565b600054610100900460ff1680611c525750611c5261194d565b80611c60575060005460ff16155b611cb5576040517f08c379a000000000000000000000000000000000000000000000000000000000815260040180806020018281038252602e815260200180611f9f602e913960400191505060405180910390fd5b600054610100900460ff16158015611a5057600080547fffffffffffffffffffffffffffffffffffffffffffffffffffffffffffffff007fffffffffffffffffffffffffffffffffffffffffffffffffffffffffffff00ff90911661010017166001179055801561093657600080547fffffffffffffffffffffffffffffffffffffffffffffffffffffffffffff00ff16905550565b600054610100900460ff1680611d645750611d6461194d565b80611d72575060005460ff16155b611dc7576040517f08c379a000000000000000000000000000000000000000000000000000000000815260040180806020018281038252602e815260200180611f9f602e913960400191505060405180910390fd5b600054610100900460ff16158015611e2d57600080547fffffffffffffffffffffffffffffffffffffffffffffffffffffffffffffff007fffffffffffffffffffffffffffffffffffffffffffffffffffffffffffff00ff909116610100171660011790555b603380547fffffffffffffffffffffffffffffffffffffffffffffffffffffffffffffff00169055801561093657600080547fffffffffffffffffffffffffffffffffffffffffffffffffffffffffffff00ff16905550565b600054610100900460ff1680611e9f5750611e9f61194d565b80611ead575060005460ff16155b611f02576040517f08c379a000000000000000000000000000000000000000000000000000000000815260040180806020018281038252602e815260200180611f9f602e913960400191505060405180910390fd5b600054610100900460ff16158015611f6857600080547fffffffffffffffffffffffffffffffffffffffffffffffffffffffffffffff007fffffffffffffffffffffffffffffffffffffffffffffffffffffffffffff00ff909116610100171660011790555b6001606555801561093657600080547fffffffffffffffffffffffffffffffffffffffffffffffffffffffffffff00ff1690555056fe496e697469616c697a61626c653a20636f6e747261637420697320616c726561647920696e697469616c697a6564a264697066735822122032491a82c77cad8735815b3c0abb954bbc7fb34cbf2906e164caa71930ae418e64736f6c634300060c0033",
  "linkReferences": {},
  "deployedLinkReferences": {}
}