{
  "_format": "hh-sol-artifact-1",
  "contractName": "RewardControl",
  "sourceName": "contracts/vaults/RewardControl.sol",
  "abi": [
    {
      "inputs": [
        {
          "internalType": "address",
          "name": "tauVault_",
          "type": "address"
        }
      ],
      "stateMutability": "nonpayable",
      "type": "constructor"
    },
    {
      "anonymous": false,
      "inputs": [
        {
          "indexed": true,
          "internalType": "address",
          "name": "market",
          "type": "address"
        },
        {
          "indexed": true,
          "internalType": "address",
          "name": "borrower",
          "type": "address"
        },
        {
          "indexed": false,
          "internalType": "uint256",
          "name": "borrowerDelta",
          "type": "uint256"
        },
        {
          "indexed": false,
          "internalType": "uint256",
          "name": "borrowerAccrued",
          "type": "uint256"
        },
        {
          "indexed": false,
          "internalType": "uint256",
          "name": "borrowIndexMantissa",
          "type": "uint256"
        }
      ],
      "name": "DistributedBorrower",
      "type": "event"
    },
    {
      "anonymous": false,
      "inputs": [
        {
          "indexed": true,
          "internalType": "address",
          "name": "market",
          "type": "address"
        },
        {
          "indexed": true,
          "internalType": "address",
          "name": "supplier",
          "type": "address"
        },
        {
          "indexed": false,
          "internalType": "uint256",
          "name": "supplierDelta",
          "type": "uint256"
        },
        {
          "indexed": false,
          "internalType": "uint256",
          "name": "supplierAccrued",
          "type": "uint256"
        },
        {
          "indexed": false,
          "internalType": "uint256",
          "name": "supplyIndexMantissa",
          "type": "uint256"
        }
      ],
      "name": "DistributedSupplier",
      "type": "event"
    },
    {
      "anonymous": false,
      "inputs": [
        {
          "indexed": true,
          "internalType": "address",
          "name": "market",
          "type": "address"
        },
        {
          "indexed": false,
          "internalType": "uint256",
          "name": "numberOfMarkets",
          "type": "uint256"
        }
      ],
      "name": "MarketAdded",
      "type": "event"
    },
    {
      "anonymous": false,
      "inputs": [
        {
          "indexed": true,
          "internalType": "address",
          "name": "market",
          "type": "address"
        },
        {
          "indexed": false,
          "internalType": "uint256",
          "name": "numberOfMarkets",
          "type": "uint256"
        }
      ],
      "name": "MarketRemoved",
      "type": "event"
    },
    {
      "anonymous": false,
      "inputs": [
        {
          "indexed": true,
          "internalType": "address",
          "name": "owner",
          "type": "address"
        },
        {
          "indexed": true,
          "internalType": "address",
          "name": "newOwner",
          "type": "address"
        }
      ],
      "name": "OwnerUpdated",
      "type": "event"
    },
    {
      "anonymous": false,
      "inputs": [
        {
          "indexed": true,
          "internalType": "address",
          "name": "market",
          "type": "address"
        },
        {
          "indexed": false,
          "internalType": "uint256",
          "name": "newSpeed",
          "type": "uint256"
        }
      ],
      "name": "SpeedUpdated",
      "type": "event"
    },
    {
      "anonymous": false,
      "inputs": [
        {
          "indexed": true,
          "internalType": "address",
          "name": "participant",
          "type": "address"
        },
        {
          "indexed": false,
          "internalType": "uint256",
          "name": "participantAccrued",
          "type": "uint256"
        },
        {
          "indexed": false,
          "internalType": "address",
          "name": "market",
          "type": "address"
        }
      ],
      "name": "Transferred",
      "type": "event"
    },
    {
      "inputs": [],
      "name": "MAXIMUM_NUMBER_OF_MARKETS",
      "outputs": [
        {
          "internalType": "uint8",
          "name": "",
          "type": "uint8"
        }
      ],
      "stateMutability": "view",
      "type": "function"
    },
    {
      "inputs": [
        {
          "internalType": "address",
          "name": "market",
          "type": "address"
        },
        {
          "internalType": "address",
          "name": "ibToken",
          "type": "address"
        }
      ],
      "name": "addMarket",
      "outputs": [],
      "stateMutability": "nonpayable",
      "type": "function"
    },
    {
      "inputs": [
        {
          "internalType": "address",
          "name": "holder",
          "type": "address"
        }
      ],
      "name": "claim",
      "outputs": [],
      "stateMutability": "nonpayable",
      "type": "function"
    },
    {
      "inputs": [
        {
          "internalType": "address",
          "name": "holder",
          "type": "address"
        },
        {
          "internalType": "address",
          "name": "market",
          "type": "address"
        },
        {
          "internalType": "address",
          "name": "ibToken",
          "type": "address"
        }
      ],
      "name": "claim",
      "outputs": [],
      "stateMutability": "nonpayable",
      "type": "function"
    },
    {
      "inputs": [],
      "name": "deltaOpen",
      "outputs": [
        {
          "internalType": "contract GammaVault",
          "name": "",
          "type": "address"
        }
      ],
      "stateMutability": "view",
      "type": "function"
    },
    {
      "inputs": [
        {
          "internalType": "address",
          "name": "market",
          "type": "address"
        },
        {
          "internalType": "address",
          "name": "borrower",
          "type": "address"
        }
      ],
      "name": "distributeBorrower",
      "outputs": [],
      "stateMutability": "nonpayable",
      "type": "function"
    },
    {
      "inputs": [
        {
          "internalType": "address",
          "name": "market",
          "type": "address"
        },
        {
          "internalType": "address",
          "name": "supplier",
          "type": "address"
        }
      ],
      "name": "distributeSupplier",
      "outputs": [],
      "stateMutability": "nonpayable",
      "type": "function"
    },
    {
      "inputs": [
        {
          "internalType": "address",
          "name": "market",
          "type": "address"
        },
        {
          "internalType": "address",
          "name": "borrower",
          "type": "address"
        }
      ],
      "name": "getBorrowBalanceWithInterest",
      "outputs": [
        {
          "internalType": "uint256",
          "name": "",
          "type": "uint256"
        }
      ],
      "stateMutability": "view",
      "type": "function"
    },
    {
      "inputs": [
        {
          "internalType": "address",
          "name": "participant",
          "type": "address"
        }
      ],
      "name": "getIbAccrued",
      "outputs": [
        {
          "internalType": "uint256",
          "name": "",
          "type": "uint256"
        }
      ],
      "stateMutability": "view",
      "type": "function"
    },
    {
      "inputs": [
        {
          "internalType": "address",
          "name": "user",
          "type": "address"
        }
      ],
      "name": "getIbRewards",
      "outputs": [
        {
          "internalType": "uint256",
          "name": "",
          "type": "uint256"
        }
      ],
      "stateMutability": "view",
      "type": "function"
    },
    {
      "inputs": [
        {
          "internalType": "address",
          "name": "market",
          "type": "address"
        }
      ],
      "name": "getMarketStats",
      "outputs": [
        {
          "internalType": "bool",
          "name": "isSupported",
          "type": "bool"
        },
        {
          "internalType": "uint256",
          "name": "blockNumber",
          "type": "uint256"
        },
        {
          "internalType": "address",
          "name": "interestRateModel",
          "type": "address"
        },
        {
          "internalType": "uint256",
          "name": "totalSupply",
          "type": "uint256"
        },
        {
          "internalType": "uint256",
          "name": "supplyRateMantissa",
          "type": "uint256"
        },
        {
          "internalType": "uint256",
          "name": "supplyIndex",
          "type": "uint256"
        },
        {
          "internalType": "uint256",
          "name": "totalBorrows",
          "type": "uint256"
        },
        {
          "internalType": "uint256",
          "name": "borrowRateMantissa",
          "type": "uint256"
        },
        {
          "internalType": "uint256",
          "name": "borrowIndex",
          "type": "uint256"
        },
        {
          "internalType": "address",
          "name": "ibToken",
          "type": "address"
        }
      ],
      "stateMutability": "view",
      "type": "function"
    },
    {
      "inputs": [
        {
          "internalType": "address",
          "name": "market",
          "type": "address"
        }
      ],
      "name": "getMarketTotalBorrows",
      "outputs": [
        {
          "internalType": "uint256",
          "name": "",
          "type": "uint256"
        }
      ],
      "stateMutability": "view",
      "type": "function"
    },
    {
      "inputs": [
        {
          "internalType": "address",
          "name": "market",
          "type": "address"
        }
      ],
      "name": "getMarketTotalSupply",
      "outputs": [
        {
          "internalType": "uint256",
          "name": "",
          "type": "uint256"
        }
      ],
      "stateMutability": "view",
      "type": "function"
    },
    {
      "inputs": [
        {
          "internalType": "address",
          "name": "market",
          "type": "address"
        },
        {
          "internalType": "address",
          "name": "supplier",
          "type": "address"
        }
      ],
      "name": "getSupplyBalanceWithInterest",
      "outputs": [
        {
          "internalType": "uint256",
          "name": "",
          "type": "uint256"
        }
      ],
      "stateMutability": "view",
      "type": "function"
    },
    {
      "inputs": [],
      "name": "initializationDone",
      "outputs": [
        {
          "internalType": "bool",
          "name": "",
          "type": "bool"
        }
      ],
      "stateMutability": "view",
      "type": "function"
    },
    {
      "inputs": [],
      "name": "owner",
      "outputs": [
        {
          "internalType": "address",
          "name": "",
          "type": "address"
        }
      ],
      "stateMutability": "view",
      "type": "function"
    },
    {
      "inputs": [
        {
          "internalType": "address",
          "name": "market",
          "type": "address"
        },
        {
          "internalType": "address",
          "name": "borrower",
          "type": "address"
        }
      ],
      "name": "refreshBorrowIndex",
      "outputs": [],
      "stateMutability": "nonpayable",
      "type": "function"
    },
    {
      "inputs": [],
      "name": "refreshSpeeds",
      "outputs": [],
      "stateMutability": "nonpayable",
      "type": "function"
    },
    {
      "inputs": [
        {
          "internalType": "address",
          "name": "market",
          "type": "address"
        },
        {
          "internalType": "address",
          "name": "supplier",
          "type": "address"
        }
      ],
      "name": "refreshSupplyIndex",
      "outputs": [],
      "stateMutability": "nonpayable",
      "type": "function"
    },
    {
      "inputs": [
        {
          "internalType": "uint256",
          "name": "id",
          "type": "uint256"
        }
      ],
      "name": "removeMarket",
      "outputs": [],
      "stateMutability": "nonpayable",
      "type": "function"
    },
    {
      "inputs": [
        {
          "internalType": "address",
          "name": "tauVault_",
          "type": "address"
        }
      ],
      "name": "setGammaVault",
      "outputs": [],
      "stateMutability": "nonpayable",
      "type": "function"
    },
    {
      "inputs": [
        {
          "internalType": "uint256",
          "name": "_ibRate",
          "type": "uint256"
        }
      ],
      "name": "setIbRate",
      "outputs": [],
      "stateMutability": "nonpayable",
      "type": "function"
    },
    {
      "inputs": [
        {
          "internalType": "address",
          "name": "newOwner_",
          "type": "address"
        }
      ],
      "name": "transferOwnership",
      "outputs": [],
      "stateMutability": "nonpayable",
      "type": "function"
    },
    {
      "inputs": [
        {
          "internalType": "address",
          "name": "market",
          "type": "address"
        }
      ],
      "name": "updateBorrowIndex",
      "outputs": [],
      "stateMutability": "nonpayable",
      "type": "function"
    },
    {
      "inputs": [
        {
          "internalType": "address",
          "name": "market",
          "type": "address"
        }
      ],
      "name": "updateSupplyIndex",
      "outputs": [],
      "stateMutability": "nonpayable",
      "type": "function"
    }
  ],
  "bytecode": "0x60806040523480156200001157600080fd5b5060405162003612380380620036128339810160408190526200003491620001eb565b6001600160a01b038116620000905760405162461bcd60e51b815260206004820152601560248201527f496e707574732063616e6e6f742062652030783030000000000000000000000060448201526064015b60405180910390fd5b600a8054610100600160a81b0319163361010002179055620000b281620000df565b620000c567333651b00e394b7062000199565b50600b805460ff60a01b1916600160a41b1790556200021d565b600a5461010090046001600160a01b031633146200012c5760405162461bcd60e51b81526020600482015260096024820152683737b716b7bbb732b960b91b604482015260640162000087565b6001600160a01b038116620001775760405162461bcd60e51b815260206004820152601060248201526f4164647265737320697320656d70747960801b604482015260640162000087565b600b80546001600160a01b0319166001600160a01b0392909216919091179055565b600a5461010090046001600160a01b03163314620001e65760405162461bcd60e51b81526020600482015260096024820152683737b716b7bbb732b960b91b604482015260640162000087565b600355565b600060208284031215620001fe57600080fd5b81516001600160a01b03811681146200021657600080fd5b9392505050565b6133e5806200022d6000396000f3fe608060405234801561001057600080fd5b50600436106101a35760003560e01c806386036b04116100ee578063c47d603611610097578063de1f443011610071578063de1f44301461043f578063f2fde38b14610452578063f58a589b14610465578063fe6553821461046d57600080fd5b8063c47d6036146103e2578063cbb40ff7146103f5578063db77fb8a1461042c57600080fd5b8063a98cabcf116100c8578063a98cabcf14610341578063aedc465314610354578063bf55c14f146103cf57600080fd5b806386036b04146102c45780638da5cb5b1461030957806392f772fe1461032e57600080fd5b806324733221116101505780633f22ddea1161012a5780633f22ddea1461028b5780635e1c75e11461029e578063677a6459146102b157600080fd5b80632473322114610252578063343caa1d146102655780633de6d5041461027857600080fd5b8063109242cd11610181578063109242cd146101f65780631e83409a146102095780631eadfc0f1461021c57600080fd5b8063054660e6146101a85780630dd8fe6c146101bd5780630ecfd9f4146101e3575b600080fd5b6101bb6101b6366004612fea565b61048a565b005b6101d06101cb366004613025565b610895565b6040519081526020015b60405180910390f35b6101bb6101f1366004613025565b610949565b6101d061020436600461305e565b610999565b6101bb61021736600461305e565b610a1e565b6101d061022a36600461305e565b73ffffffffffffffffffffffffffffffffffffffff1660009081526009602052604090205490565b6101d061026036600461305e565b610af7565b6101d0610273366004613025565b610b14565b6101bb610286366004613025565b610b75565b6101bb610299366004613025565b610bbd565b6101bb6102ac36600461307b565b610d23565b6101bb6102bf36600461305e565b610e8b565b600b546102e49073ffffffffffffffffffffffffffffffffffffffff1681565b60405173ffffffffffffffffffffffffffffffffffffffff90911681526020016101da565b600a546102e490610100900473ffffffffffffffffffffffffffffffffffffffff1681565b6101bb61033c366004612fea565b611163565b6101bb61034f36600461305e565b6111ee565b61036761036236600461305e565b611338565b604080519a15158b5260208b019990995273ffffffffffffffffffffffffffffffffffffffff978816988a01989098526060890195909552608088019390935260a087019190915260c086015260e085015261010084015216610120820152610140016101da565b6101d06103dd36600461305e565b611410565b6101bb6103f0366004613025565b61142d565b600b5461041a9074010000000000000000000000000000000000000000900460ff1681565b60405160ff90911681526020016101da565b6101bb61043a36600461305e565b611584565b6101bb61044d366004613025565b6117c3565b6101bb61046036600461305e565b611a1a565b6101bb611b9c565b600a5461047a9060ff1681565b60405190151581526020016101da565b600a54610100900473ffffffffffffffffffffffffffffffffffffffff163314610515576040517f08c379a000000000000000000000000000000000000000000000000000000000815260206004820152600960248201527f6e6f6e2d6f776e6572000000000000000000000000000000000000000000000060448201526064015b60405180910390fd5b60005481106105215750565b600060026000808481548110610539576105396130c6565b60009182526020808320919091015473ffffffffffffffffffffffffffffffffffffffff168352820192909252604001812080547fffffffffffffffffffffffffffffffffffffffffffffffffffffffffffffff00169215159290921790915580548190839081106105ad576105ad6130c6565b60009182526020909120015473ffffffffffffffffffffffffffffffffffffffff169050815b6000546105e290600190613124565b8110156107405760006105f682600161313b565b81548110610606576106066130c6565b6000918252602082200154815473ffffffffffffffffffffffffffffffffffffffff90911691908390811061063d5761063d6130c6565b600091825260209091200180547fffffffffffffffffffffffff00000000000000000000000000000000000000001673ffffffffffffffffffffffffffffffffffffffff929092169190911790556001610697828261313b565b815481106106a7576106a76130c6565b6000918252602090912001546001805473ffffffffffffffffffffffffffffffffffffffff90921691839081106106e0576106e06130c6565b600091825260209091200180547fffffffffffffffffffffffff00000000000000000000000000000000000000001673ffffffffffffffffffffffffffffffffffffffff929092169190911790558061073881613153565b9150506105d3565b5060008054806107525761075261318c565b60008281526020902081017fffffffffffffffffffffffffffffffffffffffffffffffffffffffffffffffff90810180547fffffffffffffffffffffffff000000000000000000000000000000000000000016905501905560018054806107bb576107bb61318c565b6000828152602080822083017fffffffffffffffffffffffffffffffffffffffffffffffffffffffffffffffff90810180547fffffffffffffffffffffffff000000000000000000000000000000000000000016905590920190925573ffffffffffffffffffffffffffffffffffffffff83168252600490526040812055610841611b9c565b60005460405190815273ffffffffffffffffffffffffffffffffffffffff8216907f7805013df1282b58294d30b6f540160c4402b4278d5bd973e7d5be85ad53eb84906020015b60405180910390a2505b50565b600b546040517f0dd8fe6c00000000000000000000000000000000000000000000000000000000815273ffffffffffffffffffffffffffffffffffffffff838116600483015284811660248301526000921690630dd8fe6c906044015b60206040518083038186803b15801561090a57600080fd5b505afa15801561091e573d6000803e3d6000fd5b505050506040513d601f19601f8201168201806040525081019061094291906131bb565b9392505050565b73ffffffffffffffffffffffffffffffffffffffff821660009081526002602052604090205460ff1661097a575050565b610982611b9c565b61098b82610e8b565b610995828261142d565b5050565b73ffffffffffffffffffffffffffffffffffffffff811660009081526009602052604081205481806109c9611ca8565b9150915060005b600054811015610a1457610a00846109fb6109ee85878b8788611eb9565b6109fb86888c8889612433565b6128c5565b935080610a0c81613153565b9150506109d0565b5091949350505050565b610892816000805480602002602001604051908101604052809291908181526020018280548015610a8557602002820191906000526020600020905b815473ffffffffffffffffffffffffffffffffffffffff168152600190910190602001808311610a5a575b50505050506001805480602002602001604051908101604052809291908181526020018280548015610aed57602002820191906000526020600020905b815473ffffffffffffffffffffffffffffffffffffffff168152600190910190602001808311610ac2575b5050505050612907565b600080610b0383611338565b50919b9a5050505050505050505050565b600b546040517f343caa1d00000000000000000000000000000000000000000000000000000000815273ffffffffffffffffffffffffffffffffffffffff83811660048301528481166024830152600092169063343caa1d906044016108f2565b73ffffffffffffffffffffffffffffffffffffffff821660009081526002602052604090205460ff16610ba6575050565b610bae611b9c565b610bb782611584565b61099582825b73ffffffffffffffffffffffffffffffffffffffff80831660008181526005602090815260408083208151808401835281547bffffffffffffffffffffffffffffffffffffffffffffffffffffffff1681528251808501845295855260078452828520968816808652878552928520805487528151939095529590925290915581519092919015610d1c576000610c548383612a54565b90506000610c628787610b14565b90506000610c708284612a89565b73ffffffffffffffffffffffffffffffffffffffff8816600090815260096020526040902054909150610ca390826128c5565b73ffffffffffffffffffffffffffffffffffffffff88811660008181526009602090815260409182902085905589518251878152918201959095529081019390935291908a16907fbb11114e8648f2577b09093c69e602a4981b8144c291c0d6f93354ba12404a22906060015b60405180910390a35050505b5050505050565b73ffffffffffffffffffffffffffffffffffffffff821660009081526002602052604090205460ff16610db2576040517f08c379a000000000000000000000000000000000000000000000000000000000815260206004820152601560248201527f4d61726b657420646f6573206e6f742065786973740000000000000000000000604482015260640161050c565b604080516001808252818301909252600091602080830190803683370190505090508281600081518110610de857610de86130c6565b73ffffffffffffffffffffffffffffffffffffffff92909216602092830291909101909101526040805160018082528183019092526000918160200160208202803683370190505090508281600081518110610e4657610e466130c6565b602002602001019073ffffffffffffffffffffffffffffffffffffffff16908173ffffffffffffffffffffffffffffffffffffffff1681525050610d1c858383612907565b73ffffffffffffffffffffffffffffffffffffffff811660009081526006602090815260408083206004909252822054815491929091439190610ef59083907c0100000000000000000000000000000000000000000000000000000000900463ffffffff16612ab3565b9050600081118015610f075750600083115b156110ca576000610f1786610af7565b90506000610f258386612af5565b90506000808311610f455760405180602001604052806000815250610f4f565b610f4f8284612b37565b604080516020810190915288547bffffffffffffffffffffffffffffffffffffffffffffffffffffffff168152909150600090610f8c9083612b73565b90506040518060400160405280610fdc83600001516040518060400160405280601a81526020017f6e657720696e6465782065786365656473203232342062697473000000000000815250612b9f565b7bffffffffffffffffffffffffffffffffffffffffffffffffffffffff16815260200161103e886040518060400160405280601c81526020017f626c6f636b206e756d6265722065786365656473203332206269747300000000815250612c01565b63ffffffff90811690915273ffffffffffffffffffffffffffffffffffffffff8b166000908152600660209081526040909120835193909101519091167c0100000000000000000000000000000000000000000000000000000000027bffffffffffffffffffffffffffffffffffffffffffffffffffffffff90921691909117905550610d1c92505050565b8015610d1c5761110f826040518060400160405280601c81526020017f626c6f636b206e756d6265722065786365656473203332206269747300000000815250612c01565b845463ffffffff919091167c0100000000000000000000000000000000000000000000000000000000027bffffffffffffffffffffffffffffffffffffffffffffffffffffffff9091161784555050505050565b600a54610100900473ffffffffffffffffffffffffffffffffffffffff1633146111e9576040517f08c379a000000000000000000000000000000000000000000000000000000000815260206004820152600960248201527f6e6f6e2d6f776e65720000000000000000000000000000000000000000000000604482015260640161050c565b600355565b600a54610100900473ffffffffffffffffffffffffffffffffffffffff163314611274576040517f08c379a000000000000000000000000000000000000000000000000000000000815260206004820152600960248201527f6e6f6e2d6f776e65720000000000000000000000000000000000000000000000604482015260640161050c565b73ffffffffffffffffffffffffffffffffffffffff81166112f1576040517f08c379a000000000000000000000000000000000000000000000000000000000815260206004820152601060248201527f4164647265737320697320656d70747900000000000000000000000000000000604482015260640161050c565b600b80547fffffffffffffffffffffffff00000000000000000000000000000000000000001673ffffffffffffffffffffffffffffffffffffffff92909216919091179055565b600b546040517f8e8f294b00000000000000000000000000000000000000000000000000000000815273ffffffffffffffffffffffffffffffffffffffff83811660048301526000928392839283928392839283928392839283921690638e8f294b906024016101406040518083038186803b1580156113b757600080fd5b505afa1580156113cb573d6000803e3d6000fd5b505050506040513d601f19601f820116820180604052508101906113ef9190613218565b99509950995099509950995099509950995099509193959799509193959799565b60008061141c83611338565b50949b9a5050505050505050505050565b73ffffffffffffffffffffffffffffffffffffffff80831660008181526006602090815260408083208151808401835281547bffffffffffffffffffffffffffffffffffffffffffffffffffffffff1681528251808501845295855260088452828520968816808652878552928520805487528151939095529590925290915581519092919015610d1c5760006114c48383612a54565b905060006114d28787610895565b905060006114e08284612a89565b73ffffffffffffffffffffffffffffffffffffffff881660009081526009602052604090205490915061151390826128c5565b73ffffffffffffffffffffffffffffffffffffffff88811660008181526009602090815260409182902085905589518251878152918201959095529081019390935291908a16907fa3ec6df93305e0a911fdd8661697ca068c4e87c54a69e8bcf39fb5c4c3cebd2690606001610d10565b73ffffffffffffffffffffffffffffffffffffffff8116600090815260056020908152604080832060049092528220548154919290914391906115ee9083907c0100000000000000000000000000000000000000000000000000000000900463ffffffff16612ab3565b90506000811180156116005750600083115b156110ca57600061161086611410565b9050600061161e8386612af5565b9050600080831161163e5760405180602001604052806000815250611648565b6116488284612b37565b604080516020810190915288547bffffffffffffffffffffffffffffffffffffffffffffffffffffffff1681529091506000906116859083612b73565b905060405180604001604052806116d583600001516040518060400160405280601a81526020017f6e657720696e6465782065786365656473203232342062697473000000000000815250612b9f565b7bffffffffffffffffffffffffffffffffffffffffffffffffffffffff168152602001611737886040518060400160405280601c81526020017f626c6f636b206e756d6265722065786365656473203332206269747300000000815250612c01565b63ffffffff90811690915273ffffffffffffffffffffffffffffffffffffffff8b166000908152600560209081526040909120835193909101519091167c0100000000000000000000000000000000000000000000000000000000027bffffffffffffffffffffffffffffffffffffffffffffffffffffffff90921691909117905550610d1c92505050565b73ffffffffffffffffffffffffffffffffffffffff821660009081526002602052604090205460ff1615611853576040517f08c379a000000000000000000000000000000000000000000000000000000000815260206004820152601560248201527f4d61726b657420616c7265616479206578697374730000000000000000000000604482015260640161050c565b600b546000547401000000000000000000000000000000000000000090910460ff1611611902576040517f08c379a000000000000000000000000000000000000000000000000000000000815260206004820152602b60248201527f457863656564696e6720746865206d6178206e756d626572206f66206d61726b60448201527f65747320616c6c6f776564000000000000000000000000000000000000000000606482015260840161050c565b73ffffffffffffffffffffffffffffffffffffffff80831660008181526002602052604080822080547fffffffffffffffffffffffffffffffffffffffffffffffffffffffffffffff00166001908117909155825480820184557f290decd9548b62a8d60345a988386fc84ba6bc95484008f6362f93160ef3e5630180547fffffffffffffffffffffffff00000000000000000000000000000000000000009081168617909155815480830183559184527fb10e2d527612073b26eecdfd717e6a320cf44b4afac2b0732d9fcbe2b7fa0cf69091018054958716959091169490941790935554915190917fa64754291535175942be6f35fba8deab36d97ea608b17d06cc5efb985e17215f9161088891815260200190565b600a54610100900473ffffffffffffffffffffffffffffffffffffffff163314611aa0576040517f08c379a000000000000000000000000000000000000000000000000000000000815260206004820152600960248201527f6e6f6e2d6f776e65720000000000000000000000000000000000000000000000604482015260640161050c565b600a5473ffffffffffffffffffffffffffffffffffffffff828116610100909204161415611b50576040517f08c379a000000000000000000000000000000000000000000000000000000000815260206004820152602260248201527f5472616e736665724f776e6572736869703a207468652073616d65206f776e6560448201527f722e000000000000000000000000000000000000000000000000000000000000606482015260840161050c565b600a805473ffffffffffffffffffffffffffffffffffffffff909216610100027fffffffffffffffffffffff0000000000000000000000000000000000000000ff909216919091179055565b6000806000611ba9611ca8565b90925090506000805b600054811015610d1c5760008181548110611bcf57611bcf6130c6565b600091825260209091200154835173ffffffffffffffffffffffffffffffffffffffff9091169550611c02576000611c30565b611c30600354611c2b868481518110611c1d57611c1d6130c6565b602002602001015186612c43565b612c7d565b73ffffffffffffffffffffffffffffffffffffffff86166000818152600460205260409081902083905551919350907f5d824a46561d65b72fd28a95019cca9830bf19ea00d6c605cce0c66586c57a7490611c8e9085815260200190565b60405180910390a280611ca081613153565b915050611bb2565b6060611cc06040518060200160405280600081525090565b604080516020810190915260008082528054611cdc90806128c5565b67ffffffffffffffff811115611cf457611cf46131d4565b604051908082528060200260200182016040528015611d3457816020015b604080516020810190915260008152815260200190600190039081611d125790505b50604080516020810190915260008082529192508190819060005b600054811015611eaa5760008181548110611d6c57611d6c6130c6565b60009182526020909120015473ffffffffffffffffffffffffffffffffffffffff169450611e44611d9c86611410565b600b546040517f5e9a523c00000000000000000000000000000000000000000000000000000000815273ffffffffffffffffffffffffffffffffffffffff898116600483015290911690635e9a523c9060240160206040518083038186803b158015611e0757600080fd5b505afa158015611e1b573d6000803e3d6000fd5b505050506040513d601f19601f82011682018060405250810190611e3f91906131bb565b612af5565b9350611e52611d9c86610af7565b92506040518060200160405280611e6986866128c5565b815250915081868281518110611e8157611e816130c6565b6020026020010181905250611e968783612b73565b965080611ea281613153565b915050611d4f565b50939794965093945050505050565b6000806000876000015111611ecf576000611ef8565b611ef8600354611c2b888781518110611eea57611eea6130c6565b60200260200101518a612c43565b9050600060056000808681548110611f1257611f126130c6565b600091825260208083209091015473ffffffffffffffffffffffffffffffffffffffff16835282810193909352604091820181208251808401909352547bffffffffffffffffffffffffffffffffffffffffffffffffffffffff8116835263ffffffff7c01000000000000000000000000000000000000000000000000000000009091041692820183905290925090611fac904390612ab3565b118015611fb95750600082115b1561215057600061208d604051806020016040528084600001517bffffffffffffffffffffffffffffffffffffffffffffffffffffffff1681525060006120336000898154811061200c5761200c6130c6565b60009182526020909120015473ffffffffffffffffffffffffffffffffffffffff16611410565b1161204d5760405180602001604052806000815250612b73565b61208861206d61206743876020015163ffffffff16612ab3565b87612af5565b61208360008a8154811061200c5761200c6130c6565b612b37565b612b73565b905060405180604001604052806120dd83600001516040518060400160405280601a81526020017f6e657720696e6465782065786365656473203232342062697473000000000000815250612b9f565b7bffffffffffffffffffffffffffffffffffffffffffffffffffffffff16815260200161213f436040518060400160405280601c81526020017f626c6f636b206e756d6265722065786365656473203332206269747300000000815250612c01565b63ffffffff168152509150506121b7565b600061216643836020015163ffffffff16612ab3565b11156121b7576121ab436040518060400160405280601c81526020017f626c6f636b206e756d6265722065786365656473203332206269747300000000815250612c01565b63ffffffff1660208201525b60006040518060200160405280600760008089815481106121da576121da6130c6565b600091825260208083209091015473ffffffffffffffffffffffffffffffffffffffff90811684528382019490945260409283018220938d16825292909252902054905251111561242357600b5460008054909173ffffffffffffffffffffffffffffffffffffffff169063343caa1d90899084908990811061225f5761225f6130c6565b60009182526020909120015460405160e084901b7fffffffff0000000000000000000000000000000000000000000000000000000016815273ffffffffffffffffffffffffffffffffffffffff92831660048201529116602482015260440160206040518083038186803b1580156122d657600080fd5b505afa1580156122ea573d6000803e3d6000fd5b505050506040513d601f19601f8201168201806040525081019061230e91906131bb565b905061241981612414604051806020016040528086600001517bffffffffffffffffffffffffffffffffffffffffffffffffffffffff16815250604051806020016040528060076000808d81548110612369576123696130c6565b9060005260206000200160009054906101000a900473ffffffffffffffffffffffffffffffffffffffff1673ffffffffffffffffffffffffffffffffffffffff1673ffffffffffffffffffffffffffffffffffffffff16815260200190815260200160002060008e73ffffffffffffffffffffffffffffffffffffffff1673ffffffffffffffffffffffffffffffffffffffff16815260200190815260200160002054815250612a54565b612a89565b935050505061242a565b6000925050505b95945050505050565b6000806000876000015111612449576000612464565b612464600354611c2b888781518110611eea57611eea6130c6565b905060006006600080868154811061247e5761247e6130c6565b600091825260208083209091015473ffffffffffffffffffffffffffffffffffffffff16835282810193909352604091820181208251808401909352547bffffffffffffffffffffffffffffffffffffffffffffffffffffffff8116835263ffffffff7c01000000000000000000000000000000000000000000000000000000009091041692820183905290925090612518904390612ab3565b1180156125255750600082115b156126ac5760006125e9604051806020016040528084600001517bffffffffffffffffffffffffffffffffffffffffffffffffffffffff16815250600061259f60008981548110612578576125786130c6565b60009182526020909120015473ffffffffffffffffffffffffffffffffffffffff16610af7565b116125b95760405180602001604052806000815250612b73565b6120886125d361206743876020015163ffffffff16612ab3565b61208360008a81548110612578576125786130c6565b9050604051806040016040528061263983600001516040518060400160405280601a81526020017f6e657720696e6465782065786365656473203232342062697473000000000000815250612b9f565b7bffffffffffffffffffffffffffffffffffffffffffffffffffffffff16815260200161269b436040518060400160405280601c81526020017f626c6f636b206e756d6265722065786365656473203332206269747300000000815250612c01565b63ffffffff16815250915050612713565b60006126c243836020015163ffffffff16612ab3565b111561271357612707436040518060400160405280601c81526020017f626c6f636b206e756d6265722065786365656473203332206269747300000000815250612c01565b63ffffffff1660208201525b6000604051806020016040528060086000808981548110612736576127366130c6565b600091825260208083209091015473ffffffffffffffffffffffffffffffffffffffff90811684528382019490945260409283018220938d16825292909252902054905251111561242357600b5460008054909173ffffffffffffffffffffffffffffffffffffffff1690630dd8fe6c9089908490899081106127bb576127bb6130c6565b60009182526020909120015460405160e084901b7fffffffff0000000000000000000000000000000000000000000000000000000016815273ffffffffffffffffffffffffffffffffffffffff92831660048201529116602482015260440160206040518083038186803b15801561283257600080fd5b505afa158015612846573d6000803e3d6000fd5b505050506040513d601f19601f8201168201806040525081019061286a91906131bb565b905061241981612414604051806020016040528086600001517bffffffffffffffffffffffffffffffffffffffffffffffffffffffff16815250604051806020016040528060086000808d81548110612369576123696130c6565b600061094283836040518060400160405280601181526020017f6164646974696f6e206f766572666c6f77000000000000000000000000000000815250612c96565b8051825114612972576040517f08c379a000000000000000000000000000000000000000000000000000000000815260206004820152601760248201527f4d757374206265207468652073616d65206c656e677468000000000000000000604482015260640161050c565b60005b8251811015612a4e576000838281518110612992576129926130c6565b6020026020010151905060008383815181106129b0576129b06130c6565b602002602001015190506129c382611584565b6129cd8287610bbd565b6129d682610e8b565b6129e0828761142d565b73ffffffffffffffffffffffffffffffffffffffff8616600090815260096020526040902054612a139087908484612cea565b73ffffffffffffffffffffffffffffffffffffffff871660009081526009602052604090205550819050612a4681613153565b915050612975565b50505050565b6040805160208101909152600081526040518060200160405280612a8085600001518560000151612ab3565b90529392505050565b60006ec097ce7bc90715b34b9f1000000000612aa9848460000151612af5565b61094291906132a9565b600061094283836040518060400160405280601581526020017f7375627472616374696f6e20756e646572666c6f770000000000000000000000815250612eb1565b600061094283836040518060400160405280601781526020017f6d756c7469706c69636174696f6e206f766572666c6f77000000000000000000815250612efa565b6040805160208101909152600081526040518060200160405280612a80612b6d866ec097ce7bc90715b34b9f1000000000612af5565b85612f67565b6040805160208101909152600081526040518060200160405280612a80856000015185600001516128c5565b6000817c01000000000000000000000000000000000000000000000000000000008410612bf9576040517f08c379a000000000000000000000000000000000000000000000000000000000815260040161050c91906132e4565b509192915050565b6000816401000000008410612bf9576040517f08c379a000000000000000000000000000000000000000000000000000000000815260040161050c91906132e4565b6040805160208101909152600081526040518060200160405280612a80612c768660000151670de0b6b3a7640000612af5565b8551612f67565b6000670de0b6b3a7640000612aa9848460000151612af5565b600080612ca3848661313b565b90508285821015612ce1576040517f08c379a000000000000000000000000000000000000000000000000000000000815260040161050c91906132e4565b50949350505050565b60008315612ea6576040517f70a08231000000000000000000000000000000000000000000000000000000008152306004820152829060009073ffffffffffffffffffffffffffffffffffffffff8316906370a082319060240160206040518083038186803b158015612d5c57600080fd5b505afa158015612d70573d6000803e3d6000fd5b505050506040513d601f19601f82011682018060405250810190612d9491906131bb565b9050808611612ea3576040517fa9059cbb00000000000000000000000000000000000000000000000000000000815273ffffffffffffffffffffffffffffffffffffffff88811660048301526024820188905283169063a9059cbb90604401602060405180830381600087803b158015612e0d57600080fd5b505af1158015612e21573d6000803e3d6000fd5b505050506040513d601f19601f82011682018060405250810190612e459190613357565b506040805187815273ffffffffffffffffffffffffffffffffffffffff87811660208301528916917f5f8ce21c9bc9581b07f76353a3f72e24204268542b57800c2c3427c47e070333910160405180910390a2600092505050612ea9565b50505b50825b949350505050565b60008184841115612eef576040517f08c379a000000000000000000000000000000000000000000000000000000000815260040161050c91906132e4565b50612ea98385613124565b6000831580612f07575082155b15612f1457506000610942565b6000612f208486613372565b905083612f2d86836132a9565b148390612ce1576040517f08c379a000000000000000000000000000000000000000000000000000000000815260040161050c91906132e4565b600061094283836040518060400160405280600e81526020017f646976696465206279207a65726f00000000000000000000000000000000000081525060008183612fdf576040517f08c379a000000000000000000000000000000000000000000000000000000000815260040161050c91906132e4565b50612ea983856132a9565b600060208284031215612ffc57600080fd5b5035919050565b73ffffffffffffffffffffffffffffffffffffffff8116811461089257600080fd5b6000806040838503121561303857600080fd5b823561304381613003565b9150602083013561305381613003565b809150509250929050565b60006020828403121561307057600080fd5b813561094281613003565b60008060006060848603121561309057600080fd5b833561309b81613003565b925060208401356130ab81613003565b915060408401356130bb81613003565b809150509250925092565b7f4e487b7100000000000000000000000000000000000000000000000000000000600052603260045260246000fd5b7f4e487b7100000000000000000000000000000000000000000000000000000000600052601160045260246000fd5b600082821015613136576131366130f5565b500390565b6000821982111561314e5761314e6130f5565b500190565b60007fffffffffffffffffffffffffffffffffffffffffffffffffffffffffffffffff821415613185576131856130f5565b5060010190565b7f4e487b7100000000000000000000000000000000000000000000000000000000600052603160045260246000fd5b6000602082840312156131cd57600080fd5b5051919050565b7f4e487b7100000000000000000000000000000000000000000000000000000000600052604160045260246000fd5b8051801515811461321357600080fd5b919050565b6000806000806000806000806000806101408b8d03121561323857600080fd5b6132418b613203565b995060208b0151985060408b015161325881613003565b8098505060608b0151965060808b0151955060a08b0151945060c08b0151935060e08b015192506101008b015191506101208b015161329681613003565b809150509295989b9194979a5092959850565b6000826132df577f4e487b7100000000000000000000000000000000000000000000000000000000600052601260045260246000fd5b500490565b600060208083528351808285015260005b81811015613311578581018301518582016040015282016132f5565b81811115613323576000604083870101525b50601f017fffffffffffffffffffffffffffffffffffffffffffffffffffffffffffffffe016929092016040019392505050565b60006020828403121561336957600080fd5b61094282613203565b6000817fffffffffffffffffffffffffffffffffffffffffffffffffffffffffffffffff04831182151516156133aa576133aa6130f5565b50029056fea264697066735822122078df8c57a73d23dc42b4d43cda126d00480cb3bfdf878391b6c0a9f44d564eb764736f6c63430008090033",
  "linkReferences": {},
  "deployedLinkReferences": {}
}