{
  "_format": "hh-sol-artifact-1",
  "contractName": "StableSwapModule",
  "sourceName": "contracts/stablecoin/core/StableSwapModule.sol",
  "abi": [
    {
      "anonymous": false,
      "inputs": [
        {
          "indexed": true,
          "internalType": "address",
          "name": "_caller",
          "type": "address"
        },
        {
          "indexed": false,
          "internalType": "uint256",
          "name": "_feeIn",
          "type": "uint256"
        }
      ],
      "name": "LogSetFeeIn",
      "type": "event"
    },
    {
      "anonymous": false,
      "inputs": [
        {
          "indexed": true,
          "internalType": "address",
          "name": "_caller",
          "type": "address"
        },
        {
          "indexed": false,
          "internalType": "uint256",
          "name": "_feeOut",
          "type": "uint256"
        }
      ],
      "name": "LogSetFeeOut",
      "type": "event"
    },
    {
      "anonymous": false,
      "inputs": [
        {
          "indexed": true,
          "internalType": "address",
          "name": "_owner",
          "type": "address"
        },
        {
          "indexed": false,
          "internalType": "uint256",
          "name": "_value",
          "type": "uint256"
        },
        {
          "indexed": false,
          "internalType": "uint256",
          "name": "_fee",
          "type": "uint256"
        }
      ],
      "name": "LogSwapStablecoinToToken",
      "type": "event"
    },
    {
      "anonymous": false,
      "inputs": [
        {
          "indexed": true,
          "internalType": "address",
          "name": "_owner",
          "type": "address"
        },
        {
          "indexed": false,
          "internalType": "uint256",
          "name": "_value",
          "type": "uint256"
        },
        {
          "indexed": false,
          "internalType": "uint256",
          "name": "_fee",
          "type": "uint256"
        }
      ],
      "name": "LogSwapTokenToStablecoin",
      "type": "event"
    },
    {
      "anonymous": false,
      "inputs": [
        {
          "indexed": false,
          "internalType": "address",
          "name": "account",
          "type": "address"
        }
      ],
      "name": "Paused",
      "type": "event"
    },
    {
      "anonymous": false,
      "inputs": [
        {
          "indexed": false,
          "internalType": "address",
          "name": "account",
          "type": "address"
        }
      ],
      "name": "Unpaused",
      "type": "event"
    },
    {
      "inputs": [],
      "name": "authTokenAdapter",
      "outputs": [
        {
          "internalType": "contract IAuthTokenAdapter",
          "name": "",
          "type": "address"
        }
      ],
      "stateMutability": "view",
      "type": "function"
    },
    {
      "inputs": [
        {
          "internalType": "address",
          "name": "_usr",
          "type": "address"
        }
      ],
      "name": "blacklist",
      "outputs": [],
      "stateMutability": "nonpayable",
      "type": "function"
    },
    {
      "inputs": [],
      "name": "bookKeeper",
      "outputs": [
        {
          "internalType": "contract IBookKeeper",
          "name": "",
          "type": "address"
        }
      ],
      "stateMutability": "view",
      "type": "function"
    },
    {
      "inputs": [],
      "name": "collateralPoolId",
      "outputs": [
        {
          "internalType": "bytes32",
          "name": "",
          "type": "bytes32"
        }
      ],
      "stateMutability": "view",
      "type": "function"
    },
    {
      "inputs": [],
      "name": "feeIn",
      "outputs": [
        {
          "internalType": "uint256",
          "name": "",
          "type": "uint256"
        }
      ],
      "stateMutability": "view",
      "type": "function"
    },
    {
      "inputs": [],
      "name": "feeOut",
      "outputs": [
        {
          "internalType": "uint256",
          "name": "",
          "type": "uint256"
        }
      ],
      "stateMutability": "view",
      "type": "function"
    },
    {
      "inputs": [
        {
          "internalType": "address",
          "name": "_authTokenAdapter",
          "type": "address"
        },
        {
          "internalType": "address",
          "name": "_stablecoinAdapter",
          "type": "address"
        },
        {
          "internalType": "address",
          "name": "_systemDebtEngine",
          "type": "address"
        }
      ],
      "name": "initialize",
      "outputs": [],
      "stateMutability": "nonpayable",
      "type": "function"
    },
    {
      "inputs": [],
      "name": "pause",
      "outputs": [],
      "stateMutability": "nonpayable",
      "type": "function"
    },
    {
      "inputs": [],
      "name": "paused",
      "outputs": [
        {
          "internalType": "bool",
          "name": "",
          "type": "bool"
        }
      ],
      "stateMutability": "view",
      "type": "function"
    },
    {
      "inputs": [
        {
          "internalType": "uint256",
          "name": "_feeIn",
          "type": "uint256"
        }
      ],
      "name": "setFeeIn",
      "outputs": [],
      "stateMutability": "nonpayable",
      "type": "function"
    },
    {
      "inputs": [
        {
          "internalType": "uint256",
          "name": "_feeOut",
          "type": "uint256"
        }
      ],
      "name": "setFeeOut",
      "outputs": [],
      "stateMutability": "nonpayable",
      "type": "function"
    },
    {
      "inputs": [],
      "name": "stablecoin",
      "outputs": [
        {
          "internalType": "contract IStablecoin",
          "name": "",
          "type": "address"
        }
      ],
      "stateMutability": "view",
      "type": "function"
    },
    {
      "inputs": [],
      "name": "stablecoinAdapter",
      "outputs": [
        {
          "internalType": "contract IStablecoinAdapter",
          "name": "",
          "type": "address"
        }
      ],
      "stateMutability": "view",
      "type": "function"
    },
    {
      "inputs": [
        {
          "internalType": "address",
          "name": "_usr",
          "type": "address"
        },
        {
          "internalType": "uint256",
          "name": "_tokenAmount",
          "type": "uint256"
        }
      ],
      "name": "swapStablecoinToToken",
      "outputs": [],
      "stateMutability": "nonpayable",
      "type": "function"
    },
    {
      "inputs": [
        {
          "internalType": "address",
          "name": "_usr",
          "type": "address"
        },
        {
          "internalType": "uint256",
          "name": "_tokenAmount",
          "type": "uint256"
        }
      ],
      "name": "swapTokenToStablecoin",
      "outputs": [],
      "stateMutability": "nonpayable",
      "type": "function"
    },
    {
      "inputs": [],
      "name": "systemDebtEngine",
      "outputs": [
        {
          "internalType": "address",
          "name": "",
          "type": "address"
        }
      ],
      "stateMutability": "view",
      "type": "function"
    },
    {
      "inputs": [],
      "name": "unpause",
      "outputs": [],
      "stateMutability": "nonpayable",
      "type": "function"
    },
    {
      "inputs": [
        {
          "internalType": "address",
          "name": "_usr",
          "type": "address"
        }
      ],
      "name": "whitelist",
      "outputs": [],
      "stateMutability": "nonpayable",
      "type": "function"
    }
  ],
  "bytecode": "0x608060405234801561001057600080fd5b506130e2806100206000396000f3fe608060405234801561001057600080fd5b50600436106101365760003560e01c806381e28cc7116100b2578063dca07dc511610081578063e723b97711610066578063e723b977146102f8578063e9cbd82214610300578063f9f92be41461030857610136565b8063dca07dc5146102e8578063e3b3932a146102f057610136565b806381e28cc71461022f5780638456cb59146102685780639b19251a14610270578063c0c53b8b146102a357610136565b806342e8a9721161010957806355725d41116100ee57806355725d41146101ee5780635c975abb1461020b578063769a48d91461022757610136565b806342e8a972146101c957806346a311d3146101e657610136565b80630696819f1461013b57806328e49a42146101555780633f4ba83a1461018657806340853dce14610190575b600080fd5b61014361033b565b60408051918252519081900360200190f35b61015d610341565b6040805173ffffffffffffffffffffffffffffffffffffffff9092168252519081900360200190f35b61018e61035d565b005b61018e600480360360408110156101a657600080fd5b5073ffffffffffffffffffffffffffffffffffffffff81351690602001356106ab565b61018e600480360360208110156101df57600080fd5b5035610be3565b61015d610eaa565b61018e6004803603602081101561020457600080fd5b5035610ec6565b61021361118d565b604080519115158252519081900360200190f35b610143611196565b61018e6004803603604081101561024557600080fd5b5073ffffffffffffffffffffffffffffffffffffffff813516906020013561119c565b61018e6116f5565b61018e6004803603602081101561028657600080fd5b503573ffffffffffffffffffffffffffffffffffffffff16611a40565b61018e600480360360608110156102b957600080fd5b5073ffffffffffffffffffffffffffffffffffffffff8135811691602081013582169160409091013516611cf7565b610143612220565b61015d612226565b61015d612242565b61015d61225e565b61018e6004803603602081101561031e57600080fd5b503573ffffffffffffffffffffffffffffffffffffffff1661227a565b609f5481565b609c5473ffffffffffffffffffffffffffffffffffffffff1681565b609754604080517fc8cc243f000000000000000000000000000000000000000000000000000000008152905160009273ffffffffffffffffffffffffffffffffffffffff169163c8cc243f916004808301926020929190829003018186803b1580156103c857600080fd5b505afa1580156103dc573d6000803e3d6000fd5b505050506040513d60208110156103f257600080fd5b5051604080517fe58378bb000000000000000000000000000000000000000000000000000000008152905191925073ffffffffffffffffffffffffffffffffffffffff8316916391d1485491839163e58378bb91600480820192602092909190829003018186803b15801561046657600080fd5b505afa15801561047a573d6000803e3d6000fd5b505050506040513d602081101561049057600080fd5b5051604080517fffffffff0000000000000000000000000000000000000000000000000000000060e085901b1681526004810192909252336024830152516044808301926020929190829003018186803b1580156104ed57600080fd5b505afa158015610501573d6000803e3d6000fd5b505050506040513d602081101561051757600080fd5b50518061063557508073ffffffffffffffffffffffffffffffffffffffff166391d148548273ffffffffffffffffffffffffffffffffffffffff1663b536818a6040518163ffffffff1660e01b815260040160206040518083038186803b15801561058157600080fd5b505afa158015610595573d6000803e3d6000fd5b505050506040513d60208110156105ab57600080fd5b5051604080517fffffffff0000000000000000000000000000000000000000000000000000000060e085901b1681526004810192909252336024830152516044808301926020929190829003018186803b15801561060857600080fd5b505afa15801561061c573d6000803e3d6000fd5b505050506040513d602081101561063257600080fd5b50515b6106a057604080517f08c379a000000000000000000000000000000000000000000000000000000000815260206004820152601760248201527f21286f776e6572526f6c65206f7220676f76526f6c6529000000000000000000604482015290519081900360640190fd5b6106a8612515565b50565b6002606554141561071d57604080517f08c379a000000000000000000000000000000000000000000000000000000000815260206004820152601f60248201527f5265656e7472616e637947756172643a207265656e7472616e742063616c6c00604482015290519081900360640190fd5b600260655561072a61118d565b1561079657604080517f08c379a000000000000000000000000000000000000000000000000000000000815260206004820152601060248201527f5061757361626c653a2070617573656400000000000000000000000000000000604482015290519081900360640190fd5b8061080257604080517f08c379a000000000000000000000000000000000000000000000000000000000815260206004820152601e60248201527f5b537461626c65537761704d6f64756c655d20616d6f756e742d7a65726f0000604482015290519081900360640190fd5b600061081082609d54612603565b90506000670de0b6b3a764000061082983609e54612603565b8161083057fe5b049050600061083f838361262d565b609854604080517ff45346dc00000000000000000000000000000000000000000000000000000000815230600482015260248101889052336044820152905192935073ffffffffffffffffffffffffffffffffffffffff9091169163f45346dc9160648082019260009290919082900301818387803b1580156108c157600080fd5b505af11580156108d5573d6000803e3d6000fd5b5050609754609b54604080517f56bd594a000000000000000000000000000000000000000000000000000000008152600481019290925230602483018190526044830181905260648301526084820188905260a482018890525173ffffffffffffffffffffffffffffffffffffffff90921693506356bd594a925060c48082019260009290919082900301818387803b15801561097157600080fd5b505af1158015610985573d6000803e3d6000fd5b5050609754609c5473ffffffffffffffffffffffffffffffffffffffff9182169350638c15785492503091166109c7866b033b2e3c9fd0803ce8000000612603565b6040518463ffffffff1660e01b8152600401808473ffffffffffffffffffffffffffffffffffffffff1681526020018373ffffffffffffffffffffffffffffffffffffffff1681526020018281526020019350505050600060405180830381600087803b158015610a3757600080fd5b505af1158015610a4b573d6000803e3d6000fd5b50505050609a60009054906101000a900473ffffffffffffffffffffffffffffffffffffffff1673ffffffffffffffffffffffffffffffffffffffff166331f0926586836000604051602001808281526020019150506040516020818303038152906040526040518463ffffffff1660e01b8152600401808473ffffffffffffffffffffffffffffffffffffffff16815260200183815260200180602001828103825283818151815260200191508051906020019080838360005b83811015610b1e578181015183820152602001610b06565b50505050905090810190601f168015610b4b5780820380516001836020036101000a031916815260200191505b50945050505050600060405180830381600087803b158015610b6c57600080fd5b505af1158015610b80573d6000803e3d6000fd5b50506040805187815260208101869052815173ffffffffffffffffffffffffffffffffffffffff8a1694507febeefb54ae6b697f8f7b14ec942871ef2fc051ec90c2a221007e5a5702a4d7f293509081900390910190a250506001606555505050565b609754604080517fc8cc243f000000000000000000000000000000000000000000000000000000008152905160009273ffffffffffffffffffffffffffffffffffffffff169163c8cc243f916004808301926020929190829003018186803b158015610c4e57600080fd5b505afa158015610c62573d6000803e3d6000fd5b505050506040513d6020811015610c7857600080fd5b5051604080517fe58378bb000000000000000000000000000000000000000000000000000000008152905191925073ffffffffffffffffffffffffffffffffffffffff8316916391d1485491839163e58378bb91600480820192602092909190829003018186803b158015610cec57600080fd5b505afa158015610d00573d6000803e3d6000fd5b505050506040513d6020811015610d1657600080fd5b5051604080517fffffffff0000000000000000000000000000000000000000000000000000000060e085901b1681526004810192909252336024830152516044808301926020929190829003018186803b158015610d7357600080fd5b505afa158015610d87573d6000803e3d6000fd5b505050506040513d6020811015610d9d57600080fd5b5051610e0a57604080517f08c379a000000000000000000000000000000000000000000000000000000000815260206004820152600a60248201527f216f776e6572526f6c6500000000000000000000000000000000000000000000604482015290519081900360640190fd5b6706f05b59d3b20000821115610e6b576040517f08c379a000000000000000000000000000000000000000000000000000000000815260040180806020018281038252602181526020018061305e6021913960400191505060405180910390fd5b609f82905560408051838152905133917fca068f6ffd884c8217e477778ef3821efcb5e96690cff9e680c7dbd077d1d1bd919081900360200190a25050565b609a5473ffffffffffffffffffffffffffffffffffffffff1681565b609754604080517fc8cc243f000000000000000000000000000000000000000000000000000000008152905160009273ffffffffffffffffffffffffffffffffffffffff169163c8cc243f916004808301926020929190829003018186803b158015610f3157600080fd5b505afa158015610f45573d6000803e3d6000fd5b505050506040513d6020811015610f5b57600080fd5b5051604080517fe58378bb000000000000000000000000000000000000000000000000000000008152905191925073ffffffffffffffffffffffffffffffffffffffff8316916391d1485491839163e58378bb91600480820192602092909190829003018186803b158015610fcf57600080fd5b505afa158015610fe3573d6000803e3d6000fd5b505050506040513d6020811015610ff957600080fd5b5051604080517fffffffff0000000000000000000000000000000000000000000000000000000060e085901b1681526004810192909252336024830152516044808301926020929190829003018186803b15801561105657600080fd5b505afa15801561106a573d6000803e3d6000fd5b505050506040513d602081101561108057600080fd5b50516110ed57604080517f08c379a000000000000000000000000000000000000000000000000000000000815260206004820152600a60248201527f216f776e6572526f6c6500000000000000000000000000000000000000000000604482015290519081900360640190fd5b6706f05b59d3b2000082111561114e576040517f08c379a000000000000000000000000000000000000000000000000000000000815260040180806020018281038252602181526020018061305e6021913960400191505060405180910390fd5b609e82905560408051838152905133917f761b3141cbb42e607f4e550cf06b417f5d0fe476ee4fb6b9fbb34c4ae134b813919081900360200190a25050565b60335460ff1690565b609e5481565b6002606554141561120e57604080517f08c379a000000000000000000000000000000000000000000000000000000000815260206004820152601f60248201527f5265656e7472616e637947756172643a207265656e7472616e742063616c6c00604482015290519081900360640190fd5b600260655561121b61118d565b1561128757604080517f08c379a000000000000000000000000000000000000000000000000000000000815260206004820152601060248201527f5061757361626c653a2070617573656400000000000000000000000000000000604482015290519081900360640190fd5b806112f357604080517f08c379a000000000000000000000000000000000000000000000000000000000815260206004820152601e60248201527f5b537461626c65537761704d6f64756c655d20616d6f756e742d7a65726f0000604482015290519081900360640190fd5b600061130182609d54612603565b90506000670de0b6b3a764000061131a83609f54612603565b8161132157fe5b0490506000611330838361263d565b6099549091506113589073ffffffffffffffffffffffffffffffffffffffff1633308461264d565b609a60009054906101000a900473ffffffffffffffffffffffffffffffffffffffff1673ffffffffffffffffffffffffffffffffffffffff166349bdc2b830836000604051602001808281526020019150506040516020818303038152906040526040518463ffffffff1660e01b8152600401808473ffffffffffffffffffffffffffffffffffffffff16815260200183815260200180602001828103825283818151815260200191508051906020019080838360005b8381101561142757818101518382015260200161140f565b50505050905090810190601f1680156114545780820380516001836020036101000a031916815260200191505b50945050505050600060405180830381600087803b15801561147557600080fd5b505af1158015611489573d6000803e3d6000fd5b5050609754609b54604080517f56bd594a0000000000000000000000000000000000000000000000000000000081526004810192909252306024830181905260448301819052606483015260008881036084840181905260a4840152905173ffffffffffffffffffffffffffffffffffffffff90931694506356bd594a935060c480830193919282900301818387803b15801561152557600080fd5b505af1158015611539573d6000803e3d6000fd5b5050609854604080517ff3fef3a300000000000000000000000000000000000000000000000000000000815273ffffffffffffffffffffffffffffffffffffffff8a81166004830152602482018a9052915191909216935063f3fef3a39250604480830192600092919082900301818387803b1580156115b857600080fd5b505af11580156115cc573d6000803e3d6000fd5b5050609754609c5473ffffffffffffffffffffffffffffffffffffffff9182169350638c157854925030911661160e866b033b2e3c9fd0803ce8000000612603565b6040518463ffffffff1660e01b8152600401808473ffffffffffffffffffffffffffffffffffffffff1681526020018373ffffffffffffffffffffffffffffffffffffffff1681526020018281526020019350505050600060405180830381600087803b15801561167e57600080fd5b505af1158015611692573d6000803e3d6000fd5b50506040805187815260208101869052815173ffffffffffffffffffffffffffffffffffffffff8a1694507f19db3e213473ea73ae4b6c76a26cbcb2a43d954d78caca305d507dec79b24e8293509081900390910190a250506001606555505050565b609754604080517fc8cc243f000000000000000000000000000000000000000000000000000000008152905160009273ffffffffffffffffffffffffffffffffffffffff169163c8cc243f916004808301926020929190829003018186803b15801561176057600080fd5b505afa158015611774573d6000803e3d6000fd5b505050506040513d602081101561178a57600080fd5b5051604080517fe58378bb000000000000000000000000000000000000000000000000000000008152905191925073ffffffffffffffffffffffffffffffffffffffff8316916391d1485491839163e58378bb91600480820192602092909190829003018186803b1580156117fe57600080fd5b505afa158015611812573d6000803e3d6000fd5b505050506040513d602081101561182857600080fd5b5051604080517fffffffff0000000000000000000000000000000000000000000000000000000060e085901b1681526004810192909252336024830152516044808301926020929190829003018186803b15801561188557600080fd5b505afa158015611899573d6000803e3d6000fd5b505050506040513d60208110156118af57600080fd5b5051806119cd57508073ffffffffffffffffffffffffffffffffffffffff166391d148548273ffffffffffffffffffffffffffffffffffffffff1663b536818a6040518163ffffffff1660e01b815260040160206040518083038186803b15801561191957600080fd5b505afa15801561192d573d6000803e3d6000fd5b505050506040513d602081101561194357600080fd5b5051604080517fffffffff0000000000000000000000000000000000000000000000000000000060e085901b1681526004810192909252336024830152516044808301926020929190829003018186803b1580156119a057600080fd5b505afa1580156119b4573d6000803e3d6000fd5b505050506040513d60208110156119ca57600080fd5b50515b611a3857604080517f08c379a000000000000000000000000000000000000000000000000000000000815260206004820152601760248201527f21286f776e6572526f6c65206f7220676f76526f6c6529000000000000000000604482015290519081900360640190fd5b6106a861282b565b609754604080517fc8cc243f000000000000000000000000000000000000000000000000000000008152905160009273ffffffffffffffffffffffffffffffffffffffff169163c8cc243f916004808301926020929190829003018186803b158015611aab57600080fd5b505afa158015611abf573d6000803e3d6000fd5b505050506040513d6020811015611ad557600080fd5b5051604080517fe58378bb000000000000000000000000000000000000000000000000000000008152905191925073ffffffffffffffffffffffffffffffffffffffff8316916391d1485491839163e58378bb91600480820192602092909190829003018186803b158015611b4957600080fd5b505afa158015611b5d573d6000803e3d6000fd5b505050506040513d6020811015611b7357600080fd5b5051604080517fffffffff0000000000000000000000000000000000000000000000000000000060e085901b1681526004810192909252336024830152516044808301926020929190829003018186803b158015611bd057600080fd5b505afa158015611be4573d6000803e3d6000fd5b505050506040513d6020811015611bfa57600080fd5b5051611c6757604080517f08c379a000000000000000000000000000000000000000000000000000000000815260206004820152600a60248201527f216f776e6572526f6c6500000000000000000000000000000000000000000000604482015290519081900360640190fd5b609754604080517f9b19251a00000000000000000000000000000000000000000000000000000000815273ffffffffffffffffffffffffffffffffffffffff858116600483015291519190921691639b19251a91602480830192600092919082900301818387803b158015611cdb57600080fd5b505af1158015611cef573d6000803e3d6000fd5b505050505050565b600054610100900460ff1680611d105750611d106128f3565b80611d1e575060005460ff16155b611d73576040517f08c379a000000000000000000000000000000000000000000000000000000000815260040180806020018281038252602e81526020018061307f602e913960400191505060405180910390fd5b600054610100900460ff16158015611dd957600080547fffffffffffffffffffffffffffffffffffffffffffffffffffffffffffffff007fffffffffffffffffffffffffffffffffffffffffffffffffffffffffffff00ff909116610100171660011790555b611de1612904565b611de9612a27565b6098805473ffffffffffffffffffffffffffffffffffffffff8087167fffffffffffffffffffffffff00000000000000000000000000000000000000009283168117909355609a805491871691909216179055604080517fe3b3932a00000000000000000000000000000000000000000000000000000000815290518692869260009263e3b3932a9160048082019260209290919082900301818787803b158015611e9357600080fd5b505af1158015611ea7573d6000803e3d6000fd5b505050506040513d6020811015611ebd57600080fd5b5051609780547fffffffffffffffffffffffff00000000000000000000000000000000000000001673ffffffffffffffffffffffffffffffffffffffff80841691909117909155604080517fe9cbd82200000000000000000000000000000000000000000000000000000000815290519293506000929185169163e9cbd8229160048082019260209290919082900301818787803b158015611f5e57600080fd5b505af1158015611f72573d6000803e3d6000fd5b505050506040513d6020811015611f8857600080fd5b5051609980547fffffffffffffffffffffffff00000000000000000000000000000000000000001673ffffffffffffffffffffffffffffffffffffffff80841691909117909155604080517fdca07dc500000000000000000000000000000000000000000000000000000000815290519293509086169163dca07dc5916004808201926020929091908290030181600087803b15801561202757600080fd5b505af115801561203b573d6000803e3d6000fd5b505050506040513d602081101561205157600080fd5b5051609b55609c80547fffffffffffffffffffffffff00000000000000000000000000000000000000001673ffffffffffffffffffffffffffffffffffffffff88811691909117909155604080517f313ce56700000000000000000000000000000000000000000000000000000000815290519186169163313ce567916004808201926020929091908290030181600087803b1580156120f057600080fd5b505af1158015612104573d6000803e3d6000fd5b505050506040513d602081101561211a57600080fd5b5051601203600a0a609d5561216673ffffffffffffffffffffffffffffffffffffffff8216887fffffffffffffffffffffffffffffffffffffffffffffffffffffffffffffffff612b11565b8173ffffffffffffffffffffffffffffffffffffffff16639b19251a886040518263ffffffff1660e01b8152600401808273ffffffffffffffffffffffffffffffffffffffff168152602001915050600060405180830381600087803b1580156121cf57600080fd5b505af11580156121e3573d6000803e3d6000fd5b5050505050505050801561221a57600080547fffffffffffffffffffffffffffffffffffffffffffffffffffffffffffff00ff1690555b50505050565b609b5481565b60975473ffffffffffffffffffffffffffffffffffffffff1681565b60985473ffffffffffffffffffffffffffffffffffffffff1681565b60995473ffffffffffffffffffffffffffffffffffffffff1681565b609754604080517fc8cc243f000000000000000000000000000000000000000000000000000000008152905160009273ffffffffffffffffffffffffffffffffffffffff169163c8cc243f916004808301926020929190829003018186803b1580156122e557600080fd5b505afa1580156122f9573d6000803e3d6000fd5b505050506040513d602081101561230f57600080fd5b5051604080517fe58378bb000000000000000000000000000000000000000000000000000000008152905191925073ffffffffffffffffffffffffffffffffffffffff8316916391d1485491839163e58378bb91600480820192602092909190829003018186803b15801561238357600080fd5b505afa158015612397573d6000803e3d6000fd5b505050506040513d60208110156123ad57600080fd5b5051604080517fffffffff0000000000000000000000000000000000000000000000000000000060e085901b1681526004810192909252336024830152516044808301926020929190829003018186803b15801561240a57600080fd5b505afa15801561241e573d6000803e3d6000fd5b505050506040513d602081101561243457600080fd5b50516124a157604080517f08c379a000000000000000000000000000000000000000000000000000000000815260206004820152600a60248201527f216f776e6572526f6c6500000000000000000000000000000000000000000000604482015290519081900360640190fd5b609754604080517ff9f92be400000000000000000000000000000000000000000000000000000000815273ffffffffffffffffffffffffffffffffffffffff85811660048301529151919092169163f9f92be491602480830192600092919082900301818387803b158015611cdb57600080fd5b61251d61118d565b61258857604080517f08c379a000000000000000000000000000000000000000000000000000000000815260206004820152601460248201527f5061757361626c653a206e6f7420706175736564000000000000000000000000604482015290519081900360640190fd5b603380547fffffffffffffffffffffffffffffffffffffffffffffffffffffffffffffff001690557f5db9ee0a495bf2e6ff9c91a7834c1ba4fdd244a5e8aa4e537bd38aeae4b073aa6125d9612cee565b6040805173ffffffffffffffffffffffffffffffffffffffff9092168252519081900360200190a1565b600081158061261e5750508082028282828161261b57fe5b04145b61262757600080fd5b92915050565b8082038281111561262757600080fd5b8082018281101561262757600080fd5b6040805173ffffffffffffffffffffffffffffffffffffffff85811660248301528481166044830152606480830185905283518084039091018152608490920183526020820180517bffffffffffffffffffffffffffffffffffffffffffffffffffffffff167f23b872dd0000000000000000000000000000000000000000000000000000000017815292518251600094606094938a169392918291908083835b6020831061272b57805182527fffffffffffffffffffffffffffffffffffffffffffffffffffffffffffffffe090920191602091820191016126ee565b6001836020036101000a0380198251168184511680821785525050505050509050019150506000604051808303816000865af19150503d806000811461278d576040519150601f19603f3d011682016040523d82523d6000602084013e612792565b606091505b50915091508180156127c05750805115806127c057508080602001905160208110156127bd57600080fd5b50515b611cef57604080517f08c379a000000000000000000000000000000000000000000000000000000000815260206004820152601160248201527f21736166655472616e7366657246726f6d000000000000000000000000000000604482015290519081900360640190fd5b61283361118d565b1561289f57604080517f08c379a000000000000000000000000000000000000000000000000000000000815260206004820152601060248201527f5061757361626c653a2070617573656400000000000000000000000000000000604482015290519081900360640190fd5b603380547fffffffffffffffffffffffffffffffffffffffffffffffffffffffffffffff001660011790557f62e78cea01bee320cd4e420270b5ea74000d11b0c9f74754ebdbfc544b05a2586125d9612cee565b60006128fe30612cf2565b15905090565b600054610100900460ff168061291d575061291d6128f3565b8061292b575060005460ff16155b612980576040517f08c379a000000000000000000000000000000000000000000000000000000000815260040180806020018281038252602e81526020018061307f602e913960400191505060405180910390fd5b600054610100900460ff161580156129e657600080547fffffffffffffffffffffffffffffffffffffffffffffffffffffffffffffff007fffffffffffffffffffffffffffffffffffffffffffffffffffffffffffff00ff909116610100171660011790555b6129ee612cf8565b6129f6612e0a565b80156106a857600080547fffffffffffffffffffffffffffffffffffffffffffffffffffffffffffff00ff16905550565b600054610100900460ff1680612a405750612a406128f3565b80612a4e575060005460ff16155b612aa3576040517f08c379a000000000000000000000000000000000000000000000000000000000815260040180806020018281038252602e81526020018061307f602e913960400191505060405180910390fd5b600054610100900460ff16158015612b0957600080547fffffffffffffffffffffffffffffffffffffffffffffffffffffffffffffff007fffffffffffffffffffffffffffffffffffffffffffffffffffffffffffff00ff909116610100171660011790555b6129f6612f45565b6040805173ffffffffffffffffffffffffffffffffffffffff8481166024830152604480830185905283518084039091018152606490920183526020820180517bffffffffffffffffffffffffffffffffffffffffffffffffffffffff167f095ea7b300000000000000000000000000000000000000000000000000000000178152925182516000946060949389169392918291908083835b60208310612be757805182527fffffffffffffffffffffffffffffffffffffffffffffffffffffffffffffffe09092019160209182019101612baa565b6001836020036101000a0380198251168184511680821785525050505050509050019150506000604051808303816000865af19150503d8060008114612c49576040519150601f19603f3d011682016040523d82523d6000602084013e612c4e565b606091505b5091509150818015612c7c575080511580612c7c5750808060200190516020811015612c7957600080fd5b50515b612ce757604080517f08c379a000000000000000000000000000000000000000000000000000000000815260206004820152600c60248201527f2173616665417070726f76650000000000000000000000000000000000000000604482015290519081900360640190fd5b5050505050565b3390565b3b151590565b600054610100900460ff1680612d115750612d116128f3565b80612d1f575060005460ff16155b612d74576040517f08c379a000000000000000000000000000000000000000000000000000000000815260040180806020018281038252602e81526020018061307f602e913960400191505060405180910390fd5b600054610100900460ff161580156129f657600080547fffffffffffffffffffffffffffffffffffffffffffffffffffffffffffffff007fffffffffffffffffffffffffffffffffffffffffffffffffffffffffffff00ff9091166101001716600117905580156106a857600080547fffffffffffffffffffffffffffffffffffffffffffffffffffffffffffff00ff16905550565b600054610100900460ff1680612e235750612e236128f3565b80612e31575060005460ff16155b612e86576040517f08c379a000000000000000000000000000000000000000000000000000000000815260040180806020018281038252602e81526020018061307f602e913960400191505060405180910390fd5b600054610100900460ff16158015612eec57600080547fffffffffffffffffffffffffffffffffffffffffffffffffffffffffffffff007fffffffffffffffffffffffffffffffffffffffffffffffffffffffffffff00ff909116610100171660011790555b603380547fffffffffffffffffffffffffffffffffffffffffffffffffffffffffffffff0016905580156106a857600080547fffffffffffffffffffffffffffffffffffffffffffffffffffffffffffff00ff16905550565b600054610100900460ff1680612f5e5750612f5e6128f3565b80612f6c575060005460ff16155b612fc1576040517f08c379a000000000000000000000000000000000000000000000000000000000815260040180806020018281038252602e81526020018061307f602e913960400191505060405180910390fd5b600054610100900460ff1615801561302757600080547fffffffffffffffffffffffffffffffffffffffffffffffffffffffffffffff007fffffffffffffffffffffffffffffffffffffffffffffffffffffffffffff00ff909116610100171660011790555b600160655580156106a857600080547fffffffffffffffffffffffffffffffffffffffffffffffffffffffffffff00ff1690555056fe5b537461626c65537761704d6f64756c655d20696e76616c69642d6665652d696e496e697469616c697a61626c653a20636f6e747261637420697320616c726561647920696e697469616c697a6564a2646970667358221220150311188cb70d276c039e501fb7ab2d372cf89231af5d3148d2caa19490ba8064736f6c634300060c0033",
  "linkReferences": {},
  "deployedLinkReferences": {}
}