{
  "_format": "hh-sol-artifact-1",
  "contractName": "StabilityFeeCollector",
  "sourceName": "contracts/stablecoin/core/StabilityFeeCollector.sol",
  "abi": [
    {
      "anonymous": false,
      "inputs": [
        {
          "indexed": true,
          "internalType": "address",
          "name": "_caller",
          "type": "address"
        },
        {
          "indexed": false,
          "internalType": "uint256",
          "name": "_data",
          "type": "uint256"
        }
      ],
      "name": "LogSetGlobalStabilityFeeRate",
      "type": "event"
    },
    {
      "anonymous": false,
      "inputs": [
        {
          "indexed": true,
          "internalType": "address",
          "name": "_caller",
          "type": "address"
        },
        {
          "indexed": false,
          "internalType": "address",
          "name": "_data",
          "type": "address"
        }
      ],
      "name": "LogSetSystemDebtEngine",
      "type": "event"
    },
    {
      "anonymous": false,
      "inputs": [
        {
          "indexed": false,
          "internalType": "address",
          "name": "account",
          "type": "address"
        }
      ],
      "name": "Paused",
      "type": "event"
    },
    {
      "anonymous": false,
      "inputs": [
        {
          "indexed": false,
          "internalType": "address",
          "name": "account",
          "type": "address"
        }
      ],
      "name": "Unpaused",
      "type": "event"
    },
    {
      "inputs": [],
      "name": "bookKeeper",
      "outputs": [
        {
          "internalType": "contract IBookKeeper",
          "name": "",
          "type": "address"
        }
      ],
      "stateMutability": "view",
      "type": "function"
    },
    {
      "inputs": [
        {
          "internalType": "bytes32",
          "name": "_collateralPool",
          "type": "bytes32"
        }
      ],
      "name": "collect",
      "outputs": [
        {
          "internalType": "uint256",
          "name": "_debtAccumulatedRate",
          "type": "uint256"
        }
      ],
      "stateMutability": "nonpayable",
      "type": "function"
    },
    {
      "inputs": [],
      "name": "globalStabilityFeeRate",
      "outputs": [
        {
          "internalType": "uint256",
          "name": "",
          "type": "uint256"
        }
      ],
      "stateMutability": "view",
      "type": "function"
    },
    {
      "inputs": [
        {
          "internalType": "address",
          "name": "_bookKeeper",
          "type": "address"
        },
        {
          "internalType": "address",
          "name": "_systemDebtEngine",
          "type": "address"
        }
      ],
      "name": "initialize",
      "outputs": [],
      "stateMutability": "nonpayable",
      "type": "function"
    },
    {
      "inputs": [],
      "name": "pause",
      "outputs": [],
      "stateMutability": "nonpayable",
      "type": "function"
    },
    {
      "inputs": [],
      "name": "paused",
      "outputs": [
        {
          "internalType": "bool",
          "name": "",
          "type": "bool"
        }
      ],
      "stateMutability": "view",
      "type": "function"
    },
    {
      "inputs": [
        {
          "internalType": "uint256",
          "name": "_globalStabilityFeeRate",
          "type": "uint256"
        }
      ],
      "name": "setGlobalStabilityFeeRate",
      "outputs": [],
      "stateMutability": "nonpayable",
      "type": "function"
    },
    {
      "inputs": [
        {
          "internalType": "address",
          "name": "_systemDebtEngine",
          "type": "address"
        }
      ],
      "name": "setSystemDebtEngine",
      "outputs": [],
      "stateMutability": "nonpayable",
      "type": "function"
    },
    {
      "inputs": [],
      "name": "systemDebtEngine",
      "outputs": [
        {
          "internalType": "address",
          "name": "",
          "type": "address"
        }
      ],
      "stateMutability": "view",
      "type": "function"
    },
    {
      "inputs": [],
      "name": "unpause",
      "outputs": [],
      "stateMutability": "nonpayable",
      "type": "function"
    }
  ],
  "bytecode": "0x608060405234801561001057600080fd5b50612174806100206000396000f3fe608060405234801561001057600080fd5b50600436106100be5760003560e01c8063796a39bb116100765780638456cb591161005b5780638456cb5914610159578063a985bdcf14610161578063e3b3932a14610169576100be565b8063796a39bb146101335780637e0972f514610146576100be565b8063485cc955116100a7578063485cc955146100eb578063497777d5146100fe5780635c975abb1461011e576100be565b806328e49a42146100c35780633f4ba83a146100e1575b600080fd5b6100cb610171565b6040516100d89190611d56565b60405180910390f35b6100e961018d565b005b6100e96100f9366004611cce565b610492565b61011161010c366004611d26565b610656565b6040516100d89190611d82565b6101266106ed565b6040516100d89190611d77565b6100e9610141366004611d26565b6106f6565b6100e9610154366004611c8f565b6109b1565b6100e9610c53565b610111610f4c565b6100cb610f52565b60985473ffffffffffffffffffffffffffffffffffffffff1681565b609754604080517fc8cc243f000000000000000000000000000000000000000000000000000000008152905160009273ffffffffffffffffffffffffffffffffffffffff169163c8cc243f916004808301926020929190829003018186803b1580156101f857600080fd5b505afa15801561020c573d6000803e3d6000fd5b505050506040513d601f19601f820116820180604052508101906102309190611cb2565b90508073ffffffffffffffffffffffffffffffffffffffff166391d148548273ffffffffffffffffffffffffffffffffffffffff1663e58378bb6040518163ffffffff1660e01b815260040160206040518083038186803b15801561029457600080fd5b505afa1580156102a8573d6000803e3d6000fd5b505050506040513d601f19601f820116820180604052508101906102cc9190611d3e565b336040518363ffffffff1660e01b81526004016102ea929190611d8b565b60206040518083038186803b15801561030257600080fd5b505afa158015610316573d6000803e3d6000fd5b505050506040513d601f19601f8201168201806040525081019061033a9190611d06565b8061044857508073ffffffffffffffffffffffffffffffffffffffff166391d148548273ffffffffffffffffffffffffffffffffffffffff1663b536818a6040518163ffffffff1660e01b815260040160206040518083038186803b1580156103a257600080fd5b505afa1580156103b6573d6000803e3d6000fd5b505050506040513d601f19601f820116820180604052508101906103da9190611d3e565b336040518363ffffffff1660e01b81526004016103f8929190611d8b565b60206040518083038186803b15801561041057600080fd5b505afa158015610424573d6000803e3d6000fd5b505050506040513d601f19601f820116820180604052508101906104489190611d06565b610487576040517f08c379a000000000000000000000000000000000000000000000000000000000815260040161047e90612051565b60405180910390fd5b61048f610f6e565b50565b600054610100900460ff16806104ab57506104ab611014565b806104b9575060005460ff16155b6104ef576040517f08c379a000000000000000000000000000000000000000000000000000000000815260040161047e90611ff4565b600054610100900460ff1615801561055557600080547fffffffffffffffffffffffffffffffffffffffffffffffffffffffffffffff007fffffffffffffffffffffffffffffffffffffffffffffffffffffffffffff00ff909116610100171660011790555b61055d611025565b610565611129565b609780547fffffffffffffffffffffffff00000000000000000000000000000000000000001673ffffffffffffffffffffffffffffffffffffffff8581169190911790915582166105e2576040517f08c379a000000000000000000000000000000000000000000000000000000000815260040161047e906120bf565b609880547fffffffffffffffffffffffff00000000000000000000000000000000000000001673ffffffffffffffffffffffffffffffffffffffff8416179055801561065157600080547fffffffffffffffffffffffffffffffffffffffffffffffffffffffffffff00ff1690555b505050565b60006106606106ed565b15610697576040517f08c379a000000000000000000000000000000000000000000000000000000000815260040161047e90611fbd565b600260655414156106d4576040517f08c379a000000000000000000000000000000000000000000000000000000000815260040161047e90612088565b60026065556106e2826111f4565b600160655592915050565b60335460ff1690565b609754604080517fc8cc243f000000000000000000000000000000000000000000000000000000008152905160009273ffffffffffffffffffffffffffffffffffffffff169163c8cc243f916004808301926020929190829003018186803b15801561076157600080fd5b505afa158015610775573d6000803e3d6000fd5b505050506040513d601f19601f820116820180604052508101906107999190611cb2565b90508073ffffffffffffffffffffffffffffffffffffffff166391d148548273ffffffffffffffffffffffffffffffffffffffff1663e58378bb6040518163ffffffff1660e01b815260040160206040518083038186803b1580156107fd57600080fd5b505afa158015610811573d6000803e3d6000fd5b505050506040513d601f19601f820116820180604052508101906108359190611d3e565b336040518363ffffffff1660e01b8152600401610853929190611d8b565b60206040518083038186803b15801561086b57600080fd5b505afa15801561087f573d6000803e3d6000fd5b505050506040513d601f19601f820116820180604052508101906108a39190611d06565b6108d9576040517f08c379a000000000000000000000000000000000000000000000000000000000815260040161047e90611ddb565b8115806108f257506b033b2e3c9fd0803ce80000008210155b610928576040517f08c379a000000000000000000000000000000000000000000000000000000000815260040161047e90611ea6565b6b033b2e3d523e808a07fcdc0b82111561096e576040517f08c379a000000000000000000000000000000000000000000000000000000000815260040161047e90611f03565b609982905560405133907f86f297ca1817ba3695e4c5b0c81901d82dac7eb4343b99299b29c39fa2f685fa906109a5908590611d82565b60405180910390a25050565b609754604080517fc8cc243f000000000000000000000000000000000000000000000000000000008152905160009273ffffffffffffffffffffffffffffffffffffffff169163c8cc243f916004808301926020929190829003018186803b158015610a1c57600080fd5b505afa158015610a30573d6000803e3d6000fd5b505050506040513d601f19601f82011682018060405250810190610a549190611cb2565b90508073ffffffffffffffffffffffffffffffffffffffff166391d148548273ffffffffffffffffffffffffffffffffffffffff1663e58378bb6040518163ffffffff1660e01b815260040160206040518083038186803b158015610ab857600080fd5b505afa158015610acc573d6000803e3d6000fd5b505050506040513d601f19601f82011682018060405250810190610af09190611d3e565b336040518363ffffffff1660e01b8152600401610b0e929190611d8b565b60206040518083038186803b158015610b2657600080fd5b505afa158015610b3a573d6000803e3d6000fd5b505050506040513d601f19601f82011682018060405250810190610b5e9190611d06565b610b94576040517f08c379a000000000000000000000000000000000000000000000000000000000815260040161047e90611ddb565b73ffffffffffffffffffffffffffffffffffffffff8216610be1576040517f08c379a000000000000000000000000000000000000000000000000000000000815260040161047e906120bf565b609880547fffffffffffffffffffffffff00000000000000000000000000000000000000001673ffffffffffffffffffffffffffffffffffffffff841617905560405133907f28c02b7fb4c1c94c7b73df5dd0863593970575d3a1faf5271e73ee27155c4021906109a5908590611d56565b609754604080517fc8cc243f000000000000000000000000000000000000000000000000000000008152905160009273ffffffffffffffffffffffffffffffffffffffff169163c8cc243f916004808301926020929190829003018186803b158015610cbe57600080fd5b505afa158015610cd2573d6000803e3d6000fd5b505050506040513d601f19601f82011682018060405250810190610cf69190611cb2565b90508073ffffffffffffffffffffffffffffffffffffffff166391d148548273ffffffffffffffffffffffffffffffffffffffff1663e58378bb6040518163ffffffff1660e01b815260040160206040518083038186803b158015610d5a57600080fd5b505afa158015610d6e573d6000803e3d6000fd5b505050506040513d601f19601f82011682018060405250810190610d929190611d3e565b336040518363ffffffff1660e01b8152600401610db0929190611d8b565b60206040518083038186803b158015610dc857600080fd5b505afa158015610ddc573d6000803e3d6000fd5b505050506040513d601f19601f82011682018060405250810190610e009190611d06565b80610f0e57508073ffffffffffffffffffffffffffffffffffffffff166391d148548273ffffffffffffffffffffffffffffffffffffffff1663b536818a6040518163ffffffff1660e01b815260040160206040518083038186803b158015610e6857600080fd5b505afa158015610e7c573d6000803e3d6000fd5b505050506040513d601f19601f82011682018060405250810190610ea09190611d3e565b336040518363ffffffff1660e01b8152600401610ebe929190611d8b565b60206040518083038186803b158015610ed657600080fd5b505afa158015610eea573d6000803e3d6000fd5b505050506040513d601f19601f82011682018060405250810190610f0e9190611d06565b610f44576040517f08c379a000000000000000000000000000000000000000000000000000000000815260040161047e90612051565b61048f6117c6565b60995481565b60975473ffffffffffffffffffffffffffffffffffffffff1681565b610f766106ed565b610fac576040517f08c379a000000000000000000000000000000000000000000000000000000000815260040161047e90611e6f565b603380547fffffffffffffffffffffffffffffffffffffffffffffffffffffffffffffff001690557f5db9ee0a495bf2e6ff9c91a7834c1ba4fdd244a5e8aa4e537bd38aeae4b073aa610ffd611855565b60405161100a9190611d56565b60405180910390a1565b600061101f30611859565b15905090565b600054610100900460ff168061103e575061103e611014565b8061104c575060005460ff16155b611082576040517f08c379a000000000000000000000000000000000000000000000000000000000815260040161047e90611ff4565b600054610100900460ff161580156110e857600080547fffffffffffffffffffffffffffffffffffffffffffffffffffffffffffffff007fffffffffffffffffffffffffffffffffffffffffffffffffffffffffffff00ff909116610100171660011790555b6110f061185f565b6110f8611952565b801561048f57600080547fffffffffffffffffffffffffffffffffffffffffffffffffffffffffffff00ff16905550565b600054610100900460ff16806111425750611142611014565b80611150575060005460ff16155b611186576040517f08c379a000000000000000000000000000000000000000000000000000000000815260040161047e90611ff4565b600054610100900460ff161580156111ec57600080547fffffffffffffffffffffffffffffffffffffffffffffffffffffffffffffff007fffffffffffffffffffffffffffffffffffffffffffffffffffffffffffff00ff909116610100171660011790555b6110f8611a6e565b600080609760009054906101000a900473ffffffffffffffffffffffffffffffffffffffff1673ffffffffffffffffffffffffffffffffffffffff1663d86824616040518163ffffffff1660e01b815260040160206040518083038186803b15801561125f57600080fd5b505afa158015611273573d6000803e3d6000fd5b505050506040513d601f19601f820116820180604052508101906112979190611cb2565b73ffffffffffffffffffffffffffffffffffffffff1663a09b0fe0846040518263ffffffff1660e01b81526004016112cf9190611d82565b60206040518083038186803b1580156112e757600080fd5b505afa1580156112fb573d6000803e3d6000fd5b505050506040513d601f19601f8201168201806040525081019061131f9190611d3e565b90506000609760009054906101000a900473ffffffffffffffffffffffffffffffffffffffff1673ffffffffffffffffffffffffffffffffffffffff1663d86824616040518163ffffffff1660e01b815260040160206040518083038186803b15801561138b57600080fd5b505afa15801561139f573d6000803e3d6000fd5b505050506040513d601f19601f820116820180604052508101906113c39190611cb2565b73ffffffffffffffffffffffffffffffffffffffff16631fea158d856040518263ffffffff1660e01b81526004016113fb9190611d82565b60206040518083038186803b15801561141357600080fd5b505afa158015611427573d6000803e3d6000fd5b505050506040513d601f19601f8201168201806040525081019061144b9190611d3e565b90506000609760009054906101000a900473ffffffffffffffffffffffffffffffffffffffff1673ffffffffffffffffffffffffffffffffffffffff1663d86824616040518163ffffffff1660e01b815260040160206040518083038186803b1580156114b757600080fd5b505afa1580156114cb573d6000803e3d6000fd5b505050506040513d601f19601f820116820180604052508101906114ef9190611cb2565b73ffffffffffffffffffffffffffffffffffffffff1663bbd112a5866040518263ffffffff1660e01b81526004016115279190611d82565b60206040518083038186803b15801561153f57600080fd5b505afa158015611553573d6000803e3d6000fd5b505050506040513d601f19601f820116820180604052508101906115779190611d3e565b9050804210156115b3576040517f08c379a000000000000000000000000000000000000000000000000000000000815260040161047e90611e12565b60985473ffffffffffffffffffffffffffffffffffffffff16611602576040517f08c379a000000000000000000000000000000000000000000000000000000000815260040161047e90611f60565b61162f61162961161460995485611b67565b8342036b033b2e3c9fd0803ce8000000611b7d565b84611c3b565b60975460985491955073ffffffffffffffffffffffffffffffffffffffff908116916390d53639918891166116648888611c71565b6040518463ffffffff1660e01b815260040161168293929190611daf565b600060405180830381600087803b15801561169c57600080fd5b505af11580156116b0573d6000803e3d6000fd5b50505050609760009054906101000a900473ffffffffffffffffffffffffffffffffffffffff1673ffffffffffffffffffffffffffffffffffffffff1663d86824616040518163ffffffff1660e01b815260040160206040518083038186803b15801561171c57600080fd5b505afa158015611730573d6000803e3d6000fd5b505050506040513d601f19601f820116820180604052508101906117549190611cb2565b73ffffffffffffffffffffffffffffffffffffffff1663e73eb92e866040518263ffffffff1660e01b815260040161178c9190611d82565b600060405180830381600087803b1580156117a657600080fd5b505af11580156117ba573d6000803e3d6000fd5b50505050505050919050565b6117ce6106ed565b15611805576040517f08c379a000000000000000000000000000000000000000000000000000000000815260040161047e90611fbd565b603380547fffffffffffffffffffffffffffffffffffffffffffffffffffffffffffffff001660011790557f62e78cea01bee320cd4e420270b5ea74000d11b0c9f74754ebdbfc544b05a258610ffd5b3390565b3b151590565b600054610100900460ff16806118785750611878611014565b80611886575060005460ff16155b6118bc576040517f08c379a000000000000000000000000000000000000000000000000000000000815260040161047e90611ff4565b600054610100900460ff161580156110f857600080547fffffffffffffffffffffffffffffffffffffffffffffffffffffffffffffff007fffffffffffffffffffffffffffffffffffffffffffffffffffffffffffff00ff90911661010017166001179055801561048f57600080547fffffffffffffffffffffffffffffffffffffffffffffffffffffffffffff00ff16905550565b600054610100900460ff168061196b575061196b611014565b80611979575060005460ff16155b6119af576040517f08c379a000000000000000000000000000000000000000000000000000000000815260040161047e90611ff4565b600054610100900460ff16158015611a1557600080547fffffffffffffffffffffffffffffffffffffffffffffffffffffffffffffff007fffffffffffffffffffffffffffffffffffffffffffffffffffffffffffff00ff909116610100171660011790555b603380547fffffffffffffffffffffffffffffffffffffffffffffffffffffffffffffff00169055801561048f57600080547fffffffffffffffffffffffffffffffffffffffffffffffffffffffffffff00ff16905550565b600054610100900460ff1680611a875750611a87611014565b80611a95575060005460ff16155b611acb576040517f08c379a000000000000000000000000000000000000000000000000000000000815260040161047e90611ff4565b600054610100900460ff16158015611b3157600080547fffffffffffffffffffffffffffffffffffffffffffffffffffffffffffffff007fffffffffffffffffffffffffffffffffffffffffffffffffffffffffffff00ff909116610100171660011790555b6001606555801561048f57600080547fffffffffffffffffffffffffffffffffffffffffffffffffffffffffffff00ff16905550565b81810182811015611b7757600080fd5b92915050565b6000838015611c1d57600184168015611b9857859250611b9c565b8392505b50600283046002850494505b8415611c17578586028687820414611bbf57600080fd5b81810181811015611bcf57600080fd5b8590049650506001851615611c0c578583028387820414158715151615611bf557600080fd5b81810181811015611c0557600080fd5b8590049350505b600285049450611ba8565b50611c33565b838015611c2d5760009250611c31565b8392505b505b509392505050565b818102811580611c53575082828281611c5057fe5b04145b611c5c57600080fd5b6b033b2e3c9fd0803ce8000000900492915050565b80820360008312801590611c86575060008212155b611b7757600080fd5b600060208284031215611ca0578081fd5b8135611cab8161211c565b9392505050565b600060208284031215611cc3578081fd5b8151611cab8161211c565b60008060408385031215611ce0578081fd5b8235611ceb8161211c565b91506020830135611cfb8161211c565b809150509250929050565b600060208284031215611d17578081fd5b81518015158114611cab578182fd5b600060208284031215611d37578081fd5b5035919050565b600060208284031215611d4f578081fd5b5051919050565b73ffffffffffffffffffffffffffffffffffffffff91909116815260200190565b901515815260200190565b90815260200190565b91825273ffffffffffffffffffffffffffffffffffffffff16602082015260400190565b92835273ffffffffffffffffffffffffffffffffffffffff919091166020830152604082015260600190565b6020808252600a908201527f216f776e6572526f6c6500000000000000000000000000000000000000000000604082015260600190565b60208082526021908201527f53746162696c697479466565436f6c6c6563746f722f696e76616c69642d6e6f60408201527f7700000000000000000000000000000000000000000000000000000000000000606082015260800190565b60208082526014908201527f5061757361626c653a206e6f7420706175736564000000000000000000000000604082015260600190565b60208082526030908201527f53746162696c697479466565436f6c6c6563746f722f696e76616c69642d737460408201527f6162696c6974792d6665652d7261746500000000000000000000000000000000606082015260800190565b60208082526032908201527f53746162696c697479466565436f6c6c6563746f722f73746162696c6974792d60408201527f6665652d726174652d746f6f2d6c617267650000000000000000000000000000606082015260800190565b60208082526030908201527f53746162696c697479466565436f6c6c6563746f722f73797374656d2d64656260408201527f742d656e67696e652d6e6f742d73657400000000000000000000000000000000606082015260800190565b60208082526010908201527f5061757361626c653a2070617573656400000000000000000000000000000000604082015260600190565b6020808252602e908201527f496e697469616c697a61626c653a20636f6e747261637420697320616c72656160408201527f647920696e697469616c697a6564000000000000000000000000000000000000606082015260800190565b60208082526017908201527f21286f776e6572526f6c65206f7220676f76526f6c6529000000000000000000604082015260600190565b6020808252601f908201527f5265656e7472616e637947756172643a207265656e7472616e742063616c6c00604082015260600190565b60208082526034908201527f53746162696c697479466565436f6c6c6563746f722f6261642d73797374656d60408201527f2d646562742d656e67696e652d61646472657373000000000000000000000000606082015260800190565b73ffffffffffffffffffffffffffffffffffffffff8116811461048f57600080fdfea26469706673582212202c2d5b60e4fed945ed9d8446b7dee3e9d63e73c9b5c1316acbe363e287bf84ee64736f6c634300060c0033",
  "linkReferences": {},
  "deployedLinkReferences": {}
}