{
  "_format": "hh-sol-artifact-1",
  "contractName": "ChainLink",
  "sourceName": "contracts/vaults/ChainLink.sol",
  "abi": [
    {
      "inputs": [],
      "stateMutability": "nonpayable",
      "type": "constructor"
    },
    {
      "anonymous": false,
      "inputs": [
        {
          "indexed": true,
          "internalType": "address",
          "name": "oldAdmin",
          "type": "address"
        },
        {
          "indexed": true,
          "internalType": "address",
          "name": "newAdmin",
          "type": "address"
        }
      ],
      "name": "AdminChanged",
      "type": "event"
    },
    {
      "anonymous": false,
      "inputs": [
        {
          "indexed": true,
          "internalType": "address",
          "name": "assetAddress",
          "type": "address"
        },
        {
          "indexed": true,
          "internalType": "address",
          "name": "priceFeedContract",
          "type": "address"
        }
      ],
      "name": "AssetAdded",
      "type": "event"
    },
    {
      "anonymous": false,
      "inputs": [
        {
          "indexed": true,
          "internalType": "address",
          "name": "assetAddress",
          "type": "address"
        }
      ],
      "name": "AssetRemoved",
      "type": "event"
    },
    {
      "anonymous": false,
      "inputs": [
        {
          "indexed": false,
          "internalType": "bool",
          "name": "currentStatus",
          "type": "bool"
        }
      ],
      "name": "ContractPausedOrUnpaused",
      "type": "event"
    },
    {
      "inputs": [
        {
          "internalType": "address",
          "name": "assetAddress",
          "type": "address"
        },
        {
          "internalType": "address",
          "name": "priceFeedContract",
          "type": "address"
        }
      ],
      "name": "addAsset",
      "outputs": [],
      "stateMutability": "nonpayable",
      "type": "function"
    },
    {
      "inputs": [],
      "name": "admin",
      "outputs": [
        {
          "internalType": "address",
          "name": "",
          "type": "address"
        }
      ],
      "stateMutability": "view",
      "type": "function"
    },
    {
      "inputs": [
        {
          "internalType": "address",
          "name": "newAdmin",
          "type": "address"
        }
      ],
      "name": "changeAdmin",
      "outputs": [],
      "stateMutability": "nonpayable",
      "type": "function"
    },
    {
      "inputs": [
        {
          "internalType": "address",
          "name": "asset",
          "type": "address"
        }
      ],
      "name": "getAssetPrice",
      "outputs": [
        {
          "internalType": "uint256",
          "name": "",
          "type": "uint256"
        },
        {
          "internalType": "uint8",
          "name": "",
          "type": "uint8"
        }
      ],
      "stateMutability": "view",
      "type": "function"
    },
    {
      "inputs": [],
      "name": "paused",
      "outputs": [
        {
          "internalType": "bool",
          "name": "",
          "type": "bool"
        }
      ],
      "stateMutability": "view",
      "type": "function"
    },
    {
      "inputs": [
        {
          "internalType": "address",
          "name": "assetAddress",
          "type": "address"
        }
      ],
      "name": "removeAsset",
      "outputs": [],
      "stateMutability": "nonpayable",
      "type": "function"
    },
    {
      "inputs": [],
      "name": "togglePause",
      "outputs": [],
      "stateMutability": "nonpayable",
      "type": "function"
    }
  ],
  "bytecode": "0x60806040526001805460ff60a01b1916905534801561001d57600080fd5b50600180546001600160a01b03191633179055610c768061003f6000396000f3fe608060405234801561001057600080fd5b506004361061007d5760003560e01c8063b3596f071161005b578063b3596f07146100e4578063c4ae31681461010e578063da48999714610116578063f851a4401461012957600080fd5b80634a5e42b1146100825780635c975abb146100975780638f283970146100d1575b600080fd5b610095610090366004610b20565b61016e565b005b6001546100bc9074010000000000000000000000000000000000000000900460ff1681565b60405190151581526020015b60405180910390f35b6100956100df366004610b20565b610331565b6100f76100f2366004610b20565b610509565b6040805192835260ff9091166020830152016100c8565b6100956107d5565b610095610124366004610b42565b61090e565b6001546101499073ffffffffffffffffffffffffffffffffffffffff1681565b60405173ffffffffffffffffffffffffffffffffffffffff90911681526020016100c8565b60015473ffffffffffffffffffffffffffffffffffffffff16331461021a576040517f08c379a000000000000000000000000000000000000000000000000000000000815260206004820152602960248201527f4f6e6c79207468652041646d696e2063616e20706572666f726d20746869732060448201527f6f7065726174696f6e000000000000000000000000000000000000000000000060648201526084015b60405180910390fd5b73ffffffffffffffffffffffffffffffffffffffff81166102bd576040517f08c379a000000000000000000000000000000000000000000000000000000000815260206004820152602a60248201527f4173736574206f72205072696365204665656420616464726573732063616e6e60448201527f6f742062652030783030000000000000000000000000000000000000000000006064820152608401610211565b73ffffffffffffffffffffffffffffffffffffffff811660008181526020819052604080822080547fffffffffffffffffffffffff0000000000000000000000000000000000000000169055517f37803e2125c48ee96c38ddf04e826daf335b0e1603579040fd275aba6d06b6fc9190a250565b60015473ffffffffffffffffffffffffffffffffffffffff1633146103d8576040517f08c379a000000000000000000000000000000000000000000000000000000000815260206004820152602960248201527f4f6e6c79207468652041646d696e2063616e20706572666f726d20746869732060448201527f6f7065726174696f6e00000000000000000000000000000000000000000000006064820152608401610211565b73ffffffffffffffffffffffffffffffffffffffff811661047b576040517f08c379a000000000000000000000000000000000000000000000000000000000815260206004820152602a60248201527f4173736574206f72205072696365204665656420616464726573732063616e6e60448201527f6f742062652030783030000000000000000000000000000000000000000000006064820152608401610211565b60015460405173ffffffffffffffffffffffffffffffffffffffff8084169216907f7e644d79422f17c01e4894b5f4f588d331ebfa28653d42ae832dc59e38c9798f90600090a3600180547fffffffffffffffffffffffff00000000000000000000000000000000000000001673ffffffffffffffffffffffffffffffffffffffff92909216919091179055565b60008060008373ffffffffffffffffffffffffffffffffffffffff1663313ce5676040518163ffffffff1660e01b815260040160206040518083038186803b15801561055457600080fd5b505afa158015610568573d6000803e3d6000fd5b505050506040513d601f19601f8201168201806040525081019061058c9190610b75565b60015490915074010000000000000000000000000000000000000000900460ff161580156105e0575073ffffffffffffffffffffffffffffffffffffffff8481166000908152602081905260409020541615155b156107ca5773ffffffffffffffffffffffffffffffffffffffff8085166000908152602081905260408082205481517ffeaf968c000000000000000000000000000000000000000000000000000000008152915192938493849384938493169163feaf968c9160048082019260a092909190829003018186803b15801561066657600080fd5b505afa15801561067a573d6000803e3d6000fd5b505050506040513d601f19601f8201168201806040525081019061069e9190610bb2565b94509450945094509450620151e4426106b79190610c02565b821161071f576040517f08c379a000000000000000000000000000000000000000000000000000000000815260206004820152600a60248201527f5374616c652064617461000000000000000000000000000000000000000000006044820152606401610211565b8469ffffffffffffffffffff168169ffffffffffffffffffff1610156107a1576040517f08c379a000000000000000000000000000000000000000000000000000000000815260206004820152600a60248201527f5374616c652044617461000000000000000000000000000000000000000000006044820152606401610211565b60008413156107b95750919793965092945050505050565b506000989497509395505050505050565b600094909350915050565b60015473ffffffffffffffffffffffffffffffffffffffff16331461087c576040517f08c379a000000000000000000000000000000000000000000000000000000000815260206004820152602960248201527f4f6e6c79207468652041646d696e2063616e20706572666f726d20746869732060448201527f6f7065726174696f6e00000000000000000000000000000000000000000000006064820152608401610211565b6001805460ff7401000000000000000000000000000000000000000080830482161581027fffffffffffffffffffffff00ffffffffffffffffffffffffffffffffffffffff90931692909217928390556040517fa9e5183118bdddbf7f4ee6ff0e1449dbd554da04ba2fa6cbd50e230993e7a0cc936109049390049091161515815260200190565b60405180910390a1565b60015473ffffffffffffffffffffffffffffffffffffffff1633146109b5576040517f08c379a000000000000000000000000000000000000000000000000000000000815260206004820152602960248201527f4f6e6c79207468652041646d696e2063616e20706572666f726d20746869732060448201527f6f7065726174696f6e00000000000000000000000000000000000000000000006064820152608401610211565b73ffffffffffffffffffffffffffffffffffffffff8216158015906109ef575073ffffffffffffffffffffffffffffffffffffffff811615155b610a7b576040517f08c379a000000000000000000000000000000000000000000000000000000000815260206004820152602a60248201527f4173736574206f72205072696365204665656420616464726573732063616e6e60448201527f6f742062652030783030000000000000000000000000000000000000000000006064820152608401610211565b73ffffffffffffffffffffffffffffffffffffffff82811660008181526020819052604080822080547fffffffffffffffffffffffff0000000000000000000000000000000000000000169486169485179055517f0bb5715f0f217c2fe9a0c877ea87d474380c641102f3440ee2a4c8b9d97909189190a35050565b803573ffffffffffffffffffffffffffffffffffffffff81168114610b1b57600080fd5b919050565b600060208284031215610b3257600080fd5b610b3b82610af7565b9392505050565b60008060408385031215610b5557600080fd5b610b5e83610af7565b9150610b6c60208401610af7565b90509250929050565b600060208284031215610b8757600080fd5b815160ff81168114610b3b57600080fd5b805169ffffffffffffffffffff81168114610b1b57600080fd5b600080600080600060a08688031215610bca57600080fd5b610bd386610b98565b9450602086015193506040860151925060608601519150610bf660808701610b98565b90509295509295909350565b600082821015610c3b577f4e487b7100000000000000000000000000000000000000000000000000000000600052601160045260246000fd5b50039056fea2646970667358221220c07b18a2b8fe54a16131f406a4286c60a56f793b256d439b658822f1d9156b1064736f6c63430008090033",
  "linkReferences": {},
  "deployedLinkReferences": {}
}