{
  "_format": "hh-sol-artifact-1",
  "contractName": "BookKeeperFlashMintArbitrager",
  "sourceName": "contracts/stablecoin/mocks/BookKeeperFlashMintArbitrager.sol",
  "abi": [
    {
      "anonymous": false,
      "inputs": [
        {
          "indexed": true,
          "internalType": "address",
          "name": "previousOwner",
          "type": "address"
        },
        {
          "indexed": true,
          "internalType": "address",
          "name": "newOwner",
          "type": "address"
        }
      ],
      "name": "OwnershipTransferred",
      "type": "event"
    },
    {
      "inputs": [
        {
          "internalType": "address",
          "name": "_stablecoin",
          "type": "address"
        }
      ],
      "name": "initialize",
      "outputs": [],
      "stateMutability": "nonpayable",
      "type": "function"
    },
    {
      "inputs": [
        {
          "internalType": "address",
          "name": "initiator",
          "type": "address"
        },
        {
          "internalType": "uint256",
          "name": "loanValue",
          "type": "uint256"
        },
        {
          "internalType": "uint256",
          "name": "fee",
          "type": "uint256"
        },
        {
          "internalType": "bytes",
          "name": "data",
          "type": "bytes"
        }
      ],
      "name": "onBookKeeperFlashLoan",
      "outputs": [
        {
          "internalType": "bytes32",
          "name": "",
          "type": "bytes32"
        }
      ],
      "stateMutability": "nonpayable",
      "type": "function"
    },
    {
      "inputs": [],
      "name": "owner",
      "outputs": [
        {
          "internalType": "address",
          "name": "",
          "type": "address"
        }
      ],
      "stateMutability": "view",
      "type": "function"
    },
    {
      "inputs": [],
      "name": "renounceOwnership",
      "outputs": [],
      "stateMutability": "nonpayable",
      "type": "function"
    },
    {
      "inputs": [],
      "name": "stablecoin",
      "outputs": [
        {
          "internalType": "address",
          "name": "",
          "type": "address"
        }
      ],
      "stateMutability": "view",
      "type": "function"
    },
    {
      "inputs": [
        {
          "internalType": "address",
          "name": "newOwner",
          "type": "address"
        }
      ],
      "name": "transferOwnership",
      "outputs": [],
      "stateMutability": "nonpayable",
      "type": "function"
    }
  ],
  "bytecode": "0x608060405234801561001057600080fd5b50611a5c806100206000396000f3fe608060405234801561001057600080fd5b50600436106100725760003560e01c8063c4d66de811610050578063c4d66de81461015d578063e9cbd82214610190578063f2fde38b1461019857610072565b8063715018a6146100775780638da5cb5b14610081578063acb55468146100b2575b600080fd5b61007f6101cb565b005b6100896102e2565b6040805173ffffffffffffffffffffffffffffffffffffffff9092168252519081900360200190f35b61014b600480360360808110156100c857600080fd5b73ffffffffffffffffffffffffffffffffffffffff823516916020810135916040820135919081019060808101606082013564010000000081111561010c57600080fd5b82018360208201111561011e57600080fd5b8035906020019184600183028401116401000000008311171561014057600080fd5b5090925090506102fe565b60408051918252519081900360200190f35b61007f6004803603602081101561017357600080fd5b503573ffffffffffffffffffffffffffffffffffffffff16610ecb565b610089611028565b61007f600480360360208110156101ae57600080fd5b503573ffffffffffffffffffffffffffffffffffffffff16611044565b6101d36111e6565b73ffffffffffffffffffffffffffffffffffffffff166101f16102e2565b73ffffffffffffffffffffffffffffffffffffffff161461027357604080517f08c379a000000000000000000000000000000000000000000000000000000000815260206004820181905260248201527f4f776e61626c653a2063616c6c6572206973206e6f7420746865206f776e6572604482015290519081900360640190fd5b60335460405160009173ffffffffffffffffffffffffffffffffffffffff16907f8be0079c531659141344cd1fd0a4f28419497f9722a3daafe3b4186f6b6457e0908390a3603380547fffffffffffffffffffffffff0000000000000000000000000000000000000000169055565b60335473ffffffffffffffffffffffffffffffffffffffff1690565b60006103086119b2565b8383606081101561031857600080fd5b5060408181013573ffffffffffffffffffffffffffffffffffffffff90811684830152602080840135821690850152913590911682528051600280825260608281019093528160200160208202803683375050606554825192935073ffffffffffffffffffffffffffffffffffffffff169183915060009061039657fe5b602002602001019073ffffffffffffffffffffffffffffffffffffffff16908173ffffffffffffffffffffffffffffffffffffffff16815250508160200151816001815181106103e257fe5b73ffffffffffffffffffffffffffffffffffffffff9092166020928302919091019091015260006b033b2e3c9fd0803ce800000088049050826040015173ffffffffffffffffffffffffffffffffffffffff166346a311d36040518163ffffffff1660e01b815260040160206040518083038186803b15801561046457600080fd5b505afa158015610478573d6000803e3d6000fd5b505050506040513d602081101561048e57600080fd5b5051604080517fe3b3932a000000000000000000000000000000000000000000000000000000008152905173ffffffffffffffffffffffffffffffffffffffff9092169163e3b3932a916004808201926020929091908290030181600087803b1580156104fa57600080fd5b505af115801561050e573d6000803e3d6000fd5b505050506040513d602081101561052457600080fd5b505160408085015181517f46a311d3000000000000000000000000000000000000000000000000000000008152915173ffffffffffffffffffffffffffffffffffffffff93841693639b19251a939216916346a311d3916004808301926020929190829003018186803b15801561059a57600080fd5b505afa1580156105ae573d6000803e3d6000fd5b505050506040513d60208110156105c457600080fd5b5051604080517fffffffff0000000000000000000000000000000000000000000000000000000060e085901b16815273ffffffffffffffffffffffffffffffffffffffff909216600483015251602480830192600092919082900301818387803b15801561063157600080fd5b505af1158015610645573d6000803e3d6000fd5b50505050826040015173ffffffffffffffffffffffffffffffffffffffff166346a311d36040518163ffffffff1660e01b815260040160206040518083038186803b15801561069357600080fd5b505afa1580156106a7573d6000803e3d6000fd5b505050506040513d60208110156106bd57600080fd5b50516040805160006020828101829052835180840382018152838501948590527f31f0926500000000000000000000000000000000000000000000000000000000909452306044840181815260648501889052606060848601908152865160a4870152865173ffffffffffffffffffffffffffffffffffffffff909816976331f092659793968a9694959394929360c49091019290860191908190849084905b8381101561077557818101518382015260200161075d565b50505050905090810190601f1680156107a25780820380516001836020036101000a031916815260200191505b50945050505050600060405180830381600087803b1580156107c357600080fd5b505af11580156107d7573d6000803e3d6000fd5b505050506000610800846020015173ffffffffffffffffffffffffffffffffffffffff166111ea565b84516065549192506108499173ffffffffffffffffffffffffffffffffffffffff16907fffffffffffffffffffffffffffffffffffffffffffffffffffffffffffffffff611285565b836000015173ffffffffffffffffffffffffffffffffffffffff166338ed17398360008630426040518663ffffffff1660e01b815260040180868152602001858152602001806020018473ffffffffffffffffffffffffffffffffffffffff168152602001838152602001828103825285818151815260200191508051906020019060200280838360005b838110156108ec5781810151838201526020016108d4565b505050509050019650505050505050600060405180830381600087803b15801561091557600080fd5b505af1158015610929573d6000803e3d6000fd5b505050506040513d6000823e601f3d9081017fffffffffffffffffffffffffffffffffffffffffffffffffffffffffffffffe0168201604052602081101561097057600080fd5b810190808051604051939291908464010000000082111561099057600080fd5b9083019060208201858111156109a557600080fd5b82518660208202830111640100000000821117156109c257600080fd5b82525081516020918201928201910280838360005b838110156109ef5781810151838201526020016109d7565b505050509190910160405250508651606554610a27945073ffffffffffffffffffffffffffffffffffffffff16925090506000611285565b6000610a4c856020015173ffffffffffffffffffffffffffffffffffffffff166111ea565b9050610b09856040015173ffffffffffffffffffffffffffffffffffffffff1663e723b9776040518163ffffffff1660e01b815260040160206040518083038186803b158015610a9b57600080fd5b505afa158015610aaf573d6000803e3d6000fd5b505050506040513d6020811015610ac557600080fd5b5051602087015173ffffffffffffffffffffffffffffffffffffffff16907fffffffffffffffffffffffffffffffffffffffffffffffffffffffffffffffff611285565b604085015173ffffffffffffffffffffffffffffffffffffffff166340853dce30610b348486611462565b6040518363ffffffff1660e01b8152600401808373ffffffffffffffffffffffffffffffffffffffff16815260200182815260200192505050600060405180830381600087803b158015610b8757600080fd5b505af1158015610b9b573d6000803e3d6000fd5b50505050610c3b856040015173ffffffffffffffffffffffffffffffffffffffff1663e723b9776040518163ffffffff1660e01b815260040160206040518083038186803b158015610bec57600080fd5b505afa158015610c00573d6000803e3d6000fd5b505050506040513d6020811015610c1657600080fd5b5051602087015173ffffffffffffffffffffffffffffffffffffffff16906000611285565b610cf4856040015173ffffffffffffffffffffffffffffffffffffffff166346a311d36040518163ffffffff1660e01b815260040160206040518083038186803b158015610c8857600080fd5b505afa158015610c9c573d6000803e3d6000fd5b505050506040513d6020811015610cb257600080fd5b5051610cd4610ccd8c6b033b2e3c9fd0803ce80000006114d9565b869061155a565b60655473ffffffffffffffffffffffffffffffffffffffff169190611285565b846040015173ffffffffffffffffffffffffffffffffffffffff166346a311d36040518163ffffffff1660e01b815260040160206040518083038186803b158015610d3e57600080fd5b505afa158015610d52573d6000803e3d6000fd5b505050506040513d6020811015610d6857600080fd5b505173ffffffffffffffffffffffffffffffffffffffff166349bdc2b833610da6610d9f8d6b033b2e3c9fd0803ce80000006114d9565b879061155a565b6000604051602001808281526020019150506040516020818303038152906040526040518463ffffffff1660e01b8152600401808473ffffffffffffffffffffffffffffffffffffffff16815260200183815260200180602001828103825283818151815260200191508051906020019080838360005b83811015610e35578181015183820152602001610e1d565b50505050905090810190601f168015610e625780820380516001836020036101000a031916815260200191505b50945050505050600060405180830381600087803b158015610e8357600080fd5b505af1158015610e97573d6000803e3d6000fd5b507f0a749ded14b97653a44d6e6b0b8342c23ed955e329d919b01a4ee7ef7907f64c9e9d5050505050505050505050505050565b600054610100900460ff1680610ee45750610ee46115d5565b80610ef2575060005460ff16155b610f47576040517f08c379a000000000000000000000000000000000000000000000000000000000815260040180806020018281038252602e8152602001806119f9602e913960400191505060405180910390fd5b600054610100900460ff16158015610fad57600080547fffffffffffffffffffffffffffffffffffffffffffffffffffffffffffffff007fffffffffffffffffffffffffffffffffffffffffffffffffffffffffffff00ff909116610100171660011790555b610fb56115e6565b606580547fffffffffffffffffffffffff00000000000000000000000000000000000000001673ffffffffffffffffffffffffffffffffffffffff8416179055801561102457600080547fffffffffffffffffffffffffffffffffffffffffffffffffffffffffffff00ff1690555b5050565b60655473ffffffffffffffffffffffffffffffffffffffff1681565b61104c6111e6565b73ffffffffffffffffffffffffffffffffffffffff1661106a6102e2565b73ffffffffffffffffffffffffffffffffffffffff16146110ec57604080517f08c379a000000000000000000000000000000000000000000000000000000000815260206004820181905260248201527f4f776e61626c653a2063616c6c6572206973206e6f7420746865206f776e6572604482015290519081900360640190fd5b73ffffffffffffffffffffffffffffffffffffffff8116611158576040517f08c379a00000000000000000000000000000000000000000000000000000000081526004018080602001828103825260268152602001806119d36026913960400191505060405180910390fd5b60335460405173ffffffffffffffffffffffffffffffffffffffff8084169216907f8be0079c531659141344cd1fd0a4f28419497f9722a3daafe3b4186f6b6457e090600090a3603380547fffffffffffffffffffffffff00000000000000000000000000000000000000001673ffffffffffffffffffffffffffffffffffffffff92909216919091179055565b3390565b60008173ffffffffffffffffffffffffffffffffffffffff166370a08231306040518263ffffffff1660e01b8152600401808273ffffffffffffffffffffffffffffffffffffffff16815260200191505060206040518083038186803b15801561125357600080fd5b505afa158015611267573d6000803e3d6000fd5b505050506040513d602081101561127d57600080fd5b505192915050565b6040805173ffffffffffffffffffffffffffffffffffffffff8481166024830152604480830185905283518084039091018152606490920183526020820180517bffffffffffffffffffffffffffffffffffffffffffffffffffffffff167f095ea7b300000000000000000000000000000000000000000000000000000000178152925182516000946060949389169392918291908083835b6020831061135b57805182527fffffffffffffffffffffffffffffffffffffffffffffffffffffffffffffffe0909201916020918201910161131e565b6001836020036101000a0380198251168184511680821785525050505050509050019150506000604051808303816000865af19150503d80600081146113bd576040519150601f19603f3d011682016040523d82523d6000602084013e6113c2565b606091505b50915091508180156113f05750805115806113f057508080602001905160208110156113ed57600080fd5b50515b61145b57604080517f08c379a000000000000000000000000000000000000000000000000000000000815260206004820152600c60248201527f2173616665417070726f76650000000000000000000000000000000000000000604482015290519081900360640190fd5b5050505050565b6000828211156114d357604080517f08c379a000000000000000000000000000000000000000000000000000000000815260206004820152601e60248201527f536166654d6174683a207375627472616374696f6e206f766572666c6f770000604482015290519081900360640190fd5b50900390565b600080821161154957604080517f08c379a000000000000000000000000000000000000000000000000000000000815260206004820152601a60248201527f536166654d6174683a206469766973696f6e206279207a65726f000000000000604482015290519081900360640190fd5b81838161155257fe5b049392505050565b6000828201838110156115ce57604080517f08c379a000000000000000000000000000000000000000000000000000000000815260206004820152601b60248201527f536166654d6174683a206164646974696f6e206f766572666c6f770000000000604482015290519081900360640190fd5b9392505050565b60006115e03061170a565b15905090565b600054610100900460ff16806115ff57506115ff6115d5565b8061160d575060005460ff16155b611662576040517f08c379a000000000000000000000000000000000000000000000000000000000815260040180806020018281038252602e8152602001806119f9602e913960400191505060405180910390fd5b600054610100900460ff161580156116c857600080547fffffffffffffffffffffffffffffffffffffffffffffffffffffffffffffff007fffffffffffffffffffffffffffffffffffffffffffffffffffffffffffff00ff909116610100171660011790555b6116d0611710565b6116d8611822565b801561170757600080547fffffffffffffffffffffffffffffffffffffffffffffffffffffffffffff00ff1690555b50565b3b151590565b600054610100900460ff168061172957506117296115d5565b80611737575060005460ff16155b61178c576040517f08c379a000000000000000000000000000000000000000000000000000000000815260040180806020018281038252602e8152602001806119f9602e913960400191505060405180910390fd5b600054610100900460ff161580156116d857600080547fffffffffffffffffffffffffffffffffffffffffffffffffffffffffffffff007fffffffffffffffffffffffffffffffffffffffffffffffffffffffffffff00ff90911661010017166001179055801561170757600080547fffffffffffffffffffffffffffffffffffffffffffffffffffffffffffff00ff16905550565b600054610100900460ff168061183b575061183b6115d5565b80611849575060005460ff16155b61189e576040517f08c379a000000000000000000000000000000000000000000000000000000000815260040180806020018281038252602e8152602001806119f9602e913960400191505060405180910390fd5b600054610100900460ff1615801561190457600080547fffffffffffffffffffffffffffffffffffffffffffffffffffffffffffffff007fffffffffffffffffffffffffffffffffffffffffffffffffffffffffffff00ff909116610100171660011790555b600061190e6111e6565b603380547fffffffffffffffffffffffff00000000000000000000000000000000000000001673ffffffffffffffffffffffffffffffffffffffff8316908117909155604051919250906000907f8be0079c531659141344cd1fd0a4f28419497f9722a3daafe3b4186f6b6457e0908290a350801561170757600080547fffffffffffffffffffffffffffffffffffffffffffffffffffffffffffff00ff16905550565b60408051606081018252600080825260208201819052918101919091529056fe4f776e61626c653a206e6577206f776e657220697320746865207a65726f2061646472657373496e697469616c697a61626c653a20636f6e747261637420697320616c726561647920696e697469616c697a6564a26469706673582212202a1ce464c7223e5407caf056e2acc849ec710c10fa7157c5dad71ea11066623064736f6c634300060c0033",
  "linkReferences": {},
  "deployedLinkReferences": {}
}